{
  "address": "0x8cdAFA5718d7012e4AFbA39745Bb6Dd88206a812",
  "abi": [
    {
      "inputs": [
        {
          "internalType": "contract IAccountManagerToken",
          "name": "_accountManagerToken",
          "type": "address"
        },
        {
          "internalType": "address",
          "name": "_router",
          "type": "address"
        },
        {
          "internalType": "contract IVault",
          "name": "_vault",
          "type": "address"
        },
        {
          "internalType": "contract IOrderBook",
          "name": "_orderBook",
          "type": "address"
        },
        {
          "internalType": "contract IPositionRouter",
          "name": "_positionRouter",
          "type": "address"
        },
        {
          "internalType": "address[8]",
          "name": "_indexTokenArr",
          "type": "address[8]"
        },
        {
          "internalType": "address[4]",
          "name": "_stablecoinsArray",
          "type": "address[4]"
        },
        {
          "internalType": "bool[8]",
          "name": "_permissions",
          "type": "bool[8]"
        }
      ],
      "stateMutability": "nonpayable",
      "type": "constructor"
    },
    {
      "anonymous": false,
      "inputs": [
        {
          "indexed": true,
          "internalType": "address",
          "name": "previousOwner",
          "type": "address"
        },
        {
          "indexed": true,
          "internalType": "address",
          "name": "newOwner",
          "type": "address"
        }
      ],
      "name": "OwnershipTransferred",
      "type": "event"
    },
    {
      "inputs": [],
      "name": "accountManagerToken",
      "outputs": [
        {
          "internalType": "contract IAccountManagerToken",
          "name": "",
          "type": "address"
        }
      ],
      "stateMutability": "view",
      "type": "function"
    },
    {
      "inputs": [
        {
          "internalType": "uint256",
          "name": "_orderIndex",
          "type": "uint256"
        }
      ],
      "name": "cancelDecreaseOrder",
      "outputs": [],
      "stateMutability": "nonpayable",
      "type": "function"
    },
    {
      "inputs": [
        {
          "internalType": "uint256",
          "name": "_orderIndex",
          "type": "uint256"
        }
      ],
      "name": "cancelIncreaseOrder",
      "outputs": [],
      "stateMutability": "nonpayable",
      "type": "function"
    },
    {
      "inputs": [
        {
          "internalType": "address",
          "name": "_indexToken",
          "type": "address"
        },
        {
          "internalType": "uint256",
          "name": "_sizeDelta",
          "type": "uint256"
        },
        {
          "internalType": "address",
          "name": "_collateralToken",
          "type": "address"
        },
        {
          "internalType": "uint256",
          "name": "_collateralDelta",
          "type": "uint256"
        },
        {
          "internalType": "bool",
          "name": "_isLong",
          "type": "bool"
        },
        {
          "internalType": "uint256",
          "name": "_triggerPrice",
          "type": "uint256"
        },
        {
          "internalType": "bool",
          "name": "_triggerAboveThreshold",
          "type": "bool"
        },
        {
          "internalType": "uint256",
          "name": "_executionFee",
          "type": "uint256"
        }
      ],
      "name": "createDecreaseOrder",
      "outputs": [],
      "stateMutability": "payable",
      "type": "function"
    },
    {
      "inputs": [
        {
          "internalType": "address[]",
          "name": "_path",
          "type": "address[]"
        },
        {
          "internalType": "address",
          "name": "_indexToken",
          "type": "address"
        },
        {
          "internalType": "uint256",
          "name": "_collateralDelta",
          "type": "uint256"
        },
        {
          "internalType": "uint256",
          "name": "_sizeDelta",
          "type": "uint256"
        },
        {
          "internalType": "bool",
          "name": "_isLong",
          "type": "bool"
        },
        {
          "internalType": "uint256",
          "name": "_acceptablePrice",
          "type": "uint256"
        },
        {
          "internalType": "uint256",
          "name": "_minOut",
          "type": "uint256"
        },
        {
          "internalType": "uint256",
          "name": "_executionFee",
          "type": "uint256"
        },
        {
          "internalType": "bool",
          "name": "_withdrawETH",
          "type": "bool"
        },
        {
          "internalType": "address",
          "name": "_callbackTarget",
          "type": "address"
        }
      ],
      "name": "createDecreasePosition",
      "outputs": [],
      "stateMutability": "payable",
      "type": "function"
    },
    {
      "inputs": [],
      "name": "createDoppelgangerGMX",
      "outputs": [],
      "stateMutability": "nonpayable",
      "type": "function"
    },
    {
      "inputs": [
        {
          "internalType": "address[]",
          "name": "_path",
          "type": "address[]"
        },
        {
          "internalType": "uint256",
          "name": "_amountIn",
          "type": "uint256"
        },
        {
          "internalType": "address",
          "name": "_indexToken",
          "type": "address"
        },
        {
          "internalType": "uint256",
          "name": "_minOut",
          "type": "uint256"
        },
        {
          "internalType": "uint256",
          "name": "_sizeDelta",
          "type": "uint256"
        },
        {
          "internalType": "address",
          "name": "_collateralToken",
          "type": "address"
        },
        {
          "internalType": "bool",
          "name": "_isLong",
          "type": "bool"
        },
        {
          "internalType": "uint256",
          "name": "_triggerPrice",
          "type": "uint256"
        },
        {
          "internalType": "bool",
          "name": "_triggerAboveThreshold",
          "type": "bool"
        },
        {
          "internalType": "uint256",
          "name": "_executionFee",
          "type": "uint256"
        },
        {
          "internalType": "bool",
          "name": "_shouldWrap",
          "type": "bool"
        }
      ],
      "name": "createIncreaseOrder",
      "outputs": [],
      "stateMutability": "payable",
      "type": "function"
    },
    {
      "inputs": [
        {
          "internalType": "address[]",
          "name": "_path",
          "type": "address[]"
        },
        {
          "internalType": "address",
          "name": "_indexToken",
          "type": "address"
        },
        {
          "internalType": "uint256",
          "name": "_amountIn",
          "type": "uint256"
        },
        {
          "internalType": "uint256",
          "name": "_minOut",
          "type": "uint256"
        },
        {
          "internalType": "uint256",
          "name": "_sizeDelta",
          "type": "uint256"
        },
        {
          "internalType": "bool",
          "name": "_isLong",
          "type": "bool"
        },
        {
          "internalType": "uint256",
          "name": "_acceptablePrice",
          "type": "uint256"
        },
        {
          "internalType": "uint256",
          "name": "_executionFee",
          "type": "uint256"
        },
        {
          "internalType": "bytes32",
          "name": "_referralCode",
          "type": "bytes32"
        },
        {
          "internalType": "address",
          "name": "_callbackTarget",
          "type": "address"
        }
      ],
      "name": "createIncreasePosition",
      "outputs": [],
      "stateMutability": "payable",
      "type": "function"
    },
    {
      "inputs": [
        {
          "internalType": "address[]",
          "name": "_path",
          "type": "address[]"
        },
        {
          "internalType": "address",
          "name": "_indexToken",
          "type": "address"
        },
        {
          "internalType": "uint256",
          "name": "_amountIn",
          "type": "uint256"
        },
        {
          "internalType": "uint256",
          "name": "_minOut",
          "type": "uint256"
        },
        {
          "internalType": "uint256",
          "name": "_sizeDelta",
          "type": "uint256"
        },
        {
          "internalType": "bool",
          "name": "_isLong",
          "type": "bool"
        },
        {
          "internalType": "uint256",
          "name": "_acceptablePrice",
          "type": "uint256"
        },
        {
          "internalType": "uint256",
          "name": "_executionFee",
          "type": "uint256"
        },
        {
          "internalType": "bytes32",
          "name": "_referralCode",
          "type": "bytes32"
        },
        {
          "internalType": "address",
          "name": "_callbackTarget",
          "type": "address"
        }
      ],
      "name": "createIncreasePositionETH",
      "outputs": [],
      "stateMutability": "payable",
      "type": "function"
    },
    {
      "inputs": [
        {
          "internalType": "uint256",
          "name": "id",
          "type": "uint256"
        }
      ],
      "name": "currentPrice",
      "outputs": [
        {
          "internalType": "uint256",
          "name": "",
          "type": "uint256"
        }
      ],
      "stateMutability": "view",
      "type": "function"
    },
    {
      "inputs": [],
      "name": "ddl_gmx",
      "outputs": [
        {
          "internalType": "address",
          "name": "",
          "type": "address"
        }
      ],
      "stateMutability": "view",
      "type": "function"
    },
    {
      "inputs": [
        {
          "internalType": "address",
          "name": "",
          "type": "address"
        }
      ],
      "name": "doppelgangerMap",
      "outputs": [
        {
          "internalType": "address payable",
          "name": "",
          "type": "address"
        }
      ],
      "stateMutability": "view",
      "type": "function"
    },
    {
      "inputs": [
        {
          "internalType": "uint256",
          "name": "id",
          "type": "uint256"
        }
      ],
      "name": "getPosition",
      "outputs": [
        {
          "internalType": "uint256",
          "name": "size",
          "type": "uint256"
        },
        {
          "internalType": "uint256",
          "name": "collateral",
          "type": "uint256"
        },
        {
          "internalType": "uint256",
          "name": "averagePrice",
          "type": "uint256"
        },
        {
          "internalType": "uint256",
          "name": "entryFundingRate",
          "type": "uint256"
        },
        {
          "internalType": "uint256",
          "name": "reserveAmount",
          "type": "uint256"
        },
        {
          "internalType": "uint256",
          "name": "realisedPnl",
          "type": "uint256"
        },
        {
          "internalType": "bool",
          "name": "isProfit",
          "type": "bool"
        },
        {
          "internalType": "uint256",
          "name": "lastIncreasedTime",
          "type": "uint256"
        }
      ],
      "stateMutability": "view",
      "type": "function"
    },
    {
      "inputs": [
        {
          "internalType": "uint256",
          "name": "id",
          "type": "uint256"
        }
      ],
      "name": "getPositionDelta",
      "outputs": [
        {
          "internalType": "bool",
          "name": "isProfit",
          "type": "bool"
        },
        {
          "internalType": "uint256",
          "name": "profit",
          "type": "uint256"
        }
      ],
      "stateMutability": "view",
      "type": "function"
    },
    {
      "inputs": [
        {
          "internalType": "uint256",
          "name": "",
          "type": "uint256"
        }
      ],
      "name": "indexTokenArr",
      "outputs": [
        {
          "internalType": "address",
          "name": "",
          "type": "address"
        }
      ],
      "stateMutability": "view",
      "type": "function"
    },
    {
      "inputs": [
        {
          "internalType": "enum IAccountManager.Symbols",
          "name": "",
          "type": "uint8"
        }
      ],
      "name": "indexTokenBySymbol",
      "outputs": [
        {
          "internalType": "address",
          "name": "",
          "type": "address"
        }
      ],
      "stateMutability": "view",
      "type": "function"
    },
    {
      "inputs": [
        {
          "internalType": "uint256",
          "name": "id",
          "type": "uint256"
        }
      ],
      "name": "isLong",
      "outputs": [
        {
          "internalType": "bool",
          "name": "",
          "type": "bool"
        }
      ],
      "stateMutability": "view",
      "type": "function"
    },
    {
      "inputs": [
        {
          "internalType": "uint256",
          "name": "",
          "type": "uint256"
        }
      ],
      "name": "keyData",
      "outputs": [
        {
          "internalType": "enum IAccountManager.Symbols",
          "name": "symbol",
          "type": "uint8"
        },
        {
          "internalType": "address",
          "name": "doppelgangerContract",
          "type": "address"
        },
        {
          "internalType": "bool",
          "name": "isLong",
          "type": "bool"
        },
        {
          "internalType": "address",
          "name": "indexToken",
          "type": "address"
        },
        {
          "internalType": "address",
          "name": "user",
          "type": "address"
        }
      ],
      "stateMutability": "view",
      "type": "function"
    },
    {
      "inputs": [],
      "name": "orderBook",
      "outputs": [
        {
          "internalType": "contract IOrderBook",
          "name": "",
          "type": "address"
        }
      ],
      "stateMutability": "view",
      "type": "function"
    },
    {
      "inputs": [],
      "name": "owner",
      "outputs": [
        {
          "internalType": "address",
          "name": "",
          "type": "address"
        }
      ],
      "stateMutability": "view",
      "type": "function"
    },
    {
      "inputs": [
        {
          "internalType": "address",
          "name": "",
          "type": "address"
        }
      ],
      "name": "permissions",
      "outputs": [
        {
          "internalType": "bool",
          "name": "",
          "type": "bool"
        }
      ],
      "stateMutability": "view",
      "type": "function"
    },
    {
      "inputs": [],
      "name": "positionRouter",
      "outputs": [
        {
          "internalType": "contract IPositionRouter",
          "name": "",
          "type": "address"
        }
      ],
      "stateMutability": "view",
      "type": "function"
    },
    {
      "inputs": [],
      "name": "renounceOwnership",
      "outputs": [],
      "stateMutability": "nonpayable",
      "type": "function"
    },
    {
      "inputs": [],
      "name": "router",
      "outputs": [
        {
          "internalType": "address",
          "name": "",
          "type": "address"
        }
      ],
      "stateMutability": "view",
      "type": "function"
    },
    {
      "inputs": [
        {
          "internalType": "address",
          "name": "value",
          "type": "address"
        }
      ],
      "name": "setDDL_GMX",
      "outputs": [],
      "stateMutability": "nonpayable",
      "type": "function"
    },
    {
      "inputs": [
        {
          "internalType": "enum IAccountManager.Symbols",
          "name": "symbol",
          "type": "uint8"
        },
        {
          "internalType": "bool",
          "name": "value",
          "type": "bool"
        }
      ],
      "name": "setPermission",
      "outputs": [],
      "stateMutability": "nonpayable",
      "type": "function"
    },
    {
      "inputs": [
        {
          "internalType": "uint256",
          "name": "",
          "type": "uint256"
        }
      ],
      "name": "stablecoinsArray",
      "outputs": [
        {
          "internalType": "address",
          "name": "",
          "type": "address"
        }
      ],
      "stateMutability": "view",
      "type": "function"
    },
    {
      "inputs": [
        {
          "internalType": "address",
          "name": "",
          "type": "address"
        }
      ],
      "name": "symbolByIndexToken",
      "outputs": [
        {
          "internalType": "enum IAccountManager.Symbols",
          "name": "",
          "type": "uint8"
        }
      ],
      "stateMutability": "view",
      "type": "function"
    },
    {
      "inputs": [],
      "name": "tokenId",
      "outputs": [
        {
          "internalType": "uint256",
          "name": "",
          "type": "uint256"
        }
      ],
      "stateMutability": "view",
      "type": "function"
    },
    {
      "inputs": [
        {
          "internalType": "address",
          "name": "newOwner",
          "type": "address"
        }
      ],
      "name": "transferOwnership",
      "outputs": [],
      "stateMutability": "nonpayable",
      "type": "function"
    },
    {
      "inputs": [
        {
          "internalType": "uint256",
          "name": "_orderIndex",
          "type": "uint256"
        },
        {
          "internalType": "uint256",
          "name": "_collateralDelta",
          "type": "uint256"
        },
        {
          "internalType": "uint256",
          "name": "_sizeDelta",
          "type": "uint256"
        },
        {
          "internalType": "uint256",
          "name": "_triggerPrice",
          "type": "uint256"
        },
        {
          "internalType": "bool",
          "name": "_triggerAboveThreshold",
          "type": "bool"
        }
      ],
      "name": "updateDecreaseOrder",
      "outputs": [],
      "stateMutability": "nonpayable",
      "type": "function"
    },
    {
      "inputs": [
        {
          "internalType": "uint256",
          "name": "_orderIndex",
          "type": "uint256"
        },
        {
          "internalType": "uint256",
          "name": "_sizeDelta",
          "type": "uint256"
        },
        {
          "internalType": "uint256",
          "name": "_triggerPrice",
          "type": "uint256"
        },
        {
          "internalType": "bool",
          "name": "_triggerAboveThreshold",
          "type": "bool"
        }
      ],
      "name": "updateIncreaseOrder",
      "outputs": [],
      "stateMutability": "nonpayable",
      "type": "function"
    },
    {
      "inputs": [],
      "name": "vault",
      "outputs": [
        {
          "internalType": "contract IVault",
          "name": "",
          "type": "address"
        }
      ],
      "stateMutability": "view",
      "type": "function"
    },
    {
      "inputs": [
        {
          "internalType": "uint256",
          "name": "id",
          "type": "uint256"
        },
        {
          "internalType": "address",
          "name": "tokenAddress",
          "type": "address"
        }
      ],
      "name": "withdrawLiquidity",
      "outputs": [],
      "stateMutability": "nonpayable",
      "type": "function"
    }
  ],
  "transactionHash": "0x7dd765d2f8b2a19dd203805b97fbf195691fe62c536c48a1f3b4141f29658c36",
  "args": [
    "0x3B44737Bc4F5F9D121643E08281d266eC68bd9cD",
    "0xaBBc5F99639c9B6bCb58544ddf04EFA6802F4064",
    "0x489ee077994B6658eAfA855C308275EAd8097C4A",
    "0x09f77e8a13de9a35a7231028187e9fd5db8a2acb",
    "0xb87a436B93fFE9D75c5cFA7bAcFff96430b09868",
    [
      "0x82aF49447D8a07e3bd95BD0d56f35241523fBab1",
      "0x2f2a2543B76A4166549F7aaB2e75Bef0aefC5B0f",
      "0xf97f4df75117a78c1A5a0DBb814Af92458539FB4",
      "0xFa7F8980b0f1E64A2062791cc3b0871572f1F7f0",
      "0x82aF49447D8a07e3bd95BD0d56f35241523fBab1",
      "0x2f2a2543B76A4166549F7aaB2e75Bef0aefC5B0f",
      "0xf97f4df75117a78c1A5a0DBb814Af92458539FB4",
      "0xFa7F8980b0f1E64A2062791cc3b0871572f1F7f0"
    ],
    [
      "0xFF970A61A04b1cA14834A43f5dE4533eBDDB5CC8",
      "0xFd086bC7CD5C481DCC9C85ebE478A1C0b69FCbb9",
      "0xDA10009cBd5D07dd0CeCc66161FC93D7c9000da1",
      "0x17FC002b466eEc40DaE837Fc4bE5c67993ddBd6F"
    ],
    [
      true,
      true,
      true,
      true,
      true,
      true,
      true,
      true
    ]
  ],
  "numDeployments": 3,
  "solcInputHash": "a1991dc8842fffc1fa00db4f07054a13",
  "bytecode": "0x61012060405260006002553480156200001757600080fd5b5060405162005637380380620056378339810160408190526200003a916200043b565b620000453362000229565b6001600160601b0319606089811b821660805288811b821660a05287811b821660c05286811b821660e05285901b1661010052620000866008848162000279565b50620000966010836004620002d6565b5060005b60088110156200021a57806007811115620000b957620000b9620005ad565b60056000868460088110620000d257620000d2620005c3565b602090810291909101516001600160a01b03168252810191909152604001600020805460ff19166001836007811115620001105762000110620005ad565b02179055508381600881106200012a576200012a620005c3565b602002015160066000836007811115620001485762000148620005ad565b60078111156200015c576200015c620005ad565b6007811115620001705762000170620005ad565b815260200190815260200160002060006101000a8154816001600160a01b0302191690836001600160a01b03160217905550818160088110620001b757620001b7620005c3565b602002015160076000868460088110620001d557620001d5620005c3565b602090810291909101516001600160a01b03168252810191909152604001600020805460ff191691151591909117905580620002118162000583565b9150506200009a565b505050505050505050620005f2565b600080546001600160a01b038381166001600160a01b0319831681178455604051919092169283917f8be0079c531659141344cd1fd0a4f28419497f9722a3daafe3b4186f6b6457e09190a35050565b8260088101928215620002c4579160200282015b82811115620002c457825182546001600160a01b0319166001600160a01b039091161782556020909201916001909101906200028d565b50620002d292915062000320565b5090565b8260048101928215620002c45791602002820182811115620002c457825182546001600160a01b0319166001600160a01b039091161782556020909201916001909101906200028d565b5b80821115620002d2576000815560010162000321565b600082601f8301126200034957600080fd5b604051608081016001600160401b03811182821017156200037a57634e487b7160e01b600052604160045260246000fd5b6040528083608081018610156200039057600080fd5b60005b6004811015620003c0578151620003aa81620005d9565b8352602092830192919091019060010162000393565b509195945050505050565b600082601f830112620003dd57600080fd5b620003e76200054b565b80838561010086011115620003fb57600080fd5b6000805b60088110156200042f578251801515811462000419578283fd5b85526020948501949290920191600101620003ff565b50919695505050505050565b600080600080600080600080610320898b0312156200045957600080fd5b88516200046681620005d9565b809850506020808a01516200047b81620005d9565b60408b01519098506200048e81620005d9565b60608b0151909750620004a181620005d9565b60808b0151909650620004b481620005d9565b945060bf8a018b13620004c657600080fd5b620004d06200054b565b8060a08c016101a08d018e811115620004e857600080fd5b60005b6008811015620005155782516200050281620005d9565b85529385019391850191600101620004eb565b50829750620005258f8262000337565b965050505050506200053c8a6102208b01620003cb565b90509295985092959890939650565b60405161010081016001600160401b03811182821017156200057d57634e487b7160e01b600052604160045260246000fd5b60405290565b6000600019821415620005a657634e487b7160e01b600052601160045260246000fd5b5060010190565b634e487b7160e01b600052602160045260246000fd5b634e487b7160e01b600052603260045260246000fd5b6001600160a01b0381168114620005ef57600080fd5b50565b60805160601c60a05160601c60c05160601c60e05160601c6101005160601c614f96620006a16000396000818161041d0152610b9c0152600081816104a701528181610bde01528181610f190152818161146c0152818161168e01526117e5015260008181610822015281816108ac0152818161130d015281816113ca0152611b3c0152600081816107ec0152610bbd01526000818161067c01528181610c050152610dfb0152614f966000f3fe608060405260043610620002225760003560e01c80638da5cb5b1162000123578063b7d3211011620000ad578063eb02c3011162000078578063eb02c3011462000739578063f2ae372f146200079c578063f2fde38b14620007b3578063f887ea4014620007d8578063fbfa77cf146200080e57600080fd5b8063b7d32110146200062e578063be1528611462000668578063c7960d35146200069e578063e6e6dd2f14620006c357600080fd5b8063a226b48311620000ee578063a226b483146200057d578063a397ea5414620005b8578063a4cf54a214620005dd578063b142a4b0146200061757600080fd5b80638da5cb5b14620004ee5780639983ee1b146200050e5780639e71527d14620005335780639e71b0f0146200055857600080fd5b8063449bd2cc11620001b157806367e92f91116200017c57806367e92f91146200043f57806368fc0c9a1462000456578063715018a6146200047b578063776af5ba14620004935780637a3c4c1714620004c957600080fd5b8063449bd2cc14620003b557806347e0bbd014620003cd57806355c32a3c14620003f257806361ef161f146200040957600080fd5b80633264fee511620001f25780633264fee514620002f757806332d53b17146200031e57806335180f5f146200035b57806336330a4f146200037257600080fd5b806230e1b5146200022757806301e8820814620002695780630cd790f714620002ae57806317d70f7c14620002d0575b600080fd5b3480156200023457600080fd5b506200024c620002463660046200256a565b62000844565b6040516001600160a01b0390911681526020015b60405180910390f35b3480156200027657600080fd5b506200029d620002883660046200208a565b60076020526000908152604090205460ff1681565b604051901515815260200162000260565b348015620002bb57600080fd5b506001546200024c906001600160a01b031681565b348015620002dd57600080fd5b50620002e860025481565b60405190815260200162000260565b3480156200030457600080fd5b506200031c620003163660046200208a565b62000865565b005b3480156200032b57600080fd5b50620003436200033d3660046200256a565b62000891565b60408051921515835260208301919091520162000260565b6200031c6200036c36600462002277565b620009d8565b3480156200037f57600080fd5b50620003a6620003913660046200208a565b60056020526000908152604090205460ff1681565b60405162000260919062002993565b348015620003c257600080fd5b506200031c62000aad565b348015620003da57600080fd5b506200031c620003ec3660046200256a565b62000ea9565b6200031c6200040336600462002158565b6200103b565b3480156200041657600080fd5b506200024c7f000000000000000000000000000000000000000000000000000000000000000081565b6200031c620004503660046200233f565b6200112a565b3480156200046357600080fd5b506200031c620004753660046200259e565b620011c1565b3480156200048857600080fd5b506200031c620012a0565b348015620004a057600080fd5b506200024c7f000000000000000000000000000000000000000000000000000000000000000081565b348015620004d657600080fd5b50620002e8620004e83660046200256a565b620012b8565b348015620004fb57600080fd5b506000546001600160a01b03166200024c565b3480156200051b57600080fd5b506200031c6200052d366004620025c6565b620013fc565b3480156200054057600080fd5b506200031c620005523660046200252e565b620015a3565b3480156200056557600080fd5b506200031c620005773660046200256a565b6200161e565b3480156200058a57600080fd5b506200029d6200059c3660046200256a565b600090815260046020526040902054600160a81b900460ff1690565b348015620005c557600080fd5b506200031c620005d73660046200260a565b62001775565b348015620005ea57600080fd5b506200024c620005fc3660046200208a565b6003602052600090815260409020546001600160a01b031681565b6200031c62000628366004620023e9565b6200193a565b3480156200063b57600080fd5b506200024c6200064d36600462002510565b6006602052600090815260409020546001600160a01b031681565b3480156200067557600080fd5b506200024c7f000000000000000000000000000000000000000000000000000000000000000081565b348015620006ab57600080fd5b506200024c620006bd3660046200256a565b62001b04565b348015620006d057600080fd5b5062000726620006e23660046200256a565b60046020526000908152604090208054600182015460029092015460ff808316936001600160a01b036101008504811694600160a81b900490921692908216911685565b60405162000260959493929190620029a3565b3480156200074657600080fd5b506200075e620007583660046200256a565b62001b15565b604080519889526020890197909752958701949094526060860192909252608085015260a0840152151560c083015260e08201526101000162000260565b6200031c620007ad3660046200233f565b62001c8c565b348015620007c057600080fd5b506200031c620007d23660046200208a565b62001de5565b348015620007e557600080fd5b506200024c7f000000000000000000000000000000000000000000000000000000000000000081565b3480156200081b57600080fd5b506200024c7f000000000000000000000000000000000000000000000000000000000000000081565b601081600481106200085557600080fd5b01546001600160a01b0316905081565b6200086f62001e64565b600180546001600160a01b0319166001600160a01b0392909216919091179055565b60008181526004602052604081205481906001600160a01b037f00000000000000000000000000000000000000000000000000000000000000008116916345a6f370916101008204169060ff600160a81b90910416620008fd576010546001600160a01b031662000919565b6000868152600460205260409020600101546001600160a01b03165b60008781526004602081905260409182902060018101549054925160e087901b6001600160e01b03191681526001600160a01b03958616928101929092529284166024820152929091166044830152600160a81b900460ff1615156064820152608401604080518083038186803b1580156200099457600080fd5b505afa158015620009a9573d6000803e3d6000fd5b505050506040513d601f19601f82011682018060405250810190620009cf9190620024df565b91509150915091565b336000908152600360205260409020546001600160a01b031662000a195760405162461bcd60e51b815260040162000a1090620029e4565b60405180910390fd5b3360008181526003602052604090819020549051636f7e879960e01b81526001600160a01b0390911691636f7e879991349162000a6d918f908f908f908f908f908f908f908f908f908f9060040162002774565b6000604051808303818588803b15801562000a8757600080fd5b505af115801562000a9c573d6000803e3d6000fd5b505050505050505050505050505050565b336000908152600360205260409020546001600160a01b03161562000b295760405162461bcd60e51b815260206004820152602b60248201527f446f7070656c47616e67657220666f722074686973206164647265737320616c60448201526a1c9958591e48195e1a5cdd60aa1b606482015260840162000a10565b6002805490600890600062000b3f838562002a1b565b9091555062000b4f905062001f7a565b60005b600881101562000b975762000b68818462002a1b565b82826008811062000b7d5762000b7d62002a80565b60200201528062000b8e8162002a36565b91505062000b52565b5060007f00000000000000000000000000000000000000000000000000000000000000007f00000000000000000000000000000000000000000000000000000000000000007f00000000000000000000000000000000000000000000000000000000000000008460086010307f0000000000000000000000000000000000000000000000000000000000000000600160009054906101000a90046001600160a01b031660405162000c489062001f99565b62000c5c99989796959493929190620028e2565b604051809103906000f08015801562000c79573d6000803e3d6000fd5b5033600090815260036020526040812080546001600160a01b0319166001600160a01b0384161790559091505b600881101562000ea3576040518060a0016040528082600781111562000cd05762000cd062002a6a565b600781111562000ce45762000ce462002a6a565b8152602001836001600160a01b031681526020016004831062000d0957600062000d0c565b60015b151581526020016008836008811062000d295762000d2962002a80565b01546001600160a01b03168152336020909101526004600062000d4d848862002a1b565b8152602081019190915260400160002081518154829060ff1916600183600781111562000d7e5762000d7e62002a6a565b02179055506020820151815460408401511515600160a81b0260ff60a81b196001600160a01b039384166101000216610100600160b01b03199092169190911717825560608301516001830180549183166001600160a01b03199283161790556080909301516002909201805492821692909316919091179091557f0000000000000000000000000000000000000000000000000000000000000000166340c10f193362000e2d848862002a1b565b6040516001600160e01b031960e085901b1681526001600160a01b0390921660048301526024820152604401600060405180830381600087803b15801562000e7457600080fd5b505af115801562000e89573d6000803e3d6000fd5b50505050808062000e9a9062002a36565b91505062000ca6565b50505050565b336000908152600360205260409020546001600160a01b031662000ee15760405162461bcd60e51b815260040162000a1090620029e4565b3360009081526003602052604080822054905163d3bab1d160e01b81526001600160a01b0391821660048201526024810184905282917f0000000000000000000000000000000000000000000000000000000000000000169063d3bab1d1906044016101206040518083038186803b15801562000f5d57600080fd5b505afa15801562000f72573d6000803e3d6000fd5b505050506040513d601f19601f8201168201806040525081019062000f989190620020b1565b50503360008181526003602052604090819020549051635997465b60e11b815260048101929092526001600160a01b0380871660248401528415156044840152606483018d9052959a5092985093909116955063b32e8cb694505060849091019150620010029050565b600060405180830381600087803b1580156200101d57600080fd5b505af115801562001032573d6000803e3d6000fd5b50505050505050565b336000908152600360205260409020546001600160a01b0316620010735760405162461bcd60e51b815260040162000a1090620029e4565b336000818152600360205260409081902054905163c8fddadb60e01b815260048101929092526001600160a01b038a81166024840152604483018a905288811660648401526084830188905286151560a484015260c4830186905284151560e48401526101048301849052169063c8fddadb903490610124016000604051808303818588803b1580156200110657600080fd5b505af11580156200111b573d6000803e3d6000fd5b50505050505050505050505050565b336000908152600360205260409020546001600160a01b0316620011625760405162461bcd60e51b815260040162000a1090620029e4565b6200116d8962001ec0565b336000818152600360205260409081902054905163da91dfd560e01b81526001600160a01b039091169163da91dfd591349162000a6d918f908f908f908f908f908f908f908f908f908f90600401620027ec565b336000908152600360205260409020546001600160a01b0316620011f95760405162461bcd60e51b815260040162000a1090620029e4565b3360008181526003602090815260408083205486845260049283905292819020600181015490549151633436f13960e21b8152928301949094526001600160a01b039384166024830152600160a81b900460ff1615156044820152838316606482015291169063d0dbc4e490608401600060405180830381600087803b1580156200128357600080fd5b505af115801562001298573d6000803e3d6000fd5b505050505050565b620012aa62001e64565b620012b6600062001f2a565b565b600081815260046020526040812054600160a81b900460ff16156200139457600082815260046020819052604091829020600101549151637092736960e11b81526001600160a01b03928316918101919091527f00000000000000000000000000000000000000000000000000000000000000009091169063e124e6d2906024015b60206040518083038186803b1580156200135357600080fd5b505afa15801562001368573d6000803e3d6000fd5b505050506040513d601f19601f820116820180604052508101906200138e919062002584565b92915050565b6000828152600460208190526040918290206001015491516340d3096b60e11b81526001600160a01b03928316918101919091527f0000000000000000000000000000000000000000000000000000000000000000909116906381a612d6906024016200133a565b336000908152600360205260409020546001600160a01b0316620014345760405162461bcd60e51b815260040162000a1090620029e4565b3360009081526003602052604080822054905163d3bab1d160e01b81526001600160a01b0391821660048201526024810187905282917f0000000000000000000000000000000000000000000000000000000000000000169063d3bab1d1906044016101206040518083038186803b158015620014b057600080fd5b505afa158015620014c5573d6000803e3d6000fd5b505050506040513d601f19601f82011682018060405250810190620014eb9190620020b1565b5050509550509450505050620015018262001ec0565b336000818152600360205260409081902054905163fc86da8960e01b815260048101929092526001600160a01b0384811660248401528315156044840152606483018990526084830188905260a4830187905285151560c4840152169063fc86da899060e401600060405180830381600087803b1580156200158257600080fd5b505af115801562001597573d6000803e3d6000fd5b50505050505050505050565b620015ad62001e64565b806007600060066000866007811115620015cb57620015cb62002a6a565b6007811115620015df57620015df62002a6a565b815260208082019290925260409081016000908120546001600160a01b031684529183019390935291019020805460ff19169115159190911790555050565b336000908152600360205260409020546001600160a01b0316620016565760405162461bcd60e51b815260040162000a1090620029e4565b33600090815260036020526040808220549051630130197760e11b81526001600160a01b0391821660048201526024810184905282917f0000000000000000000000000000000000000000000000000000000000000000169063026032ee906044016101006040518083038186803b158015620016d257600080fd5b505afa158015620016e7573d6000803e3d6000fd5b505050506040513d601f19601f820116820180604052508101906200170d9190620021e6565b50503360008181526003602052604090819020549051633d5cab3b60e21b815260048101929092526001600160a01b0380871660248401528415156044840152606483018c905295995092975093909116945063f572acec9350506084909101905062001002565b336000908152600360205260409020546001600160a01b0316620017ad5760405162461bcd60e51b815260040162000a1090620029e4565b33600090815260036020526040808220549051630130197760e11b81526001600160a01b0391821660048201526024810188905282917f0000000000000000000000000000000000000000000000000000000000000000169063026032ee906044016101006040518083038186803b1580156200182957600080fd5b505afa1580156200183e573d6000803e3d6000fd5b505050506040513d601f19601f82011682018060405250810190620018649190620021e6565b505033600081815260036020526040908190205490516345b5f94f60e01b81529599509297506001600160a01b039290921695506345b5f94f9450620018fd9391925087918791508d908d908d908d908d906004016001600160a01b03988916815296909716602087015293151560408601526060850192909252608084015260a083015260c082015290151560e08201526101000190565b600060405180830381600087803b1580156200191857600080fd5b505af11580156200192d573d6000803e3d6000fd5b5050505050505050505050565b336000908152600360205260409020546001600160a01b0316620019725760405162461bcd60e51b815260040162000a1090620029e4565b6200197d8962001ec0565b8062001a46578a60008151811062001999576200199962002a80565b60209081029190910181015133600081815260039093526040928390205492516323b872dd60e01b815260048101919091526001600160a01b039283166024820152604481018d90529116906323b872dd90606401602060405180830381600087803b15801562001a0957600080fd5b505af115801562001a1e573d6000803e3d6000fd5b505050506040513d601f19601f8201168201806040525081019062001a449190620024bf565b505b60036000336001600160a01b03166001600160a01b0316815260200190815260200160002060009054906101000a90046001600160a01b03166001600160a01b031663de26fdcd34338e8e8e8e8e8e8e8e8e8e8e6040518e63ffffffff1660e01b815260040162001ac39c9b9a9998979695949392919062002862565b6000604051808303818588803b15801562001add57600080fd5b505af115801562001af2573d6000803e3d6000fd5b50505050505050505050505050505050565b600881600881106200085557600080fd5b60008181526004602052604081205481908190819081908190819081906001600160a01b037f0000000000000000000000000000000000000000000000000000000000000000811691634a3f088d916101008204169060ff600160a81b9091041662001b8d576010546001600160a01b031662001ba9565b60008c8152600460205260409020600101546001600160a01b03165b60008d81526004602081905260409182902060018101549054925160e087901b6001600160e01b03191681526001600160a01b03958616928101929092529284166024820152929091166044830152600160a81b900460ff16151560648201526084016101006040518083038186803b15801562001c2657600080fd5b505afa15801562001c3b573d6000803e3d6000fd5b505050506040513d601f19601f8201168201806040525081019062001c6191906200265a565b809850819950829a50839b50849c50859d50869e50879f505050505050505050919395975091939597565b336000908152600360205260409020546001600160a01b031662001cc45760405162461bcd60e51b815260040162000a1090620029e4565b62001ccf8962001ec0565b8960008151811062001ce55762001ce562002a80565b60209081029190910181015133600081815260039093526040928390205492516323b872dd60e01b815260048101919091526001600160a01b039283166024820152604481018b90529116906323b872dd90606401602060405180830381600087803b15801562001d5557600080fd5b505af115801562001d6a573d6000803e3d6000fd5b505050506040513d601f19601f8201168201806040525081019062001d909190620024bf565b503360008181526003602052604090819020549051634fbb66c360e01b81526001600160a01b0390911691634fbb66c391349162000a6d918f908f908f908f908f908f908f908f908f908f90600401620027ec565b62001def62001e64565b6001600160a01b03811662001e565760405162461bcd60e51b815260206004820152602660248201527f4f776e61626c653a206e6577206f776e657220697320746865207a65726f206160448201526564647265737360d01b606482015260840162000a10565b62001e618162001f2a565b50565b6000546001600160a01b03163314620012b65760405162461bcd60e51b815260206004820181905260248201527f4f776e61626c653a2063616c6c6572206973206e6f7420746865206f776e6572604482015260640162000a10565b6001600160a01b03811660009081526007602052604090205460ff1662001e615760405162461bcd60e51b815260206004820152601f60248201527f74726164696e67206f6e207468697320706169722069732073746f7070656400604482015260640162000a10565b600080546001600160a01b038381166001600160a01b0319831681178455604051919092169283917f8be0079c531659141344cd1fd0a4f28419497f9722a3daafe3b4186f6b6457e09190a35050565b6040518061010001604052806008906020820280368337509192915050565b61248f8062002ad283390190565b803562001fb48162002aac565b919050565b600082601f83011262001fcb57600080fd5b8135602067ffffffffffffffff8083111562001feb5762001feb62002a96565b8260051b604051601f19603f8301168101818110848211171562002013576200201362002a96565b604052848152838101925086840182880185018910156200203357600080fd5b600092505b8583101562002061576200204c8162001fa7565b84529284019260019290920191840162002038565b50979650505050505050565b803562001fb48162002ac2565b80356008811062001fb457600080fd5b6000602082840312156200209d57600080fd5b8135620020aa8162002aac565b9392505050565b60008060008060008060008060006101208a8c031215620020d157600080fd5b8951620020de8162002aac565b60208b015160408c0151919a509850620020f88162002aac565b60608b01519097506200210b8162002aac565b60808b015160a08c01519197509550620021258162002ac2565b60c08b015160e08c015191955093506200213f8162002ac2565b809250506101008a015190509295985092959850929598565b600080600080600080600080610100898b0312156200217657600080fd5b8835620021838162002aac565b97506020890135965060408901356200219c8162002aac565b9550606089013594506080890135620021b58162002ac2565b935060a0890135925060c0890135620021ce8162002ac2565b8092505060e089013590509295985092959890939650565b600080600080600080600080610100898b0312156200220457600080fd5b8851620022118162002aac565b60208a015160408b015191995097506200222b8162002aac565b60608a015160808b01519197509550620022458162002ac2565b60a08a015160c08b015191955093506200225f8162002ac2565b8092505060e089015190509295985092959890939650565b6000806000806000806000806000806101408b8d0312156200229857600080fd5b8a3567ffffffffffffffff811115620022b057600080fd5b620022be8d828e0162001fb9565b9a505060208b0135620022d18162002aac565b985060408b0135975060608b0135965060808b0135620022f18162002ac2565b955060a08b0135945060c08b0135935060e08b013592506101008b0135620023198162002ac2565b91506101208b01356200232c8162002aac565b809150509295989b9194979a5092959850565b6000806000806000806000806000806101408b8d0312156200236057600080fd5b8a3567ffffffffffffffff8111156200237857600080fd5b620023868d828e0162001fb9565b9a505060208b0135620023998162002aac565b985060408b0135975060608b0135965060808b0135955060a08b0135620023c08162002ac2565b945060c08b0135935060e08b013592506101008b013591506101208b01356200232c8162002aac565b60008060008060008060008060008060006101608c8e0312156200240c57600080fd5b8b3567ffffffffffffffff8111156200242457600080fd5b620024328e828f0162001fb9565b9b505060208c0135995060408c01356200244c8162002aac565b985060608c0135975060808c0135965060a08c01356200246c8162002aac565b95506200247c60c08d016200206d565b945060e08c01359350620024946101008d016200206d565b92506101208c01359150620024ad6101408d016200206d565b90509295989b509295989b9093969950565b600060208284031215620024d257600080fd5b8151620020aa8162002ac2565b60008060408385031215620024f357600080fd5b8251620025008162002ac2565b6020939093015192949293505050565b6000602082840312156200252357600080fd5b620020aa826200207a565b600080604083850312156200254257600080fd5b6200254d836200207a565b915060208301356200255f8162002ac2565b809150509250929050565b6000602082840312156200257d57600080fd5b5035919050565b6000602082840312156200259757600080fd5b5051919050565b60008060408385031215620025b257600080fd5b8235915060208301356200255f8162002aac565b60008060008060808587031215620025dd57600080fd5b8435935060208501359250604085013591506060850135620025ff8162002ac2565b939692955090935050565b600080600080600060a086880312156200262357600080fd5b8535945060208601359350604086013592506060860135915060808601356200264c8162002ac2565b809150509295509295909350565b600080600080600080600080610100898b0312156200267857600080fd5b885197506020890151965060408901519550606089015194506080890151935060a0890151925060c08901516200225f8162002ac2565b8060005b600481101562000ea35781546001600160a01b0316845260209093019260019182019101620026b3565b8060005b600881101562000ea35781546001600160a01b0316845260209093019260019182019101620026e1565b600081518084526020808501945080840160005b83811015620027465781516001600160a01b0316875295820195908201906001016200271f565b509495945050505050565b600881106200277057634e487b7160e01b600052602160045260246000fd5b9052565b6001600160a01b038c81168252610160602083018190526000916200279c8483018f6200270b565b9c81166040850152606084019b909b525050608081019790975294151560a087015260c086019390935260e085019190915261010084015215156101208301529091166101409091015292915050565b6001600160a01b038c8116825261016060208301819052600091620028148483018f6200270b565b9c81166040850152606084019b909b525050608081019790975260a087019590955292151560c086015260e08501919091526101008401526101208301529091166101409091015292915050565b600060018060a01b03808f16835261018060208401526200288861018084018f6200270b565b604084019d909d529a8b16606083015250608081019890985260a08801969096529390961660c086015290151560e08501526101008401529215156101208301526101408201929092529015156101609091015292915050565b6001600160a01b038a81168252898116602080840191909152908916604083015261034082019060608301908960005b6008811015620029315781518452928201929082019060010162002912565b5050505062002945610160830188620026dd565b62002955610260830187620026af565b6001600160a01b0385166102e08301526001600160a01b0384166103008301526001600160a01b0383166103208301529a9950505050505050505050565b602081016200138e828462002751565b60a08101620029b3828862002751565b6001600160a01b03958616602083015293151560408201529184166060830152909216608090920191909152919050565b6020808252601b908201527f796f7520646f6e2774206861766520446f7070656c67616e6765720000000000604082015260600190565b6000821982111562002a315762002a3162002a54565b500190565b600060001982141562002a4d5762002a4d62002a54565b5060010190565b634e487b7160e01b600052601160045260246000fd5b634e487b7160e01b600052602160045260246000fd5b634e487b7160e01b600052603260045260246000fd5b634e487b7160e01b600052604160045260246000fd5b6001600160a01b038116811462001e6157600080fd5b801515811462001e6157600080fdfe60a0604052600e805460ff60a01b191690553480156200001e57600080fd5b506040516200248f3803806200248f83398101604081905262000041916200036c565b600080546001600160a01b03808c166001600160a01b03199283161783556001600160601b031960608c901b1660805260018054918b16919092161790555b6008811015620002125760048110156200013357858160088110620000a957620000a9620004e1565b602002015160058260048110620000c457620000c4620004e1565b0180546001600160a01b0319166001600160a01b0392909216919091179055848160048110620000f857620000f8620004e1565b602002015160098260048110620001135762000113620004e1565b0180546001600160a01b0319166001600160a01b03929092169190911790555b868160088110620001485762000148620004e1565b602002015160026000888460088110620001665762000166620004e1565b60200201516001600160a01b03166001600160a01b031681526020019081526020016000206000600484106200019e576000620001a1565b60015b15151515815260200190815260200160002081905550600160036000898460088110620001d257620001d2620004e1565b6020020151815260200190815260200160002060006101000a81548160ff02191690831515021790555080806200020990620004b7565b91505062000080565b50600480546001600160a01b03199081166001600160a01b0394851617909155600d8054821694841694909417909355600e805490931691161790555062000510945050505050565b80516200026881620004f7565b919050565b600082601f8301126200027f57600080fd5b604051608081016001600160401b0381118282101715620002b057634e487b7160e01b600052604160045260246000fd5b604052808360808101861015620002c657600080fd5b60005b6004811015620002f6578151620002e081620004f7565b83526020928301929190910190600101620002c9565b509195945050505050565b600082601f8301126200031357600080fd5b6200031d6200047f565b808385610100860111156200033157600080fd5b60005b6008811015620003615781516200034b81620004f7565b8452602093840193919091019060010162000334565b509095945050505050565b60008060008060008060008060006103408a8c0312156200038c57600080fd5b89516200039981620004f7565b60208b0151909950620003ac81620004f7565b60408b0151909850620003bf81620004f7565b9650607f8a018b13620003d157600080fd5b620003db6200047f565b8060608c016101608d018e811115620003f357600080fd5b60005b600881101562000417578251855260209485019490920191600101620003f6565b50829950620004278f8262000301565b9850505050506200043d8b6102608c016200026d565b93506200044e6102e08b016200025b565b92506200045f6103008b016200025b565b9150620004706103208b016200025b565b90509295985092959850929598565b60405161010081016001600160401b0381118282101715620004b157634e487b7160e01b600052604160045260246000fd5b60405290565b6000600019821415620004da57634e487b7160e01b600052601160045260246000fd5b5060010190565b634e487b7160e01b600052603260045260246000fd5b6001600160a01b03811681146200050d57600080fd5b50565b60805160601c611f446200054b600039600081816103fb01528181610a4501528181610ac301528181610c040152610d560152611f446000f3fe6080604052600436106101385760003560e01c806391c2c469116100ab578063d6ef60131161006f578063d6ef601314610383578063da91dfd5146103a3578063de26fdcd146103b6578063f572acec146103c9578063f887ea40146103e9578063fc86da891461041d57600080fd5b806391c2c469146102f0578063b32e8cb614610310578063b7511c5b14610330578063c8fddadb14610350578063d0dbc4e41461036357600080fd5b806328f371aa116100fd57806328f371aa1461024757806345b5f94f146102685780634fbb66c31461028a57806361ef161f1461029d5780636f7e8799146102bd578063776af5ba146102d057600080fd5b806230e1b51461014457806306b278cb146101815780630cb6aaf1146101a15780630cd790f7146101e157806313a51b2e1461020157600080fd5b3661013f57005b600080fd5b34801561015057600080fd5b5061016461015f366004611c46565b61043d565b6040516001600160a01b0390911681526020015b60405180910390f35b34801561018d57600080fd5b50600454610164906001600160a01b031681565b3480156101ad57600080fd5b506101d16101bc366004611c46565b60036020526000908152604090205460ff1681565b6040519015158152602001610178565b3480156101ed57600080fd5b50600e54610164906001600160a01b031681565b34801561020d57600080fd5b5061023961021c366004611acc565b600260209081526000928352604080842090915290825290205481565b604051908152602001610178565b34801561025357600080fd5b50600e546101d190600160a01b900460ff1681565b34801561027457600080fd5b50610288610283366004611762565b61045d565b005b610288610298366004611947565b6104ed565b3480156102a957600080fd5b50600054610164906001600160a01b031681565b6102886102cb36600461187f565b61057b565b3480156102dc57600080fd5b50600154610164906001600160a01b031681565b3480156102fc57600080fd5b50600d54610164906001600160a01b031681565b34801561031c57600080fd5b5061028861032b366004611696565b610768565b34801561033c57600080fd5b5061028861034b366004611c46565b610a23565b61028861035e3660046117e7565b610dfc565b34801561036f57600080fd5b5061028861037e36600461163a565b610ea0565b34801561038f57600080fd5b5061016461039e366004611c46565b61103f565b6102886103b1366004611947565b61104f565b6102886103c43660046119f6565b61109c565b3480156103d557600080fd5b506102886103e4366004611696565b6110ed565b3480156103f557600080fd5b506101647f000000000000000000000000000000000000000000000000000000000000000081565b34801561042957600080fd5b506102886104383660046116e7565b61130e565b6009816004811061044d57600080fd5b01546001600160a01b0316905081565b610468888888611396565b6001546040516328e5fa9560e21b81526004810187905260248101869052604481018590526064810184905282151560848201526001600160a01b039091169063a397ea549060a401600060405180830381600087803b1580156104cb57600080fd5b505af11580156104df573d6000803e3d6000fd5b505050505050505050505050565b6104f88b8a87611396565b60005460405163f2ae372f60e01b81526001600160a01b039091169063f2ae372f90349061053c908e908e908e908e908e908e908e908e908e908e90600401611daa565b6000604051808303818588803b15801561055557600080fd5b505af1158015610569573d6000803e3d6000fd5b50505050505050505050505050505050565b600480546001600160a01b038b811660009081526002602090815260408083208c151584529091528082205490516331a9108f60e11b81529485015292911690636352211e9060240160206040518083038186803b1580156105dc57600080fd5b505afa1580156105f0573d6000803e3d6000fd5b505050506040513d601f19601f820116820180604052508101906106149190611616565b90508b6001600160a01b0316816001600160a01b0316146106735760405162461bcd60e51b8152602060048201526014602482015273796f7520646f6e277420686176652061206b657960601b60448201526064015b60405180910390fd5b600e546001600160a01b031633146106d457600d546001600160a01b031633146106d45760405162461bcd60e51b815260206004820152601260248201527134b73b30b634b21036b9b39739b2b73232b960711b604482015260640161066a565b60008054906101000a90046001600160a01b03166001600160a01b0316637be7d141348d8d8d8d8d888e8e8e8e8e6040518d63ffffffff1660e01b81526004016107289b9a99989796959493929190611cd5565b6000604051808303818588803b15801561074157600080fd5b505af1158015610755573d6000803e3d6000fd5b5050505050505050505050505050505050565b610773848484611396565b60015460405163d3bab1d160e01b81526000918291829182916001600160a01b039091169063d3bab1d1906107ae9030908990600401611cbc565b6101206040518083038186803b1580156107c757600080fd5b505afa1580156107db573d6000803e3d6000fd5b505050506040513d601f19601f820116820180604052508101906107ff9190611b05565b60015460405163047e0bbd60e41b8152999d50979b50929950919750506001600160a01b03909416946347e0bbd0945061084593508a9250600401905090815260200190565b600060405180830381600087803b15801561085f57600080fd5b505af1158015610873573d6000803e3d6000fd5b5050600480546001600160a01b038b811660009081526002602090815260408083208e151584529091528082205490516331a9108f60e11b8152948501529450169150636352211e9060240160206040518083038186803b1580156108d757600080fd5b505afa1580156108eb573d6000803e3d6000fd5b505050506040513d601f19601f8201168201806040525081019061090f9190611616565b60405163a9059cbb60e01b81529091506001600160a01b0386169063a9059cbb906109409084908890600401611cbc565b602060405180830381600087803b15801561095a57600080fd5b505af115801561096e573d6000803e3d6000fd5b505050506040513d601f19601f820116820180604052508101906109929190611c29565b5060055460405163a9059cbb60e01b81526001600160a01b039091169063a9059cbb906109c59084908690600401611cbc565b602060405180830381600087803b1580156109df57600080fd5b505af11580156109f3573d6000803e3d6000fd5b505050506040513d601f19601f82011682018060405250810190610a179190611c29565b50505050505050505050565b6000546040516338c74dd960e01b81526001600160a01b0391821660048201527f0000000000000000000000000000000000000000000000000000000000000000909116906338c74dd990602401600060405180830381600087803b158015610a8b57600080fd5b505af1158015610a9f573d6000803e3d6000fd5b50506001546040516338c74dd960e01b81526001600160a01b0391821660048201527f000000000000000000000000000000000000000000000000000000000000000090911692506338c74dd99150602401600060405180830381600087803b158015610b0b57600080fd5b505af1158015610b1f573d6000803e3d6000fd5b5050505060005b6004811015610de55760058160048110610b4257610b42611ebc565b015460005460405163095ea7b360e01b81526001600160a01b039283169263095ea7b392610b77929116908690600401611cbc565b602060405180830381600087803b158015610b9157600080fd5b505af1158015610ba5573d6000803e3d6000fd5b505050506040513d601f19601f82011682018060405250810190610bc99190611c29565b5060058160048110610bdd57610bdd611ebc565b015460405163095ea7b360e01b81526001600160a01b039091169063095ea7b390610c2e907f0000000000000000000000000000000000000000000000000000000000000000908690600401611cbc565b602060405180830381600087803b158015610c4857600080fd5b505af1158015610c5c573d6000803e3d6000fd5b505050506040513d601f19601f82011682018060405250810190610c809190611c29565b5060098160048110610c9457610c94611ebc565b015460005460405163095ea7b360e01b81526001600160a01b039283169263095ea7b392610cc9929116908690600401611cbc565b602060405180830381600087803b158015610ce357600080fd5b505af1158015610cf7573d6000803e3d6000fd5b505050506040513d601f19601f82011682018060405250810190610d1b9190611c29565b5060098160048110610d2f57610d2f611ebc565b015460405163095ea7b360e01b81526001600160a01b039091169063095ea7b390610d80907f0000000000000000000000000000000000000000000000000000000000000000908690600401611cbc565b602060405180830381600087803b158015610d9a57600080fd5b505af1158015610dae573d6000803e3d6000fd5b505050506040513d601f19601f82011682018060405250810190610dd29190611c29565b5080610ddd81611e93565b915050610b26565b5050600e805460ff60a01b1916600160a01b179055565b610e07898986611396565b6001546040516360b66f4560e11b81526001600160a01b038a81166004830152602482018a9052888116604483015260648201889052861515608483015260a4820186905284151560c48301529091169063c16cde8a90349060e4016000604051808303818588803b158015610e7c57600080fd5b505af1158015610e90573d6000803e3d6000fd5b5050505050505050505050505050565b610eab848484611396565b600480546001600160a01b03858116600090815260026020908152604080832088151584529091528082205490516331a9108f60e11b81529485015292911690636352211e9060240160206040518083038186803b158015610f0c57600080fd5b505afa158015610f20573d6000803e3d6000fd5b505050506040513d601f19601f82011682018060405250810190610f449190611616565b6040516370a0823160e01b81523060048201529091506001600160a01b0383169063a9059cbb90839083906370a082319060240160206040518083038186803b158015610f9057600080fd5b505afa158015610fa4573d6000803e3d6000fd5b505050506040513d601f19601f82011682018060405250810190610fc89190611c5f565b6040518363ffffffff1660e01b8152600401610fe5929190611cbc565b602060405180830381600087803b158015610fff57600080fd5b505af1158015611013573d6000803e3d6000fd5b505050506040513d601f19601f820116820180604052508101906110379190611c29565b505050505050565b6005816004811061044d57600080fd5b61105a8b8a87611396565b600054604051632dc4746360e11b81526001600160a01b0390911690635b88e8c690349061053c908e908e908d908d908d908d908d908d908d90600401611d48565b6110a78c8a87611396565b600154604051630b142a4b60e41b81526001600160a01b039091169063b142a4b0903490610728908f908f908f908f908f908f908f908f908f908f908f90600401611e15565b6110f8848484611396565b600154604051630130197760e11b81526000916001600160a01b03169063026032ee9061112b9030908690600401611cbc565b6101006040518083038186803b15801561114457600080fd5b505afa158015611158573d6000803e3d6000fd5b505050506040513d601f19601f8201168201806040525081019061117c9190611ba1565b6001546040516309e71b0f60e41b81529199506001600160a01b03169750639e71b0f096506111b695508994506004019250611e8a915050565b600060405180830381600087803b1580156111d057600080fd5b505af11580156111e4573d6000803e3d6000fd5b5050600480546001600160a01b0388811660009081526002602090815260408083208b151584529091528082205490516331a9108f60e11b8152948501529450169150636352211e9060240160206040518083038186803b15801561124857600080fd5b505afa15801561125c573d6000803e3d6000fd5b505050506040513d601f19601f820116820180604052508101906112809190611616565b60055460405163a9059cbb60e01b81529192506001600160a01b03169063a9059cbb906112b39084908690600401611cbc565b602060405180830381600087803b1580156112cd57600080fd5b505af11580156112e1573d6000803e3d6000fd5b505050506040513d601f19601f820116820180604052508101906113059190611c29565b50505050505050565b611319878787611396565b600154604051639983ee1b60e01b815260048101869052602481018590526044810184905282151560648201526001600160a01b0390911690639983ee1b90608401600060405180830381600087803b15801561137557600080fd5b505af1158015611389573d6000803e3d6000fd5b5050505050505050505050565b600480546001600160a01b0384811660009081526002602090815260408083208715158452909152908190205490516331a9108f60e11b81529384015285811692911690636352211e9060240160206040518083038186803b1580156113fb57600080fd5b505afa15801561140f573d6000803e3d6000fd5b505050506040513d601f19601f820116820180604052508101906114339190611616565b6001600160a01b0316146114805760405162461bcd60e51b8152602060048201526014602482015273796f7520646f6e277420686176652061206b657960601b604482015260640161066a565b6001600160a01b038216600090815260026020908152604080832084151584528252808320548352600390915290205460ff166114ed5760405162461bcd60e51b815260206004820152600b60248201526a696e76616c6964206b657960a81b604482015260640161066a565b600e546001600160a01b0316331461154e57600d546001600160a01b0316331461154e5760405162461bcd60e51b815260206004820152601260248201527134b73b30b634b21036b9b39739b2b73232b960711b604482015260640161066a565b505050565b803561155e81611ee8565b919050565b600082601f83011261157457600080fd5b8135602067ffffffffffffffff8083111561159157611591611ed2565b8260051b604051601f19603f830116810181811084821117156115b6576115b6611ed2565b604052848152838101925086840182880185018910156115d557600080fd5b600092505b858310156115ff576115eb81611553565b8452928401926001929092019184016115da565b50979650505050505050565b803561155e81611f00565b60006020828403121561162857600080fd5b815161163381611ee8565b9392505050565b6000806000806080858703121561165057600080fd5b843561165b81611ee8565b9350602085013561166b81611ee8565b9250604085013561167b81611f00565b9150606085013561168b81611ee8565b939692955090935050565b600080600080608085870312156116ac57600080fd5b84356116b781611ee8565b935060208501356116c781611ee8565b925060408501356116d781611f00565b9396929550929360600135925050565b600080600080600080600060e0888a03121561170257600080fd5b873561170d81611ee8565b9650602088013561171d81611ee8565b9550604088013561172d81611f00565b9450606088013593506080880135925060a0880135915060c088013561175281611f00565b8091505092959891949750929550565b600080600080600080600080610100898b03121561177f57600080fd5b883561178a81611ee8565b9750602089013561179a81611ee8565b965060408901356117aa81611f00565b9550606089013594506080890135935060a0890135925060c0890135915060e08901356117d681611f00565b809150509295985092959890939650565b60008060008060008060008060006101208a8c03121561180657600080fd5b893561181181611ee8565b985060208a013561182181611ee8565b975060408a0135965060608a013561183881611ee8565b955060808a0135945060a08a013561184f81611f00565b935060c08a0135925060e08a013561186681611f00565b809250506101008a013590509295985092959850929598565b60008060008060008060008060008060006101608c8e0312156118a157600080fd5b8b356118ac81611ee8565b9a5060208c013567ffffffffffffffff8111156118c857600080fd5b6118d48e828f01611563565b9a505060408c01356118e581611ee8565b985060608c0135975060808c0135965061190160a08d0161160b565b955060c08c0135945060e08c013593506101008c013592506119266101208d0161160b565b91506119356101408d01611553565b90509295989b509295989b9093969950565b60008060008060008060008060008060006101608c8e03121561196957600080fd5b8b3561197481611ee8565b9a5060208c013567ffffffffffffffff81111561199057600080fd5b61199c8e828f01611563565b9a505060408c01356119ad81611ee8565b985060608c0135975060808c0135965060a08c013595506119d060c08d0161160b565b945060e08c013593506101008c013592506101208c013591506119356101408d01611553565b6000806000806000806000806000806000806101808d8f031215611a1957600080fd5b611a228d611553565b9b5067ffffffffffffffff60208e01351115611a3d57600080fd5b611a4d8e60208f01358f01611563565b9a5060408d01359950611a6260608e01611553565b985060808d0135975060a08d01359650611a7e60c08e01611553565b9550611a8c60e08e0161160b565b94506101008d01359350611aa36101208e0161160b565b92506101408d01359150611aba6101608e0161160b565b90509295989b509295989b509295989b565b60008060408385031215611adf57600080fd5b8235611aea81611ee8565b91506020830135611afa81611f00565b809150509250929050565b60008060008060008060008060006101208a8c031215611b2457600080fd5b8951611b2f81611ee8565b60208b015160408c0151919a509850611b4781611ee8565b60608b0151909750611b5881611ee8565b60808b015160a08c01519197509550611b7081611f00565b60c08b015160e08c01519195509350611b8881611f00565b809250506101008a015190509295985092959850929598565b600080600080600080600080610100898b031215611bbe57600080fd5b8851611bc981611ee8565b60208a015160408b01519199509750611be181611ee8565b60608a015160808b01519197509550611bf981611f00565b60a08a015160c08b01519195509350611c1181611f00565b8092505060e089015190509295985092959890939650565b600060208284031215611c3b57600080fd5b815161163381611f00565b600060208284031215611c5857600080fd5b5035919050565b600060208284031215611c7157600080fd5b5051919050565b600081518084526020808501945080840160005b83811015611cb15781516001600160a01b031687529582019590820190600101611c8c565b509495945050505050565b6001600160a01b03929092168252602082015260400190565b6000610160808352611ce98184018f611c78565b6001600160a01b039d8e166020850152604084019c909c5250506060810198909852951515608088015293881660a087015260c086019290925260e0850152610100840152151561012083015290921661014090920191909152919050565b6000610120808352611d5c8184018d611c78565b6001600160a01b039b8c166020850152604084019a909a5250506060810196909652931515608086015260a085019290925260c084015260e083015290921661010090920191909152919050565b6000610140808352611dbe8184018e611c78565b6001600160a01b039c8d166020850152604084019b909b5250506060810197909752608087019590955292151560a086015260c085019190915260e084015261010083015290921661012090920191909152919050565b6000610160808352611e298184018f611c78565b602084019d909d5250506001600160a01b03998a166040820152606081019890985260808801969096529390961660a086015290151560c085015260e084015292151561010083015261012082019290925290151561014090910152919050565b90815260200190565b6000600019821415611eb557634e487b7160e01b600052601160045260246000fd5b5060010190565b634e487b7160e01b600052603260045260246000fd5b634e487b7160e01b600052604160045260246000fd5b6001600160a01b0381168114611efd57600080fd5b50565b8015158114611efd57600080fdfea26469706673582212208b366894c3bfef91c6351a959c867b50161ba8a8f06a8a4c2ff28e9ca169604f64736f6c63430008060033a26469706673582212209f13cacdbaa0872eb8c64ec0361acf13585ef4ea894f5606f5ad979d7ee1e94e64736f6c63430008060033",
  "devdoc": {
    "kind": "dev",
    "methods": {
      "currentPrice(uint256)": {
        "params": {
          "id": "position ID"
        }
      },
      "getPosition(uint256)": {
        "params": {
          "id": "collateral ID*"
        }
      },
      "getPositionDelta(uint256)": {
        "params": {
          "id": "collateral ID*"
        }
      },
      "owner()": {
        "details": "Returns the address of the current owner."
      },
      "renounceOwnership()": {
        "details": "Leaves the contract without owner. It will not be possible to call `onlyOwner` functions anymore. Can only be called by the current owner. NOTE: Renouncing ownership will leave the contract without an owner, thereby removing any functionality that is only available to the owner."
      },
      "setDDL_GMX(address)": {
        "params": {
          "value": "the address of DDL_GMX*"
        }
      },
      "setPermission(uint8,bool)": {
        "params": {
          "symbol": "trough name",
          "value": "true or false *"
        }
      },
      "transferOwnership(address)": {
        "details": "Transfers ownership of the contract to a new account (`newOwner`). Can only be called by the current owner."
      }
    },
    "version": 1
  },
  "userdoc": {
    "kind": "user",
    "methods": {
      "createDecreasePosition(address[],address,uint256,uint256,bool,uint256,uint256,uint256,bool,address)": {
        "notice": "used to decrease position on GMX*"
      },
      "createDoppelgangerGMX()": {
        "notice": "creates Doppelganger account for the user*"
      },
      "createIncreasePosition(address[],address,uint256,uint256,uint256,bool,uint256,uint256,bytes32,address)": {
        "notice": "used to increase position on GMX*"
      },
      "createIncreasePositionETH(address[],address,uint256,uint256,uint256,bool,uint256,uint256,bytes32,address)": {
        "notice": "used to increase position on GMX (only ETH)*"
      },
      "currentPrice(uint256)": {
        "notice": "return currentPrice for the asset*"
      },
      "getPosition(uint256)": {
        "notice": "returns getPosition by the collateral"
      },
      "getPositionDelta(uint256)": {
        "notice": "returns getPositionDelta from GMX by the collateral ID"
      },
      "setDDL_GMX(address)": {
        "notice": "set new DDL_GMX address"
      },
      "setPermission(uint8,bool)": {
        "notice": "set permissions for trading pairs"
      }
    },
    "version": 1
  },
  "storageLayout": {
    "storage": [
      {
        "astId": 7,
        "contract": "contracts/AccountManager.sol:AccountManager",
        "label": "_owner",
        "offset": 0,
        "slot": "0",
        "type": "t_address"
      },
      {
        "astId": 2743,
        "contract": "contracts/AccountManager.sol:AccountManager",
        "label": "ddl_gmx",
        "offset": 0,
        "slot": "1",
        "type": "t_address"
      },
      {
        "astId": 2757,
        "contract": "contracts/AccountManager.sol:AccountManager",
        "label": "tokenId",
        "offset": 0,
        "slot": "2",
        "type": "t_uint256"
      },
      {
        "astId": 2761,
        "contract": "contracts/AccountManager.sol:AccountManager",
        "label": "doppelgangerMap",
        "offset": 0,
        "slot": "3",
        "type": "t_mapping(t_address,t_address_payable)"
      },
      {
        "astId": 2779,
        "contract": "contracts/AccountManager.sol:AccountManager",
        "label": "keyData",
        "offset": 0,
        "slot": "4",
        "type": "t_mapping(t_uint256,t_struct(KeyInformation)2773_storage)"
      },
      {
        "astId": 2784,
        "contract": "contracts/AccountManager.sol:AccountManager",
        "label": "symbolByIndexToken",
        "offset": 0,
        "slot": "5",
        "type": "t_mapping(t_address,t_enum(Symbols)4582)"
      },
      {
        "astId": 2790,
        "contract": "contracts/AccountManager.sol:AccountManager",
        "label": "indexTokenBySymbol",
        "offset": 0,
        "slot": "6",
        "type": "t_mapping(t_enum(Symbols)4582,t_address)"
      },
      {
        "astId": 2794,
        "contract": "contracts/AccountManager.sol:AccountManager",
        "label": "permissions",
        "offset": 0,
        "slot": "7",
        "type": "t_mapping(t_address,t_bool)"
      },
      {
        "astId": 2798,
        "contract": "contracts/AccountManager.sol:AccountManager",
        "label": "indexTokenArr",
        "offset": 0,
        "slot": "8",
        "type": "t_array(t_address)8_storage"
      },
      {
        "astId": 2802,
        "contract": "contracts/AccountManager.sol:AccountManager",
        "label": "stablecoinsArray",
        "offset": 0,
        "slot": "16",
        "type": "t_array(t_address)4_storage"
      }
    ],
    "types": {
      "t_address": {
        "encoding": "inplace",
        "label": "address",
        "numberOfBytes": "20"
      },
      "t_address_payable": {
        "encoding": "inplace",
        "label": "address payable",
        "numberOfBytes": "20"
      },
      "t_array(t_address)4_storage": {
        "base": "t_address",
        "encoding": "inplace",
        "label": "address[4]",
        "numberOfBytes": "128"
      },
      "t_array(t_address)8_storage": {
        "base": "t_address",
        "encoding": "inplace",
        "label": "address[8]",
        "numberOfBytes": "256"
      },
      "t_bool": {
        "encoding": "inplace",
        "label": "bool",
        "numberOfBytes": "1"
      },
      "t_enum(Symbols)4582": {
        "encoding": "inplace",
        "label": "enum IAccountManager.Symbols",
        "numberOfBytes": "1"
      },
      "t_mapping(t_address,t_address_payable)": {
        "encoding": "mapping",
        "key": "t_address",
        "label": "mapping(address => address payable)",
        "numberOfBytes": "32",
        "value": "t_address_payable"
      },
      "t_mapping(t_address,t_bool)": {
        "encoding": "mapping",
        "key": "t_address",
        "label": "mapping(address => bool)",
        "numberOfBytes": "32",
        "value": "t_bool"
      },
      "t_mapping(t_address,t_enum(Symbols)4582)": {
        "encoding": "mapping",
        "key": "t_address",
        "label": "mapping(address => enum IAccountManager.Symbols)",
        "numberOfBytes": "32",
        "value": "t_enum(Symbols)4582"
      },
      "t_mapping(t_enum(Symbols)4582,t_address)": {
        "encoding": "mapping",
        "key": "t_enum(Symbols)4582",
        "label": "mapping(enum IAccountManager.Symbols => address)",
        "numberOfBytes": "32",
        "value": "t_address"
      },
      "t_mapping(t_uint256,t_struct(KeyInformation)2773_storage)": {
        "encoding": "mapping",
        "key": "t_uint256",
        "label": "mapping(uint256 => struct AccountManager.KeyInformation)",
        "numberOfBytes": "32",
        "value": "t_struct(KeyInformation)2773_storage"
      },
      "t_struct(KeyInformation)2773_storage": {
        "encoding": "inplace",
        "label": "struct AccountManager.KeyInformation",
        "members": [
          {
            "astId": 2764,
            "contract": "contracts/AccountManager.sol:AccountManager",
            "label": "symbol",
            "offset": 0,
            "slot": "0",
            "type": "t_enum(Symbols)4582"
          },
          {
            "astId": 2766,
            "contract": "contracts/AccountManager.sol:AccountManager",
            "label": "doppelgangerContract",
            "offset": 1,
            "slot": "0",
            "type": "t_address"
          },
          {
            "astId": 2768,
            "contract": "contracts/AccountManager.sol:AccountManager",
            "label": "isLong",
            "offset": 21,
            "slot": "0",
            "type": "t_bool"
          },
          {
            "astId": 2770,
            "contract": "contracts/AccountManager.sol:AccountManager",
            "label": "indexToken",
            "offset": 0,
            "slot": "1",
            "type": "t_address"
          },
          {
            "astId": 2772,
            "contract": "contracts/AccountManager.sol:AccountManager",
            "label": "user",
            "offset": 0,
            "slot": "2",
            "type": "t_address"
          }
        ],
        "numberOfBytes": "96"
      },
      "t_uint256": {
        "encoding": "inplace",
        "label": "uint256",
        "numberOfBytes": "32"
      }
    }
  }
}