{
  "address": "0x3B44737Bc4F5F9D121643E08281d266eC68bd9cD",
  "abi": [
    {
      "inputs": [],
      "stateMutability": "nonpayable",
      "type": "constructor"
    },
    {
      "anonymous": false,
      "inputs": [
        {
          "indexed": true,
          "internalType": "address",
          "name": "owner",
          "type": "address"
        },
        {
          "indexed": true,
          "internalType": "address",
          "name": "approved",
          "type": "address"
        },
        {
          "indexed": true,
          "internalType": "uint256",
          "name": "tokenId",
          "type": "uint256"
        }
      ],
      "name": "Approval",
      "type": "event"
    },
    {
      "anonymous": false,
      "inputs": [
        {
          "indexed": true,
          "internalType": "address",
          "name": "owner",
          "type": "address"
        },
        {
          "indexed": true,
          "internalType": "address",
          "name": "operator",
          "type": "address"
        },
        {
          "indexed": false,
          "internalType": "bool",
          "name": "approved",
          "type": "bool"
        }
      ],
      "name": "ApprovalForAll",
      "type": "event"
    },
    {
      "anonymous": false,
      "inputs": [
        {
          "indexed": true,
          "internalType": "address",
          "name": "previousOwner",
          "type": "address"
        },
        {
          "indexed": true,
          "internalType": "address",
          "name": "newOwner",
          "type": "address"
        }
      ],
      "name": "OwnershipTransferred",
      "type": "event"
    },
    {
      "anonymous": false,
      "inputs": [
        {
          "indexed": true,
          "internalType": "address",
          "name": "from",
          "type": "address"
        },
        {
          "indexed": true,
          "internalType": "address",
          "name": "to",
          "type": "address"
        },
        {
          "indexed": true,
          "internalType": "uint256",
          "name": "tokenId",
          "type": "uint256"
        }
      ],
      "name": "Transfer",
      "type": "event"
    },
    {
      "inputs": [],
      "name": "accountManager",
      "outputs": [
        {
          "internalType": "address",
          "name": "",
          "type": "address"
        }
      ],
      "stateMutability": "view",
      "type": "function"
    },
    {
      "inputs": [
        {
          "internalType": "address",
          "name": "to",
          "type": "address"
        },
        {
          "internalType": "uint256",
          "name": "tokenId",
          "type": "uint256"
        }
      ],
      "name": "approve",
      "outputs": [],
      "stateMutability": "nonpayable",
      "type": "function"
    },
    {
      "inputs": [
        {
          "internalType": "address",
          "name": "owner",
          "type": "address"
        }
      ],
      "name": "balanceOf",
      "outputs": [
        {
          "internalType": "uint256",
          "name": "",
          "type": "uint256"
        }
      ],
      "stateMutability": "view",
      "type": "function"
    },
    {
      "inputs": [
        {
          "internalType": "uint256",
          "name": "tokenId",
          "type": "uint256"
        }
      ],
      "name": "getApproved",
      "outputs": [
        {
          "internalType": "address",
          "name": "",
          "type": "address"
        }
      ],
      "stateMutability": "view",
      "type": "function"
    },
    {
      "inputs": [
        {
          "internalType": "address",
          "name": "owner",
          "type": "address"
        },
        {
          "internalType": "address",
          "name": "operator",
          "type": "address"
        }
      ],
      "name": "isApprovedForAll",
      "outputs": [
        {
          "internalType": "bool",
          "name": "",
          "type": "bool"
        }
      ],
      "stateMutability": "view",
      "type": "function"
    },
    {
      "inputs": [
        {
          "internalType": "address",
          "name": "to",
          "type": "address"
        },
        {
          "internalType": "uint256",
          "name": "id",
          "type": "uint256"
        }
      ],
      "name": "mint",
      "outputs": [],
      "stateMutability": "nonpayable",
      "type": "function"
    },
    {
      "inputs": [],
      "name": "name",
      "outputs": [
        {
          "internalType": "string",
          "name": "",
          "type": "string"
        }
      ],
      "stateMutability": "view",
      "type": "function"
    },
    {
      "inputs": [],
      "name": "owner",
      "outputs": [
        {
          "internalType": "address",
          "name": "",
          "type": "address"
        }
      ],
      "stateMutability": "view",
      "type": "function"
    },
    {
      "inputs": [
        {
          "internalType": "uint256",
          "name": "tokenId",
          "type": "uint256"
        }
      ],
      "name": "ownerOf",
      "outputs": [
        {
          "internalType": "address",
          "name": "",
          "type": "address"
        }
      ],
      "stateMutability": "view",
      "type": "function"
    },
    {
      "inputs": [],
      "name": "renounceOwnership",
      "outputs": [],
      "stateMutability": "nonpayable",
      "type": "function"
    },
    {
      "inputs": [
        {
          "internalType": "address",
          "name": "from",
          "type": "address"
        },
        {
          "internalType": "address",
          "name": "to",
          "type": "address"
        },
        {
          "internalType": "uint256",
          "name": "tokenId",
          "type": "uint256"
        }
      ],
      "name": "safeTransferFrom",
      "outputs": [],
      "stateMutability": "nonpayable",
      "type": "function"
    },
    {
      "inputs": [
        {
          "internalType": "address",
          "name": "from",
          "type": "address"
        },
        {
          "internalType": "address",
          "name": "to",
          "type": "address"
        },
        {
          "internalType": "uint256",
          "name": "tokenId",
          "type": "uint256"
        },
        {
          "internalType": "bytes",
          "name": "data",
          "type": "bytes"
        }
      ],
      "name": "safeTransferFrom",
      "outputs": [],
      "stateMutability": "nonpayable",
      "type": "function"
    },
    {
      "inputs": [
        {
          "internalType": "address",
          "name": "value",
          "type": "address"
        }
      ],
      "name": "setAccountManager",
      "outputs": [],
      "stateMutability": "nonpayable",
      "type": "function"
    },
    {
      "inputs": [
        {
          "internalType": "address",
          "name": "operator",
          "type": "address"
        },
        {
          "internalType": "bool",
          "name": "approved",
          "type": "bool"
        }
      ],
      "name": "setApprovalForAll",
      "outputs": [],
      "stateMutability": "nonpayable",
      "type": "function"
    },
    {
      "inputs": [
        {
          "internalType": "bytes4",
          "name": "interfaceId",
          "type": "bytes4"
        }
      ],
      "name": "supportsInterface",
      "outputs": [
        {
          "internalType": "bool",
          "name": "",
          "type": "bool"
        }
      ],
      "stateMutability": "view",
      "type": "function"
    },
    {
      "inputs": [],
      "name": "symbol",
      "outputs": [
        {
          "internalType": "string",
          "name": "",
          "type": "string"
        }
      ],
      "stateMutability": "view",
      "type": "function"
    },
    {
      "inputs": [
        {
          "internalType": "uint256",
          "name": "tokenId",
          "type": "uint256"
        }
      ],
      "name": "tokenURI",
      "outputs": [
        {
          "internalType": "string",
          "name": "",
          "type": "string"
        }
      ],
      "stateMutability": "view",
      "type": "function"
    },
    {
      "inputs": [
        {
          "internalType": "address",
          "name": "from",
          "type": "address"
        },
        {
          "internalType": "address",
          "name": "to",
          "type": "address"
        },
        {
          "internalType": "uint256",
          "name": "tokenId",
          "type": "uint256"
        }
      ],
      "name": "transferFrom",
      "outputs": [],
      "stateMutability": "nonpayable",
      "type": "function"
    },
    {
      "inputs": [
        {
          "internalType": "address",
          "name": "newOwner",
          "type": "address"
        }
      ],
      "name": "transferOwnership",
      "outputs": [],
      "stateMutability": "nonpayable",
      "type": "function"
    }
  ],
  "transactionHash": "0xc24858e0a5e03390eacd8e1b849034e9b64fd5257048381bf388cf43aade31f2",
  "args": [],
  "numDeployments": 1,
  "solcInputHash": "1964098014c9d26979e8b35425459346",
  "bytecode": "0x60806040523480156200001157600080fd5b50604080518082018252601981527f474d5820706f736974696f6e20746f6b656e697a6174696f6e0000000000000060208083019182528351808501909452600584526411d356141560da1b908401528151919291620000749160009162000103565b5080516200008a90600190602084019062000103565b505050620000a7620000a1620000ad60201b60201c565b620000b1565b620001e6565b3390565b600680546001600160a01b038381166001600160a01b0319831681179093556040519116919082907f8be0079c531659141344cd1fd0a4f28419497f9722a3daafe3b4186f6b6457e090600090a35050565b8280546200011190620001a9565b90600052602060002090601f01602090048101928262000135576000855562000180565b82601f106200015057805160ff191683800117855562000180565b8280016001018555821562000180579182015b828111156200018057825182559160200191906001019062000163565b506200018e92915062000192565b5090565b5b808211156200018e576000815560010162000193565b600181811c90821680620001be57607f821691505b60208210811415620001e057634e487b7160e01b600052602260045260246000fd5b50919050565b61154f80620001f66000396000f3fe608060405234801561001057600080fd5b50600436106101215760003560e01c8063715018a6116100ad578063a22cb46511610071578063a22cb46514610257578063b88d4fde1461026a578063c87b56dd1461027d578063e985e9c514610290578063f2fde38b146102cc57600080fd5b8063715018a6146102105780638da5cb5b146102185780638e4586af1461022957806391c2c4691461023c57806395d89b411461024f57600080fd5b806323b872dd116100f457806323b872dd146101a357806340c10f19146101b657806342842e0e146101c95780636352211e146101dc57806370a08231146101ef57600080fd5b806301ffc9a71461012657806306fdde031461014e578063081812fc14610163578063095ea7b31461018e575b600080fd5b610139610134366004611234565b6102df565b60405190151581526020015b60405180910390f35b610156610331565b604051610145919061131f565b61017661017136600461126e565b6103c3565b6040516001600160a01b039091168152602001610145565b6101a161019c36600461120a565b6103ea565b005b6101a16101b13660046110b6565b610505565b6101a16101c436600461120a565b610536565b6101a16101d73660046110b6565b61059e565b6101766101ea36600461126e565b6105b9565b6102026101fd366004611068565b610619565b604051908152602001610145565b6101a161069f565b6006546001600160a01b0316610176565b6101a1610237366004611068565b6106b3565b600754610176906001600160a01b031681565b6101566106dd565b6101a16102653660046111ce565b6106ec565b6101a16102783660046110f2565b6106f7565b61015661028b36600461126e565b61072f565b61013961029e366004611083565b6001600160a01b03918216600090815260056020908152604080832093909416825291909152205460ff1690565b6101a16102da366004611068565b6107a3565b60006001600160e01b031982166380ac58cd60e01b148061031057506001600160e01b03198216635b5e139f60e01b145b8061032b57506301ffc9a760e01b6001600160e01b03198316145b92915050565b60606000805461034090611441565b80601f016020809104026020016040519081016040528092919081815260200182805461036c90611441565b80156103b95780601f1061038e576101008083540402835291602001916103b9565b820191906000526020600020905b81548152906001019060200180831161039c57829003601f168201915b5050505050905090565b60006103ce8261081c565b506000908152600460205260409020546001600160a01b031690565b60006103f5826105b9565b9050806001600160a01b0316836001600160a01b031614156104685760405162461bcd60e51b815260206004820152602160248201527f4552433732313a20617070726f76616c20746f2063757272656e74206f776e656044820152603960f91b60648201526084015b60405180910390fd5b336001600160a01b03821614806104845750610484813361029e565b6104f65760405162461bcd60e51b815260206004820152603e60248201527f4552433732313a20617070726f76652063616c6c6572206973206e6f7420746f60448201527f6b656e206f776e6572206e6f7220617070726f76656420666f7220616c6c0000606482015260840161045f565b610500838361087b565b505050565b61050f33826108e9565b61052b5760405162461bcd60e51b815260040161045f90611384565b610500838383610968565b6007546001600160a01b031633146105905760405162461bcd60e51b815260206004820152601e60248201527f63616c6c6572206973206e6f742061206163636f756e744d616e616765720000604482015260640161045f565b61059a8282610b04565b5050565b610500838383604051806020016040528060008152506106f7565b6000818152600260205260408120546001600160a01b03168061032b5760405162461bcd60e51b8152602060048201526018602482015277115490cdcc8c4e881a5b9d985b1a59081d1bdad95b88125160421b604482015260640161045f565b60006001600160a01b0382166106835760405162461bcd60e51b815260206004820152602960248201527f4552433732313a2061646472657373207a65726f206973206e6f7420612076616044820152683634b21037bbb732b960b91b606482015260840161045f565b506001600160a01b031660009081526003602052604090205490565b6106a7610b1e565b6106b16000610b78565b565b6106bb610b1e565b600780546001600160a01b0319166001600160a01b0392909216919091179055565b60606001805461034090611441565b61059a338383610bca565b61070133836108e9565b61071d5760405162461bcd60e51b815260040161045f90611384565b61072984848484610c99565b50505050565b606061073a8261081c565b600061075160408051602081019091526000815290565b90506000815111610771576040518060200160405280600081525061079c565b8061077b84610ccc565b60405160200161078c9291906112b3565b6040516020818303038152906040525b9392505050565b6107ab610b1e565b6001600160a01b0381166108105760405162461bcd60e51b815260206004820152602660248201527f4f776e61626c653a206e6577206f776e657220697320746865207a65726f206160448201526564647265737360d01b606482015260840161045f565b61081981610b78565b50565b6000818152600260205260409020546001600160a01b03166108195760405162461bcd60e51b8152602060048201526018602482015277115490cdcc8c4e881a5b9d985b1a59081d1bdad95b88125160421b604482015260640161045f565b600081815260046020526040902080546001600160a01b0319166001600160a01b03841690811790915581906108b0826105b9565b6001600160a01b03167f8c5be1e5ebec7d5bd14f71427d1e84f3dd0314c0f7b2291e5b200ac8c7c3b92560405160405180910390a45050565b6000806108f5836105b9565b9050806001600160a01b0316846001600160a01b0316148061093c57506001600160a01b0380821660009081526005602090815260408083209388168352929052205460ff165b806109605750836001600160a01b0316610955846103c3565b6001600160a01b0316145b949350505050565b826001600160a01b031661097b826105b9565b6001600160a01b0316146109df5760405162461bcd60e51b815260206004820152602560248201527f4552433732313a207472616e736665722066726f6d20696e636f72726563742060448201526437bbb732b960d91b606482015260840161045f565b6001600160a01b038216610a415760405162461bcd60e51b8152602060048201526024808201527f4552433732313a207472616e7366657220746f20746865207a65726f206164646044820152637265737360e01b606482015260840161045f565b610a4c60008261087b565b6001600160a01b0383166000908152600360205260408120805460019290610a759084906113fe565b90915550506001600160a01b0382166000908152600360205260408120805460019290610aa39084906113d2565b909155505060008181526002602052604080822080546001600160a01b0319166001600160a01b0386811691821790925591518493918716917fddf252ad1be2c89b69c2b068fc378daa952ba7f163c4a11628f55a4df523b3ef91a4505050565b61059a828260405180602001604052806000815250610dca565b6006546001600160a01b031633146106b15760405162461bcd60e51b815260206004820181905260248201527f4f776e61626c653a2063616c6c6572206973206e6f7420746865206f776e6572604482015260640161045f565b600680546001600160a01b038381166001600160a01b0319831681179093556040519116919082907f8be0079c531659141344cd1fd0a4f28419497f9722a3daafe3b4186f6b6457e090600090a35050565b816001600160a01b0316836001600160a01b03161415610c2c5760405162461bcd60e51b815260206004820152601960248201527f4552433732313a20617070726f766520746f2063616c6c657200000000000000604482015260640161045f565b6001600160a01b03838116600081815260056020908152604080832094871680845294825291829020805460ff191686151590811790915591519182527f17307eab39ab6107e8899845ad3d59bd9653f200f220920489ca2b5937696c31910160405180910390a3505050565b610ca4848484610968565b610cb084848484610dfd565b6107295760405162461bcd60e51b815260040161045f90611332565b606081610cf05750506040805180820190915260018152600360fc1b602082015290565b8160005b8115610d1a5780610d048161147c565b9150610d139050600a836113ea565b9150610cf4565b60008167ffffffffffffffff811115610d3557610d356114ed565b6040519080825280601f01601f191660200182016040528015610d5f576020820181803683370190505b5090505b841561096057610d746001836113fe565b9150610d81600a86611497565b610d8c9060306113d2565b60f81b818381518110610da157610da16114d7565b60200101906001600160f81b031916908160001a905350610dc3600a866113ea565b9450610d63565b610dd48383610f0a565b610de16000848484610dfd565b6105005760405162461bcd60e51b815260040161045f90611332565b60006001600160a01b0384163b15610eff57604051630a85bd0160e11b81526001600160a01b0385169063150b7a0290610e419033908990889088906004016112e2565b602060405180830381600087803b158015610e5b57600080fd5b505af1925050508015610e8b575060408051601f3d908101601f19168201909252610e8891810190611251565b60015b610ee5573d808015610eb9576040519150601f19603f3d011682016040523d82523d6000602084013e610ebe565b606091505b508051610edd5760405162461bcd60e51b815260040161045f90611332565b805181602001fd5b6001600160e01b031916630a85bd0160e11b149050610960565b506001949350505050565b6001600160a01b038216610f605760405162461bcd60e51b815260206004820181905260248201527f4552433732313a206d696e7420746f20746865207a65726f2061646472657373604482015260640161045f565b6000818152600260205260409020546001600160a01b031615610fc55760405162461bcd60e51b815260206004820152601c60248201527f4552433732313a20746f6b656e20616c7265616479206d696e74656400000000604482015260640161045f565b6001600160a01b0382166000908152600360205260408120805460019290610fee9084906113d2565b909155505060008181526002602052604080822080546001600160a01b0319166001600160a01b03861690811790915590518392907fddf252ad1be2c89b69c2b068fc378daa952ba7f163c4a11628f55a4df523b3ef908290a45050565b80356001600160a01b038116811461106357600080fd5b919050565b60006020828403121561107a57600080fd5b61079c8261104c565b6000806040838503121561109657600080fd5b61109f8361104c565b91506110ad6020840161104c565b90509250929050565b6000806000606084860312156110cb57600080fd5b6110d48461104c565b92506110e26020850161104c565b9150604084013590509250925092565b6000806000806080858703121561110857600080fd5b6111118561104c565b935061111f6020860161104c565b925060408501359150606085013567ffffffffffffffff8082111561114357600080fd5b818701915087601f83011261115757600080fd5b813581811115611169576111696114ed565b604051601f8201601f19908116603f01168101908382118183101715611191576111916114ed565b816040528281528a60208487010111156111aa57600080fd5b82602086016020830137600060208483010152809550505050505092959194509250565b600080604083850312156111e157600080fd5b6111ea8361104c565b9150602083013580151581146111ff57600080fd5b809150509250929050565b6000806040838503121561121d57600080fd5b6112268361104c565b946020939093013593505050565b60006020828403121561124657600080fd5b813561079c81611503565b60006020828403121561126357600080fd5b815161079c81611503565b60006020828403121561128057600080fd5b5035919050565b6000815180845261129f816020860160208601611415565b601f01601f19169290920160200192915050565b600083516112c5818460208801611415565b8351908301906112d9818360208801611415565b01949350505050565b6001600160a01b038581168252841660208201526040810183905260806060820181905260009061131590830184611287565b9695505050505050565b60208152600061079c6020830184611287565b60208082526032908201527f4552433732313a207472616e7366657220746f206e6f6e20455243373231526560408201527131b2b4bb32b91034b6b83632b6b2b73a32b960711b606082015260800190565b6020808252602e908201527f4552433732313a2063616c6c6572206973206e6f7420746f6b656e206f776e6560408201526d1c881b9bdc88185c1c1c9bdd995960921b606082015260800190565b600082198211156113e5576113e56114ab565b500190565b6000826113f9576113f96114c1565b500490565b600082821015611410576114106114ab565b500390565b60005b83811015611430578181015183820152602001611418565b838111156107295750506000910152565b600181811c9082168061145557607f821691505b6020821081141561147657634e487b7160e01b600052602260045260246000fd5b50919050565b6000600019821415611490576114906114ab565b5060010190565b6000826114a6576114a66114c1565b500690565b634e487b7160e01b600052601160045260246000fd5b634e487b7160e01b600052601260045260246000fd5b634e487b7160e01b600052603260045260246000fd5b634e487b7160e01b600052604160045260246000fd5b6001600160e01b03198116811461081957600080fdfea26469706673582212208825169cbe0579e8875ac91782f0d0a0349c8e3639b5405fb719f6b6a774ff8c64736f6c63430008060033",
  "devdoc": {
    "kind": "dev",
    "methods": {
      "approve(address,uint256)": {
        "details": "See {IERC721-approve}."
      },
      "balanceOf(address)": {
        "details": "See {IERC721-balanceOf}."
      },
      "getApproved(uint256)": {
        "details": "See {IERC721-getApproved}."
      },
      "isApprovedForAll(address,address)": {
        "details": "See {IERC721-isApprovedForAll}."
      },
      "name()": {
        "details": "See {IERC721Metadata-name}."
      },
      "owner()": {
        "details": "Returns the address of the current owner."
      },
      "ownerOf(uint256)": {
        "details": "See {IERC721-ownerOf}."
      },
      "renounceOwnership()": {
        "details": "Leaves the contract without owner. It will not be possible to call `onlyOwner` functions anymore. Can only be called by the current owner. NOTE: Renouncing ownership will leave the contract without an owner, thereby removing any functionality that is only available to the owner."
      },
      "safeTransferFrom(address,address,uint256)": {
        "details": "See {IERC721-safeTransferFrom}."
      },
      "safeTransferFrom(address,address,uint256,bytes)": {
        "details": "See {IERC721-safeTransferFrom}."
      },
      "setApprovalForAll(address,bool)": {
        "details": "See {IERC721-setApprovalForAll}."
      },
      "supportsInterface(bytes4)": {
        "details": "See {IERC165-supportsInterface}."
      },
      "symbol()": {
        "details": "See {IERC721Metadata-symbol}."
      },
      "tokenURI(uint256)": {
        "details": "See {IERC721Metadata-tokenURI}."
      },
      "transferFrom(address,address,uint256)": {
        "details": "See {IERC721-transferFrom}."
      },
      "transferOwnership(address)": {
        "details": "Transfers ownership of the contract to a new account (`newOwner`). Can only be called by the current owner."
      }
    },
    "version": 1
  },
  "userdoc": {
    "kind": "user",
    "methods": {},
    "version": 1
  },
  "storageLayout": {
    "storage": [
      {
        "astId": 1144,
        "contract": "contracts/AccountManagerToken.sol:AccountManagerToken",
        "label": "_name",
        "offset": 0,
        "slot": "0",
        "type": "t_string_storage"
      },
      {
        "astId": 1146,
        "contract": "contracts/AccountManagerToken.sol:AccountManagerToken",
        "label": "_symbol",
        "offset": 0,
        "slot": "1",
        "type": "t_string_storage"
      },
      {
        "astId": 1150,
        "contract": "contracts/AccountManagerToken.sol:AccountManagerToken",
        "label": "_owners",
        "offset": 0,
        "slot": "2",
        "type": "t_mapping(t_uint256,t_address)"
      },
      {
        "astId": 1154,
        "contract": "contracts/AccountManagerToken.sol:AccountManagerToken",
        "label": "_balances",
        "offset": 0,
        "slot": "3",
        "type": "t_mapping(t_address,t_uint256)"
      },
      {
        "astId": 1158,
        "contract": "contracts/AccountManagerToken.sol:AccountManagerToken",
        "label": "_tokenApprovals",
        "offset": 0,
        "slot": "4",
        "type": "t_mapping(t_uint256,t_address)"
      },
      {
        "astId": 1164,
        "contract": "contracts/AccountManagerToken.sol:AccountManagerToken",
        "label": "_operatorApprovals",
        "offset": 0,
        "slot": "5",
        "type": "t_mapping(t_address,t_mapping(t_address,t_bool))"
      },
      {
        "astId": 7,
        "contract": "contracts/AccountManagerToken.sol:AccountManagerToken",
        "label": "_owner",
        "offset": 0,
        "slot": "6",
        "type": "t_address"
      },
      {
        "astId": 3765,
        "contract": "contracts/AccountManagerToken.sol:AccountManagerToken",
        "label": "accountManager",
        "offset": 0,
        "slot": "7",
        "type": "t_address"
      }
    ],
    "types": {
      "t_address": {
        "encoding": "inplace",
        "label": "address",
        "numberOfBytes": "20"
      },
      "t_bool": {
        "encoding": "inplace",
        "label": "bool",
        "numberOfBytes": "1"
      },
      "t_mapping(t_address,t_bool)": {
        "encoding": "mapping",
        "key": "t_address",
        "label": "mapping(address => bool)",
        "numberOfBytes": "32",
        "value": "t_bool"
      },
      "t_mapping(t_address,t_mapping(t_address,t_bool))": {
        "encoding": "mapping",
        "key": "t_address",
        "label": "mapping(address => mapping(address => bool))",
        "numberOfBytes": "32",
        "value": "t_mapping(t_address,t_bool)"
      },
      "t_mapping(t_address,t_uint256)": {
        "encoding": "mapping",
        "key": "t_address",
        "label": "mapping(address => uint256)",
        "numberOfBytes": "32",
        "value": "t_uint256"
      },
      "t_mapping(t_uint256,t_address)": {
        "encoding": "mapping",
        "key": "t_uint256",
        "label": "mapping(uint256 => address)",
        "numberOfBytes": "32",
        "value": "t_address"
      },
      "t_string_storage": {
        "encoding": "bytes",
        "label": "string",
        "numberOfBytes": "32"
      },
      "t_uint256": {
        "encoding": "inplace",
        "label": "uint256",
        "numberOfBytes": "32"
      }
    }
  }
}