{
  "address": "0x42F2955b3b48850E317F0b358B35b53CE7B53516",
  "abi": [
    {
      "inputs": [
        {
          "internalType": "contract IAccountManagerToken",
          "name": "_accountManagerToken",
          "type": "address"
        },
        {
          "internalType": "address",
          "name": "_router",
          "type": "address"
        },
        {
          "internalType": "contract IVault",
          "name": "_vault",
          "type": "address"
        },
        {
          "internalType": "contract IPositionRouter",
          "name": "_positionRouter",
          "type": "address"
        },
        {
          "internalType": "address[8]",
          "name": "_indexTokenArr",
          "type": "address[8]"
        },
        {
          "internalType": "address[4]",
          "name": "_stablecoinsArray",
          "type": "address[4]"
        },
        {
          "internalType": "bool[8]",
          "name": "_permissions",
          "type": "bool[8]"
        }
      ],
      "stateMutability": "nonpayable",
      "type": "constructor"
    },
    {
      "anonymous": false,
      "inputs": [
        {
          "indexed": true,
          "internalType": "address",
          "name": "previousOwner",
          "type": "address"
        },
        {
          "indexed": true,
          "internalType": "address",
          "name": "newOwner",
          "type": "address"
        }
      ],
      "name": "OwnershipTransferred",
      "type": "event"
    },
    {
      "inputs": [],
      "name": "accountManagerToken",
      "outputs": [
        {
          "internalType": "contract IAccountManagerToken",
          "name": "",
          "type": "address"
        }
      ],
      "stateMutability": "view",
      "type": "function"
    },
    {
      "inputs": [
        {
          "internalType": "address[]",
          "name": "_path",
          "type": "address[]"
        },
        {
          "internalType": "address",
          "name": "_indexToken",
          "type": "address"
        },
        {
          "internalType": "uint256",
          "name": "_collateralDelta",
          "type": "uint256"
        },
        {
          "internalType": "uint256",
          "name": "_sizeDelta",
          "type": "uint256"
        },
        {
          "internalType": "bool",
          "name": "_isLong",
          "type": "bool"
        },
        {
          "internalType": "uint256",
          "name": "_acceptablePrice",
          "type": "uint256"
        },
        {
          "internalType": "uint256",
          "name": "_minOut",
          "type": "uint256"
        },
        {
          "internalType": "uint256",
          "name": "_executionFee",
          "type": "uint256"
        },
        {
          "internalType": "bool",
          "name": "_withdrawETH",
          "type": "bool"
        }
      ],
      "name": "createDecreasePosition",
      "outputs": [],
      "stateMutability": "payable",
      "type": "function"
    },
    {
      "inputs": [],
      "name": "createDoppelgangerGMX",
      "outputs": [],
      "stateMutability": "nonpayable",
      "type": "function"
    },
    {
      "inputs": [
        {
          "internalType": "address[]",
          "name": "_path",
          "type": "address[]"
        },
        {
          "internalType": "address",
          "name": "_indexToken",
          "type": "address"
        },
        {
          "internalType": "uint256",
          "name": "_amountIn",
          "type": "uint256"
        },
        {
          "internalType": "uint256",
          "name": "_minOut",
          "type": "uint256"
        },
        {
          "internalType": "uint256",
          "name": "_sizeDelta",
          "type": "uint256"
        },
        {
          "internalType": "bool",
          "name": "_isLong",
          "type": "bool"
        },
        {
          "internalType": "uint256",
          "name": "_acceptablePrice",
          "type": "uint256"
        },
        {
          "internalType": "uint256",
          "name": "_executionFee",
          "type": "uint256"
        },
        {
          "internalType": "bytes32",
          "name": "_referralCode",
          "type": "bytes32"
        }
      ],
      "name": "createIncreasePosition",
      "outputs": [],
      "stateMutability": "payable",
      "type": "function"
    },
    {
      "inputs": [
        {
          "internalType": "address[]",
          "name": "_path",
          "type": "address[]"
        },
        {
          "internalType": "address",
          "name": "_indexToken",
          "type": "address"
        },
        {
          "internalType": "uint256",
          "name": "_amountIn",
          "type": "uint256"
        },
        {
          "internalType": "uint256",
          "name": "_minOut",
          "type": "uint256"
        },
        {
          "internalType": "uint256",
          "name": "_sizeDelta",
          "type": "uint256"
        },
        {
          "internalType": "bool",
          "name": "_isLong",
          "type": "bool"
        },
        {
          "internalType": "uint256",
          "name": "_acceptablePrice",
          "type": "uint256"
        },
        {
          "internalType": "uint256",
          "name": "_executionFee",
          "type": "uint256"
        },
        {
          "internalType": "bytes32",
          "name": "_referralCode",
          "type": "bytes32"
        }
      ],
      "name": "createIncreasePositionETH",
      "outputs": [],
      "stateMutability": "payable",
      "type": "function"
    },
    {
      "inputs": [
        {
          "internalType": "uint256",
          "name": "id",
          "type": "uint256"
        }
      ],
      "name": "currentPrice",
      "outputs": [
        {
          "internalType": "uint256",
          "name": "",
          "type": "uint256"
        }
      ],
      "stateMutability": "view",
      "type": "function"
    },
    {
      "inputs": [],
      "name": "ddl_gmx",
      "outputs": [
        {
          "internalType": "address",
          "name": "",
          "type": "address"
        }
      ],
      "stateMutability": "view",
      "type": "function"
    },
    {
      "inputs": [
        {
          "internalType": "address",
          "name": "",
          "type": "address"
        }
      ],
      "name": "doppelgangerMap",
      "outputs": [
        {
          "internalType": "address payable",
          "name": "",
          "type": "address"
        }
      ],
      "stateMutability": "view",
      "type": "function"
    },
    {
      "inputs": [
        {
          "internalType": "uint256",
          "name": "id",
          "type": "uint256"
        }
      ],
      "name": "getPosition",
      "outputs": [
        {
          "internalType": "uint256",
          "name": "size",
          "type": "uint256"
        },
        {
          "internalType": "uint256",
          "name": "collateral",
          "type": "uint256"
        },
        {
          "internalType": "uint256",
          "name": "averagePrice",
          "type": "uint256"
        },
        {
          "internalType": "uint256",
          "name": "entryFundingRate",
          "type": "uint256"
        },
        {
          "internalType": "uint256",
          "name": "reserveAmount",
          "type": "uint256"
        },
        {
          "internalType": "uint256",
          "name": "realisedPnl",
          "type": "uint256"
        },
        {
          "internalType": "bool",
          "name": "isProfit",
          "type": "bool"
        },
        {
          "internalType": "uint256",
          "name": "lastIncreasedTime",
          "type": "uint256"
        }
      ],
      "stateMutability": "view",
      "type": "function"
    },
    {
      "inputs": [
        {
          "internalType": "uint256",
          "name": "id",
          "type": "uint256"
        }
      ],
      "name": "getPositionDelta",
      "outputs": [
        {
          "internalType": "bool",
          "name": "isProfit",
          "type": "bool"
        },
        {
          "internalType": "uint256",
          "name": "profit",
          "type": "uint256"
        }
      ],
      "stateMutability": "view",
      "type": "function"
    },
    {
      "inputs": [
        {
          "internalType": "uint256",
          "name": "",
          "type": "uint256"
        }
      ],
      "name": "indexTokenArr",
      "outputs": [
        {
          "internalType": "address",
          "name": "",
          "type": "address"
        }
      ],
      "stateMutability": "view",
      "type": "function"
    },
    {
      "inputs": [
        {
          "internalType": "enum IAccountManager.Symbols",
          "name": "",
          "type": "uint8"
        }
      ],
      "name": "indexTokenBySymbol",
      "outputs": [
        {
          "internalType": "address",
          "name": "",
          "type": "address"
        }
      ],
      "stateMutability": "view",
      "type": "function"
    },
    {
      "inputs": [
        {
          "internalType": "uint256",
          "name": "id",
          "type": "uint256"
        }
      ],
      "name": "isLong",
      "outputs": [
        {
          "internalType": "bool",
          "name": "",
          "type": "bool"
        }
      ],
      "stateMutability": "view",
      "type": "function"
    },
    {
      "inputs": [
        {
          "internalType": "uint256",
          "name": "",
          "type": "uint256"
        }
      ],
      "name": "keyData",
      "outputs": [
        {
          "internalType": "enum IAccountManager.Symbols",
          "name": "symbol",
          "type": "uint8"
        },
        {
          "internalType": "address",
          "name": "doppelgangerContract",
          "type": "address"
        },
        {
          "internalType": "bool",
          "name": "isLong",
          "type": "bool"
        },
        {
          "internalType": "address",
          "name": "indexToken",
          "type": "address"
        },
        {
          "internalType": "address",
          "name": "user",
          "type": "address"
        }
      ],
      "stateMutability": "view",
      "type": "function"
    },
    {
      "inputs": [],
      "name": "owner",
      "outputs": [
        {
          "internalType": "address",
          "name": "",
          "type": "address"
        }
      ],
      "stateMutability": "view",
      "type": "function"
    },
    {
      "inputs": [
        {
          "internalType": "enum IAccountManager.Symbols",
          "name": "",
          "type": "uint8"
        }
      ],
      "name": "permissions",
      "outputs": [
        {
          "internalType": "bool",
          "name": "",
          "type": "bool"
        }
      ],
      "stateMutability": "view",
      "type": "function"
    },
    {
      "inputs": [],
      "name": "positionRouter",
      "outputs": [
        {
          "internalType": "contract IPositionRouter",
          "name": "",
          "type": "address"
        }
      ],
      "stateMutability": "view",
      "type": "function"
    },
    {
      "inputs": [],
      "name": "renounceOwnership",
      "outputs": [],
      "stateMutability": "nonpayable",
      "type": "function"
    },
    {
      "inputs": [],
      "name": "router",
      "outputs": [
        {
          "internalType": "address",
          "name": "",
          "type": "address"
        }
      ],
      "stateMutability": "view",
      "type": "function"
    },
    {
      "inputs": [
        {
          "internalType": "address",
          "name": "value",
          "type": "address"
        }
      ],
      "name": "setDDL_GMX",
      "outputs": [],
      "stateMutability": "nonpayable",
      "type": "function"
    },
    {
      "inputs": [
        {
          "internalType": "enum IAccountManager.Symbols",
          "name": "symbol",
          "type": "uint8"
        },
        {
          "internalType": "bool",
          "name": "value",
          "type": "bool"
        }
      ],
      "name": "setPermission",
      "outputs": [],
      "stateMutability": "nonpayable",
      "type": "function"
    },
    {
      "inputs": [
        {
          "internalType": "uint256",
          "name": "",
          "type": "uint256"
        }
      ],
      "name": "stablecoinsArray",
      "outputs": [
        {
          "internalType": "address",
          "name": "",
          "type": "address"
        }
      ],
      "stateMutability": "view",
      "type": "function"
    },
    {
      "inputs": [
        {
          "internalType": "address",
          "name": "",
          "type": "address"
        },
        {
          "internalType": "bool",
          "name": "",
          "type": "bool"
        }
      ],
      "name": "symbolByIndexToken",
      "outputs": [
        {
          "internalType": "enum IAccountManager.Symbols",
          "name": "",
          "type": "uint8"
        }
      ],
      "stateMutability": "view",
      "type": "function"
    },
    {
      "inputs": [
        {
          "internalType": "address",
          "name": "newOwner",
          "type": "address"
        }
      ],
      "name": "transferOwnership",
      "outputs": [],
      "stateMutability": "nonpayable",
      "type": "function"
    },
    {
      "inputs": [],
      "name": "vault",
      "outputs": [
        {
          "internalType": "contract IVault",
          "name": "",
          "type": "address"
        }
      ],
      "stateMutability": "view",
      "type": "function"
    }
  ],
  "transactionHash": "0xccbbea9a42656ce6f888dc19a1650f72d89fe6e3ec111a2be51dd9b34135c378",
  "args": [
    "0x7EB017B1c54cCFa923330F11e4dC59AF83aC862a",
    "0xaBBc5F99639c9B6bCb58544ddf04EFA6802F4064",
    "0x489ee077994B6658eAfA855C308275EAd8097C4A",
    "0xb87a436B93fFE9D75c5cFA7bAcFff96430b09868",
    [
      "0x82aF49447D8a07e3bd95BD0d56f35241523fBab1",
      "0x2f2a2543B76A4166549F7aaB2e75Bef0aefC5B0f",
      "0xf97f4df75117a78c1A5a0DBb814Af92458539FB4",
      "0xFa7F8980b0f1E64A2062791cc3b0871572f1F7f0",
      "0x82aF49447D8a07e3bd95BD0d56f35241523fBab1",
      "0x2f2a2543B76A4166549F7aaB2e75Bef0aefC5B0f",
      "0xf97f4df75117a78c1A5a0DBb814Af92458539FB4",
      "0xFa7F8980b0f1E64A2062791cc3b0871572f1F7f0"
    ],
    [
      "0xFF970A61A04b1cA14834A43f5dE4533eBDDB5CC8",
      "0xFd086bC7CD5C481DCC9C85ebE478A1C0b69FCbb9",
      "0xDA10009cBd5D07dd0CeCc66161FC93D7c9000da1",
      "0x17FC002b466eEc40DaE837Fc4bE5c67993ddBd6F"
    ],
    [
      true,
      true,
      true,
      true,
      true,
      true,
      true,
      true
    ]
  ],
  "numDeployments": 1,
  "solcInputHash": "e9d0b6ee8912d97223d78216efcb4812",
  "bytecode": "0x6101006040523480156200001257600080fd5b5060405162003af638038062003af6833981016040819052620000359162000470565b62000040336200025e565b6001600160601b0319606088811b821660805287811b821660a05286811b821660c05285901b1660e052620000796007846008620002ae565b5062000089600f8360046200030b565b5060005b60088110156200025057806007811115620000ac57620000ac620005cd565b60046000868460088110620000c557620000c5620005e3565b60200201516001600160a01b03166001600160a01b03168152602001908152602001600020600060048410620000fd57600062000100565b60015b151581526020810191909152604001600020805460ff191660018360078111156200012f576200012f620005cd565b0217905550838160088110620001495762000149620005e3565b602002015160056000836007811115620001675762000167620005cd565b60078111156200017b576200017b620005cd565b60078111156200018f576200018f620005cd565b815260200190815260200160002060006101000a8154816001600160a01b0302191690836001600160a01b03160217905550818160088110620001d657620001d6620005e3565b602002015160066000836007811115620001f457620001f4620005cd565b6007811115620002085762000208620005cd565b60078111156200021c576200021c620005cd565b81526020810191909152604001600020805460ff1916911515919091179055806200024781620005a3565b9150506200008d565b505050505050505062000612565b600080546001600160a01b038381166001600160a01b0319831681178455604051919092169283917f8be0079c531659141344cd1fd0a4f28419497f9722a3daafe3b4186f6b6457e09190a35050565b8260088101928215620002f9579160200282015b82811115620002f957825182546001600160a01b0319166001600160a01b03909116178255602090920191600190910190620002c2565b506200030792915062000355565b5090565b8260048101928215620002f95791602002820182811115620002f957825182546001600160a01b0319166001600160a01b03909116178255602090920191600190910190620002c2565b5b8082111562000307576000815560010162000356565b600082601f8301126200037e57600080fd5b604051608081016001600160401b0381118282101715620003af57634e487b7160e01b600052604160045260246000fd5b604052808360808101861015620003c557600080fd5b60005b6004811015620003f5578151620003df81620005f9565b83526020928301929190910190600101620003c8565b509195945050505050565b600082601f8301126200041257600080fd5b6200041c6200056b565b808385610100860111156200043057600080fd5b6000805b60088110156200046457825180151581146200044e578283fd5b8552602094850194929092019160010162000434565b50919695505050505050565b6000806000806000806000610300888a0312156200048d57600080fd5b87516200049a81620005f9565b80975050602080890151620004af81620005f9565b60408a0151909750620004c281620005f9565b60608a0151909650620004d581620005f9565b9450609f89018a13620004e757600080fd5b620004f16200056b565b8060808b016101808c018d8111156200050957600080fd5b60005b6008811015620005365782516200052381620005f9565b855293850193918501916001016200050c565b50829750620005468e826200036c565b965050505050506200055d896102008a0162000400565b905092959891949750929550565b60405161010081016001600160401b03811182821017156200059d57634e487b7160e01b600052604160045260246000fd5b60405290565b6000600019821415620005c657634e487b7160e01b600052601160045260246000fd5b5060010190565b634e487b7160e01b600052602160045260246000fd5b634e487b7160e01b600052603260045260246000fd5b6001600160a01b03811681146200060f57600080fd5b50565b60805160601c60a05160601c60c05160601c60e05160601c613451620006a5600039600081816102930152610b13015260008181610642015281816107ff01528181610b3401528181610e8901528181610f42015261119d01526000818161060c0152610b5501526000818161049c015281816109a801528181610a5601528181610b7c0152610d7201526134516000f3fe608060405260043610620001835760003560e01c80639e71527d11620000e2578063c98741701162000095578063f2fde38b116200006c578063f2fde38b14620005d3578063f887ea4014620005f8578063fbfa77cf146200062e578063fec56fe0146200066457600080fd5b8063c987417014620004e3578063e6e6dd2f14620004fa578063eb02c301146200057057600080fd5b80639e71527d14620003b4578063a226b48314620003d9578063a4cf54a21462000414578063b7d32110146200044e578063be1528611462000488578063c7960d3514620004be57600080fd5b806361ef161f116200013b57806361ef161f146200027f5780636476b83714620002b55780636c5e2fd914620002fa578063715018a614620003485780637a3c4c1714620003605780638da5cb5b146200039457600080fd5b806230e1b514620001885780630b8b47fe14620001ca5780630cd790f714620001e35780633264fee5146200020557806332d53b17146200022a578063449bd2cc1462000267575b600080fd5b3480156200019557600080fd5b50620001ad620001a7366004620018ea565b6200067b565b6040516001600160a01b0390911681526020015b60405180910390f35b620001e1620001db366004620017b7565b6200069c565b005b348015620001f057600080fd5b50600154620001ad906001600160a01b031681565b3480156200021257600080fd5b50620001e162000224366004620016a6565b620007b8565b3480156200023757600080fd5b506200024f62000249366004620018ea565b620007e4565b604080519215158352602083019190915201620001c1565b3480156200027457600080fd5b50620001e162000928565b3480156200028c57600080fd5b50620001ad7f000000000000000000000000000000000000000000000000000000000000000081565b348015620002c257600080fd5b50620002e9620002d4366004620018ad565b60066020526000908152604090205460ff1681565b6040519015158152602001620001c1565b3480156200030757600080fd5b506200033962000319366004620016cb565b600460209081526000928352604080842090915290825290205460ff1681565b604051620001c1919062001bef565b3480156200035557600080fd5b50620001e162000e20565b3480156200036d57600080fd5b50620003856200037f366004620018ea565b62000e38565b604051908152602001620001c1565b348015620003a157600080fd5b506000546001600160a01b0316620001ad565b348015620003c157600080fd5b50620001e1620003d3366004620018cb565b62000f74565b348015620003e657600080fd5b50620002e9620003f8366004620018ea565b600090815260036020526040902054600160a81b900460ff1690565b3480156200042157600080fd5b50620001ad62000433366004620016a6565b6002602052600090815260409020546001600160a01b031681565b3480156200045b57600080fd5b50620001ad6200046d366004620018ad565b6005602052600090815260409020546001600160a01b031681565b3480156200049557600080fd5b50620001ad7f000000000000000000000000000000000000000000000000000000000000000081565b348015620004cb57600080fd5b50620001ad620004dd366004620018ea565b62000fcf565b620001e1620004f4366004620017b7565b62000fe0565b3480156200050757600080fd5b506200055d62000519366004620018ea565b60036020526000908152604090208054600182015460029092015460ff808316936001600160a01b036101008504811694600160a81b900490921692908216911685565b604051620001c195949392919062001bff565b3480156200057d57600080fd5b50620005956200058f366004620018ea565b62001176565b604080519889526020890197909752958701949094526060860192909252608085015260a0840152151560c083015260e082015261010001620001c1565b348015620005e057600080fd5b50620001e1620005f2366004620016a6565b620012ea565b3480156200060557600080fd5b50620001ad7f000000000000000000000000000000000000000000000000000000000000000081565b3480156200063b57600080fd5b50620001ad7f000000000000000000000000000000000000000000000000000000000000000081565b620001e16200067536600462001707565b62001369565b600f81600481106200068c57600080fd5b01546001600160a01b0316905081565b336000908152600260205260409020546001600160a01b0316620006dd5760405162461bcd60e51b8152600401620006d49062001c40565b60405180910390fd5b620006e9888562001431565b60026000336001600160a01b03166001600160a01b0316815260200190815260200160002060009054906101000a90046001600160a01b03166001600160a01b031663da91dfd534338c8c8c8c8c8c8c8c8c600160009054906101000a90046001600160a01b03166040518d63ffffffff1660e01b8152600401620007799b9a9998979695949392919062001ac8565b6000604051808303818588803b1580156200079357600080fd5b505af1158015620007a8573d6000803e3d6000fd5b5050505050505050505050505050565b620007c2620014ec565b600180546001600160a01b0319166001600160a01b0392909216919091179055565b60008181526003602052604081205481906001600160a01b037f00000000000000000000000000000000000000000000000000000000000000008116916345a6f370916101008204169060ff600160a81b909104166200085057600f546001600160a01b03166200086c565b6000868152600360205260409020600101546001600160a01b03165b6000878152600360205260409081902060018101549054915160e086901b6001600160e01b03191681526001600160a01b0394851660048201529284166024840152929092166044820152600160a81b90910460ff1615156064820152608401604080518083038186803b158015620008e457600080fd5b505afa158015620008f9573d6000803e3d6000fd5b505050506040513d601f19601f820116820180604052508101906200091f91906200187c565b91509150915091565b336000908152600260205260409020546001600160a01b031615620009a45760405162461bcd60e51b815260206004820152602b60248201527f446f7070656c67616e67657220666f722074686973206164647265737320616c60448201526a1c9958591e48195e1a5cdd60aa1b6064820152608401620006d4565b60007f00000000000000000000000000000000000000000000000000000000000000006001600160a01b03166317d70f7c6040518163ffffffff1660e01b8152600401602060405180830381600087803b15801562000a0257600080fd5b505af115801562000a17573d6000803e3d6000fd5b505050506040513d601f19601f8201168201806040525081019062000a3d919062001904565b60405163fd0d101f60e01b8152600860048201529091507f00000000000000000000000000000000000000000000000000000000000000006001600160a01b03169063fd0d101f90602401600060405180830381600087803b15801562000aa357600080fd5b505af115801562000ab8573d6000803e3d6000fd5b5050505062000ac662001598565b60005b600881101562000b0e5762000adf818462001c77565b82826008811062000af45762000af462001cdc565b60200201528062000b058162001c92565b91505062000ac9565b5060007f00000000000000000000000000000000000000000000000000000000000000007f00000000000000000000000000000000000000000000000000000000000000007f0000000000000000000000000000000000000000000000000000000000000000846007600f307f0000000000000000000000000000000000000000000000000000000000000000600160009054906101000a90046001600160a01b031660405162000bbf90620015b7565b62000bd39998979695949392919062001b3e565b604051809103906000f08015801562000bf0573d6000803e3d6000fd5b5033600090815260026020526040812080546001600160a01b0319166001600160a01b0384161790559091505b600881101562000e1a576040518060a0016040528082600781111562000c475762000c4762001cc6565b600781111562000c5b5762000c5b62001cc6565b8152602001836001600160a01b031681526020016004831062000c8057600062000c83565b60015b151581526020016007836008811062000ca05762000ca062001cdc565b01546001600160a01b03168152336020909101526003600062000cc4848862001c77565b8152602081019190915260400160002081518154829060ff1916600183600781111562000cf55762000cf562001cc6565b02179055506020820151815460408401511515600160a81b0260ff60a81b196001600160a01b039384166101000216610100600160b01b03199092169190911717825560608301516001830180549183166001600160a01b03199283161790556080909301516002909201805492821692909316919091179091557f0000000000000000000000000000000000000000000000000000000000000000166340c10f193362000da4848862001c77565b6040516001600160e01b031960e085901b1681526001600160a01b0390921660048301526024820152604401600060405180830381600087803b15801562000deb57600080fd5b505af115801562000e00573d6000803e3d6000fd5b50505050808062000e119062001c92565b91505062000c1d565b50505050565b62000e2a620014ec565b62000e36600062001548565b565b600081815260036020526040812054600160a81b900460ff161562000f105760008281526003602052604090819020600101549051637092736960e11b81526001600160a01b0391821660048201527f00000000000000000000000000000000000000000000000000000000000000009091169063e124e6d2906024015b60206040518083038186803b15801562000ecf57600080fd5b505afa15801562000ee4573d6000803e3d6000fd5b505050506040513d601f19601f8201168201806040525081019062000f0a919062001904565b92915050565b600082815260036020526040908190206001015490516340d3096b60e11b81526001600160a01b0391821660048201527f0000000000000000000000000000000000000000000000000000000000000000909116906381a612d69060240162000eb6565b62000f7e620014ec565b806006600084600781111562000f985762000f9862001cc6565b600781111562000fac5762000fac62001cc6565b81526020810191909152604001600020805460ff19169115159190911790555050565b600781600881106200068c57600080fd5b336000908152600260205260409020546001600160a01b0316620010185760405162461bcd60e51b8152600401620006d49062001c40565b62001024888562001431565b886000815181106200103a576200103a62001cdc565b60209081029190910181015133600081815260029093526040928390205492516323b872dd60e01b815260048101919091526001600160a01b039283166024820152604481018a90529116906323b872dd90606401602060405180830381600087803b158015620010aa57600080fd5b505af1158015620010bf573d6000803e3d6000fd5b505050506040513d601f19601f82011682018060405250810190620010e591906200185c565b5060026000336001600160a01b03166001600160a01b0316815260200190815260200160002060009054906101000a90046001600160a01b03166001600160a01b0316634fbb66c334338c8c8c8c8c8c8c8c8c600160009054906101000a90046001600160a01b03166040518d63ffffffff1660e01b8152600401620007799b9a9998979695949392919062001ac8565b60008181526003602052604081205481908190819081908190819081906001600160a01b037f0000000000000000000000000000000000000000000000000000000000000000811691634a3f088d916101008204169060ff600160a81b90910416620011ee57600f546001600160a01b03166200120a565b60008c8152600360205260409020600101546001600160a01b03165b60008d8152600360205260409081902060018101549054915160e086901b6001600160e01b03191681526001600160a01b0394851660048201529284166024840152929092166044820152600160a81b90910460ff16151560648201526084016101006040518083038186803b1580156200128457600080fd5b505afa15801562001299573d6000803e3d6000fd5b505050506040513d601f19601f82011682018060405250810190620012bf91906200191e565b809850819950829a50839b50849c50859d50869e50879f505050505050505050919395975091939597565b620012f4620014ec565b6001600160a01b0381166200135b5760405162461bcd60e51b815260206004820152602660248201527f4f776e61626c653a206e6577206f776e657220697320746865207a65726f206160448201526564647265737360d01b6064820152608401620006d4565b620013668162001548565b50565b336000908152600260205260409020546001600160a01b0316620013a15760405162461bcd60e51b8152600401620006d49062001c40565b60026000336001600160a01b03166001600160a01b0316815260200190815260200160002060009054906101000a90046001600160a01b03166001600160a01b0316636f7e879934338c8c8c8c8c8c8c8c8c600160009054906101000a90046001600160a01b03166040518d63ffffffff1660e01b8152600401620007799b9a9998979695949392919062001a50565b6001600160a01b038216600090815260046020908152604080832084151584529091528120546006919060ff16600781111562001472576200147262001cc6565b600781111562001486576200148662001cc6565b815260208101919091526040016000205460ff16620014e85760405162461bcd60e51b815260206004820152601f60248201527f74726164696e67206f6e207468697320706169722069732073746f70706564006044820152606401620006d4565b5050565b6000546001600160a01b0316331462000e365760405162461bcd60e51b815260206004820181905260248201527f4f776e61626c653a2063616c6c6572206973206e6f7420746865206f776e65726044820152606401620006d4565b600080546001600160a01b038381166001600160a01b0319831681178455604051919092169283917f8be0079c531659141344cd1fd0a4f28419497f9722a3daafe3b4186f6b6457e09190a35050565b6040518061010001604052806008906020820280368337509192915050565b6117048062001d1883390190565b80356001600160a01b0381168114620015dd57600080fd5b919050565b600082601f830112620015f457600080fd5b8135602067ffffffffffffffff8083111562001614576200161462001cf2565b8260051b604051601f19603f830116810181811084821117156200163c576200163c62001cf2565b604052848152838101925086840182880185018910156200165c57600080fd5b600092505b858310156200168a576200167581620015c5565b84529284019260019290920191840162001661565b50979650505050505050565b803560088110620015dd57600080fd5b600060208284031215620016b957600080fd5b620016c482620015c5565b9392505050565b60008060408385031215620016df57600080fd5b620016ea83620015c5565b91506020830135620016fc8162001d08565b809150509250929050565b60008060008060008060008060006101208a8c0312156200172757600080fd5b893567ffffffffffffffff8111156200173f57600080fd5b6200174d8c828d01620015e2565b9950506200175e60208b01620015c5565b975060408a0135965060608a0135955060808a01356200177e8162001d08565b945060a08a0135935060c08a0135925060e08a013591506101008a0135620017a68162001d08565b809150509295985092959850929598565b60008060008060008060008060006101208a8c031215620017d757600080fd5b893567ffffffffffffffff811115620017ef57600080fd5b620017fd8c828d01620015e2565b9950506200180e60208b01620015c5565b975060408a0135965060608a0135955060808a0135945060a08a0135620018358162001d08565b8094505060c08a0135925060e08a013591506101008a013590509295985092959850929598565b6000602082840312156200186f57600080fd5b8151620016c48162001d08565b600080604083850312156200189057600080fd5b82516200189d8162001d08565b6020939093015192949293505050565b600060208284031215620018c057600080fd5b620016c48262001696565b60008060408385031215620018df57600080fd5b620016ea8362001696565b600060208284031215620018fd57600080fd5b5035919050565b6000602082840312156200191757600080fd5b5051919050565b600080600080600080600080610100898b0312156200193c57600080fd5b885197506020890151965060408901519550606089015194506080890151935060a0890151925060c0890151620019738162001d08565b8092505060e089015190509295985092959890939650565b8060005b600481101562000e1a5781546001600160a01b03168452602090930192600191820191016200198f565b8060005b600881101562000e1a5781546001600160a01b0316845260209093019260019182019101620019bd565b600081518084526020808501945080840160005b8381101562001a225781516001600160a01b031687529582019590820190600101620019fb565b509495945050505050565b6008811062001a4c57634e487b7160e01b600052602160045260246000fd5b9052565b6001600160a01b038c811682526101606020830181905260009162001a788483018f620019e7565b9c81166040850152606084019b909b525050608081019790975294151560a087015260c086019390935260e085019190915261010084015215156101208301529091166101409091015292915050565b6001600160a01b038c811682526101606020830181905260009162001af08483018f620019e7565b9c81166040850152606084019b909b525050608081019790975260a087019590955292151560c086015260e08501919091526101008401526101208301529091166101409091015292915050565b6001600160a01b038a81168252898116602080840191909152908916604083015261034082019060608301908960005b600881101562001b8d5781518452928201929082019060010162001b6e565b5050505062001ba1610160830188620019b9565b62001bb16102608301876200198b565b6001600160a01b0385166102e08301526001600160a01b0384166103008301526001600160a01b0383166103208301529a9950505050505050505050565b6020810162000f0a828462001a2d565b60a0810162001c0f828862001a2d565b6001600160a01b03958616602083015293151560408201529184166060830152909216608090920191909152919050565b6020808252601b908201527f796f7520646f6e2774206861766520446f7070656c67616e6765720000000000604082015260600190565b6000821982111562001c8d5762001c8d62001cb0565b500190565b600060001982141562001ca95762001ca962001cb0565b5060010190565b634e487b7160e01b600052601160045260246000fd5b634e487b7160e01b600052602160045260246000fd5b634e487b7160e01b600052603260045260246000fd5b634e487b7160e01b600052604160045260246000fd5b80151581146200136657600080fdfe60a0604052600e805460ff60a01b191690553480156200001e57600080fd5b50604051620017043803806200170483398101604081905262000041916200036c565b600080546001600160a01b03808c166001600160a01b031992831617835560018054918c16919092161790556001600160601b0319606089901b166080525b6008811015620002125760048110156200013357858160088110620000a957620000a9620004e1565b602002015160058260048110620000c457620000c4620004e1565b0180546001600160a01b0319166001600160a01b0392909216919091179055848160048110620000f857620000f8620004e1565b602002015160098260048110620001135762000113620004e1565b0180546001600160a01b0319166001600160a01b03929092169190911790555b868160088110620001485762000148620004e1565b602002015160026000888460088110620001665762000166620004e1565b60200201516001600160a01b03166001600160a01b031681526020019081526020016000206000600484106200019e576000620001a1565b60015b15151515815260200190815260200160002081905550600160036000898460088110620001d257620001d2620004e1565b6020020151815260200190815260200160002060006101000a81548160ff02191690831515021790555080806200020990620004b7565b91505062000080565b50600480546001600160a01b03199081166001600160a01b0394851617909155600d8054821694841694909417909355600e805490931691161790555062000510945050505050565b80516200026881620004f7565b919050565b600082601f8301126200027f57600080fd5b604051608081016001600160401b0381118282101715620002b057634e487b7160e01b600052604160045260246000fd5b604052808360808101861015620002c657600080fd5b60005b6004811015620002f6578151620002e081620004f7565b83526020928301929190910190600101620002c9565b509195945050505050565b600082601f8301126200031357600080fd5b6200031d6200047f565b808385610100860111156200033157600080fd5b60005b6008811015620003615781516200034b81620004f7565b8452602093840193919091019060010162000334565b509095945050505050565b60008060008060008060008060006103408a8c0312156200038c57600080fd5b89516200039981620004f7565b60208b0151909950620003ac81620004f7565b60408b0151909850620003bf81620004f7565b9650607f8a018b13620003d157600080fd5b620003db6200047f565b8060608c016101608d018e811115620003f357600080fd5b60005b600881101562000417578251855260209485019490920191600101620003f6565b50829950620004278f8262000301565b9850505050506200043d8b6102608c016200026d565b93506200044e6102e08b016200025b565b92506200045f6103008b016200025b565b9150620004706103208b016200025b565b90509295985092959850929598565b60405161010081016001600160401b0381118282101715620004b157634e487b7160e01b600052604160045260246000fd5b60405290565b6000600019821415620004da57634e487b7160e01b600052601160045260246000fd5b5060010190565b634e487b7160e01b600052603260045260246000fd5b6001600160a01b03811681146200050d57600080fd5b50565b60805160601c6111c06200054460003960008181610313015281816106cc015281816107fd015261095101526111c06000f3fe6080604052600436106100f65760003560e01c80636526b83d1161008a578063d6ef601311610059578063d6ef6013146102ce578063da91dfd5146102ee578063f887ea4014610301578063fbfa77cf1461033557600080fd5b80636526b83d1461025b5780636f7e87991461027b57806391c2c4691461028e578063b7511c5b146102ae57600080fd5b806313a51b2e116100c657806313a51b2e146101bf57806328f371aa146102055780634fbb66c31461022657806361ef161f1461023b57600080fd5b806230e1b51461010257806306b278cb1461013f5780630cb6aaf11461015f5780630cd790f71461019f57600080fd5b366100fd57005b600080fd5b34801561010e57600080fd5b5061012261011d366004610f59565b610355565b6040516001600160a01b0390911681526020015b60405180910390f35b34801561014b57600080fd5b50600454610122906001600160a01b031681565b34801561016b57600080fd5b5061018f61017a366004610f59565b60036020526000908152604090205460ff1681565b6040519015158152602001610136565b3480156101ab57600080fd5b50600e54610122906001600160a01b031681565b3480156101cb57600080fd5b506101f76101da366004610f03565b600260209081526000928352604080842090915290825290205481565b604051908152602001610136565b34801561021157600080fd5b50600e5461018f90600160a01b900460ff1681565b610239610234366004610e54565b610375565b005b34801561024757600080fd5b50600054610122906001600160a01b031681565b34801561026757600080fd5b506101f7610276366004610d08565b610403565b610239610289366004610d8c565b6104bd565b34801561029a57600080fd5b50600d54610122906001600160a01b031681565b3480156102ba57600080fd5b506102396102c9366004610f59565b6106aa565b3480156102da57600080fd5b506101226102e9366004610f59565b610a07565b6102396102fc366004610e54565b610a17565b34801561030d57600080fd5b506101227f000000000000000000000000000000000000000000000000000000000000000081565b34801561034157600080fd5b50600154610122906001600160a01b031681565b6009816004811061036557600080fd5b01546001600160a01b0316905081565b6103808b8a87610a64565b60005460405163f2ae372f60e01b81526001600160a01b039091169063f2ae372f9034906103c4908e908e908e908e908e908e908e908e908e908e906004016110a4565b6000604051808303818588803b1580156103dd57600080fd5b505af11580156103f1573d6000803e3d6000fd5b50505050505050505050505050505050565b60015460405163082a084960e41b81526001600160a01b03898116600483015288811660248301528781166044830152606482018790526084820186905284151560a483015283811660c483015260009216906382a084909060e401602060405180830381600087803b15801561047957600080fd5b505af115801561048d573d6000803e3d6000fd5b505050506040513d601f19601f820116820180604052508101906104b19190610f72565b98975050505050505050565b600480546001600160a01b038b811660009081526002602090815260408083208c151584529091528082205490516331a9108f60e11b81529485015292911690636352211e9060240160206040518083038186803b15801561051e57600080fd5b505afa158015610532573d6000803e3d6000fd5b505050506040513d601f19601f820116820180604052508101906105569190610ce4565b90508b6001600160a01b0316816001600160a01b0316146105b55760405162461bcd60e51b8152602060048201526014602482015273796f7520646f6e277420686176652061206b657960601b60448201526064015b60405180910390fd5b600e546001600160a01b0316331461061657600d546001600160a01b031633146106165760405162461bcd60e51b815260206004820152601260248201527134b73b30b634b21036b9b39739b2b73232b960711b60448201526064016105ac565b60008054906101000a90046001600160a01b03166001600160a01b0316637be7d141348d8d8d8d8d888e8e8e8e8e6040518d63ffffffff1660e01b815260040161066a9b9a99989796959493929190610fcf565b6000604051808303818588803b15801561068357600080fd5b505af1158015610697573d6000803e3d6000fd5b5050505050505050505050505050505050565b6000546040516338c74dd960e01b81526001600160a01b0391821660048201527f0000000000000000000000000000000000000000000000000000000000000000909116906338c74dd990602401600060405180830381600087803b15801561071257600080fd5b505af1158015610726573d6000803e3d6000fd5b5050505060005b60048110156109f0576005816004811061074957610749611138565b015460005460405163095ea7b360e01b81526001600160a01b0391821660048201526024810185905291169063095ea7b390604401602060405180830381600087803b15801561079857600080fd5b505af11580156107ac573d6000803e3d6000fd5b505050506040513d601f19601f820116820180604052508101906107d09190610f3c565b50600581600481106107e4576107e4611138565b015460405163095ea7b360e01b81526001600160a01b037f000000000000000000000000000000000000000000000000000000000000000081166004830152602482018590529091169063095ea7b390604401602060405180830381600087803b15801561085157600080fd5b505af1158015610865573d6000803e3d6000fd5b505050506040513d601f19601f820116820180604052508101906108899190610f3c565b506009816004811061089d5761089d611138565b015460005460405163095ea7b360e01b81526001600160a01b0391821660048201526024810185905291169063095ea7b390604401602060405180830381600087803b1580156108ec57600080fd5b505af1158015610900573d6000803e3d6000fd5b505050506040513d601f19601f820116820180604052508101906109249190610f3c565b506009816004811061093857610938611138565b015460405163095ea7b360e01b81526001600160a01b037f000000000000000000000000000000000000000000000000000000000000000081166004830152602482018590529091169063095ea7b390604401602060405180830381600087803b1580156109a557600080fd5b505af11580156109b9573d6000803e3d6000fd5b505050506040513d601f19601f820116820180604052508101906109dd9190610f3c565b50806109e88161110f565b91505061072d565b5050600e805460ff60a01b1916600160a01b179055565b6005816004811061036557600080fd5b610a228b8a87610a64565b600054604051632dc4746360e11b81526001600160a01b0390911690635b88e8c69034906103c4908e908e908d908d908d908d908d908d908d90600401611042565b600480546001600160a01b0384811660009081526002602090815260408083208715158452909152908190205490516331a9108f60e11b81529384015285811692911690636352211e9060240160206040518083038186803b158015610ac957600080fd5b505afa158015610add573d6000803e3d6000fd5b505050506040513d601f19601f82011682018060405250810190610b019190610ce4565b6001600160a01b031614610b4e5760405162461bcd60e51b8152602060048201526014602482015273796f7520646f6e277420686176652061206b657960601b60448201526064016105ac565b6001600160a01b038216600090815260026020908152604080832084151584528252808320548352600390915290205460ff16610bbb5760405162461bcd60e51b815260206004820152600b60248201526a696e76616c6964206b657960a81b60448201526064016105ac565b600e546001600160a01b03163314610c1c57600d546001600160a01b03163314610c1c5760405162461bcd60e51b815260206004820152601260248201527134b73b30b634b21036b9b39739b2b73232b960711b60448201526064016105ac565b505050565b8035610c2c81611164565b919050565b600082601f830112610c4257600080fd5b8135602067ffffffffffffffff80831115610c5f57610c5f61114e565b8260051b604051601f19603f83011681018181108482111715610c8457610c8461114e565b60405284815283810192508684018288018501891015610ca357600080fd5b600092505b85831015610ccd57610cb981610c21565b845292840192600192909201918401610ca8565b50979650505050505050565b8035610c2c8161117c565b600060208284031215610cf657600080fd5b8151610d0181611164565b9392505050565b600080600080600080600060e0888a031215610d2357600080fd5b8735610d2e81611164565b96506020880135610d3e81611164565b95506040880135610d4e81611164565b9450606088013593506080880135925060a0880135610d6c8161117c565b915060c0880135610d7c81611164565b8091505092959891949750929550565b60008060008060008060008060008060006101608c8e031215610dae57600080fd5b8b35610db981611164565b9a5060208c013567ffffffffffffffff811115610dd557600080fd5b610de18e828f01610c31565b9a505060408c0135610df281611164565b985060608c0135975060808c01359650610e0e60a08d01610cd9565b955060c08c0135945060e08c013593506101008c01359250610e336101208d01610cd9565b9150610e426101408d01610c21565b90509295989b509295989b9093969950565b60008060008060008060008060008060006101608c8e031215610e7657600080fd5b8b35610e8181611164565b9a5060208c013567ffffffffffffffff811115610e9d57600080fd5b610ea98e828f01610c31565b9a505060408c0135610eba81611164565b985060608c0135975060808c0135965060a08c01359550610edd60c08d01610cd9565b945060e08c013593506101008c013592506101208c01359150610e426101408d01610c21565b60008060408385031215610f1657600080fd5b8235610f2181611164565b91506020830135610f318161117c565b809150509250929050565b600060208284031215610f4e57600080fd5b8151610d018161117c565b600060208284031215610f6b57600080fd5b5035919050565b600060208284031215610f8457600080fd5b5051919050565b600081518084526020808501945080840160005b83811015610fc45781516001600160a01b031687529582019590820190600101610f9f565b509495945050505050565b6000610160808352610fe38184018f610f8b565b6001600160a01b039d8e166020850152604084019c909c5250506060810198909852951515608088015293881660a087015260c086019290925260e0850152610100840152151561012083015290921661014090920191909152919050565b60006101208083526110568184018d610f8b565b6001600160a01b039b8c166020850152604084019a909a5250506060810196909652931515608086015260a085019290925260c084015260e083015290921661010090920191909152919050565b60006101408083526110b88184018e610f8b565b6001600160a01b039c8d166020850152604084019b909b5250506060810197909752608087019590955292151560a086015260c085019190915260e084015261010083015290921661012090920191909152919050565b600060001982141561113157634e487b7160e01b600052601160045260246000fd5b5060010190565b634e487b7160e01b600052603260045260246000fd5b634e487b7160e01b600052604160045260246000fd5b6001600160a01b038116811461117957600080fd5b50565b801515811461117957600080fdfea2646970667358221220067fb68695054c55d9f19e25552209d40bf6d8acaea735f0ec05a25e5b09936a64736f6c63430008060033a2646970667358221220eec54d74f3176243d1fb08504ae1d591259da4ee032891bb3b5f4b7ddd286e7c64736f6c63430008060033",
  "devdoc": {
    "kind": "dev",
    "methods": {
      "currentPrice(uint256)": {
        "params": {
          "id": "position ID"
        }
      },
      "getPosition(uint256)": {
        "params": {
          "id": "collateral ID*"
        }
      },
      "getPositionDelta(uint256)": {
        "params": {
          "id": "collateral ID*"
        }
      },
      "owner()": {
        "details": "Returns the address of the current owner."
      },
      "renounceOwnership()": {
        "details": "Leaves the contract without owner. It will not be possible to call `onlyOwner` functions anymore. Can only be called by the current owner. NOTE: Renouncing ownership will leave the contract without an owner, thereby removing any functionality that is only available to the owner."
      },
      "setDDL_GMX(address)": {
        "params": {
          "value": "the address of DDL_GMX*"
        }
      },
      "setPermission(uint8,bool)": {
        "params": {
          "symbol": "trough name",
          "value": "true or false *"
        }
      },
      "transferOwnership(address)": {
        "details": "Transfers ownership of the contract to a new account (`newOwner`). Can only be called by the current owner."
      }
    },
    "version": 1
  },
  "userdoc": {
    "kind": "user",
    "methods": {
      "createDecreasePosition(address[],address,uint256,uint256,bool,uint256,uint256,uint256,bool)": {
        "notice": "used to decrease position on GMX*"
      },
      "createDoppelgangerGMX()": {
        "notice": "creates Doppelganger account for the user*"
      },
      "createIncreasePosition(address[],address,uint256,uint256,uint256,bool,uint256,uint256,bytes32)": {
        "notice": "used to increase position on GMX*"
      },
      "createIncreasePositionETH(address[],address,uint256,uint256,uint256,bool,uint256,uint256,bytes32)": {
        "notice": "used to increase position on GMX (only ETH)*"
      },
      "currentPrice(uint256)": {
        "notice": "return currentPrice for the asset*"
      },
      "getPosition(uint256)": {
        "notice": "returns getPosition by the collateral"
      },
      "getPositionDelta(uint256)": {
        "notice": "returns getPositionDelta from GMX by the collateral ID"
      },
      "setDDL_GMX(address)": {
        "notice": "set new DDL_GMX address"
      },
      "setPermission(uint8,bool)": {
        "notice": "set permissions for trading pairs"
      }
    },
    "version": 1
  },
  "storageLayout": {
    "storage": [
      {
        "astId": 7,
        "contract": "contracts/AccountManager.sol:AccountManager",
        "label": "_owner",
        "offset": 0,
        "slot": "0",
        "type": "t_address"
      },
      {
        "astId": 3671,
        "contract": "contracts/AccountManager.sol:AccountManager",
        "label": "ddl_gmx",
        "offset": 0,
        "slot": "1",
        "type": "t_address"
      },
      {
        "astId": 3683,
        "contract": "contracts/AccountManager.sol:AccountManager",
        "label": "doppelgangerMap",
        "offset": 0,
        "slot": "2",
        "type": "t_mapping(t_address,t_address_payable)"
      },
      {
        "astId": 3701,
        "contract": "contracts/AccountManager.sol:AccountManager",
        "label": "keyData",
        "offset": 0,
        "slot": "3",
        "type": "t_mapping(t_uint256,t_struct(KeyInformation)3695_storage)"
      },
      {
        "astId": 3708,
        "contract": "contracts/AccountManager.sol:AccountManager",
        "label": "symbolByIndexToken",
        "offset": 0,
        "slot": "4",
        "type": "t_mapping(t_address,t_mapping(t_bool,t_enum(Symbols)7225))"
      },
      {
        "astId": 3714,
        "contract": "contracts/AccountManager.sol:AccountManager",
        "label": "indexTokenBySymbol",
        "offset": 0,
        "slot": "5",
        "type": "t_mapping(t_enum(Symbols)7225,t_address)"
      },
      {
        "astId": 3719,
        "contract": "contracts/AccountManager.sol:AccountManager",
        "label": "permissions",
        "offset": 0,
        "slot": "6",
        "type": "t_mapping(t_enum(Symbols)7225,t_bool)"
      },
      {
        "astId": 3723,
        "contract": "contracts/AccountManager.sol:AccountManager",
        "label": "indexTokenArr",
        "offset": 0,
        "slot": "7",
        "type": "t_array(t_address)8_storage"
      },
      {
        "astId": 3727,
        "contract": "contracts/AccountManager.sol:AccountManager",
        "label": "stablecoinsArray",
        "offset": 0,
        "slot": "15",
        "type": "t_array(t_address)4_storage"
      }
    ],
    "types": {
      "t_address": {
        "encoding": "inplace",
        "label": "address",
        "numberOfBytes": "20"
      },
      "t_address_payable": {
        "encoding": "inplace",
        "label": "address payable",
        "numberOfBytes": "20"
      },
      "t_array(t_address)4_storage": {
        "base": "t_address",
        "encoding": "inplace",
        "label": "address[4]",
        "numberOfBytes": "128"
      },
      "t_array(t_address)8_storage": {
        "base": "t_address",
        "encoding": "inplace",
        "label": "address[8]",
        "numberOfBytes": "256"
      },
      "t_bool": {
        "encoding": "inplace",
        "label": "bool",
        "numberOfBytes": "1"
      },
      "t_enum(Symbols)7225": {
        "encoding": "inplace",
        "label": "enum IAccountManager.Symbols",
        "numberOfBytes": "1"
      },
      "t_mapping(t_address,t_address_payable)": {
        "encoding": "mapping",
        "key": "t_address",
        "label": "mapping(address => address payable)",
        "numberOfBytes": "32",
        "value": "t_address_payable"
      },
      "t_mapping(t_address,t_mapping(t_bool,t_enum(Symbols)7225))": {
        "encoding": "mapping",
        "key": "t_address",
        "label": "mapping(address => mapping(bool => enum IAccountManager.Symbols))",
        "numberOfBytes": "32",
        "value": "t_mapping(t_bool,t_enum(Symbols)7225)"
      },
      "t_mapping(t_bool,t_enum(Symbols)7225)": {
        "encoding": "mapping",
        "key": "t_bool",
        "label": "mapping(bool => enum IAccountManager.Symbols)",
        "numberOfBytes": "32",
        "value": "t_enum(Symbols)7225"
      },
      "t_mapping(t_enum(Symbols)7225,t_address)": {
        "encoding": "mapping",
        "key": "t_enum(Symbols)7225",
        "label": "mapping(enum IAccountManager.Symbols => address)",
        "numberOfBytes": "32",
        "value": "t_address"
      },
      "t_mapping(t_enum(Symbols)7225,t_bool)": {
        "encoding": "mapping",
        "key": "t_enum(Symbols)7225",
        "label": "mapping(enum IAccountManager.Symbols => bool)",
        "numberOfBytes": "32",
        "value": "t_bool"
      },
      "t_mapping(t_uint256,t_struct(KeyInformation)3695_storage)": {
        "encoding": "mapping",
        "key": "t_uint256",
        "label": "mapping(uint256 => struct AccountManager.KeyInformation)",
        "numberOfBytes": "32",
        "value": "t_struct(KeyInformation)3695_storage"
      },
      "t_struct(KeyInformation)3695_storage": {
        "encoding": "inplace",
        "label": "struct AccountManager.KeyInformation",
        "members": [
          {
            "astId": 3686,
            "contract": "contracts/AccountManager.sol:AccountManager",
            "label": "symbol",
            "offset": 0,
            "slot": "0",
            "type": "t_enum(Symbols)7225"
          },
          {
            "astId": 3688,
            "contract": "contracts/AccountManager.sol:AccountManager",
            "label": "doppelgangerContract",
            "offset": 1,
            "slot": "0",
            "type": "t_address"
          },
          {
            "astId": 3690,
            "contract": "contracts/AccountManager.sol:AccountManager",
            "label": "isLong",
            "offset": 21,
            "slot": "0",
            "type": "t_bool"
          },
          {
            "astId": 3692,
            "contract": "contracts/AccountManager.sol:AccountManager",
            "label": "indexToken",
            "offset": 0,
            "slot": "1",
            "type": "t_address"
          },
          {
            "astId": 3694,
            "contract": "contracts/AccountManager.sol:AccountManager",
            "label": "user",
            "offset": 0,
            "slot": "2",
            "type": "t_address"
          }
        ],
        "numberOfBytes": "96"
      },
      "t_uint256": {
        "encoding": "inplace",
        "label": "uint256",
        "numberOfBytes": "32"
      }
    }
  }
}