{
  "address": "0x2CBb4B9E98928B278475f7E9C07EB34DA42a53bC",
  "abi": [
    {
      "inputs": [
        {
          "internalType": "contract IAccountManagerToken",
          "name": "_accountManagerToken",
          "type": "address"
        },
        {
          "internalType": "address",
          "name": "_router",
          "type": "address"
        },
        {
          "internalType": "contract IVault",
          "name": "_vault",
          "type": "address"
        },
        {
          "internalType": "contract IOrderBook",
          "name": "_orderBook",
          "type": "address"
        },
        {
          "internalType": "contract IPositionRouter",
          "name": "_positionRouter",
          "type": "address"
        },
        {
          "internalType": "address[8]",
          "name": "_indexTokenArr",
          "type": "address[8]"
        },
        {
          "internalType": "address[4]",
          "name": "_stablecoinsArray",
          "type": "address[4]"
        },
        {
          "internalType": "bool[8]",
          "name": "_permissions",
          "type": "bool[8]"
        }
      ],
      "stateMutability": "nonpayable",
      "type": "constructor"
    },
    {
      "anonymous": false,
      "inputs": [
        {
          "indexed": true,
          "internalType": "address",
          "name": "previousOwner",
          "type": "address"
        },
        {
          "indexed": true,
          "internalType": "address",
          "name": "newOwner",
          "type": "address"
        }
      ],
      "name": "OwnershipTransferred",
      "type": "event"
    },
    {
      "inputs": [],
      "name": "accountManagerToken",
      "outputs": [
        {
          "internalType": "contract IAccountManagerToken",
          "name": "",
          "type": "address"
        }
      ],
      "stateMutability": "view",
      "type": "function"
    },
    {
      "inputs": [
        {
          "internalType": "uint256",
          "name": "_orderIndex",
          "type": "uint256"
        }
      ],
      "name": "cancelDecreaseOrder",
      "outputs": [],
      "stateMutability": "nonpayable",
      "type": "function"
    },
    {
      "inputs": [
        {
          "internalType": "uint256",
          "name": "_orderIndex",
          "type": "uint256"
        }
      ],
      "name": "cancelIncreaseOrder",
      "outputs": [],
      "stateMutability": "nonpayable",
      "type": "function"
    },
    {
      "inputs": [
        {
          "internalType": "address",
          "name": "_indexToken",
          "type": "address"
        },
        {
          "internalType": "uint256",
          "name": "_sizeDelta",
          "type": "uint256"
        },
        {
          "internalType": "address",
          "name": "_collateralToken",
          "type": "address"
        },
        {
          "internalType": "uint256",
          "name": "_collateralDelta",
          "type": "uint256"
        },
        {
          "internalType": "bool",
          "name": "_isLong",
          "type": "bool"
        },
        {
          "internalType": "uint256",
          "name": "_triggerPrice",
          "type": "uint256"
        },
        {
          "internalType": "bool",
          "name": "_triggerAboveThreshold",
          "type": "bool"
        },
        {
          "internalType": "uint256",
          "name": "_executionFee",
          "type": "uint256"
        }
      ],
      "name": "createDecreaseOrder",
      "outputs": [],
      "stateMutability": "payable",
      "type": "function"
    },
    {
      "inputs": [
        {
          "internalType": "address[]",
          "name": "_path",
          "type": "address[]"
        },
        {
          "internalType": "address",
          "name": "_indexToken",
          "type": "address"
        },
        {
          "internalType": "uint256",
          "name": "_collateralDelta",
          "type": "uint256"
        },
        {
          "internalType": "uint256",
          "name": "_sizeDelta",
          "type": "uint256"
        },
        {
          "internalType": "bool",
          "name": "_isLong",
          "type": "bool"
        },
        {
          "internalType": "uint256",
          "name": "_acceptablePrice",
          "type": "uint256"
        },
        {
          "internalType": "uint256",
          "name": "_minOut",
          "type": "uint256"
        },
        {
          "internalType": "uint256",
          "name": "_executionFee",
          "type": "uint256"
        },
        {
          "internalType": "bool",
          "name": "_withdrawETH",
          "type": "bool"
        },
        {
          "internalType": "address",
          "name": "_callbackTarget",
          "type": "address"
        }
      ],
      "name": "createDecreasePosition",
      "outputs": [],
      "stateMutability": "payable",
      "type": "function"
    },
    {
      "inputs": [],
      "name": "createDoppelgangerGMX",
      "outputs": [],
      "stateMutability": "nonpayable",
      "type": "function"
    },
    {
      "inputs": [
        {
          "internalType": "address[]",
          "name": "_path",
          "type": "address[]"
        },
        {
          "internalType": "uint256",
          "name": "_amountIn",
          "type": "uint256"
        },
        {
          "internalType": "address",
          "name": "_indexToken",
          "type": "address"
        },
        {
          "internalType": "uint256",
          "name": "_minOut",
          "type": "uint256"
        },
        {
          "internalType": "uint256",
          "name": "_sizeDelta",
          "type": "uint256"
        },
        {
          "internalType": "address",
          "name": "_collateralToken",
          "type": "address"
        },
        {
          "internalType": "bool",
          "name": "_isLong",
          "type": "bool"
        },
        {
          "internalType": "uint256",
          "name": "_triggerPrice",
          "type": "uint256"
        },
        {
          "internalType": "bool",
          "name": "_triggerAboveThreshold",
          "type": "bool"
        },
        {
          "internalType": "uint256",
          "name": "_executionFee",
          "type": "uint256"
        },
        {
          "internalType": "bool",
          "name": "_shouldWrap",
          "type": "bool"
        }
      ],
      "name": "createIncreaseOrder",
      "outputs": [],
      "stateMutability": "payable",
      "type": "function"
    },
    {
      "inputs": [
        {
          "internalType": "address[]",
          "name": "_path",
          "type": "address[]"
        },
        {
          "internalType": "address",
          "name": "_indexToken",
          "type": "address"
        },
        {
          "internalType": "uint256",
          "name": "_amountIn",
          "type": "uint256"
        },
        {
          "internalType": "uint256",
          "name": "_minOut",
          "type": "uint256"
        },
        {
          "internalType": "uint256",
          "name": "_sizeDelta",
          "type": "uint256"
        },
        {
          "internalType": "bool",
          "name": "_isLong",
          "type": "bool"
        },
        {
          "internalType": "uint256",
          "name": "_acceptablePrice",
          "type": "uint256"
        },
        {
          "internalType": "uint256",
          "name": "_executionFee",
          "type": "uint256"
        },
        {
          "internalType": "bytes32",
          "name": "_referralCode",
          "type": "bytes32"
        },
        {
          "internalType": "address",
          "name": "_callbackTarget",
          "type": "address"
        }
      ],
      "name": "createIncreasePosition",
      "outputs": [],
      "stateMutability": "payable",
      "type": "function"
    },
    {
      "inputs": [
        {
          "internalType": "address[]",
          "name": "_path",
          "type": "address[]"
        },
        {
          "internalType": "address",
          "name": "_indexToken",
          "type": "address"
        },
        {
          "internalType": "uint256",
          "name": "_amountIn",
          "type": "uint256"
        },
        {
          "internalType": "uint256",
          "name": "_minOut",
          "type": "uint256"
        },
        {
          "internalType": "uint256",
          "name": "_sizeDelta",
          "type": "uint256"
        },
        {
          "internalType": "bool",
          "name": "_isLong",
          "type": "bool"
        },
        {
          "internalType": "uint256",
          "name": "_acceptablePrice",
          "type": "uint256"
        },
        {
          "internalType": "uint256",
          "name": "_executionFee",
          "type": "uint256"
        },
        {
          "internalType": "bytes32",
          "name": "_referralCode",
          "type": "bytes32"
        },
        {
          "internalType": "address",
          "name": "_callbackTarget",
          "type": "address"
        }
      ],
      "name": "createIncreasePositionETH",
      "outputs": [],
      "stateMutability": "payable",
      "type": "function"
    },
    {
      "inputs": [
        {
          "internalType": "uint256",
          "name": "id",
          "type": "uint256"
        }
      ],
      "name": "currentPrice",
      "outputs": [
        {
          "internalType": "uint256",
          "name": "",
          "type": "uint256"
        }
      ],
      "stateMutability": "view",
      "type": "function"
    },
    {
      "inputs": [],
      "name": "ddl_gmx",
      "outputs": [
        {
          "internalType": "address",
          "name": "",
          "type": "address"
        }
      ],
      "stateMutability": "view",
      "type": "function"
    },
    {
      "inputs": [
        {
          "internalType": "address",
          "name": "",
          "type": "address"
        }
      ],
      "name": "doppelgangerMap",
      "outputs": [
        {
          "internalType": "address payable",
          "name": "",
          "type": "address"
        }
      ],
      "stateMutability": "view",
      "type": "function"
    },
    {
      "inputs": [
        {
          "internalType": "uint256",
          "name": "id",
          "type": "uint256"
        }
      ],
      "name": "getPosition",
      "outputs": [
        {
          "internalType": "uint256",
          "name": "size",
          "type": "uint256"
        },
        {
          "internalType": "uint256",
          "name": "collateral",
          "type": "uint256"
        },
        {
          "internalType": "uint256",
          "name": "averagePrice",
          "type": "uint256"
        },
        {
          "internalType": "uint256",
          "name": "entryFundingRate",
          "type": "uint256"
        },
        {
          "internalType": "uint256",
          "name": "reserveAmount",
          "type": "uint256"
        },
        {
          "internalType": "uint256",
          "name": "realisedPnl",
          "type": "uint256"
        },
        {
          "internalType": "bool",
          "name": "isProfit",
          "type": "bool"
        },
        {
          "internalType": "uint256",
          "name": "lastIncreasedTime",
          "type": "uint256"
        }
      ],
      "stateMutability": "view",
      "type": "function"
    },
    {
      "inputs": [
        {
          "internalType": "uint256",
          "name": "id",
          "type": "uint256"
        }
      ],
      "name": "getPositionDelta",
      "outputs": [
        {
          "internalType": "bool",
          "name": "isProfit",
          "type": "bool"
        },
        {
          "internalType": "uint256",
          "name": "profit",
          "type": "uint256"
        }
      ],
      "stateMutability": "view",
      "type": "function"
    },
    {
      "inputs": [
        {
          "internalType": "uint256",
          "name": "",
          "type": "uint256"
        }
      ],
      "name": "indexTokenArr",
      "outputs": [
        {
          "internalType": "address",
          "name": "",
          "type": "address"
        }
      ],
      "stateMutability": "view",
      "type": "function"
    },
    {
      "inputs": [
        {
          "internalType": "enum IAccountManager.Symbols",
          "name": "",
          "type": "uint8"
        }
      ],
      "name": "indexTokenBySymbol",
      "outputs": [
        {
          "internalType": "address",
          "name": "",
          "type": "address"
        }
      ],
      "stateMutability": "view",
      "type": "function"
    },
    {
      "inputs": [
        {
          "internalType": "uint256",
          "name": "id",
          "type": "uint256"
        }
      ],
      "name": "isLong",
      "outputs": [
        {
          "internalType": "bool",
          "name": "",
          "type": "bool"
        }
      ],
      "stateMutability": "view",
      "type": "function"
    },
    {
      "inputs": [
        {
          "internalType": "uint256",
          "name": "",
          "type": "uint256"
        }
      ],
      "name": "keyData",
      "outputs": [
        {
          "internalType": "enum IAccountManager.Symbols",
          "name": "symbol",
          "type": "uint8"
        },
        {
          "internalType": "address",
          "name": "doppelgangerContract",
          "type": "address"
        },
        {
          "internalType": "bool",
          "name": "isLong",
          "type": "bool"
        },
        {
          "internalType": "address",
          "name": "indexToken",
          "type": "address"
        },
        {
          "internalType": "address",
          "name": "user",
          "type": "address"
        }
      ],
      "stateMutability": "view",
      "type": "function"
    },
    {
      "inputs": [],
      "name": "orderBook",
      "outputs": [
        {
          "internalType": "contract IOrderBook",
          "name": "",
          "type": "address"
        }
      ],
      "stateMutability": "view",
      "type": "function"
    },
    {
      "inputs": [],
      "name": "owner",
      "outputs": [
        {
          "internalType": "address",
          "name": "",
          "type": "address"
        }
      ],
      "stateMutability": "view",
      "type": "function"
    },
    {
      "inputs": [
        {
          "internalType": "enum IAccountManager.Symbols",
          "name": "",
          "type": "uint8"
        }
      ],
      "name": "permissions",
      "outputs": [
        {
          "internalType": "bool",
          "name": "",
          "type": "bool"
        }
      ],
      "stateMutability": "view",
      "type": "function"
    },
    {
      "inputs": [],
      "name": "positionRouter",
      "outputs": [
        {
          "internalType": "contract IPositionRouter",
          "name": "",
          "type": "address"
        }
      ],
      "stateMutability": "view",
      "type": "function"
    },
    {
      "inputs": [],
      "name": "renounceOwnership",
      "outputs": [],
      "stateMutability": "nonpayable",
      "type": "function"
    },
    {
      "inputs": [],
      "name": "router",
      "outputs": [
        {
          "internalType": "address",
          "name": "",
          "type": "address"
        }
      ],
      "stateMutability": "view",
      "type": "function"
    },
    {
      "inputs": [
        {
          "internalType": "address",
          "name": "value",
          "type": "address"
        }
      ],
      "name": "setDDL_GMX",
      "outputs": [],
      "stateMutability": "nonpayable",
      "type": "function"
    },
    {
      "inputs": [
        {
          "internalType": "enum IAccountManager.Symbols",
          "name": "symbol",
          "type": "uint8"
        },
        {
          "internalType": "bool",
          "name": "value",
          "type": "bool"
        }
      ],
      "name": "setPermission",
      "outputs": [],
      "stateMutability": "nonpayable",
      "type": "function"
    },
    {
      "inputs": [
        {
          "internalType": "uint256",
          "name": "",
          "type": "uint256"
        }
      ],
      "name": "stablecoinsArray",
      "outputs": [
        {
          "internalType": "address",
          "name": "",
          "type": "address"
        }
      ],
      "stateMutability": "view",
      "type": "function"
    },
    {
      "inputs": [
        {
          "internalType": "address",
          "name": "",
          "type": "address"
        },
        {
          "internalType": "bool",
          "name": "",
          "type": "bool"
        }
      ],
      "name": "symbolByIndexToken",
      "outputs": [
        {
          "internalType": "enum IAccountManager.Symbols",
          "name": "",
          "type": "uint8"
        }
      ],
      "stateMutability": "view",
      "type": "function"
    },
    {
      "inputs": [
        {
          "internalType": "address",
          "name": "newOwner",
          "type": "address"
        }
      ],
      "name": "transferOwnership",
      "outputs": [],
      "stateMutability": "nonpayable",
      "type": "function"
    },
    {
      "inputs": [
        {
          "internalType": "uint256",
          "name": "_orderIndex",
          "type": "uint256"
        },
        {
          "internalType": "uint256",
          "name": "_collateralDelta",
          "type": "uint256"
        },
        {
          "internalType": "uint256",
          "name": "_sizeDelta",
          "type": "uint256"
        },
        {
          "internalType": "uint256",
          "name": "_triggerPrice",
          "type": "uint256"
        },
        {
          "internalType": "bool",
          "name": "_triggerAboveThreshold",
          "type": "bool"
        }
      ],
      "name": "updateDecreaseOrder",
      "outputs": [],
      "stateMutability": "nonpayable",
      "type": "function"
    },
    {
      "inputs": [
        {
          "internalType": "uint256",
          "name": "_orderIndex",
          "type": "uint256"
        },
        {
          "internalType": "uint256",
          "name": "_sizeDelta",
          "type": "uint256"
        },
        {
          "internalType": "uint256",
          "name": "_triggerPrice",
          "type": "uint256"
        },
        {
          "internalType": "bool",
          "name": "_triggerAboveThreshold",
          "type": "bool"
        }
      ],
      "name": "updateIncreaseOrder",
      "outputs": [],
      "stateMutability": "nonpayable",
      "type": "function"
    },
    {
      "inputs": [],
      "name": "vault",
      "outputs": [
        {
          "internalType": "contract IVault",
          "name": "",
          "type": "address"
        }
      ],
      "stateMutability": "view",
      "type": "function"
    },
    {
      "inputs": [
        {
          "internalType": "uint256",
          "name": "id",
          "type": "uint256"
        },
        {
          "internalType": "address",
          "name": "tokenAddress",
          "type": "address"
        }
      ],
      "name": "withdrawLiquidity",
      "outputs": [],
      "stateMutability": "nonpayable",
      "type": "function"
    },
    {
      "inputs": [
        {
          "internalType": "uint256",
          "name": "id",
          "type": "uint256"
        }
      ],
      "name": "withdrawLiquidityETH",
      "outputs": [],
      "stateMutability": "nonpayable",
      "type": "function"
    }
  ],
  "transactionHash": "0xf83d7c304b9c661bfcec9978a6431905d023d235b32bc9ae7aea08cb573ec193",
  "args": [
    "0x9efA34A3C8978A2FA768FE17AAC9FcC56642d0Ab",
    "0xaBBc5F99639c9B6bCb58544ddf04EFA6802F4064",
    "0x489ee077994B6658eAfA855C308275EAd8097C4A",
    "0x09f77e8a13de9a35a7231028187e9fd5db8a2acb",
    "0xb87a436B93fFE9D75c5cFA7bAcFff96430b09868",
    [
      "0x82aF49447D8a07e3bd95BD0d56f35241523fBab1",
      "0x2f2a2543B76A4166549F7aaB2e75Bef0aefC5B0f",
      "0xf97f4df75117a78c1A5a0DBb814Af92458539FB4",
      "0xFa7F8980b0f1E64A2062791cc3b0871572f1F7f0",
      "0x82aF49447D8a07e3bd95BD0d56f35241523fBab1",
      "0x2f2a2543B76A4166549F7aaB2e75Bef0aefC5B0f",
      "0xf97f4df75117a78c1A5a0DBb814Af92458539FB4",
      "0xFa7F8980b0f1E64A2062791cc3b0871572f1F7f0"
    ],
    [
      "0xFF970A61A04b1cA14834A43f5dE4533eBDDB5CC8",
      "0xFd086bC7CD5C481DCC9C85ebE478A1C0b69FCbb9",
      "0xDA10009cBd5D07dd0CeCc66161FC93D7c9000da1",
      "0x17FC002b466eEc40DaE837Fc4bE5c67993ddBd6F"
    ],
    [
      true,
      true,
      true,
      true,
      true,
      true,
      true,
      true
    ]
  ],
  "numDeployments": 1,
  "solcInputHash": "9739e05bcb8aa80dd0020067fbe1fe18",
  "bytecode": "0x6101206040523480156200001257600080fd5b5060405162005a0f38038062005a0f83398101604081905262000035916200047a565b620000403362000268565b6001600160601b0319606089811b821660805288811b821660a05287811b821660c05286811b821660e05285901b1661010052620000826007846008620002b8565b5062000092600f83600462000315565b5060005b60088110156200025957806007811115620000b557620000b5620005ec565b60046000868460088110620000ce57620000ce62000602565b60200201516001600160a01b03166001600160a01b031681526020019081526020016000206000600484106200010657600062000109565b60015b151581526020810191909152604001600020805460ff19166001836007811115620001385762000138620005ec565b021790555083816008811062000152576200015262000602565b602002015160056000836007811115620001705762000170620005ec565b6007811115620001845762000184620005ec565b6007811115620001985762000198620005ec565b815260200190815260200160002060006101000a8154816001600160a01b0302191690836001600160a01b03160217905550818160088110620001df57620001df62000602565b602002015160066000836007811115620001fd57620001fd620005ec565b6007811115620002115762000211620005ec565b6007811115620002255762000225620005ec565b81526020810191909152604001600020805460ff1916911515919091179055806200025081620005c2565b91505062000096565b50505050505050505062000631565b600080546001600160a01b038381166001600160a01b0319831681178455604051919092169283917f8be0079c531659141344cd1fd0a4f28419497f9722a3daafe3b4186f6b6457e09190a35050565b826008810192821562000303579160200282015b828111156200030357825182546001600160a01b0319166001600160a01b03909116178255602090920191600190910190620002cc565b50620003119291506200035f565b5090565b82600481019282156200030357916020028201828111156200030357825182546001600160a01b0319166001600160a01b03909116178255602090920191600190910190620002cc565b5b8082111562000311576000815560010162000360565b600082601f8301126200038857600080fd5b604051608081016001600160401b0381118282101715620003b957634e487b7160e01b600052604160045260246000fd5b604052808360808101861015620003cf57600080fd5b60005b6004811015620003ff578151620003e98162000618565b83526020928301929190910190600101620003d2565b509195945050505050565b600082601f8301126200041c57600080fd5b620004266200058a565b808385610100860111156200043a57600080fd5b6000805b60088110156200046e578251801515811462000458578283fd5b855260209485019492909201916001016200043e565b50919695505050505050565b600080600080600080600080610320898b0312156200049857600080fd5b8851620004a58162000618565b809850506020808a0151620004ba8162000618565b60408b0151909850620004cd8162000618565b60608b0151909750620004e08162000618565b60808b0151909650620004f38162000618565b945060bf8a018b136200050557600080fd5b6200050f6200058a565b8060a08c016101a08d018e8111156200052757600080fd5b60005b600881101562000554578251620005418162000618565b855293850193918501916001016200052a565b50829750620005648f8262000376565b965050505050506200057b8a6102208b016200040a565b90509295985092959890939650565b60405161010081016001600160401b0381118282101715620005bc57634e487b7160e01b600052604160045260246000fd5b60405290565b6000600019821415620005e557634e487b7160e01b600052601160045260246000fd5b5060010190565b634e487b7160e01b600052602160045260246000fd5b634e487b7160e01b600052603260045260246000fd5b6001600160a01b03811681146200062e57600080fd5b50565b60805160601c60a05160601c60c05160601c60e05160601c6101005160601c615321620006ee600039600081816103930152610d830152600081816104b001528181610dc5015281816111000152818161164c0152818161184f01526119a601526000818161083a015281816109a3015281816114f1015281816115aa0152611cfe0152600081816108040152610da401526000818161069401528181610c1801528181610cc601528181610dec0152610fe201526153216000f3fe608060405260043610620002225760003560e01c80638da5cb5b1162000123578063b7d3211011620000ad578063eb02c3011162000078578063eb02c3011462000751578063f2ae372f14620007b4578063f2fde38b14620007cb578063f887ea4014620007f0578063fbfa77cf146200082657600080fd5b8063b7d321101462000646578063be1528611462000680578063c7960d3514620006b6578063e6e6dd2f14620006db57600080fd5b8063a226b48311620000ee578063a226b4831462000595578063a397ea5414620005d0578063a4cf54a214620005f5578063b142a4b0146200062f57600080fd5b80638da5cb5b14620005065780639983ee1b14620005265780639e71527d146200054b5780639e71b0f0146200057057600080fd5b806355c32a3c11620001b157806368fc0c9a116200017c57806368fc0c9a14620004115780636c5e2fd91462000436578063715018a61462000484578063776af5ba146200049c5780637a3c4c1714620004d257600080fd5b806355c32a3c146200036857806361ef161f146200037f5780636476b83714620003b557806367e92f9114620003fa57600080fd5b806332d53b1711620001f257806332d53b1714620002d757806335180f5f1462000314578063449bd2cc146200032b57806347e0bbd0146200034357600080fd5b806230e1b514620002275780630cd790f714620002695780632d6a9923146200028b5780633264fee514620002b2575b600080fd5b3480156200023457600080fd5b506200024c620002463660046200279c565b6200085c565b6040516001600160a01b0390911681526020015b60405180910390f35b3480156200027657600080fd5b506001546200024c906001600160a01b031681565b3480156200029857600080fd5b50620002b0620002aa3660046200279c565b6200087d565b005b348015620002bf57600080fd5b50620002b0620002d13660046200229b565b6200095c565b348015620002e457600080fd5b50620002fc620002f63660046200279c565b62000988565b60408051921515835260208301919091520162000260565b620002b062000325366004620024c6565b62000acc565b3480156200033857600080fd5b50620002b062000b98565b3480156200035057600080fd5b50620002b0620003623660046200279c565b62001090565b620002b062000379366004620023a7565b62001222565b3480156200038c57600080fd5b506200024c7f000000000000000000000000000000000000000000000000000000000000000081565b348015620003c257600080fd5b50620003e9620003d43660046200275f565b60066020526000908152604090205460ff1681565b604051901515815260200162000260565b620002b06200040b3660046200258e565b62001311565b3480156200041e57600080fd5b50620002b062000430366004620027d0565b620013a9565b3480156200044357600080fd5b506200047562000455366004620022c2565b600460209081526000928352604080842090915290825290205460ff1681565b60405162000260919062002bc5565b3480156200049157600080fd5b50620002b062001488565b348015620004a957600080fd5b506200024c7f000000000000000000000000000000000000000000000000000000000000000081565b348015620004df57600080fd5b50620004f7620004f13660046200279c565b620014a0565b60405190815260200162000260565b3480156200051357600080fd5b506000546001600160a01b03166200024c565b3480156200053357600080fd5b50620002b062000545366004620027f8565b620015dc565b3480156200055857600080fd5b50620002b06200056a3660046200277d565b62001784565b3480156200057d57600080fd5b50620002b06200058f3660046200279c565b620017df565b348015620005a257600080fd5b50620003e9620005b43660046200279c565b600090815260036020526040902054600160a81b900460ff1690565b348015620005dd57600080fd5b50620002b0620005ef3660046200283c565b62001936565b3480156200060257600080fd5b506200024c620006143660046200229b565b6002602052600090815260409020546001600160a01b031681565b620002b06200064036600462002638565b62001afb565b3480156200065357600080fd5b506200024c620006653660046200275f565b6005602052600090815260409020546001600160a01b031681565b3480156200068d57600080fd5b506200024c7f000000000000000000000000000000000000000000000000000000000000000081565b348015620006c357600080fd5b506200024c620006d53660046200279c565b62001cc6565b348015620006e857600080fd5b506200073e620006fa3660046200279c565b60036020526000908152604090208054600182015460029092015460ff808316936001600160a01b036101008504811694600160a81b900490921692908216911685565b6040516200026095949392919062002bd5565b3480156200075e57600080fd5b5062000776620007703660046200279c565b62001cd7565b604080519889526020890197909752958701949094526060860192909252608085015260a0840152151560c083015260e08201526101000162000260565b620002b0620007c53660046200258e565b62001e4b565b348015620007d857600080fd5b50620002b0620007ea3660046200229b565b62001fa5565b348015620007fd57600080fd5b506200024c7f000000000000000000000000000000000000000000000000000000000000000081565b3480156200083357600080fd5b506200024c7f000000000000000000000000000000000000000000000000000000000000000081565b600f81600481106200086d57600080fd5b01546001600160a01b0316905081565b336000908152600260205260409020546001600160a01b0316620008be5760405162461bcd60e51b8152600401620008b59062002c16565b60405180910390fd5b33600081815260026020908152604080832054858452600390925291829020600181015490549251632583ee6f60e01b815260048101949094526001600160a01b039081166024850152600160a81b90920460ff16151560448401521690632583ee6f90606401600060405180830381600087803b1580156200094057600080fd5b505af115801562000955573d6000803e3d6000fd5b5050505050565b6200096662002024565b600180546001600160a01b0319166001600160a01b0392909216919091179055565b60008181526003602052604081205481906001600160a01b037f00000000000000000000000000000000000000000000000000000000000000008116916345a6f370916101008204169060ff600160a81b90910416620009f457600f546001600160a01b031662000a10565b6000868152600360205260409020600101546001600160a01b03165b6000878152600360205260409081902060018101549054915160e086901b6001600160e01b03191681526001600160a01b0394851660048201529284166024840152929092166044820152600160a81b90910460ff1615156064820152608401604080518083038186803b15801562000a8857600080fd5b505afa15801562000a9d573d6000803e3d6000fd5b505050506040513d601f19601f8201168201806040525081019062000ac391906200272e565b91509150915091565b336000908152600260205260409020546001600160a01b031662000b045760405162461bcd60e51b8152600401620008b59062002c16565b3360008181526002602052604090819020549051636f7e879960e01b81526001600160a01b0390911691636f7e879991349162000b58918f908f908f908f908f908f908f908f908f908f90600401620029a6565b6000604051808303818588803b15801562000b7257600080fd5b505af115801562000b87573d6000803e3d6000fd5b505050505050505050505050505050565b336000908152600260205260409020546001600160a01b03161562000c145760405162461bcd60e51b815260206004820152602b60248201527f446f7070656c47616e67657220666f722074686973206164647265737320616c60448201526a1c9958591e48195e1a5cdd60aa1b6064820152608401620008b5565b60007f00000000000000000000000000000000000000000000000000000000000000006001600160a01b03166317d70f7c6040518163ffffffff1660e01b8152600401602060405180830381600087803b15801562000c7257600080fd5b505af115801562000c87573d6000803e3d6000fd5b505050506040513d601f19601f8201168201806040525081019062000cad9190620027b6565b60405163fd0d101f60e01b8152600860048201529091507f00000000000000000000000000000000000000000000000000000000000000006001600160a01b03169063fd0d101f90602401600060405180830381600087803b15801562000d1357600080fd5b505af115801562000d28573d6000803e3d6000fd5b5050505062000d366200218b565b60005b600881101562000d7e5762000d4f818462002c4d565b82826008811062000d645762000d6462002cb2565b60200201528062000d758162002c68565b91505062000d39565b5060007f00000000000000000000000000000000000000000000000000000000000000007f00000000000000000000000000000000000000000000000000000000000000007f0000000000000000000000000000000000000000000000000000000000000000846007600f307f0000000000000000000000000000000000000000000000000000000000000000600160009054906101000a90046001600160a01b031660405162000e2f90620021aa565b62000e439998979695949392919062002b14565b604051809103906000f08015801562000e60573d6000803e3d6000fd5b5033600090815260026020526040812080546001600160a01b0319166001600160a01b0384161790559091505b60088110156200108a576040518060a0016040528082600781111562000eb75762000eb762002c9c565b600781111562000ecb5762000ecb62002c9c565b8152602001836001600160a01b031681526020016004831062000ef057600062000ef3565b60015b151581526020016007836008811062000f105762000f1062002cb2565b01546001600160a01b03168152336020909101526003600062000f34848862002c4d565b8152602081019190915260400160002081518154829060ff1916600183600781111562000f655762000f6562002c9c565b02179055506020820151815460408401511515600160a81b0260ff60a81b196001600160a01b039384166101000216610100600160b01b03199092169190911717825560608301516001830180549183166001600160a01b03199283161790556080909301516002909201805492821692909316919091179091557f0000000000000000000000000000000000000000000000000000000000000000166340c10f193362001014848862002c4d565b6040516001600160e01b031960e085901b1681526001600160a01b0390921660048301526024820152604401600060405180830381600087803b1580156200105b57600080fd5b505af115801562001070573d6000803e3d6000fd5b505050508080620010819062002c68565b91505062000e8d565b50505050565b336000908152600260205260409020546001600160a01b0316620010c85760405162461bcd60e51b8152600401620008b59062002c16565b3360009081526002602052604080822054905163d3bab1d160e01b81526001600160a01b0391821660048201526024810184905282917f0000000000000000000000000000000000000000000000000000000000000000169063d3bab1d1906044016101206040518083038186803b1580156200114457600080fd5b505afa15801562001159573d6000803e3d6000fd5b505050506040513d601f19601f820116820180604052508101906200117f919062002300565b50503360008181526002602052604090819020549051635997465b60e11b815260048101929092526001600160a01b0380871660248401528415156044840152606483018d9052959a5092985093909116955063b32e8cb694505060849091019150620011e99050565b600060405180830381600087803b1580156200120457600080fd5b505af115801562001219573d6000803e3d6000fd5b50505050505050565b336000908152600260205260409020546001600160a01b03166200125a5760405162461bcd60e51b8152600401620008b59062002c16565b336000818152600260205260409081902054905163c8fddadb60e01b815260048101929092526001600160a01b038a81166024840152604483018a905288811660648401526084830188905286151560a484015260c4830186905284151560e48401526101048301849052169063c8fddadb903490610124016000604051808303818588803b158015620012ed57600080fd5b505af115801562001302573d6000803e3d6000fd5b50505050505050505050505050565b336000908152600260205260409020546001600160a01b0316620013495760405162461bcd60e51b8152600401620008b59062002c16565b62001355898662002080565b336000818152600260205260409081902054905163da91dfd560e01b81526001600160a01b039091169163da91dfd591349162000b58918f908f908f908f908f908f908f908f908f908f9060040162002a1e565b336000908152600260205260409020546001600160a01b0316620013e15760405162461bcd60e51b8152600401620008b59062002c16565b33600081815260026020908152604080832054868452600390925291829020600181015490549251633436f13960e21b815260048101949094526001600160a01b039081166024850152600160a81b90920460ff16151560448401528382166064840152169063d0dbc4e490608401600060405180830381600087803b1580156200146b57600080fd5b505af115801562001480573d6000803e3d6000fd5b505050505050565b6200149262002024565b6200149e60006200213b565b565b600081815260036020526040812054600160a81b900460ff1615620015785760008281526003602052604090819020600101549051637092736960e11b81526001600160a01b0391821660048201527f00000000000000000000000000000000000000000000000000000000000000009091169063e124e6d2906024015b60206040518083038186803b1580156200153757600080fd5b505afa1580156200154c573d6000803e3d6000fd5b505050506040513d601f19601f82011682018060405250810190620015729190620027b6565b92915050565b600082815260036020526040908190206001015490516340d3096b60e11b81526001600160a01b0391821660048201527f0000000000000000000000000000000000000000000000000000000000000000909116906381a612d6906024016200151e565b336000908152600260205260409020546001600160a01b0316620016145760405162461bcd60e51b8152600401620008b59062002c16565b3360009081526002602052604080822054905163d3bab1d160e01b81526001600160a01b0391821660048201526024810187905282917f0000000000000000000000000000000000000000000000000000000000000000169063d3bab1d1906044016101206040518083038186803b1580156200169057600080fd5b505afa158015620016a5573d6000803e3d6000fd5b505050506040513d601f19601f82011682018060405250810190620016cb919062002300565b5050509550509450505050620016e2828262002080565b336000818152600260205260409081902054905163fc86da8960e01b815260048101929092526001600160a01b0384811660248401528315156044840152606483018990526084830188905260a4830187905285151560c4840152169063fc86da899060e401600060405180830381600087803b1580156200176357600080fd5b505af115801562001778573d6000803e3d6000fd5b50505050505050505050565b6200178e62002024565b8060066000846007811115620017a857620017a862002c9c565b6007811115620017bc57620017bc62002c9c565b81526020810191909152604001600020805460ff19169115159190911790555050565b336000908152600260205260409020546001600160a01b0316620018175760405162461bcd60e51b8152600401620008b59062002c16565b33600090815260026020526040808220549051630130197760e11b81526001600160a01b0391821660048201526024810184905282917f0000000000000000000000000000000000000000000000000000000000000000169063026032ee906044016101006040518083038186803b1580156200189357600080fd5b505afa158015620018a8573d6000803e3d6000fd5b505050506040513d601f19601f82011682018060405250810190620018ce919062002435565b50503360008181526002602052604090819020549051633d5cab3b60e21b815260048101929092526001600160a01b0380871660248401528415156044840152606483018c905295995092975093909116945063f572acec93505060849091019050620011e9565b336000908152600260205260409020546001600160a01b03166200196e5760405162461bcd60e51b8152600401620008b59062002c16565b33600090815260026020526040808220549051630130197760e11b81526001600160a01b0391821660048201526024810188905282917f0000000000000000000000000000000000000000000000000000000000000000169063026032ee906044016101006040518083038186803b158015620019ea57600080fd5b505afa158015620019ff573d6000803e3d6000fd5b505050506040513d601f19601f8201168201806040525081019062001a25919062002435565b505033600081815260026020526040908190205490516345b5f94f60e01b81529599509297506001600160a01b039290921695506345b5f94f945062001abe9391925087918791508d908d908d908d908d906004016001600160a01b03988916815296909716602087015293151560408601526060850192909252608084015260a083015260c082015290151560e08201526101000190565b600060405180830381600087803b15801562001ad957600080fd5b505af115801562001aee573d6000803e3d6000fd5b5050505050505050505050565b336000908152600260205260409020546001600160a01b031662001b335760405162461bcd60e51b8152600401620008b59062002c16565b62001b3f898662002080565b8062001c08578a60008151811062001b5b5762001b5b62002cb2565b60209081029190910181015133600081815260029093526040928390205492516323b872dd60e01b815260048101919091526001600160a01b039283166024820152604481018d90529116906323b872dd90606401602060405180830381600087803b15801562001bcb57600080fd5b505af115801562001be0573d6000803e3d6000fd5b505050506040513d601f19601f8201168201806040525081019062001c0691906200270e565b505b60026000336001600160a01b03166001600160a01b0316815260200190815260200160002060009054906101000a90046001600160a01b03166001600160a01b031663de26fdcd34338e8e8e8e8e8e8e8e8e8e8e6040518e63ffffffff1660e01b815260040162001c859c9b9a9998979695949392919062002a94565b6000604051808303818588803b15801562001c9f57600080fd5b505af115801562001cb4573d6000803e3d6000fd5b50505050505050505050505050505050565b600781600881106200086d57600080fd5b60008181526003602052604081205481908190819081908190819081906001600160a01b037f0000000000000000000000000000000000000000000000000000000000000000811691634a3f088d916101008204169060ff600160a81b9091041662001d4f57600f546001600160a01b031662001d6b565b60008c8152600360205260409020600101546001600160a01b03165b60008d8152600360205260409081902060018101549054915160e086901b6001600160e01b03191681526001600160a01b0394851660048201529284166024840152929092166044820152600160a81b90910460ff16151560648201526084016101006040518083038186803b15801562001de557600080fd5b505afa15801562001dfa573d6000803e3d6000fd5b505050506040513d601f19601f8201168201806040525081019062001e2091906200288c565b809850819950829a50839b50849c50859d50869e50879f505050505050505050919395975091939597565b336000908152600260205260409020546001600160a01b031662001e835760405162461bcd60e51b8152600401620008b59062002c16565b62001e8f898662002080565b8960008151811062001ea55762001ea562002cb2565b60209081029190910181015133600081815260029093526040928390205492516323b872dd60e01b815260048101919091526001600160a01b039283166024820152604481018b90529116906323b872dd90606401602060405180830381600087803b15801562001f1557600080fd5b505af115801562001f2a573d6000803e3d6000fd5b505050506040513d601f19601f8201168201806040525081019062001f5091906200270e565b503360008181526002602052604090819020549051634fbb66c360e01b81526001600160a01b0390911691634fbb66c391349162000b58918f908f908f908f908f908f908f908f908f908f9060040162002a1e565b62001faf62002024565b6001600160a01b038116620020165760405162461bcd60e51b815260206004820152602660248201527f4f776e61626c653a206e6577206f776e657220697320746865207a65726f206160448201526564647265737360d01b6064820152608401620008b5565b62002021816200213b565b50565b6000546001600160a01b031633146200149e5760405162461bcd60e51b815260206004820181905260248201527f4f776e61626c653a2063616c6c6572206973206e6f7420746865206f776e65726044820152606401620008b5565b6001600160a01b038216600090815260046020908152604080832084151584529091528120546006919060ff166007811115620020c157620020c162002c9c565b6007811115620020d557620020d562002c9c565b815260208101919091526040016000205460ff16620021375760405162461bcd60e51b815260206004820152601f60248201527f74726164696e67206f6e207468697320706169722069732073746f70706564006044820152606401620008b5565b5050565b600080546001600160a01b038381166001600160a01b0319831681178455604051919092169283917f8be0079c531659141344cd1fd0a4f28419497f9722a3daafe3b4186f6b6457e09190a35050565b6040518061010001604052806008906020820280368337509192915050565b6125e88062002d0483390190565b8035620021c58162002cde565b919050565b600082601f830112620021dc57600080fd5b8135602067ffffffffffffffff80831115620021fc57620021fc62002cc8565b8260051b604051601f19603f8301168101818110848211171562002224576200222462002cc8565b604052848152838101925086840182880185018910156200224457600080fd5b600092505b8583101562002272576200225d81620021b8565b84529284019260019290920191840162002249565b50979650505050505050565b8035620021c58162002cf4565b803560088110620021c557600080fd5b600060208284031215620022ae57600080fd5b8135620022bb8162002cde565b9392505050565b60008060408385031215620022d657600080fd5b8235620022e38162002cde565b91506020830135620022f58162002cf4565b809150509250929050565b60008060008060008060008060006101208a8c0312156200232057600080fd5b89516200232d8162002cde565b60208b015160408c0151919a509850620023478162002cde565b60608b01519097506200235a8162002cde565b60808b015160a08c01519197509550620023748162002cf4565b60c08b015160e08c015191955093506200238e8162002cf4565b809250506101008a015190509295985092959850929598565b600080600080600080600080610100898b031215620023c557600080fd5b8835620023d28162002cde565b9750602089013596506040890135620023eb8162002cde565b9550606089013594506080890135620024048162002cf4565b935060a0890135925060c08901356200241d8162002cf4565b8092505060e089013590509295985092959890939650565b600080600080600080600080610100898b0312156200245357600080fd5b8851620024608162002cde565b60208a015160408b015191995097506200247a8162002cde565b60608a015160808b01519197509550620024948162002cf4565b60a08a015160c08b01519195509350620024ae8162002cf4565b8092505060e089015190509295985092959890939650565b6000806000806000806000806000806101408b8d031215620024e757600080fd5b8a3567ffffffffffffffff811115620024ff57600080fd5b6200250d8d828e01620021ca565b9a505060208b0135620025208162002cde565b985060408b0135975060608b0135965060808b0135620025408162002cf4565b955060a08b0135945060c08b0135935060e08b013592506101008b0135620025688162002cf4565b91506101208b01356200257b8162002cde565b809150509295989b9194979a5092959850565b6000806000806000806000806000806101408b8d031215620025af57600080fd5b8a3567ffffffffffffffff811115620025c757600080fd5b620025d58d828e01620021ca565b9a505060208b0135620025e88162002cde565b985060408b0135975060608b0135965060808b0135955060a08b01356200260f8162002cf4565b945060c08b0135935060e08b013592506101008b013591506101208b01356200257b8162002cde565b60008060008060008060008060008060006101608c8e0312156200265b57600080fd5b8b3567ffffffffffffffff8111156200267357600080fd5b620026818e828f01620021ca565b9b505060208c0135995060408c01356200269b8162002cde565b985060608c0135975060808c0135965060a08c0135620026bb8162002cde565b9550620026cb60c08d016200227e565b945060e08c01359350620026e36101008d016200227e565b92506101208c01359150620026fc6101408d016200227e565b90509295989b509295989b9093969950565b6000602082840312156200272157600080fd5b8151620022bb8162002cf4565b600080604083850312156200274257600080fd5b82516200274f8162002cf4565b6020939093015192949293505050565b6000602082840312156200277257600080fd5b620022bb826200228b565b600080604083850312156200279157600080fd5b620022e3836200228b565b600060208284031215620027af57600080fd5b5035919050565b600060208284031215620027c957600080fd5b5051919050565b60008060408385031215620027e457600080fd5b823591506020830135620022f58162002cde565b600080600080608085870312156200280f57600080fd5b8435935060208501359250604085013591506060850135620028318162002cf4565b939692955090935050565b600080600080600060a086880312156200285557600080fd5b8535945060208601359350604086013592506060860135915060808601356200287e8162002cf4565b809150509295509295909350565b600080600080600080600080610100898b031215620028aa57600080fd5b885197506020890151965060408901519550606089015194506080890151935060a0890151925060c0890151620024ae8162002cf4565b8060005b60048110156200108a5781546001600160a01b0316845260209093019260019182019101620028e5565b8060005b60088110156200108a5781546001600160a01b031684526020909301926001918201910162002913565b600081518084526020808501945080840160005b83811015620029785781516001600160a01b03168752958201959082019060010162002951565b509495945050505050565b60088110620029a257634e487b7160e01b600052602160045260246000fd5b9052565b6001600160a01b038c8116825261016060208301819052600091620029ce8483018f6200293d565b9c81166040850152606084019b909b525050608081019790975294151560a087015260c086019390935260e085019190915261010084015215156101208301529091166101409091015292915050565b6001600160a01b038c811682526101606020830181905260009162002a468483018f6200293d565b9c81166040850152606084019b909b525050608081019790975260a087019590955292151560c086015260e08501919091526101008401526101208301529091166101409091015292915050565b600060018060a01b03808f168352610180602084015262002aba61018084018f6200293d565b604084019d909d529a8b16606083015250608081019890985260a08801969096529390961660c086015290151560e08501526101008401529215156101208301526101408201929092529015156101609091015292915050565b6001600160a01b038a81168252898116602080840191909152908916604083015261034082019060608301908960005b600881101562002b635781518452928201929082019060010162002b44565b5050505062002b776101608301886200290f565b62002b87610260830187620028e1565b6001600160a01b0385166102e08301526001600160a01b0384166103008301526001600160a01b0383166103208301529a9950505050505050505050565b6020810162001572828462002983565b60a0810162002be5828862002983565b6001600160a01b03958616602083015293151560408201529184166060830152909216608090920191909152919050565b6020808252601b908201527f796f7520646f6e2774206861766520446f7070656c67616e6765720000000000604082015260600190565b6000821982111562002c635762002c6362002c86565b500190565b600060001982141562002c7f5762002c7f62002c86565b5060010190565b634e487b7160e01b600052601160045260246000fd5b634e487b7160e01b600052602160045260246000fd5b634e487b7160e01b600052603260045260246000fd5b634e487b7160e01b600052604160045260246000fd5b6001600160a01b03811681146200202157600080fd5b80151581146200202157600080fdfe60a0604052600e805460ff60a01b191690553480156200001e57600080fd5b50604051620025e8380380620025e883398101604081905262000041916200036c565b600080546001600160a01b03808c166001600160a01b03199283161783556001600160601b031960608c901b1660805260018054918b16919092161790555b6008811015620002125760048110156200013357858160088110620000a957620000a9620004e1565b602002015160058260048110620000c457620000c4620004e1565b0180546001600160a01b0319166001600160a01b0392909216919091179055848160048110620000f857620000f8620004e1565b602002015160098260048110620001135762000113620004e1565b0180546001600160a01b0319166001600160a01b03929092169190911790555b868160088110620001485762000148620004e1565b602002015160026000888460088110620001665762000166620004e1565b60200201516001600160a01b03166001600160a01b031681526020019081526020016000206000600484106200019e576000620001a1565b60015b15151515815260200190815260200160002081905550600160036000898460088110620001d257620001d2620004e1565b6020020151815260200190815260200160002060006101000a81548160ff02191690831515021790555080806200020990620004b7565b91505062000080565b50600480546001600160a01b03199081166001600160a01b0394851617909155600d8054821694841694909417909355600e805490931691161790555062000510945050505050565b80516200026881620004f7565b919050565b600082601f8301126200027f57600080fd5b604051608081016001600160401b0381118282101715620002b057634e487b7160e01b600052604160045260246000fd5b604052808360808101861015620002c657600080fd5b60005b6004811015620002f6578151620002e081620004f7565b83526020928301929190910190600101620002c9565b509195945050505050565b600082601f8301126200031357600080fd5b6200031d6200047f565b808385610100860111156200033157600080fd5b60005b6008811015620003615781516200034b81620004f7565b8452602093840193919091019060010162000334565b509095945050505050565b60008060008060008060008060006103408a8c0312156200038c57600080fd5b89516200039981620004f7565b60208b0151909950620003ac81620004f7565b60408b0151909850620003bf81620004f7565b9650607f8a018b13620003d157600080fd5b620003db6200047f565b8060608c016101608d018e811115620003f357600080fd5b60005b600881101562000417578251855260209485019490920191600101620003f6565b50829950620004278f8262000301565b9850505050506200043d8b6102608c016200026d565b93506200044e6102e08b016200025b565b92506200045f6103008b016200025b565b9150620004706103208b016200025b565b90509295985092959850929598565b60405161010081016001600160401b0381118282101715620004b157634e487b7160e01b600052604160045260246000fd5b60405290565b6000600019821415620004da57634e487b7160e01b600052601160045260246000fd5b5060010190565b634e487b7160e01b600052603260045260246000fd5b6001600160a01b03811681146200050d57600080fd5b50565b60805160601c61209d6200054b6000396000818161042601528181610b5301528181610bd101528181610d120152610e64015261209d6000f3fe6080604052600436106101435760003560e01c8063776af5ba116100b6578063d6ef60131161006f578063d6ef6013146103ae578063da91dfd5146103ce578063de26fdcd146103e1578063f572acec146103f4578063f887ea4014610414578063fc86da891461044857600080fd5b8063776af5ba146102fb57806391c2c4691461031b578063b32e8cb61461033b578063b7511c5b1461035b578063c8fddadb1461037b578063d0dbc4e41461038e57600080fd5b80632583ee6f116101085780632583ee6f1461025257806328f371aa1461027457806345b5f94f146102955780634fbb66c3146102b557806361ef161f146102c85780636f7e8799146102e857600080fd5b806230e1b51461014f57806306b278cb1461018c5780630cb6aaf1146101ac5780630cd790f7146101ec57806313a51b2e1461020c57600080fd5b3661014a57005b600080fd5b34801561015b57600080fd5b5061016f61016a366004611d9f565b610468565b6040516001600160a01b0390911681526020015b60405180910390f35b34801561019857600080fd5b5060045461016f906001600160a01b031681565b3480156101b857600080fd5b506101dc6101c7366004611d9f565b60036020526000908152604090205460ff1681565b6040519015158152602001610183565b3480156101f857600080fd5b50600e5461016f906001600160a01b031681565b34801561021857600080fd5b50610244610227366004611c25565b600260209081526000928352604080842090915290825290205481565b604051908152602001610183565b34801561025e57600080fd5b5061027261026d366004611748565b610488565b005b34801561028057600080fd5b50600e546101dc90600160a01b900460ff1681565b3480156102a157600080fd5b506102726102b03660046118bb565b61056b565b6102726102c3366004611aa0565b6105fb565b3480156102d457600080fd5b5060005461016f906001600160a01b031681565b6102726102f63660046119d8565b610689565b34801561030757600080fd5b5060015461016f906001600160a01b031681565b34801561032757600080fd5b50600d5461016f906001600160a01b031681565b34801561034757600080fd5b506102726103563660046117ef565b610876565b34801561036757600080fd5b50610272610376366004611d9f565b610b31565b610272610389366004611940565b610f0a565b34801561039a57600080fd5b506102726103a9366004611793565b610fae565b3480156103ba57600080fd5b5061016f6103c9366004611d9f565b61114d565b6102726103dc366004611aa0565b61115d565b6102726103ef366004611b4f565b6111aa565b34801561040057600080fd5b5061027261040f3660046117ef565b6111fb565b34801561042057600080fd5b5061016f7f000000000000000000000000000000000000000000000000000000000000000081565b34801561045457600080fd5b50610272610463366004611840565b61141c565b6009816004811061047857600080fd5b01546001600160a01b0316905081565b6104938383836114a4565b600480546001600160a01b03848116600090815260026020908152604080832087151584529091528082205490516331a9108f60e11b81529485015292911690636352211e9060240160206040518083038186803b1580156104f457600080fd5b505afa158015610508573d6000803e3d6000fd5b505050506040513d601f19601f8201168201806040525081019061052c9190611724565b6040519091506001600160a01b038216904780156108fc02916000818181858888f19350505050158015610564573d6000803e3d6000fd5b5050505050565b6105768888886114a4565b6001546040516328e5fa9560e21b81526004810187905260248101869052604481018590526064810184905282151560848201526001600160a01b039091169063a397ea549060a401600060405180830381600087803b1580156105d957600080fd5b505af11580156105ed573d6000803e3d6000fd5b505050505050505050505050565b6106068b8a876114a4565b60005460405163f2ae372f60e01b81526001600160a01b039091169063f2ae372f90349061064a908e908e908e908e908e908e908e908e908e908e90600401611f03565b6000604051808303818588803b15801561066357600080fd5b505af1158015610677573d6000803e3d6000fd5b50505050505050505050505050505050565b600480546001600160a01b038b811660009081526002602090815260408083208c151584529091528082205490516331a9108f60e11b81529485015292911690636352211e9060240160206040518083038186803b1580156106ea57600080fd5b505afa1580156106fe573d6000803e3d6000fd5b505050506040513d601f19601f820116820180604052508101906107229190611724565b90508b6001600160a01b0316816001600160a01b0316146107815760405162461bcd60e51b8152602060048201526014602482015273796f7520646f6e277420686176652061206b657960601b60448201526064015b60405180910390fd5b600e546001600160a01b031633146107e257600d546001600160a01b031633146107e25760405162461bcd60e51b815260206004820152601260248201527134b73b30b634b21036b9b39739b2b73232b960711b6044820152606401610778565b60008054906101000a90046001600160a01b03166001600160a01b0316637be7d141348d8d8d8d8d888e8e8e8e8e6040518d63ffffffff1660e01b81526004016108369b9a99989796959493929190611e2e565b6000604051808303818588803b15801561084f57600080fd5b505af1158015610863573d6000803e3d6000fd5b5050505050505050505050505050505050565b6108818484846114a4565b60015460405163d3bab1d160e01b81526000918291829182916001600160a01b039091169063d3bab1d1906108bc9030908990600401611e15565b6101206040518083038186803b1580156108d557600080fd5b505afa1580156108e9573d6000803e3d6000fd5b505050506040513d601f19601f8201168201806040525081019061090d9190611c5e565b60015460405163047e0bbd60e41b8152999d50979b50929950919750506001600160a01b03909416946347e0bbd0945061095393508a9250600401905090815260200190565b600060405180830381600087803b15801561096d57600080fd5b505af1158015610981573d6000803e3d6000fd5b5050600480546001600160a01b038b811660009081526002602090815260408083208e151584529091528082205490516331a9108f60e11b8152948501529450169150636352211e9060240160206040518083038186803b1580156109e557600080fd5b505afa1580156109f9573d6000803e3d6000fd5b505050506040513d601f19601f82011682018060405250810190610a1d9190611724565b60405163a9059cbb60e01b81529091506001600160a01b0386169063a9059cbb90610a4e9084908890600401611e15565b602060405180830381600087803b158015610a6857600080fd5b505af1158015610a7c573d6000803e3d6000fd5b505050506040513d601f19601f82011682018060405250810190610aa09190611d82565b5060055460405163a9059cbb60e01b81526001600160a01b039091169063a9059cbb90610ad39084908690600401611e15565b602060405180830381600087803b158015610aed57600080fd5b505af1158015610b01573d6000803e3d6000fd5b505050506040513d601f19601f82011682018060405250810190610b259190611d82565b50505050505050505050565b6000546040516338c74dd960e01b81526001600160a01b0391821660048201527f0000000000000000000000000000000000000000000000000000000000000000909116906338c74dd990602401600060405180830381600087803b158015610b9957600080fd5b505af1158015610bad573d6000803e3d6000fd5b50506001546040516338c74dd960e01b81526001600160a01b0391821660048201527f000000000000000000000000000000000000000000000000000000000000000090911692506338c74dd99150602401600060405180830381600087803b158015610c1957600080fd5b505af1158015610c2d573d6000803e3d6000fd5b5050505060005b6004811015610ef35760058160048110610c5057610c50612015565b015460005460405163095ea7b360e01b81526001600160a01b039283169263095ea7b392610c85929116908690600401611e15565b602060405180830381600087803b158015610c9f57600080fd5b505af1158015610cb3573d6000803e3d6000fd5b505050506040513d601f19601f82011682018060405250810190610cd79190611d82565b5060058160048110610ceb57610ceb612015565b015460405163095ea7b360e01b81526001600160a01b039091169063095ea7b390610d3c907f0000000000000000000000000000000000000000000000000000000000000000908690600401611e15565b602060405180830381600087803b158015610d5657600080fd5b505af1158015610d6a573d6000803e3d6000fd5b505050506040513d601f19601f82011682018060405250810190610d8e9190611d82565b5060098160048110610da257610da2612015565b015460005460405163095ea7b360e01b81526001600160a01b039283169263095ea7b392610dd7929116908690600401611e15565b602060405180830381600087803b158015610df157600080fd5b505af1158015610e05573d6000803e3d6000fd5b505050506040513d601f19601f82011682018060405250810190610e299190611d82565b5060098160048110610e3d57610e3d612015565b015460405163095ea7b360e01b81526001600160a01b039091169063095ea7b390610e8e907f0000000000000000000000000000000000000000000000000000000000000000908690600401611e15565b602060405180830381600087803b158015610ea857600080fd5b505af1158015610ebc573d6000803e3d6000fd5b505050506040513d601f19601f82011682018060405250810190610ee09190611d82565b5080610eeb81611fec565b915050610c34565b5050600e805460ff60a01b1916600160a01b179055565b610f158989866114a4565b6001546040516360b66f4560e11b81526001600160a01b038a81166004830152602482018a9052888116604483015260648201889052861515608483015260a4820186905284151560c48301529091169063c16cde8a90349060e4016000604051808303818588803b158015610f8a57600080fd5b505af1158015610f9e573d6000803e3d6000fd5b5050505050505050505050505050565b610fb98484846114a4565b600480546001600160a01b03858116600090815260026020908152604080832088151584529091528082205490516331a9108f60e11b81529485015292911690636352211e9060240160206040518083038186803b15801561101a57600080fd5b505afa15801561102e573d6000803e3d6000fd5b505050506040513d601f19601f820116820180604052508101906110529190611724565b6040516370a0823160e01b81523060048201529091506001600160a01b0383169063a9059cbb90839083906370a082319060240160206040518083038186803b15801561109e57600080fd5b505afa1580156110b2573d6000803e3d6000fd5b505050506040513d601f19601f820116820180604052508101906110d69190611db8565b6040518363ffffffff1660e01b81526004016110f3929190611e15565b602060405180830381600087803b15801561110d57600080fd5b505af1158015611121573d6000803e3d6000fd5b505050506040513d601f19601f820116820180604052508101906111459190611d82565b505050505050565b6005816004811061047857600080fd5b6111688b8a876114a4565b600054604051632dc4746360e11b81526001600160a01b0390911690635b88e8c690349061064a908e908e908d908d908d908d908d908d908d90600401611ea1565b6111b58c8a876114a4565b600154604051630b142a4b60e41b81526001600160a01b039091169063b142a4b0903490610836908f908f908f908f908f908f908f908f908f908f908f90600401611f6e565b6112068484846114a4565b600154604051630130197760e11b81526000916001600160a01b03169063026032ee906112399030908690600401611e15565b6101006040518083038186803b15801561125257600080fd5b505afa158015611266573d6000803e3d6000fd5b505050506040513d601f19601f8201168201806040525081019061128a9190611cfa565b6001546040516309e71b0f60e41b81529199506001600160a01b03169750639e71b0f096506112c495508994506004019250611fe3915050565b600060405180830381600087803b1580156112de57600080fd5b505af11580156112f2573d6000803e3d6000fd5b5050600480546001600160a01b0388811660009081526002602090815260408083208b151584529091528082205490516331a9108f60e11b8152948501529450169150636352211e9060240160206040518083038186803b15801561135657600080fd5b505afa15801561136a573d6000803e3d6000fd5b505050506040513d601f19601f8201168201806040525081019061138e9190611724565b60055460405163a9059cbb60e01b81529192506001600160a01b03169063a9059cbb906113c19084908690600401611e15565b602060405180830381600087803b1580156113db57600080fd5b505af11580156113ef573d6000803e3d6000fd5b505050506040513d601f19601f820116820180604052508101906114139190611d82565b50505050505050565b6114278787876114a4565b600154604051639983ee1b60e01b815260048101869052602481018590526044810184905282151560648201526001600160a01b0390911690639983ee1b90608401600060405180830381600087803b15801561148357600080fd5b505af1158015611497573d6000803e3d6000fd5b5050505050505050505050565b600480546001600160a01b0384811660009081526002602090815260408083208715158452909152908190205490516331a9108f60e11b81529384015285811692911690636352211e9060240160206040518083038186803b15801561150957600080fd5b505afa15801561151d573d6000803e3d6000fd5b505050506040513d601f19601f820116820180604052508101906115419190611724565b6001600160a01b03161461158e5760405162461bcd60e51b8152602060048201526014602482015273796f7520646f6e277420686176652061206b657960601b6044820152606401610778565b6001600160a01b038216600090815260026020908152604080832084151584528252808320548352600390915290205460ff166115fb5760405162461bcd60e51b815260206004820152600b60248201526a696e76616c6964206b657960a81b6044820152606401610778565b600e546001600160a01b0316331461165c57600d546001600160a01b0316331461165c5760405162461bcd60e51b815260206004820152601260248201527134b73b30b634b21036b9b39739b2b73232b960711b6044820152606401610778565b505050565b803561166c81612041565b919050565b600082601f83011261168257600080fd5b8135602067ffffffffffffffff8083111561169f5761169f61202b565b8260051b604051601f19603f830116810181811084821117156116c4576116c461202b565b604052848152838101925086840182880185018910156116e357600080fd5b600092505b8583101561170d576116f981611661565b8452928401926001929092019184016116e8565b50979650505050505050565b803561166c81612059565b60006020828403121561173657600080fd5b815161174181612041565b9392505050565b60008060006060848603121561175d57600080fd5b833561176881612041565b9250602084013561177881612041565b9150604084013561178881612059565b809150509250925092565b600080600080608085870312156117a957600080fd5b84356117b481612041565b935060208501356117c481612041565b925060408501356117d481612059565b915060608501356117e481612041565b939692955090935050565b6000806000806080858703121561180557600080fd5b843561181081612041565b9350602085013561182081612041565b9250604085013561183081612059565b9396929550929360600135925050565b600080600080600080600060e0888a03121561185b57600080fd5b873561186681612041565b9650602088013561187681612041565b9550604088013561188681612059565b9450606088013593506080880135925060a0880135915060c08801356118ab81612059565b8091505092959891949750929550565b600080600080600080600080610100898b0312156118d857600080fd5b88356118e381612041565b975060208901356118f381612041565b9650604089013561190381612059565b9550606089013594506080890135935060a0890135925060c0890135915060e089013561192f81612059565b809150509295985092959890939650565b60008060008060008060008060006101208a8c03121561195f57600080fd5b893561196a81612041565b985060208a013561197a81612041565b975060408a0135965060608a013561199181612041565b955060808a0135945060a08a01356119a881612059565b935060c08a0135925060e08a01356119bf81612059565b809250506101008a013590509295985092959850929598565b60008060008060008060008060008060006101608c8e0312156119fa57600080fd5b8b35611a0581612041565b9a5060208c013567ffffffffffffffff811115611a2157600080fd5b611a2d8e828f01611671565b9a505060408c0135611a3e81612041565b985060608c0135975060808c01359650611a5a60a08d01611719565b955060c08c0135945060e08c013593506101008c01359250611a7f6101208d01611719565b9150611a8e6101408d01611661565b90509295989b509295989b9093969950565b60008060008060008060008060008060006101608c8e031215611ac257600080fd5b8b35611acd81612041565b9a5060208c013567ffffffffffffffff811115611ae957600080fd5b611af58e828f01611671565b9a505060408c0135611b0681612041565b985060608c0135975060808c0135965060a08c01359550611b2960c08d01611719565b945060e08c013593506101008c013592506101208c01359150611a8e6101408d01611661565b6000806000806000806000806000806000806101808d8f031215611b7257600080fd5b611b7b8d611661565b9b5067ffffffffffffffff60208e01351115611b9657600080fd5b611ba68e60208f01358f01611671565b9a5060408d01359950611bbb60608e01611661565b985060808d0135975060a08d01359650611bd760c08e01611661565b9550611be560e08e01611719565b94506101008d01359350611bfc6101208e01611719565b92506101408d01359150611c136101608e01611719565b90509295989b509295989b509295989b565b60008060408385031215611c3857600080fd5b8235611c4381612041565b91506020830135611c5381612059565b809150509250929050565b60008060008060008060008060006101208a8c031215611c7d57600080fd5b8951611c8881612041565b60208b015160408c0151919a509850611ca081612041565b60608b0151909750611cb181612041565b60808b015160a08c01519197509550611cc981612059565b60c08b015160e08c01519195509350611ce181612059565b809250506101008a015190509295985092959850929598565b600080600080600080600080610100898b031215611d1757600080fd5b8851611d2281612041565b60208a015160408b01519199509750611d3a81612041565b60608a015160808b01519197509550611d5281612059565b60a08a015160c08b01519195509350611d6a81612059565b8092505060e089015190509295985092959890939650565b600060208284031215611d9457600080fd5b815161174181612059565b600060208284031215611db157600080fd5b5035919050565b600060208284031215611dca57600080fd5b5051919050565b600081518084526020808501945080840160005b83811015611e0a5781516001600160a01b031687529582019590820190600101611de5565b509495945050505050565b6001600160a01b03929092168252602082015260400190565b6000610160808352611e428184018f611dd1565b6001600160a01b039d8e166020850152604084019c909c5250506060810198909852951515608088015293881660a087015260c086019290925260e0850152610100840152151561012083015290921661014090920191909152919050565b6000610120808352611eb58184018d611dd1565b6001600160a01b039b8c166020850152604084019a909a5250506060810196909652931515608086015260a085019290925260c084015260e083015290921661010090920191909152919050565b6000610140808352611f178184018e611dd1565b6001600160a01b039c8d166020850152604084019b909b5250506060810197909752608087019590955292151560a086015260c085019190915260e084015261010083015290921661012090920191909152919050565b6000610160808352611f828184018f611dd1565b602084019d909d5250506001600160a01b03998a166040820152606081019890985260808801969096529390961660a086015290151560c085015260e084015292151561010083015261012082019290925290151561014090910152919050565b90815260200190565b600060001982141561200e57634e487b7160e01b600052601160045260246000fd5b5060010190565b634e487b7160e01b600052603260045260246000fd5b634e487b7160e01b600052604160045260246000fd5b6001600160a01b038116811461205657600080fd5b50565b801515811461205657600080fdfea26469706673582212200fe8471ca276d5f7b279444b382773b6e33b8105b1c1317632cb2c4b9c7efca664736f6c63430008060033a2646970667358221220b92431b544bfbec9b6e27ed1a34a1549d520022f07c50bf4fbd8d5b53d71cf7564736f6c63430008060033",
  "devdoc": {
    "kind": "dev",
    "methods": {
      "currentPrice(uint256)": {
        "params": {
          "id": "position ID"
        }
      },
      "getPosition(uint256)": {
        "params": {
          "id": "collateral ID*"
        }
      },
      "getPositionDelta(uint256)": {
        "params": {
          "id": "collateral ID*"
        }
      },
      "owner()": {
        "details": "Returns the address of the current owner."
      },
      "renounceOwnership()": {
        "details": "Leaves the contract without owner. It will not be possible to call `onlyOwner` functions anymore. Can only be called by the current owner. NOTE: Renouncing ownership will leave the contract without an owner, thereby removing any functionality that is only available to the owner."
      },
      "setDDL_GMX(address)": {
        "params": {
          "value": "the address of DDL_GMX*"
        }
      },
      "setPermission(uint8,bool)": {
        "params": {
          "symbol": "trough name",
          "value": "true or false *"
        }
      },
      "transferOwnership(address)": {
        "details": "Transfers ownership of the contract to a new account (`newOwner`). Can only be called by the current owner."
      }
    },
    "version": 1
  },
  "userdoc": {
    "kind": "user",
    "methods": {
      "createDecreasePosition(address[],address,uint256,uint256,bool,uint256,uint256,uint256,bool,address)": {
        "notice": "used to decrease position on GMX*"
      },
      "createDoppelgangerGMX()": {
        "notice": "creates Doppelganger account for the user*"
      },
      "createIncreasePosition(address[],address,uint256,uint256,uint256,bool,uint256,uint256,bytes32,address)": {
        "notice": "used to increase position on GMX*"
      },
      "createIncreasePositionETH(address[],address,uint256,uint256,uint256,bool,uint256,uint256,bytes32,address)": {
        "notice": "used to increase position on GMX (only ETH)*"
      },
      "currentPrice(uint256)": {
        "notice": "return currentPrice for the asset*"
      },
      "getPosition(uint256)": {
        "notice": "returns getPosition by the collateral"
      },
      "getPositionDelta(uint256)": {
        "notice": "returns getPositionDelta from GMX by the collateral ID"
      },
      "setDDL_GMX(address)": {
        "notice": "set new DDL_GMX address"
      },
      "setPermission(uint8,bool)": {
        "notice": "set permissions for trading pairs"
      }
    },
    "version": 1
  },
  "storageLayout": {
    "storage": [
      {
        "astId": 7,
        "contract": "contracts/AccountManager.sol:AccountManager",
        "label": "_owner",
        "offset": 0,
        "slot": "0",
        "type": "t_address"
      },
      {
        "astId": 2743,
        "contract": "contracts/AccountManager.sol:AccountManager",
        "label": "ddl_gmx",
        "offset": 0,
        "slot": "1",
        "type": "t_address"
      },
      {
        "astId": 2758,
        "contract": "contracts/AccountManager.sol:AccountManager",
        "label": "doppelgangerMap",
        "offset": 0,
        "slot": "2",
        "type": "t_mapping(t_address,t_address_payable)"
      },
      {
        "astId": 2776,
        "contract": "contracts/AccountManager.sol:AccountManager",
        "label": "keyData",
        "offset": 0,
        "slot": "3",
        "type": "t_mapping(t_uint256,t_struct(KeyInformation)2770_storage)"
      },
      {
        "astId": 2783,
        "contract": "contracts/AccountManager.sol:AccountManager",
        "label": "symbolByIndexToken",
        "offset": 0,
        "slot": "4",
        "type": "t_mapping(t_address,t_mapping(t_bool,t_enum(Symbols)4738))"
      },
      {
        "astId": 2789,
        "contract": "contracts/AccountManager.sol:AccountManager",
        "label": "indexTokenBySymbol",
        "offset": 0,
        "slot": "5",
        "type": "t_mapping(t_enum(Symbols)4738,t_address)"
      },
      {
        "astId": 2794,
        "contract": "contracts/AccountManager.sol:AccountManager",
        "label": "permissions",
        "offset": 0,
        "slot": "6",
        "type": "t_mapping(t_enum(Symbols)4738,t_bool)"
      },
      {
        "astId": 2798,
        "contract": "contracts/AccountManager.sol:AccountManager",
        "label": "indexTokenArr",
        "offset": 0,
        "slot": "7",
        "type": "t_array(t_address)8_storage"
      },
      {
        "astId": 2802,
        "contract": "contracts/AccountManager.sol:AccountManager",
        "label": "stablecoinsArray",
        "offset": 0,
        "slot": "15",
        "type": "t_array(t_address)4_storage"
      }
    ],
    "types": {
      "t_address": {
        "encoding": "inplace",
        "label": "address",
        "numberOfBytes": "20"
      },
      "t_address_payable": {
        "encoding": "inplace",
        "label": "address payable",
        "numberOfBytes": "20"
      },
      "t_array(t_address)4_storage": {
        "base": "t_address",
        "encoding": "inplace",
        "label": "address[4]",
        "numberOfBytes": "128"
      },
      "t_array(t_address)8_storage": {
        "base": "t_address",
        "encoding": "inplace",
        "label": "address[8]",
        "numberOfBytes": "256"
      },
      "t_bool": {
        "encoding": "inplace",
        "label": "bool",
        "numberOfBytes": "1"
      },
      "t_enum(Symbols)4738": {
        "encoding": "inplace",
        "label": "enum IAccountManager.Symbols",
        "numberOfBytes": "1"
      },
      "t_mapping(t_address,t_address_payable)": {
        "encoding": "mapping",
        "key": "t_address",
        "label": "mapping(address => address payable)",
        "numberOfBytes": "32",
        "value": "t_address_payable"
      },
      "t_mapping(t_address,t_mapping(t_bool,t_enum(Symbols)4738))": {
        "encoding": "mapping",
        "key": "t_address",
        "label": "mapping(address => mapping(bool => enum IAccountManager.Symbols))",
        "numberOfBytes": "32",
        "value": "t_mapping(t_bool,t_enum(Symbols)4738)"
      },
      "t_mapping(t_bool,t_enum(Symbols)4738)": {
        "encoding": "mapping",
        "key": "t_bool",
        "label": "mapping(bool => enum IAccountManager.Symbols)",
        "numberOfBytes": "32",
        "value": "t_enum(Symbols)4738"
      },
      "t_mapping(t_enum(Symbols)4738,t_address)": {
        "encoding": "mapping",
        "key": "t_enum(Symbols)4738",
        "label": "mapping(enum IAccountManager.Symbols => address)",
        "numberOfBytes": "32",
        "value": "t_address"
      },
      "t_mapping(t_enum(Symbols)4738,t_bool)": {
        "encoding": "mapping",
        "key": "t_enum(Symbols)4738",
        "label": "mapping(enum IAccountManager.Symbols => bool)",
        "numberOfBytes": "32",
        "value": "t_bool"
      },
      "t_mapping(t_uint256,t_struct(KeyInformation)2770_storage)": {
        "encoding": "mapping",
        "key": "t_uint256",
        "label": "mapping(uint256 => struct AccountManager.KeyInformation)",
        "numberOfBytes": "32",
        "value": "t_struct(KeyInformation)2770_storage"
      },
      "t_struct(KeyInformation)2770_storage": {
        "encoding": "inplace",
        "label": "struct AccountManager.KeyInformation",
        "members": [
          {
            "astId": 2761,
            "contract": "contracts/AccountManager.sol:AccountManager",
            "label": "symbol",
            "offset": 0,
            "slot": "0",
            "type": "t_enum(Symbols)4738"
          },
          {
            "astId": 2763,
            "contract": "contracts/AccountManager.sol:AccountManager",
            "label": "doppelgangerContract",
            "offset": 1,
            "slot": "0",
            "type": "t_address"
          },
          {
            "astId": 2765,
            "contract": "contracts/AccountManager.sol:AccountManager",
            "label": "isLong",
            "offset": 21,
            "slot": "0",
            "type": "t_bool"
          },
          {
            "astId": 2767,
            "contract": "contracts/AccountManager.sol:AccountManager",
            "label": "indexToken",
            "offset": 0,
            "slot": "1",
            "type": "t_address"
          },
          {
            "astId": 2769,
            "contract": "contracts/AccountManager.sol:AccountManager",
            "label": "user",
            "offset": 0,
            "slot": "2",
            "type": "t_address"
          }
        ],
        "numberOfBytes": "96"
      },
      "t_uint256": {
        "encoding": "inplace",
        "label": "uint256",
        "numberOfBytes": "32"
      }
    }
  }
}