{
  "address": "0xd9A6842136E4869022789993C4b1891E84801Cb7",
  "abi": [
    {
      "inputs": [
        {
          "internalType": "contract IAccountManagerToken",
          "name": "_accountManagerToken",
          "type": "address"
        },
        {
          "internalType": "address",
          "name": "_router",
          "type": "address"
        },
        {
          "internalType": "contract IVault",
          "name": "_vault",
          "type": "address"
        },
        {
          "internalType": "contract IPositionRouter",
          "name": "_positionRouter",
          "type": "address"
        },
        {
          "internalType": "address[8]",
          "name": "_indexTokenArr",
          "type": "address[8]"
        },
        {
          "internalType": "address[4]",
          "name": "_stablecoinsArray",
          "type": "address[4]"
        },
        {
          "internalType": "bool[8]",
          "name": "_permissions",
          "type": "bool[8]"
        }
      ],
      "stateMutability": "nonpayable",
      "type": "constructor"
    },
    {
      "anonymous": false,
      "inputs": [
        {
          "indexed": true,
          "internalType": "address",
          "name": "previousOwner",
          "type": "address"
        },
        {
          "indexed": true,
          "internalType": "address",
          "name": "newOwner",
          "type": "address"
        }
      ],
      "name": "OwnershipTransferred",
      "type": "event"
    },
    {
      "inputs": [],
      "name": "accountManagerToken",
      "outputs": [
        {
          "internalType": "contract IAccountManagerToken",
          "name": "",
          "type": "address"
        }
      ],
      "stateMutability": "view",
      "type": "function"
    },
    {
      "inputs": [
        {
          "internalType": "address[]",
          "name": "_path",
          "type": "address[]"
        },
        {
          "internalType": "address",
          "name": "_indexToken",
          "type": "address"
        },
        {
          "internalType": "uint256",
          "name": "_collateralDelta",
          "type": "uint256"
        },
        {
          "internalType": "uint256",
          "name": "_sizeDelta",
          "type": "uint256"
        },
        {
          "internalType": "bool",
          "name": "_isLong",
          "type": "bool"
        },
        {
          "internalType": "uint256",
          "name": "_acceptablePrice",
          "type": "uint256"
        },
        {
          "internalType": "uint256",
          "name": "_minOut",
          "type": "uint256"
        },
        {
          "internalType": "uint256",
          "name": "_executionFee",
          "type": "uint256"
        },
        {
          "internalType": "bool",
          "name": "_withdrawETH",
          "type": "bool"
        }
      ],
      "name": "createDecreasePosition",
      "outputs": [],
      "stateMutability": "payable",
      "type": "function"
    },
    {
      "inputs": [],
      "name": "createDoppelgangerGMX",
      "outputs": [],
      "stateMutability": "nonpayable",
      "type": "function"
    },
    {
      "inputs": [
        {
          "internalType": "address[]",
          "name": "_path",
          "type": "address[]"
        },
        {
          "internalType": "address",
          "name": "_indexToken",
          "type": "address"
        },
        {
          "internalType": "uint256",
          "name": "_amountIn",
          "type": "uint256"
        },
        {
          "internalType": "uint256",
          "name": "_minOut",
          "type": "uint256"
        },
        {
          "internalType": "uint256",
          "name": "_sizeDelta",
          "type": "uint256"
        },
        {
          "internalType": "bool",
          "name": "_isLong",
          "type": "bool"
        },
        {
          "internalType": "uint256",
          "name": "_acceptablePrice",
          "type": "uint256"
        },
        {
          "internalType": "uint256",
          "name": "_executionFee",
          "type": "uint256"
        },
        {
          "internalType": "bytes32",
          "name": "_referralCode",
          "type": "bytes32"
        }
      ],
      "name": "createIncreasePosition",
      "outputs": [],
      "stateMutability": "payable",
      "type": "function"
    },
    {
      "inputs": [
        {
          "internalType": "address[]",
          "name": "_path",
          "type": "address[]"
        },
        {
          "internalType": "address",
          "name": "_indexToken",
          "type": "address"
        },
        {
          "internalType": "uint256",
          "name": "_amountIn",
          "type": "uint256"
        },
        {
          "internalType": "uint256",
          "name": "_minOut",
          "type": "uint256"
        },
        {
          "internalType": "uint256",
          "name": "_sizeDelta",
          "type": "uint256"
        },
        {
          "internalType": "bool",
          "name": "_isLong",
          "type": "bool"
        },
        {
          "internalType": "uint256",
          "name": "_acceptablePrice",
          "type": "uint256"
        },
        {
          "internalType": "uint256",
          "name": "_executionFee",
          "type": "uint256"
        },
        {
          "internalType": "bytes32",
          "name": "_referralCode",
          "type": "bytes32"
        }
      ],
      "name": "createIncreasePositionETH",
      "outputs": [],
      "stateMutability": "payable",
      "type": "function"
    },
    {
      "inputs": [
        {
          "internalType": "uint256",
          "name": "id",
          "type": "uint256"
        }
      ],
      "name": "currentPrice",
      "outputs": [
        {
          "internalType": "uint256",
          "name": "",
          "type": "uint256"
        }
      ],
      "stateMutability": "view",
      "type": "function"
    },
    {
      "inputs": [],
      "name": "ddl_gmx",
      "outputs": [
        {
          "internalType": "address",
          "name": "",
          "type": "address"
        }
      ],
      "stateMutability": "view",
      "type": "function"
    },
    {
      "inputs": [
        {
          "internalType": "address",
          "name": "",
          "type": "address"
        }
      ],
      "name": "doppelgangerMap",
      "outputs": [
        {
          "internalType": "address payable",
          "name": "",
          "type": "address"
        }
      ],
      "stateMutability": "view",
      "type": "function"
    },
    {
      "inputs": [
        {
          "internalType": "uint256",
          "name": "id",
          "type": "uint256"
        }
      ],
      "name": "getPosition",
      "outputs": [
        {
          "internalType": "uint256",
          "name": "size",
          "type": "uint256"
        },
        {
          "internalType": "uint256",
          "name": "collateral",
          "type": "uint256"
        },
        {
          "internalType": "uint256",
          "name": "averagePrice",
          "type": "uint256"
        },
        {
          "internalType": "uint256",
          "name": "entryFundingRate",
          "type": "uint256"
        },
        {
          "internalType": "uint256",
          "name": "reserveAmount",
          "type": "uint256"
        },
        {
          "internalType": "uint256",
          "name": "realisedPnl",
          "type": "uint256"
        },
        {
          "internalType": "bool",
          "name": "isProfit",
          "type": "bool"
        },
        {
          "internalType": "uint256",
          "name": "lastIncreasedTime",
          "type": "uint256"
        }
      ],
      "stateMutability": "view",
      "type": "function"
    },
    {
      "inputs": [
        {
          "internalType": "uint256",
          "name": "id",
          "type": "uint256"
        }
      ],
      "name": "getPositionDelta",
      "outputs": [
        {
          "internalType": "bool",
          "name": "isProfit",
          "type": "bool"
        },
        {
          "internalType": "uint256",
          "name": "profit",
          "type": "uint256"
        }
      ],
      "stateMutability": "view",
      "type": "function"
    },
    {
      "inputs": [
        {
          "internalType": "uint256",
          "name": "",
          "type": "uint256"
        }
      ],
      "name": "indexTokenArr",
      "outputs": [
        {
          "internalType": "address",
          "name": "",
          "type": "address"
        }
      ],
      "stateMutability": "view",
      "type": "function"
    },
    {
      "inputs": [
        {
          "internalType": "enum IAccountManager.Symbols",
          "name": "",
          "type": "uint8"
        }
      ],
      "name": "indexTokenBySymbol",
      "outputs": [
        {
          "internalType": "address",
          "name": "",
          "type": "address"
        }
      ],
      "stateMutability": "view",
      "type": "function"
    },
    {
      "inputs": [
        {
          "internalType": "uint256",
          "name": "id",
          "type": "uint256"
        }
      ],
      "name": "isLong",
      "outputs": [
        {
          "internalType": "bool",
          "name": "",
          "type": "bool"
        }
      ],
      "stateMutability": "view",
      "type": "function"
    },
    {
      "inputs": [
        {
          "internalType": "uint256",
          "name": "",
          "type": "uint256"
        }
      ],
      "name": "keyData",
      "outputs": [
        {
          "internalType": "enum IAccountManager.Symbols",
          "name": "symbol",
          "type": "uint8"
        },
        {
          "internalType": "address",
          "name": "doppelgangerContract",
          "type": "address"
        },
        {
          "internalType": "bool",
          "name": "isLong",
          "type": "bool"
        },
        {
          "internalType": "address",
          "name": "indexToken",
          "type": "address"
        },
        {
          "internalType": "address",
          "name": "user",
          "type": "address"
        }
      ],
      "stateMutability": "view",
      "type": "function"
    },
    {
      "inputs": [],
      "name": "owner",
      "outputs": [
        {
          "internalType": "address",
          "name": "",
          "type": "address"
        }
      ],
      "stateMutability": "view",
      "type": "function"
    },
    {
      "inputs": [
        {
          "internalType": "enum IAccountManager.Symbols",
          "name": "",
          "type": "uint8"
        }
      ],
      "name": "permissions",
      "outputs": [
        {
          "internalType": "bool",
          "name": "",
          "type": "bool"
        }
      ],
      "stateMutability": "view",
      "type": "function"
    },
    {
      "inputs": [],
      "name": "positionRouter",
      "outputs": [
        {
          "internalType": "contract IPositionRouter",
          "name": "",
          "type": "address"
        }
      ],
      "stateMutability": "view",
      "type": "function"
    },
    {
      "inputs": [],
      "name": "renounceOwnership",
      "outputs": [],
      "stateMutability": "nonpayable",
      "type": "function"
    },
    {
      "inputs": [],
      "name": "router",
      "outputs": [
        {
          "internalType": "address",
          "name": "",
          "type": "address"
        }
      ],
      "stateMutability": "view",
      "type": "function"
    },
    {
      "inputs": [
        {
          "internalType": "address",
          "name": "value",
          "type": "address"
        }
      ],
      "name": "setDDL_GMX",
      "outputs": [],
      "stateMutability": "nonpayable",
      "type": "function"
    },
    {
      "inputs": [
        {
          "internalType": "enum IAccountManager.Symbols",
          "name": "symbol",
          "type": "uint8"
        },
        {
          "internalType": "bool",
          "name": "value",
          "type": "bool"
        }
      ],
      "name": "setPermission",
      "outputs": [],
      "stateMutability": "nonpayable",
      "type": "function"
    },
    {
      "inputs": [
        {
          "internalType": "uint256",
          "name": "",
          "type": "uint256"
        }
      ],
      "name": "stablecoinsArray",
      "outputs": [
        {
          "internalType": "address",
          "name": "",
          "type": "address"
        }
      ],
      "stateMutability": "view",
      "type": "function"
    },
    {
      "inputs": [
        {
          "internalType": "address",
          "name": "",
          "type": "address"
        },
        {
          "internalType": "bool",
          "name": "",
          "type": "bool"
        }
      ],
      "name": "symbolByIndexToken",
      "outputs": [
        {
          "internalType": "enum IAccountManager.Symbols",
          "name": "",
          "type": "uint8"
        }
      ],
      "stateMutability": "view",
      "type": "function"
    },
    {
      "inputs": [
        {
          "internalType": "address",
          "name": "newOwner",
          "type": "address"
        }
      ],
      "name": "transferOwnership",
      "outputs": [],
      "stateMutability": "nonpayable",
      "type": "function"
    },
    {
      "inputs": [],
      "name": "vault",
      "outputs": [
        {
          "internalType": "contract IVault",
          "name": "",
          "type": "address"
        }
      ],
      "stateMutability": "view",
      "type": "function"
    }
  ],
  "transactionHash": "0x9925a80158a7c0ad23e59dd7bb0f8ccaaf25008e2b814bb0e191028babbcd051",
  "args": [
    "0x5049D01C844ad3C01cE79Aa51f81914106801a98",
    "0xaBBc5F99639c9B6bCb58544ddf04EFA6802F4064",
    "0x489ee077994B6658eAfA855C308275EAd8097C4A",
    "0xb87a436B93fFE9D75c5cFA7bAcFff96430b09868",
    [
      "0x82aF49447D8a07e3bd95BD0d56f35241523fBab1",
      "0x2f2a2543B76A4166549F7aaB2e75Bef0aefC5B0f",
      "0xf97f4df75117a78c1A5a0DBb814Af92458539FB4",
      "0xFa7F8980b0f1E64A2062791cc3b0871572f1F7f0",
      "0x82aF49447D8a07e3bd95BD0d56f35241523fBab1",
      "0x2f2a2543B76A4166549F7aaB2e75Bef0aefC5B0f",
      "0xf97f4df75117a78c1A5a0DBb814Af92458539FB4",
      "0xFa7F8980b0f1E64A2062791cc3b0871572f1F7f0"
    ],
    [
      "0xFF970A61A04b1cA14834A43f5dE4533eBDDB5CC8",
      "0xFd086bC7CD5C481DCC9C85ebE478A1C0b69FCbb9",
      "0xDA10009cBd5D07dd0CeCc66161FC93D7c9000da1",
      "0x17FC002b466eEc40DaE837Fc4bE5c67993ddBd6F"
    ],
    [
      true,
      true,
      true,
      true,
      true,
      true,
      true,
      true
    ]
  ],
  "numDeployments": 1,
  "solcInputHash": "f0ae511adb9d531a5a3b529ca528b32b",
  "bytecode": "0x6101006040523480156200001257600080fd5b50604051620038f0380380620038f0833981016040819052620000359162000470565b62000040336200025e565b6001600160601b0319606088811b821660805287811b821660a05286811b821660c05285901b1660e052620000796007846008620002ae565b5062000089600f8360046200030b565b5060005b60088110156200025057806007811115620000ac57620000ac620005cd565b60046000868460088110620000c557620000c5620005e3565b60200201516001600160a01b03166001600160a01b03168152602001908152602001600020600060048410620000fd57600062000100565b60015b151581526020810191909152604001600020805460ff191660018360078111156200012f576200012f620005cd565b0217905550838160088110620001495762000149620005e3565b602002015160056000836007811115620001675762000167620005cd565b60078111156200017b576200017b620005cd565b60078111156200018f576200018f620005cd565b815260200190815260200160002060006101000a8154816001600160a01b0302191690836001600160a01b03160217905550818160088110620001d657620001d6620005e3565b602002015160066000836007811115620001f457620001f4620005cd565b6007811115620002085762000208620005cd565b60078111156200021c576200021c620005cd565b81526020810191909152604001600020805460ff1916911515919091179055806200024781620005a3565b9150506200008d565b505050505050505062000612565b600080546001600160a01b038381166001600160a01b0319831681178455604051919092169283917f8be0079c531659141344cd1fd0a4f28419497f9722a3daafe3b4186f6b6457e09190a35050565b8260088101928215620002f9579160200282015b82811115620002f957825182546001600160a01b0319166001600160a01b03909116178255602090920191600190910190620002c2565b506200030792915062000355565b5090565b8260048101928215620002f95791602002820182811115620002f957825182546001600160a01b0319166001600160a01b03909116178255602090920191600190910190620002c2565b5b8082111562000307576000815560010162000356565b600082601f8301126200037e57600080fd5b604051608081016001600160401b0381118282101715620003af57634e487b7160e01b600052604160045260246000fd5b604052808360808101861015620003c557600080fd5b60005b6004811015620003f5578151620003df81620005f9565b83526020928301929190910190600101620003c8565b509195945050505050565b600082601f8301126200041257600080fd5b6200041c6200056b565b808385610100860111156200043057600080fd5b6000805b60088110156200046457825180151581146200044e578283fd5b8552602094850194929092019160010162000434565b50919695505050505050565b6000806000806000806000610300888a0312156200048d57600080fd5b87516200049a81620005f9565b80975050602080890151620004af81620005f9565b60408a0151909750620004c281620005f9565b60608a0151909650620004d581620005f9565b9450609f89018a13620004e757600080fd5b620004f16200056b565b8060808b016101808c018d8111156200050957600080fd5b60005b6008811015620005365782516200052381620005f9565b855293850193918501916001016200050c565b50829750620005468e826200036c565b965050505050506200055d896102008a0162000400565b905092959891949750929550565b60405161010081016001600160401b03811182821017156200059d57634e487b7160e01b600052604160045260246000fd5b60405290565b6000600019821415620005c657634e487b7160e01b600052601160045260246000fd5b5060010190565b634e487b7160e01b600052602160045260246000fd5b634e487b7160e01b600052603260045260246000fd5b6001600160a01b03811681146200060f57600080fd5b50565b60805160601c60a05160601c60c05160601c60e05160601c6132526200069e600039600081816102930152610b13015260008181610642015281816107ff01528181610e6701528181610f20015261117b01526000818161060c0152610b3401526000818161049c015281816109a801528181610a5601528181610b5b0152610d5001526132526000f3fe608060405260043610620001835760003560e01c80639e71527d11620000e2578063c98741701162000095578063f2fde38b116200006c578063f2fde38b14620005d3578063f887ea4014620005f8578063fbfa77cf146200062e578063fec56fe0146200066457600080fd5b8063c987417014620004e3578063e6e6dd2f14620004fa578063eb02c301146200057057600080fd5b80639e71527d14620003b4578063a226b48314620003d9578063a4cf54a21462000414578063b7d32110146200044e578063be1528611462000488578063c7960d3514620004be57600080fd5b806361ef161f116200013b57806361ef161f146200027f5780636476b83714620002b55780636c5e2fd914620002fa578063715018a614620003485780637a3c4c1714620003605780638da5cb5b146200039457600080fd5b806230e1b514620001885780630b8b47fe14620001ca5780630cd790f714620001e35780633264fee5146200020557806332d53b17146200022a578063449bd2cc1462000267575b600080fd5b3480156200019557600080fd5b50620001ad620001a7366004620018c8565b6200067b565b6040516001600160a01b0390911681526020015b60405180910390f35b620001e1620001db36600462001795565b6200069c565b005b348015620001f057600080fd5b50600154620001ad906001600160a01b031681565b3480156200021257600080fd5b50620001e16200022436600462001684565b620007b8565b3480156200023757600080fd5b506200024f62000249366004620018c8565b620007e4565b604080519215158352602083019190915201620001c1565b3480156200027457600080fd5b50620001e162000928565b3480156200028c57600080fd5b50620001ad7f000000000000000000000000000000000000000000000000000000000000000081565b348015620002c257600080fd5b50620002e9620002d43660046200188b565b60066020526000908152604090205460ff1681565b6040519015158152602001620001c1565b3480156200030757600080fd5b506200033962000319366004620016a9565b600460209081526000928352604080842090915290825290205460ff1681565b604051620001c1919062001bb4565b3480156200035557600080fd5b50620001e162000dfe565b3480156200036d57600080fd5b50620003856200037f366004620018c8565b62000e16565b604051908152602001620001c1565b348015620003a157600080fd5b506000546001600160a01b0316620001ad565b348015620003c157600080fd5b50620001e1620003d3366004620018a9565b62000f52565b348015620003e657600080fd5b50620002e9620003f8366004620018c8565b600090815260036020526040902054600160a81b900460ff1690565b3480156200042157600080fd5b50620001ad6200043336600462001684565b6002602052600090815260409020546001600160a01b031681565b3480156200045b57600080fd5b50620001ad6200046d3660046200188b565b6005602052600090815260409020546001600160a01b031681565b3480156200049557600080fd5b50620001ad7f000000000000000000000000000000000000000000000000000000000000000081565b348015620004cb57600080fd5b50620001ad620004dd366004620018c8565b62000fad565b620001e1620004f436600462001795565b62000fbe565b3480156200050757600080fd5b506200055d62000519366004620018c8565b60036020526000908152604090208054600182015460029092015460ff808316936001600160a01b036101008504811694600160a81b900490921692908216911685565b604051620001c195949392919062001bc4565b3480156200057d57600080fd5b50620005956200058f366004620018c8565b62001154565b604080519889526020890197909752958701949094526060860192909252608085015260a0840152151560c083015260e082015261010001620001c1565b348015620005e057600080fd5b50620001e1620005f236600462001684565b620012c8565b3480156200060557600080fd5b50620001ad7f000000000000000000000000000000000000000000000000000000000000000081565b3480156200063b57600080fd5b50620001ad7f000000000000000000000000000000000000000000000000000000000000000081565b620001e162000675366004620016e5565b62001347565b600f81600481106200068c57600080fd5b01546001600160a01b0316905081565b336000908152600260205260409020546001600160a01b0316620006dd5760405162461bcd60e51b8152600401620006d49062001c05565b60405180910390fd5b620006e988856200140f565b60026000336001600160a01b03166001600160a01b0316815260200190815260200160002060009054906101000a90046001600160a01b03166001600160a01b031663da91dfd534338c8c8c8c8c8c8c8c8c600160009054906101000a90046001600160a01b03166040518d63ffffffff1660e01b8152600401620007799b9a9998979695949392919062001a78565b6000604051808303818588803b1580156200079357600080fd5b505af1158015620007a8573d6000803e3d6000fd5b5050505050505050505050505050565b620007c2620014ca565b600180546001600160a01b0319166001600160a01b0392909216919091179055565b60008181526003602052604081205481906001600160a01b037f00000000000000000000000000000000000000000000000000000000000000008116916345a6f370916101008204169060ff600160a81b909104166200085057600f546001600160a01b03166200086c565b6000868152600360205260409020600101546001600160a01b03165b6000878152600360205260409081902060018101549054915160e086901b6001600160e01b03191681526001600160a01b0394851660048201529284166024840152929092166044820152600160a81b90910460ff1615156064820152608401604080518083038186803b158015620008e457600080fd5b505afa158015620008f9573d6000803e3d6000fd5b505050506040513d601f19601f820116820180604052508101906200091f91906200185a565b91509150915091565b336000908152600260205260409020546001600160a01b031615620009a45760405162461bcd60e51b815260206004820152602b60248201527f446f7070656c47616e67657220666f722074686973206164647265737320616c60448201526a1c9958591e48195e1a5cdd60aa1b6064820152608401620006d4565b60007f00000000000000000000000000000000000000000000000000000000000000006001600160a01b03166317d70f7c6040518163ffffffff1660e01b8152600401602060405180830381600087803b15801562000a0257600080fd5b505af115801562000a17573d6000803e3d6000fd5b505050506040513d601f19601f8201168201806040525081019062000a3d9190620018e2565b60405163fd0d101f60e01b8152600860048201529091507f00000000000000000000000000000000000000000000000000000000000000006001600160a01b03169063fd0d101f90602401600060405180830381600087803b15801562000aa357600080fd5b505af115801562000ab8573d6000803e3d6000fd5b5050505062000ac662001576565b60005b600881101562000b0e5762000adf818462001c3c565b82826008811062000af45762000af462001ca1565b60200201528062000b058162001c57565b91505062000ac9565b5060007f00000000000000000000000000000000000000000000000000000000000000007f0000000000000000000000000000000000000000000000000000000000000000836007600f307f0000000000000000000000000000000000000000000000000000000000000000600160009054906101000a90046001600160a01b031660405162000b9e9062001595565b62000bb198979695949392919062001aee565b604051809103906000f08015801562000bce573d6000803e3d6000fd5b5033600090815260026020526040812080546001600160a01b0319166001600160a01b0384161790559091505b600881101562000df8576040518060a0016040528082600781111562000c255762000c2562001c8b565b600781111562000c395762000c3962001c8b565b8152602001836001600160a01b031681526020016004831062000c5e57600062000c61565b60015b151581526020016007836008811062000c7e5762000c7e62001ca1565b01546001600160a01b03168152336020909101526003600062000ca2848862001c3c565b8152602081019190915260400160002081518154829060ff1916600183600781111562000cd35762000cd362001c8b565b02179055506020820151815460408401511515600160a81b0260ff60a81b196001600160a01b039384166101000216610100600160b01b03199092169190911717825560608301516001830180549183166001600160a01b03199283161790556080909301516002909201805492821692909316919091179091557f0000000000000000000000000000000000000000000000000000000000000000166340c10f193362000d82848862001c3c565b6040516001600160e01b031960e085901b1681526001600160a01b0390921660048301526024820152604401600060405180830381600087803b15801562000dc957600080fd5b505af115801562000dde573d6000803e3d6000fd5b50505050808062000def9062001c57565b91505062000bfb565b50505050565b62000e08620014ca565b62000e14600062001526565b565b600081815260036020526040812054600160a81b900460ff161562000eee5760008281526003602052604090819020600101549051637092736960e11b81526001600160a01b0391821660048201527f00000000000000000000000000000000000000000000000000000000000000009091169063e124e6d2906024015b60206040518083038186803b15801562000ead57600080fd5b505afa15801562000ec2573d6000803e3d6000fd5b505050506040513d601f19601f8201168201806040525081019062000ee89190620018e2565b92915050565b600082815260036020526040908190206001015490516340d3096b60e11b81526001600160a01b0391821660048201527f0000000000000000000000000000000000000000000000000000000000000000909116906381a612d69060240162000e94565b62000f5c620014ca565b806006600084600781111562000f765762000f7662001c8b565b600781111562000f8a5762000f8a62001c8b565b81526020810191909152604001600020805460ff19169115159190911790555050565b600781600881106200068c57600080fd5b336000908152600260205260409020546001600160a01b031662000ff65760405162461bcd60e51b8152600401620006d49062001c05565b6200100288856200140f565b8860008151811062001018576200101862001ca1565b60209081029190910181015133600081815260029093526040928390205492516323b872dd60e01b815260048101919091526001600160a01b039283166024820152604481018a90529116906323b872dd90606401602060405180830381600087803b1580156200108857600080fd5b505af11580156200109d573d6000803e3d6000fd5b505050506040513d601f19601f82011682018060405250810190620010c391906200183a565b5060026000336001600160a01b03166001600160a01b0316815260200190815260200160002060009054906101000a90046001600160a01b03166001600160a01b0316634fbb66c334338c8c8c8c8c8c8c8c8c600160009054906101000a90046001600160a01b03166040518d63ffffffff1660e01b8152600401620007799b9a9998979695949392919062001a78565b60008181526003602052604081205481908190819081908190819081906001600160a01b037f0000000000000000000000000000000000000000000000000000000000000000811691634a3f088d916101008204169060ff600160a81b90910416620011cc57600f546001600160a01b0316620011e8565b60008c8152600360205260409020600101546001600160a01b03165b60008d8152600360205260409081902060018101549054915160e086901b6001600160e01b03191681526001600160a01b0394851660048201529284166024840152929092166044820152600160a81b90910460ff16151560648201526084016101006040518083038186803b1580156200126257600080fd5b505afa15801562001277573d6000803e3d6000fd5b505050506040513d601f19601f820116820180604052508101906200129d9190620018fc565b809850819950829a50839b50849c50859d50869e50879f505050505050505050919395975091939597565b620012d2620014ca565b6001600160a01b038116620013395760405162461bcd60e51b815260206004820152602660248201527f4f776e61626c653a206e6577206f776e657220697320746865207a65726f206160448201526564647265737360d01b6064820152608401620006d4565b620013448162001526565b50565b336000908152600260205260409020546001600160a01b03166200137f5760405162461bcd60e51b8152600401620006d49062001c05565b60026000336001600160a01b03166001600160a01b0316815260200190815260200160002060009054906101000a90046001600160a01b03166001600160a01b0316636f7e879934338c8c8c8c8c8c8c8c8c600160009054906101000a90046001600160a01b03166040518d63ffffffff1660e01b8152600401620007799b9a9998979695949392919062001a00565b6001600160a01b038216600090815260046020908152604080832084151584529091528120546006919060ff16600781111562001450576200145062001c8b565b600781111562001464576200146462001c8b565b815260208101919091526040016000205460ff16620014c65760405162461bcd60e51b815260206004820152601f60248201527f74726164696e67206f6e207468697320706169722069732073746f70706564006044820152606401620006d4565b5050565b6000546001600160a01b0316331462000e145760405162461bcd60e51b815260206004820181905260248201527f4f776e61626c653a2063616c6c6572206973206e6f7420746865206f776e65726044820152606401620006d4565b600080546001600160a01b038381166001600160a01b0319831681178455604051919092169283917f8be0079c531659141344cd1fd0a4f28419497f9722a3daafe3b4186f6b6457e09190a35050565b6040518061010001604052806008906020820280368337509192915050565b6115408062001cdd83390190565b80356001600160a01b0381168114620015bb57600080fd5b919050565b600082601f830112620015d257600080fd5b8135602067ffffffffffffffff80831115620015f257620015f262001cb7565b8260051b604051601f19603f830116810181811084821117156200161a576200161a62001cb7565b604052848152838101925086840182880185018910156200163a57600080fd5b600092505b8583101562001668576200165381620015a3565b8452928401926001929092019184016200163f565b50979650505050505050565b803560088110620015bb57600080fd5b6000602082840312156200169757600080fd5b620016a282620015a3565b9392505050565b60008060408385031215620016bd57600080fd5b620016c883620015a3565b91506020830135620016da8162001ccd565b809150509250929050565b60008060008060008060008060006101208a8c0312156200170557600080fd5b893567ffffffffffffffff8111156200171d57600080fd5b6200172b8c828d01620015c0565b9950506200173c60208b01620015a3565b975060408a0135965060608a0135955060808a01356200175c8162001ccd565b945060a08a0135935060c08a0135925060e08a013591506101008a0135620017848162001ccd565b809150509295985092959850929598565b60008060008060008060008060006101208a8c031215620017b557600080fd5b893567ffffffffffffffff811115620017cd57600080fd5b620017db8c828d01620015c0565b995050620017ec60208b01620015a3565b975060408a0135965060608a0135955060808a0135945060a08a0135620018138162001ccd565b8094505060c08a0135925060e08a013591506101008a013590509295985092959850929598565b6000602082840312156200184d57600080fd5b8151620016a28162001ccd565b600080604083850312156200186e57600080fd5b82516200187b8162001ccd565b6020939093015192949293505050565b6000602082840312156200189e57600080fd5b620016a28262001674565b60008060408385031215620018bd57600080fd5b620016c88362001674565b600060208284031215620018db57600080fd5b5035919050565b600060208284031215620018f557600080fd5b5051919050565b600080600080600080600080610100898b0312156200191a57600080fd5b885197506020890151965060408901519550606089015194506080890151935060a0890151925060c0890151620019518162001ccd565b8092505060e089015190509295985092959890939650565b8060005b600481101562000df85781546001600160a01b03168452602090930192600191820191016200196d565b600081518084526020808501945080840160005b83811015620019d25781516001600160a01b031687529582019590820190600101620019ab565b509495945050505050565b60088110620019fc57634e487b7160e01b600052602160045260246000fd5b9052565b6001600160a01b038c811682526101606020830181905260009162001a288483018f62001997565b9c81166040850152606084019b909b525050608081019790975294151560a087015260c086019390935260e085019190915261010084015215156101208301529091166101409091015292915050565b6001600160a01b038c811682526101606020830181905260009162001aa08483018f62001997565b9c81166040850152606084019b909b525050608081019790975260a087019590955292151560c086015260e08501919091526101008401526101208301529091166101409091015292915050565b6001600160a01b03898116825288811660208084019190915261032083019190604084018a60005b600881101562001b355781518352918301919083019060010162001b16565b50505061014084018960005b600881101562001b6257815485168352918301916001918201910162001b41565b505050505062001b7761024083018762001969565b6001600160a01b0385166102c08301526001600160a01b0384166102e08301526001600160a01b0383166103008301529998505050505050505050565b6020810162000ee88284620019dd565b60a0810162001bd48288620019dd565b6001600160a01b03958616602083015293151560408201529184166060830152909216608090920191909152919050565b6020808252601b908201527f796f7520646f6e2774206861766520446f7070656c67616e6765720000000000604082015260600190565b6000821982111562001c525762001c5262001c75565b500190565b600060001982141562001c6e5762001c6e62001c75565b5060010190565b634e487b7160e01b600052601160045260246000fd5b634e487b7160e01b600052602160045260246000fd5b634e487b7160e01b600052603260045260246000fd5b634e487b7160e01b600052604160045260246000fd5b80151581146200134457600080fdfe60a0604052600d805460ff60a01b191690553480156200001e57600080fd5b50604051620015403803806200154083398101604081905262000041916200035a565b600080546001600160a01b0319166001600160a01b038a16178155606088901b6001600160601b0319166080525b6008811015620002015760048110156200012257858160088110620000985762000098620004bb565b602002015160048260048110620000b357620000b3620004bb565b0180546001600160a01b0319166001600160a01b0392909216919091179055848160048110620000e757620000e7620004bb565b602002015160088260048110620001025762000102620004bb565b0180546001600160a01b0319166001600160a01b03929092169190911790555b868160088110620001375762000137620004bb565b602002015160016000888460088110620001555762000155620004bb565b60200201516001600160a01b03166001600160a01b031681526020019081526020016000206000600484106200018d57600062000190565b60015b15151515815260200190815260200160002081905550600160026000898460088110620001c157620001c1620004bb565b6020020151815260200190815260200160002060006101000a81548160ff0219169083151502179055508080620001f89062000491565b9150506200006f565b50600380546001600160a01b03199081166001600160a01b0394851617909155600c8054821694841694909417909355600d8054909316911617905550620004ea9350505050565b80516200025681620004d1565b919050565b600082601f8301126200026d57600080fd5b604051608081016001600160401b03811182821017156200029e57634e487b7160e01b600052604160045260246000fd5b604052808360808101861015620002b457600080fd5b60005b6004811015620002e4578151620002ce81620004d1565b83526020928301929190910190600101620002b7565b509195945050505050565b600082601f8301126200030157600080fd5b6200030b62000459565b808385610100860111156200031f57600080fd5b60005b60088110156200034f5781516200033981620004d1565b8452602093840193919091019060010162000322565b509095945050505050565b600080600080600080600080610320898b0312156200037857600080fd5b88516200038581620004d1565b809850506020808a01516200039a81620004d1565b9750605f8a018b13620003ac57600080fd5b620003b662000459565b8060408c016101408d018e811115620003ce57600080fd5b60005b6008811015620003f057825185529385019391850191600101620003d1565b50829a50620004008f82620002ef565b99505050505050620004178a6102408b016200025b565b9350620004286102c08a0162000249565b9250620004396102e08a0162000249565b91506200044a6103008a0162000249565b90509295985092959890939650565b60405161010081016001600160401b03811182821017156200048b57634e487b7160e01b600052604160045260246000fd5b60405290565b6000600019821415620004b457634e487b7160e01b600052601160045260246000fd5b5060010190565b634e487b7160e01b600052603260045260246000fd5b6001600160a01b0381168114620004e757600080fd5b50565b60805160601c6110226200051e600039600081816102dd015281816105c2015281816106f3015261084701526110226000f3fe6080604052600436106100e05760003560e01c806361ef161f1161007f578063b7511c5b11610059578063b7511c5b14610278578063d6ef601314610298578063da91dfd5146102b8578063f887ea40146102cb57600080fd5b806361ef161f146102255780636f7e87991461024557806391c2c4691461025857600080fd5b80630cd790f7116100bb5780630cd790f71461018957806313a51b2e146101a957806328f371aa146101ef5780634fbb66c31461021057600080fd5b806230e1b5146100ec57806306b278cb146101295780630cb6aaf11461014957600080fd5b366100e757005b600080fd5b3480156100f857600080fd5b5061010c610107366004610dd4565b6102ff565b6040516001600160a01b0390911681526020015b60405180910390f35b34801561013557600080fd5b5060035461010c906001600160a01b031681565b34801561015557600080fd5b50610179610164366004610dd4565b60026020526000908152604090205460ff1681565b6040519015158152602001610120565b34801561019557600080fd5b50600d5461010c906001600160a01b031681565b3480156101b557600080fd5b506101e16101c4366004610d7e565b600160209081526000928352604080842090915290825290205481565b604051908152602001610120565b3480156101fb57600080fd5b50600d5461017990600160a01b900460ff1681565b61022361021e366004610ccf565b61031f565b005b34801561023157600080fd5b5060005461010c906001600160a01b031681565b610223610253366004610c07565b6103ad565b34801561026457600080fd5b50600c5461010c906001600160a01b031681565b34801561028457600080fd5b50610223610293366004610dd4565b6105a0565b3480156102a457600080fd5b5061010c6102b3366004610dd4565b6108fd565b6102236102c6366004610ccf565b61090d565b3480156102d757600080fd5b5061010c7f000000000000000000000000000000000000000000000000000000000000000081565b6008816004811061030f57600080fd5b01546001600160a01b0316905081565b61032a8b8a8761095a565b60005460405163f2ae372f60e01b81526001600160a01b039091169063f2ae372f90349061036e908e908e908e908e908e908e908e908e908e908e90600401610f06565b6000604051808303818588803b15801561038757600080fd5b505af115801561039b573d6000803e3d6000fd5b50505050505050505050505050505050565b6003546001600160a01b038a811660009081526001602090815260408083208b151584529091528082205490516331a9108f60e11b8152600481019190915290929190911690636352211e9060240160206040518083038186803b15801561041457600080fd5b505afa158015610428573d6000803e3d6000fd5b505050506040513d601f19601f8201168201806040525081019061044c9190610be3565b90508b6001600160a01b0316816001600160a01b0316146104ab5760405162461bcd60e51b8152602060048201526014602482015273796f7520646f6e277420686176652061206b657960601b60448201526064015b60405180910390fd5b600d546001600160a01b0316331461050c57600c546001600160a01b0316331461050c5760405162461bcd60e51b815260206004820152601260248201527134b73b30b634b21036b9b39739b2b73232b960711b60448201526064016104a2565b60008054906101000a90046001600160a01b03166001600160a01b0316637be7d141348d8d8d8d8d888e8e8e8e8e6040518d63ffffffff1660e01b81526004016105609b9a99989796959493929190610e31565b6000604051808303818588803b15801561057957600080fd5b505af115801561058d573d6000803e3d6000fd5b5050505050505050505050505050505050565b6000546040516338c74dd960e01b81526001600160a01b0391821660048201527f0000000000000000000000000000000000000000000000000000000000000000909116906338c74dd990602401600060405180830381600087803b15801561060857600080fd5b505af115801561061c573d6000803e3d6000fd5b5050505060005b60048110156108e6576004816004811061063f5761063f610f9a565b015460005460405163095ea7b360e01b81526001600160a01b0391821660048201526024810185905291169063095ea7b390604401602060405180830381600087803b15801561068e57600080fd5b505af11580156106a2573d6000803e3d6000fd5b505050506040513d601f19601f820116820180604052508101906106c69190610db7565b50600481600481106106da576106da610f9a565b015460405163095ea7b360e01b81526001600160a01b037f000000000000000000000000000000000000000000000000000000000000000081166004830152602482018590529091169063095ea7b390604401602060405180830381600087803b15801561074757600080fd5b505af115801561075b573d6000803e3d6000fd5b505050506040513d601f19601f8201168201806040525081019061077f9190610db7565b506008816004811061079357610793610f9a565b015460005460405163095ea7b360e01b81526001600160a01b0391821660048201526024810185905291169063095ea7b390604401602060405180830381600087803b1580156107e257600080fd5b505af11580156107f6573d6000803e3d6000fd5b505050506040513d601f19601f8201168201806040525081019061081a9190610db7565b506008816004811061082e5761082e610f9a565b015460405163095ea7b360e01b81526001600160a01b037f000000000000000000000000000000000000000000000000000000000000000081166004830152602482018590529091169063095ea7b390604401602060405180830381600087803b15801561089b57600080fd5b505af11580156108af573d6000803e3d6000fd5b505050506040513d601f19601f820116820180604052508101906108d39190610db7565b50806108de81610f71565b915050610623565b5050600d805460ff60a01b1916600160a01b179055565b6004816004811061030f57600080fd5b6109188b8a8761095a565b600054604051632dc4746360e11b81526001600160a01b0390911690635b88e8c690349061036e908e908e908d908d908d908d908d908d908d90600401610ea4565b6003546001600160a01b0383811660009081526001602090815260408083208615158452909152908190205490516331a9108f60e11b81528287169390921691636352211e916109b09160040190815260200190565b60206040518083038186803b1580156109c857600080fd5b505afa1580156109dc573d6000803e3d6000fd5b505050506040513d601f19601f82011682018060405250810190610a009190610be3565b6001600160a01b031614610a4d5760405162461bcd60e51b8152602060048201526014602482015273796f7520646f6e277420686176652061206b657960601b60448201526064016104a2565b6001600160a01b038216600090815260016020908152604080832084151584528252808320548352600290915290205460ff16610aba5760405162461bcd60e51b815260206004820152600b60248201526a696e76616c6964206b657960a81b60448201526064016104a2565b600d546001600160a01b03163314610b1b57600c546001600160a01b03163314610b1b5760405162461bcd60e51b815260206004820152601260248201527134b73b30b634b21036b9b39739b2b73232b960711b60448201526064016104a2565b505050565b8035610b2b81610fc6565b919050565b600082601f830112610b4157600080fd5b8135602067ffffffffffffffff80831115610b5e57610b5e610fb0565b8260051b604051601f19603f83011681018181108482111715610b8357610b83610fb0565b60405284815283810192508684018288018501891015610ba257600080fd5b600092505b85831015610bcc57610bb881610b20565b845292840192600192909201918401610ba7565b50979650505050505050565b8035610b2b81610fde565b600060208284031215610bf557600080fd5b8151610c0081610fc6565b9392505050565b60008060008060008060008060008060006101608c8e031215610c2957600080fd5b8b35610c3481610fc6565b9a5060208c013567ffffffffffffffff811115610c5057600080fd5b610c5c8e828f01610b30565b9a505060408c0135610c6d81610fc6565b985060608c0135975060808c01359650610c8960a08d01610bd8565b955060c08c0135945060e08c013593506101008c01359250610cae6101208d01610bd8565b9150610cbd6101408d01610b20565b90509295989b509295989b9093969950565b60008060008060008060008060008060006101608c8e031215610cf157600080fd5b8b35610cfc81610fc6565b9a5060208c013567ffffffffffffffff811115610d1857600080fd5b610d248e828f01610b30565b9a505060408c0135610d3581610fc6565b985060608c0135975060808c0135965060a08c01359550610d5860c08d01610bd8565b945060e08c013593506101008c013592506101208c01359150610cbd6101408d01610b20565b60008060408385031215610d9157600080fd5b8235610d9c81610fc6565b91506020830135610dac81610fde565b809150509250929050565b600060208284031215610dc957600080fd5b8151610c0081610fde565b600060208284031215610de657600080fd5b5035919050565b600081518084526020808501945080840160005b83811015610e265781516001600160a01b031687529582019590820190600101610e01565b509495945050505050565b6000610160808352610e458184018f610ded565b6001600160a01b039d8e166020850152604084019c909c5250506060810198909852951515608088015293881660a087015260c086019290925260e0850152610100840152151561012083015290921661014090920191909152919050565b6000610120808352610eb88184018d610ded565b6001600160a01b039b8c166020850152604084019a909a5250506060810196909652931515608086015260a085019290925260c084015260e083015290921661010090920191909152919050565b6000610140808352610f1a8184018e610ded565b6001600160a01b039c8d166020850152604084019b909b5250506060810197909752608087019590955292151560a086015260c085019190915260e084015261010083015290921661012090920191909152919050565b6000600019821415610f9357634e487b7160e01b600052601160045260246000fd5b5060010190565b634e487b7160e01b600052603260045260246000fd5b634e487b7160e01b600052604160045260246000fd5b6001600160a01b0381168114610fdb57600080fd5b50565b8015158114610fdb57600080fdfea264697066735822122032e8fe70cbfef3c0ccdafcd2cbef472ae472c88433a74d2e158d2af6dee5c4f064736f6c63430008060033a2646970667358221220a4cc1bab4fb5736418d51752a01f67c331e8306c49f099ba9172cfffffddacaf64736f6c63430008060033",
  "devdoc": {
    "kind": "dev",
    "methods": {
      "currentPrice(uint256)": {
        "params": {
          "id": "position ID"
        }
      },
      "getPosition(uint256)": {
        "params": {
          "id": "collateral ID*"
        }
      },
      "getPositionDelta(uint256)": {
        "params": {
          "id": "collateral ID*"
        }
      },
      "owner()": {
        "details": "Returns the address of the current owner."
      },
      "renounceOwnership()": {
        "details": "Leaves the contract without owner. It will not be possible to call `onlyOwner` functions anymore. Can only be called by the current owner. NOTE: Renouncing ownership will leave the contract without an owner, thereby removing any functionality that is only available to the owner."
      },
      "setDDL_GMX(address)": {
        "params": {
          "value": "the address of DDL_GMX*"
        }
      },
      "setPermission(uint8,bool)": {
        "params": {
          "symbol": "trough name",
          "value": "true or false *"
        }
      },
      "transferOwnership(address)": {
        "details": "Transfers ownership of the contract to a new account (`newOwner`). Can only be called by the current owner."
      }
    },
    "version": 1
  },
  "userdoc": {
    "kind": "user",
    "methods": {
      "createDecreasePosition(address[],address,uint256,uint256,bool,uint256,uint256,uint256,bool)": {
        "notice": "used to decrease position on GMX*"
      },
      "createDoppelgangerGMX()": {
        "notice": "creates Doppelganger account for the user*"
      },
      "createIncreasePosition(address[],address,uint256,uint256,uint256,bool,uint256,uint256,bytes32)": {
        "notice": "used to increase position on GMX*"
      },
      "createIncreasePositionETH(address[],address,uint256,uint256,uint256,bool,uint256,uint256,bytes32)": {
        "notice": "used to increase position on GMX (only ETH)*"
      },
      "currentPrice(uint256)": {
        "notice": "return currentPrice for the asset*"
      },
      "getPosition(uint256)": {
        "notice": "returns getPosition by the collateral"
      },
      "getPositionDelta(uint256)": {
        "notice": "returns getPositionDelta from GMX by the collateral ID"
      },
      "setDDL_GMX(address)": {
        "notice": "set new DDL_GMX address"
      },
      "setPermission(uint8,bool)": {
        "notice": "set permissions for trading pairs"
      }
    },
    "version": 1
  },
  "storageLayout": {
    "storage": [
      {
        "astId": 592,
        "contract": "contracts/AccountManager.sol:AccountManager",
        "label": "_owner",
        "offset": 0,
        "slot": "0",
        "type": "t_address"
      },
      {
        "astId": 5570,
        "contract": "contracts/AccountManager.sol:AccountManager",
        "label": "ddl_gmx",
        "offset": 0,
        "slot": "1",
        "type": "t_address"
      },
      {
        "astId": 5582,
        "contract": "contracts/AccountManager.sol:AccountManager",
        "label": "doppelgangerMap",
        "offset": 0,
        "slot": "2",
        "type": "t_mapping(t_address,t_address_payable)"
      },
      {
        "astId": 5600,
        "contract": "contracts/AccountManager.sol:AccountManager",
        "label": "keyData",
        "offset": 0,
        "slot": "3",
        "type": "t_mapping(t_uint256,t_struct(KeyInformation)5594_storage)"
      },
      {
        "astId": 5607,
        "contract": "contracts/AccountManager.sol:AccountManager",
        "label": "symbolByIndexToken",
        "offset": 0,
        "slot": "4",
        "type": "t_mapping(t_address,t_mapping(t_bool,t_enum(Symbols)9553))"
      },
      {
        "astId": 5613,
        "contract": "contracts/AccountManager.sol:AccountManager",
        "label": "indexTokenBySymbol",
        "offset": 0,
        "slot": "5",
        "type": "t_mapping(t_enum(Symbols)9553,t_address)"
      },
      {
        "astId": 5618,
        "contract": "contracts/AccountManager.sol:AccountManager",
        "label": "permissions",
        "offset": 0,
        "slot": "6",
        "type": "t_mapping(t_enum(Symbols)9553,t_bool)"
      },
      {
        "astId": 5622,
        "contract": "contracts/AccountManager.sol:AccountManager",
        "label": "indexTokenArr",
        "offset": 0,
        "slot": "7",
        "type": "t_array(t_address)8_storage"
      },
      {
        "astId": 5626,
        "contract": "contracts/AccountManager.sol:AccountManager",
        "label": "stablecoinsArray",
        "offset": 0,
        "slot": "15",
        "type": "t_array(t_address)4_storage"
      }
    ],
    "types": {
      "t_address": {
        "encoding": "inplace",
        "label": "address",
        "numberOfBytes": "20"
      },
      "t_address_payable": {
        "encoding": "inplace",
        "label": "address payable",
        "numberOfBytes": "20"
      },
      "t_array(t_address)4_storage": {
        "base": "t_address",
        "encoding": "inplace",
        "label": "address[4]",
        "numberOfBytes": "128"
      },
      "t_array(t_address)8_storage": {
        "base": "t_address",
        "encoding": "inplace",
        "label": "address[8]",
        "numberOfBytes": "256"
      },
      "t_bool": {
        "encoding": "inplace",
        "label": "bool",
        "numberOfBytes": "1"
      },
      "t_enum(Symbols)9553": {
        "encoding": "inplace",
        "label": "enum IAccountManager.Symbols",
        "numberOfBytes": "1"
      },
      "t_mapping(t_address,t_address_payable)": {
        "encoding": "mapping",
        "key": "t_address",
        "label": "mapping(address => address payable)",
        "numberOfBytes": "32",
        "value": "t_address_payable"
      },
      "t_mapping(t_address,t_mapping(t_bool,t_enum(Symbols)9553))": {
        "encoding": "mapping",
        "key": "t_address",
        "label": "mapping(address => mapping(bool => enum IAccountManager.Symbols))",
        "numberOfBytes": "32",
        "value": "t_mapping(t_bool,t_enum(Symbols)9553)"
      },
      "t_mapping(t_bool,t_enum(Symbols)9553)": {
        "encoding": "mapping",
        "key": "t_bool",
        "label": "mapping(bool => enum IAccountManager.Symbols)",
        "numberOfBytes": "32",
        "value": "t_enum(Symbols)9553"
      },
      "t_mapping(t_enum(Symbols)9553,t_address)": {
        "encoding": "mapping",
        "key": "t_enum(Symbols)9553",
        "label": "mapping(enum IAccountManager.Symbols => address)",
        "numberOfBytes": "32",
        "value": "t_address"
      },
      "t_mapping(t_enum(Symbols)9553,t_bool)": {
        "encoding": "mapping",
        "key": "t_enum(Symbols)9553",
        "label": "mapping(enum IAccountManager.Symbols => bool)",
        "numberOfBytes": "32",
        "value": "t_bool"
      },
      "t_mapping(t_uint256,t_struct(KeyInformation)5594_storage)": {
        "encoding": "mapping",
        "key": "t_uint256",
        "label": "mapping(uint256 => struct AccountManager.KeyInformation)",
        "numberOfBytes": "32",
        "value": "t_struct(KeyInformation)5594_storage"
      },
      "t_struct(KeyInformation)5594_storage": {
        "encoding": "inplace",
        "label": "struct AccountManager.KeyInformation",
        "members": [
          {
            "astId": 5585,
            "contract": "contracts/AccountManager.sol:AccountManager",
            "label": "symbol",
            "offset": 0,
            "slot": "0",
            "type": "t_enum(Symbols)9553"
          },
          {
            "astId": 5587,
            "contract": "contracts/AccountManager.sol:AccountManager",
            "label": "doppelgangerContract",
            "offset": 1,
            "slot": "0",
            "type": "t_address"
          },
          {
            "astId": 5589,
            "contract": "contracts/AccountManager.sol:AccountManager",
            "label": "isLong",
            "offset": 21,
            "slot": "0",
            "type": "t_bool"
          },
          {
            "astId": 5591,
            "contract": "contracts/AccountManager.sol:AccountManager",
            "label": "indexToken",
            "offset": 0,
            "slot": "1",
            "type": "t_address"
          },
          {
            "astId": 5593,
            "contract": "contracts/AccountManager.sol:AccountManager",
            "label": "user",
            "offset": 0,
            "slot": "2",
            "type": "t_address"
          }
        ],
        "numberOfBytes": "96"
      },
      "t_uint256": {
        "encoding": "inplace",
        "label": "uint256",
        "numberOfBytes": "32"
      }
    }
  }
}