{
  "address": "0x0c6FE8F0C298C441467B66F2fDbCECAdBF20E8b7",
  "abi": [
    {
      "inputs": [
        {
          "internalType": "contract IRouter",
          "name": "_router",
          "type": "address"
        },
        {
          "internalType": "contract IOrderBook",
          "name": "_orderBook",
          "type": "address"
        },
        {
          "internalType": "address[8]",
          "name": "_indexTokenArr",
          "type": "address[8]"
        },
        {
          "internalType": "bool[8]",
          "name": "_permissions",
          "type": "bool[8]"
        }
      ],
      "stateMutability": "nonpayable",
      "type": "constructor"
    },
    {
      "anonymous": false,
      "inputs": [
        {
          "indexed": true,
          "internalType": "address",
          "name": "owner",
          "type": "address"
        },
        {
          "indexed": true,
          "internalType": "address",
          "name": "approved",
          "type": "address"
        },
        {
          "indexed": true,
          "internalType": "uint256",
          "name": "tokenId",
          "type": "uint256"
        }
      ],
      "name": "Approval",
      "type": "event"
    },
    {
      "anonymous": false,
      "inputs": [
        {
          "indexed": true,
          "internalType": "address",
          "name": "owner",
          "type": "address"
        },
        {
          "indexed": true,
          "internalType": "address",
          "name": "operator",
          "type": "address"
        },
        {
          "indexed": false,
          "internalType": "bool",
          "name": "approved",
          "type": "bool"
        }
      ],
      "name": "ApprovalForAll",
      "type": "event"
    },
    {
      "anonymous": false,
      "inputs": [
        {
          "indexed": true,
          "internalType": "address",
          "name": "previousOwner",
          "type": "address"
        },
        {
          "indexed": true,
          "internalType": "address",
          "name": "newOwner",
          "type": "address"
        }
      ],
      "name": "OwnershipTransferred",
      "type": "event"
    },
    {
      "anonymous": false,
      "inputs": [
        {
          "indexed": true,
          "internalType": "address",
          "name": "from",
          "type": "address"
        },
        {
          "indexed": true,
          "internalType": "address",
          "name": "to",
          "type": "address"
        },
        {
          "indexed": true,
          "internalType": "uint256",
          "name": "tokenId",
          "type": "uint256"
        }
      ],
      "name": "Transfer",
      "type": "event"
    },
    {
      "inputs": [
        {
          "internalType": "address",
          "name": "to",
          "type": "address"
        },
        {
          "internalType": "uint256",
          "name": "tokenId",
          "type": "uint256"
        }
      ],
      "name": "approve",
      "outputs": [],
      "stateMutability": "nonpayable",
      "type": "function"
    },
    {
      "inputs": [
        {
          "internalType": "address",
          "name": "owner",
          "type": "address"
        }
      ],
      "name": "balanceOf",
      "outputs": [
        {
          "internalType": "uint256",
          "name": "",
          "type": "uint256"
        }
      ],
      "stateMutability": "view",
      "type": "function"
    },
    {
      "inputs": [
        {
          "internalType": "address",
          "name": "_indexToken",
          "type": "address"
        },
        {
          "internalType": "uint256",
          "name": "_sizeDelta",
          "type": "uint256"
        },
        {
          "internalType": "address",
          "name": "_collateralToken",
          "type": "address"
        },
        {
          "internalType": "uint256",
          "name": "_collateralDelta",
          "type": "uint256"
        },
        {
          "internalType": "bool",
          "name": "_isLong",
          "type": "bool"
        },
        {
          "internalType": "uint256",
          "name": "_triggerPrice",
          "type": "uint256"
        },
        {
          "internalType": "bool",
          "name": "_triggerAboveThreshold",
          "type": "bool"
        }
      ],
      "name": "createDecreaseOrder",
      "outputs": [],
      "stateMutability": "payable",
      "type": "function"
    },
    {
      "inputs": [
        {
          "internalType": "address[]",
          "name": "_path",
          "type": "address[]"
        },
        {
          "internalType": "address",
          "name": "_indexToken",
          "type": "address"
        },
        {
          "internalType": "uint256",
          "name": "_collateralDelta",
          "type": "uint256"
        },
        {
          "internalType": "uint256",
          "name": "_sizeDelta",
          "type": "uint256"
        },
        {
          "internalType": "bool",
          "name": "_isLong",
          "type": "bool"
        },
        {
          "internalType": "uint256",
          "name": "_acceptablePrice",
          "type": "uint256"
        },
        {
          "internalType": "uint256",
          "name": "_minOut",
          "type": "uint256"
        },
        {
          "internalType": "uint256",
          "name": "_executionFee",
          "type": "uint256"
        },
        {
          "internalType": "bool",
          "name": "_withdrawETH",
          "type": "bool"
        },
        {
          "internalType": "address",
          "name": "_callbackTarget",
          "type": "address"
        }
      ],
      "name": "createDecreasePosition",
      "outputs": [],
      "stateMutability": "payable",
      "type": "function"
    },
    {
      "inputs": [],
      "name": "createDoppelgangerGMX",
      "outputs": [],
      "stateMutability": "nonpayable",
      "type": "function"
    },
    {
      "inputs": [
        {
          "internalType": "address[]",
          "name": "_path",
          "type": "address[]"
        },
        {
          "internalType": "uint256",
          "name": "_amountIn",
          "type": "uint256"
        },
        {
          "internalType": "address",
          "name": "_indexToken",
          "type": "address"
        },
        {
          "internalType": "uint256",
          "name": "_minOut",
          "type": "uint256"
        },
        {
          "internalType": "uint256",
          "name": "_sizeDelta",
          "type": "uint256"
        },
        {
          "internalType": "address",
          "name": "_collateralToken",
          "type": "address"
        },
        {
          "internalType": "bool",
          "name": "_isLong",
          "type": "bool"
        },
        {
          "internalType": "uint256",
          "name": "_triggerPrice",
          "type": "uint256"
        },
        {
          "internalType": "bool",
          "name": "_triggerAboveThreshold",
          "type": "bool"
        },
        {
          "internalType": "uint256",
          "name": "_executionFee",
          "type": "uint256"
        },
        {
          "internalType": "bool",
          "name": "_shouldWrap",
          "type": "bool"
        }
      ],
      "name": "createIncreaseOrder",
      "outputs": [],
      "stateMutability": "payable",
      "type": "function"
    },
    {
      "inputs": [
        {
          "internalType": "address[]",
          "name": "_path",
          "type": "address[]"
        },
        {
          "internalType": "address",
          "name": "_indexToken",
          "type": "address"
        },
        {
          "internalType": "uint256",
          "name": "_amountIn",
          "type": "uint256"
        },
        {
          "internalType": "uint256",
          "name": "_minOut",
          "type": "uint256"
        },
        {
          "internalType": "uint256",
          "name": "_sizeDelta",
          "type": "uint256"
        },
        {
          "internalType": "bool",
          "name": "_isLong",
          "type": "bool"
        },
        {
          "internalType": "uint256",
          "name": "_acceptablePrice",
          "type": "uint256"
        },
        {
          "internalType": "bytes32",
          "name": "_referralCode",
          "type": "bytes32"
        },
        {
          "internalType": "address",
          "name": "_callbackTarget",
          "type": "address"
        }
      ],
      "name": "createIncreasePosition",
      "outputs": [],
      "stateMutability": "payable",
      "type": "function"
    },
    {
      "inputs": [
        {
          "internalType": "address[]",
          "name": "_path",
          "type": "address[]"
        },
        {
          "internalType": "address",
          "name": "_indexToken",
          "type": "address"
        },
        {
          "internalType": "uint256",
          "name": "_amountIn",
          "type": "uint256"
        },
        {
          "internalType": "uint256",
          "name": "_minOut",
          "type": "uint256"
        },
        {
          "internalType": "uint256",
          "name": "_sizeDelta",
          "type": "uint256"
        },
        {
          "internalType": "bool",
          "name": "_isLong",
          "type": "bool"
        },
        {
          "internalType": "uint256",
          "name": "_acceptablePrice",
          "type": "uint256"
        },
        {
          "internalType": "uint256",
          "name": "_executionFee",
          "type": "uint256"
        },
        {
          "internalType": "bytes32",
          "name": "_referralCode",
          "type": "bytes32"
        },
        {
          "internalType": "address",
          "name": "_callbackTarget",
          "type": "address"
        }
      ],
      "name": "createIncreasePositionETH",
      "outputs": [],
      "stateMutability": "payable",
      "type": "function"
    },
    {
      "inputs": [
        {
          "internalType": "uint256",
          "name": "id",
          "type": "uint256"
        }
      ],
      "name": "currentPrice",
      "outputs": [
        {
          "internalType": "uint256",
          "name": "",
          "type": "uint256"
        }
      ],
      "stateMutability": "view",
      "type": "function"
    },
    {
      "inputs": [],
      "name": "ddl_gmx",
      "outputs": [
        {
          "internalType": "contract IDDL_GMX",
          "name": "",
          "type": "address"
        }
      ],
      "stateMutability": "view",
      "type": "function"
    },
    {
      "inputs": [
        {
          "internalType": "address",
          "name": "",
          "type": "address"
        }
      ],
      "name": "doppelgangerMap",
      "outputs": [
        {
          "internalType": "address",
          "name": "",
          "type": "address"
        }
      ],
      "stateMutability": "view",
      "type": "function"
    },
    {
      "inputs": [
        {
          "internalType": "uint256",
          "name": "tokenId",
          "type": "uint256"
        }
      ],
      "name": "getApproved",
      "outputs": [
        {
          "internalType": "address",
          "name": "",
          "type": "address"
        }
      ],
      "stateMutability": "view",
      "type": "function"
    },
    {
      "inputs": [
        {
          "internalType": "uint256",
          "name": "id",
          "type": "uint256"
        }
      ],
      "name": "getPosition",
      "outputs": [
        {
          "internalType": "uint256",
          "name": "size",
          "type": "uint256"
        },
        {
          "internalType": "uint256",
          "name": "collateral",
          "type": "uint256"
        },
        {
          "internalType": "uint256",
          "name": "averagePrice",
          "type": "uint256"
        },
        {
          "internalType": "uint256",
          "name": "entryFundingRate",
          "type": "uint256"
        },
        {
          "internalType": "uint256",
          "name": "reserveAmount",
          "type": "uint256"
        },
        {
          "internalType": "uint256",
          "name": "realisedPnl",
          "type": "uint256"
        },
        {
          "internalType": "bool",
          "name": "isProfit",
          "type": "bool"
        },
        {
          "internalType": "uint256",
          "name": "lastIncreasedTime",
          "type": "uint256"
        }
      ],
      "stateMutability": "view",
      "type": "function"
    },
    {
      "inputs": [
        {
          "internalType": "uint256",
          "name": "id",
          "type": "uint256"
        }
      ],
      "name": "getPositionDelta",
      "outputs": [
        {
          "internalType": "bool",
          "name": "isProfit",
          "type": "bool"
        },
        {
          "internalType": "uint256",
          "name": "profit",
          "type": "uint256"
        }
      ],
      "stateMutability": "view",
      "type": "function"
    },
    {
      "inputs": [
        {
          "internalType": "string",
          "name": "",
          "type": "string"
        }
      ],
      "name": "indexTokenBySymbol",
      "outputs": [
        {
          "internalType": "address",
          "name": "",
          "type": "address"
        }
      ],
      "stateMutability": "view",
      "type": "function"
    },
    {
      "inputs": [
        {
          "internalType": "address",
          "name": "owner",
          "type": "address"
        },
        {
          "internalType": "address",
          "name": "operator",
          "type": "address"
        }
      ],
      "name": "isApprovedForAll",
      "outputs": [
        {
          "internalType": "bool",
          "name": "",
          "type": "bool"
        }
      ],
      "stateMutability": "view",
      "type": "function"
    },
    {
      "inputs": [
        {
          "internalType": "uint256",
          "name": "",
          "type": "uint256"
        }
      ],
      "name": "keyData",
      "outputs": [
        {
          "internalType": "string",
          "name": "symbol",
          "type": "string"
        },
        {
          "internalType": "address",
          "name": "doppelgangerContract",
          "type": "address"
        },
        {
          "internalType": "bool",
          "name": "isLong",
          "type": "bool"
        },
        {
          "internalType": "address",
          "name": "indexToken",
          "type": "address"
        },
        {
          "internalType": "address",
          "name": "user",
          "type": "address"
        }
      ],
      "stateMutability": "view",
      "type": "function"
    },
    {
      "inputs": [],
      "name": "name",
      "outputs": [
        {
          "internalType": "string",
          "name": "",
          "type": "string"
        }
      ],
      "stateMutability": "view",
      "type": "function"
    },
    {
      "inputs": [],
      "name": "orderBook",
      "outputs": [
        {
          "internalType": "contract IOrderBook",
          "name": "",
          "type": "address"
        }
      ],
      "stateMutability": "view",
      "type": "function"
    },
    {
      "inputs": [],
      "name": "owner",
      "outputs": [
        {
          "internalType": "address",
          "name": "",
          "type": "address"
        }
      ],
      "stateMutability": "view",
      "type": "function"
    },
    {
      "inputs": [
        {
          "internalType": "uint256",
          "name": "tokenId",
          "type": "uint256"
        }
      ],
      "name": "ownerOf",
      "outputs": [
        {
          "internalType": "address",
          "name": "",
          "type": "address"
        }
      ],
      "stateMutability": "view",
      "type": "function"
    },
    {
      "inputs": [
        {
          "internalType": "address",
          "name": "",
          "type": "address"
        }
      ],
      "name": "permissions",
      "outputs": [
        {
          "internalType": "bool",
          "name": "",
          "type": "bool"
        }
      ],
      "stateMutability": "view",
      "type": "function"
    },
    {
      "inputs": [],
      "name": "renounceOwnership",
      "outputs": [],
      "stateMutability": "nonpayable",
      "type": "function"
    },
    {
      "inputs": [],
      "name": "router",
      "outputs": [
        {
          "internalType": "contract IRouter",
          "name": "",
          "type": "address"
        }
      ],
      "stateMutability": "view",
      "type": "function"
    },
    {
      "inputs": [
        {
          "internalType": "address",
          "name": "from",
          "type": "address"
        },
        {
          "internalType": "address",
          "name": "to",
          "type": "address"
        },
        {
          "internalType": "uint256",
          "name": "tokenId",
          "type": "uint256"
        }
      ],
      "name": "safeTransferFrom",
      "outputs": [],
      "stateMutability": "nonpayable",
      "type": "function"
    },
    {
      "inputs": [
        {
          "internalType": "address",
          "name": "from",
          "type": "address"
        },
        {
          "internalType": "address",
          "name": "to",
          "type": "address"
        },
        {
          "internalType": "uint256",
          "name": "tokenId",
          "type": "uint256"
        },
        {
          "internalType": "bytes",
          "name": "data",
          "type": "bytes"
        }
      ],
      "name": "safeTransferFrom",
      "outputs": [],
      "stateMutability": "nonpayable",
      "type": "function"
    },
    {
      "inputs": [
        {
          "internalType": "address",
          "name": "operator",
          "type": "address"
        },
        {
          "internalType": "bool",
          "name": "approved",
          "type": "bool"
        }
      ],
      "name": "setApprovalForAll",
      "outputs": [],
      "stateMutability": "nonpayable",
      "type": "function"
    },
    {
      "inputs": [
        {
          "internalType": "contract IDDL_GMX",
          "name": "value",
          "type": "address"
        }
      ],
      "name": "setDDL_GMX",
      "outputs": [],
      "stateMutability": "nonpayable",
      "type": "function"
    },
    {
      "inputs": [
        {
          "internalType": "string",
          "name": "symbol",
          "type": "string"
        },
        {
          "internalType": "bool",
          "name": "value",
          "type": "bool"
        }
      ],
      "name": "setPermission",
      "outputs": [],
      "stateMutability": "nonpayable",
      "type": "function"
    },
    {
      "inputs": [
        {
          "internalType": "bytes4",
          "name": "interfaceId",
          "type": "bytes4"
        }
      ],
      "name": "supportsInterface",
      "outputs": [
        {
          "internalType": "bool",
          "name": "",
          "type": "bool"
        }
      ],
      "stateMutability": "view",
      "type": "function"
    },
    {
      "inputs": [],
      "name": "symbol",
      "outputs": [
        {
          "internalType": "string",
          "name": "",
          "type": "string"
        }
      ],
      "stateMutability": "view",
      "type": "function"
    },
    {
      "inputs": [
        {
          "internalType": "address",
          "name": "",
          "type": "address"
        }
      ],
      "name": "symbolByIndexToken",
      "outputs": [
        {
          "internalType": "string",
          "name": "",
          "type": "string"
        }
      ],
      "stateMutability": "view",
      "type": "function"
    },
    {
      "inputs": [],
      "name": "tokenId",
      "outputs": [
        {
          "internalType": "uint256",
          "name": "",
          "type": "uint256"
        }
      ],
      "stateMutability": "view",
      "type": "function"
    },
    {
      "inputs": [
        {
          "internalType": "uint256",
          "name": "tokenId",
          "type": "uint256"
        }
      ],
      "name": "tokenURI",
      "outputs": [
        {
          "internalType": "string",
          "name": "",
          "type": "string"
        }
      ],
      "stateMutability": "view",
      "type": "function"
    },
    {
      "inputs": [
        {
          "internalType": "address",
          "name": "from",
          "type": "address"
        },
        {
          "internalType": "address",
          "name": "to",
          "type": "address"
        },
        {
          "internalType": "uint256",
          "name": "tokenId",
          "type": "uint256"
        }
      ],
      "name": "transferFrom",
      "outputs": [],
      "stateMutability": "nonpayable",
      "type": "function"
    },
    {
      "inputs": [
        {
          "internalType": "address",
          "name": "newOwner",
          "type": "address"
        }
      ],
      "name": "transferOwnership",
      "outputs": [],
      "stateMutability": "nonpayable",
      "type": "function"
    }
  ],
  "transactionHash": "0x42bc7183ff589904400c408af80cd1a0c55818db11e21acbd029c18b21ad00cf",
  "args": [
    "0xaBBc5F99639c9B6bCb58544ddf04EFA6802F4064",
    "0x09f77e8a13de9a35a7231028187e9fd5db8a2acb",
    [
      "0x82aF49447D8a07e3bd95BD0d56f35241523fBab1",
      "0x2f2a2543B76A4166549F7aaB2e75Bef0aefC5B0f",
      "0xf97f4df75117a78c1A5a0DBb814Af92458539FB4",
      "0xFa7F8980b0f1E64A2062791cc3b0871572f1F7f0",
      "0x82aF49447D8a07e3bd95BD0d56f35241523fBab1",
      "0x2f2a2543B76A4166549F7aaB2e75Bef0aefC5B0f",
      "0xf97f4df75117a78c1A5a0DBb814Af92458539FB4",
      "0xFa7F8980b0f1E64A2062791cc3b0871572f1F7f0"
    ],
    [
      true,
      true,
      true,
      true,
      true,
      true,
      true,
      true
    ]
  ],
  "numDeployments": 2,
  "solcInputHash": "945be88ac65da4ddc728056220563e0c",
  "bytecode": "0x60006008908155600c6101c08181526b4554485f5553445f4c4f4e4760a01b6101e05260c09081526102008281526b4254435f5553445f4c4f4e4760a01b6102205260e052600d6102408181526c4c494e4b5f5553445f4c4f4e4760981b61026052610100526102809283526b554e495f5553445f4c4f4e4760a01b6102a052610120929092526102c08281526c11551217d554d117d4d213d495609a1b6102e052610140526103008281526c109510d7d554d117d4d213d495609a1b6103205261016052600e6103408181526d13125392d7d554d117d4d213d49560921b61036052610180526103c06040526103809283526c15539257d554d117d4d213d495609a1b6103a0526101a0929092526200011992620003d1565b503480156200012757600080fd5b5060405162005fe138038062005fe18339810160408190526200014a916200066c565b604080518082018252601981527f474d5820706f736974696f6e20746f6b656e697a6174696f6e0000000000000060208083019182528351808501909452600584526411d356141560da1b908401528151919291620001ac9160009162000428565b508051620001c290600190602084019062000428565b505050620001df620001d96200037b60201b60201c565b6200037f565b6001600160601b0319606085811b821660805284901b1660a052620002086016836008620004b3565b5060005b60088110156200037057600e81600881106200022c576200022c6200086a565b01600b60008584600881106200024657620002466200086a565b60200201516001600160a01b03166001600160a01b03168152602001908152602001600020908054620002799062000803565b62000286929190620004fe565b508281600881106200029c576200029c6200086a565b6020020151600c600e8360088110620002b957620002b96200086a565b01604051620002c9919062000727565b90815260405190819003602001902080546001600160a01b03929092166001600160a01b03199092169190911790558181600881106200030d576200030d6200086a565b6020020151600d60008584600881106200032b576200032b6200086a565b602090810291909101516001600160a01b03168252810191909152604001600020805460ff191691151591909117905580620003678162000840565b9150506200020c565b505050505062000896565b3390565b600680546001600160a01b038381166001600160a01b0319831681179093556040519116919082907f8be0079c531659141344cd1fd0a4f28419497f9722a3daafe3b4186f6b6457e090600090a35050565b826008810192821562000416579160200282015b828111156200041657825180516200040591849160209091019062000428565b5091602001919060010190620003e5565b506200042492915062000582565b5090565b828054620004369062000803565b90600052602060002090601f0160209004810192826200045a5760008555620004a5565b82601f106200047557805160ff1916838001178555620004a5565b82800160010185558215620004a5579182015b82811115620004a557825182559160200191906001019062000488565b5062000424929150620005a3565b8260088101928215620004a5579160200282015b82811115620004a557825182546001600160a01b0319166001600160a01b03909116178255602090920191600190910190620004c7565b8280546200050c9062000803565b90600052602060002090601f016020900481019282620005305760008555620004a5565b82601f10620005435780548555620004a5565b82800160010185558215620004a557600052602060002091601f016020900482015b82811115620004a557825482559160010191906001019062000565565b8082111562000424576000620005998282620005ba565b5060010162000582565b5b80821115620004245760008155600101620005a4565b508054620005c89062000803565b6000825580601f10620005d9575050565b601f016020900490600052602060002090810190620005f99190620005a3565b50565b600082601f8301126200060e57600080fd5b62000618620007cb565b808385610100860111156200062c57600080fd5b6000805b60088110156200066057825180151581146200064a578283fd5b8552602094850194929092019160010162000630565b50919695505050505050565b60008060008061024085870312156200068457600080fd5b8451620006918162000880565b80945050602080860151620006a68162000880565b9350605f86018713620006b857600080fd5b620006c2620007cb565b806040880161014089018a811115620006da57600080fd5b60005b600881101562000707578251620006f48162000880565b85529385019391850191600101620006dd565b50829650620007178b82620005fc565b9550505050505092959194509250565b600080835481600182811c9150808316806200074457607f831692505b60208084108214156200076557634e487b7160e01b86526022600452602486fd5b8180156200077c57600181146200078e57620007bd565b60ff19861689528489019650620007bd565b60008a81526020902060005b86811015620007b55781548b8201529085019083016200079a565b505084890196505b509498975050505050505050565b60405161010081016001600160401b0381118282101715620007fd57634e487b7160e01b600052604160045260246000fd5b60405290565b600181811c908216806200081857607f821691505b602082108114156200083a57634e487b7160e01b600052602260045260246000fd5b50919050565b60006000198214156200086357634e487b7160e01b600052601160045260246000fd5b5060010190565b634e487b7160e01b600052603260045260246000fd5b6001600160a01b0381168114620005f957600080fd5b60805160601c60a05160601c615711620008d06000396000818161053501526111d00152600081816107c301526111af01526157116000f3fe6080604052600436106200023b5760003560e01c8063715018a6116200012f578063c16cde8a11620000ad578063e985e9c51162000078578063e985e9c514620006da578063eb02c3011462000727578063f2fde38b146200078a578063f887ea4014620007af578063fc4f068914620007e557600080fd5b8063c16cde8a146200064f578063c5495aba1462000666578063c87b56dd146200067d578063e6e6dd2f14620006a257600080fd5b806395d89b4111620000fa57806395d89b41146200059c578063a22cb46514620005b4578063a4cf54a214620005d9578063b142a4b01462000613578063b88d4fde146200062a57600080fd5b8063715018a61462000509578063776af5ba14620005215780637a3c4c1714620005575780638da5cb5b146200057c57600080fd5b80633264fee511620001bd57806342842e0e116200018857806342842e0e146200046b578063449bd2cc14620004905780636352211e14620004a857806367e92f9114620004cd57806370a0823114620004e457600080fd5b80633264fee514620003cd57806332d53b1714620003f257806335180f5f146200042f57806336330a4f146200044657600080fd5b8063095ea7b3116200020a578063095ea7b314620003135780630cd790f7146200033a57806317d70f7c146200035c5780631d069774146200038357806323b872dd14620003a857600080fd5b806301e88208146200024057806301ffc9a7146200028957806306fdde0314620002ae578063081812fc14620002d5575b600080fd5b3480156200024d57600080fd5b50620002746200025f36600462003382565b600d6020526000908152604090205460ff1681565b60405190151581526020015b60405180910390f35b3480156200029657600080fd5b5062000274620002a8366004620038e0565b6200082a565b348015620002bb57600080fd5b50620002c66200087e565b60405162000280919062003d96565b348015620002e257600080fd5b50620002fa620002f4366004620039c6565b62000918565b6040516001600160a01b03909116815260200162000280565b3480156200032057600080fd5b506200033862000332366004620034e2565b62000941565b005b3480156200034757600080fd5b50600754620002fa906001600160a01b031681565b3480156200036957600080fd5b506200037460085481565b60405190815260200162000280565b3480156200039057600080fd5b5062000338620003a236600462003979565b62000a66565b348015620003b557600080fd5b5062000338620003c7366004620033e0565b62000ac2565b348015620003da57600080fd5b5062000338620003ec36600462003382565b62000afa565b348015620003ff57600080fd5b506200041762000411366004620039c6565b62000b26565b60408051921515835260208301919091520162000280565b620003386200044036600462003595565b62000d56565b3480156200045357600080fd5b50620002c66200046536600462003382565b62000f84565b3480156200047857600080fd5b50620003386200048a366004620033e0565b62001026565b3480156200049d57600080fd5b506200033862001043565b348015620004b557600080fd5b50620002fa620004c7366004620039c6565b620014e1565b62000338620004de3660046200370f565b62001543565b348015620004f157600080fd5b50620003746200050336600462003382565b62001738565b3480156200051657600080fd5b5062000338620017c0565b3480156200052e57600080fd5b50620002fa7f000000000000000000000000000000000000000000000000000000000000000081565b3480156200056457600080fd5b506200037462000576366004620039c6565b620017d8565b3480156200058957600080fd5b506006546001600160a01b0316620002fa565b348015620005a957600080fd5b50620002c662001b24565b348015620005c157600080fd5b5062000338620005d3366004620034af565b62001b35565b348015620005e657600080fd5b50620002fa620005f836600462003382565b6009602052600090815260409020546001600160a01b031681565b6200033862000624366004620037b9565b62001b46565b3480156200063757600080fd5b50620003386200064936600462003426565b62001ecb565b620003386200066036600462003511565b62001f04565b62000338620006773660046200365d565b6200214d565b3480156200068a57600080fd5b50620002c66200069c366004620039c6565b620024d1565b348015620006af57600080fd5b50620006c7620006c1366004620039c6565b6200254d565b6040516200028095949392919062003dab565b348015620006e757600080fd5b5062000274620006f9366004620033a2565b6001600160a01b03918216600090815260056020908152604080832093909416825291909152205460ff1690565b3480156200073457600080fd5b506200074c62000746366004620039c6565b62002620565b604080519889526020890197909752958701949094526060860192909252608085015260a0840152151560c083015260e08201526101000162000280565b3480156200079757600080fd5b5062000338620007a936600462003382565b6200287d565b348015620007bc57600080fd5b50620002fa7f000000000000000000000000000000000000000000000000000000000000000081565b348015620007f257600080fd5b50620002fa6200080436600462003940565b8051602081830181018051600c825292820191909301209152546001600160a01b031681565b60006001600160e01b031982166380ac58cd60e01b14806200085c57506001600160e01b03198216635b5e139f60e01b145b806200087857506301ffc9a760e01b6001600160e01b03198316145b92915050565b6060600080546200088f9062003f78565b80601f0160208091040260200160405190810160405280929190818152602001828054620008bd9062003f78565b80156200090e5780601f10620008e2576101008083540402835291602001916200090e565b820191906000526020600020905b815481529060010190602001808311620008f057829003601f168201915b5050505050905090565b60006200092582620028fc565b506000908152600460205260409020546001600160a01b031690565b60006200094e82620014e1565b9050806001600160a01b0316836001600160a01b03161415620009c25760405162461bcd60e51b815260206004820152602160248201527f4552433732313a20617070726f76616c20746f2063757272656e74206f776e656044820152603960f91b60648201526084015b60405180910390fd5b336001600160a01b0382161480620009e15750620009e18133620006f9565b62000a555760405162461bcd60e51b815260206004820152603e60248201527f4552433732313a20617070726f76652063616c6c6572206973206e6f7420746f60448201527f6b656e206f776e6572206e6f7220617070726f76656420666f7220616c6c00006064820152608401620009b9565b62000a6183836200295d565b505050565b62000a70620029cd565b80600d6000600c8560405162000a87919062003adb565b9081526040805160209281900383019020546001600160a01b031683529082019290925201600020805460ff19169115159190911790555050565b62000ace338262002a29565b62000aed5760405162461bcd60e51b8152600401620009b99062003e7b565b62000a6183838362002aae565b62000b04620029cd565b600780546001600160a01b0319166001600160a01b0392909216919091179055565b600080600760009054906101000a90046001600160a01b03166001600160a01b031663fbfa77cf6040518163ffffffff1660e01b815260040160206040518083038186803b15801562000b7857600080fd5b505afa15801562000b8d573d6000803e3d6000fd5b505050506040513d601f19601f8201168201806040525081019062000bb3919062003920565b6000848152600a60205260409020600101546001600160a01b03918216916345a6f3709190811690600160a01b900460ff1662000c7a57600760009054906101000a90046001600160a01b03166001600160a01b03166389a302716040518163ffffffff1660e01b815260040160206040518083038186803b15801562000c3957600080fd5b505afa15801562000c4e573d6000803e3d6000fd5b505050506040513d601f19601f8201168201806040525081019062000c74919062003920565b62000c96565b6000868152600a60205260409020600201546001600160a01b03165b6000878152600a6020526040908190206002810154600190910154915160e086901b6001600160e01b03191681526001600160a01b0394851660048201529284166024840152929092166044820152600160a01b90910460ff1615156064820152608401604080518083038186803b15801562000d1257600080fd5b505afa15801562000d27573d6000803e3d6000fd5b505050506040513d601f19601f8201168201806040525081019062000d4d9190620038af565b91509150915091565b6001600160a01b0389166000908152600d602052604090205460ff1662000d915760405162461bcd60e51b8152600401620009b99062003e44565b600754604080516361ef161f60e01b815290516000926001600160a01b0316916361ef161f916004808301926020929190829003018186803b15801562000dd757600080fd5b505afa15801562000dec573d6000803e3d6000fd5b505050506040513d601f19601f8201168201806040525081019062000e12919062003920565b6001600160a01b03166363ae21036040518163ffffffff1660e01b815260040160206040518083038186803b15801562000e4b57600080fd5b505afa15801562000e60573d6000803e3d6000fd5b505050506040513d601f19601f8201168201806040525081019062000e869190620039e0565b33600090815260096020526040808220548151630d0e30db60e41b815291519394506001600160a01b03169263d0e30db09285926004808201939182900301818588803b15801562000ed757600080fd5b505af115801562000eec573d6000803e3d6000fd5b50503360008181526009602052604090819020549051636f7e879960e01b81526001600160a01b039091169450636f7e8799935062000f4392508f908f908f908f908f908f908f908f908f908f9060040162003b6b565b600060405180830381600087803b15801562000f5e57600080fd5b505af115801562000f73573d6000803e3d6000fd5b505050505050505050505050505050565b600b602052600090815260409020805462000f9f9062003f78565b80601f016020809104026020016040519081016040528092919081815260200182805462000fcd9062003f78565b80156200101e5780601f1062000ff2576101008083540402835291602001916200101e565b820191906000526020600020905b8154815290600101906020018083116200100057829003601f168201915b505050505081565b62000a618383836040518060200160405280600081525062001ecb565b336000908152600960205260409020546001600160a01b031615620010bf5760405162461bcd60e51b815260206004820152602b60248201527f446f7070656c47616e67657220666f722074686973206164647265737320616c60448201526a1c9958591e48195e1a5cdd60aa1b6064820152608401620009b9565b6008805490806000620010d3828562003efd565b90915550620010e3905062003182565b60005b60088110156200112b57620010fc818462003efd565b82826008811062001111576200111162004016565b602002015280620011228162003fb5565b915050620010e6565b50600754604080516361ef161f60e01b815290516000926001600160a01b0316916361ef161f916004808301926020929190829003018186803b1580156200117257600080fd5b505afa15801562001187573d6000803e3d6000fd5b505050506040513d601f19601f82011682018060405250810190620011ad919062003920565b7f00000000000000000000000000000000000000000000000000000000000000007f0000000000000000000000000000000000000000000000000000000000000000600760009054906101000a90046001600160a01b03166001600160a01b03166389a302716040518163ffffffff1660e01b815260040160206040518083038186803b1580156200123e57600080fd5b505afa15801562001253573d6000803e3d6000fd5b505050506040513d601f19601f8201168201806040525081019062001279919062003920565b600754604051879160169130916001600160a01b0316906200129b90620031a1565b620012ae98979695949392919062003cd9565b604051809103906000f080158015620012cb573d6000803e3d6000fd5b5033600090815260096020526040812080546001600160a01b0319166001600160a01b0384161790559091505b6008811015620014db576040518060a00160405280600e836008811062001323576200132362004016565b018054620013319062003f78565b80601f01602080910402602001604051908101604052809291908181526020018280546200135f9062003f78565b8015620013b05780601f106200138457610100808354040283529160200191620013b0565b820191906000526020600020905b8154815290600101906020018083116200139257829003601f168201915b50505050508152602001836001600160a01b0316815260200160048310620013da576000620013dd565b60015b1515815260200160168360088110620013fa57620013fa62004016565b01546001600160a01b0316815233602090910152600a60006200141e848862003efd565b81526020808201929092526040016000208251805191926200144692849290910190620031af565b50602082015160018201805460408501511515600160a01b026001600160a81b03199091166001600160a01b039384161717905560608301516002830180549183166001600160a01b0319928316179055608090930151600390920180549290911691909216179055620014c633620014c0838762003efd565b62002c56565b80620014d28162003fb5565b915050620012f8565b50505050565b6000818152600260205260408120546001600160a01b031680620008785760405162461bcd60e51b8152602060048201526018602482015277115490cdcc8c4e881a5b9d985b1a59081d1bdad95b88125160421b6044820152606401620009b9565b6001600160a01b0389166000908152600d602052604090205460ff166200157e5760405162461bcd60e51b8152600401620009b99062003e44565b600754604080516361ef161f60e01b815290516000926001600160a01b0316916361ef161f916004808301926020929190829003018186803b158015620015c457600080fd5b505afa158015620015d9573d6000803e3d6000fd5b505050506040513d601f19601f82011682018060405250810190620015ff919062003920565b6001600160a01b03166363ae21036040518163ffffffff1660e01b815260040160206040518083038186803b1580156200163857600080fd5b505afa1580156200164d573d6000803e3d6000fd5b505050506040513d601f19601f82011682018060405250810190620016739190620039e0565b336000908152600960205260409020549091506001600160a01b031663d0e30db0620016a08b8462003efd565b6040518263ffffffff1660e01b81526004016000604051808303818588803b158015620016cc57600080fd5b505af1158015620016e1573d6000803e3d6000fd5b5050336000818152600960205260409081902054905163da91dfd560e01b81526001600160a01b03909116945063da91dfd5935062000f4392508f908f908f908f908f908f908f908f908f908f9060040162003be3565b60006001600160a01b038216620017a45760405162461bcd60e51b815260206004820152602960248201527f4552433732313a2061646472657373207a65726f206973206e6f7420612076616044820152683634b21037bbb732b960b91b6064820152608401620009b9565b506001600160a01b031660009081526003602052604090205490565b620017ca620029cd565b620017d6600062002c72565b565b6000818152600a6020526040808220815160a0810190925280548392919082908290620018059062003f78565b80601f0160208091040260200160405190810160405280929190818152602001828054620018339062003f78565b8015620018845780601f10620018585761010080835404028352916020019162001884565b820191906000526020600020905b8154815290600101906020018083116200186657829003601f168201915b505050918352505060018201546001600160a01b038082166020840152600160a01b90910460ff1615156040808401919091526002840154821660608401526003909301548116608090920191909152600754915163a226b48360e01b815260048101879052929350169063a226b4839060240160206040518083038186803b1580156200191157600080fd5b505afa15801562001926573d6000803e3d6000fd5b505050506040513d601f19601f820116820180604052508101906200194c91906200388f565b1562001a6657600760009054906101000a90046001600160a01b03166001600160a01b031663fbfa77cf6040518163ffffffff1660e01b815260040160206040518083038186803b158015620019a157600080fd5b505afa158015620019b6573d6000803e3d6000fd5b505050506040513d601f19601f82011682018060405250810190620019dc919062003920565b6060820151604051637092736960e11b81526001600160a01b03918216600482015291169063e124e6d2906024015b60206040518083038186803b15801562001a2457600080fd5b505afa15801562001a39573d6000803e3d6000fd5b505050506040513d601f19601f8201168201806040525081019062001a5f9190620039e0565b9392505050565b600760009054906101000a90046001600160a01b03166001600160a01b031663fbfa77cf6040518163ffffffff1660e01b815260040160206040518083038186803b15801562001ab557600080fd5b505afa15801562001aca573d6000803e3d6000fd5b505050506040513d601f19601f8201168201806040525081019062001af0919062003920565b60608201516040516340d3096b60e11b81526001600160a01b0391821660048201529116906381a612d69060240162001a0b565b6060600180546200088f9062003f78565b62001b4233838362002cc4565b5050565b6001600160a01b0389166000908152600d602052604090205460ff1662001b815760405162461bcd60e51b8152600401620009b99062003e44565b600760009054906101000a90046001600160a01b03166001600160a01b03166389a302716040518163ffffffff1660e01b815260040160206040518083038186803b15801562001bd057600080fd5b505afa15801562001be5573d6000803e3d6000fd5b505050506040513d601f19601f8201168201806040525081019062001c0b919062003920565b33600081815260096020526040908190205490516323b872dd60e01b815260048101929092526001600160a01b039081166024830152604482018d905291909116906323b872dd90606401602060405180830381600087803b15801562001c7157600080fd5b505af115801562001c86573d6000803e3d6000fd5b505050506040513d601f19601f8201168201806040525081019062001cac91906200388f565b50600754604080516361ef161f60e01b815290516000926001600160a01b0316916361ef161f916004808301926020929190829003018186803b15801562001cf357600080fd5b505afa15801562001d08573d6000803e3d6000fd5b505050506040513d601f19601f8201168201806040525081019062001d2e919062003920565b6001600160a01b03166363ae21036040518163ffffffff1660e01b815260040160206040518083038186803b15801562001d6757600080fd5b505afa15801562001d7c573d6000803e3d6000fd5b505050506040513d601f19601f8201168201806040525081019062001da29190620039e0565b33600090815260096020526040808220548151630d0e30db60e41b815291519394506001600160a01b03169263d0e30db09285926004808201939182900301818588803b15801562001df357600080fd5b505af115801562001e08573d6000803e3d6000fd5b505050505060096000336001600160a01b03166001600160a01b0316815260200190815260200160002060009054906101000a90046001600160a01b03166001600160a01b031663de26fdcd338e8e8e8e8e8e8e8e8e8e8e6040518d63ffffffff1660e01b815260040162001e899c9b9a9998979695949392919062003c59565b600060405180830381600087803b15801562001ea457600080fd5b505af115801562001eb9573d6000803e3d6000fd5b50505050505050505050505050505050565b62001ed7338362002a29565b62001ef65760405162461bcd60e51b8152600401620009b99062003e7b565b620014db8484848462002d95565b6001600160a01b0387166000908152600d602052604090205460ff1662001f3f5760405162461bcd60e51b8152600401620009b99062003e44565b600754604080516361ef161f60e01b815290516000926001600160a01b0316916361ef161f916004808301926020929190829003018186803b15801562001f8557600080fd5b505afa15801562001f9a573d6000803e3d6000fd5b505050506040513d601f19601f8201168201806040525081019062001fc0919062003920565b6001600160a01b03166363ae21036040518163ffffffff1660e01b815260040160206040518083038186803b15801562001ff957600080fd5b505afa1580156200200e573d6000803e3d6000fd5b505050506040513d601f19601f82011682018060405250810190620020349190620039e0565b33600090815260096020526040808220548151630d0e30db60e41b815291519394506001600160a01b03169263d0e30db09285926004808201939182900301818588803b1580156200208557600080fd5b505af11580156200209a573d6000803e3d6000fd5b505033600081815260096020526040908190205490516397701f1960e01b815260048101929092526001600160a01b038d81166024840152604483018d90528b81166064840152608483018b905289151560a484015260c4830189905287151560e48401521693506397701f199250610104019050600060405180830381600087803b1580156200212a57600080fd5b505af11580156200213f573d6000803e3d6000fd5b505050505050505050505050565b6001600160a01b0388166000908152600d602052604090205460ff16620021885760405162461bcd60e51b8152600401620009b99062003e44565b836200221e57600760009054906101000a90046001600160a01b03166001600160a01b03166389a302716040518163ffffffff1660e01b815260040160206040518083038186803b158015620021dd57600080fd5b505afa158015620021f2573d6000803e3d6000fd5b505050506040513d601f19601f8201168201806040525081019062002218919062003920565b6200223d565b8860008151811062002234576200223462004016565b60200260200101515b33600081815260096020526040908190205490516323b872dd60e01b815260048101929092526001600160a01b039081166024830152604482018a905291909116906323b872dd90606401602060405180830381600087803b158015620022a357600080fd5b505af1158015620022b8573d6000803e3d6000fd5b505050506040513d601f19601f82011682018060405250810190620022de91906200388f565b50600754604080516361ef161f60e01b815290516000926001600160a01b0316916361ef161f916004808301926020929190829003018186803b1580156200232557600080fd5b505afa1580156200233a573d6000803e3d6000fd5b505050506040513d601f19601f8201168201806040525081019062002360919062003920565b6001600160a01b03166363ae21036040518163ffffffff1660e01b815260040160206040518083038186803b1580156200239957600080fd5b505afa158015620023ae573d6000803e3d6000fd5b505050506040513d601f19601f82011682018060405250810190620023d49190620039e0565b33600090815260096020526040808220548151630d0e30db60e41b815291519394506001600160a01b03169263d0e30db09285926004808201939182900301818588803b1580156200242557600080fd5b505af11580156200243a573d6000803e3d6000fd5b50503360008181526009602052604090819020549051634fbb66c360e01b81526001600160a01b039091169450634fbb66c393506200249192508e908e908e908e908e908e908e908c908f908f9060040162003be3565b600060405180830381600087803b158015620024ac57600080fd5b505af1158015620024c1573d6000803e3d6000fd5b5050505050505050505050505050565b6060620024de82620028fc565b6000620024f660408051602081019091526000815290565b9050600081511162002518576040518060200160405280600081525062001a5f565b80620025248462002dcf565b6040516020016200253792919062003af9565b6040516020818303038152906040529392505050565b600a602052600090815260409020805481906200256a9062003f78565b80601f0160208091040260200160405190810160405280929190818152602001828054620025989062003f78565b8015620025e95780601f10620025bd57610100808354040283529160200191620025e9565b820191906000526020600020905b815481529060010190602001808311620025cb57829003601f168201915b505050506001830154600284015460039094015492936001600160a01b0380831694600160a01b90930460ff169350908116911685565b600080600080600080600080600760009054906101000a90046001600160a01b03166001600160a01b031663fbfa77cf6040518163ffffffff1660e01b815260040160206040518083038186803b1580156200267b57600080fd5b505afa15801562002690573d6000803e3d6000fd5b505050506040513d601f19601f82011682018060405250810190620026b6919062003920565b60008a8152600a60205260409020600101546001600160a01b0391821691634a3f088d9190811690600160a01b900460ff166200277d57600760009054906101000a90046001600160a01b03166001600160a01b03166389a302716040518163ffffffff1660e01b815260040160206040518083038186803b1580156200273c57600080fd5b505afa15801562002751573d6000803e3d6000fd5b505050506040513d601f19601f8201168201806040525081019062002777919062003920565b62002799565b60008c8152600a60205260409020600201546001600160a01b03165b60008d8152600a6020526040908190206002810154600190910154915160e086901b6001600160e01b03191681526001600160a01b0394851660048201529284166024840152929092166044820152600160a01b90910460ff16151560648201526084016101006040518083038186803b1580156200281757600080fd5b505afa1580156200282c573d6000803e3d6000fd5b505050506040513d601f19601f82011682018060405250810190620028529190620039fa565b809850819950829a50839b50849c50859d50869e50879f505050505050505050919395975091939597565b62002887620029cd565b6001600160a01b038116620028ee5760405162461bcd60e51b815260206004820152602660248201527f4f776e61626c653a206e6577206f776e657220697320746865207a65726f206160448201526564647265737360d01b6064820152608401620009b9565b620028f98162002c72565b50565b6000818152600260205260409020546001600160a01b0316620028f95760405162461bcd60e51b8152602060048201526018602482015277115490cdcc8c4e881a5b9d985b1a59081d1bdad95b88125160421b6044820152606401620009b9565b600081815260046020526040902080546001600160a01b0319166001600160a01b03841690811790915581906200299482620014e1565b6001600160a01b03167f8c5be1e5ebec7d5bd14f71427d1e84f3dd0314c0f7b2291e5b200ac8c7c3b92560405160405180910390a45050565b6006546001600160a01b03163314620017d65760405162461bcd60e51b815260206004820181905260248201527f4f776e61626c653a2063616c6c6572206973206e6f7420746865206f776e65726044820152606401620009b9565b60008062002a3783620014e1565b9050806001600160a01b0316846001600160a01b0316148062002a7f57506001600160a01b0380821660009081526005602090815260408083209388168352929052205460ff165b8062002aa65750836001600160a01b031662002a9b8462000918565b6001600160a01b0316145b949350505050565b826001600160a01b031662002ac382620014e1565b6001600160a01b03161462002b295760405162461bcd60e51b815260206004820152602560248201527f4552433732313a207472616e736665722066726f6d20696e636f72726563742060448201526437bbb732b960d91b6064820152608401620009b9565b6001600160a01b03821662002b8d5760405162461bcd60e51b8152602060048201526024808201527f4552433732313a207472616e7366657220746f20746865207a65726f206164646044820152637265737360e01b6064820152608401620009b9565b62002b9a6000826200295d565b6001600160a01b038316600090815260036020526040812080546001929062002bc590849062003f2f565b90915550506001600160a01b038216600090815260036020526040812080546001929062002bf590849062003efd565b909155505060008181526002602052604080822080546001600160a01b0319166001600160a01b0386811691821790925591518493918716917fddf252ad1be2c89b69c2b068fc378daa952ba7f163c4a11628f55a4df523b3ef91a4505050565b62001b4282826040518060200160405280600081525062002ee5565b600680546001600160a01b038381166001600160a01b0319831681179093556040519116919082907f8be0079c531659141344cd1fd0a4f28419497f9722a3daafe3b4186f6b6457e090600090a35050565b816001600160a01b0316836001600160a01b0316141562002d285760405162461bcd60e51b815260206004820152601960248201527f4552433732313a20617070726f766520746f2063616c6c6572000000000000006044820152606401620009b9565b6001600160a01b03838116600081815260056020908152604080832094871680845294825291829020805460ff191686151590811790915591519182527f17307eab39ab6107e8899845ad3d59bd9653f200f220920489ca2b5937696c31910160405180910390a3505050565b62002da284848462002aae565b62002db08484848462002f1f565b620014db5760405162461bcd60e51b8152600401620009b99062003df2565b60608162002df45750506040805180820190915260018152600360fc1b602082015290565b8160005b811562002e24578062002e0b8162003fb5565b915062002e1c9050600a8362003f18565b915062002df8565b60008167ffffffffffffffff81111562002e425762002e426200402c565b6040519080825280601f01601f19166020018201604052801562002e6d576020820181803683370190505b5090505b841562002aa65762002e8560018362003f2f565b915062002e94600a8662003fd3565b62002ea190603062003efd565b60f81b81838151811062002eb95762002eb962004016565b60200101906001600160f81b031916908160001a90535062002edd600a8662003f18565b945062002e71565b62002ef183836200303a565b62002f00600084848462002f1f565b62000a615760405162461bcd60e51b8152600401620009b99062003df2565b60006001600160a01b0384163b156200302f57604051630a85bd0160e11b81526001600160a01b0385169063150b7a029062002f6690339089908890889060040162003b2c565b602060405180830381600087803b15801562002f8157600080fd5b505af192505050801562002fb4575060408051601f3d908101601f1916820190925262002fb19181019062003900565b60015b62003014573d80801562002fe5576040519150601f19603f3d011682016040523d82523d6000602084013e62002fea565b606091505b5080516200300c5760405162461bcd60e51b8152600401620009b99062003df2565b805181602001fd5b6001600160e01b031916630a85bd0160e11b14905062002aa6565b506001949350505050565b6001600160a01b038216620030925760405162461bcd60e51b815260206004820181905260248201527f4552433732313a206d696e7420746f20746865207a65726f20616464726573736044820152606401620009b9565b6000818152600260205260409020546001600160a01b031615620030f95760405162461bcd60e51b815260206004820152601c60248201527f4552433732313a20746f6b656e20616c7265616479206d696e746564000000006044820152606401620009b9565b6001600160a01b03821660009081526003602052604081208054600192906200312490849062003efd565b909155505060008181526002602052604080822080546001600160a01b0319166001600160a01b03861690811790915590518392907fddf252ad1be2c89b69c2b068fc378daa952ba7f163c4a11628f55a4df523b3ef908290a45050565b6040518061010001604052806008906020820280368337509192915050565b61165d806200407f83390190565b828054620031bd9062003f78565b90600052602060002090601f016020900481019282620031e157600085556200322c565b82601f10620031fc57805160ff19168380011785556200322c565b828001600101855582156200322c579182015b828111156200322c5782518255916020019190600101906200320f565b506200323a9291506200323e565b5090565b5b808211156200323a57600081556001016200323f565b600067ffffffffffffffff8311156200327257620032726200402c565b62003287601f8401601f191660200162003ec9565b90508281528383830111156200329c57600080fd5b828260208301376000602084830101529392505050565b600082601f830112620032c557600080fd5b8135602067ffffffffffffffff821115620032e457620032e46200402c565b8160051b620032f582820162003ec9565b8381528281019086840183880185018910156200331157600080fd5b600093505b85841015620033415780356200332c8162004042565b83526001939093019291840191840162003316565b50979650505050505050565b80356200335a8162004058565b919050565b600082601f8301126200337157600080fd5b62001a5f8383356020850162003255565b6000602082840312156200339557600080fd5b813562001a5f8162004042565b60008060408385031215620033b657600080fd5b8235620033c38162004042565b91506020830135620033d58162004042565b809150509250929050565b600080600060608486031215620033f657600080fd5b8335620034038162004042565b92506020840135620034158162004042565b929592945050506040919091013590565b600080600080608085870312156200343d57600080fd5b84356200344a8162004042565b935060208501356200345c8162004042565b925060408501359150606085013567ffffffffffffffff8111156200348057600080fd5b8501601f810187136200349257600080fd5b620034a38782356020840162003255565b91505092959194509250565b60008060408385031215620034c357600080fd5b8235620034d08162004042565b91506020830135620033d58162004058565b60008060408385031215620034f657600080fd5b8235620035038162004042565b946020939093013593505050565b600080600080600080600060e0888a0312156200352d57600080fd5b87356200353a8162004042565b9650602088013595506040880135620035538162004042565b94506060880135935060808801356200356c8162004058565b925060a0880135915060c0880135620035858162004058565b8091505092959891949750929550565b6000806000806000806000806000806101408b8d031215620035b657600080fd5b8a3567ffffffffffffffff811115620035ce57600080fd5b620035dc8d828e01620032b3565b9a505060208b0135620035ef8162004042565b985060408b0135975060608b0135965060808b01356200360f8162004058565b955060a08b0135945060c08b0135935060e08b013592506101008b0135620036378162004058565b91506101208b01356200364a8162004042565b809150509295989b9194979a5092959850565b60008060008060008060008060006101208a8c0312156200367d57600080fd5b893567ffffffffffffffff8111156200369557600080fd5b620036a38c828d01620032b3565b99505060208a0135620036b68162004042565b975060408a0135965060608a0135955060808a0135945060a08a0135620036dd8162004058565b935060c08a0135925060e08a013591506101008a0135620036fe8162004042565b809150509295985092959850929598565b6000806000806000806000806000806101408b8d0312156200373057600080fd5b8a3567ffffffffffffffff8111156200374857600080fd5b620037568d828e01620032b3565b9a505060208b0135620037698162004042565b985060408b0135975060608b0135965060808b0135955060a08b0135620037908162004058565b945060c08b0135935060e08b013592506101008b013591506101208b01356200364a8162004042565b60008060008060008060008060008060006101608c8e031215620037dc57600080fd5b8b3567ffffffffffffffff811115620037f457600080fd5b620038028e828f01620032b3565b9b505060208c0135995060408c01356200381c8162004042565b985060608c0135975060808c0135965060a08c01356200383c8162004042565b95506200384c60c08d016200334d565b945060e08c01359350620038646101008d016200334d565b92506101208c013591506200387d6101408d016200334d565b90509295989b509295989b9093969950565b600060208284031215620038a257600080fd5b815162001a5f8162004058565b60008060408385031215620038c357600080fd5b8251620038d08162004058565b6020939093015192949293505050565b600060208284031215620038f357600080fd5b813562001a5f8162004067565b6000602082840312156200391357600080fd5b815162001a5f8162004067565b6000602082840312156200393357600080fd5b815162001a5f8162004042565b6000602082840312156200395357600080fd5b813567ffffffffffffffff8111156200396b57600080fd5b62002aa6848285016200335f565b600080604083850312156200398d57600080fd5b823567ffffffffffffffff811115620039a557600080fd5b620039b3858286016200335f565b9250506020830135620033d58162004058565b600060208284031215620039d957600080fd5b5035919050565b600060208284031215620039f357600080fd5b5051919050565b600080600080600080600080610100898b03121562003a1857600080fd5b885197506020890151965060408901519550606089015194506080890151935060a0890151925060c089015162003a4f8162004058565b8092505060e089015190509295985092959890939650565b600081518084526020808501945080840160005b8381101562003aa25781516001600160a01b03168752958201959082019060010162003a7b565b509495945050505050565b6000815180845262003ac781602086016020860162003f49565b601f01601f19169290920160200192915050565b6000825162003aef81846020870162003f49565b9190910192915050565b6000835162003b0d81846020880162003f49565b83519083019062003b2381836020880162003f49565b01949350505050565b6001600160a01b038581168252841660208201526040810183905260806060820181905260009062003b619083018462003aad565b9695505050505050565b6001600160a01b038c811682526101606020830181905260009162003b938483018f62003a67565b9c81166040850152606084019b909b525050608081019790975294151560a087015260c086019390935260e085019190915261010084015215156101208301529091166101409091015292915050565b6001600160a01b038c811682526101606020830181905260009162003c0b8483018f62003a67565b9c81166040850152606084019b909b525050608081019790975260a087019590955292151560c086015260e08501919091526101008401526101208301529091166101409091015292915050565b600060018060a01b03808f168352610180602084015262003c7f61018084018f62003a67565b604084019d909d529a8b16606083015250608081019890985260a08801969096529390961660c086015290151560e08501526101008401529215156101208301526101408201929092529015156101609091015292915050565b6001600160a01b038981168252888116602080840191909152888216604084015287821660608401526102c083019190608084018860005b600881101562003d305781518352918301919083019060010162003d11565b50505061018084018760005b600881101562003d5d57815485168352918301916001918201910162003d3c565b505050505062003d796102808301856001600160a01b03169052565b6001600160a01b0383166102a08301529998505050505050505050565b60208152600062001a5f602083018462003aad565b60a08152600062003dc060a083018862003aad565b6001600160a01b0396871660208401529415156040830152509184166060830152909216608090920191909152919050565b60208082526032908201527f4552433732313a207472616e7366657220746f206e6f6e20455243373231526560408201527131b2b4bb32b91034b6b83632b6b2b73a32b960711b606082015260800190565b6020808252601f908201527f74726164696e67206f6e207468697320706169722069732073746f7070656400604082015260600190565b6020808252602e908201527f4552433732313a2063616c6c6572206973206e6f7420746f6b656e206f776e6560408201526d1c881b9bdc88185c1c1c9bdd995960921b606082015260800190565b604051601f8201601f1916810167ffffffffffffffff8111828210171562003ef55762003ef56200402c565b604052919050565b6000821982111562003f135762003f1362003fea565b500190565b60008262003f2a5762003f2a62004000565b500490565b60008282101562003f445762003f4462003fea565b500390565b60005b8381101562003f6657818101518382015260200162003f4c565b83811115620014db5750506000910152565b600181811c9082168062003f8d57607f821691505b6020821081141562003faf57634e487b7160e01b600052602260045260246000fd5b50919050565b600060001982141562003fcc5762003fcc62003fea565b5060010190565b60008262003fe55762003fe562004000565b500690565b634e487b7160e01b600052601160045260246000fd5b634e487b7160e01b600052601260045260246000fd5b634e487b7160e01b600052603260045260246000fd5b634e487b7160e01b600052604160045260246000fd5b6001600160a01b0381168114620028f957600080fd5b8015158114620028f957600080fd5b6001600160e01b031981168114620028f957600080fdfe60a06040523480156200001157600080fd5b506040516200165d3803806200165d833981016040819052620000349162000242565b600480546001600160a01b038088166001600160a01b031992831617909255600080548b84169083161781556001600160601b031960608b901b1660805260018054938a16939092169290921790555b60088110156200017e576004811015620000e857838160088110620000ad57620000ad620003a6565b602002015160058260048110620000c857620000c8620003a6565b0180546001600160a01b0319166001600160a01b03929092169190911790555b848160088110620000fd57620000fd620003a6565b6020020151600260008684600881106200011b576200011b620003a6565b60200201516001600160a01b03166001600160a01b031681526020019081526020016000206000600484106200015357600062000156565b60015b151581526020810191909152604001600020558062000175816200037c565b91505062000084565b50600380546001600160a01b039384166001600160a01b03199182168117909255600980548216909217909155600a805492909316911617905550620003d5945050505050565b8051620001d281620003bc565b919050565b600082601f830112620001e957600080fd5b620001f362000344565b808385610100860111156200020757600080fd5b60005b6008811015620002375781516200022181620003bc565b845260209384019391909101906001016200020a565b509095945050505050565b6000806000806000806000806102c0898b0312156200026057600080fd5b88516200026d81620003bc565b809850506020808a01516200028281620003bc565b60408b01519098506200029581620003bc565b60608b0151909750620002a881620003bc565b9550609f8a018b13620002ba57600080fd5b620002c462000344565b8060808c016101808d018e811115620002dc57600080fd5b60005b6008811015620002fe57825185529385019391850191600101620002df565b508298506200030e8f82620001d7565b97505050505050620003246102808a01620001c5565b9150620003356102a08a01620001c5565b90509295985092959890939650565b60405161010081016001600160401b03811182821017156200037657634e487b7160e01b600052604160045260246000fd5b60405290565b60006000198214156200039f57634e487b7160e01b600052601160045260246000fd5b5060010190565b634e487b7160e01b600052603260045260246000fd5b6001600160a01b0381168114620003d257600080fd5b50565b60805160601c61125462000409600039600081816102ce015281816106340152818161076501526108ab01526112546000f3fe6080604052600436106100f35760003560e01c806391c2c4691161008a578063d6ef601311610059578063d6ef601314610276578063da91dfd514610296578063de26fdcd146102a9578063f887ea40146102bc57600080fd5b806391c2c4691461022357806397701f1914610243578063b7511c5b14610256578063d0e30db0146101ae57600080fd5b806361ef161f116100c657806361ef161f146101b05780636f7e8799146101d0578063776af5ba146101e357806389a302711461020357600080fd5b806306b278cb146100f85780630cd790f71461013557806313a51b2e146101555780634fbb66c31461019b575b600080fd5b34801561010457600080fd5b50600354610118906001600160a01b031681565b6040516001600160a01b0390911681526020015b60405180910390f35b34801561014157600080fd5b50600a54610118906001600160a01b031681565b34801561016157600080fd5b5061018d610170366004610f1b565b600260209081526000928352604080842090915290825290205481565b60405190815260200161012c565b6101ae6101a9366004610d96565b6102f0565b005b3480156101bc57600080fd5b50600054610118906001600160a01b031681565b6101ae6101de366004610cce565b61037e565b3480156101ef57600080fd5b50600154610118906001600160a01b031681565b34801561020f57600080fd5b50600454610118906001600160a01b031681565b34801561022f57600080fd5b50600954610118906001600160a01b031681565b6101ae610251366004610c40565b610571565b34801561026257600080fd5b506101ae610271366004610f71565b610612565b34801561028257600080fd5b50610118610291366004610f71565b61093c565b6101ae6102a4366004610d96565b61095c565b6101ae6102b7366004610e45565b6109af565b3480156102c857600080fd5b506101187f000000000000000000000000000000000000000000000000000000000000000081565b6102fb8b8a87610a00565b60005460405163f2ae372f60e01b81526001600160a01b039091169063f2ae372f90859061033f908e908e908e908e908e908e908e9089908e908e906004016110a3565b6000604051808303818588803b15801561035857600080fd5b505af115801561036c573d6000803e3d6000fd5b50505050505050505050505050505050565b6003546001600160a01b038a811660009081526002602090815260408083208b151584529091528082205490516331a9108f60e11b8152600481019190915290929190911690636352211e9060240160206040518083038186803b1580156103e557600080fd5b505afa1580156103f9573d6000803e3d6000fd5b505050506040513d601f19601f8201168201806040525081019061041d9190610c1c565b90508b6001600160a01b0316816001600160a01b03161461047c5760405162461bcd60e51b8152602060048201526014602482015273796f7520646f6e277420686176652061206b657960601b60448201526064015b60405180910390fd5b600a546001600160a01b031633146104dd576009546001600160a01b031633146104dd5760405162461bcd60e51b815260206004820152601260248201527134b73b30b634b21036b9b39739b2b73232b960711b6044820152606401610473565b60008054906101000a90046001600160a01b03166001600160a01b0316637be7d141858d8d8d8d8d888e8e8e8e8e6040518d63ffffffff1660e01b81526004016105319b9a99989796959493929190610fce565b6000604051808303818588803b15801561054a57600080fd5b505af115801561055e573d6000803e3d6000fd5b5050505050505050505050505050505050565b61057c888885610a00565b6001546040516360b66f4560e11b81526001600160a01b03898116600483015260248201899052878116604483015260648201879052851515608483015260a4820185905283151560c48301529091169063c16cde8a9060e401600060405180830381600087803b1580156105f057600080fd5b505af1158015610604573d6000803e3d6000fd5b505050505050505050505050565b6000546040516338c74dd960e01b81526001600160a01b0391821660048201527f0000000000000000000000000000000000000000000000000000000000000000909116906338c74dd990602401600060405180830381600087803b15801561067a57600080fd5b505af115801561068e573d6000803e3d6000fd5b5050505060005b600481101561080457600581600481106106b1576106b16111cc565b015460005460405163095ea7b360e01b81526001600160a01b0391821660048201526024810185905291169063095ea7b390604401602060405180830381600087803b15801561070057600080fd5b505af1158015610714573d6000803e3d6000fd5b505050506040513d601f19601f820116820180604052508101906107389190610f54565b506005816004811061074c5761074c6111cc565b015460405163095ea7b360e01b81526001600160a01b037f000000000000000000000000000000000000000000000000000000000000000081166004830152602482018590529091169063095ea7b390604401602060405180830381600087803b1580156107b957600080fd5b505af11580156107cd573d6000803e3d6000fd5b505050506040513d601f19601f820116820180604052508101906107f19190610f54565b50806107fc8161119b565b915050610695565b506004805460005460405163095ea7b360e01b81526001600160a01b039182169381019390935260248301849052169063095ea7b390604401602060405180830381600087803b15801561085757600080fd5b505af115801561086b573d6000803e3d6000fd5b505050506040513d601f19601f8201168201806040525081019061088f9190610f54565b506004805460405163095ea7b360e01b81526001600160a01b037f00000000000000000000000000000000000000000000000000000000000000008116938201939093526024810184905291169063095ea7b390604401602060405180830381600087803b15801561090057600080fd5b505af1158015610914573d6000803e3d6000fd5b505050506040513d601f19601f820116820180604052508101906109389190610f54565b5050565b6005816004811061094c57600080fd5b01546001600160a01b0316905081565b6109678b8a87610a00565b6000546001600160a01b0316635b88e8c66109828a86611183565b8c8c8b8b8b8b8b8b8b6040518b63ffffffff1660e01b815260040161033f99989796959493929190611041565b6109ba8c8a87610a00565b600154604051630b142a4b60e41b81526001600160a01b039091169063b142a4b0908490610531908f908f908f908f908f908f908f908f908f908b908f9060040161110e565b6003546001600160a01b0383811660009081526002602090815260408083208615158452909152908190205490516331a9108f60e11b81528287169390921691636352211e91610a569160040190815260200190565b60206040518083038186803b158015610a6e57600080fd5b505afa158015610a82573d6000803e3d6000fd5b505050506040513d601f19601f82011682018060405250810190610aa69190610c1c565b6001600160a01b031614610af35760405162461bcd60e51b8152602060048201526014602482015273796f7520646f6e277420686176652061206b657960601b6044820152606401610473565b600a546001600160a01b03163314610b54576009546001600160a01b03163314610b545760405162461bcd60e51b815260206004820152601260248201527134b73b30b634b21036b9b39739b2b73232b960711b6044820152606401610473565b505050565b8035610b64816111f8565b919050565b600082601f830112610b7a57600080fd5b8135602067ffffffffffffffff80831115610b9757610b976111e2565b8260051b604051601f19603f83011681018181108482111715610bbc57610bbc6111e2565b60405284815283810192508684018288018501891015610bdb57600080fd5b600092505b85831015610c0557610bf181610b59565b845292840192600192909201918401610be0565b50979650505050505050565b8035610b6481611210565b600060208284031215610c2e57600080fd5b8151610c39816111f8565b9392505050565b600080600080600080600080610100898b031215610c5d57600080fd5b8835610c68816111f8565b97506020890135610c78816111f8565b9650604089013595506060890135610c8f816111f8565b94506080890135935060a0890135610ca681611210565b925060c0890135915060e0890135610cbd81611210565b809150509295985092959890939650565b60008060008060008060008060008060006101608c8e031215610cf057600080fd5b8b35610cfb816111f8565b9a5060208c013567ffffffffffffffff811115610d1757600080fd5b610d238e828f01610b69565b9a505060408c0135610d34816111f8565b985060608c0135975060808c01359650610d5060a08d01610c11565b955060c08c0135945060e08c013593506101008c01359250610d756101208d01610c11565b9150610d846101408d01610b59565b90509295989b509295989b9093969950565b60008060008060008060008060008060006101608c8e031215610db857600080fd5b8b35610dc3816111f8565b9a5060208c013567ffffffffffffffff811115610ddf57600080fd5b610deb8e828f01610b69565b9a505060408c0135610dfc816111f8565b985060608c0135975060808c0135965060a08c01359550610e1f60c08d01610c11565b945060e08c013593506101008c013592506101208c01359150610d846101408d01610b59565b6000806000806000806000806000806000806101808d8f031215610e6857600080fd5b610e718d610b59565b9b5067ffffffffffffffff60208e01351115610e8c57600080fd5b610e9c8e60208f01358f01610b69565b9a5060408d01359950610eb160608e01610b59565b985060808d0135975060a08d01359650610ecd60c08e01610b59565b9550610edb60e08e01610c11565b94506101008d01359350610ef26101208e01610c11565b92506101408d01359150610f096101608e01610c11565b90509295989b509295989b509295989b565b60008060408385031215610f2e57600080fd5b8235610f39816111f8565b91506020830135610f4981611210565b809150509250929050565b600060208284031215610f6657600080fd5b8151610c3981611210565b600060208284031215610f8357600080fd5b5035919050565b600081518084526020808501945080840160005b83811015610fc35781516001600160a01b031687529582019590820190600101610f9e565b509495945050505050565b6000610160808352610fe28184018f610f8a565b6001600160a01b039d8e166020850152604084019c909c5250506060810198909852951515608088015293881660a087015260c086019290925260e0850152610100840152151561012083015290921661014090920191909152919050565b60006101208083526110558184018d610f8a565b6001600160a01b039b8c166020850152604084019a909a5250506060810196909652931515608086015260a085019290925260c084015260e083015290921661010090920191909152919050565b60006101408083526110b78184018e610f8a565b6001600160a01b039c8d166020850152604084019b909b5250506060810197909752608087019590955292151560a086015260c085019190915260e084015261010083015290921661012090920191909152919050565b60006101608083526111228184018f610f8a565b602084019d909d5250506001600160a01b03998a166040820152606081019890985260808801969096529390961660a086015290151560c085015260e084015292151561010083015261012082019290925290151561014090910152919050565b60008219821115611196576111966111b6565b500190565b60006000198214156111af576111af6111b6565b5060010190565b634e487b7160e01b600052601160045260246000fd5b634e487b7160e01b600052603260045260246000fd5b634e487b7160e01b600052604160045260246000fd5b6001600160a01b038116811461120d57600080fd5b50565b801515811461120d57600080fdfea2646970667358221220115e19361e7bc8308da04a139d80324aac8ad27b5a5b0150ff6640a4546063f964736f6c63430008060033a264697066735822122007173c83983e59e3a0c6c1773d3eb1cf305a8ae2cd6347c5065faaefbba3447864736f6c63430008060033",
  "devdoc": {
    "kind": "dev",
    "methods": {
      "approve(address,uint256)": {
        "details": "See {IERC721-approve}."
      },
      "balanceOf(address)": {
        "details": "See {IERC721-balanceOf}."
      },
      "currentPrice(uint256)": {
        "params": {
          "id": "position ID"
        }
      },
      "getApproved(uint256)": {
        "details": "See {IERC721-getApproved}."
      },
      "getPosition(uint256)": {
        "params": {
          "id": "collateral ID*"
        }
      },
      "getPositionDelta(uint256)": {
        "params": {
          "id": "collateral ID*"
        }
      },
      "isApprovedForAll(address,address)": {
        "details": "See {IERC721-isApprovedForAll}."
      },
      "name()": {
        "details": "See {IERC721Metadata-name}."
      },
      "owner()": {
        "details": "Returns the address of the current owner."
      },
      "ownerOf(uint256)": {
        "details": "See {IERC721-ownerOf}."
      },
      "renounceOwnership()": {
        "details": "Leaves the contract without owner. It will not be possible to call `onlyOwner` functions anymore. Can only be called by the current owner. NOTE: Renouncing ownership will leave the contract without an owner, thereby removing any functionality that is only available to the owner."
      },
      "safeTransferFrom(address,address,uint256)": {
        "details": "See {IERC721-safeTransferFrom}."
      },
      "safeTransferFrom(address,address,uint256,bytes)": {
        "details": "See {IERC721-safeTransferFrom}."
      },
      "setApprovalForAll(address,bool)": {
        "details": "See {IERC721-setApprovalForAll}."
      },
      "setDDL_GMX(address)": {
        "params": {
          "value": "the address of DDL_GMX*"
        }
      },
      "setPermission(string,bool)": {
        "params": {
          "symbol": "trough name",
          "value": "true or false *"
        }
      },
      "supportsInterface(bytes4)": {
        "details": "See {IERC165-supportsInterface}."
      },
      "symbol()": {
        "details": "See {IERC721Metadata-symbol}."
      },
      "tokenURI(uint256)": {
        "details": "See {IERC721Metadata-tokenURI}."
      },
      "transferFrom(address,address,uint256)": {
        "details": "See {IERC721-transferFrom}."
      },
      "transferOwnership(address)": {
        "details": "Transfers ownership of the contract to a new account (`newOwner`). Can only be called by the current owner."
      }
    },
    "version": 1
  },
  "userdoc": {
    "kind": "user",
    "methods": {
      "createDecreasePosition(address[],address,uint256,uint256,bool,uint256,uint256,uint256,bool,address)": {
        "notice": "used to decrease position on GMX*"
      },
      "createDoppelgangerGMX()": {
        "notice": "creates DoppelGanger account for the user*"
      },
      "createIncreasePosition(address[],address,uint256,uint256,uint256,bool,uint256,bytes32,address)": {
        "notice": "used to increase position on GMX*"
      },
      "createIncreasePositionETH(address[],address,uint256,uint256,uint256,bool,uint256,uint256,bytes32,address)": {
        "notice": "used to increase position on GMX (only ETH)*"
      },
      "currentPrice(uint256)": {
        "notice": "return currentPrice for the asset*"
      },
      "getPosition(uint256)": {
        "notice": "returns getPosition by the collateral"
      },
      "getPositionDelta(uint256)": {
        "notice": "returns getPositionDelta from GMX by the collateral ID"
      },
      "setDDL_GMX(address)": {
        "notice": "set new DDL_GMX address"
      },
      "setPermission(string,bool)": {
        "notice": "set permissions for trading pairs"
      }
    },
    "version": 1
  },
  "storageLayout": {
    "storage": [
      {
        "astId": 2058,
        "contract": "contracts/AccountManager.sol:AccountManager",
        "label": "_name",
        "offset": 0,
        "slot": "0",
        "type": "t_string_storage"
      },
      {
        "astId": 2060,
        "contract": "contracts/AccountManager.sol:AccountManager",
        "label": "_symbol",
        "offset": 0,
        "slot": "1",
        "type": "t_string_storage"
      },
      {
        "astId": 2064,
        "contract": "contracts/AccountManager.sol:AccountManager",
        "label": "_owners",
        "offset": 0,
        "slot": "2",
        "type": "t_mapping(t_uint256,t_address)"
      },
      {
        "astId": 2068,
        "contract": "contracts/AccountManager.sol:AccountManager",
        "label": "_balances",
        "offset": 0,
        "slot": "3",
        "type": "t_mapping(t_address,t_uint256)"
      },
      {
        "astId": 2072,
        "contract": "contracts/AccountManager.sol:AccountManager",
        "label": "_tokenApprovals",
        "offset": 0,
        "slot": "4",
        "type": "t_mapping(t_uint256,t_address)"
      },
      {
        "astId": 2078,
        "contract": "contracts/AccountManager.sol:AccountManager",
        "label": "_operatorApprovals",
        "offset": 0,
        "slot": "5",
        "type": "t_mapping(t_address,t_mapping(t_address,t_bool))"
      },
      {
        "astId": 596,
        "contract": "contracts/AccountManager.sol:AccountManager",
        "label": "_owner",
        "offset": 0,
        "slot": "6",
        "type": "t_address"
      },
      {
        "astId": 4632,
        "contract": "contracts/AccountManager.sol:AccountManager",
        "label": "ddl_gmx",
        "offset": 0,
        "slot": "7",
        "type": "t_contract(IDDL_GMX)8774"
      },
      {
        "astId": 4641,
        "contract": "contracts/AccountManager.sol:AccountManager",
        "label": "tokenId",
        "offset": 0,
        "slot": "8",
        "type": "t_uint256"
      },
      {
        "astId": 4645,
        "contract": "contracts/AccountManager.sol:AccountManager",
        "label": "doppelgangerMap",
        "offset": 0,
        "slot": "9",
        "type": "t_mapping(t_address,t_address)"
      },
      {
        "astId": 4661,
        "contract": "contracts/AccountManager.sol:AccountManager",
        "label": "keyData",
        "offset": 0,
        "slot": "10",
        "type": "t_mapping(t_uint256,t_struct(KeyInformation)4656_storage)"
      },
      {
        "astId": 4665,
        "contract": "contracts/AccountManager.sol:AccountManager",
        "label": "symbolByIndexToken",
        "offset": 0,
        "slot": "11",
        "type": "t_mapping(t_address,t_string_storage)"
      },
      {
        "astId": 4669,
        "contract": "contracts/AccountManager.sol:AccountManager",
        "label": "indexTokenBySymbol",
        "offset": 0,
        "slot": "12",
        "type": "t_mapping(t_string_memory_ptr,t_address)"
      },
      {
        "astId": 4673,
        "contract": "contracts/AccountManager.sol:AccountManager",
        "label": "permissions",
        "offset": 0,
        "slot": "13",
        "type": "t_mapping(t_address,t_bool)"
      },
      {
        "astId": 4686,
        "contract": "contracts/AccountManager.sol:AccountManager",
        "label": "arrSymbols",
        "offset": 0,
        "slot": "14",
        "type": "t_array(t_string_storage)8_storage"
      },
      {
        "astId": 4690,
        "contract": "contracts/AccountManager.sol:AccountManager",
        "label": "indexTokenArr",
        "offset": 0,
        "slot": "22",
        "type": "t_array(t_address)8_storage"
      }
    ],
    "types": {
      "t_address": {
        "encoding": "inplace",
        "label": "address",
        "numberOfBytes": "20"
      },
      "t_array(t_address)8_storage": {
        "base": "t_address",
        "encoding": "inplace",
        "label": "address[8]",
        "numberOfBytes": "256"
      },
      "t_array(t_string_storage)8_storage": {
        "base": "t_string_storage",
        "encoding": "inplace",
        "label": "string[8]",
        "numberOfBytes": "256"
      },
      "t_bool": {
        "encoding": "inplace",
        "label": "bool",
        "numberOfBytes": "1"
      },
      "t_contract(IDDL_GMX)8774": {
        "encoding": "inplace",
        "label": "contract IDDL_GMX",
        "numberOfBytes": "20"
      },
      "t_mapping(t_address,t_address)": {
        "encoding": "mapping",
        "key": "t_address",
        "label": "mapping(address => address)",
        "numberOfBytes": "32",
        "value": "t_address"
      },
      "t_mapping(t_address,t_bool)": {
        "encoding": "mapping",
        "key": "t_address",
        "label": "mapping(address => bool)",
        "numberOfBytes": "32",
        "value": "t_bool"
      },
      "t_mapping(t_address,t_mapping(t_address,t_bool))": {
        "encoding": "mapping",
        "key": "t_address",
        "label": "mapping(address => mapping(address => bool))",
        "numberOfBytes": "32",
        "value": "t_mapping(t_address,t_bool)"
      },
      "t_mapping(t_address,t_string_storage)": {
        "encoding": "mapping",
        "key": "t_address",
        "label": "mapping(address => string)",
        "numberOfBytes": "32",
        "value": "t_string_storage"
      },
      "t_mapping(t_address,t_uint256)": {
        "encoding": "mapping",
        "key": "t_address",
        "label": "mapping(address => uint256)",
        "numberOfBytes": "32",
        "value": "t_uint256"
      },
      "t_mapping(t_string_memory_ptr,t_address)": {
        "encoding": "mapping",
        "key": "t_string_memory_ptr",
        "label": "mapping(string => address)",
        "numberOfBytes": "32",
        "value": "t_address"
      },
      "t_mapping(t_uint256,t_address)": {
        "encoding": "mapping",
        "key": "t_uint256",
        "label": "mapping(uint256 => address)",
        "numberOfBytes": "32",
        "value": "t_address"
      },
      "t_mapping(t_uint256,t_struct(KeyInformation)4656_storage)": {
        "encoding": "mapping",
        "key": "t_uint256",
        "label": "mapping(uint256 => struct AccountManager.KeyInformation)",
        "numberOfBytes": "32",
        "value": "t_struct(KeyInformation)4656_storage"
      },
      "t_string_memory_ptr": {
        "encoding": "bytes",
        "label": "string",
        "numberOfBytes": "32"
      },
      "t_string_storage": {
        "encoding": "bytes",
        "label": "string",
        "numberOfBytes": "32"
      },
      "t_struct(KeyInformation)4656_storage": {
        "encoding": "inplace",
        "label": "struct AccountManager.KeyInformation",
        "members": [
          {
            "astId": 4647,
            "contract": "contracts/AccountManager.sol:AccountManager",
            "label": "symbol",
            "offset": 0,
            "slot": "0",
            "type": "t_string_storage"
          },
          {
            "astId": 4649,
            "contract": "contracts/AccountManager.sol:AccountManager",
            "label": "doppelgangerContract",
            "offset": 0,
            "slot": "1",
            "type": "t_address"
          },
          {
            "astId": 4651,
            "contract": "contracts/AccountManager.sol:AccountManager",
            "label": "isLong",
            "offset": 20,
            "slot": "1",
            "type": "t_bool"
          },
          {
            "astId": 4653,
            "contract": "contracts/AccountManager.sol:AccountManager",
            "label": "indexToken",
            "offset": 0,
            "slot": "2",
            "type": "t_address"
          },
          {
            "astId": 4655,
            "contract": "contracts/AccountManager.sol:AccountManager",
            "label": "user",
            "offset": 0,
            "slot": "3",
            "type": "t_address"
          }
        ],
        "numberOfBytes": "128"
      },
      "t_uint256": {
        "encoding": "inplace",
        "label": "uint256",
        "numberOfBytes": "32"
      }
    }
  }
}