{
  "address": "0x3c6F3Ef1F2Fa6d06dea68f634e67814f73db7d6a",
  "abi": [
    {
      "inputs": [
        {
          "internalType": "contract IRouter",
          "name": "_router",
          "type": "address"
        },
        {
          "internalType": "contract IOrderBook",
          "name": "_orderBook",
          "type": "address"
        },
        {
          "internalType": "address[8]",
          "name": "_indexTokenArr",
          "type": "address[8]"
        },
        {
          "internalType": "bool[8]",
          "name": "_permissions",
          "type": "bool[8]"
        }
      ],
      "stateMutability": "nonpayable",
      "type": "constructor"
    },
    {
      "anonymous": false,
      "inputs": [
        {
          "indexed": true,
          "internalType": "address",
          "name": "owner",
          "type": "address"
        },
        {
          "indexed": true,
          "internalType": "address",
          "name": "approved",
          "type": "address"
        },
        {
          "indexed": true,
          "internalType": "uint256",
          "name": "tokenId",
          "type": "uint256"
        }
      ],
      "name": "Approval",
      "type": "event"
    },
    {
      "anonymous": false,
      "inputs": [
        {
          "indexed": true,
          "internalType": "address",
          "name": "owner",
          "type": "address"
        },
        {
          "indexed": true,
          "internalType": "address",
          "name": "operator",
          "type": "address"
        },
        {
          "indexed": false,
          "internalType": "bool",
          "name": "approved",
          "type": "bool"
        }
      ],
      "name": "ApprovalForAll",
      "type": "event"
    },
    {
      "anonymous": false,
      "inputs": [
        {
          "indexed": true,
          "internalType": "address",
          "name": "previousOwner",
          "type": "address"
        },
        {
          "indexed": true,
          "internalType": "address",
          "name": "newOwner",
          "type": "address"
        }
      ],
      "name": "OwnershipTransferred",
      "type": "event"
    },
    {
      "anonymous": false,
      "inputs": [
        {
          "indexed": true,
          "internalType": "address",
          "name": "from",
          "type": "address"
        },
        {
          "indexed": true,
          "internalType": "address",
          "name": "to",
          "type": "address"
        },
        {
          "indexed": true,
          "internalType": "uint256",
          "name": "tokenId",
          "type": "uint256"
        }
      ],
      "name": "Transfer",
      "type": "event"
    },
    {
      "inputs": [
        {
          "internalType": "address",
          "name": "to",
          "type": "address"
        },
        {
          "internalType": "uint256",
          "name": "tokenId",
          "type": "uint256"
        }
      ],
      "name": "approve",
      "outputs": [],
      "stateMutability": "nonpayable",
      "type": "function"
    },
    {
      "inputs": [
        {
          "internalType": "address",
          "name": "owner",
          "type": "address"
        }
      ],
      "name": "balanceOf",
      "outputs": [
        {
          "internalType": "uint256",
          "name": "",
          "type": "uint256"
        }
      ],
      "stateMutability": "view",
      "type": "function"
    },
    {
      "inputs": [
        {
          "internalType": "address[]",
          "name": "_path",
          "type": "address[]"
        },
        {
          "internalType": "address",
          "name": "_indexToken",
          "type": "address"
        },
        {
          "internalType": "uint256",
          "name": "_collateralDelta",
          "type": "uint256"
        },
        {
          "internalType": "uint256",
          "name": "_sizeDelta",
          "type": "uint256"
        },
        {
          "internalType": "bool",
          "name": "_isLong",
          "type": "bool"
        },
        {
          "internalType": "uint256",
          "name": "_acceptablePrice",
          "type": "uint256"
        },
        {
          "internalType": "uint256",
          "name": "_minOut",
          "type": "uint256"
        },
        {
          "internalType": "uint256",
          "name": "_executionFee",
          "type": "uint256"
        },
        {
          "internalType": "bool",
          "name": "_withdrawETH",
          "type": "bool"
        }
      ],
      "name": "createDecreasePosition",
      "outputs": [],
      "stateMutability": "payable",
      "type": "function"
    },
    {
      "inputs": [],
      "name": "createDoppelgangerGMX",
      "outputs": [],
      "stateMutability": "nonpayable",
      "type": "function"
    },
    {
      "inputs": [
        {
          "internalType": "address[]",
          "name": "_path",
          "type": "address[]"
        },
        {
          "internalType": "uint256",
          "name": "_amountIn",
          "type": "uint256"
        },
        {
          "internalType": "address",
          "name": "_indexToken",
          "type": "address"
        },
        {
          "internalType": "uint256",
          "name": "_minOut",
          "type": "uint256"
        },
        {
          "internalType": "uint256",
          "name": "_sizeDelta",
          "type": "uint256"
        },
        {
          "internalType": "address",
          "name": "_collateralToken",
          "type": "address"
        },
        {
          "internalType": "bool",
          "name": "_isLong",
          "type": "bool"
        },
        {
          "internalType": "uint256",
          "name": "_triggerPrice",
          "type": "uint256"
        },
        {
          "internalType": "bool",
          "name": "_triggerAboveThreshold",
          "type": "bool"
        },
        {
          "internalType": "uint256",
          "name": "_executionFee",
          "type": "uint256"
        },
        {
          "internalType": "bool",
          "name": "_shouldWrap",
          "type": "bool"
        }
      ],
      "name": "createIncreaseOrder",
      "outputs": [],
      "stateMutability": "payable",
      "type": "function"
    },
    {
      "inputs": [
        {
          "internalType": "address[]",
          "name": "_path",
          "type": "address[]"
        },
        {
          "internalType": "address",
          "name": "_indexToken",
          "type": "address"
        },
        {
          "internalType": "uint256",
          "name": "_amountIn",
          "type": "uint256"
        },
        {
          "internalType": "uint256",
          "name": "_minOut",
          "type": "uint256"
        },
        {
          "internalType": "uint256",
          "name": "_sizeDelta",
          "type": "uint256"
        },
        {
          "internalType": "bool",
          "name": "_isLong",
          "type": "bool"
        },
        {
          "internalType": "uint256",
          "name": "_acceptablePrice",
          "type": "uint256"
        },
        {
          "internalType": "bytes32",
          "name": "_referralCode",
          "type": "bytes32"
        }
      ],
      "name": "createIncreasePosition",
      "outputs": [],
      "stateMutability": "payable",
      "type": "function"
    },
    {
      "inputs": [
        {
          "internalType": "address[]",
          "name": "_path",
          "type": "address[]"
        },
        {
          "internalType": "address",
          "name": "_indexToken",
          "type": "address"
        },
        {
          "internalType": "uint256",
          "name": "_amountIn",
          "type": "uint256"
        },
        {
          "internalType": "uint256",
          "name": "_minOut",
          "type": "uint256"
        },
        {
          "internalType": "uint256",
          "name": "_sizeDelta",
          "type": "uint256"
        },
        {
          "internalType": "bool",
          "name": "_isLong",
          "type": "bool"
        },
        {
          "internalType": "uint256",
          "name": "_acceptablePrice",
          "type": "uint256"
        },
        {
          "internalType": "uint256",
          "name": "_executionFee",
          "type": "uint256"
        },
        {
          "internalType": "bytes32",
          "name": "_referralCode",
          "type": "bytes32"
        }
      ],
      "name": "createIncreasePositionETH",
      "outputs": [],
      "stateMutability": "payable",
      "type": "function"
    },
    {
      "inputs": [
        {
          "internalType": "uint256",
          "name": "id",
          "type": "uint256"
        }
      ],
      "name": "currentPrice",
      "outputs": [
        {
          "internalType": "uint256",
          "name": "",
          "type": "uint256"
        }
      ],
      "stateMutability": "view",
      "type": "function"
    },
    {
      "inputs": [],
      "name": "ddl_gmx",
      "outputs": [
        {
          "internalType": "contract IDDL_GMX",
          "name": "",
          "type": "address"
        }
      ],
      "stateMutability": "view",
      "type": "function"
    },
    {
      "inputs": [
        {
          "internalType": "address",
          "name": "",
          "type": "address"
        }
      ],
      "name": "doppelgangerMap",
      "outputs": [
        {
          "internalType": "address",
          "name": "",
          "type": "address"
        }
      ],
      "stateMutability": "view",
      "type": "function"
    },
    {
      "inputs": [
        {
          "internalType": "uint256",
          "name": "tokenId",
          "type": "uint256"
        }
      ],
      "name": "getApproved",
      "outputs": [
        {
          "internalType": "address",
          "name": "",
          "type": "address"
        }
      ],
      "stateMutability": "view",
      "type": "function"
    },
    {
      "inputs": [
        {
          "internalType": "uint256",
          "name": "id",
          "type": "uint256"
        }
      ],
      "name": "getPosition",
      "outputs": [
        {
          "internalType": "uint256",
          "name": "size",
          "type": "uint256"
        },
        {
          "internalType": "uint256",
          "name": "collateral",
          "type": "uint256"
        },
        {
          "internalType": "uint256",
          "name": "averagePrice",
          "type": "uint256"
        },
        {
          "internalType": "uint256",
          "name": "entryFundingRate",
          "type": "uint256"
        },
        {
          "internalType": "uint256",
          "name": "reserveAmount",
          "type": "uint256"
        },
        {
          "internalType": "uint256",
          "name": "realisedPnl",
          "type": "uint256"
        },
        {
          "internalType": "bool",
          "name": "isProfit",
          "type": "bool"
        },
        {
          "internalType": "uint256",
          "name": "lastIncreasedTime",
          "type": "uint256"
        }
      ],
      "stateMutability": "view",
      "type": "function"
    },
    {
      "inputs": [
        {
          "internalType": "uint256",
          "name": "id",
          "type": "uint256"
        }
      ],
      "name": "getPositionDelta",
      "outputs": [
        {
          "internalType": "bool",
          "name": "isProfit",
          "type": "bool"
        },
        {
          "internalType": "uint256",
          "name": "profit",
          "type": "uint256"
        }
      ],
      "stateMutability": "view",
      "type": "function"
    },
    {
      "inputs": [
        {
          "internalType": "string",
          "name": "",
          "type": "string"
        }
      ],
      "name": "indexTokenBySymbol",
      "outputs": [
        {
          "internalType": "address",
          "name": "",
          "type": "address"
        }
      ],
      "stateMutability": "view",
      "type": "function"
    },
    {
      "inputs": [
        {
          "internalType": "address",
          "name": "owner",
          "type": "address"
        },
        {
          "internalType": "address",
          "name": "operator",
          "type": "address"
        }
      ],
      "name": "isApprovedForAll",
      "outputs": [
        {
          "internalType": "bool",
          "name": "",
          "type": "bool"
        }
      ],
      "stateMutability": "view",
      "type": "function"
    },
    {
      "inputs": [
        {
          "internalType": "uint256",
          "name": "",
          "type": "uint256"
        }
      ],
      "name": "keyData",
      "outputs": [
        {
          "internalType": "string",
          "name": "symbol",
          "type": "string"
        },
        {
          "internalType": "address",
          "name": "doppelgangerContract",
          "type": "address"
        },
        {
          "internalType": "bool",
          "name": "isLong",
          "type": "bool"
        },
        {
          "internalType": "address",
          "name": "indexToken",
          "type": "address"
        },
        {
          "internalType": "address",
          "name": "user",
          "type": "address"
        }
      ],
      "stateMutability": "view",
      "type": "function"
    },
    {
      "inputs": [],
      "name": "name",
      "outputs": [
        {
          "internalType": "string",
          "name": "",
          "type": "string"
        }
      ],
      "stateMutability": "view",
      "type": "function"
    },
    {
      "inputs": [],
      "name": "orderBook",
      "outputs": [
        {
          "internalType": "contract IOrderBook",
          "name": "",
          "type": "address"
        }
      ],
      "stateMutability": "view",
      "type": "function"
    },
    {
      "inputs": [],
      "name": "owner",
      "outputs": [
        {
          "internalType": "address",
          "name": "",
          "type": "address"
        }
      ],
      "stateMutability": "view",
      "type": "function"
    },
    {
      "inputs": [
        {
          "internalType": "uint256",
          "name": "tokenId",
          "type": "uint256"
        }
      ],
      "name": "ownerOf",
      "outputs": [
        {
          "internalType": "address",
          "name": "",
          "type": "address"
        }
      ],
      "stateMutability": "view",
      "type": "function"
    },
    {
      "inputs": [
        {
          "internalType": "address",
          "name": "",
          "type": "address"
        }
      ],
      "name": "permissions",
      "outputs": [
        {
          "internalType": "bool",
          "name": "",
          "type": "bool"
        }
      ],
      "stateMutability": "view",
      "type": "function"
    },
    {
      "inputs": [],
      "name": "renounceOwnership",
      "outputs": [],
      "stateMutability": "nonpayable",
      "type": "function"
    },
    {
      "inputs": [],
      "name": "router",
      "outputs": [
        {
          "internalType": "contract IRouter",
          "name": "",
          "type": "address"
        }
      ],
      "stateMutability": "view",
      "type": "function"
    },
    {
      "inputs": [
        {
          "internalType": "address",
          "name": "from",
          "type": "address"
        },
        {
          "internalType": "address",
          "name": "to",
          "type": "address"
        },
        {
          "internalType": "uint256",
          "name": "tokenId",
          "type": "uint256"
        }
      ],
      "name": "safeTransferFrom",
      "outputs": [],
      "stateMutability": "nonpayable",
      "type": "function"
    },
    {
      "inputs": [
        {
          "internalType": "address",
          "name": "from",
          "type": "address"
        },
        {
          "internalType": "address",
          "name": "to",
          "type": "address"
        },
        {
          "internalType": "uint256",
          "name": "tokenId",
          "type": "uint256"
        },
        {
          "internalType": "bytes",
          "name": "data",
          "type": "bytes"
        }
      ],
      "name": "safeTransferFrom",
      "outputs": [],
      "stateMutability": "nonpayable",
      "type": "function"
    },
    {
      "inputs": [
        {
          "internalType": "address",
          "name": "operator",
          "type": "address"
        },
        {
          "internalType": "bool",
          "name": "approved",
          "type": "bool"
        }
      ],
      "name": "setApprovalForAll",
      "outputs": [],
      "stateMutability": "nonpayable",
      "type": "function"
    },
    {
      "inputs": [
        {
          "internalType": "contract IDDL_GMX",
          "name": "value",
          "type": "address"
        }
      ],
      "name": "setDDL_GMX",
      "outputs": [],
      "stateMutability": "nonpayable",
      "type": "function"
    },
    {
      "inputs": [
        {
          "internalType": "string",
          "name": "symbol",
          "type": "string"
        },
        {
          "internalType": "bool",
          "name": "value",
          "type": "bool"
        }
      ],
      "name": "setPermission",
      "outputs": [],
      "stateMutability": "nonpayable",
      "type": "function"
    },
    {
      "inputs": [
        {
          "internalType": "bytes4",
          "name": "interfaceId",
          "type": "bytes4"
        }
      ],
      "name": "supportsInterface",
      "outputs": [
        {
          "internalType": "bool",
          "name": "",
          "type": "bool"
        }
      ],
      "stateMutability": "view",
      "type": "function"
    },
    {
      "inputs": [],
      "name": "symbol",
      "outputs": [
        {
          "internalType": "string",
          "name": "",
          "type": "string"
        }
      ],
      "stateMutability": "view",
      "type": "function"
    },
    {
      "inputs": [
        {
          "internalType": "address",
          "name": "",
          "type": "address"
        }
      ],
      "name": "symbolByIndexToken",
      "outputs": [
        {
          "internalType": "string",
          "name": "",
          "type": "string"
        }
      ],
      "stateMutability": "view",
      "type": "function"
    },
    {
      "inputs": [],
      "name": "tokenId",
      "outputs": [
        {
          "internalType": "uint256",
          "name": "",
          "type": "uint256"
        }
      ],
      "stateMutability": "view",
      "type": "function"
    },
    {
      "inputs": [
        {
          "internalType": "uint256",
          "name": "tokenId",
          "type": "uint256"
        }
      ],
      "name": "tokenURI",
      "outputs": [
        {
          "internalType": "string",
          "name": "",
          "type": "string"
        }
      ],
      "stateMutability": "view",
      "type": "function"
    },
    {
      "inputs": [
        {
          "internalType": "address",
          "name": "from",
          "type": "address"
        },
        {
          "internalType": "address",
          "name": "to",
          "type": "address"
        },
        {
          "internalType": "uint256",
          "name": "tokenId",
          "type": "uint256"
        }
      ],
      "name": "transferFrom",
      "outputs": [],
      "stateMutability": "nonpayable",
      "type": "function"
    },
    {
      "inputs": [
        {
          "internalType": "address",
          "name": "newOwner",
          "type": "address"
        }
      ],
      "name": "transferOwnership",
      "outputs": [],
      "stateMutability": "nonpayable",
      "type": "function"
    }
  ],
  "transactionHash": "0xa28d8f5c573a101c150f1e1024bc948bc446287b7779bf7214c04cbe7be16b5e",
  "args": [
    "0xaBBc5F99639c9B6bCb58544ddf04EFA6802F4064",
    "0x09f77e8a13de9a35a7231028187e9fd5db8a2acb",
    [
      "0x82aF49447D8a07e3bd95BD0d56f35241523fBab1",
      "0x2f2a2543B76A4166549F7aaB2e75Bef0aefC5B0f",
      "0xf97f4df75117a78c1A5a0DBb814Af92458539FB4",
      "0xFa7F8980b0f1E64A2062791cc3b0871572f1F7f0",
      "0x82aF49447D8a07e3bd95BD0d56f35241523fBab1",
      "0x2f2a2543B76A4166549F7aaB2e75Bef0aefC5B0f",
      "0xf97f4df75117a78c1A5a0DBb814Af92458539FB4",
      "0xFa7F8980b0f1E64A2062791cc3b0871572f1F7f0"
    ],
    [
      true,
      true,
      true,
      true,
      true,
      true,
      true,
      true
    ]
  ],
  "numDeployments": 1,
  "solcInputHash": "675c674c69a0eba5cdc9141eb7ccde82",
  "bytecode": "0x60006008908155600c6101c08181526b4554485f5553445f4c4f4e4760a01b6101e05260c09081526102008281526b4254435f5553445f4c4f4e4760a01b6102205260e052600d6102408181526c4c494e4b5f5553445f4c4f4e4760981b61026052610100526102809283526b554e495f5553445f4c4f4e4760a01b6102a052610120929092526102c08281526c11551217d554d117d4d213d495609a1b6102e052610140526103008281526c109510d7d554d117d4d213d495609a1b6103205261016052600e6103408181526d13125392d7d554d117d4d213d49560921b61036052610180526103c06040526103809283526c15539257d554d117d4d213d495609a1b6103a0526101a0929092526200011992620003d1565b503480156200012757600080fd5b5060405162005b5438038062005b548339810160408190526200014a916200066c565b604080518082018252601981527f474d5820706f736974696f6e20746f6b656e697a6174696f6e0000000000000060208083019182528351808501909452600584526411d356141560da1b908401528151919291620001ac9160009162000428565b508051620001c290600190602084019062000428565b505050620001df620001d96200037b60201b60201c565b6200037f565b6001600160601b0319606085811b821660805284901b1660a052620002086016836008620004b3565b5060005b60088110156200037057600e81600881106200022c576200022c6200086a565b01600b60008584600881106200024657620002466200086a565b60200201516001600160a01b03166001600160a01b03168152602001908152602001600020908054620002799062000803565b62000286929190620004fe565b508281600881106200029c576200029c6200086a565b6020020151600c600e8360088110620002b957620002b96200086a565b01604051620002c9919062000727565b90815260405190819003602001902080546001600160a01b03929092166001600160a01b03199092169190911790558181600881106200030d576200030d6200086a565b6020020151600d60008584600881106200032b576200032b6200086a565b602090810291909101516001600160a01b03168252810191909152604001600020805460ff191691151591909117905580620003678162000840565b9150506200020c565b505050505062000896565b3390565b600680546001600160a01b038381166001600160a01b0319831681179093556040519116919082907f8be0079c531659141344cd1fd0a4f28419497f9722a3daafe3b4186f6b6457e090600090a35050565b826008810192821562000416579160200282015b828111156200041657825180516200040591849160209091019062000428565b5091602001919060010190620003e5565b506200042492915062000582565b5090565b828054620004369062000803565b90600052602060002090601f0160209004810192826200045a5760008555620004a5565b82601f106200047557805160ff1916838001178555620004a5565b82800160010185558215620004a5579182015b82811115620004a557825182559160200191906001019062000488565b5062000424929150620005a3565b8260088101928215620004a5579160200282015b82811115620004a557825182546001600160a01b0319166001600160a01b03909116178255602090920191600190910190620004c7565b8280546200050c9062000803565b90600052602060002090601f016020900481019282620005305760008555620004a5565b82601f10620005435780548555620004a5565b82800160010185558215620004a557600052602060002091601f016020900482015b82811115620004a557825482559160010191906001019062000565565b8082111562000424576000620005998282620005ba565b5060010162000582565b5b80821115620004245760008155600101620005a4565b508054620005c89062000803565b6000825580601f10620005d9575050565b601f016020900490600052602060002090810190620005f99190620005a3565b50565b600082601f8301126200060e57600080fd5b62000618620007cb565b808385610100860111156200062c57600080fd5b6000805b60088110156200066057825180151581146200064a578283fd5b8552602094850194929092019160010162000630565b50919695505050505050565b60008060008061024085870312156200068457600080fd5b8451620006918162000880565b80945050602080860151620006a68162000880565b9350605f86018713620006b857600080fd5b620006c2620007cb565b806040880161014089018a811115620006da57600080fd5b60005b600881101562000707578251620006f48162000880565b85529385019391850191600101620006dd565b50829650620007178b82620005fc565b9550505050505092959194509250565b600080835481600182811c9150808316806200074457607f831692505b60208084108214156200076557634e487b7160e01b86526022600452602486fd5b8180156200077c57600181146200078e57620007bd565b60ff19861689528489019650620007bd565b60008a81526020902060005b86811015620007b55781548b8201529085019083016200079a565b505084890196505b509498975050505050505050565b60405161010081016001600160401b0381118282101715620007fd57634e487b7160e01b600052604160045260246000fd5b60405290565b600181811c908216806200081857607f821691505b602082108114156200083a57634e487b7160e01b600052602260045260246000fd5b50919050565b60006000198214156200086357634e487b7160e01b600052601160045260246000fd5b5060010190565b634e487b7160e01b600052603260045260246000fd5b6001600160a01b0381168114620005f957600080fd5b60805160601c60a05160601c615284620008d06000396000818161051201526111b2015260008181610789015261119101526152846000f3fe6080604052600436106200022f5760003560e01c8063715018a6116200012f578063c87b56dd11620000ad578063eb02c3011162000078578063eb02c30114620006ed578063f2fde38b1462000750578063f887ea401462000775578063fc4f068914620007ab578063fec56fe014620007f057600080fd5b8063c87b56dd146200062c578063e6e6dd2f1462000651578063e905339d1462000689578063e985e9c514620006a057600080fd5b806395d89b4111620000fa57806395d89b411462000579578063a22cb4651462000591578063a4cf54a214620005b6578063b142a4b014620005f0578063b88d4fde146200060757600080fd5b8063715018a614620004e6578063776af5ba14620004fe5780637a3c4c1714620005345780638da5cb5b146200055957600080fd5b80631d06977411620001bd57806336330a4f116200018857806336330a4f146200043a57806342842e0e146200045f578063449bd2cc14620004845780636352211e146200049c57806370a0823114620004c157600080fd5b80631d069774146200038e57806323b872dd14620003b35780633264fee514620003d857806332d53b1714620003fd57600080fd5b8063095ea7b311620001fe578063095ea7b314620003075780630b8b47fe146200032e5780630cd790f7146200034557806317d70f7c146200036757600080fd5b806301e88208146200023457806301ffc9a7146200027d57806306fdde0314620002a2578063081812fc14620002c9575b600080fd5b3480156200024157600080fd5b5062000268620002533660046200310e565b600d6020526000908152604090205460ff1681565b60405190151581526020015b60405180910390f35b3480156200028a57600080fd5b50620002686200029c366004620035b8565b62000807565b348015620002af57600080fd5b50620002ba6200085b565b60405162000274919062003a54565b348015620002d657600080fd5b50620002ee620002e83660046200369e565b620008f5565b6040516001600160a01b03909116815260200162000274565b3480156200031457600080fd5b506200032c620003263660046200326e565b6200091e565b005b6200032c6200033f366004620033ea565b62000a43565b3480156200035257600080fd5b50600754620002ee906001600160a01b031681565b3480156200037457600080fd5b506200037f60085481565b60405190815260200162000274565b3480156200039b57600080fd5b506200032c620003ad36600462003651565b62000c76565b348015620003c057600080fd5b506200032c620003d23660046200316c565b62000cd2565b348015620003e557600080fd5b506200032c620003f73660046200310e565b62000d0a565b3480156200040a57600080fd5b50620004226200041c3660046200369e565b62000d36565b60408051921515835260208301919091520162000274565b3480156200044757600080fd5b50620002ba620004593660046200310e565b62000f66565b3480156200046c57600080fd5b506200032c6200047e3660046200316c565b62001008565b3480156200049157600080fd5b506200032c62001025565b348015620004a957600080fd5b50620002ee620004bb3660046200369e565b620014c3565b348015620004ce57600080fd5b506200037f620004e03660046200310e565b62001525565b348015620004f357600080fd5b506200032c620015ad565b3480156200050b57600080fd5b50620002ee7f000000000000000000000000000000000000000000000000000000000000000081565b3480156200054157600080fd5b506200037f620005533660046200369e565b620015c5565b3480156200056657600080fd5b506006546001600160a01b0316620002ee565b3480156200058657600080fd5b50620002ba62001911565b3480156200059e57600080fd5b506200032c620005b03660046200323b565b62001922565b348015620005c357600080fd5b50620002ee620005d53660046200310e565b6009602052600090815260409020546001600160a01b031681565b6200032c6200060136600462003491565b62001933565b3480156200061457600080fd5b506200032c62000626366004620031b2565b62001cb8565b3480156200063957600080fd5b50620002ba6200064b3660046200369e565b62001cf1565b3480156200065e57600080fd5b5062000676620006703660046200369e565b62001d6d565b6040516200027495949392919062003a69565b6200032c6200069a3660046200334f565b62001e40565b348015620006ad57600080fd5b5062000268620006bf3660046200312e565b6001600160a01b03918216600090815260056020908152604080832093909416825291909152205460ff1690565b348015620006fa57600080fd5b50620007126200070c3660046200369e565b620021c1565b604080519889526020890197909752958701949094526060860192909252608085015260a0840152151560c083015260e08201526101000162000274565b3480156200075d57600080fd5b506200032c6200076f3660046200310e565b6200241e565b3480156200078257600080fd5b50620002ee7f000000000000000000000000000000000000000000000000000000000000000081565b348015620007b857600080fd5b50620002ee620007ca36600462003618565b8051602081830181018051600c825292820191909301209152546001600160a01b031681565b6200032c620008013660046200329d565b6200249d565b60006001600160e01b031982166380ac58cd60e01b14806200083957506001600160e01b03198216635b5e139f60e01b145b806200085557506301ffc9a760e01b6001600160e01b03198316145b92915050565b6060600080546200086c9062003c36565b80601f01602080910402602001604051908101604052809291908181526020018280546200089a9062003c36565b8015620008eb5780601f10620008bf57610100808354040283529160200191620008eb565b820191906000526020600020905b815481529060010190602001808311620008cd57829003601f168201915b5050505050905090565b6000620009028262002688565b506000908152600460205260409020546001600160a01b031690565b60006200092b82620014c3565b9050806001600160a01b0316836001600160a01b031614156200099f5760405162461bcd60e51b815260206004820152602160248201527f4552433732313a20617070726f76616c20746f2063757272656e74206f776e656044820152603960f91b60648201526084015b60405180910390fd5b336001600160a01b0382161480620009be5750620009be8133620006bf565b62000a325760405162461bcd60e51b815260206004820152603e60248201527f4552433732313a20617070726f76652063616c6c6572206973206e6f7420746f60448201527f6b656e206f776e6572206e6f7220617070726f76656420666f7220616c6c0000606482015260840162000996565b62000a3e8383620026e9565b505050565b6001600160a01b0388166000908152600d602052604090205460ff1662000a7e5760405162461bcd60e51b8152600401620009969062003b02565b600754604080516361ef161f60e01b815290516000926001600160a01b0316916361ef161f916004808301926020929190829003018186803b15801562000ac457600080fd5b505afa15801562000ad9573d6000803e3d6000fd5b505050506040513d601f19601f8201168201806040525081019062000aff9190620035f8565b6001600160a01b03166363ae21036040518163ffffffff1660e01b815260040160206040518083038186803b15801562000b3857600080fd5b505afa15801562000b4d573d6000803e3d6000fd5b505050506040513d601f19601f8201168201806040525081019062000b739190620036b8565b336000908152600960205260409020549091506001600160a01b031663d0e30db062000ba08a8462003bbb565b6040518263ffffffff1660e01b81526004016000604051808303818588803b15801562000bcc57600080fd5b505af115801562000be1573d6000803e3d6000fd5b505033600081815260096020526040908190205490516306e9bd4b60e01b81526001600160a01b0390911694506306e9bd4b935062000c3692508e908e908e908e908e908e908e908e908e90600401620038ae565b600060405180830381600087803b15801562000c5157600080fd5b505af115801562000c66573d6000803e3d6000fd5b5050505050505050505050505050565b62000c8062002759565b80600d6000600c8560405162000c979190620037b3565b9081526040805160209281900383019020546001600160a01b031683529082019290925201600020805460ff19169115159190911790555050565b62000cde3382620027b5565b62000cfd5760405162461bcd60e51b8152600401620009969062003b39565b62000a3e8383836200283a565b62000d1462002759565b600780546001600160a01b0319166001600160a01b0392909216919091179055565b600080600760009054906101000a90046001600160a01b03166001600160a01b031663fbfa77cf6040518163ffffffff1660e01b815260040160206040518083038186803b15801562000d8857600080fd5b505afa15801562000d9d573d6000803e3d6000fd5b505050506040513d601f19601f8201168201806040525081019062000dc39190620035f8565b6000848152600a60205260409020600101546001600160a01b03918216916345a6f3709190811690600160a01b900460ff1662000e8a57600760009054906101000a90046001600160a01b03166001600160a01b03166389a302716040518163ffffffff1660e01b815260040160206040518083038186803b15801562000e4957600080fd5b505afa15801562000e5e573d6000803e3d6000fd5b505050506040513d601f19601f8201168201806040525081019062000e849190620035f8565b62000ea6565b6000868152600a60205260409020600201546001600160a01b03165b6000878152600a6020526040908190206002810154600190910154915160e086901b6001600160e01b03191681526001600160a01b0394851660048201529284166024840152929092166044820152600160a01b90910460ff1615156064820152608401604080518083038186803b15801562000f2257600080fd5b505afa15801562000f37573d6000803e3d6000fd5b505050506040513d601f19601f8201168201806040525081019062000f5d919062003587565b91509150915091565b600b602052600090815260409020805462000f819062003c36565b80601f016020809104026020016040519081016040528092919081815260200182805462000faf9062003c36565b8015620010005780601f1062000fd45761010080835404028352916020019162001000565b820191906000526020600020905b81548152906001019060200180831162000fe257829003601f168201915b505050505081565b62000a3e8383836040518060200160405280600081525062001cb8565b336000908152600960205260409020546001600160a01b031615620010a15760405162461bcd60e51b815260206004820152602b60248201527f446f7070656c47616e67657220666f722074686973206164647265737320616c60448201526a1c9958591e48195e1a5cdd60aa1b606482015260840162000996565b6008805490806000620010b5828562003bbb565b90915550620010c5905062002f0e565b60005b60088110156200110d57620010de818462003bbb565b828260088110620010f357620010f362003cd4565b602002015280620011048162003c73565b915050620010c8565b50600754604080516361ef161f60e01b815290516000926001600160a01b0316916361ef161f916004808301926020929190829003018186803b1580156200115457600080fd5b505afa15801562001169573d6000803e3d6000fd5b505050506040513d601f19601f820116820180604052508101906200118f9190620035f8565b7f00000000000000000000000000000000000000000000000000000000000000007f0000000000000000000000000000000000000000000000000000000000000000600760009054906101000a90046001600160a01b03166001600160a01b03166389a302716040518163ffffffff1660e01b815260040160206040518083038186803b1580156200122057600080fd5b505afa15801562001235573d6000803e3d6000fd5b505050506040513d601f19601f820116820180604052508101906200125b9190620035f8565b600754604051879160169130916001600160a01b0316906200127d9062002f2d565b6200129098979695949392919062003997565b604051809103906000f080158015620012ad573d6000803e3d6000fd5b5033600090815260096020526040812080546001600160a01b0319166001600160a01b0384161790559091505b6008811015620014bd576040518060a00160405280600e836008811062001305576200130562003cd4565b018054620013139062003c36565b80601f0160208091040260200160405190810160405280929190818152602001828054620013419062003c36565b8015620013925780601f10620013665761010080835404028352916020019162001392565b820191906000526020600020905b8154815290600101906020018083116200137457829003601f168201915b50505050508152602001836001600160a01b0316815260200160048310620013bc576000620013bf565b60015b1515815260200160168360088110620013dc57620013dc62003cd4565b01546001600160a01b0316815233602090910152600a600062001400848862003bbb565b8152602080820192909252604001600020825180519192620014289284929091019062002f3b565b50602082015160018201805460408501511515600160a01b026001600160a81b03199091166001600160a01b039384161717905560608301516002830180549183166001600160a01b0319928316179055608090930151600390920180549290911691909216179055620014a833620014a2838762003bbb565b620029e2565b80620014b48162003c73565b915050620012da565b50505050565b6000818152600260205260408120546001600160a01b031680620008555760405162461bcd60e51b8152602060048201526018602482015277115490cdcc8c4e881a5b9d985b1a59081d1bdad95b88125160421b604482015260640162000996565b60006001600160a01b038216620015915760405162461bcd60e51b815260206004820152602960248201527f4552433732313a2061646472657373207a65726f206973206e6f7420612076616044820152683634b21037bbb732b960b91b606482015260840162000996565b506001600160a01b031660009081526003602052604090205490565b620015b762002759565b620015c36000620029fe565b565b6000818152600a6020526040808220815160a0810190925280548392919082908290620015f29062003c36565b80601f0160208091040260200160405190810160405280929190818152602001828054620016209062003c36565b8015620016715780601f10620016455761010080835404028352916020019162001671565b820191906000526020600020905b8154815290600101906020018083116200165357829003601f168201915b505050918352505060018201546001600160a01b038082166020840152600160a01b90910460ff1615156040808401919091526002840154821660608401526003909301548116608090920191909152600754915163a226b48360e01b815260048101879052929350169063a226b4839060240160206040518083038186803b158015620016fe57600080fd5b505afa15801562001713573d6000803e3d6000fd5b505050506040513d601f19601f8201168201806040525081019062001739919062003567565b156200185357600760009054906101000a90046001600160a01b03166001600160a01b031663fbfa77cf6040518163ffffffff1660e01b815260040160206040518083038186803b1580156200178e57600080fd5b505afa158015620017a3573d6000803e3d6000fd5b505050506040513d601f19601f82011682018060405250810190620017c99190620035f8565b6060820151604051637092736960e11b81526001600160a01b03918216600482015291169063e124e6d2906024015b60206040518083038186803b1580156200181157600080fd5b505afa15801562001826573d6000803e3d6000fd5b505050506040513d601f19601f820116820180604052508101906200184c9190620036b8565b9392505050565b600760009054906101000a90046001600160a01b03166001600160a01b031663fbfa77cf6040518163ffffffff1660e01b815260040160206040518083038186803b158015620018a257600080fd5b505afa158015620018b7573d6000803e3d6000fd5b505050506040513d601f19601f82011682018060405250810190620018dd9190620035f8565b60608201516040516340d3096b60e11b81526001600160a01b0391821660048201529116906381a612d690602401620017f8565b6060600180546200086c9062003c36565b6200192f33838362002a50565b5050565b6001600160a01b0389166000908152600d602052604090205460ff166200196e5760405162461bcd60e51b8152600401620009969062003b02565b600760009054906101000a90046001600160a01b03166001600160a01b03166389a302716040518163ffffffff1660e01b815260040160206040518083038186803b158015620019bd57600080fd5b505afa158015620019d2573d6000803e3d6000fd5b505050506040513d601f19601f82011682018060405250810190620019f89190620035f8565b33600081815260096020526040908190205490516323b872dd60e01b815260048101929092526001600160a01b039081166024830152604482018d905291909116906323b872dd90606401602060405180830381600087803b15801562001a5e57600080fd5b505af115801562001a73573d6000803e3d6000fd5b505050506040513d601f19601f8201168201806040525081019062001a99919062003567565b50600754604080516361ef161f60e01b815290516000926001600160a01b0316916361ef161f916004808301926020929190829003018186803b15801562001ae057600080fd5b505afa15801562001af5573d6000803e3d6000fd5b505050506040513d601f19601f8201168201806040525081019062001b1b9190620035f8565b6001600160a01b03166363ae21036040518163ffffffff1660e01b815260040160206040518083038186803b15801562001b5457600080fd5b505afa15801562001b69573d6000803e3d6000fd5b505050506040513d601f19601f8201168201806040525081019062001b8f9190620036b8565b33600090815260096020526040808220548151630d0e30db60e41b815291519394506001600160a01b03169263d0e30db09285926004808201939182900301818588803b15801562001be057600080fd5b505af115801562001bf5573d6000803e3d6000fd5b505050505060096000336001600160a01b03166001600160a01b0316815260200190815260200160002060009054906101000a90046001600160a01b03166001600160a01b031663de26fdcd338e8e8e8e8e8e8e8e8e8e8e6040518d63ffffffff1660e01b815260040162001c769c9b9a9998979695949392919062003917565b600060405180830381600087803b15801562001c9157600080fd5b505af115801562001ca6573d6000803e3d6000fd5b50505050505050505050505050505050565b62001cc43383620027b5565b62001ce35760405162461bcd60e51b8152600401620009969062003b39565b620014bd8484848462002b21565b606062001cfe8262002688565b600062001d1660408051602081019091526000815290565b9050600081511162001d3857604051806020016040528060008152506200184c565b8062001d448462002b5b565b60405160200162001d57929190620037d1565b6040516020818303038152906040529392505050565b600a6020526000908152604090208054819062001d8a9062003c36565b80601f016020809104026020016040519081016040528092919081815260200182805462001db89062003c36565b801562001e095780601f1062001ddd5761010080835404028352916020019162001e09565b820191906000526020600020905b81548152906001019060200180831162001deb57829003601f168201915b505050506001830154600284015460039094015492936001600160a01b0380831694600160a01b90930460ff169350908116911685565b6001600160a01b0387166000908152600d602052604090205460ff1662001e7b5760405162461bcd60e51b8152600401620009969062003b02565b8262001f1157600760009054906101000a90046001600160a01b03166001600160a01b03166389a302716040518163ffffffff1660e01b815260040160206040518083038186803b15801562001ed057600080fd5b505afa15801562001ee5573d6000803e3d6000fd5b505050506040513d601f19601f8201168201806040525081019062001f0b9190620035f8565b62001f30565b8760008151811062001f275762001f2762003cd4565b60200260200101515b33600081815260096020526040908190205490516323b872dd60e01b815260048101929092526001600160a01b0390811660248301526044820189905291909116906323b872dd90606401602060405180830381600087803b15801562001f9657600080fd5b505af115801562001fab573d6000803e3d6000fd5b505050506040513d601f19601f8201168201806040525081019062001fd1919062003567565b50600754604080516361ef161f60e01b815290516000926001600160a01b0316916361ef161f916004808301926020929190829003018186803b1580156200201857600080fd5b505afa1580156200202d573d6000803e3d6000fd5b505050506040513d601f19601f82011682018060405250810190620020539190620035f8565b6001600160a01b03166363ae21036040518163ffffffff1660e01b815260040160206040518083038186803b1580156200208c57600080fd5b505afa158015620020a1573d6000803e3d6000fd5b505050506040513d601f19601f82011682018060405250810190620020c79190620036b8565b33600090815260096020526040808220548151630d0e30db60e41b815291519394506001600160a01b03169263d0e30db09285926004808201939182900301818588803b1580156200211857600080fd5b505af11580156200212d573d6000803e3d6000fd5b50503360008181526009602052604090819020549051630ab0d6eb60e41b81526001600160a01b03909116945063ab0d6eb093506200218292508d908d908d908d908d908d908d908c908e90600401620038ae565b600060405180830381600087803b1580156200219d57600080fd5b505af1158015620021b2573d6000803e3d6000fd5b50505050505050505050505050565b600080600080600080600080600760009054906101000a90046001600160a01b03166001600160a01b031663fbfa77cf6040518163ffffffff1660e01b815260040160206040518083038186803b1580156200221c57600080fd5b505afa15801562002231573d6000803e3d6000fd5b505050506040513d601f19601f82011682018060405250810190620022579190620035f8565b60008a8152600a60205260409020600101546001600160a01b0391821691634a3f088d9190811690600160a01b900460ff166200231e57600760009054906101000a90046001600160a01b03166001600160a01b03166389a302716040518163ffffffff1660e01b815260040160206040518083038186803b158015620022dd57600080fd5b505afa158015620022f2573d6000803e3d6000fd5b505050506040513d601f19601f82011682018060405250810190620023189190620035f8565b6200233a565b60008c8152600a60205260409020600201546001600160a01b03165b60008d8152600a6020526040908190206002810154600190910154915160e086901b6001600160e01b03191681526001600160a01b0394851660048201529284166024840152929092166044820152600160a01b90910460ff16151560648201526084016101006040518083038186803b158015620023b857600080fd5b505afa158015620023cd573d6000803e3d6000fd5b505050506040513d601f19601f82011682018060405250810190620023f39190620036d2565b809850819950829a50839b50849c50859d50869e50879f505050505050505050919395975091939597565b6200242862002759565b6001600160a01b0381166200248f5760405162461bcd60e51b815260206004820152602660248201527f4f776e61626c653a206e6577206f776e657220697320746865207a65726f206160448201526564647265737360d01b606482015260840162000996565b6200249a81620029fe565b50565b6001600160a01b0388166000908152600d602052604090205460ff16620024d85760405162461bcd60e51b8152600401620009969062003b02565b600754604080516361ef161f60e01b815290516000926001600160a01b0316916361ef161f916004808301926020929190829003018186803b1580156200251e57600080fd5b505afa15801562002533573d6000803e3d6000fd5b505050506040513d601f19601f82011682018060405250810190620025599190620035f8565b6001600160a01b03166363ae21036040518163ffffffff1660e01b815260040160206040518083038186803b1580156200259257600080fd5b505afa158015620025a7573d6000803e3d6000fd5b505050506040513d601f19601f82011682018060405250810190620025cd9190620036b8565b33600090815260096020526040808220548151630d0e30db60e41b815291519394506001600160a01b03169263d0e30db09285926004808201939182900301818588803b1580156200261e57600080fd5b505af115801562002633573d6000803e3d6000fd5b50503360008181526009602052604090819020549051631bebb78760e11b81526001600160a01b0390911694506337d76f0e935062000c3692508e908e908e908e908e908e908e908e908e9060040162003843565b6000818152600260205260409020546001600160a01b03166200249a5760405162461bcd60e51b8152602060048201526018602482015277115490cdcc8c4e881a5b9d985b1a59081d1bdad95b88125160421b604482015260640162000996565b600081815260046020526040902080546001600160a01b0319166001600160a01b03841690811790915581906200272082620014c3565b6001600160a01b03167f8c5be1e5ebec7d5bd14f71427d1e84f3dd0314c0f7b2291e5b200ac8c7c3b92560405160405180910390a45050565b6006546001600160a01b03163314620015c35760405162461bcd60e51b815260206004820181905260248201527f4f776e61626c653a2063616c6c6572206973206e6f7420746865206f776e6572604482015260640162000996565b600080620027c383620014c3565b9050806001600160a01b0316846001600160a01b031614806200280b57506001600160a01b0380821660009081526005602090815260408083209388168352929052205460ff165b80620028325750836001600160a01b03166200282784620008f5565b6001600160a01b0316145b949350505050565b826001600160a01b03166200284f82620014c3565b6001600160a01b031614620028b55760405162461bcd60e51b815260206004820152602560248201527f4552433732313a207472616e736665722066726f6d20696e636f72726563742060448201526437bbb732b960d91b606482015260840162000996565b6001600160a01b038216620029195760405162461bcd60e51b8152602060048201526024808201527f4552433732313a207472616e7366657220746f20746865207a65726f206164646044820152637265737360e01b606482015260840162000996565b62002926600082620026e9565b6001600160a01b03831660009081526003602052604081208054600192906200295190849062003bed565b90915550506001600160a01b03821660009081526003602052604081208054600192906200298190849062003bbb565b909155505060008181526002602052604080822080546001600160a01b0319166001600160a01b0386811691821790925591518493918716917fddf252ad1be2c89b69c2b068fc378daa952ba7f163c4a11628f55a4df523b3ef91a4505050565b6200192f82826040518060200160405280600081525062002c71565b600680546001600160a01b038381166001600160a01b0319831681179093556040519116919082907f8be0079c531659141344cd1fd0a4f28419497f9722a3daafe3b4186f6b6457e090600090a35050565b816001600160a01b0316836001600160a01b0316141562002ab45760405162461bcd60e51b815260206004820152601960248201527f4552433732313a20617070726f766520746f2063616c6c657200000000000000604482015260640162000996565b6001600160a01b03838116600081815260056020908152604080832094871680845294825291829020805460ff191686151590811790915591519182527f17307eab39ab6107e8899845ad3d59bd9653f200f220920489ca2b5937696c31910160405180910390a3505050565b62002b2e8484846200283a565b62002b3c8484848462002cab565b620014bd5760405162461bcd60e51b8152600401620009969062003ab0565b60608162002b805750506040805180820190915260018152600360fc1b602082015290565b8160005b811562002bb0578062002b978162003c73565b915062002ba89050600a8362003bd6565b915062002b84565b60008167ffffffffffffffff81111562002bce5762002bce62003cea565b6040519080825280601f01601f19166020018201604052801562002bf9576020820181803683370190505b5090505b8415620028325762002c1160018362003bed565b915062002c20600a8662003c91565b62002c2d90603062003bbb565b60f81b81838151811062002c455762002c4562003cd4565b60200101906001600160f81b031916908160001a90535062002c69600a8662003bd6565b945062002bfd565b62002c7d838362002dc6565b62002c8c600084848462002cab565b62000a3e5760405162461bcd60e51b8152600401620009969062003ab0565b60006001600160a01b0384163b1562002dbb57604051630a85bd0160e11b81526001600160a01b0385169063150b7a029062002cf290339089908890889060040162003804565b602060405180830381600087803b15801562002d0d57600080fd5b505af192505050801562002d40575060408051601f3d908101601f1916820190925262002d3d91810190620035d8565b60015b62002da0573d80801562002d71576040519150601f19603f3d011682016040523d82523d6000602084013e62002d76565b606091505b50805162002d985760405162461bcd60e51b8152600401620009969062003ab0565b805181602001fd5b6001600160e01b031916630a85bd0160e11b14905062002832565b506001949350505050565b6001600160a01b03821662002e1e5760405162461bcd60e51b815260206004820181905260248201527f4552433732313a206d696e7420746f20746865207a65726f2061646472657373604482015260640162000996565b6000818152600260205260409020546001600160a01b03161562002e855760405162461bcd60e51b815260206004820152601c60248201527f4552433732313a20746f6b656e20616c7265616479206d696e74656400000000604482015260640162000996565b6001600160a01b038216600090815260036020526040812080546001929062002eb090849062003bbb565b909155505060008181526002602052604080822080546001600160a01b0319166001600160a01b03861690811790915590518392907fddf252ad1be2c89b69c2b068fc378daa952ba7f163c4a11628f55a4df523b3ef908290a45050565b6040518061010001604052806008906020820280368337509192915050565b6115128062003d3d83390190565b82805462002f499062003c36565b90600052602060002090601f01602090048101928262002f6d576000855562002fb8565b82601f1062002f8857805160ff191683800117855562002fb8565b8280016001018555821562002fb8579182015b8281111562002fb857825182559160200191906001019062002f9b565b5062002fc692915062002fca565b5090565b5b8082111562002fc6576000815560010162002fcb565b600067ffffffffffffffff83111562002ffe5762002ffe62003cea565b62003013601f8401601f191660200162003b87565b90508281528383830111156200302857600080fd5b828260208301376000602084830101529392505050565b600082601f8301126200305157600080fd5b8135602067ffffffffffffffff82111562003070576200307062003cea565b8160051b6200308182820162003b87565b8381528281019086840183880185018910156200309d57600080fd5b600093505b85841015620030cd578035620030b88162003d00565b835260019390930192918401918401620030a2565b50979650505050505050565b8035620030e68162003d16565b919050565b600082601f830112620030fd57600080fd5b6200184c8383356020850162002fe1565b6000602082840312156200312157600080fd5b81356200184c8162003d00565b600080604083850312156200314257600080fd5b82356200314f8162003d00565b91506020830135620031618162003d00565b809150509250929050565b6000806000606084860312156200318257600080fd5b83356200318f8162003d00565b92506020840135620031a18162003d00565b929592945050506040919091013590565b60008060008060808587031215620031c957600080fd5b8435620031d68162003d00565b93506020850135620031e88162003d00565b925060408501359150606085013567ffffffffffffffff8111156200320c57600080fd5b8501601f810187136200321e57600080fd5b6200322f8782356020840162002fe1565b91505092959194509250565b600080604083850312156200324f57600080fd5b82356200325c8162003d00565b91506020830135620031618162003d16565b600080604083850312156200328257600080fd5b82356200328f8162003d00565b946020939093013593505050565b60008060008060008060008060006101208a8c031215620032bd57600080fd5b893567ffffffffffffffff811115620032d557600080fd5b620032e38c828d016200303f565b99505060208a0135620032f68162003d00565b975060408a0135965060608a0135955060808a0135620033168162003d16565b945060a08a0135935060c08a0135925060e08a013591506101008a01356200333e8162003d16565b809150509295985092959850929598565b600080600080600080600080610100898b0312156200336d57600080fd5b883567ffffffffffffffff8111156200338557600080fd5b620033938b828c016200303f565b9850506020890135620033a68162003d00565b965060408901359550606089013594506080890135935060a0890135620033cd8162003d16565b979a969950949793969295929450505060c08201359160e0013590565b60008060008060008060008060006101208a8c0312156200340a57600080fd5b893567ffffffffffffffff8111156200342257600080fd5b620034308c828d016200303f565b99505060208a0135620034438162003d00565b975060408a0135965060608a0135955060808a0135945060a08a01356200346a8162003d16565b8094505060c08a0135925060e08a013591506101008a013590509295985092959850929598565b60008060008060008060008060008060006101608c8e031215620034b457600080fd5b8b3567ffffffffffffffff811115620034cc57600080fd5b620034da8e828f016200303f565b9b505060208c0135995060408c0135620034f48162003d00565b985060608c0135975060808c0135965060a08c0135620035148162003d00565b95506200352460c08d01620030d9565b945060e08c013593506200353c6101008d01620030d9565b92506101208c01359150620035556101408d01620030d9565b90509295989b509295989b9093969950565b6000602082840312156200357a57600080fd5b81516200184c8162003d16565b600080604083850312156200359b57600080fd5b8251620035a88162003d16565b6020939093015192949293505050565b600060208284031215620035cb57600080fd5b81356200184c8162003d25565b600060208284031215620035eb57600080fd5b81516200184c8162003d25565b6000602082840312156200360b57600080fd5b81516200184c8162003d00565b6000602082840312156200362b57600080fd5b813567ffffffffffffffff8111156200364357600080fd5b6200283284828501620030eb565b600080604083850312156200366557600080fd5b823567ffffffffffffffff8111156200367d57600080fd5b6200368b85828601620030eb565b9250506020830135620031618162003d16565b600060208284031215620036b157600080fd5b5035919050565b600060208284031215620036cb57600080fd5b5051919050565b600080600080600080600080610100898b031215620036f057600080fd5b885197506020890151965060408901519550606089015194506080890151935060a0890151925060c0890151620037278162003d16565b8092505060e089015190509295985092959890939650565b600081518084526020808501945080840160005b838110156200377a5781516001600160a01b03168752958201959082019060010162003753565b509495945050505050565b600081518084526200379f81602086016020860162003c07565b601f01601f19169290920160200192915050565b60008251620037c781846020870162003c07565b9190910192915050565b60008351620037e581846020880162003c07565b835190830190620037fb81836020880162003c07565b01949350505050565b6001600160a01b0385811682528416602082015260408101839052608060608201819052600090620038399083018462003785565b9695505050505050565b6001600160a01b038b81168252610140602083018190526000916200386b8483018e6200373f565b9b16604084015250506060810197909752608087019590955292151560a086015260c085019190915260e084015261010083015215156101209091015292915050565b6001600160a01b038b8116825261014060208301819052600091620038d68483018e6200373f565b9b16604084015250506060810197909752608087019590955260a086019390935290151560c085015260e08401526101008301526101209091015292915050565b600060018060a01b03808f16835261018060208401526200393d61018084018f6200373f565b604084019d909d529a8b16606083015250608081019890985260a08801969096529390961660c086015290151560e08501526101008401529215156101208301526101408201929092529015156101609091015292915050565b6001600160a01b038981168252888116602080840191909152888216604084015287821660608401526102c083019190608084018860005b6008811015620039ee57815183529183019190830190600101620039cf565b50505061018084018760005b600881101562003a1b578154851683529183019160019182019101620039fa565b505050505062003a376102808301856001600160a01b03169052565b6001600160a01b0383166102a08301529998505050505050505050565b6020815260006200184c602083018462003785565b60a08152600062003a7e60a083018862003785565b6001600160a01b0396871660208401529415156040830152509184166060830152909216608090920191909152919050565b60208082526032908201527f4552433732313a207472616e7366657220746f206e6f6e20455243373231526560408201527131b2b4bb32b91034b6b83632b6b2b73a32b960711b606082015260800190565b6020808252601f908201527f74726164696e67206f6e207468697320706169722069732073746f7070656400604082015260600190565b6020808252602e908201527f4552433732313a2063616c6c6572206973206e6f7420746f6b656e206f776e6560408201526d1c881b9bdc88185c1c1c9bdd995960921b606082015260800190565b604051601f8201601f1916810167ffffffffffffffff8111828210171562003bb35762003bb362003cea565b604052919050565b6000821982111562003bd15762003bd162003ca8565b500190565b60008262003be85762003be862003cbe565b500490565b60008282101562003c025762003c0262003ca8565b500390565b60005b8381101562003c2457818101518382015260200162003c0a565b83811115620014bd5750506000910152565b600181811c9082168062003c4b57607f821691505b6020821081141562003c6d57634e487b7160e01b600052602260045260246000fd5b50919050565b600060001982141562003c8a5762003c8a62003ca8565b5060010190565b60008262003ca35762003ca362003cbe565b500690565b634e487b7160e01b600052601160045260246000fd5b634e487b7160e01b600052601260045260246000fd5b634e487b7160e01b600052603260045260246000fd5b634e487b7160e01b600052604160045260246000fd5b6001600160a01b03811681146200249a57600080fd5b80151581146200249a57600080fd5b6001600160e01b0319811681146200249a57600080fdfe60a06040523480156200001157600080fd5b506040516200151238038062001512833981016040819052620000349162000242565b600480546001600160a01b038088166001600160a01b031992831617909255600080548b84169083161781556001600160601b031960608b901b1660805260018054938a16939092169290921790555b60088110156200017e576004811015620000e857838160088110620000ad57620000ad620003a6565b602002015160058260048110620000c857620000c8620003a6565b0180546001600160a01b0319166001600160a01b03929092169190911790555b848160088110620000fd57620000fd620003a6565b6020020151600260008684600881106200011b576200011b620003a6565b60200201516001600160a01b03166001600160a01b031681526020019081526020016000206000600484106200015357600062000156565b60015b151581526020810191909152604001600020558062000175816200037c565b91505062000084565b50600380546001600160a01b039384166001600160a01b03199182168117909255600980548216909217909155600a805492909316911617905550620003d5945050505050565b8051620001d281620003bc565b919050565b600082601f830112620001e957600080fd5b620001f362000344565b808385610100860111156200020757600080fd5b60005b6008811015620002375781516200022181620003bc565b845260209384019391909101906001016200020a565b509095945050505050565b6000806000806000806000806102c0898b0312156200026057600080fd5b88516200026d81620003bc565b809850506020808a01516200028281620003bc565b60408b01519098506200029581620003bc565b60608b0151909750620002a881620003bc565b9550609f8a018b13620002ba57600080fd5b620002c462000344565b8060808c016101808d018e811115620002dc57600080fd5b60005b6008811015620002fe57825185529385019391850191600101620002df565b508298506200030e8f82620001d7565b97505050505050620003246102808a01620001c5565b9150620003356102a08a01620001c5565b90509295985092959890939650565b60405161010081016001600160401b03811182821017156200037657634e487b7160e01b600052604160045260246000fd5b60405290565b60006000198214156200039f57634e487b7160e01b600052601160045260246000fd5b5060010190565b634e487b7160e01b600052603260045260246000fd5b6001600160a01b0381168114620003d257600080fd5b50565b60805160601c61110962000409600039600081816102b0015281816105b2015281816106e3015261082901526111096000f3fe6080604052600436106100e85760003560e01c806389a302711161008a578063d0e30db011610059578063d0e30db01461013d578063d6ef60131461026b578063de26fdcd1461028b578063f887ea401461029e57600080fd5b806389a30271146101f857806391c2c46914610218578063ab0d6eb014610238578063b7511c5b1461024b57600080fd5b806313a51b2e116100c657806313a51b2e1461015f57806337d76f0e146101a557806361ef161f146101b8578063776af5ba146101d857600080fd5b806306b278cb146100ed57806306e9bd4b1461012a5780630cd790f71461013f575b600080fd5b3480156100f957600080fd5b5060035461010d906001600160a01b031681565b6040516001600160a01b0390911681526020015b60405180910390f35b61013d610138366004610c67565b6102d2565b005b34801561014b57600080fd5b50600a5461010d906001600160a01b031681565b34801561016b57600080fd5b5061019761017a366004610df0565b600260209081526000928352604080842090915290825290205481565b604051908152602001610121565b61013d6101b3366004610bab565b610361565b3480156101c457600080fd5b5060005461010d906001600160a01b031681565b3480156101e457600080fd5b5060015461010d906001600160a01b031681565b34801561020457600080fd5b5060045461010d906001600160a01b031681565b34801561022457600080fd5b5060095461010d906001600160a01b031681565b61013d610246366004610c67565b610543565b34801561025757600080fd5b5061013d610266366004610e46565b610590565b34801561027757600080fd5b5061010d610286366004610e46565b6108ba565b61013d610299366004610d1a565b6108da565b3480156102aa57600080fd5b5061010d7f000000000000000000000000000000000000000000000000000000000000000081565b6102dd8a898661096b565b6000546001600160a01b031663332e03826102f88985611038565b8b8b8a8a8a8a8a8a6040518a63ffffffff1660e01b8152600401610323989796959493929190610f12565b6000604051808303818588803b15801561033c57600080fd5b505af1158015610350573d6000803e3d6000fd5b505050505050505050505050505050565b6003546001600160a01b0389811660009081526002602090815260408083208a151584529091528082205490516331a9108f60e11b8152600481019190915290929190911690636352211e9060240160206040518083038186803b1580156103c857600080fd5b505afa1580156103dc573d6000803e3d6000fd5b505050506040513d601f19601f820116820180604052508101906104009190610b87565b90508a6001600160a01b0316816001600160a01b03161461045f5760405162461bcd60e51b8152602060048201526014602482015273796f7520646f6e277420686176652061206b657960601b60448201526064015b60405180910390fd5b600a546001600160a01b031633146104c0576009546001600160a01b031633146104c05760405162461bcd60e51b815260206004820152601260248201527134b73b30b634b21036b9b39739b2b73232b960711b6044820152606401610456565b6000546040516339c374bf60e21b81526001600160a01b039091169063e70dd2fc908590610504908e908e908e908e908e908a908f908f908a908f90600401610ea3565b6000604051808303818588803b15801561051d57600080fd5b505af1158015610531573d6000803e3d6000fd5b50505050505050505050505050505050565b61054e8a898661096b565b600054604051630c98741760e41b81526001600160a01b039091169063c9874170908490610323908d908d908d908d908d908d908d9089908d90600401610f66565b6000546040516338c74dd960e01b81526001600160a01b0391821660048201527f0000000000000000000000000000000000000000000000000000000000000000909116906338c74dd990602401600060405180830381600087803b1580156105f857600080fd5b505af115801561060c573d6000803e3d6000fd5b5050505060005b6004811015610782576005816004811061062f5761062f611081565b015460005460405163095ea7b360e01b81526001600160a01b0391821660048201526024810185905291169063095ea7b390604401602060405180830381600087803b15801561067e57600080fd5b505af1158015610692573d6000803e3d6000fd5b505050506040513d601f19601f820116820180604052508101906106b69190610e29565b50600581600481106106ca576106ca611081565b015460405163095ea7b360e01b81526001600160a01b037f000000000000000000000000000000000000000000000000000000000000000081166004830152602482018590529091169063095ea7b390604401602060405180830381600087803b15801561073757600080fd5b505af115801561074b573d6000803e3d6000fd5b505050506040513d601f19601f8201168201806040525081019061076f9190610e29565b508061077a81611050565b915050610613565b506004805460005460405163095ea7b360e01b81526001600160a01b039182169381019390935260248301849052169063095ea7b390604401602060405180830381600087803b1580156107d557600080fd5b505af11580156107e9573d6000803e3d6000fd5b505050506040513d601f19601f8201168201806040525081019061080d9190610e29565b506004805460405163095ea7b360e01b81526001600160a01b037f00000000000000000000000000000000000000000000000000000000000000008116938201939093526024810184905291169063095ea7b390604401602060405180830381600087803b15801561087e57600080fd5b505af1158015610892573d6000803e3d6000fd5b505050506040513d601f19601f820116820180604052508101906108b69190610e29565b5050565b600581600481106108ca57600080fd5b01546001600160a01b0316905081565b6108e58c8a8761096b565b600154604051630b142a4b60e41b81526001600160a01b039091169063b142a4b090849061092b908f908f908f908f908f908f908f908f908f908b908f90600401610fc3565b6000604051808303818588803b15801561094457600080fd5b505af1158015610958573d6000803e3d6000fd5b5050505050505050505050505050505050565b6003546001600160a01b0383811660009081526002602090815260408083208615158452909152908190205490516331a9108f60e11b81528287169390921691636352211e916109c19160040190815260200190565b60206040518083038186803b1580156109d957600080fd5b505afa1580156109ed573d6000803e3d6000fd5b505050506040513d601f19601f82011682018060405250810190610a119190610b87565b6001600160a01b031614610a5e5760405162461bcd60e51b8152602060048201526014602482015273796f7520646f6e277420686176652061206b657960601b6044820152606401610456565b600a546001600160a01b03163314610abf576009546001600160a01b03163314610abf5760405162461bcd60e51b815260206004820152601260248201527134b73b30b634b21036b9b39739b2b73232b960711b6044820152606401610456565b505050565b8035610acf816110ad565b919050565b600082601f830112610ae557600080fd5b8135602067ffffffffffffffff80831115610b0257610b02611097565b8260051b604051601f19603f83011681018181108482111715610b2757610b27611097565b60405284815283810192508684018288018501891015610b4657600080fd5b600092505b85831015610b7057610b5c81610ac4565b845292840192600192909201918401610b4b565b50979650505050505050565b8035610acf816110c5565b600060208284031215610b9957600080fd5b8151610ba4816110ad565b9392505050565b6000806000806000806000806000806101408b8d031215610bcb57600080fd5b8a35610bd6816110ad565b995060208b013567ffffffffffffffff811115610bf257600080fd5b610bfe8d828e01610ad4565b99505060408b0135610c0f816110ad565b975060608b0135965060808b0135955060a08b0135610c2d816110c5565b945060c08b0135935060e08b013592506101008b013591506101208b0135610c54816110c5565b809150509295989b9194979a5092959850565b6000806000806000806000806000806101408b8d031215610c8757600080fd5b8a35610c92816110ad565b995060208b013567ffffffffffffffff811115610cae57600080fd5b610cba8d828e01610ad4565b99505060408b0135610ccb816110ad565b975060608b0135965060808b0135955060a08b0135945060c08b0135610cf0816110c5565b8094505060e08b013592506101008b013591506101208b013590509295989b9194979a5092959850565b6000806000806000806000806000806000806101808d8f031215610d3d57600080fd5b610d468d610ac4565b9b5067ffffffffffffffff60208e01351115610d6157600080fd5b610d718e60208f01358f01610ad4565b9a5060408d01359950610d8660608e01610ac4565b985060808d0135975060a08d01359650610da260c08e01610ac4565b9550610db060e08e01610b7c565b94506101008d01359350610dc76101208e01610b7c565b92506101408d01359150610dde6101608e01610b7c565b90509295989b509295989b509295989b565b60008060408385031215610e0357600080fd5b8235610e0e816110ad565b91506020830135610e1e816110c5565b809150509250929050565b600060208284031215610e3b57600080fd5b8151610ba4816110c5565b600060208284031215610e5857600080fd5b5035919050565b600081518084526020808501945080840160005b83811015610e985781516001600160a01b031687529582019590820190600101610e73565b509495945050505050565b6000610140808352610eb78184018e610e5f565b6001600160a01b039c8d166020850152604084019b909b525050606081019790975294151560808701529290961660a085015260c084015260e083019490945261010082019390935291151561012090920191909152919050565b6000610100808352610f268184018c610e5f565b6001600160a01b039a909a166020840152505060408101969096526060860194909452911515608085015260a084015260c083015260e090910152919050565b6000610120808352610f7a8184018d610e5f565b6001600160a01b039b909b166020840152505060408101979097526060870195909552608086019390935290151560a085015260c084015260e083015261010090910152919050565b6000610160808352610fd78184018f610e5f565b602084019d909d5250506001600160a01b03998a166040820152606081019890985260808801969096529390961660a086015290151560c085015260e084015292151561010083015261012082019290925290151561014090910152919050565b6000821982111561104b5761104b61106b565b500190565b60006000198214156110645761106461106b565b5060010190565b634e487b7160e01b600052601160045260246000fd5b634e487b7160e01b600052603260045260246000fd5b634e487b7160e01b600052604160045260246000fd5b6001600160a01b03811681146110c257600080fd5b50565b80151581146110c257600080fdfea26469706673582212204512fc8c90a7c46f15c85a1c1fb0781febdee2aac6f6daf99a2ad562f62cf24264736f6c63430008060033a264697066735822122002da26466b0deab1bb2a20b9faf6bd82a02664b8e79e662e658fa45a7796664164736f6c63430008060033",
  "devdoc": {
    "kind": "dev",
    "methods": {
      "approve(address,uint256)": {
        "details": "See {IERC721-approve}."
      },
      "balanceOf(address)": {
        "details": "See {IERC721-balanceOf}."
      },
      "currentPrice(uint256)": {
        "params": {
          "id": "position ID"
        }
      },
      "getApproved(uint256)": {
        "details": "See {IERC721-getApproved}."
      },
      "getPosition(uint256)": {
        "params": {
          "id": "collateral ID*"
        }
      },
      "getPositionDelta(uint256)": {
        "params": {
          "id": "collateral ID*"
        }
      },
      "isApprovedForAll(address,address)": {
        "details": "See {IERC721-isApprovedForAll}."
      },
      "name()": {
        "details": "See {IERC721Metadata-name}."
      },
      "owner()": {
        "details": "Returns the address of the current owner."
      },
      "ownerOf(uint256)": {
        "details": "See {IERC721-ownerOf}."
      },
      "renounceOwnership()": {
        "details": "Leaves the contract without owner. It will not be possible to call `onlyOwner` functions anymore. Can only be called by the current owner. NOTE: Renouncing ownership will leave the contract without an owner, thereby removing any functionality that is only available to the owner."
      },
      "safeTransferFrom(address,address,uint256)": {
        "details": "See {IERC721-safeTransferFrom}."
      },
      "safeTransferFrom(address,address,uint256,bytes)": {
        "details": "See {IERC721-safeTransferFrom}."
      },
      "setApprovalForAll(address,bool)": {
        "details": "See {IERC721-setApprovalForAll}."
      },
      "setDDL_GMX(address)": {
        "params": {
          "value": "the address of DDL_GMX*"
        }
      },
      "setPermission(string,bool)": {
        "params": {
          "symbol": "trough name",
          "value": "true or false *"
        }
      },
      "supportsInterface(bytes4)": {
        "details": "See {IERC165-supportsInterface}."
      },
      "symbol()": {
        "details": "See {IERC721Metadata-symbol}."
      },
      "tokenURI(uint256)": {
        "details": "See {IERC721Metadata-tokenURI}."
      },
      "transferFrom(address,address,uint256)": {
        "details": "See {IERC721-transferFrom}."
      },
      "transferOwnership(address)": {
        "details": "Transfers ownership of the contract to a new account (`newOwner`). Can only be called by the current owner."
      }
    },
    "version": 1
  },
  "userdoc": {
    "kind": "user",
    "methods": {
      "createDecreasePosition(address[],address,uint256,uint256,bool,uint256,uint256,uint256,bool)": {
        "notice": "used to decrease position on GMX*"
      },
      "createDoppelgangerGMX()": {
        "notice": "creates DoppelGanger account for the user*"
      },
      "createIncreasePosition(address[],address,uint256,uint256,uint256,bool,uint256,bytes32)": {
        "notice": "used to increase position on GMX*"
      },
      "createIncreasePositionETH(address[],address,uint256,uint256,uint256,bool,uint256,uint256,bytes32)": {
        "notice": "used to increase position on GMX (only ETH)*"
      },
      "currentPrice(uint256)": {
        "notice": "return currentPrice for the asset*"
      },
      "getPosition(uint256)": {
        "notice": "returns getPosition by the collateral"
      },
      "getPositionDelta(uint256)": {
        "notice": "returns getPositionDelta from GMX by the collateral ID"
      },
      "setDDL_GMX(address)": {
        "notice": "set new DDL_GMX address"
      },
      "setPermission(string,bool)": {
        "notice": "set permissions for trading pairs"
      }
    },
    "version": 1
  },
  "storageLayout": {
    "storage": [
      {
        "astId": 1144,
        "contract": "contracts/AccountManager.sol:AccountManager",
        "label": "_name",
        "offset": 0,
        "slot": "0",
        "type": "t_string_storage"
      },
      {
        "astId": 1146,
        "contract": "contracts/AccountManager.sol:AccountManager",
        "label": "_symbol",
        "offset": 0,
        "slot": "1",
        "type": "t_string_storage"
      },
      {
        "astId": 1150,
        "contract": "contracts/AccountManager.sol:AccountManager",
        "label": "_owners",
        "offset": 0,
        "slot": "2",
        "type": "t_mapping(t_uint256,t_address)"
      },
      {
        "astId": 1154,
        "contract": "contracts/AccountManager.sol:AccountManager",
        "label": "_balances",
        "offset": 0,
        "slot": "3",
        "type": "t_mapping(t_address,t_uint256)"
      },
      {
        "astId": 1158,
        "contract": "contracts/AccountManager.sol:AccountManager",
        "label": "_tokenApprovals",
        "offset": 0,
        "slot": "4",
        "type": "t_mapping(t_uint256,t_address)"
      },
      {
        "astId": 1164,
        "contract": "contracts/AccountManager.sol:AccountManager",
        "label": "_operatorApprovals",
        "offset": 0,
        "slot": "5",
        "type": "t_mapping(t_address,t_mapping(t_address,t_bool))"
      },
      {
        "astId": 7,
        "contract": "contracts/AccountManager.sol:AccountManager",
        "label": "_owner",
        "offset": 0,
        "slot": "6",
        "type": "t_address"
      },
      {
        "astId": 2743,
        "contract": "contracts/AccountManager.sol:AccountManager",
        "label": "ddl_gmx",
        "offset": 0,
        "slot": "7",
        "type": "t_contract(IDDL_GMX)4108"
      },
      {
        "astId": 2752,
        "contract": "contracts/AccountManager.sol:AccountManager",
        "label": "tokenId",
        "offset": 0,
        "slot": "8",
        "type": "t_uint256"
      },
      {
        "astId": 2756,
        "contract": "contracts/AccountManager.sol:AccountManager",
        "label": "doppelgangerMap",
        "offset": 0,
        "slot": "9",
        "type": "t_mapping(t_address,t_address)"
      },
      {
        "astId": 2772,
        "contract": "contracts/AccountManager.sol:AccountManager",
        "label": "keyData",
        "offset": 0,
        "slot": "10",
        "type": "t_mapping(t_uint256,t_struct(KeyInformation)2767_storage)"
      },
      {
        "astId": 2776,
        "contract": "contracts/AccountManager.sol:AccountManager",
        "label": "symbolByIndexToken",
        "offset": 0,
        "slot": "11",
        "type": "t_mapping(t_address,t_string_storage)"
      },
      {
        "astId": 2780,
        "contract": "contracts/AccountManager.sol:AccountManager",
        "label": "indexTokenBySymbol",
        "offset": 0,
        "slot": "12",
        "type": "t_mapping(t_string_memory_ptr,t_address)"
      },
      {
        "astId": 2784,
        "contract": "contracts/AccountManager.sol:AccountManager",
        "label": "permissions",
        "offset": 0,
        "slot": "13",
        "type": "t_mapping(t_address,t_bool)"
      },
      {
        "astId": 2797,
        "contract": "contracts/AccountManager.sol:AccountManager",
        "label": "arrSymbols",
        "offset": 0,
        "slot": "14",
        "type": "t_array(t_string_storage)8_storage"
      },
      {
        "astId": 2801,
        "contract": "contracts/AccountManager.sol:AccountManager",
        "label": "indexTokenArr",
        "offset": 0,
        "slot": "22",
        "type": "t_array(t_address)8_storage"
      }
    ],
    "types": {
      "t_address": {
        "encoding": "inplace",
        "label": "address",
        "numberOfBytes": "20"
      },
      "t_array(t_address)8_storage": {
        "base": "t_address",
        "encoding": "inplace",
        "label": "address[8]",
        "numberOfBytes": "256"
      },
      "t_array(t_string_storage)8_storage": {
        "base": "t_string_storage",
        "encoding": "inplace",
        "label": "string[8]",
        "numberOfBytes": "256"
      },
      "t_bool": {
        "encoding": "inplace",
        "label": "bool",
        "numberOfBytes": "1"
      },
      "t_contract(IDDL_GMX)4108": {
        "encoding": "inplace",
        "label": "contract IDDL_GMX",
        "numberOfBytes": "20"
      },
      "t_mapping(t_address,t_address)": {
        "encoding": "mapping",
        "key": "t_address",
        "label": "mapping(address => address)",
        "numberOfBytes": "32",
        "value": "t_address"
      },
      "t_mapping(t_address,t_bool)": {
        "encoding": "mapping",
        "key": "t_address",
        "label": "mapping(address => bool)",
        "numberOfBytes": "32",
        "value": "t_bool"
      },
      "t_mapping(t_address,t_mapping(t_address,t_bool))": {
        "encoding": "mapping",
        "key": "t_address",
        "label": "mapping(address => mapping(address => bool))",
        "numberOfBytes": "32",
        "value": "t_mapping(t_address,t_bool)"
      },
      "t_mapping(t_address,t_string_storage)": {
        "encoding": "mapping",
        "key": "t_address",
        "label": "mapping(address => string)",
        "numberOfBytes": "32",
        "value": "t_string_storage"
      },
      "t_mapping(t_address,t_uint256)": {
        "encoding": "mapping",
        "key": "t_address",
        "label": "mapping(address => uint256)",
        "numberOfBytes": "32",
        "value": "t_uint256"
      },
      "t_mapping(t_string_memory_ptr,t_address)": {
        "encoding": "mapping",
        "key": "t_string_memory_ptr",
        "label": "mapping(string => address)",
        "numberOfBytes": "32",
        "value": "t_address"
      },
      "t_mapping(t_uint256,t_address)": {
        "encoding": "mapping",
        "key": "t_uint256",
        "label": "mapping(uint256 => address)",
        "numberOfBytes": "32",
        "value": "t_address"
      },
      "t_mapping(t_uint256,t_struct(KeyInformation)2767_storage)": {
        "encoding": "mapping",
        "key": "t_uint256",
        "label": "mapping(uint256 => struct AccountManager.KeyInformation)",
        "numberOfBytes": "32",
        "value": "t_struct(KeyInformation)2767_storage"
      },
      "t_string_memory_ptr": {
        "encoding": "bytes",
        "label": "string",
        "numberOfBytes": "32"
      },
      "t_string_storage": {
        "encoding": "bytes",
        "label": "string",
        "numberOfBytes": "32"
      },
      "t_struct(KeyInformation)2767_storage": {
        "encoding": "inplace",
        "label": "struct AccountManager.KeyInformation",
        "members": [
          {
            "astId": 2758,
            "contract": "contracts/AccountManager.sol:AccountManager",
            "label": "symbol",
            "offset": 0,
            "slot": "0",
            "type": "t_string_storage"
          },
          {
            "astId": 2760,
            "contract": "contracts/AccountManager.sol:AccountManager",
            "label": "doppelgangerContract",
            "offset": 0,
            "slot": "1",
            "type": "t_address"
          },
          {
            "astId": 2762,
            "contract": "contracts/AccountManager.sol:AccountManager",
            "label": "isLong",
            "offset": 20,
            "slot": "1",
            "type": "t_bool"
          },
          {
            "astId": 2764,
            "contract": "contracts/AccountManager.sol:AccountManager",
            "label": "indexToken",
            "offset": 0,
            "slot": "2",
            "type": "t_address"
          },
          {
            "astId": 2766,
            "contract": "contracts/AccountManager.sol:AccountManager",
            "label": "user",
            "offset": 0,
            "slot": "3",
            "type": "t_address"
          }
        ],
        "numberOfBytes": "128"
      },
      "t_uint256": {
        "encoding": "inplace",
        "label": "uint256",
        "numberOfBytes": "32"
      }
    }
  }
}