{
  "address": "0x7b1f3572b9c1d22e012029F913C52D4A268141d6",
  "abi": [
    {
      "inputs": [
        {
          "internalType": "contract IContractsStorage",
          "name": "_contractsStorage",
          "type": "address"
        },
        {
          "internalType": "contract IERC721",
          "name": "_adminToken",
          "type": "address"
        },
        {
          "internalType": "contract IERC721",
          "name": "_tradeToken",
          "type": "address"
        },
        {
          "internalType": "contract IPositionRouter",
          "name": "_positionRouter",
          "type": "address"
        },
        {
          "internalType": "address",
          "name": "_router",
          "type": "address"
        },
        {
          "internalType": "address",
          "name": "_vault",
          "type": "address"
        },
        {
          "internalType": "address[]",
          "name": "_arrTradingPair",
          "type": "address[]"
        }
      ],
      "stateMutability": "nonpayable",
      "type": "constructor"
    },
    {
      "inputs": [],
      "name": "adminToken",
      "outputs": [
        {
          "internalType": "contract IERC721",
          "name": "",
          "type": "address"
        }
      ],
      "stateMutability": "view",
      "type": "function"
    },
    {
      "inputs": [
        {
          "internalType": "uint256",
          "name": "",
          "type": "uint256"
        }
      ],
      "name": "arrTradingPair",
      "outputs": [
        {
          "internalType": "address",
          "name": "",
          "type": "address"
        }
      ],
      "stateMutability": "view",
      "type": "function"
    },
    {
      "inputs": [],
      "name": "contractsStorage",
      "outputs": [
        {
          "internalType": "contract IContractsStorage",
          "name": "",
          "type": "address"
        }
      ],
      "stateMutability": "view",
      "type": "function"
    },
    {
      "inputs": [
        {
          "internalType": "uint256",
          "name": "id",
          "type": "uint256"
        }
      ],
      "name": "createBroker",
      "outputs": [],
      "stateMutability": "nonpayable",
      "type": "function"
    },
    {
      "inputs": [],
      "name": "positionRouter",
      "outputs": [
        {
          "internalType": "contract IPositionRouter",
          "name": "",
          "type": "address"
        }
      ],
      "stateMutability": "view",
      "type": "function"
    },
    {
      "inputs": [],
      "name": "router",
      "outputs": [
        {
          "internalType": "address",
          "name": "",
          "type": "address"
        }
      ],
      "stateMutability": "view",
      "type": "function"
    },
    {
      "inputs": [],
      "name": "tradeToken",
      "outputs": [
        {
          "internalType": "contract IERC721",
          "name": "",
          "type": "address"
        }
      ],
      "stateMutability": "view",
      "type": "function"
    },
    {
      "inputs": [],
      "name": "vault",
      "outputs": [
        {
          "internalType": "address",
          "name": "",
          "type": "address"
        }
      ],
      "stateMutability": "view",
      "type": "function"
    }
  ],
  "transactionHash": "0xb666c2d3436ed14abbdfbdcdb4cf6d9d86a318e455ff0c2f662cb2b934670b73",
  "args": [
    "0xac2964f823D283F2F70052f81FC7A2dA6A1E1DB8",
    "0x6bFbc79d5EDc7ac3684861A0D5C3d49843dc8FE0",
    "0xD803bAE55bC7bf87065FD376BB972337f3FdD073",
    "0xb87a436B93fFE9D75c5cFA7bAcFff96430b09868",
    "0xaBBc5F99639c9B6bCb58544ddf04EFA6802F4064",
    "0x489ee077994B6658eAfA855C308275EAd8097C4A",
    [
      "0x82aF49447D8a07e3bd95BD0d56f35241523fBab1",
      "0x2f2a2543B76A4166549F7aaB2e75Bef0aefC5B0f",
      "0xFa7F8980b0f1E64A2062791cc3b0871572f1F7f0",
      "0xf97f4df75117a78c1A5a0DBb814Af92458539FB4"
    ]
  ],
  "numDeployments": 1,
  "solcInputHash": "c9df277ec30057c93f55189de78550f7",
  "bytecode": "0x60c0604052600960808190526811d35617d4d213d49560ba1b60a09081526200002c9160069190620000e2565b503480156200003a57600080fd5b50604051620037e1380380620037e18339810160408190526200005d91620001f2565b600080546001600160a01b03199081166001600160a01b038a811691909117909255600280548216898416179055600380548216888416179055600180548216878416179055600480548216868416179055600580549091169184169190911790558051620000d490600790602084019062000171565b5050505050505050620003c1565b828054620000f09062000355565b90600052602060002090601f0160209004810192826200011457600085556200015f565b82601f106200012f57805160ff19168380011785556200015f565b828001600101855582156200015f579182015b828111156200015f57825182559160200191906001019062000142565b506200016d929150620001c9565b5090565b8280548282559060005260206000209081019282156200015f579160200282015b828111156200015f57825182546001600160a01b0319166001600160a01b0390911617825560209092019160019091019062000192565b5b808211156200016d5760008155600101620001ca565b8051620001ed81620003a8565b919050565b600080600080600080600060e0888a0312156200020e57600080fd5b87516200021b81620003a8565b809750506020808901516200023081620003a8565b60408a01519097506200024381620003a8565b60608a01519096506200025681620003a8565b60808a01519095506200026981620003a8565b60a08a01519094506200027c81620003a8565b60c08a01519093506001600160401b03808211156200029a57600080fd5b818b0191508b601f830112620002af57600080fd5b815181811115620002c457620002c462000392565b8060051b604051601f19603f83011681018181108582111715620002ec57620002ec62000392565b806040525080935082815285810193508585018f878488010111156200031157600080fd5b600095505b838610156200033f576200032a81620001e0565b85526001959095019493860193860162000316565b5080965050505050505092959891949750929550565b600181811c908216806200036a57607f821691505b602082108114156200038c57634e487b7160e01b600052602260045260246000fd5b50919050565b634e487b7160e01b600052604160045260246000fd5b6001600160a01b0381168114620003be57600080fd5b50565b61341080620003d16000396000f3fe60806040523480156200001157600080fd5b5060043610620000935760003560e01c8063d83678ac1162000062578063d83678ac1462000107578063deecf553146200011b578063f887ea401462000134578063fbfa77cf146200014857600080fd5b80632e81bad714620000985780634486895914620000c857806361ef161f14620000df5780638e44c74914620000f3575b600080fd5b600254620000ac906001600160a01b031681565b6040516001600160a01b03909116815260200160405180910390f35b620000ac620000d936600462000546565b6200015c565b600154620000ac906001600160a01b031681565b600054620000ac906001600160a01b031681565b600354620000ac906001600160a01b031681565b620001326200012c36600462000546565b62000187565b005b600454620000ac906001600160a01b031681565b600554620000ac906001600160a01b031681565b600781815481106200016d57600080fd5b6000918252602090912001546001600160a01b0316905081565b6002546040516331a9108f60e11b8152600481018390526001600160a01b0390911690636352211e9060240160206040518083038186803b158015620001cc57600080fd5b505afa158015620001e1573d6000803e3d6000fd5b505050506040513d601f19601f820116820180604052508101906200020791906200051f565b6001600160a01b0316336001600160a01b0316146200022557600080fd5b600080546040516377c529c760e01b8152600481018490526001600160a01b03909116906377c529c79060240160206040518083038186803b1580156200026b57600080fd5b505afa15801562000280573d6000803e3d6000fd5b505050506040513d601f19601f82011682018060405250810190620002a691906200051f565b604051637045795560e11b81529091506000906001600160a01b0383169063e08af2aa90620002db9060069060040162000608565b60206040518083038186803b158015620002f457600080fd5b505afa15801562000309573d6000803e3d6000fd5b505050506040513d601f19601f820116820180604052508101906200032f91906200051f565b6001600160a01b0316146200039f5760405162461bcd60e51b815260206004820152602c60248201527f4d617267696e4163636f756e7420666f7220746869732061646472657373206160448201526b1b1c9958591e48195e1a5cdd60a21b606482015260840160405180910390fd5b60006006838360008054906101000a90046001600160a01b03166001600160a01b0316633e413bee6040518163ffffffff1660e01b815260040160206040518083038186803b158015620003f257600080fd5b505afa15801562000407573d6000803e3d6000fd5b505050506040513d601f19601f820116820180604052508101906200042d91906200051f565b6004546005546000546001546002546003546040516001600160a01b03968716969586169594851694938416939283169290911690600790620004709062000511565b620004869b9a9998979695949392919062000649565b604051809103906000f080158015620004a3573d6000803e3d6000fd5b50604051632209621560e11b81529091506001600160a01b03831690634412c42a90620004d89060069085906004016200061d565b600060405180830381600087803b158015620004f357600080fd5b505af115801562000508573d6000803e3d6000fd5b50505050505050565b612cb6806200072583390190565b6000602082840312156200053257600080fd5b81516200053f816200070b565b9392505050565b6000602082840312156200055957600080fd5b5035919050565b8054600090600181811c90808316806200057b57607f831692505b60208084108214156200059e57634e487b7160e01b600052602260045260246000fd5b83885260208801828015620005bc5760018114620005ce57620005fb565b60ff19871682528282019750620005fb565b60008981526020902060005b87811015620005f557815484820152908601908401620005da565b83019850505b5050505050505092915050565b6020815260006200053f602083018462000560565b60408152600062000632604083018562000560565b905060018060a01b03831660208301529392505050565b60006101608083526200065f8184018f62000560565b60208481018f90526001600160a01b038e811660408701528d811660608701528c811660808701528b811660a08701528a811660c087015289811660e087015288811661010087015287811661012087015285830361014087015286548084526000888152838120955092939192918401915b81811015620006f2578554841683526001958601959285019201620006d2565b5050809450505050509c9b505050505050505050505050565b6001600160a01b03811681146200072157600080fd5b5056fe60806040526009805460ff60a01b191690553480156200001e57600080fd5b5060405162002cb638038062002cb683398101604081905262000041916200033b565b8a51620000569060049060208e0190620000fd565b5060058a9055600680546001600160a01b03199081166001600160a01b038c8116919091179092556007805482168b84161790556008805482168a8416179055600980548216898416179055600080548216888416179055600180548216878416179055600380548216868416179055600280549091169184169190911790558051620000eb90600a9060208401906200018c565b505050505050505050505050620004eb565b8280546200010b906200047f565b90600052602060002090601f0160209004810192826200012f57600085556200017a565b82601f106200014a57805160ff19168380011785556200017a565b828001600101855582156200017a579182015b828111156200017a5782518255916020019190600101906200015d565b5062000188929150620001e4565b5090565b8280548282559060005260206000209081019282156200017a579160200282015b828111156200017a57825182546001600160a01b0319166001600160a01b03909116178255602090920191600190910190620001ad565b5b80821115620001885760008155600101620001e5565b80516200020881620004d2565b919050565b600082601f8301126200021f57600080fd5b815160206001600160401b038211156200023d576200023d620004bc565b8160051b6200024e8282016200044c565b8381528281019086840183880185018910156200026a57600080fd5b600093505b858410156200029a5780516200028581620004d2565b8352600193909301929184019184016200026f565b50979650505050505050565b600082601f830112620002b857600080fd5b81516001600160401b03811115620002d457620002d4620004bc565b6020620002ea601f8301601f191682016200044c565b8281528582848701011115620002ff57600080fd5b60005b838110156200031f57858101830151828201840152820162000302565b83811115620003315760008385840101525b5095945050505050565b60008060008060008060008060008060006101608c8e0312156200035e57600080fd5b8b516001600160401b038111156200037557600080fd5b620003838e828f01620002a6565b9b505060208c015199506200039b60408d01620001fb565b9850620003ab60608d01620001fb565b9750620003bb60808d01620001fb565b9650620003cb60a08d01620001fb565b9550620003db60c08d01620001fb565b9450620003eb60e08d01620001fb565b9350620003fc6101008d01620001fb565b92506200040d6101208d01620001fb565b6101408d01519092506001600160401b038111156200042b57600080fd5b620004398e828f016200020d565b9150509295989b509295989b9093969950565b604051601f8201601f191681016001600160401b0381118282101715620004775762000477620004bc565b604052919050565b600181811c908216806200049457607f821691505b60208210811415620004b657634e487b7160e01b600052602260045260246000fd5b50919050565b634e487b7160e01b600052604160045260246000fd5b6001600160a01b0381168114620004e857600080fd5b50565b6127bb80620004fb6000396000f3fe60806040526004361061014b5760003560e01c80637e2bbce4116100b6578063edf3daec1161006f578063edf3daec1461037b578063f1b4fbab1461039b578063f742269d146103b1578063f887ea40146103d1578063fbfa77cf146103f1578063fd4a344d1461041157600080fd5b80637e2bbce4146102c85780638e44c749146102e85780639263902314610308578063a6cade1b14610328578063b7511c5b1461033b578063d83678ac1461035b57600080fd5b80633e413bee116101085780633e413bee1461023a578063448689591461025a578063518217a21461027a57806361ef161f1461028d5780636780a7d4146102ad57806379c5ed1b146102b557600080fd5b806303c88677146101505780630a5be8c21461016557806325dcdc3f1461019957806328f371aa146101bb5780632e81bad7146101ec5780633943380c14610224575b600080fd5b61016361015e366004612209565b61044c565b005b34801561017157600080fd5b506101866c0c9f2c9cd04674edea4000000081565b6040519081526020015b60405180910390f35b3480156101a557600080fd5b506101ae61056b565b60405161019091906124de565b3480156101c757600080fd5b506009546101dc90600160a01b900460ff1681565b6040519015158152602001610190565b3480156101f857600080fd5b5060035461020c906001600160a01b031681565b6040516001600160a01b039091168152602001610190565b34801561023057600080fd5b5061018660055481565b34801561024657600080fd5b5060075461020c906001600160a01b031681565b34801561026657600080fd5b5061020c610275366004612124565b6105f9565b61016361028836600461204b565b610623565b34801561029957600080fd5b5060015461020c906001600160a01b031681565b610163610807565b6101636102c336600461204b565b610a17565b3480156102d457600080fd5b506101636102e33660046122b3565b610e68565b3480156102f457600080fd5b5060005461020c906001600160a01b031681565b34801561031457600080fd5b506101636103233660046122b3565b611002565b610163610336366004612156565b61125c565b34801561034757600080fd5b50610163610356366004612124565b61133f565b34801561036757600080fd5b5060025461020c906001600160a01b031681565b34801561038757600080fd5b506101636103963660046120e2565b6115d0565b3480156103a757600080fd5b50610186600b5481565b3480156103bd57600080fd5b5060065461020c906001600160a01b031681565b3480156103dd57600080fd5b5060085461020c906001600160a01b031681565b3480156103fd57600080fd5b5060095461020c906001600160a01b031681565b34801561041d57600080fd5b5061043161042c36600461200a565b611c13565b60408051938452602084019290925290820152606001610190565b600054604051635f9eccc560e11b81526001600160a01b039091169063bf3d998a9061047c906004908101612533565b60206040518083038186803b15801561049457600080fd5b505afa1580156104a8573d6000803e3d6000fd5b505050506040513d601f19601f820116820180604052508101906104cc919061202e565b6001600160a01b0316336001600160a01b0316146104e957600080fd5b60015460405163f2ae372f60e01b81526001600160a01b039091169063f2ae372f90349061052d908d908d908d908d908d908d908d908d908d903090600401612473565b6000604051808303818588803b15801561054657600080fd5b505af115801561055a573d6000803e3d6000fd5b505050505050505050505050505050565b60048054610578906126c7565b80601f01602080910402602001604051908101604052809291908181526020018280546105a4906126c7565b80156105f15780601f106105c6576101008083540402835291602001916105f1565b820191906000526020600020905b8154815290600101906020018083116105d457829003601f168201915b505050505081565b600a818154811061060957600080fd5b6000918252602090912001546001600160a01b0316905081565b6002546005546040516331a9108f60e11b81526001600160a01b0390921691636352211e916106589160040190815260200190565b60206040518083038186803b15801561067057600080fd5b505afa158015610684573d6000803e3d6000fd5b505050506040513d601f19601f820116820180604052508101906106a8919061202e565b6001600160a01b0316336001600160a01b0316148061075c57506003546005546040516331a9108f60e11b81526001600160a01b0390921691636352211e916106f79160040190815260200190565b60206040518083038186803b15801561070f57600080fd5b505afa158015610723573d6000803e3d6000fd5b505050506040513d601f19601f82011682018060405250810190610747919061202e565b6001600160a01b0316336001600160a01b0316145b6107815760405162461bcd60e51b8152600401610778906125db565b60405180910390fd5b6001546001600160a01b0316637be7d1413461079b611dfc565b8989896000308b8b8b6000306040518d63ffffffff1660e01b81526004016107cd9b9a99989796959493929190612400565b6000604051808303818588803b1580156107e657600080fd5b505af11580156107fa573d6000803e3d6000fd5b5050505050505050505050565b60008054906101000a90046001600160a01b03166001600160a01b031663478426636040518163ffffffff1660e01b815260040160206040518083038186803b15801561085357600080fd5b505afa158015610867573d6000803e3d6000fd5b505050506040513d601f19601f8201168201806040525081019061088b919061202e565b6001600160a01b0316336001600160a01b0316146108e45760405162461bcd60e51b81526020600482015260166024820152753cb7ba903737ba1030903934b9b59036b0b730b3b2b960511b6044820152606401610778565b60006108ee611e61565b905060005b600a54811015610a13576000806000610932600a858154811061091857610918612733565b6000918252602090912001546001600160a01b0316611c13565b925092509250826000146109fd576001546001600160a01b0316637be7d1418661095a611dfc565b600a888154811061096d5761096d612733565b60009182526020822001546001600160a01b031690879089903060646109948b6065612691565b61099e919061266f565b60008f6000306040518d63ffffffff1660e01b81526004016109ca9b9a99989796959493929190612400565b6000604051808303818588803b1580156109e357600080fd5b505af11580156109f7573d6000803e3d6000fd5b50505050505b5050508080610a0b90612702565b9150506108f3565b5050565b6002546005546040516331a9108f60e11b81526001600160a01b0390921691636352211e91610a4c9160040190815260200190565b60206040518083038186803b158015610a6457600080fd5b505afa158015610a78573d6000803e3d6000fd5b505050506040513d601f19601f82011682018060405250810190610a9c919061202e565b6001600160a01b0316336001600160a01b03161480610b5057506003546005546040516331a9108f60e11b81526001600160a01b0390921691636352211e91610aeb9160040190815260200190565b60206040518083038186803b158015610b0357600080fd5b505afa158015610b17573d6000803e3d6000fd5b505050506040513d601f19601f82011682018060405250810190610b3b919061202e565b6001600160a01b0316336001600160a01b0316145b610b6c5760405162461bcd60e51b8152600401610778906125db565b60008054604051631fc58a5b60e11b81526001600160a01b0390911690633f8b14b690610bb4906004016020808252600490820152635553444360e01b604082015260600190565b60206040518083038186803b158015610bcc57600080fd5b505afa158015610be0573d6000803e3d6000fd5b505050506040513d601f19601f82011682018060405250810190610c04919061202e565b604051636a0a485160e11b81523060048201526001600160a01b03919091169063d41490a29060240160206040518083038186803b158015610c4557600080fd5b505afa158015610c59573d6000803e3d6000fd5b505050506040513d601f19601f82011682018060405250810190610c7d919061213d565b905060008115610ca85781871115610ca057610c9982886126b0565b9050610cab565b506000610cab565b50855b80600b6000828254610cbd9190612657565b9250508190555060008054906101000a90046001600160a01b03166001600160a01b031663dca627136040518163ffffffff1660e01b8152600401602060405180830381600087803b158015610d1257600080fd5b505af1158015610d26573d6000803e3d6000fd5b505050506040513d601f19601f82011682018060405250810190610d4a919061202e565b600554604051631f22154960e01b81526004810191909152602481018390523360448201526001600160a01b039190911690631f22154990606401600060405180830381600087803b158015610d9f57600080fd5b505af1158015610db3573d6000803e3d6000fd5b505050506000620f42406c0c9f2c9cd04674edea40000000610dd5919061266f565b610ddf9089612691565b6001549091506001600160a01b031663f2ae372f34610dfc611dfc565b8c8c8c8760008e8e8e306040518c63ffffffff1660e01b8152600401610e2b9a99989796959493929190612473565b6000604051808303818588803b158015610e4457600080fd5b505af1158015610e58573d6000803e3d6000fd5b5050505050505050505050505050565b6006546001600160a01b03163314610e7f57600080fd5b60008054604051631fc58a5b60e11b81526001600160a01b0390911690633f8b14b690610eb09085906004016124de565b60206040518083038186803b158015610ec857600080fd5b505afa158015610edc573d6000803e3d6000fd5b505050506040513d601f19601f82011682018060405250810190610f00919061202e565b9050806001600160a01b031663fc0c546a6040518163ffffffff1660e01b815260040160206040518083038186803b158015610f3b57600080fd5b505afa158015610f4f573d6000803e3d6000fd5b505050506040513d601f19601f82011682018060405250810190610f73919061202e565b6040516323b872dd60e01b8152336004820152306024820152604481018590526001600160a01b0391909116906323b872dd906064015b602060405180830381600087803b158015610fc457600080fd5b505af1158015610fd8573d6000803e3d6000fd5b505050506040513d601f19601f82011682018060405250810190610ffc9190612097565b50505050565b60008054906101000a90046001600160a01b03166001600160a01b031663478426636040518163ffffffff1660e01b815260040160206040518083038186803b15801561104e57600080fd5b505afa158015611062573d6000803e3d6000fd5b505050506040513d601f19601f82011682018060405250810190611086919061202e565b6001600160a01b0316336001600160a01b0316146110a357600080fd5b60008054604051631fc58a5b60e11b81526001600160a01b0390911690633f8b14b6906110d49085906004016124de565b60206040518083038186803b1580156110ec57600080fd5b505afa158015611100573d6000803e3d6000fd5b505050506040513d601f19601f82011682018060405250810190611124919061202e565b9050806001600160a01b031663fc0c546a6040518163ffffffff1660e01b815260040160206040518083038186803b15801561115f57600080fd5b505afa158015611173573d6000803e3d6000fd5b505050506040513d601f19601f82011682018060405250810190611197919061202e565b6001600160a01b031663a9059cbb60008054906101000a90046001600160a01b03166001600160a01b031663478426636040518163ffffffff1660e01b815260040160206040518083038186803b1580156111f157600080fd5b505afa158015611205573d6000803e3d6000fd5b505050506040513d601f19601f82011682018060405250810190611229919061202e565b6040516001600160e01b031960e084901b1681526001600160a01b03909116600482015260248101869052604401610faa565b600054604051635f9eccc560e11b81526001600160a01b039091169063bf3d998a9061128c906004908101612533565b60206040518083038186803b1580156112a457600080fd5b505afa1580156112b8573d6000803e3d6000fd5b505050506040513d601f19601f820116820180604052508101906112dc919061202e565b6001600160a01b0316336001600160a01b0316146112f957600080fd5b600154604051637be7d14160e01b81526001600160a01b0390911690637be7d14190349061052d908d908d908d908d908d9030908e908e908e908e908590600401612400565b6008546001546040516338c74dd960e01b81526001600160a01b0391821660048201529116906338c74dd990602401600060405180830381600087803b15801561138857600080fd5b505af115801561139c573d6000803e3d6000fd5b505060075460015460405163095ea7b360e01b81526001600160a01b039182166004820152602481018690529116925063095ea7b39150604401602060405180830381600087803b1580156113f057600080fd5b505af1158015611404573d6000803e3d6000fd5b505050506040513d601f19601f820116820180604052508101906114289190612097565b5060075460085460405163095ea7b360e01b81526001600160a01b0391821660048201526024810184905291169063095ea7b390604401602060405180830381600087803b15801561147957600080fd5b505af115801561148d573d6000803e3d6000fd5b505050506040513d601f19601f820116820180604052508101906114b19190612097565b5060075460005460408051634784266360e01b815290516001600160a01b039384169363095ea7b39316916347842663916004808301926020929190829003018186803b15801561150157600080fd5b505afa158015611515573d6000803e3d6000fd5b505050506040513d601f19601f82011682018060405250810190611539919061202e565b6040516001600160e01b031960e084901b1681526001600160a01b03909116600482015260248101849052604401602060405180830381600087803b15801561158157600080fd5b505af1158015611595573d6000803e3d6000fd5b505050506040513d601f19601f820116820180604052508101906115b99190612097565b50506009805460ff60a01b1916600160a01b179055565b6001546001600160a01b0316331461162a5760405162461bcd60e51b815260206004820181905260248201527f6d73672e73656e646572206973206e6f7420706f736974696f6e526f757465726044820152606401610778565b80611c0e576007546040516370a0823160e01b81523060048201526000916001600160a01b0316906370a082319060240160206040518083038186803b15801561167357600080fd5b505afa158015611687573d6000803e3d6000fd5b505050506040513d601f19601f820116820180604052508101906116ab919061213d565b905060008060009054906101000a90046001600160a01b03166001600160a01b031663dca627136040518163ffffffff1660e01b8152600401602060405180830381600087803b1580156116fe57600080fd5b505af1158015611712573d6000803e3d6000fd5b505050506040513d601f19601f82011682018060405250810190611736919061202e565b6001600160a01b031663026b1d5f6040518163ffffffff1660e01b815260040160206040518083038186803b15801561176e57600080fd5b505afa158015611782573d6000803e3d6000fd5b505050506040513d601f19601f820116820180604052508101906117a6919061202e565b9050600b548210611a7a576000600b54836117c191906126b0565b600754600b5460405163a9059cbb60e01b81526001600160a01b0386811660048301526024820192909252929350169063a9059cbb90604401602060405180830381600087803b15801561181457600080fd5b505af1158015611828573d6000803e3d6000fd5b505050506040513d601f19601f8201168201806040525081019061184c9190612097565b506007546000546005546040516377c529c760e01b815260048101919091526001600160a01b039283169263a9059cbb9216906377c529c79060240160206040518083038186803b1580156118a057600080fd5b505afa1580156118b4573d6000803e3d6000fd5b505050506040513d601f19601f820116820180604052508101906118d8919061202e565b6040516001600160e01b031960e084901b1681526001600160a01b03909116600482015260248101849052604401602060405180830381600087803b15801561192057600080fd5b505af1158015611934573d6000803e3d6000fd5b505050506040513d601f19601f820116820180604052508101906119589190612097565b5061196381846126b0565b600b600082825461197491906126b0565b9250508190555060008054906101000a90046001600160a01b03166001600160a01b031663dca627136040518163ffffffff1660e01b8152600401602060405180830381600087803b1580156119c957600080fd5b505af11580156119dd573d6000803e3d6000fd5b505050506040513d601f19601f82011682018060405250810190611a01919061202e565b6001600160a01b031663ed66ea956005548386611a1e91906126b0565b6040516001600160e01b031960e085901b16815260048101929092526024820152604401600060405180830381600087803b158015611a5c57600080fd5b505af1158015611a70573d6000803e3d6000fd5b5050505050611c0b565b60075460405163a9059cbb60e01b81526001600160a01b038381166004830152602482018590529091169063a9059cbb90604401602060405180830381600087803b158015611ac857600080fd5b505af1158015611adc573d6000803e3d6000fd5b505050506040513d601f19601f82011682018060405250810190611b009190612097565b5081600b6000828254611b1391906126b0565b9250508190555060008054906101000a90046001600160a01b03166001600160a01b031663dca627136040518163ffffffff1660e01b8152600401602060405180830381600087803b158015611b6857600080fd5b505af1158015611b7c573d6000803e3d6000fd5b505050506040513d601f19601f82011682018060405250810190611ba0919061202e565b6001600160a01b031663ed66ea95600554846040518363ffffffff1660e01b8152600401611bd8929190918252602082015260400190565b600060405180830381600087803b158015611bf257600080fd5b505af1158015611c06573d6000803e3d6000fd5b505050505b50505b505050565b600954600754604051634a3f088d60e01b81523060048201526001600160a01b03918216602482015283821660448201526000606482018190529283928392839283921690634a3f088d906084016101006040518083038186803b158015611c7a57600080fd5b505afa158015611c8e573d6000803e3d6000fd5b505050506040513d601f19601f82011682018060405250810190611cb29190612352565b5050505050509150915081945084600014611df35760095460075460405163045a6f3760e41b81523060048201526001600160a01b039182166024820152888216604482015260006064820181905292839216906345a6f37090608401604080518083038186803b158015611d2657600080fd5b505afa158015611d3a573d6000803e3d6000fd5b505050506040513d601f19601f82011682018060405250810190611d5e91906120b4565b9150915081611d6d5780611d6f565b825b6009546040516340d3096b60e11b81526001600160a01b038b811660048301529298509116906381a612d69060240160206040518083038186803b158015611db657600080fd5b505afa158015611dca573d6000803e3d6000fd5b505050506040513d601f19601f82011682018060405250810190611dee919061213d565b945050505b50509193909250565b60408051600180825281830190925260609160208083019080368337505060075482519293506001600160a01b031691839150600090611e3e57611e3e612733565b60200260200101906001600160a01b031690816001600160a01b03168152505090565b600154604080516363ae210360e01b815290516000926001600160a01b0316916363ae2103916004808301926020929190829003018186803b158015611ea657600080fd5b505afa158015611eba573d6000803e3d6000fd5b505050506040513d601f19601f82011682018060405250810190611ede919061213d565b90506000805b600a54811015611f32576000611f06600a838154811061091857610918612733565b5050905080600014611f1f57611f1c8484612657565b92505b5080611f2a81612702565b915050611ee4565b5080341015611f775760405162461bcd60e51b8152602060048201526011602482015270696e76616c6964206d73672e76616c756560781b6044820152606401610778565b5090565b600082601f830112611f8c57600080fd5b8135602067ffffffffffffffff821115611fa857611fa8612749565b8160051b611fb7828201612626565b838152828101908684018388018501891015611fd257600080fd5b600093505b85841015611ffe578035611fea8161275f565b835260019390930192918401918401611fd7565b50979650505050505050565b60006020828403121561201c57600080fd5b81356120278161275f565b9392505050565b60006020828403121561204057600080fd5b81516120278161275f565b60008060008060008060c0878903121561206457600080fd5b863561206f8161275f565b9860208801359850604088013597606081013597506080810135965060a00135945092505050565b6000602082840312156120a957600080fd5b815161202781612777565b600080604083850312156120c757600080fd5b82516120d281612777565b6020939093015192949293505050565b6000806000606084860312156120f757600080fd5b83359250602084013561210981612777565b9150604084013561211981612777565b809150509250925092565b60006020828403121561213657600080fd5b5035919050565b60006020828403121561214f57600080fd5b5051919050565b6000806000806000806000806000806101408b8d03121561217657600080fd5b8a35995060208b013567ffffffffffffffff81111561219457600080fd5b6121a08d828e01611f7b565b99505060408b01356121b18161275f565b975060608b0135965060808b0135955060a08b01356121cf81612777565b945060c08b0135935060e08b013592506101008b013591506101208b01356121f681612777565b809150509295989b9194979a5092959850565b6000806000806000806000806000806101408b8d03121561222957600080fd5b8a35995060208b013567ffffffffffffffff81111561224757600080fd5b6122538d828e01611f7b565b99505060408b01356122648161275f565b975060608b0135965060808b0135955060a08b0135945060c08b013561228981612777565b8094505060e08b013592506101008b013591506101208b013590509295989b9194979a5092959850565b600080604083850312156122c657600080fd5b8235915060208084013567ffffffffffffffff808211156122e657600080fd5b818601915086601f8301126122fa57600080fd5b81358181111561230c5761230c612749565b61231e601f8201601f19168501612626565b9150808252878482850101111561233457600080fd5b80848401858401376000848284010152508093505050509250929050565b600080600080600080600080610100898b03121561236f57600080fd5b885197506020890151965060408901519550606089015194506080890151935060a0890151925060c08901516123a481612777565b8092505060e089015190509295985092959890939650565b600081518084526020808501945080840160005b838110156123f55781516001600160a01b0316875295820195908201906001016123d0565b509495945050505050565b60006101608083526124148184018f6123bc565b6001600160a01b039d8e166020850152604084019c909c5250506060810198909852951515608088015293881660a087015260c086019290925260e0850152610100840152151561012083015290921661014090920191909152919050565b60006101408083526124878184018e6123bc565b6001600160a01b039c8d166020850152604084019b909b5250506060810197909752608087019590955292151560a086015260c085019190915260e084015261010083015290921661012090920191909152919050565b600060208083528351808285015260005b8181101561250b578581018301518582016040015282016124ef565b8181111561251d576000604083870101525b50601f01601f1916929092016040019392505050565b600060208083526000845481600182811c91508083168061255557607f831692505b85831081141561257357634e487b7160e01b85526022600452602485fd5b87860183815260200181801561259057600181146125a1576125cc565b60ff198616825287820196506125cc565b60008b81526020902060005b868110156125c6578154848201529085019089016125ad565b83019750505b50949998505050505050505050565b6020808252602b908201527f4c656e64416e64426f72726f774d616e616765723a20796f7520617265206e6f60408201526a3a103a34329037bbb732b960a91b606082015260800190565b604051601f8201601f1916810167ffffffffffffffff8111828210171561264f5761264f612749565b604052919050565b6000821982111561266a5761266a61271d565b500190565b60008261268c57634e487b7160e01b600052601260045260246000fd5b500490565b60008160001904831182151516156126ab576126ab61271d565b500290565b6000828210156126c2576126c261271d565b500390565b600181811c908216806126db57607f821691505b602082108114156126fc57634e487b7160e01b600052602260045260246000fd5b50919050565b60006000198214156127165761271661271d565b5060010190565b634e487b7160e01b600052601160045260246000fd5b634e487b7160e01b600052603260045260246000fd5b634e487b7160e01b600052604160045260246000fd5b6001600160a01b038116811461277457600080fd5b50565b801515811461277457600080fdfea264697066735822122020c6a64846d42503cae6f1bbf58c85823f5dee6f49058093c1f2fc26d541546264736f6c63430008060033a26469706673582212200b0fb9e09f14e5f65925e4919a38ab98130c04d1a899f51f1ced1a67ae1fc3fe64736f6c63430008060033",
  "devdoc": {
    "kind": "dev",
    "methods": {},
    "version": 1
  },
  "userdoc": {
    "kind": "user",
    "methods": {},
    "version": 1
  },
  "storageLayout": {
    "storage": [
      {
        "astId": 4033,
        "contract": "contracts/broker_creators/BrokerCreator_GMX_SHORT.sol:BrokerCreator_GMX_SHORT",
        "label": "contractsStorage",
        "offset": 0,
        "slot": "0",
        "type": "t_contract(IContractsStorage)5148"
      },
      {
        "astId": 4036,
        "contract": "contracts/broker_creators/BrokerCreator_GMX_SHORT.sol:BrokerCreator_GMX_SHORT",
        "label": "positionRouter",
        "offset": 0,
        "slot": "1",
        "type": "t_contract(IPositionRouter)5424"
      },
      {
        "astId": 4039,
        "contract": "contracts/broker_creators/BrokerCreator_GMX_SHORT.sol:BrokerCreator_GMX_SHORT",
        "label": "adminToken",
        "offset": 0,
        "slot": "2",
        "type": "t_contract(IERC721)1863"
      },
      {
        "astId": 4042,
        "contract": "contracts/broker_creators/BrokerCreator_GMX_SHORT.sol:BrokerCreator_GMX_SHORT",
        "label": "tradeToken",
        "offset": 0,
        "slot": "3",
        "type": "t_contract(IERC721)1863"
      },
      {
        "astId": 4044,
        "contract": "contracts/broker_creators/BrokerCreator_GMX_SHORT.sol:BrokerCreator_GMX_SHORT",
        "label": "router",
        "offset": 0,
        "slot": "4",
        "type": "t_address"
      },
      {
        "astId": 4046,
        "contract": "contracts/broker_creators/BrokerCreator_GMX_SHORT.sol:BrokerCreator_GMX_SHORT",
        "label": "vault",
        "offset": 0,
        "slot": "5",
        "type": "t_address"
      },
      {
        "astId": 4049,
        "contract": "contracts/broker_creators/BrokerCreator_GMX_SHORT.sol:BrokerCreator_GMX_SHORT",
        "label": "name",
        "offset": 0,
        "slot": "6",
        "type": "t_string_storage"
      },
      {
        "astId": 4052,
        "contract": "contracts/broker_creators/BrokerCreator_GMX_SHORT.sol:BrokerCreator_GMX_SHORT",
        "label": "arrTradingPair",
        "offset": 0,
        "slot": "7",
        "type": "t_array(t_address)dyn_storage"
      }
    ],
    "types": {
      "t_address": {
        "encoding": "inplace",
        "label": "address",
        "numberOfBytes": "20"
      },
      "t_array(t_address)dyn_storage": {
        "base": "t_address",
        "encoding": "dynamic_array",
        "label": "address[]",
        "numberOfBytes": "32"
      },
      "t_contract(IContractsStorage)5148": {
        "encoding": "inplace",
        "label": "contract IContractsStorage",
        "numberOfBytes": "20"
      },
      "t_contract(IERC721)1863": {
        "encoding": "inplace",
        "label": "contract IERC721",
        "numberOfBytes": "20"
      },
      "t_contract(IPositionRouter)5424": {
        "encoding": "inplace",
        "label": "contract IPositionRouter",
        "numberOfBytes": "20"
      },
      "t_string_storage": {
        "encoding": "bytes",
        "label": "string",
        "numberOfBytes": "32"
      }
    }
  }
}