{
  "address": "0xac2964f823D283F2F70052f81FC7A2dA6A1E1DB8",
  "abi": [
    {
      "inputs": [
        {
          "internalType": "contract IERC721",
          "name": "_adminToken",
          "type": "address"
        },
        {
          "internalType": "contract IERC721",
          "name": "_tradeToken",
          "type": "address"
        },
        {
          "internalType": "contract IRoleManager",
          "name": "_roleManager",
          "type": "address"
        },
        {
          "internalType": "contract ILendAndBorrowManager",
          "name": "_lendAndBorrowManager",
          "type": "address"
        },
        {
          "internalType": "contract IERC20",
          "name": "_usdc",
          "type": "address"
        }
      ],
      "stateMutability": "nonpayable",
      "type": "constructor"
    },
    {
      "anonymous": false,
      "inputs": [
        {
          "indexed": true,
          "internalType": "address",
          "name": "previousOwner",
          "type": "address"
        },
        {
          "indexed": true,
          "internalType": "address",
          "name": "newOwner",
          "type": "address"
        }
      ],
      "name": "OwnershipTransferred",
      "type": "event"
    },
    {
      "inputs": [
        {
          "internalType": "string",
          "name": "name",
          "type": "string"
        }
      ],
      "name": "addVaultionManagersArr",
      "outputs": [],
      "stateMutability": "nonpayable",
      "type": "function"
    },
    {
      "inputs": [],
      "name": "adminToken",
      "outputs": [
        {
          "internalType": "contract IERC721",
          "name": "",
          "type": "address"
        }
      ],
      "stateMutability": "view",
      "type": "function"
    },
    {
      "inputs": [
        {
          "internalType": "string",
          "name": "",
          "type": "string"
        }
      ],
      "name": "brokerCreators",
      "outputs": [
        {
          "internalType": "address",
          "name": "",
          "type": "address"
        }
      ],
      "stateMutability": "view",
      "type": "function"
    },
    {
      "inputs": [
        {
          "internalType": "address",
          "name": "value",
          "type": "address"
        }
      ],
      "name": "changeRiskManager",
      "outputs": [],
      "stateMutability": "nonpayable",
      "type": "function"
    },
    {
      "inputs": [
        {
          "internalType": "string[]",
          "name": "nameArr",
          "type": "string[]"
        }
      ],
      "name": "changeVaultionManagersArr",
      "outputs": [],
      "stateMutability": "nonpayable",
      "type": "function"
    },
    {
      "inputs": [],
      "name": "getProductArr",
      "outputs": [
        {
          "internalType": "string[]",
          "name": "",
          "type": "string[]"
        }
      ],
      "stateMutability": "view",
      "type": "function"
    },
    {
      "inputs": [],
      "name": "lendAndBorrowManager",
      "outputs": [
        {
          "internalType": "contract ILendAndBorrowManager",
          "name": "",
          "type": "address"
        }
      ],
      "stateMutability": "view",
      "type": "function"
    },
    {
      "inputs": [
        {
          "internalType": "uint256",
          "name": "",
          "type": "uint256"
        }
      ],
      "name": "marginAccounts",
      "outputs": [
        {
          "internalType": "address",
          "name": "",
          "type": "address"
        }
      ],
      "stateMutability": "view",
      "type": "function"
    },
    {
      "inputs": [],
      "name": "owner",
      "outputs": [
        {
          "internalType": "address",
          "name": "",
          "type": "address"
        }
      ],
      "stateMutability": "view",
      "type": "function"
    },
    {
      "inputs": [],
      "name": "renounceOwnership",
      "outputs": [],
      "stateMutability": "nonpayable",
      "type": "function"
    },
    {
      "inputs": [
        {
          "internalType": "string",
          "name": "",
          "type": "string"
        }
      ],
      "name": "reserveLiquidators",
      "outputs": [
        {
          "internalType": "address",
          "name": "",
          "type": "address"
        }
      ],
      "stateMutability": "view",
      "type": "function"
    },
    {
      "inputs": [],
      "name": "riskManager",
      "outputs": [
        {
          "internalType": "address",
          "name": "",
          "type": "address"
        }
      ],
      "stateMutability": "view",
      "type": "function"
    },
    {
      "inputs": [],
      "name": "roleManager",
      "outputs": [
        {
          "internalType": "contract IRoleManager",
          "name": "",
          "type": "address"
        }
      ],
      "stateMutability": "view",
      "type": "function"
    },
    {
      "inputs": [
        {
          "internalType": "string",
          "name": "name",
          "type": "string"
        },
        {
          "internalType": "address",
          "name": "brokerCreator",
          "type": "address"
        }
      ],
      "name": "setBrokerCreator",
      "outputs": [],
      "stateMutability": "nonpayable",
      "type": "function"
    },
    {
      "inputs": [
        {
          "internalType": "uint256",
          "name": "id",
          "type": "uint256"
        },
        {
          "internalType": "address",
          "name": "marginAccount",
          "type": "address"
        }
      ],
      "name": "setMarginAccount",
      "outputs": [],
      "stateMutability": "nonpayable",
      "type": "function"
    },
    {
      "inputs": [
        {
          "internalType": "string",
          "name": "name",
          "type": "string"
        },
        {
          "internalType": "address",
          "name": "reserveLiquidator",
          "type": "address"
        }
      ],
      "name": "setReserveLiquidators",
      "outputs": [],
      "stateMutability": "nonpayable",
      "type": "function"
    },
    {
      "inputs": [
        {
          "internalType": "string",
          "name": "name",
          "type": "string"
        },
        {
          "internalType": "address",
          "name": "vaultionManager",
          "type": "address"
        }
      ],
      "name": "setVaultionManager",
      "outputs": [],
      "stateMutability": "nonpayable",
      "type": "function"
    },
    {
      "inputs": [],
      "name": "tradeToken",
      "outputs": [
        {
          "internalType": "contract IERC721",
          "name": "",
          "type": "address"
        }
      ],
      "stateMutability": "view",
      "type": "function"
    },
    {
      "inputs": [
        {
          "internalType": "address",
          "name": "newOwner",
          "type": "address"
        }
      ],
      "name": "transferOwnership",
      "outputs": [],
      "stateMutability": "nonpayable",
      "type": "function"
    },
    {
      "inputs": [
        {
          "internalType": "string",
          "name": "",
          "type": "string"
        }
      ],
      "name": "triggerManagers",
      "outputs": [
        {
          "internalType": "address",
          "name": "",
          "type": "address"
        }
      ],
      "stateMutability": "view",
      "type": "function"
    },
    {
      "inputs": [],
      "name": "usdc",
      "outputs": [
        {
          "internalType": "contract IERC20",
          "name": "",
          "type": "address"
        }
      ],
      "stateMutability": "view",
      "type": "function"
    },
    {
      "inputs": [
        {
          "internalType": "string",
          "name": "",
          "type": "string"
        }
      ],
      "name": "vaultionManagers",
      "outputs": [
        {
          "internalType": "address",
          "name": "",
          "type": "address"
        }
      ],
      "stateMutability": "view",
      "type": "function"
    },
    {
      "inputs": [
        {
          "internalType": "uint256",
          "name": "",
          "type": "uint256"
        }
      ],
      "name": "vaultionManagersArr",
      "outputs": [
        {
          "internalType": "string",
          "name": "",
          "type": "string"
        }
      ],
      "stateMutability": "view",
      "type": "function"
    }
  ],
  "transactionHash": "0x171f1a4dfc49e5178016d50e492617a9be6e2045540b55838ecd199fc0c77deb",
  "args": [
    "0x6bFbc79d5EDc7ac3684861A0D5C3d49843dc8FE0",
    "0xD803bAE55bC7bf87065FD376BB972337f3FdD073",
    "0xe6905c9AD6031d89382198f94Fcd49928d6b6CA3",
    "0xD075948B8f42f59c111FD56Ba964A06D394bE853",
    "0xFF970A61A04b1cA14834A43f5dE4533eBDDB5CC8"
  ],
  "numDeployments": 1,
  "solcInputHash": "5e7b5b3739c8895adc7189446fe591f1",
  "bytecode": "0x60806040523480156200001157600080fd5b5060405162001050380380620010508339810160408190526200003491620000f2565b6200003f33620000a2565b600880546001600160a01b03199081166001600160a01b039788161790915560078054821695871695909517909455600a8054851693861693909317909255600b80548416918516919091179055600c805490921692169190911790556200018b565b600080546001600160a01b038381166001600160a01b0319831681178455604051919092169283917f8be0079c531659141344cd1fd0a4f28419497f9722a3daafe3b4186f6b6457e09190a35050565b600080600080600060a086880312156200010b57600080fd5b8551620001188162000172565b60208701519095506200012b8162000172565b60408701519094506200013e8162000172565b6060870151909350620001518162000172565b6080870151909250620001648162000172565b809150509295509295909350565b6001600160a01b03811681146200018857600080fd5b50565b610eb5806200019b6000396000f3fe608060405234801561001057600080fd5b506004361061014c5760003560e01c8063b7d52a5f116100c3578063d816bede1161007c578063d816bede1461032e578063d83678ac14610341578063dca6271314610354578063e93aee0c14610367578063f2fde38b1461037a578063f7dcf9bf1461038d57600080fd5b8063b7d52a5f1461026b578063ba3cc1951461027e578063bf3d998a1461029e578063c185b22e146102d2578063cb324ce0146102e5578063d597573e1461031957600080fd5b8063478426631161011557806347842663146101f057806349df00af146102035780636c7a5ba114610216578063715018a61461022957806377c529c7146102315780638da5cb5b1461025a57600080fd5b8062435da5146101515780632e81bad714610181578063314ba276146101945780633e413bee146101a95780633f8b14b6146101bc575b600080fd5b600a54610164906001600160a01b031681565b6040516001600160a01b0390911681526020015b60405180910390f35b600854610164906001600160a01b031681565b6101a76101a2366004610b81565b6103c1565b005b600c54610164906001600160a01b031681565b6101646101ca366004610c49565b80516020818301810180516003825292820191909301209152546001600160a01b031681565b600954610164906001600160a01b031681565b6101a7610211366004610c86565b6103e0565b6101a7610224366004610c86565b610487565b6101a76104fb565b61016461023f366004610cd4565b6002602052600090815260409020546001600160a01b031681565b6000546001600160a01b0316610164565b6101a7610279366004610c86565b61050f565b61029161028c366004610cd4565b610583565b6040516101789190610dba565b6101646102ac366004610c49565b80516020818301810180516005825292820191909301209152546001600160a01b031681565b6101a76102e0366004610c49565b61062f565b6101646102f3366004610c49565b80516020818301810180516001825292820191909301209152546001600160a01b031681565b61032161067a565b6040516101789190610d58565b6101a761033c366004610ced565b610753565b600754610164906001600160a01b031681565b600b54610164906001600160a01b031681565b6101a7610375366004610b5f565b6107dc565b6101a7610388366004610b5f565b610862565b61016461039b366004610c49565b80516020818301810180516006825292820191909301209152546001600160a01b031681565b6103c96108e0565b80516103dc90600490602084019061098a565b5050565b6103e86108e0565b600a54604051633d89cfc560e21b81523360048201526001600160a01b039091169063f6273f149060240160006040518083038186803b15801561042b57600080fd5b505afa15801561043f573d6000803e3d6000fd5b50505050806005836040516104549190610d3c565b90815260405190819003602001902080546001600160a01b03929092166001600160a01b03199092169190911790555050565b61048f6108e0565b600a54604051633d89cfc560e21b81523360048201526001600160a01b039091169063f6273f149060240160006040518083038186803b1580156104d257600080fd5b505afa1580156104e6573d6000803e3d6000fd5b50505050806003836040516104549190610d3c565b6105036108e0565b61050d600061093a565b565b6105176108e0565b600a54604051633d89cfc560e21b81523360048201526001600160a01b039091169063f6273f149060240160006040518083038186803b15801561055a57600080fd5b505afa15801561056e573d6000803e3d6000fd5b50505050806001836040516104549190610d3c565b6004818154811061059357600080fd5b9060005260206000200160009150905080546105ae90610e2e565b80601f01602080910402602001604051908101604052809291908181526020018280546105da90610e2e565b80156106275780601f106105fc57610100808354040283529160200191610627565b820191906000526020600020905b81548152906001019060200180831161060a57829003601f168201915b505050505081565b6106376108e0565b6004805460018101825560009190915281516103dc917f8a35acfbc15ff81a39ae7d344fd709f28e8600b4aa8c65c6b64bfe7fe36bd19b019060208401906109e7565b60606004805480602002602001604051908101604052809291908181526020016000905b8282101561074a5783829060005260206000200180546106bd90610e2e565b80601f01602080910402602001604051908101604052809291908181526020018280546106e990610e2e565b80156107365780601f1061070b57610100808354040283529160200191610736565b820191906000526020600020905b81548152906001019060200180831161071957829003601f168201915b50505050508152602001906001019061069e565b50505050905090565b600a54604051631f095b9160e21b81523360048201526001600160a01b0390911690637c256e449060240160006040518083038186803b15801561079657600080fd5b505afa1580156107aa573d6000803e3d6000fd5b5050506000928352506002602052604090912080546001600160a01b0319166001600160a01b03909216919091179055565b6107e46108e0565b600a54604051633d89cfc560e21b81523360048201526001600160a01b039091169063f6273f149060240160006040518083038186803b15801561082757600080fd5b505afa15801561083b573d6000803e3d6000fd5b5050600980546001600160a01b0319166001600160a01b0394909416939093179092555050565b61086a6108e0565b6001600160a01b0381166108d45760405162461bcd60e51b815260206004820152602660248201527f4f776e61626c653a206e6577206f776e657220697320746865207a65726f206160448201526564647265737360d01b60648201526084015b60405180910390fd5b6108dd8161093a565b50565b6000546001600160a01b0316331461050d5760405162461bcd60e51b815260206004820181905260248201527f4f776e61626c653a2063616c6c6572206973206e6f7420746865206f776e657260448201526064016108cb565b600080546001600160a01b038381166001600160a01b0319831681178455604051919092169283917f8be0079c531659141344cd1fd0a4f28419497f9722a3daafe3b4186f6b6457e09190a35050565b8280548282559060005260206000209081019282156109d7579160200282015b828111156109d757825180516109c79184916020909101906109e7565b50916020019190600101906109aa565b506109e3929150610a67565b5090565b8280546109f390610e2e565b90600052602060002090601f016020900481019282610a155760008555610a5b565b82601f10610a2e57805160ff1916838001178555610a5b565b82800160010185558215610a5b579182015b82811115610a5b578251825591602001919060010190610a40565b506109e3929150610a84565b808211156109e3576000610a7b8282610a99565b50600101610a67565b5b808211156109e35760008155600101610a85565b508054610aa590610e2e565b6000825580601f10610ab5575050565b601f0160209004906000526020600020908101906108dd9190610a84565b80356001600160a01b0381168114610aea57600080fd5b919050565b600082601f830112610b0057600080fd5b813567ffffffffffffffff811115610b1a57610b1a610e69565b610b2d601f8201601f1916602001610dcd565b818152846020838601011115610b4257600080fd5b816020850160208301376000918101602001919091529392505050565b600060208284031215610b7157600080fd5b610b7a82610ad3565b9392505050565b60006020808385031215610b9457600080fd5b823567ffffffffffffffff80821115610bac57600080fd5b818501915085601f830112610bc057600080fd5b813581811115610bd257610bd2610e69565b8060051b610be1858201610dcd565b8281528581019085870183870188018b1015610bfc57600080fd5b60009350835b85811015610c3957813587811115610c18578586fd5b610c268d8b838c0101610aef565b8552509288019290880190600101610c02565b50909a9950505050505050505050565b600060208284031215610c5b57600080fd5b813567ffffffffffffffff811115610c7257600080fd5b610c7e84828501610aef565b949350505050565b60008060408385031215610c9957600080fd5b823567ffffffffffffffff811115610cb057600080fd5b610cbc85828601610aef565b925050610ccb60208401610ad3565b90509250929050565b600060208284031215610ce657600080fd5b5035919050565b60008060408385031215610d0057600080fd5b82359150610ccb60208401610ad3565b60008151808452610d28816020860160208601610dfe565b601f01601f19169290920160200192915050565b60008251610d4e818460208701610dfe565b9190910192915050565b6000602080830181845280855180835260408601915060408160051b870101925083870160005b82811015610dad57603f19888603018452610d9b858351610d10565b94509285019290850190600101610d7f565b5092979650505050505050565b602081526000610b7a6020830184610d10565b604051601f8201601f1916810167ffffffffffffffff81118282101715610df657610df6610e69565b604052919050565b60005b83811015610e19578181015183820152602001610e01565b83811115610e28576000848401525b50505050565b600181811c90821680610e4257607f821691505b60208210811415610e6357634e487b7160e01b600052602260045260246000fd5b50919050565b634e487b7160e01b600052604160045260246000fdfea2646970667358221220d563cb4342576759bf0c7bebf8897ab58b61b6362237e328866d8ade9c11b20364736f6c63430008060033",
  "devdoc": {
    "kind": "dev",
    "methods": {
      "owner()": {
        "details": "Returns the address of the current owner."
      },
      "renounceOwnership()": {
        "details": "Leaves the contract without owner. It will not be possible to call `onlyOwner` functions anymore. Can only be called by the current owner. NOTE: Renouncing ownership will leave the contract without an owner, thereby removing any functionality that is only available to the owner."
      },
      "transferOwnership(address)": {
        "details": "Transfers ownership of the contract to a new account (`newOwner`). Can only be called by the current owner."
      }
    },
    "version": 1
  },
  "userdoc": {
    "kind": "user",
    "methods": {},
    "version": 1
  },
  "storageLayout": {
    "storage": [
      {
        "astId": 7,
        "contract": "contracts/ContractsStorage.sol:ContractsStorage",
        "label": "_owner",
        "offset": 0,
        "slot": "0",
        "type": "t_address"
      },
      {
        "astId": 3350,
        "contract": "contracts/ContractsStorage.sol:ContractsStorage",
        "label": "brokerCreators",
        "offset": 0,
        "slot": "1",
        "type": "t_mapping(t_string_memory_ptr,t_address)"
      },
      {
        "astId": 3354,
        "contract": "contracts/ContractsStorage.sol:ContractsStorage",
        "label": "marginAccounts",
        "offset": 0,
        "slot": "2",
        "type": "t_mapping(t_uint256,t_address)"
      },
      {
        "astId": 3358,
        "contract": "contracts/ContractsStorage.sol:ContractsStorage",
        "label": "vaultionManagers",
        "offset": 0,
        "slot": "3",
        "type": "t_mapping(t_string_memory_ptr,t_address)"
      },
      {
        "astId": 3361,
        "contract": "contracts/ContractsStorage.sol:ContractsStorage",
        "label": "vaultionManagersArr",
        "offset": 0,
        "slot": "4",
        "type": "t_array(t_string_storage)dyn_storage"
      },
      {
        "astId": 3365,
        "contract": "contracts/ContractsStorage.sol:ContractsStorage",
        "label": "reserveLiquidators",
        "offset": 0,
        "slot": "5",
        "type": "t_mapping(t_string_memory_ptr,t_address)"
      },
      {
        "astId": 3369,
        "contract": "contracts/ContractsStorage.sol:ContractsStorage",
        "label": "triggerManagers",
        "offset": 0,
        "slot": "6",
        "type": "t_mapping(t_string_memory_ptr,t_address)"
      },
      {
        "astId": 3372,
        "contract": "contracts/ContractsStorage.sol:ContractsStorage",
        "label": "tradeToken",
        "offset": 0,
        "slot": "7",
        "type": "t_contract(IERC721)1863"
      },
      {
        "astId": 3375,
        "contract": "contracts/ContractsStorage.sol:ContractsStorage",
        "label": "adminToken",
        "offset": 0,
        "slot": "8",
        "type": "t_contract(IERC721)1863"
      },
      {
        "astId": 3377,
        "contract": "contracts/ContractsStorage.sol:ContractsStorage",
        "label": "riskManager",
        "offset": 0,
        "slot": "9",
        "type": "t_address"
      },
      {
        "astId": 3380,
        "contract": "contracts/ContractsStorage.sol:ContractsStorage",
        "label": "roleManager",
        "offset": 0,
        "slot": "10",
        "type": "t_contract(IRoleManager)6674"
      },
      {
        "astId": 3383,
        "contract": "contracts/ContractsStorage.sol:ContractsStorage",
        "label": "lendAndBorrowManager",
        "offset": 0,
        "slot": "11",
        "type": "t_contract(ILendAndBorrowManager)6358"
      },
      {
        "astId": 3386,
        "contract": "contracts/ContractsStorage.sol:ContractsStorage",
        "label": "usdc",
        "offset": 0,
        "slot": "12",
        "type": "t_contract(IERC20)777"
      }
    ],
    "types": {
      "t_address": {
        "encoding": "inplace",
        "label": "address",
        "numberOfBytes": "20"
      },
      "t_array(t_string_storage)dyn_storage": {
        "base": "t_string_storage",
        "encoding": "dynamic_array",
        "label": "string[]",
        "numberOfBytes": "32"
      },
      "t_contract(IERC20)777": {
        "encoding": "inplace",
        "label": "contract IERC20",
        "numberOfBytes": "20"
      },
      "t_contract(IERC721)1863": {
        "encoding": "inplace",
        "label": "contract IERC721",
        "numberOfBytes": "20"
      },
      "t_contract(ILendAndBorrowManager)6358": {
        "encoding": "inplace",
        "label": "contract ILendAndBorrowManager",
        "numberOfBytes": "20"
      },
      "t_contract(IRoleManager)6674": {
        "encoding": "inplace",
        "label": "contract IRoleManager",
        "numberOfBytes": "20"
      },
      "t_mapping(t_string_memory_ptr,t_address)": {
        "encoding": "mapping",
        "key": "t_string_memory_ptr",
        "label": "mapping(string => address)",
        "numberOfBytes": "32",
        "value": "t_address"
      },
      "t_mapping(t_uint256,t_address)": {
        "encoding": "mapping",
        "key": "t_uint256",
        "label": "mapping(uint256 => address)",
        "numberOfBytes": "32",
        "value": "t_address"
      },
      "t_string_memory_ptr": {
        "encoding": "bytes",
        "label": "string",
        "numberOfBytes": "32"
      },
      "t_string_storage": {
        "encoding": "bytes",
        "label": "string",
        "numberOfBytes": "32"
      },
      "t_uint256": {
        "encoding": "inplace",
        "label": "uint256",
        "numberOfBytes": "32"
      }
    }
  }
}