{
  "address": "0x47C9Ea65890A938CDd514352aa123de8c7D2154c",
  "abi": [
    {
      "inputs": [
        {
          "internalType": "contract IPositionRouter",
          "name": "_positionRouter",
          "type": "address"
        },
        {
          "internalType": "contract IAccountManager",
          "name": "_accountManager",
          "type": "address"
        },
        {
          "internalType": "contract IVault",
          "name": "_vault",
          "type": "address"
        },
        {
          "internalType": "contract IERC721",
          "name": "_collateralToken",
          "type": "address"
        },
        {
          "internalType": "contract IERC20",
          "name": "_USDC",
          "type": "address"
        },
        {
          "internalType": "uint256",
          "name": "_minBorrowLimit",
          "type": "uint256"
        },
        {
          "internalType": "uint256",
          "name": "_ltv",
          "type": "uint256"
        },
        {
          "internalType": "uint256",
          "name": "_COLLATERAL_DECIMALS",
          "type": "uint256"
        },
        {
          "internalType": "address[4]",
          "name": "_ArrIndexPrice",
          "type": "address[4]"
        },
        {
          "internalType": "uint256[4]",
          "name": "_ArrBorderPriceCoef",
          "type": "uint256[4]"
        }
      ],
      "stateMutability": "nonpayable",
      "type": "constructor"
    },
    {
      "anonymous": false,
      "inputs": [
        {
          "indexed": true,
          "internalType": "address",
          "name": "user",
          "type": "address"
        },
        {
          "indexed": true,
          "internalType": "uint256",
          "name": "id",
          "type": "uint256"
        },
        {
          "indexed": false,
          "internalType": "uint256",
          "name": "amount",
          "type": "uint256"
        },
        {
          "indexed": false,
          "internalType": "address",
          "name": "strategy",
          "type": "address"
        },
        {
          "indexed": false,
          "internalType": "uint256",
          "name": "timestamp",
          "type": "uint256"
        }
      ],
      "name": "Borrow",
      "type": "event"
    },
    {
      "anonymous": false,
      "inputs": [
        {
          "indexed": true,
          "internalType": "address",
          "name": "user",
          "type": "address"
        },
        {
          "indexed": true,
          "internalType": "uint256",
          "name": "optionID",
          "type": "uint256"
        },
        {
          "indexed": false,
          "internalType": "uint256",
          "name": "amount",
          "type": "uint256"
        },
        {
          "indexed": false,
          "internalType": "uint256",
          "name": "poolProfit",
          "type": "uint256"
        },
        {
          "indexed": false,
          "internalType": "uint256",
          "name": "liqFee",
          "type": "uint256"
        }
      ],
      "name": "ForcedExercise",
      "type": "event"
    },
    {
      "anonymous": false,
      "inputs": [
        {
          "indexed": true,
          "internalType": "address",
          "name": "user",
          "type": "address"
        },
        {
          "indexed": true,
          "internalType": "uint256",
          "name": "optionID",
          "type": "uint256"
        },
        {
          "indexed": false,
          "internalType": "uint256",
          "name": "amount",
          "type": "uint256"
        },
        {
          "indexed": false,
          "internalType": "uint256",
          "name": "poolProfit",
          "type": "uint256"
        },
        {
          "indexed": false,
          "internalType": "uint256",
          "name": "liqFee",
          "type": "uint256"
        }
      ],
      "name": "Liquidate",
      "type": "event"
    },
    {
      "anonymous": false,
      "inputs": [
        {
          "indexed": true,
          "internalType": "address",
          "name": "user",
          "type": "address"
        },
        {
          "indexed": true,
          "internalType": "uint256",
          "name": "optionID",
          "type": "uint256"
        },
        {
          "indexed": false,
          "internalType": "uint256",
          "name": "userReturn",
          "type": "uint256"
        },
        {
          "indexed": false,
          "internalType": "uint256",
          "name": "poolReturn",
          "type": "uint256"
        },
        {
          "indexed": false,
          "internalType": "uint256",
          "name": "liqFee",
          "type": "uint256"
        }
      ],
      "name": "LiquidateByBorderPrice",
      "type": "event"
    },
    {
      "anonymous": false,
      "inputs": [
        {
          "indexed": true,
          "internalType": "address",
          "name": "previousOwner",
          "type": "address"
        },
        {
          "indexed": true,
          "internalType": "address",
          "name": "newOwner",
          "type": "address"
        }
      ],
      "name": "OwnershipTransferred",
      "type": "event"
    },
    {
      "anonymous": false,
      "inputs": [
        {
          "indexed": true,
          "internalType": "address",
          "name": "user",
          "type": "address"
        },
        {
          "indexed": true,
          "internalType": "uint256",
          "name": "optionID",
          "type": "uint256"
        },
        {
          "indexed": false,
          "internalType": "uint256",
          "name": "amount",
          "type": "uint256"
        }
      ],
      "name": "Repay",
      "type": "event"
    },
    {
      "anonymous": false,
      "inputs": [
        {
          "indexed": true,
          "internalType": "address",
          "name": "user",
          "type": "address"
        },
        {
          "indexed": true,
          "internalType": "uint256",
          "name": "optionID",
          "type": "uint256"
        }
      ],
      "name": "Unlock",
      "type": "event"
    },
    {
      "inputs": [],
      "name": "COLLATERAL_DECIMALS",
      "outputs": [
        {
          "internalType": "uint256",
          "name": "",
          "type": "uint256"
        }
      ],
      "stateMutability": "view",
      "type": "function"
    },
    {
      "inputs": [],
      "name": "INTEREST_RATE_DECIMALS",
      "outputs": [
        {
          "internalType": "uint256",
          "name": "",
          "type": "uint256"
        }
      ],
      "stateMutability": "view",
      "type": "function"
    },
    {
      "inputs": [],
      "name": "LTV",
      "outputs": [
        {
          "internalType": "uint256",
          "name": "",
          "type": "uint256"
        }
      ],
      "stateMutability": "view",
      "type": "function"
    },
    {
      "inputs": [],
      "name": "LTV_DECIMALS",
      "outputs": [
        {
          "internalType": "uint256",
          "name": "",
          "type": "uint256"
        }
      ],
      "stateMutability": "view",
      "type": "function"
    },
    {
      "inputs": [],
      "name": "USDC",
      "outputs": [
        {
          "internalType": "contract IERC20",
          "name": "",
          "type": "address"
        }
      ],
      "stateMutability": "view",
      "type": "function"
    },
    {
      "inputs": [],
      "name": "accountManager",
      "outputs": [
        {
          "internalType": "contract IAccountManager",
          "name": "",
          "type": "address"
        }
      ],
      "stateMutability": "view",
      "type": "function"
    },
    {
      "inputs": [
        {
          "internalType": "uint256",
          "name": "id",
          "type": "uint256"
        }
      ],
      "name": "borderPrice",
      "outputs": [
        {
          "internalType": "uint256",
          "name": "price",
          "type": "uint256"
        }
      ],
      "stateMutability": "view",
      "type": "function"
    },
    {
      "inputs": [
        {
          "internalType": "address",
          "name": "",
          "type": "address"
        }
      ],
      "name": "borderPriceCoef",
      "outputs": [
        {
          "internalType": "uint256",
          "name": "",
          "type": "uint256"
        }
      ],
      "stateMutability": "view",
      "type": "function"
    },
    {
      "inputs": [
        {
          "internalType": "uint256",
          "name": "id",
          "type": "uint256"
        }
      ],
      "name": "borderPriceCoefByIndexToken",
      "outputs": [
        {
          "internalType": "uint256",
          "name": "priceCoef",
          "type": "uint256"
        }
      ],
      "stateMutability": "view",
      "type": "function"
    },
    {
      "inputs": [
        {
          "internalType": "uint256",
          "name": "id",
          "type": "uint256"
        },
        {
          "internalType": "uint256",
          "name": "amount",
          "type": "uint256"
        }
      ],
      "name": "borrow",
      "outputs": [],
      "stateMutability": "nonpayable",
      "type": "function"
    },
    {
      "inputs": [
        {
          "internalType": "uint256",
          "name": "",
          "type": "uint256"
        }
      ],
      "name": "borrowedByCollateral",
      "outputs": [
        {
          "internalType": "uint256",
          "name": "borrowed",
          "type": "uint256"
        },
        {
          "internalType": "uint256",
          "name": "newBorrowTimestamp",
          "type": "uint256"
        }
      ],
      "stateMutability": "view",
      "type": "function"
    },
    {
      "inputs": [
        {
          "internalType": "uint256",
          "name": "id",
          "type": "uint256"
        }
      ],
      "name": "calculateUpcomingFee",
      "outputs": [
        {
          "internalType": "uint256",
          "name": "upcomingFee",
          "type": "uint256"
        }
      ],
      "stateMutability": "view",
      "type": "function"
    },
    {
      "inputs": [],
      "name": "closeSlippage",
      "outputs": [
        {
          "internalType": "int256",
          "name": "",
          "type": "int256"
        }
      ],
      "stateMutability": "view",
      "type": "function"
    },
    {
      "inputs": [
        {
          "internalType": "uint256",
          "name": "id",
          "type": "uint256"
        }
      ],
      "name": "collateralInfo",
      "outputs": [
        {
          "internalType": "uint256",
          "name": "amount",
          "type": "uint256"
        },
        {
          "internalType": "uint256",
          "name": "price",
          "type": "uint256"
        }
      ],
      "stateMutability": "view",
      "type": "function"
    },
    {
      "inputs": [
        {
          "internalType": "uint256",
          "name": "",
          "type": "uint256"
        }
      ],
      "name": "collateralOwner",
      "outputs": [
        {
          "internalType": "address",
          "name": "",
          "type": "address"
        }
      ],
      "stateMutability": "view",
      "type": "function"
    },
    {
      "inputs": [
        {
          "internalType": "uint256",
          "name": "id",
          "type": "uint256"
        }
      ],
      "name": "collateralState",
      "outputs": [
        {
          "internalType": "bool",
          "name": "",
          "type": "bool"
        }
      ],
      "stateMutability": "view",
      "type": "function"
    },
    {
      "inputs": [
        {
          "internalType": "uint256",
          "name": "id",
          "type": "uint256"
        }
      ],
      "name": "collateralStateByBorderPrice",
      "outputs": [
        {
          "internalType": "bool",
          "name": "",
          "type": "bool"
        }
      ],
      "stateMutability": "view",
      "type": "function"
    },
    {
      "inputs": [],
      "name": "collateralToken",
      "outputs": [
        {
          "internalType": "contract IERC721",
          "name": "",
          "type": "address"
        }
      ],
      "stateMutability": "view",
      "type": "function"
    },
    {
      "inputs": [
        {
          "internalType": "uint256",
          "name": "id",
          "type": "uint256"
        }
      ],
      "name": "currentPrice",
      "outputs": [
        {
          "internalType": "uint256",
          "name": "",
          "type": "uint256"
        }
      ],
      "stateMutability": "view",
      "type": "function"
    },
    {
      "inputs": [
        {
          "internalType": "uint256",
          "name": "id",
          "type": "uint256"
        }
      ],
      "name": "currentTriggerPrice",
      "outputs": [
        {
          "internalType": "uint256",
          "name": "price",
          "type": "uint256"
        }
      ],
      "stateMutability": "view",
      "type": "function"
    },
    {
      "inputs": [
        {
          "internalType": "bytes32",
          "name": "positionKey",
          "type": "bytes32"
        },
        {
          "internalType": "bool",
          "name": "isExecuted",
          "type": "bool"
        },
        {
          "internalType": "bool",
          "name": "isIncrease",
          "type": "bool"
        }
      ],
      "name": "gmxPositionCallback",
      "outputs": [],
      "stateMutability": "nonpayable",
      "type": "function"
    },
    {
      "inputs": [],
      "name": "interestRate",
      "outputs": [
        {
          "internalType": "uint256",
          "name": "",
          "type": "uint256"
        }
      ],
      "stateMutability": "view",
      "type": "function"
    },
    {
      "inputs": [
        {
          "internalType": "uint256",
          "name": "id",
          "type": "uint256"
        }
      ],
      "name": "intrinsicValueOf",
      "outputs": [
        {
          "internalType": "uint256",
          "name": "delta",
          "type": "uint256"
        }
      ],
      "stateMutability": "view",
      "type": "function"
    },
    {
      "inputs": [
        {
          "internalType": "uint256",
          "name": "id",
          "type": "uint256"
        }
      ],
      "name": "isLong",
      "outputs": [
        {
          "internalType": "bool",
          "name": "",
          "type": "bool"
        }
      ],
      "stateMutability": "view",
      "type": "function"
    },
    {
      "inputs": [
        {
          "internalType": "uint256",
          "name": "id",
          "type": "uint256"
        }
      ],
      "name": "liqPrice",
      "outputs": [
        {
          "internalType": "uint256",
          "name": "price",
          "type": "uint256"
        }
      ],
      "stateMutability": "view",
      "type": "function"
    },
    {
      "inputs": [
        {
          "internalType": "uint256",
          "name": "id",
          "type": "uint256"
        }
      ],
      "name": "liquidate",
      "outputs": [],
      "stateMutability": "payable",
      "type": "function"
    },
    {
      "inputs": [
        {
          "internalType": "uint256",
          "name": "id",
          "type": "uint256"
        }
      ],
      "name": "liquidateByBorderPrice",
      "outputs": [],
      "stateMutability": "payable",
      "type": "function"
    },
    {
      "inputs": [
        {
          "internalType": "uint256",
          "name": "id",
          "type": "uint256"
        }
      ],
      "name": "lockCollateral",
      "outputs": [],
      "stateMutability": "nonpayable",
      "type": "function"
    },
    {
      "inputs": [
        {
          "internalType": "uint256",
          "name": "id",
          "type": "uint256"
        }
      ],
      "name": "maxBorrowLimit",
      "outputs": [
        {
          "internalType": "uint256",
          "name": "",
          "type": "uint256"
        }
      ],
      "stateMutability": "view",
      "type": "function"
    },
    {
      "inputs": [],
      "name": "minBorrowLimit",
      "outputs": [
        {
          "internalType": "uint256",
          "name": "",
          "type": "uint256"
        }
      ],
      "stateMutability": "view",
      "type": "function"
    },
    {
      "inputs": [],
      "name": "owner",
      "outputs": [
        {
          "internalType": "address",
          "name": "",
          "type": "address"
        }
      ],
      "stateMutability": "view",
      "type": "function"
    },
    {
      "inputs": [],
      "name": "pool",
      "outputs": [
        {
          "internalType": "contract IPoolDDL",
          "name": "",
          "type": "address"
        }
      ],
      "stateMutability": "view",
      "type": "function"
    },
    {
      "inputs": [
        {
          "internalType": "uint256",
          "name": "",
          "type": "uint256"
        }
      ],
      "name": "positionInfo",
      "outputs": [
        {
          "internalType": "address",
          "name": "indexToken",
          "type": "address"
        },
        {
          "internalType": "uint256",
          "name": "amount",
          "type": "uint256"
        },
        {
          "internalType": "uint256",
          "name": "openPrice",
          "type": "uint256"
        },
        {
          "internalType": "bool",
          "name": "isLong",
          "type": "bool"
        }
      ],
      "stateMutability": "view",
      "type": "function"
    },
    {
      "inputs": [],
      "name": "positionRouter",
      "outputs": [
        {
          "internalType": "contract IPositionRouter",
          "name": "",
          "type": "address"
        }
      ],
      "stateMutability": "view",
      "type": "function"
    },
    {
      "inputs": [],
      "name": "renounceOwnership",
      "outputs": [],
      "stateMutability": "nonpayable",
      "type": "function"
    },
    {
      "inputs": [
        {
          "internalType": "uint256",
          "name": "id",
          "type": "uint256"
        },
        {
          "internalType": "uint256",
          "name": "amount",
          "type": "uint256"
        }
      ],
      "name": "repay",
      "outputs": [],
      "stateMutability": "nonpayable",
      "type": "function"
    },
    {
      "inputs": [
        {
          "internalType": "uint256",
          "name": "value",
          "type": "uint256"
        },
        {
          "internalType": "address",
          "name": "indexToken",
          "type": "address"
        }
      ],
      "name": "setBorderPriceCoef",
      "outputs": [],
      "stateMutability": "nonpayable",
      "type": "function"
    },
    {
      "inputs": [
        {
          "internalType": "uint256",
          "name": "value",
          "type": "uint256"
        }
      ],
      "name": "setInterestRate",
      "outputs": [],
      "stateMutability": "nonpayable",
      "type": "function"
    },
    {
      "inputs": [
        {
          "internalType": "uint256",
          "name": "value",
          "type": "uint256"
        }
      ],
      "name": "setInterestRateDecimals",
      "outputs": [],
      "stateMutability": "nonpayable",
      "type": "function"
    },
    {
      "inputs": [
        {
          "internalType": "uint256",
          "name": "value",
          "type": "uint256"
        }
      ],
      "name": "setLTV",
      "outputs": [],
      "stateMutability": "nonpayable",
      "type": "function"
    },
    {
      "inputs": [
        {
          "internalType": "uint256",
          "name": "value",
          "type": "uint256"
        }
      ],
      "name": "setMinBorrowLimit",
      "outputs": [],
      "stateMutability": "nonpayable",
      "type": "function"
    },
    {
      "inputs": [
        {
          "internalType": "address",
          "name": "value",
          "type": "address"
        }
      ],
      "name": "setPool",
      "outputs": [],
      "stateMutability": "nonpayable",
      "type": "function"
    },
    {
      "inputs": [
        {
          "internalType": "address",
          "name": "newOwner",
          "type": "address"
        }
      ],
      "name": "transferOwnership",
      "outputs": [],
      "stateMutability": "nonpayable",
      "type": "function"
    },
    {
      "inputs": [
        {
          "internalType": "uint256",
          "name": "id",
          "type": "uint256"
        }
      ],
      "name": "unlock",
      "outputs": [],
      "stateMutability": "nonpayable",
      "type": "function"
    },
    {
      "inputs": [],
      "name": "vault",
      "outputs": [
        {
          "internalType": "contract IVault",
          "name": "",
          "type": "address"
        }
      ],
      "stateMutability": "view",
      "type": "function"
    }
  ],
  "transactionHash": "0xef7c79ac589d151cdecc17fe86bb58f48419c8d093d4812cc686aabe0737806b",
  "args": [
    "0xb87a436B93fFE9D75c5cFA7bAcFff96430b09868",
    "0x958A149a17d05D6182FbE131b83374712edB9b49",
    "0x489ee077994B6658eAfA855C308275EAd8097C4A",
    "0xd5261cBB1c2e64c7fD767FcaD8330624Fb4FDFCE",
    "0xFF970A61A04b1cA14834A43f5dE4533eBDDB5CC8",
    0,
    5000,
    6,
    [
      "0x82aF49447D8a07e3bd95BD0d56f35241523fBab1",
      "0x2f2a2543B76A4166549F7aaB2e75Bef0aefC5B0f",
      "0xf97f4df75117a78c1A5a0DBb814Af92458539FB4",
      "0xFa7F8980b0f1E64A2062791cc3b0871572f1F7f0"
    ],
    [
      0,
      0,
      0,
      0
    ]
  ],
  "numDeployments": 1,
  "solcInputHash": "6be0acf41c057b3a9a0e4b216e0636f3",
  "bytecode": "0x60806040526127106002556a0fbce2c2bf9562000000006005556c0c9f2c9cd04674edea40000000600655600a600f553480156200003c57600080fd5b50604051620049da380380620049da8339810160408190526200005f9162000274565b86868686866200006f33620001c6565b600380546001600160a01b038088166001600160a01b031992831617909255600480549287169290911691909117905560078390556001829055620000b681600a62000412565b600881905550505050505089600e60006101000a8154816001600160a01b0302191690836001600160a01b0316021790555088600c60006101000a8154816001600160a01b0302191690836001600160a01b0316021790555087600d60006101000a8154816001600160a01b0302191690836001600160a01b0316021790555060005b6004811015620001b55781816004811062000158576200015862000511565b60200201516012600085846004811062000176576200017662000511565b60200201516001600160a01b03166001600160a01b03168152602001908152602001600020819055508080620001ac90620004dd565b91505062000139565b505050505050505050505062000540565b600080546001600160a01b038381166001600160a01b0319831681178455604051919092169283917f8be0079c531659141344cd1fd0a4f28419497f9722a3daafe3b4186f6b6457e09190a35050565b600082601f8301126200022857600080fd5b6200023262000392565b8083856080860111156200024557600080fd5b60005b60048110156200026957815184526020938401939091019060010162000248565b509095945050505050565b6000806000806000806000806000806102008b8d0312156200029557600080fd5b8a51620002a28162000527565b60208c0151909a50620002b58162000527565b60408c0151909950620002c88162000527565b60608c0151909850620002db8162000527565b60808c0151909750620002ee8162000527565b8096505060a08b0151945060c08b0151935060e08b015192508b61011f8c01126200031857600080fd5b6200032262000392565b806101008d018e6101808f0111156200033a57600080fd5b60005b60048110156200036a578151620003548162000527565b845260209384019391909101906001016200033d565b50508093505050620003818c6101808d0162000216565b90509295989b9194979a5092959850565b604051608081016001600160401b0381118282101715620003c357634e487b7160e01b600052604160045260246000fd5b60405290565b600181815b808511156200040a578160001904821115620003ee57620003ee620004fb565b80851615620003fc57918102915b93841c9390800290620003ce565b509250929050565b600062000420838362000427565b9392505050565b6000826200043857506001620004d7565b816200044757506000620004d7565b81600181146200046057600281146200046b576200048b565b6001915050620004d7565b60ff8411156200047f576200047f620004fb565b50506001821b620004d7565b5060208310610133831016604e8410600b8410161715620004b0575081810a620004d7565b620004bc8383620003c9565b8060001904821115620004d357620004d3620004fb565b0290505b92915050565b6000600019821415620004f457620004f4620004fb565b5060010190565b634e487b7160e01b600052601160045260246000fd5b634e487b7160e01b600052603260045260246000fd5b6001600160a01b03811681146200053d57600080fd5b50565b61448a80620005506000396000f3fe6080604052600436106102725760003560e01c80637c3a00fd1161014f578063c215ac21116100c1578063e260d7471161007a578063e260d747146107fb578063e5bad72314610811578063edf3daec14610831578063f2fde38b14610851578063fbfa77cf14610871578063fecb63571461089157600080fd5b8063c215ac2114610718578063c37077091461075b578063c57610ae1461077b578063d88c69101461079b578063d8aed145146107bb578063e2233cbd146107db57600080fd5b80639d38d064116101135780639d38d0641461064e5780639e3aa5b114610664578063a226b48314610684578063b13de266146106a4578063b2016bd4146106c4578063b3b840df146106e457600080fd5b80637c3a00fd1461055f57806389097a6a1461057557806389a30271146105f05780638da5cb5b1461061057806391c2c4691461062e57600080fd5b80634de33fda116101e857806362965d8e116101ac57806362965d8e146104ae57806363ce2008146104c457806366234ffa146104e4578063715018a6146104fa578063798816981461050f5780637a3c4c171461053f57600080fd5b80634de33fda1461040e578063587a03c21461042e5780635f84f3021461044e5780636198e3391461046e57806361ef161f1461048e57600080fd5b806324a6665e1161023a57806324a6665e1461035a578063415f12401461038f57806341f6cf4e146103a25780634437152a146103b8578063484f1371146103d85780634ddde78d146103f857600080fd5b80630ecbcdab1461027757806316f0115b146102995780631753b408146102d65780631a42621614610311578063200549ca14610324575b600080fd5b34801561028357600080fd5b5061029761029236600461415f565b6108b1565b005b3480156102a557600080fd5b506009546102b9906001600160a01b031681565b6040516001600160a01b0390911681526020015b60405180910390f35b3480156102e257600080fd5b506103036102f1366004613fbd565b60126020526000908152604090205481565b6040519081526020016102cd565b61029761031f366004614116565b610d8e565b34801561033057600080fd5b506102b961033f366004614116565b600b602052600090815260409020546001600160a01b031681565b34801561036657600080fd5b5061037a610375366004614116565b610eb1565b604080519283526020830191909152016102cd565b61029761039d366004614116565b610f97565b3480156103ae57600080fd5b50610303600f5481565b3480156103c457600080fd5b506102976103d3366004613fbd565b6110b7565b3480156103e457600080fd5b506103036103f3366004614116565b6110e1565b34801561040457600080fd5b5061030360085481565b34801561041a57600080fd5b50610303610429366004614116565b61114a565b34801561043a57600080fd5b50610297610449366004614116565b6111b0565b34801561045a57600080fd5b50610297610469366004614116565b6111bd565b34801561047a57600080fd5b50610297610489366004614116565b6111ca565b34801561049a57600080fd5b50600e546102b9906001600160a01b031681565b3480156104ba57600080fd5b5061030360015481565b3480156104d057600080fd5b506102976104df36600461412f565b6112bf565b3480156104f057600080fd5b5061030360065481565b34801561050657600080fd5b506102976112e1565b34801561051b57600080fd5b5061052f61052a366004614116565b6112f5565b60405190151581526020016102cd565b34801561054b57600080fd5b5061030361055a366004614116565b611339565b34801561056b57600080fd5b5061030360055481565b34801561058157600080fd5b506105c4610590366004614116565b60106020526000908152604090208054600182015460028301546003909301546001600160a01b0390921692909160ff1684565b604080516001600160a01b039095168552602085019390935291830152151560608201526080016102cd565b3480156105fc57600080fd5b506004546102b9906001600160a01b031681565b34801561061c57600080fd5b506000546001600160a01b03166102b9565b34801561063a57600080fd5b50600c546102b9906001600160a01b031681565b34801561065a57600080fd5b5061030360025481565b34801561067057600080fd5b5061030361067f366004614116565b61148c565b34801561069057600080fd5b5061052f61069f366004614116565b6114b7565b3480156106b057600080fd5b506102976106bf366004614116565b611534565b3480156106d057600080fd5b506003546102b9906001600160a01b031681565b3480156106f057600080fd5b5061037a6106ff366004614116565b600a602052600090815260409020805460019091015482565b34801561072457600080fd5b50610303610733366004614116565b6000908152601060209081526040808320546001600160a01b03168352601290915290205490565b34801561076757600080fd5b50610297610776366004614116565b611583565b34801561078757600080fd5b50610303610796366004614116565b611590565b3480156107a757600080fd5b506103036107b6366004614116565b6115eb565b3480156107c757600080fd5b506102976107d636600461415f565b6116db565b3480156107e757600080fd5b506102976107f6366004614116565b6119d0565b34801561080757600080fd5b5061030360075481565b34801561081d57600080fd5b5061030361082c366004614116565b611b80565b34801561083d57600080fd5b5061029761084c36600461405b565b611c37565b34801561085d57600080fd5b5061029761086c366004613fbd565b612454565b34801561087d57600080fd5b50600d546102b9906001600160a01b031681565b34801561089d57600080fd5b5061052f6108ac366004614116565b6124ca565b600960009054906101000a90046001600160a01b03166001600160a01b031663ae3050e16040518163ffffffff1660e01b815260040160206040518083038186803b1580156108ff57600080fd5b505afa158015610913573d6000803e3d6000fd5b505050506040513d601f19601f820116820180604052508101906109379190613ff7565b6109785760405162461bcd60e51b815260206004820152600d60248201526c1c185d5cd95119511953195b99609a1b60448201526064015b60405180910390fd5b6000828152600a60205260408120906109908461148c565b90506000600960009054906101000a90046001600160a01b03166001600160a01b03166312b583496040518163ffffffff1660e01b815260040160206040518083038186803b1580156109e257600080fd5b505afa1580156109f6573d6000803e3d6000fd5b505050506040513d601f19601f82011682018060405250810190610a1a9190614042565b9050600754841015610a6e5760405162461bcd60e51b815260206004820152601a60248201527f616d6f756e74206c657373206d696e426f72726f774c696d6974000000000000604482015260640161096f565b82548290610a7c9086614356565b1115610abe5760405162461bcd60e51b8152602060048201526011602482015270626f72726f7720697320746f6f2062696760781b604482015260640161096f565b6000858152600b60205260409020546001600160a01b03163314610b1c5760405162461bcd60e51b81526020600482015260156024820152743cb7ba9030b932903737ba103a34329037bbb732b960591b604482015260640161096f565b80841115610b7a5760405162461bcd60e51b815260206004820152602560248201527f7468657265206973206e6f7420656e6f756768206d6f6e657920696e20746865604482015264081c1bdbdb60da1b606482015260840161096f565b610b83856124ec565b610b8c856114b7565b15610bec57610b9a8561114a565b610ba386611339565b11610be75760405162461bcd60e51b815260206004820152601460248201527374686520707269636520697320746f6f206c6f7760601b604482015260640161096f565b610c43565b610bf58561114a565b610bfe86611339565b10610c435760405162461bcd60e51b81526020600482015260156024820152740e8d0ca40e0e4d2c6ca40d2e640e8dede40d0d2ced605b1b604482015260640161096f565b6000610c4e866110e1565b9050604051806040016040528082866000015488610c6c9190614356565b610c769190614356565b8152426020918201526000888152600a825260409020825181559101516001909101556009546001600160a01b0316632bc355ca610cb48388614356565b6040518263ffffffff1660e01b8152600401610cd291815260200190565b600060405180830381600087803b158015610cec57600080fd5b505af1158015610d00573d6000803e3d6000fd5b50506009546000898152600b602052604090819020549051633419e74d60e21b81526001600160a01b03928316945063d0679d349350610d48929091169089906004016142d4565b600060405180830381600087803b158015610d6257600080fd5b505af1158015610d76573d6000803e3d6000fd5b50505050610d86338787426125a8565b505050505050565b610d97816124ca565b610dd35760405162461bcd60e51b815260206004820152600d60248201526c696e76616c696420707269636560981b604482015260640161096f565b600e60009054906101000a90046001600160a01b03166001600160a01b03166363ae21036040518163ffffffff1660e01b815260040160206040518083038186803b158015610e2157600080fd5b505afa158015610e35573d6000803e3d6000fd5b505050506040513d601f19601f82011682018060405250810190610e599190614042565b341015610ea35760405162461bcd60e51b81526020600482015260186024820152771b5a5b915e1958dd5d1a5bdb919959481d1bdbc81cdb585b60421b604482015260640161096f565b610eae816001612609565b50565b600c5460405163eb02c30160e01b8152600481018390526000918291829182916001600160a01b039091169063eb02c301906024016101006040518083038186803b158015610eff57600080fd5b505afa158015610f13573d6000803e3d6000fd5b505050506040513d601f19601f82011682018060405250810190610f379190614181565b50505050509250509150620f42406c0c9f2c9cd04674edea40000000610f5d919061436e565b610f67908361436e565b610f826305f5e1006c0c9f2c9cd04674edea4000000061436e565b610f8c908361436e565b935093505050915091565b610fa0816112f5565b610fdc5760405162461bcd60e51b815260206004820152600d60248201526c696e76616c696420707269636560981b604482015260640161096f565b600e60009054906101000a90046001600160a01b03166001600160a01b03166363ae21036040518163ffffffff1660e01b815260040160206040518083038186803b15801561102a57600080fd5b505afa15801561103e573d6000803e3d6000fd5b505050506040513d601f19601f820116820180604052508101906110629190614042565b3410156110ac5760405162461bcd60e51b81526020600482015260186024820152771b5a5b915e1958dd5d1a5bdb919959481d1bdbc81cdb585b60421b604482015260640161096f565b610eae816000612609565b6110bf61289d565b600980546001600160a01b0319166001600160a01b0392909216919091179055565b6000818152600a6020526040812060018101548290603c9061110390426143ee565b61110d919061436e565b9050600654600554826111209190614390565b835461112e9060649061436e565b6111389190614390565b611142919061436e565b949350505050565b60008061115683610eb1565b6000858152601060209081526040808320546001600160a01b0316835260129091529020549092509050611189846114b7565b156111a457606461119a8282614356565b6111389084614390565b606461119a82826143ee565b6111b861289d565b600655565b6111c561289d565b600555565b6000818152600a6020526040902054156112175760405162461bcd60e51b815260206004820152600e60248201526d1b1bd85b881a5cc81b1bd8dad95960921b604482015260640161096f565b6003546000828152600b6020526040908190205490516323b872dd60e01b81526001600160a01b03928316926323b872dd9261125d9230929091169086906004016141eb565b600060405180830381600087803b15801561127757600080fd5b505af115801561128b573d6000803e3d6000fd5b50506040518392503391507f6381d9813cabeb57471b5a7e05078e64845ccdb563146a6911d536f24ce960f190600090a350565b6112c761289d565b6001600160a01b0316600090815260126020526040902055565b6112e961289d565b6112f360006128f7565b565b6000611300826114b7565b1561131f5761130e826115eb565b61131783611339565b111592915050565b611328826115eb565b61133183611339565b101592915050565b6000818152601060209081526040808320815160808101835281546001600160a01b031681526001820154938101939093526002810154918301919091526003015460ff161515606082015261138e836114b7565b1561143e576113ae6305f5e1006c0c9f2c9cd04674edea4000000061436e565b600d548251604051637092736960e11b81526001600160a01b03918216600482015291169063e124e6d2906024015b60206040518083038186803b1580156113f557600080fd5b505afa158015611409573d6000803e3d6000fd5b505050506040513d601f19601f8201168201806040525081019061142d9190614042565b611437919061436e565b9392505050565b6114596305f5e1006c0c9f2c9cd04674edea4000000061436e565b600d5482516040516340d3096b60e11b81526001600160a01b0391821660048201529116906381a612d6906024016113dd565b600060015460025461149d84611b80565b6114a7919061436e565b6114b19190614390565b92915050565b600c5460405163a226b48360e01b8152600481018390526000916001600160a01b03169063a226b4839060240160206040518083038186803b1580156114fc57600080fd5b505afa158015611510573d6000803e3d6000fd5b505050506040513d601f19601f820116820180604052508101906114b19190613ff7565b61153c61289d565b611f4081111561157e5760405162461bcd60e51b815260206004820152600d60248201526c696e76616c69642076616c756560981b604482015260640161096f565b600155565b61158b61289d565b600755565b600061159b826114b7565b156115ca576115a9826115eb565b6115b28361114a565b11156115c1576114b18261114a565b6114b1826115eb565b6115d3826115eb565b6115dc8361114a565b10156115c1576114b18261114a565b6000818152600a60205260408120818061160485610eb1565b91509150611611856114b7565b1561167d57606481611627846305f5e100614390565b611631919061436e565b845461164090620f4240614390565b61164a919061436e565b611655906078614390565b61165f919061436e565b61166a906064614390565b6116749082614356565b95945050505050565b60648161168e846305f5e100614390565b611698919061436e565b84546116a790620f4240614390565b6116b1919061436e565b6116bc906078614390565b6116c6919061436e565b6116d1906064614390565b61167490826143ee565b6000828152600a60205260409020546117285760405162461bcd60e51b815260206004820152600f60248201526e1bdc1d1a5bdb881c995919595b5959608a1b604482015260640161096f565b6000611733836110e1565b6000848152600a6020526040902054909150611750908290614356565b8211156117935760405162461bcd60e51b8152602060048201526011602482015270616d6f756e7420697320746f6f2062696760781b604482015260640161096f565b6000838152600b60205260409020546001600160a01b031633146117b657600080fd5b6000838152600a602052604081205483906117d2908490614356565b6117dc91906143ee565b6009549091506001600160a01b0316631b45a68d6117fa84866143ee565b6040518263ffffffff1660e01b815260040161181891815260200190565b600060405180830381600087803b15801561183257600080fd5b505af1158015611846573d6000803e3d6000fd5b505060408051808201825284815242602080830191825260008a8152600a825284812093518455915160019093019290925560048054600b909352908390205492516323b872dd60e01b81526001600160a01b0392831695506323b872dd94506118b8939092169130918991016141eb565b602060405180830381600087803b1580156118d257600080fd5b505af11580156118e6573d6000803e3d6000fd5b505050506040513d601f19601f8201168201806040525081019061190a9190613ff7565b506004805460095460405163a9059cbb60e01b81526001600160a01b039283169363a9059cbb9361193f9316918891016142d4565b602060405180830381600087803b15801561195957600080fd5b505af115801561196d573d6000803e3d6000fd5b505050506040513d601f19601f820116820180604052508101906119919190613ff7565b50604051838152849033907f77c6871227e5d2dec8dadd5354f78453203e22e669cd0ec4c19d9a8c5edb31d0906020015b60405180910390a350505050565b600960009054906101000a90046001600160a01b03166001600160a01b031663ae3050e16040518163ffffffff1660e01b815260040160206040518083038186803b158015611a1e57600080fd5b505afa158015611a32573d6000803e3d6000fd5b505050506040513d601f19601f82011682018060405250810190611a569190613ff7565b611a925760405162461bcd60e51b815260206004820152600d60248201526c1c185d5cd95119511953195b99609a1b604482015260640161096f565b6003546040516331a9108f60e11b81526004810183905233916001600160a01b031690636352211e9060240160206040518083038186803b158015611ad657600080fd5b505afa158015611aea573d6000803e3d6000fd5b505050506040513d601f19601f82011682018060405250810190611b0e9190613fda565b6001600160a01b031614611b545760405162461bcd60e51b815260206004820152600d60248201526c3cb7ba903737ba1037bbb732b960991b604482015260640161096f565b6000818152600b6020526040902080546001600160a01b03191633908117909155610eae908290612947565b600c546040516332d53b1760e01b815260048101839052600091829182916001600160a01b0316906332d53b1790602401604080518083038186803b158015611bc857600080fd5b505afa158015611bdc573d6000803e3d6000fd5b505050506040513d601f19601f82011682018060405250810190611c009190614014565b9092509050611c1f620f42406c0c9f2c9cd04674edea4000000061436e565b611c29908261436e565b905081611437576000611142565b600e546001600160a01b03163314611c915760405162461bcd60e51b815260206004820181905260248201527f6d73672e73656e646572206973206e6f7420706f736974696f6e526f75746572604482015260640161096f565b6000838152601160205260409020600101546001600160a01b0316801561244e5760008481526011602081815260408084208054808652600a8452828620548a87529490935260028101546003909101546009549251631b45a68d60e01b815260048101869052939493919290916001600160a01b0390911690631b45a68d90602401600060405180830381600087803b158015611d2e57600080fd5b505af1158015611d42573d6000803e3d6000fd5b50505060008a81526011602052604090206004015460ff16159050611fe2576004805460095460405163a9059cbb60e01b81526001600160a01b039283169363a9059cbb93611d959316918891016142d4565b602060405180830381600087803b158015611daf57600080fd5b505af1158015611dc3573d6000803e3d6000fd5b505050506040513d601f19601f82011682018060405250810190611de79190613ff7565b506004546000858152600b60205260409020546001600160a01b039182169163a9059cbb91166064611e1a87600a614390565b611e24919061436e565b611e2e9087614356565b611e3890866143ee565b6040518363ffffffff1660e01b8152600401611e559291906142d4565b602060405180830381600087803b158015611e6f57600080fd5b505af1158015611e83573d6000803e3d6000fd5b505050506040513d601f19601f82011682018060405250810190611ea79190613ff7565b506004546001600160a01b031663a9059cbb876064611ec787600a614390565b611ed1919061436e565b6040518363ffffffff1660e01b8152600401611eee9291906142d4565b602060405180830381600087803b158015611f0857600080fd5b505af1158015611f1c573d6000803e3d6000fd5b505050506040513d601f19601f82011682018060405250810190611f409190613ff7565b506000848152600b602052604090205484906001600160a01b03167fad7bde0b40220dccef6b876cf7594499d11d9f168fbd034338597c691a7e943d6064611f8987600a614390565b611f93919061436e565b611f9d9087614356565b611fa790866143ee565b866064611fb582600a614390565b611fbf919061436e565b6040805193845260208401929092529082015260600160405180910390a36123d0565b8281111561222057611ff483826143ee565b6004546009549196506001600160a01b039081169163a9059cbb9116606461201d89605a614390565b612027919061436e565b6120319087614356565b6040518363ffffffff1660e01b815260040161204e9291906142d4565b602060405180830381600087803b15801561206857600080fd5b505af115801561207c573d6000803e3d6000fd5b505050506040513d601f19601f820116820180604052508101906120a09190613ff7565b506004546001600160a01b031663a9059cbb8760646120c089600a614390565b6120ca919061436e565b6040518363ffffffff1660e01b81526004016120e79291906142d4565b602060405180830381600087803b15801561210157600080fd5b505af1158015612115573d6000803e3d6000fd5b505050506040513d601f19601f820116820180604052508101906121399190613ff7565b506004546000858152600b60205260409020546001600160a01b039182169163a9059cbb9116606461216c89600a614390565b612176919061436e565b60646121838a605a614390565b61218d919061436e565b6121979088614356565b6121a190876143ee565b6121ab91906143ee565b6040518363ffffffff1660e01b81526004016121c89291906142d4565b602060405180830381600087803b1580156121e257600080fd5b505af11580156121f6573d6000803e3d6000fd5b505050506040513d601f19601f8201168201806040525081019061221a9190613ff7565b50612347565b6004805460095460405163a9059cbb60e01b81526001600160a01b039283169363a9059cbb936122549316918891016142d4565b602060405180830381600087803b15801561226e57600080fd5b505af1158015612282573d6000803e3d6000fd5b505050506040513d601f19601f820116820180604052508101906122a69190613ff7565b506004546000858152600b60205260409020546001600160a01b039182169163a9059cbb91166122d686866143ee565b6040518363ffffffff1660e01b81526004016122f39291906142d4565b602060405180830381600087803b15801561230d57600080fd5b505af1158015612321573d6000803e3d6000fd5b505050506040513d601f19601f820116820180604052508101906123459190613ff7565b505b6000848152600b602052604090205484906001600160a01b03167f4e91025e01b2329df1ec1067d27aafec4d1c41f682ccd794dee04321e0b1e8dc8560646123908a605a614390565b61239a919061436e565b60646123a78b600a614390565b6123b1919061436e565b6040805193845260208401929092529082015260600160405180910390a35b6003546000858152600b6020526040908190205490516323b872dd60e01b81526001600160a01b03928316926323b872dd926124169230929091169089906004016141eb565b600060405180830381600087803b15801561243057600080fd5b505af1158015612444573d6000803e3d6000fd5b5050505050505050505b50505050565b61245c61289d565b6001600160a01b0381166124c15760405162461bcd60e51b815260206004820152602660248201527f4f776e61626c653a206e6577206f776e657220697320746865207a65726f206160448201526564647265737360d01b606482015260840161096f565b610eae816128f7565b60006124d5826114b7565b156124e35761130e8261114a565b6113288261114a565b600c546040516332d53b1760e01b8152600481018390526000916001600160a01b0316906332d53b1790602401604080518083038186803b15801561253057600080fd5b505afa158015612544573d6000803e3d6000fd5b505050506040513d601f19601f820116820180604052508101906125689190614014565b509050806125a45760405162461bcd60e51b81526020600482015260096024820152681b9bc81c1c9bd99a5d60ba1b604482015260640161096f565b5050565b6000838152601060209081526040918290205482518581526001600160a01b0391821692810192909252429282019290925284918616907f1fdbee5d1bd2901710e8945918b1a052ce67662661a2ccbf68420e4e430f8dab906060016119c2565b600c5460405163e6e6dd2f60e01b81526004810184905260009182916001600160a01b039091169063e6e6dd2f9060240160a060405180830381600087803b15801561265457600080fd5b505af1158015612668573d6000803e3d6000fd5b505050506040513d601f19601f8201168201806040525081019061268c919061409d565b50506000878152601060209081526040808320815160808101835281546001600160a01b031681526001820154938101939093526002810154918301919091526003015460ff1615156060820152929550909350909150806126ed87612bc5565b915091506000806126fd89612d6f565b91509150866001600160a01b0316636f7e8799343085896000015186898c606001518c6000600e60009054906101000a90046001600160a01b03166001600160a01b03166363ae21036040518163ffffffff1660e01b815260040160206040518083038186803b15801561277057600080fd5b505afa158015612784573d6000803e3d6000fd5b505050506040513d601f19601f820116820180604052508101906127a89190614042565b6000306040518d63ffffffff1660e01b81526004016127d19b9a9998979695949392919061420f565b6000604051808303818588803b1580156127ea57600080fd5b505af11580156127fe573d6000803e3d6000fd5b50505050506000612831888460008151811061281c5761281c61441b565b6020026020010151886000015185888c612fba565b905080156128855760018351111561288557612882836000815181106128595761285961441b565b6020026020010151846001815181106128745761287461441b565b602002602001015183613077565b90505b612891888b8b84613804565b50505050505050505050565b6000546001600160a01b031633146112f35760405162461bcd60e51b815260206004820181905260248201527f4f776e61626c653a2063616c6c6572206973206e6f7420746865206f776e6572604482015260640161096f565b600080546001600160a01b038381166001600160a01b0319831681178455604051919092169283917f8be0079c531659141344cd1fd0a4f28419497f9722a3daafe3b4186f6b6457e09190a35050565b600c5460405163e6e6dd2f60e01b81526004810184905260009182916001600160a01b039091169063e6e6dd2f9060240160a060405180830381600087803b15801561299257600080fd5b505af11580156129a6573d6000803e3d6000fd5b505050506040513d601f19601f820116820180604052508101906129ca919061409d565b5050600c54604051630b7d321160e41b81529395509093506000926001600160a01b03909116915063b7d3211090612a069086906004016142ed565b602060405180830381600087803b158015612a2057600080fd5b505af1158015612a34573d6000803e3d6000fd5b505050506040513d601f19601f82011682018060405250810190612a589190613fda565b600c5460405163eb02c30160e01b81526004810188905291925060009182916001600160a01b03169063eb02c301906024016101006040518083038186803b158015612aa357600080fd5b505afa158015612ab7573d6000803e3d6000fd5b505050506040513d601f19601f82011682018060405250810190612adb9190614181565b50506003546040516323b872dd60e01b8152969850939650506001600160a01b03909216936323b872dd9350612b1b925033915030908c906004016141eb565b600060405180830381600087803b158015612b3557600080fd5b505af1158015612b49573d6000803e3d6000fd5b5050604080516080810182526001600160a01b03968716815260208082019687528183019586529715156060820190815260009b8c5260109098529920985189546001600160a01b0319169516949094178855509051600187015551600286015550516003909301805460ff1916931515939093179092555050565b600c5460405163eb02c30160e01b81526004810183905260009182916001600160a01b039091169063eb02c301906024016101006040518083038186803b158015612c0f57600080fd5b505afa158015612c23573d6000803e3d6000fd5b505050506040513d601f19601f82011682018060405250810190612c479190614181565b5095965050508415159350612c9a925050505760405162461bcd60e51b81526020600482015260156024820152741c1bdcda5d1a5bdb881cda5e99481a5cc81b9d5b1b605a1b604482015260640161096f565b60008381526010602052604090206003015460ff16612cc757600f54612cc2906103e8614315565b612cd6565b600f54612cd6906103e86143af565b600c54604051637a3c4c1760e01b8152600481018690526103e8916001600160a01b031690637a3c4c179060240160206040518083038186803b158015612d1c57600080fd5b505afa158015612d30573d6000803e3d6000fd5b505050506040513d601f19601f82011682018060405250810190612d549190614042565b612d5e919061436e565b612d689190614390565b9150915091565b600c5460405163eb02c30160e01b81526004810183905260609160009182916001600160a01b03169063eb02c301906024016101006040518083038186803b158015612dba57600080fd5b505afa158015612dce573d6000803e3d6000fd5b505050506040513d601f19601f82011682018060405250810190612df29190614181565b5050600c546040516332d53b1760e01b8152600481018c90529597506000965086956001600160a01b0390911694506332d53b1793506024019150612e349050565b604080518083038186803b158015612e4b57600080fd5b505afa158015612e5f573d6000803e3d6000fd5b505050506040513d601f19601f82011682018060405250810190612e839190614014565b9150915081612e925780612e94565b825b60008781526010602052604090206003015490945060ff1615612f5157604080516002808252606082018352909160208301908036833750505060008781526010602052604081205482519297506001600160a01b031691879190612efb57612efb61441b565b6001600160a01b039283166020918202929092010152600454865191169086906001908110612f2c57612f2c61441b565b60200260200101906001600160a01b031690816001600160a01b031681525050612fb2565b6040805160018082528183019092529060208083019080368337505060045482519297506001600160a01b031691879150600090612f9157612f9161441b565b60200260200101906001600160a01b031690816001600160a01b0316815250505b505050915091565b6000806000612fcd8989898989896139a0565b9092509050811561306657600d54604051634c4ce68160e11b81526000916001600160a01b031690639899cd029061300b908c9086906004016142d4565b60206040518083038186803b15801561302357600080fd5b505afa158015613037573d6000803e3d6000fd5b505050506040513d601f19601f8201168201806040525081019061305b9190614042565b935061306d92505050565b6000925050505b9695505050505050565b600d546040516340d3096b60e11b81526001600160a01b03858116600483015260009283929116906381a612d69060240160206040518083038186803b1580156130c057600080fd5b505afa1580156130d4573d6000803e3d6000fd5b505050506040513d601f19601f820116820180604052508101906130f89190614042565b600d54604051637092736960e11b81526001600160a01b0387811660048301529293506000929091169063e124e6d29060240160206040518083038186803b15801561314357600080fd5b505afa158015613157573d6000803e3d6000fd5b505050506040513d601f19601f8201168201806040525081019061317b9190614042565b905060008161318a8487614390565b613194919061436e565b600d54604051634215287360e01b8152600481018390526001600160a01b038a81166024830152898116604483015292935091169063421528739060640160206040518083038186803b1580156131ea57600080fd5b505afa1580156131fe573d6000803e3d6000fd5b505050506040513d601f19601f820116820180604052508101906132229190614042565b905060006c0c9f2c9cd04674edea4000000061323e8588614390565b613248919061436e565b600d546040805163f5b91b7b60e01b815290519293506001600160a01b039091169163421528739184918c91859163f5b91b7b91600480820192602092909190829003018186803b15801561329c57600080fd5b505afa1580156132b0573d6000803e3d6000fd5b505050506040513d601f19601f820116820180604052508101906132d49190613fda565b6040516001600160e01b031960e086901b16815260048101939093526001600160a01b03918216602484015216604482015260640160206040518083038186803b15801561332157600080fd5b505afa158015613335573d6000803e3d6000fd5b505050506040513d601f19601f820116820180604052508101906133599190614042565b600d546040516342b60b0360e01b81526001600160a01b038b81166004830152929350600092909116906342b60b039060240160206040518083038186803b1580156133a457600080fd5b505afa1580156133b8573d6000803e3d6000fd5b505050506040513d601f19601f820116820180604052508101906133dc9190613ff7565b80156134605750600d546040516342b60b0360e01b81526001600160a01b038a81166004830152909116906342b60b039060240160206040518083038186803b15801561342857600080fd5b505afa15801561343c573d6000803e3d6000fd5b505050506040513d601f19601f820116820180604052508101906134609190613ff7565b9050600080826134f557600d60009054906101000a90046001600160a01b03166001600160a01b031663a22f23926040518163ffffffff1660e01b815260040160206040518083038186803b1580156134b857600080fd5b505afa1580156134cc573d6000803e3d6000fd5b505050506040513d601f19601f820116820180604052508101906134f09190614042565b61357b565b600d60009054906101000a90046001600160a01b03166001600160a01b031663df73a2676040518163ffffffff1660e01b815260040160206040518083038186803b15801561354357600080fd5b505afa158015613557573d6000803e3d6000fd5b505050506040513d601f19601f8201168201806040525081019061357b9190614042565b905060008361360f57600d60009054906101000a90046001600160a01b03166001600160a01b0316637a210a2b6040518163ffffffff1660e01b815260040160206040518083038186803b1580156135d257600080fd5b505afa1580156135e6573d6000803e3d6000fd5b505050506040513d601f19601f8201168201806040525081019061360a9190614042565b613695565b600d60009054906101000a90046001600160a01b03166001600160a01b03166310eb56c26040518163ffffffff1660e01b815260040160206040518083038186803b15801561365d57600080fd5b505afa158015613671573d6000803e3d6000fd5b505050506040513d601f19601f820116820180604052508101906136959190614042565b600d5460405163c7e074c360e01b81526001600160a01b038f81166004830152602482018990526044820186905260648201849052600160848301529293506000929091169063c7e074c39060a40160206040518083038186803b1580156136fc57600080fd5b505afa158015613710573d6000803e3d6000fd5b505050506040513d601f19601f820116820180604052508101906137349190614042565b600d5460405163c7e074c360e01b81526001600160a01b038f81166004830152602482018a905260448201879052606482018690526000608483018190529394509091169063c7e074c39060a40160206040518083038186803b15801561379a57600080fd5b505afa1580156137ae573d6000803e3d6000fd5b505050506040513d601f19601f820116820180604052508101906137d29190614042565b90508082116137e157806137e3565b815b94505050505060006137f58583613bb5565b9b9a5050505050505050505050565b600e5460405163fa44457760e01b81526001600160a01b038681166004830152600092169063fa44457790602401602060405180830381600087803b15801561384c57600080fd5b505af1158015613860573d6000803e3d6000fd5b505050506040513d601f19601f820116820180604052508101906138849190614042565b600e5460405163317c51ff60e11b81529192506000916001600160a01b03909116906362f8a3fe906138bc90899086906004016142d4565b60206040518083038186803b1580156138d457600080fd5b505afa1580156138e8573d6000803e3d6000fd5b505050506040513d601f19601f8201168201806040525081019061390c9190614042565b9050600061391986611b80565b6040805160a081018252978852336020808a0191825289830197885260608a0193845297151560808a019081526000958652601190985293209651875591516001870180546001600160a01b0319166001600160a01b03909216919091179055509151600285015550516003830155516004909101805460ff191691151591909117905550565b600d54604051634a3f088d60e01b81526001600160a01b0388811660048301528781166024830152868116604483015283151560648301526000928392839283928392839283921690634a3f088d906084016101006040518083038186803b158015613a0b57600080fd5b505afa158015613a1f573d6000803e3d6000fd5b505050506040513d601f19601f82011682018060405250810190613a439190614181565b975050505094509450945094506000613a5e8d8b8886613cd2565b600d54604051635c07eaab60e01b81526001600160a01b038f81166004830152602482018a9052604482018890528c151560648301526084820186905292935060009283921690635c07eaab9060a401604080518083038186803b158015613ac557600080fd5b505afa158015613ad9573d6000803e3d6000fd5b505050506040513d601f19601f82011682018060405250810190613afd9190614014565b9092509050600088613b0f838f614390565b613b19919061436e565b90506000838015613b2a5750600082115b15613b325750805b83158015613b405750600082115b15613b5257613b4f828a6143ee565b98505b8e15613b7157613b628f82614356565b9050613b6e8f8a6143ee565b98505b8d8a1415613b8657613b838982614356565b90505b8085811115613b9c57613b9986836143ee565b90505b909b509950505050505050505050965096945050505050565b600080600d60009054906101000a90046001600160a01b03166001600160a01b031663126082cf6040518163ffffffff1660e01b8152600401602060405180830381600087803b158015613c0857600080fd5b505af1158015613c1c573d6000803e3d6000fd5b505050506040513d601f19601f82011682018060405250810190613c409190614042565b600d546040805163126082cf60e01b8152905186926001600160a01b03169163126082cf9160048083019260209291908290030181600087803b158015613c8657600080fd5b505af1158015613c9a573d6000803e3d6000fd5b505050506040513d601f19601f82011682018060405250810190613cbe9190614042565b613cc891906143ee565b6111389086614390565b600080613cde85613d86565b600d54604051633316e05160e21b81526001600160a01b03898116600483015260248201889052604482018790529293506000929091169063cc5b81449060640160206040518083038186803b158015613d3757600080fd5b505afa158015613d4b573d6000803e3d6000fd5b505050506040513d601f19601f82011682018060405250810190613d6f9190614042565b9050613d7b8183614356565b979650505050505050565b600081613d9557506000919050565b600d546040805163126082cf60e01b815290516000926001600160a01b03169163126082cf91600480830192602092919082900301818787803b158015613ddb57600080fd5b505af1158015613def573d6000803e3d6000fd5b505050506040513d601f19601f82011682018060405250810190613e139190614042565b600d60009054906101000a90046001600160a01b03166001600160a01b03166312d43a516040518163ffffffff1660e01b815260040160206040518083038186803b158015613e6157600080fd5b505afa158015613e75573d6000803e3d6000fd5b505050506040513d601f19601f82011682018060405250810190613e999190613fda565b6001600160a01b031663318bc6896040518163ffffffff1660e01b8152600401602060405180830381600087803b158015613ed357600080fd5b505af1158015613ee7573d6000803e3d6000fd5b505050506040513d601f19601f82011682018060405250810190613f0b9190614042565b600d60009054906101000a90046001600160a01b03166001600160a01b031663126082cf6040518163ffffffff1660e01b8152600401602060405180830381600087803b158015613f5b57600080fd5b505af1158015613f6f573d6000803e3d6000fd5b505050506040513d601f19601f82011682018060405250810190613f939190614042565b613f9d91906143ee565b613fa79085614390565b613fb1919061436e565b905061143781846143ee565b600060208284031215613fcf57600080fd5b813561143781614431565b600060208284031215613fec57600080fd5b815161143781614431565b60006020828403121561400957600080fd5b815161143781614446565b6000806040838503121561402757600080fd5b825161403281614446565b6020939093015192949293505050565b60006020828403121561405457600080fd5b5051919050565b60008060006060848603121561407057600080fd5b83359250602084013561408281614446565b9150604084013561409281614446565b809150509250925092565b600080600080600060a086880312156140b557600080fd5b8551600881106140c457600080fd5b60208701519095506140d581614431565b60408701519094506140e681614446565b60608701519093506140f781614431565b608087015190925061410881614431565b809150509295509295909350565b60006020828403121561412857600080fd5b5035919050565b6000806040838503121561414257600080fd5b82359150602083013561415481614431565b809150509250929050565b6000806040838503121561417257600080fd5b50508035926020909101359150565b600080600080600080600080610100898b03121561419e57600080fd5b885197506020890151965060408901519550606089015194506080890151935060a0890151925060c08901516141d381614446565b8092505060e089015190509295985092959890939650565b6001600160a01b039384168152919092166020820152604081019190915260600190565b6001600160a01b038c8116825261016060208084018290528d51918401829052600092916101808501918f01845b8281101561425d578151851684526020938401939091019060010161423d565b5050506001600160a01b038d16604085015291506142789050565b89606083015288608083015261429260a083018915159052565b8660c08301528560e0830152846101008301526142b461012083018515159052565b6001600160a01b0383166101408301529c9b505050505050505050505050565b6001600160a01b03929092168252602082015260400190565b602081016008831061430f57634e487b7160e01b600052602160045260246000fd5b91905290565b600080821280156001600160ff1b038490038513161561433757614337614405565b600160ff1b839003841281161561435057614350614405565b50500190565b6000821982111561436957614369614405565b500190565b60008261438b57634e487b7160e01b600052601260045260246000fd5b500490565b60008160001904831182151516156143aa576143aa614405565b500290565b60008083128015600160ff1b8501841216156143cd576143cd614405565b6001600160ff1b03840183138116156143e8576143e8614405565b50500390565b60008282101561440057614400614405565b500390565b634e487b7160e01b600052601160045260246000fd5b634e487b7160e01b600052603260045260246000fd5b6001600160a01b0381168114610eae57600080fd5b8015158114610eae57600080fdfea2646970667358221220d0e082a8fc9bbbdd9b75c119f1299a5e679ddf259e8067aa4caf2008eca7a0e464736f6c63430008060033",
  "devdoc": {
    "kind": "dev",
    "methods": {
      "borrow(uint256,uint256)": {
        "params": {
          "amount": "borrow size (USDC)*",
          "id": "collateral ID"
        }
      },
      "calculateUpcomingFee(uint256)": {
        "params": {
          "id": "collateral ID*"
        }
      },
      "collateralInfo(uint256)": {
        "params": {
          "id": "collateral id*"
        }
      },
      "intrinsicValueOf(uint256)": {
        "params": {
          "id": "collateral ID*"
        }
      },
      "liquidate(uint256)": {
        "params": {
          "id": "position ID*"
        }
      },
      "liquidateByBorderPrice(uint256)": {
        "params": {
          "id": "collateral ID*"
        }
      },
      "lockCollateral(uint256)": {
        "params": {
          "id": "collateral ID*"
        }
      },
      "maxBorrowLimit(uint256)": {
        "params": {
          "id": "collateral ID*"
        }
      },
      "owner()": {
        "details": "Returns the address of the current owner."
      },
      "renounceOwnership()": {
        "details": "Leaves the contract without owner. It will not be possible to call `onlyOwner` functions anymore. Can only be called by the current owner. NOTE: Renouncing ownership will leave the contract without an owner, thereby removing any functionality that is only available to the owner."
      },
      "repay(uint256,uint256)": {
        "params": {
          "amount": "amount to repay (USDC)*",
          "id": "collateral ID"
        }
      },
      "setInterestRate(uint256)": {
        "params": {
          "value": "interest rate (in minutes)*"
        }
      },
      "setLTV(uint256)": {
        "params": {
          "value": "LTV coefficient.*"
        }
      },
      "setMinBorrowLimit(uint256)": {
        "params": {
          "value": "min. borrow size (USDC)*"
        }
      },
      "setPool(address)": {
        "params": {
          "value": "the address of the liquidity pool*"
        }
      },
      "transferOwnership(address)": {
        "details": "Transfers ownership of the contract to a new account (`newOwner`). Can only be called by the current owner."
      },
      "unlock(uint256)": {
        "params": {
          "id": "collateral ID*"
        }
      }
    },
    "version": 1
  },
  "userdoc": {
    "kind": "user",
    "methods": {
      "borrow(uint256,uint256)": {
        "notice": "send USDC to the user"
      },
      "calculateUpcomingFee(uint256)": {
        "notice": "used to calculate how much USDC user should pay as interest fee"
      },
      "collateralInfo(uint256)": {
        "notice": "returns the position size and the entry price by collateral ID"
      },
      "intrinsicValueOf(uint256)": {
        "notice": "calculates the intrinsic value of the collateral"
      },
      "liquidate(uint256)": {
        "notice": "used to liquidate the loan"
      },
      "liquidateByBorderPrice(uint256)": {
        "notice": "used to liquidate the loan by border price"
      },
      "lockCollateral(uint256)": {
        "notice": "used to lock the collateral (ERC-721) in DeDeLend"
      },
      "maxBorrowLimit(uint256)": {
        "notice": "calcualtes the maximum borrow size for the specific collateral"
      },
      "repay(uint256,uint256)": {
        "notice": "used to repay the user's debt"
      },
      "setInterestRate(uint256)": {
        "notice": "used to set new interest rate"
      },
      "setLTV(uint256)": {
        "notice": "used to set LTV coefficient"
      },
      "setMinBorrowLimit(uint256)": {
        "notice": "used to set the minimum borrow size"
      },
      "setPool(address)": {
        "notice": "used to connect a new liqidity pool"
      },
      "unlock(uint256)": {
        "notice": "sends the collateral token back to the user"
      }
    },
    "version": 1
  },
  "storageLayout": {
    "storage": [
      {
        "astId": 7,
        "contract": "contracts/DDL_GMX.sol:DDL_GMX",
        "label": "_owner",
        "offset": 0,
        "slot": "0",
        "type": "t_address"
      },
      {
        "astId": 3667,
        "contract": "contracts/DDL_GMX.sol:DDL_GMX",
        "label": "LTV",
        "offset": 0,
        "slot": "1",
        "type": "t_uint256"
      },
      {
        "astId": 3672,
        "contract": "contracts/DDL_GMX.sol:DDL_GMX",
        "label": "LTV_DECIMALS",
        "offset": 0,
        "slot": "2",
        "type": "t_uint256"
      },
      {
        "astId": 3675,
        "contract": "contracts/DDL_GMX.sol:DDL_GMX",
        "label": "collateralToken",
        "offset": 0,
        "slot": "3",
        "type": "t_contract(IERC721)2180"
      },
      {
        "astId": 3678,
        "contract": "contracts/DDL_GMX.sol:DDL_GMX",
        "label": "USDC",
        "offset": 0,
        "slot": "4",
        "type": "t_contract(IERC20)777"
      },
      {
        "astId": 3681,
        "contract": "contracts/DDL_GMX.sol:DDL_GMX",
        "label": "interestRate",
        "offset": 0,
        "slot": "5",
        "type": "t_uint256"
      },
      {
        "astId": 3686,
        "contract": "contracts/DDL_GMX.sol:DDL_GMX",
        "label": "INTEREST_RATE_DECIMALS",
        "offset": 0,
        "slot": "6",
        "type": "t_uint256"
      },
      {
        "astId": 3688,
        "contract": "contracts/DDL_GMX.sol:DDL_GMX",
        "label": "minBorrowLimit",
        "offset": 0,
        "slot": "7",
        "type": "t_uint256"
      },
      {
        "astId": 3690,
        "contract": "contracts/DDL_GMX.sol:DDL_GMX",
        "label": "COLLATERAL_DECIMALS",
        "offset": 0,
        "slot": "8",
        "type": "t_uint256"
      },
      {
        "astId": 3693,
        "contract": "contracts/DDL_GMX.sol:DDL_GMX",
        "label": "pool",
        "offset": 0,
        "slot": "9",
        "type": "t_contract(IPoolDDL)6772"
      },
      {
        "astId": 3703,
        "contract": "contracts/DDL_GMX.sol:DDL_GMX",
        "label": "borrowedByCollateral",
        "offset": 0,
        "slot": "10",
        "type": "t_mapping(t_uint256,t_struct(BorrowedByCollateral)3698_storage)"
      },
      {
        "astId": 3707,
        "contract": "contracts/DDL_GMX.sol:DDL_GMX",
        "label": "collateralOwner",
        "offset": 0,
        "slot": "11",
        "type": "t_mapping(t_uint256,t_address)"
      },
      {
        "astId": 4570,
        "contract": "contracts/DDL_GMX.sol:DDL_GMX",
        "label": "accountManager",
        "offset": 0,
        "slot": "12",
        "type": "t_contract(IAccountManager)6566"
      },
      {
        "astId": 4573,
        "contract": "contracts/DDL_GMX.sol:DDL_GMX",
        "label": "vault",
        "offset": 0,
        "slot": "13",
        "type": "t_contract(IVault)7709"
      },
      {
        "astId": 4576,
        "contract": "contracts/DDL_GMX.sol:DDL_GMX",
        "label": "positionRouter",
        "offset": 0,
        "slot": "14",
        "type": "t_contract(IPositionRouter)6920"
      },
      {
        "astId": 4579,
        "contract": "contracts/DDL_GMX.sol:DDL_GMX",
        "label": "closeSlippage",
        "offset": 0,
        "slot": "15",
        "type": "t_int256"
      },
      {
        "astId": 4607,
        "contract": "contracts/DDL_GMX.sol:DDL_GMX",
        "label": "positionInfo",
        "offset": 0,
        "slot": "16",
        "type": "t_mapping(t_uint256,t_struct(PositionInfo)4591_storage)"
      },
      {
        "astId": 4612,
        "contract": "contracts/DDL_GMX.sol:DDL_GMX",
        "label": "liquidatePositionInfo",
        "offset": 0,
        "slot": "17",
        "type": "t_mapping(t_bytes32,t_struct(LiquidatePositionInfo)4602_storage)"
      },
      {
        "astId": 4616,
        "contract": "contracts/DDL_GMX.sol:DDL_GMX",
        "label": "borderPriceCoef",
        "offset": 0,
        "slot": "18",
        "type": "t_mapping(t_address,t_uint256)"
      }
    ],
    "types": {
      "t_address": {
        "encoding": "inplace",
        "label": "address",
        "numberOfBytes": "20"
      },
      "t_bool": {
        "encoding": "inplace",
        "label": "bool",
        "numberOfBytes": "1"
      },
      "t_bytes32": {
        "encoding": "inplace",
        "label": "bytes32",
        "numberOfBytes": "32"
      },
      "t_contract(IAccountManager)6566": {
        "encoding": "inplace",
        "label": "contract IAccountManager",
        "numberOfBytes": "20"
      },
      "t_contract(IERC20)777": {
        "encoding": "inplace",
        "label": "contract IERC20",
        "numberOfBytes": "20"
      },
      "t_contract(IERC721)2180": {
        "encoding": "inplace",
        "label": "contract IERC721",
        "numberOfBytes": "20"
      },
      "t_contract(IPoolDDL)6772": {
        "encoding": "inplace",
        "label": "contract IPoolDDL",
        "numberOfBytes": "20"
      },
      "t_contract(IPositionRouter)6920": {
        "encoding": "inplace",
        "label": "contract IPositionRouter",
        "numberOfBytes": "20"
      },
      "t_contract(IVault)7709": {
        "encoding": "inplace",
        "label": "contract IVault",
        "numberOfBytes": "20"
      },
      "t_int256": {
        "encoding": "inplace",
        "label": "int256",
        "numberOfBytes": "32"
      },
      "t_mapping(t_address,t_uint256)": {
        "encoding": "mapping",
        "key": "t_address",
        "label": "mapping(address => uint256)",
        "numberOfBytes": "32",
        "value": "t_uint256"
      },
      "t_mapping(t_bytes32,t_struct(LiquidatePositionInfo)4602_storage)": {
        "encoding": "mapping",
        "key": "t_bytes32",
        "label": "mapping(bytes32 => struct DDL_GMX.LiquidatePositionInfo)",
        "numberOfBytes": "32",
        "value": "t_struct(LiquidatePositionInfo)4602_storage"
      },
      "t_mapping(t_uint256,t_address)": {
        "encoding": "mapping",
        "key": "t_uint256",
        "label": "mapping(uint256 => address)",
        "numberOfBytes": "32",
        "value": "t_address"
      },
      "t_mapping(t_uint256,t_struct(BorrowedByCollateral)3698_storage)": {
        "encoding": "mapping",
        "key": "t_uint256",
        "label": "mapping(uint256 => struct DDL.BorrowedByCollateral)",
        "numberOfBytes": "32",
        "value": "t_struct(BorrowedByCollateral)3698_storage"
      },
      "t_mapping(t_uint256,t_struct(PositionInfo)4591_storage)": {
        "encoding": "mapping",
        "key": "t_uint256",
        "label": "mapping(uint256 => struct DDL_GMX.PositionInfo)",
        "numberOfBytes": "32",
        "value": "t_struct(PositionInfo)4591_storage"
      },
      "t_struct(BorrowedByCollateral)3698_storage": {
        "encoding": "inplace",
        "label": "struct DDL.BorrowedByCollateral",
        "members": [
          {
            "astId": 3695,
            "contract": "contracts/DDL_GMX.sol:DDL_GMX",
            "label": "borrowed",
            "offset": 0,
            "slot": "0",
            "type": "t_uint256"
          },
          {
            "astId": 3697,
            "contract": "contracts/DDL_GMX.sol:DDL_GMX",
            "label": "newBorrowTimestamp",
            "offset": 0,
            "slot": "1",
            "type": "t_uint256"
          }
        ],
        "numberOfBytes": "64"
      },
      "t_struct(LiquidatePositionInfo)4602_storage": {
        "encoding": "inplace",
        "label": "struct DDL_GMX.LiquidatePositionInfo",
        "members": [
          {
            "astId": 4593,
            "contract": "contracts/DDL_GMX.sol:DDL_GMX",
            "label": "id",
            "offset": 0,
            "slot": "0",
            "type": "t_uint256"
          },
          {
            "astId": 4595,
            "contract": "contracts/DDL_GMX.sol:DDL_GMX",
            "label": "liquidator",
            "offset": 0,
            "slot": "1",
            "type": "t_address"
          },
          {
            "astId": 4597,
            "contract": "contracts/DDL_GMX.sol:DDL_GMX",
            "label": "amountReturn",
            "offset": 0,
            "slot": "2",
            "type": "t_uint256"
          },
          {
            "astId": 4599,
            "contract": "contracts/DDL_GMX.sol:DDL_GMX",
            "label": "profit",
            "offset": 0,
            "slot": "3",
            "type": "t_uint256"
          },
          {
            "astId": 4601,
            "contract": "contracts/DDL_GMX.sol:DDL_GMX",
            "label": "isBorderPrice",
            "offset": 0,
            "slot": "4",
            "type": "t_bool"
          }
        ],
        "numberOfBytes": "160"
      },
      "t_struct(PositionInfo)4591_storage": {
        "encoding": "inplace",
        "label": "struct DDL_GMX.PositionInfo",
        "members": [
          {
            "astId": 4584,
            "contract": "contracts/DDL_GMX.sol:DDL_GMX",
            "label": "indexToken",
            "offset": 0,
            "slot": "0",
            "type": "t_address"
          },
          {
            "astId": 4586,
            "contract": "contracts/DDL_GMX.sol:DDL_GMX",
            "label": "amount",
            "offset": 0,
            "slot": "1",
            "type": "t_uint256"
          },
          {
            "astId": 4588,
            "contract": "contracts/DDL_GMX.sol:DDL_GMX",
            "label": "openPrice",
            "offset": 0,
            "slot": "2",
            "type": "t_uint256"
          },
          {
            "astId": 4590,
            "contract": "contracts/DDL_GMX.sol:DDL_GMX",
            "label": "isLong",
            "offset": 0,
            "slot": "3",
            "type": "t_bool"
          }
        ],
        "numberOfBytes": "128"
      },
      "t_uint256": {
        "encoding": "inplace",
        "label": "uint256",
        "numberOfBytes": "32"
      }
    }
  }
}