{
  "address": "0x274E20be866D1Acd97A34a9107d94eaAa0b1D57C",
  "abi": [
    {
      "inputs": [
        {
          "internalType": "contract IPositionRouter",
          "name": "_positionRouter",
          "type": "address"
        },
        {
          "internalType": "contract IAccountManager",
          "name": "_accountManager",
          "type": "address"
        },
        {
          "internalType": "contract IVault",
          "name": "_vault",
          "type": "address"
        },
        {
          "internalType": "contract IERC721",
          "name": "_collateralToken",
          "type": "address"
        },
        {
          "internalType": "contract IERC20",
          "name": "_USDC",
          "type": "address"
        },
        {
          "internalType": "uint256",
          "name": "_minBorrowLimit",
          "type": "uint256"
        },
        {
          "internalType": "uint256",
          "name": "_ltv",
          "type": "uint256"
        },
        {
          "internalType": "uint256",
          "name": "_COLLATERAL_DECIMALS",
          "type": "uint256"
        },
        {
          "internalType": "uint256",
          "name": "_PriorLiqPriceCoef",
          "type": "uint256"
        }
      ],
      "stateMutability": "nonpayable",
      "type": "constructor"
    },
    {
      "anonymous": false,
      "inputs": [
        {
          "indexed": true,
          "internalType": "address",
          "name": "user",
          "type": "address"
        },
        {
          "indexed": true,
          "internalType": "uint256",
          "name": "id",
          "type": "uint256"
        },
        {
          "indexed": false,
          "internalType": "uint256",
          "name": "amount",
          "type": "uint256"
        },
        {
          "indexed": false,
          "internalType": "address",
          "name": "strategy",
          "type": "address"
        },
        {
          "indexed": false,
          "internalType": "uint256",
          "name": "timestamp",
          "type": "uint256"
        }
      ],
      "name": "Borrow",
      "type": "event"
    },
    {
      "anonymous": false,
      "inputs": [
        {
          "indexed": true,
          "internalType": "address",
          "name": "user",
          "type": "address"
        },
        {
          "indexed": true,
          "internalType": "uint256",
          "name": "optionID",
          "type": "uint256"
        },
        {
          "indexed": false,
          "internalType": "uint256",
          "name": "amount",
          "type": "uint256"
        },
        {
          "indexed": false,
          "internalType": "uint256",
          "name": "poolProfit",
          "type": "uint256"
        },
        {
          "indexed": false,
          "internalType": "uint256",
          "name": "liqFee",
          "type": "uint256"
        }
      ],
      "name": "ForcedExercise",
      "type": "event"
    },
    {
      "anonymous": false,
      "inputs": [
        {
          "indexed": true,
          "internalType": "address",
          "name": "user",
          "type": "address"
        },
        {
          "indexed": true,
          "internalType": "uint256",
          "name": "optionID",
          "type": "uint256"
        },
        {
          "indexed": false,
          "internalType": "uint256",
          "name": "amount",
          "type": "uint256"
        },
        {
          "indexed": false,
          "internalType": "uint256",
          "name": "poolProfit",
          "type": "uint256"
        },
        {
          "indexed": false,
          "internalType": "uint256",
          "name": "liqFee",
          "type": "uint256"
        }
      ],
      "name": "Liquidate",
      "type": "event"
    },
    {
      "anonymous": false,
      "inputs": [
        {
          "indexed": true,
          "internalType": "address",
          "name": "user",
          "type": "address"
        },
        {
          "indexed": true,
          "internalType": "uint256",
          "name": "optionID",
          "type": "uint256"
        },
        {
          "indexed": false,
          "internalType": "uint256",
          "name": "userReturn",
          "type": "uint256"
        },
        {
          "indexed": false,
          "internalType": "uint256",
          "name": "poolReturn",
          "type": "uint256"
        },
        {
          "indexed": false,
          "internalType": "uint256",
          "name": "liqFee",
          "type": "uint256"
        }
      ],
      "name": "LiquidateByBorderPrice",
      "type": "event"
    },
    {
      "anonymous": false,
      "inputs": [
        {
          "indexed": true,
          "internalType": "address",
          "name": "previousOwner",
          "type": "address"
        },
        {
          "indexed": true,
          "internalType": "address",
          "name": "newOwner",
          "type": "address"
        }
      ],
      "name": "OwnershipTransferred",
      "type": "event"
    },
    {
      "anonymous": false,
      "inputs": [
        {
          "indexed": true,
          "internalType": "address",
          "name": "user",
          "type": "address"
        },
        {
          "indexed": true,
          "internalType": "uint256",
          "name": "optionID",
          "type": "uint256"
        },
        {
          "indexed": false,
          "internalType": "uint256",
          "name": "amount",
          "type": "uint256"
        }
      ],
      "name": "Repay",
      "type": "event"
    },
    {
      "anonymous": false,
      "inputs": [
        {
          "indexed": true,
          "internalType": "address",
          "name": "user",
          "type": "address"
        },
        {
          "indexed": true,
          "internalType": "uint256",
          "name": "optionID",
          "type": "uint256"
        }
      ],
      "name": "Unlock",
      "type": "event"
    },
    {
      "inputs": [],
      "name": "BorderPriceCoef",
      "outputs": [
        {
          "internalType": "uint256",
          "name": "",
          "type": "uint256"
        }
      ],
      "stateMutability": "view",
      "type": "function"
    },
    {
      "inputs": [],
      "name": "COLLATERAL_DECIMALS",
      "outputs": [
        {
          "internalType": "uint256",
          "name": "",
          "type": "uint256"
        }
      ],
      "stateMutability": "view",
      "type": "function"
    },
    {
      "inputs": [],
      "name": "INTEREST_RATE_DECIMALS",
      "outputs": [
        {
          "internalType": "uint256",
          "name": "",
          "type": "uint256"
        }
      ],
      "stateMutability": "view",
      "type": "function"
    },
    {
      "inputs": [],
      "name": "LTV",
      "outputs": [
        {
          "internalType": "uint256",
          "name": "",
          "type": "uint256"
        }
      ],
      "stateMutability": "view",
      "type": "function"
    },
    {
      "inputs": [],
      "name": "LTV_DECIMALS",
      "outputs": [
        {
          "internalType": "uint256",
          "name": "",
          "type": "uint256"
        }
      ],
      "stateMutability": "view",
      "type": "function"
    },
    {
      "inputs": [],
      "name": "USDC",
      "outputs": [
        {
          "internalType": "contract IERC20",
          "name": "",
          "type": "address"
        }
      ],
      "stateMutability": "view",
      "type": "function"
    },
    {
      "inputs": [],
      "name": "accountManager",
      "outputs": [
        {
          "internalType": "contract IAccountManager",
          "name": "",
          "type": "address"
        }
      ],
      "stateMutability": "view",
      "type": "function"
    },
    {
      "inputs": [
        {
          "internalType": "uint256",
          "name": "id",
          "type": "uint256"
        }
      ],
      "name": "borderPrice",
      "outputs": [
        {
          "internalType": "uint256",
          "name": "price",
          "type": "uint256"
        }
      ],
      "stateMutability": "view",
      "type": "function"
    },
    {
      "inputs": [
        {
          "internalType": "uint256",
          "name": "id",
          "type": "uint256"
        },
        {
          "internalType": "uint256",
          "name": "amount",
          "type": "uint256"
        }
      ],
      "name": "borrow",
      "outputs": [],
      "stateMutability": "nonpayable",
      "type": "function"
    },
    {
      "inputs": [
        {
          "internalType": "uint256",
          "name": "",
          "type": "uint256"
        }
      ],
      "name": "borrowedByCollateral",
      "outputs": [
        {
          "internalType": "uint256",
          "name": "borrowed",
          "type": "uint256"
        },
        {
          "internalType": "uint256",
          "name": "newBorrowTimestamp",
          "type": "uint256"
        }
      ],
      "stateMutability": "view",
      "type": "function"
    },
    {
      "inputs": [
        {
          "internalType": "uint256",
          "name": "id",
          "type": "uint256"
        }
      ],
      "name": "calculateUpcomingFee",
      "outputs": [
        {
          "internalType": "uint256",
          "name": "upcomingFee",
          "type": "uint256"
        }
      ],
      "stateMutability": "view",
      "type": "function"
    },
    {
      "inputs": [],
      "name": "closeSlippage",
      "outputs": [
        {
          "internalType": "int256",
          "name": "",
          "type": "int256"
        }
      ],
      "stateMutability": "view",
      "type": "function"
    },
    {
      "inputs": [
        {
          "internalType": "uint256",
          "name": "id",
          "type": "uint256"
        }
      ],
      "name": "collateralInfo",
      "outputs": [
        {
          "internalType": "uint256",
          "name": "amount",
          "type": "uint256"
        },
        {
          "internalType": "uint256",
          "name": "price",
          "type": "uint256"
        }
      ],
      "stateMutability": "view",
      "type": "function"
    },
    {
      "inputs": [
        {
          "internalType": "uint256",
          "name": "",
          "type": "uint256"
        }
      ],
      "name": "collateralOwner",
      "outputs": [
        {
          "internalType": "address",
          "name": "",
          "type": "address"
        }
      ],
      "stateMutability": "view",
      "type": "function"
    },
    {
      "inputs": [
        {
          "internalType": "uint256",
          "name": "id",
          "type": "uint256"
        }
      ],
      "name": "collateralState",
      "outputs": [
        {
          "internalType": "bool",
          "name": "",
          "type": "bool"
        }
      ],
      "stateMutability": "view",
      "type": "function"
    },
    {
      "inputs": [
        {
          "internalType": "uint256",
          "name": "id",
          "type": "uint256"
        }
      ],
      "name": "collateralStateByBorderPrice",
      "outputs": [
        {
          "internalType": "bool",
          "name": "",
          "type": "bool"
        }
      ],
      "stateMutability": "view",
      "type": "function"
    },
    {
      "inputs": [],
      "name": "collateralToken",
      "outputs": [
        {
          "internalType": "contract IERC721",
          "name": "",
          "type": "address"
        }
      ],
      "stateMutability": "view",
      "type": "function"
    },
    {
      "inputs": [
        {
          "internalType": "uint256",
          "name": "id",
          "type": "uint256"
        }
      ],
      "name": "currentBorderPrice",
      "outputs": [
        {
          "internalType": "uint256",
          "name": "price",
          "type": "uint256"
        }
      ],
      "stateMutability": "view",
      "type": "function"
    },
    {
      "inputs": [
        {
          "internalType": "uint256",
          "name": "id",
          "type": "uint256"
        }
      ],
      "name": "currentPrice",
      "outputs": [
        {
          "internalType": "uint256",
          "name": "",
          "type": "uint256"
        }
      ],
      "stateMutability": "view",
      "type": "function"
    },
    {
      "inputs": [],
      "name": "interestRate",
      "outputs": [
        {
          "internalType": "uint256",
          "name": "",
          "type": "uint256"
        }
      ],
      "stateMutability": "view",
      "type": "function"
    },
    {
      "inputs": [
        {
          "internalType": "uint256",
          "name": "id",
          "type": "uint256"
        }
      ],
      "name": "intrinsicValueOf",
      "outputs": [
        {
          "internalType": "uint256",
          "name": "delta",
          "type": "uint256"
        }
      ],
      "stateMutability": "view",
      "type": "function"
    },
    {
      "inputs": [
        {
          "internalType": "uint256",
          "name": "id",
          "type": "uint256"
        }
      ],
      "name": "isLong",
      "outputs": [
        {
          "internalType": "bool",
          "name": "",
          "type": "bool"
        }
      ],
      "stateMutability": "view",
      "type": "function"
    },
    {
      "inputs": [
        {
          "internalType": "uint256",
          "name": "id",
          "type": "uint256"
        }
      ],
      "name": "liqPrice",
      "outputs": [
        {
          "internalType": "uint256",
          "name": "price",
          "type": "uint256"
        }
      ],
      "stateMutability": "view",
      "type": "function"
    },
    {
      "inputs": [
        {
          "internalType": "uint256",
          "name": "id",
          "type": "uint256"
        }
      ],
      "name": "liquidate",
      "outputs": [],
      "stateMutability": "payable",
      "type": "function"
    },
    {
      "inputs": [
        {
          "internalType": "uint256",
          "name": "id",
          "type": "uint256"
        }
      ],
      "name": "liquidateByBorderPrice",
      "outputs": [],
      "stateMutability": "payable",
      "type": "function"
    },
    {
      "inputs": [
        {
          "internalType": "uint256",
          "name": "id",
          "type": "uint256"
        }
      ],
      "name": "lockCollateral",
      "outputs": [],
      "stateMutability": "nonpayable",
      "type": "function"
    },
    {
      "inputs": [
        {
          "internalType": "uint256",
          "name": "id",
          "type": "uint256"
        }
      ],
      "name": "maxBorrowLimit",
      "outputs": [
        {
          "internalType": "uint256",
          "name": "",
          "type": "uint256"
        }
      ],
      "stateMutability": "view",
      "type": "function"
    },
    {
      "inputs": [],
      "name": "minBorrowLimit",
      "outputs": [
        {
          "internalType": "uint256",
          "name": "",
          "type": "uint256"
        }
      ],
      "stateMutability": "view",
      "type": "function"
    },
    {
      "inputs": [],
      "name": "owner",
      "outputs": [
        {
          "internalType": "address",
          "name": "",
          "type": "address"
        }
      ],
      "stateMutability": "view",
      "type": "function"
    },
    {
      "inputs": [],
      "name": "pool",
      "outputs": [
        {
          "internalType": "contract IPoolDDL",
          "name": "",
          "type": "address"
        }
      ],
      "stateMutability": "view",
      "type": "function"
    },
    {
      "inputs": [
        {
          "internalType": "uint256",
          "name": "",
          "type": "uint256"
        }
      ],
      "name": "positionInfo",
      "outputs": [
        {
          "internalType": "address",
          "name": "indexToken",
          "type": "address"
        },
        {
          "internalType": "uint256",
          "name": "amount",
          "type": "uint256"
        },
        {
          "internalType": "uint256",
          "name": "openPrice",
          "type": "uint256"
        },
        {
          "internalType": "bool",
          "name": "isLong",
          "type": "bool"
        }
      ],
      "stateMutability": "view",
      "type": "function"
    },
    {
      "inputs": [],
      "name": "positionRouter",
      "outputs": [
        {
          "internalType": "contract IPositionRouter",
          "name": "",
          "type": "address"
        }
      ],
      "stateMutability": "view",
      "type": "function"
    },
    {
      "inputs": [],
      "name": "renounceOwnership",
      "outputs": [],
      "stateMutability": "nonpayable",
      "type": "function"
    },
    {
      "inputs": [
        {
          "internalType": "uint256",
          "name": "id",
          "type": "uint256"
        },
        {
          "internalType": "uint256",
          "name": "amount",
          "type": "uint256"
        }
      ],
      "name": "repay",
      "outputs": [],
      "stateMutability": "nonpayable",
      "type": "function"
    },
    {
      "inputs": [
        {
          "internalType": "uint256",
          "name": "value",
          "type": "uint256"
        }
      ],
      "name": "setInterestRate",
      "outputs": [],
      "stateMutability": "nonpayable",
      "type": "function"
    },
    {
      "inputs": [
        {
          "internalType": "uint256",
          "name": "value",
          "type": "uint256"
        }
      ],
      "name": "setInterestRateDecimals",
      "outputs": [],
      "stateMutability": "nonpayable",
      "type": "function"
    },
    {
      "inputs": [
        {
          "internalType": "uint256",
          "name": "value",
          "type": "uint256"
        }
      ],
      "name": "setLTV",
      "outputs": [],
      "stateMutability": "nonpayable",
      "type": "function"
    },
    {
      "inputs": [
        {
          "internalType": "uint256",
          "name": "value",
          "type": "uint256"
        }
      ],
      "name": "setMinBorrowLimit",
      "outputs": [],
      "stateMutability": "nonpayable",
      "type": "function"
    },
    {
      "inputs": [
        {
          "internalType": "address",
          "name": "value",
          "type": "address"
        }
      ],
      "name": "setPool",
      "outputs": [],
      "stateMutability": "nonpayable",
      "type": "function"
    },
    {
      "inputs": [
        {
          "internalType": "address",
          "name": "newOwner",
          "type": "address"
        }
      ],
      "name": "transferOwnership",
      "outputs": [],
      "stateMutability": "nonpayable",
      "type": "function"
    },
    {
      "inputs": [
        {
          "internalType": "uint256",
          "name": "id",
          "type": "uint256"
        }
      ],
      "name": "unlock",
      "outputs": [],
      "stateMutability": "nonpayable",
      "type": "function"
    },
    {
      "inputs": [],
      "name": "vault",
      "outputs": [
        {
          "internalType": "contract IVault",
          "name": "",
          "type": "address"
        }
      ],
      "stateMutability": "view",
      "type": "function"
    }
  ],
  "transactionHash": "0x2616ec6f98c92dd787fb3d2736397584acedbb393adc3fb6b49ed637fe532b25",
  "args": [
    "0xb87a436B93fFE9D75c5cFA7bAcFff96430b09868",
    "0x0c6FE8F0C298C441467B66F2fDbCECAdBF20E8b7",
    "0x489ee077994B6658eAfA855C308275EAd8097C4A",
    "0x0c6FE8F0C298C441467B66F2fDbCECAdBF20E8b7",
    "0xFF970A61A04b1cA14834A43f5dE4533eBDDB5CC8",
    0,
    9000,
    6,
    4
  ],
  "numDeployments": 2,
  "solcInputHash": "945be88ac65da4ddc728056220563e0c",
  "bytecode": "0x60806040526127106002556a0fbce2c2bf9557000000006005556c0c9f2c9cd04674edea40000000600655600a6010553480156200003c57600080fd5b50604051620038b7380380620038b78339810160408190526200005f9162000160565b858585858585620000703362000110565b600380546001600160a01b038089166001600160a01b031992831617909255600480549288169290911691909117905560078490556001839055620000b782600a62000250565b6008556009555050600f80546001600160a01b03199081166001600160a01b039e8f1617909155600d805482169c8e169c909c17909b555050600e80549099169790991696909617909655506200034a95505050505050565b600080546001600160a01b038381166001600160a01b0319831681178455604051919092169283917f8be0079c531659141344cd1fd0a4f28419497f9722a3daafe3b4186f6b6457e09190a35050565b60008060008060008060008060006101208a8c0312156200018057600080fd5b89516200018d8162000331565b60208b0151909950620001a08162000331565b60408b0151909850620001b38162000331565b60608b0151909750620001c68162000331565b60808b0151909650620001d98162000331565b8095505060a08a0151935060c08a0151925060e08a015191506101008a015190509295985092959850929598565b600181815b80851115620002485781600019048211156200022c576200022c6200031b565b808516156200023a57918102915b93841c93908002906200020c565b509250929050565b60006200025e838362000265565b9392505050565b600082620002765750600162000315565b81620002855750600062000315565b81600181146200029e5760028114620002a957620002c9565b600191505062000315565b60ff841115620002bd57620002bd6200031b565b50506001821b62000315565b5060208310610133831016604e8410600b8410161715620002ee575081810a62000315565b620002fa838362000207565b80600019048211156200031157620003116200031b565b0290505b92915050565b634e487b7160e01b600052601160045260246000fd5b6001600160a01b03811681146200034757600080fd5b50565b61355d806200035a6000396000f3fe6080604052600436106102515760003560e01c80637c3a00fd11610139578063b3b840df116100b6578063e260d7471161007a578063e260d74714610740578063e5bad72314610756578063f2fde38b14610776578063fbfa77cf14610796578063fe651d1c146107b6578063fecb6357146107d657600080fd5b8063b3b840df1461068c578063c3707709146106c0578063d88c6910146106e0578063d8aed14514610700578063e2233cbd1461072057600080fd5b80639d38d064116100fd5780639d38d064146105f65780639e3aa5b11461060c578063a226b4831461062c578063b13de2661461064c578063b2016bd41461066c57600080fd5b80637c3a00fd1461050757806389097a6a1461051d57806389a30271146105985780638da5cb5b146105b857806391c2c469146105d657600080fd5b80634ddde78d116101d257806361ef161f1161019657806361ef161f1461045657806362965d8e1461047657806366234ffa1461048c578063715018a6146104a257806379881698146104b75780637a3c4c17146104e757600080fd5b80634ddde78d146103c05780634de33fda146103d6578063587a03c2146103f65780635f84f302146104165780636198e3391461043657600080fd5b806324a6665e1161021957806324a6665e14610322578063415f12401461035757806341f6cf4e1461036a5780634437152a14610380578063484f1371146103a057600080fd5b80630ecbcdab1461025657806316f0115b1461027857806317582981146102b55780631a426216146102d9578063200549ca146102ec575b600080fd5b34801561026257600080fd5b506102766102713660046131e1565b6107f6565b005b34801561028457600080fd5b50600a54610298906001600160a01b031681565b6040516001600160a01b0390911681526020015b60405180910390f35b3480156102c157600080fd5b506102cb60095481565b6040519081526020016102ac565b6102766102e73660046131af565b610cd2565b3480156102f857600080fd5b506102986103073660046131af565b600c602052600090815260409020546001600160a01b031681565b34801561032e57600080fd5b5061034261033d3660046131af565b61124c565b604080519283526020830191909152016102ac565b6102766103653660046131af565b61132e565b34801561037657600080fd5b506102cb60105481565b34801561038c57600080fd5b5061027661039b36600461303c565b6118f7565b3480156103ac57600080fd5b506102cb6103bb3660046131af565b611921565b3480156103cc57600080fd5b506102cb60085481565b3480156103e257600080fd5b506102cb6103f13660046131af565b61198a565b34801561040257600080fd5b506102766104113660046131af565b6119e4565b34801561042257600080fd5b506102766104313660046131af565b6119f1565b34801561044257600080fd5b506102766104513660046131af565b6119fe565b34801561046257600080fd5b50600f54610298906001600160a01b031681565b34801561048257600080fd5b506102cb60015481565b34801561049857600080fd5b506102cb60065481565b3480156104ae57600080fd5b50610276611af7565b3480156104c357600080fd5b506104d76104d23660046131af565b611b0b565b60405190151581526020016102ac565b3480156104f357600080fd5b506102cb6105023660046131af565b611b54565b34801561051357600080fd5b506102cb60055481565b34801561052957600080fd5b5061056c6105383660046131af565b60116020526000908152604090208054600182015460028301546003909301546001600160a01b0390921692909160ff1684565b604080516001600160a01b039095168552602085019390935291830152151560608201526080016102ac565b3480156105a457600080fd5b50600454610298906001600160a01b031681565b3480156105c457600080fd5b506000546001600160a01b0316610298565b3480156105e257600080fd5b50600d54610298906001600160a01b031681565b34801561060257600080fd5b506102cb60025481565b34801561061857600080fd5b506102cb6106273660046131af565b611c94565b34801561063857600080fd5b506104d76106473660046131af565b611cbf565b34801561065857600080fd5b506102766106673660046131af565b611d14565b34801561067857600080fd5b50600354610298906001600160a01b031681565b34801561069857600080fd5b506103426106a73660046131af565b600b602052600090815260409020805460019091015482565b3480156106cc57600080fd5b506102766106db3660046131af565b611d63565b3480156106ec57600080fd5b506102cb6106fb3660046131af565b611d70565b34801561070c57600080fd5b5061027661071b3660046131e1565b611e69565b34801561072c57600080fd5b5061027661073b3660046131af565b612167565b34801561074c57600080fd5b506102cb60075481565b34801561076257600080fd5b506102cb6107713660046131af565b61231a565b34801561078257600080fd5b5061027661079136600461303c565b6123d1565b3480156107a257600080fd5b50600e54610298906001600160a01b031681565b3480156107c257600080fd5b506102cb6107d13660046131af565b612447565b3480156107e257600080fd5b506104d76107f13660046131af565b6124a2565b600a60009054906101000a90046001600160a01b03166001600160a01b031663ae3050e16040518163ffffffff1660e01b815260040160206040518083038186803b15801561084457600080fd5b505afa158015610858573d6000803e3d6000fd5b505050506040513d601f19601f8201168201806040525081019061087c9190613076565b6108bd5760405162461bcd60e51b815260206004820152600d60248201526c1c185d5cd95119511953195b99609a1b60448201526064015b60405180910390fd5b6000828152600b60205260408120906108d584611c94565b90506000600a60009054906101000a90046001600160a01b03166001600160a01b03166312b583496040518163ffffffff1660e01b815260040160206040518083038186803b15801561092757600080fd5b505afa15801561093b573d6000803e3d6000fd5b505050506040513d601f19601f8201168201806040525081019061095f91906131c8565b90506007548410156109b35760405162461bcd60e51b815260206004820152601a60248201527f616d6f756e74206c657373206d696e426f72726f774c696d697400000000000060448201526064016108b4565b825482906109c190866133f5565b1115610a035760405162461bcd60e51b8152602060048201526011602482015270626f72726f7720697320746f6f2062696760781b60448201526064016108b4565b6000858152600c60205260409020546001600160a01b03163314610a615760405162461bcd60e51b81526020600482015260156024820152743cb7ba9030b932903737ba103a34329037bbb732b960591b60448201526064016108b4565b80841115610abf5760405162461bcd60e51b815260206004820152602560248201527f7468657265206973206e6f7420656e6f756768206d6f6e657920696e20746865604482015264081c1bdbdb60da1b60648201526084016108b4565b610ac8856124c4565b610ad185611cbf565b15610b3157610adf8561198a565b610ae886611b54565b11610b2c5760405162461bcd60e51b815260206004820152601460248201527374686520707269636520697320746f6f206c6f7760601b60448201526064016108b4565b610b88565b610b3a8561198a565b610b4386611b54565b10610b885760405162461bcd60e51b81526020600482015260156024820152740e8d0ca40e0e4d2c6ca40d2e640e8dede40d0d2ced605b1b60448201526064016108b4565b6000610b9386611921565b9050604051806040016040528082866000015488610bb191906133f5565b610bbb91906133f5565b8152426020918201526000888152600b82526040902082518155910151600190910155600a546001600160a01b0316632bc355ca610bf983886133f5565b6040518263ffffffff1660e01b8152600401610c1791815260200190565b600060405180830381600087803b158015610c3157600080fd5b505af1158015610c45573d6000803e3d6000fd5b5050600a546000898152600c602052604090819020549051633419e74d60e21b81526001600160a01b039182166004820152602481018a90529116925063d0679d349150604401600060405180830381600087803b158015610ca657600080fd5b505af1158015610cba573d6000803e3d6000fd5b50505050610cca33878742612580565b505050505050565b610cdb816124a2565b610d175760405162461bcd60e51b815260206004820152600d60248201526c696e76616c696420707269636560981b60448201526064016108b4565b6000818152600b6020526040812090610d2f8361231a565b90506000600f60009054906101000a90046001600160a01b03166001600160a01b03166363ae21036040518163ffffffff1660e01b815260040160206040518083038186803b158015610d8157600080fd5b505afa158015610d95573d6000803e3d6000fd5b505050506040513d601f19601f82011682018060405250810190610db991906131c8565b600d5460405163e6e6dd2f60e01b8152600481018790529192506000916001600160a01b039091169063e6e6dd2f90602401600060405180830381600087803b158015610e0557600080fd5b505af1158015610e19573d6000803e3d6000fd5b505050506040513d6000823e601f3d908101601f19168201604052610e4191908101906130bd565b505050915050806001600160a01b031663d0e30db0836040518263ffffffff1660e01b81526004016000604051808303818588803b158015610e8257600080fd5b505af1158015610e96573d6000803e3d6000fd5b5050505050610ea4856125e1565b600a548454604051631b45a68d60e01b81526001600160a01b0390921691631b45a68d91610ed89160040190815260200190565b600060405180830381600087803b158015610ef257600080fd5b505af1158015610f06573d6000803e3d6000fd5b5050600480546040516370a0823160e01b81523092810192909252610f9193506001600160a01b031691506370a082319060240160206040518083038186803b158015610f5257600080fd5b505afa158015610f66573d6000803e3d6000fd5b505050506040513d601f19601f82011682018060405250810190610f8a91906131c8565b8554612998565b60048054600a54865460405163a9059cbb60e01b81526001600160a01b03928316948101949094526024840152169063a9059cbb90604401602060405180830381600087803b158015610fe357600080fd5b505af1158015610ff7573d6000803e3d6000fd5b505050506040513d601f19601f8201168201806040525081019061101b9190613076565b506004546000868152600c602052604090205485546001600160a01b039283169263a9059cbb92169060649061105290600a61342f565b61105c919061340d565b875461106891906133f5565b611072908761348d565b6040516001600160e01b031960e085901b1681526001600160a01b0390921660048301526024820152604401602060405180830381600087803b1580156110b857600080fd5b505af11580156110cc573d6000803e3d6000fd5b505050506040513d601f19601f820116820180604052508101906110f09190613076565b5060045484546001600160a01b039091169063a9059cbb90339060649061111890600a61342f565b611122919061340d565b6040516001600160e01b031960e085901b1681526001600160a01b0390921660048301526024820152604401602060405180830381600087803b15801561116857600080fd5b505af115801561117c573d6000803e3d6000fd5b505050506040513d601f19601f820116820180604052508101906111a09190613076565b506000858152600c6020526040902054845486916001600160a01b0316907fad7bde0b40220dccef6b876cf7594499d11d9f168fbd034338597c691a7e943d906064906111ee90600a61342f565b6111f8919061340d565b875461120491906133f5565b61120e908761348d565b8754606461121d82600a61342f565b611227919061340d565b6040805193845260208401929092529082015260600160405180910390a35050505050565b600d5460405163eb02c30160e01b8152600481018390526000918291829182916001600160a01b039091169063eb02c3019060240160e06040518083038186803b15801561129957600080fd5b505afa1580156112ad573d6000803e3d6000fd5b505050506040513d601f19601f820116820180604052508101906112d19190613203565b5050505092505091506008546c0c9f2c9cd04674edea400000006112f5919061340d565b6112ff908361340d565b600854611319906c0c9f2c9cd04674edea4000000061340d565b611323908361340d565b935093505050915091565b61133781611b0b565b6113735760405162461bcd60e51b815260206004820152600d60248201526c696e76616c696420707269636560981b60448201526064016108b4565b6000818152600b602052604081209061138b8361231a565b90506000600f60009054906101000a90046001600160a01b03166001600160a01b03166363ae21036040518163ffffffff1660e01b815260040160206040518083038186803b1580156113dd57600080fd5b505afa1580156113f1573d6000803e3d6000fd5b505050506040513d601f19601f8201168201806040525081019061141591906131c8565b600d5460405163e6e6dd2f60e01b8152600481018790529192506000916001600160a01b039091169063e6e6dd2f90602401600060405180830381600087803b15801561146157600080fd5b505af1158015611475573d6000803e3d6000fd5b505050506040513d6000823e601f3d908101601f1916820160405261149d91908101906130bd565b505050915050806001600160a01b031663d0e30db0836040518263ffffffff1660e01b81526004016000604051808303818588803b1580156114de57600080fd5b505af11580156114f2573d6000803e3d6000fd5b50506040805180820182526004808252632121212160e11b6020830152805492516370a0823160e01b8152309181019190915261159995509093506001600160a01b0390911691506370a08231906024015b60206040518083038186803b15801561155c57600080fd5b505afa158015611570573d6000803e3d6000fd5b505050506040513d601f19601f8201168201806040525081019061159491906131c8565b6129df565b6115a2856125e1565b60408051808201825260078152664141414141414160c81b60208201526004805492516370a0823160e01b815230918101919091526115f3926001600160a01b0316906370a0823190602401611544565b600a548454604051631b45a68d60e01b815260048101919091526000916001600160a01b031690631b45a68d90602401600060405180830381600087803b15801561163d57600080fd5b505af1158015611651573d6000803e3d6000fd5b5050505084600001548411156117d857845461166d908561348d565b600454600a549192506001600160a01b039081169163a9059cbb9116606461169685605a61342f565b6116a0919061340d565b88546116ac91906133f5565b6040516001600160e01b031960e085901b1681526001600160a01b0390921660048301526024820152604401602060405180830381600087803b1580156116f257600080fd5b505af1158015611706573d6000803e3d6000fd5b505050506040513d601f19601f8201168201806040525081019061172a9190613076565b506004546001600160a01b031663a9059cbb33606461174a85600a61342f565b611754919061340d565b6040516001600160e01b031960e085901b1681526001600160a01b0390921660048301526024820152604401602060405180830381600087803b15801561179a57600080fd5b505af11580156117ae573d6000803e3d6000fd5b505050506040513d601f19601f820116820180604052508101906117d29190613076565b50611864565b60048054600a5460405163a9059cbb60e01b81526001600160a01b039182169381019390935260248301879052169063a9059cbb90604401602060405180830381600087803b15801561182a57600080fd5b505af115801561183e573d6000803e3d6000fd5b505050506040513d601f19601f820116820180604052508101906118629190613076565b505b6000868152600c6020526040902054855487916001600160a01b0316907f4e91025e01b2329df1ec1067d27aafec4d1c41f682ccd794dee04321e0b1e8dc9060646118b086605a61342f565b6118ba919061340d565b60646118c787600a61342f565b6118d1919061340d565b6040805193845260208401929092529082015260600160405180910390a3505050505050565b6118ff612a24565b600a80546001600160a01b0319166001600160a01b0392909216919091179055565b6000818152600b6020526040812060018101548290603c90611943904261348d565b61194d919061340d565b905060065460055482611960919061342f565b835461196e9060649061340d565b611978919061342f565b611982919061340d565b949350505050565b6000806119968361124c565b9150506119a283611cbf565b156119d357606460095460646119b891906133f5565b6119c2908361342f565b6119cc919061340d565b9392505050565b606460095460646119b8919061348d565b6119ec612a24565b600655565b6119f9612a24565b600555565b6000818152600b602052604090205415611a4c5760405162461bcd60e51b815260206004820152600f60248201526e1b1bd85b881a5cc8189b1bd8dad959608a1b60448201526064016108b4565b6003546000828152600c6020526040908190205490516323b872dd60e01b81523060048201526001600160a01b039182166024820152604481018490529116906323b872dd90606401600060405180830381600087803b158015611aaf57600080fd5b505af1158015611ac3573d6000803e3d6000fd5b50506040518392503391507f6381d9813cabeb57471b5a7e05078e64845ccdb563146a6911d536f24ce960f190600090a350565b611aff612a24565b611b096000612a7e565b565b6000611b1682611cbf565b15611b3557611b2482611d70565b611b2d83611b54565b111592915050565b611b3e82611d70565b611b4783611b54565b101592915050565b919050565b6000818152601160209081526040808320815160808101835281546001600160a01b031681526001820154938101939093526002810154918301919091526003015460ff1615156060820152611ba983611cbf565b15611c4757600854611bc8906c0c9f2c9cd04674edea4000000061340d565b600e548251604051637092736960e11b81526001600160a01b03918216600482015291169063e124e6d2906024015b60206040518083038186803b158015611c0f57600080fd5b505afa158015611c23573d6000803e3d6000fd5b505050506040513d601f19601f820116820180604052508101906119c291906131c8565b600854611c61906c0c9f2c9cd04674edea4000000061340d565b600e5482516040516340d3096b60e11b81526001600160a01b0391821660048201529116906381a612d690602401611bf7565b6000600154600254611ca58461231a565b611caf919061340d565b611cb9919061342f565b92915050565b600090815260116020908152604091829020825160808101845281546001600160a01b0316815260018201549281019290925260028101549282019290925260039091015460ff161515606090910181905290565b611d1c612a24565b611f40811115611d5e5760405162461bcd60e51b815260206004820152600d60248201526c696e76616c69642076616c756560981b60448201526064016108b4565b600155565b611d6b612a24565b600755565b6000818152600b602052604081208180611d898561124c565b91509150611dce604051806040016040528060088152602001676c6971507269636560c01b8152508460000154836008548760000154611dc9919061342f565b612ace565b611df482836008548660000154611de5919061342f565b611def919061340d565b612998565b611dfd85611cbf565b15611e3a5760085483548391611e129161342f565b611e1c919061340d565b611e2790607861342f565b611e3190826133f5565b95945050505050565b60085483548391611e4a9161342f565b611e54919061340d565b611e5f90607861342f565b611e31908261348d565b6000828152600b6020526040902054611eb65760405162461bcd60e51b815260206004820152600f60248201526e1bdc1d1a5bdb881c995919595b5959608a1b60448201526064016108b4565b6000611ec183611921565b6000848152600b6020526040902054909150611ede9082906133f5565b821115611f1f5760405162461bcd60e51b815260206004820152600f60248201526e1d1bdbc81b5d58da08185b5bdd5b9d608a1b60448201526064016108b4565b6000838152600c60205260409020546001600160a01b03163314611f4257600080fd5b6000838152600b60205260408120548390611f5e9084906133f5565b611f68919061348d565b600a549091506001600160a01b0316631b45a68d611f86848661348d565b6040518263ffffffff1660e01b8152600401611fa491815260200190565b600060405180830381600087803b158015611fbe57600080fd5b505af1158015611fd2573d6000803e3d6000fd5b505060408051808201825284815242602080830191825260008a8152600b825284812093518455915160019093019290925560048054600c909352908390205492516323b872dd60e01b81526001600160a01b039384169181019190915230602482015260448101889052911692506323b872dd9150606401602060405180830381600087803b15801561206557600080fd5b505af1158015612079573d6000803e3d6000fd5b505050506040513d601f19601f8201168201806040525081019061209d9190613076565b5060048054600a5460405163a9059cbb60e01b81526001600160a01b039182169381019390935260248301869052169063a9059cbb90604401602060405180830381600087803b1580156120f057600080fd5b505af1158015612104573d6000803e3d6000fd5b505050506040513d601f19601f820116820180604052508101906121289190613076565b50604051838152849033907f77c6871227e5d2dec8dadd5354f78453203e22e669cd0ec4c19d9a8c5edb31d0906020015b60405180910390a350505050565b600a60009054906101000a90046001600160a01b03166001600160a01b031663ae3050e16040518163ffffffff1660e01b815260040160206040518083038186803b1580156121b557600080fd5b505afa1580156121c9573d6000803e3d6000fd5b505050506040513d601f19601f820116820180604052508101906121ed9190613076565b6122295760405162461bcd60e51b815260206004820152600d60248201526c1c185d5cd95119511953195b99609a1b60448201526064016108b4565b6003546040516331a9108f60e11b81526004810183905233916001600160a01b031690636352211e9060240160206040518083038186803b15801561226d57600080fd5b505afa158015612281573d6000803e3d6000fd5b505050506040513d601f19601f820116820180604052508101906122a59190613059565b6001600160a01b0316146122eb5760405162461bcd60e51b815260206004820152600d60248201526c3cb7ba903737ba1037bbb732b960991b60448201526064016108b4565b6000818152600c6020526040902080546001600160a01b03191633908117909155612317908290612b1d565b50565b600d546040516332d53b1760e01b815260048101839052600091829182916001600160a01b0316906332d53b1790602401604080518083038186803b15801561236257600080fd5b505afa158015612376573d6000803e3d6000fd5b505050506040513d601f19601f8201168201806040525081019061239a9190613091565b90925090506123b9620f42406c0c9f2c9cd04674edea4000000061340d565b6123c3908261340d565b9050816119cc576000611982565b6123d9612a24565b6001600160a01b03811661243e5760405162461bcd60e51b815260206004820152602660248201527f4f776e61626c653a206e6577206f776e657220697320746865207a65726f206160448201526564647265737360d01b60648201526084016108b4565b61231781612a7e565b600061245282611cbf565b156124815761246082611d70565b6124698361198a565b111561247857611cb98261198a565b611cb982611d70565b61248a82611d70565b6124938361198a565b101561247857611cb98261198a565b60006124ad82611cbf565b156124bb57611b248261198a565b611b3e8261198a565b600d546040516332d53b1760e01b8152600481018390526000916001600160a01b0316906332d53b1790602401604080518083038186803b15801561250857600080fd5b505afa15801561251c573d6000803e3d6000fd5b505050506040513d601f19601f820116820180604052508101906125409190613091565b5090508061257c5760405162461bcd60e51b81526020600482015260096024820152681b9bc81c1c9bd99a5d60ba1b60448201526064016108b4565b5050565b6000838152601160209081526040918290205482518581526001600160a01b0391821692810192909252429282019290925284918616907f1fdbee5d1bd2901710e8945918b1a052ce67662661a2ccbf68420e4e430f8dab90606001612159565b6000818152601160209081526040808320815160808101835281546001600160a01b03908116825260018301549482019490945260028201548184015260039091015460ff1615156060820152600d54915163e6e6dd2f60e01b815260048101869052909392919091169063e6e6dd2f90602401600060405180830381600087803b15801561266f57600080fd5b505af1158015612683573d6000803e3d6000fd5b505050506040513d6000823e601f3d908101601f191682016040526126ab91908101906130bd565b5050600d5460405163eb02c30160e01b815260048101889052929450600093506001600160a01b03169163eb02c301915060240160e06040518083038186803b1580156126f757600080fd5b505afa15801561270b573d6000803e3d6000fd5b505050506040513d601f19601f8201168201806040525081019061272f9190613203565b505050505050905080600014156127805760405162461bcd60e51b81526020600482015260156024820152741c1bdcda5d1a5bdb881cda5e99481a5cc81b9d5b1b605a1b60448201526064016108b4565b6000836060015161279f5760105461279a906103e86133b4565b6127ae565b6010546127ae906103e861344e565b600d54604051637a3c4c1760e01b8152600481018890526103e8916001600160a01b031690637a3c4c179060240160206040518083038186803b1580156127f457600080fd5b505afa158015612808573d6000803e3d6000fd5b505050506040513d601f19601f8201168201806040525081019061282c91906131c8565b612836919061340d565b612840919061342f565b9050600080600061285088612da2565b9250925092506000600f60009054906101000a90046001600160a01b03166001600160a01b03166363ae21036040518163ffffffff1660e01b815260040160206040518083038186803b1580156128a657600080fd5b505afa1580156128ba573d6000803e3d6000fd5b505050506040513d601f19601f820116820180604052508101906128de91906131c8565b90506129156040518060400160405280601081526020016f34b73a3934b739b4b1ab30b63ab2a7b360811b8152506115948b61231a565b87516060890151604051636f7e879960e01b81526001600160a01b038a1692636f7e87999261295b9230928a92909189918e918e908d908c90600090819060040161328b565b600060405180830381600087803b15801561297557600080fd5b505af1158015612989573d6000803e3d6000fd5b50505050505050505050505050565b604051602481018390526044810182905261257c9060640160408051601f198184030181529190526020810180516001600160e01b0316637b3338ad60e11b179052613000565b61257c82826040516024016129f5929190613363565b60408051601f198184030181529190526020810180516001600160e01b0316632d839cb360e21b179052613000565b6000546001600160a01b03163314611b095760405162461bcd60e51b815260206004820181905260248201527f4f776e61626c653a2063616c6c6572206973206e6f7420746865206f776e657260448201526064016108b4565b600080546001600160a01b038381166001600160a01b0319831681178455604051919092169283917f8be0079c531659141344cd1fd0a4f28419497f9722a3daafe3b4186f6b6457e09190a35050565b612b1784848484604051602401612ae89493929190613385565b60408051601f198184030181529190526020810180516001600160e01b031663a7a8785360e01b179052613000565b50505050565b600d5460405163e6e6dd2f60e01b81526004810184905260009182916001600160a01b039091169063e6e6dd2f90602401600060405180830381600087803b158015612b6857600080fd5b505af1158015612b7c573d6000803e3d6000fd5b505050506040513d6000823e601f3d908101601f19168201604052612ba491908101906130bd565b5050600d5460405163fc4f068960e01b81529395509093506000926001600160a01b03909116915063fc4f068990612be0908690600401613350565b602060405180830381600087803b158015612bfa57600080fd5b505af1158015612c0e573d6000803e3d6000fd5b505050506040513d601f19601f82011682018060405250810190612c329190613059565b600d5460405163eb02c30160e01b81526004810188905291925060009182916001600160a01b03169063eb02c3019060240160e06040518083038186803b158015612c7c57600080fd5b505afa158015612c90573d6000803e3d6000fd5b505050506040513d601f19601f82011682018060405250810190612cb49190613203565b50506003546040516323b872dd60e01b8152336004820152306024820152604481018e9052959750929550506001600160a01b03909116926323b872dd92506064019050600060405180830381600087803b158015612d1257600080fd5b505af1158015612d26573d6000803e3d6000fd5b5050604080516080810182526001600160a01b03968716815260208082019687528183019586529715156060820190815260009b8c5260119098529920985189546001600160a01b0319169516949094178855509051600187015551600286015550516003909301805460ff1916931515939093179092555050565b600d5460405163eb02c30160e01b815260048101839052606091600091829182916001600160a01b039091169063eb02c3019060240160e06040518083038186803b158015612df057600080fd5b505afa158015612e04573d6000803e3d6000fd5b505050506040513d601f19601f82011682018060405250810190612e289190613203565b5050600d546040516332d53b1760e01b8152600481018c90529496506000955085946001600160a01b0390911693506332d53b1792506024019050604080518083038186803b158015612e7a57600080fd5b505afa158015612e8e573d6000803e3d6000fd5b505050506040513d601f19601f82011682018060405250810190612eb29190613091565b9150915081612ec15780612ec3565b825b60008881526011602052604090206003015490945060ff1615612f9157604080516002808252606082018352909160208301908036833750505060008881526011602052604081205482519298506001600160a01b031691889190612f2a57612f2a6134e6565b6001600160a01b039283166020918202929092010152600454875191169087906001908110612f5b57612f5b6134e6565b6001600160a01b03909216602092830291909101909101526064612f8085606361342f565b612f8a919061340d565b9450612ff6565b6040805160018082528183019092529060208083019080368337505060045482519298506001600160a01b031691889150600090612fd157612fd16134e6565b60200260200101906001600160a01b031690816001600160a01b031681525050600094505b5050509193909250565b80516a636f6e736f6c652e6c6f67602083016000808483855afa5050505050565b8051611b4f81613512565b80518015158114611b4f57600080fd5b60006020828403121561304e57600080fd5b81356119cc81613512565b60006020828403121561306b57600080fd5b81516119cc81613512565b60006020828403121561308857600080fd5b6119cc8261302c565b600080604083850312156130a457600080fd5b6130ad8361302c565b9150602083015190509250929050565b600080600080600060a086880312156130d557600080fd5b855167ffffffffffffffff808211156130ed57600080fd5b818801915088601f83011261310157600080fd5b815181811115613113576131136134fc565b604051601f8201601f19908116603f0116810190838211818310171561313b5761313b6134fc565b816040528281528b602084870101111561315457600080fd5b6131658360208301602088016134a4565b809950505050505061317960208701613021565b93506131876040870161302c565b925061319560608701613021565b91506131a360808701613021565b90509295509295909350565b6000602082840312156131c157600080fd5b5035919050565b6000602082840312156131da57600080fd5b5051919050565b600080604083850312156131f457600080fd5b50508035926020909101359150565b600080600080600080600060e0888a03121561321e57600080fd5b875196506020880151955060408801519450606088015193506080880151925061324a60a0890161302c565b915060c0880151905092959891949750929550565b600081518084526132778160208601602086016134a4565b601f01601f19169290920160200192915050565b6001600160a01b038c8116825261016060208084018290528d51918401829052600092916101808501918f01845b828110156132d957815185168452602093840193909101906001016132b9565b5050506001600160a01b038d16604085015291506132f49050565b89606083015288608083015261330e60a083018915159052565b8660c08301528560e08301528461010083015261333061012083018515159052565b6001600160a01b0383166101408301529c9b505050505050505050505050565b6020815260006119cc602083018461325f565b604081526000613376604083018561325f565b90508260208301529392505050565b608081526000613398608083018761325f565b6020830195909552506040810192909252606090910152919050565b600080821280156001600160ff1b03849003851316156133d6576133d66134d0565b600160ff1b83900384128116156133ef576133ef6134d0565b50500190565b60008219821115613408576134086134d0565b500190565b60008261342a57634e487b7160e01b600052601260045260246000fd5b500490565b6000816000190483118215151615613449576134496134d0565b500290565b60008083128015600160ff1b85018412161561346c5761346c6134d0565b6001600160ff1b0384018313811615613487576134876134d0565b50500390565b60008282101561349f5761349f6134d0565b500390565b60005b838110156134bf5781810151838201526020016134a7565b83811115612b175750506000910152565b634e487b7160e01b600052601160045260246000fd5b634e487b7160e01b600052603260045260246000fd5b634e487b7160e01b600052604160045260246000fd5b6001600160a01b038116811461231757600080fdfea2646970667358221220cdb987a9afd8050b54d14670f3ea9e9077f1e8a588f238ba602f8d729f1884e364736f6c63430008060033",
  "devdoc": {
    "kind": "dev",
    "methods": {
      "borrow(uint256,uint256)": {
        "params": {
          "amount": "borrow size (USDC)*",
          "id": "collateral ID"
        }
      },
      "calculateUpcomingFee(uint256)": {
        "params": {
          "id": "collateral ID*"
        }
      },
      "collateralInfo(uint256)": {
        "params": {
          "id": "collateral id*"
        }
      },
      "intrinsicValueOf(uint256)": {
        "params": {
          "id": "collateral ID*"
        }
      },
      "liquidate(uint256)": {
        "params": {
          "id": "position ID*"
        }
      },
      "liquidateByBorderPrice(uint256)": {
        "params": {
          "id": "collateral ID*"
        }
      },
      "lockCollateral(uint256)": {
        "params": {
          "id": "collateral ID*"
        }
      },
      "maxBorrowLimit(uint256)": {
        "params": {
          "id": "collateral ID*"
        }
      },
      "owner()": {
        "details": "Returns the address of the current owner."
      },
      "renounceOwnership()": {
        "details": "Leaves the contract without owner. It will not be possible to call `onlyOwner` functions anymore. Can only be called by the current owner. NOTE: Renouncing ownership will leave the contract without an owner, thereby removing any functionality that is only available to the owner."
      },
      "repay(uint256,uint256)": {
        "params": {
          "amount": "amount to repay (USDC)*",
          "id": "collateral ID"
        }
      },
      "setInterestRate(uint256)": {
        "params": {
          "value": "interest rate (in minutes)*"
        }
      },
      "setLTV(uint256)": {
        "params": {
          "value": "LTV coefficient.*"
        }
      },
      "setMinBorrowLimit(uint256)": {
        "params": {
          "value": "min. borrow size (USDC)*"
        }
      },
      "setPool(address)": {
        "params": {
          "value": "the address of the liquidity pool*"
        }
      },
      "transferOwnership(address)": {
        "details": "Transfers ownership of the contract to a new account (`newOwner`). Can only be called by the current owner."
      },
      "unlock(uint256)": {
        "params": {
          "id": "collateral ID*"
        }
      }
    },
    "version": 1
  },
  "userdoc": {
    "kind": "user",
    "methods": {
      "borrow(uint256,uint256)": {
        "notice": "send USDC to the user"
      },
      "calculateUpcomingFee(uint256)": {
        "notice": "used to calculate how much USDC user should pay as interest fee"
      },
      "collateralInfo(uint256)": {
        "notice": "returns the position size and the entry price by collateral ID"
      },
      "intrinsicValueOf(uint256)": {
        "notice": "calculates the intrinsic value of the collateral"
      },
      "liquidate(uint256)": {
        "notice": "used to liquidate the loan"
      },
      "liquidateByBorderPrice(uint256)": {
        "notice": "used to liquidate the loan by border price"
      },
      "lockCollateral(uint256)": {
        "notice": "used to lock the collateral (ERC-721) in DeDeLend"
      },
      "maxBorrowLimit(uint256)": {
        "notice": "calcualtes the maximum borrow size for the specific collateral"
      },
      "repay(uint256,uint256)": {
        "notice": "used to repay the user's debt"
      },
      "setInterestRate(uint256)": {
        "notice": "used to set new interest rate"
      },
      "setLTV(uint256)": {
        "notice": "used to set LTV coefficient"
      },
      "setMinBorrowLimit(uint256)": {
        "notice": "used to set the minimum borrow size"
      },
      "setPool(address)": {
        "notice": "used to connect a new liqidity pool"
      },
      "unlock(uint256)": {
        "notice": "sends the collateral token back to the user"
      }
    },
    "version": 1
  },
  "storageLayout": {
    "storage": [
      {
        "astId": 596,
        "contract": "contracts/DDL_GMX.sol:DDL_GMX",
        "label": "_owner",
        "offset": 0,
        "slot": "0",
        "type": "t_address"
      },
      {
        "astId": 5487,
        "contract": "contracts/DDL_GMX.sol:DDL_GMX",
        "label": "LTV",
        "offset": 0,
        "slot": "1",
        "type": "t_uint256"
      },
      {
        "astId": 5492,
        "contract": "contracts/DDL_GMX.sol:DDL_GMX",
        "label": "LTV_DECIMALS",
        "offset": 0,
        "slot": "2",
        "type": "t_uint256"
      },
      {
        "astId": 5495,
        "contract": "contracts/DDL_GMX.sol:DDL_GMX",
        "label": "collateralToken",
        "offset": 0,
        "slot": "3",
        "type": "t_contract(IERC721)3015"
      },
      {
        "astId": 5498,
        "contract": "contracts/DDL_GMX.sol:DDL_GMX",
        "label": "USDC",
        "offset": 0,
        "slot": "4",
        "type": "t_contract(IERC20)1473"
      },
      {
        "astId": 5501,
        "contract": "contracts/DDL_GMX.sol:DDL_GMX",
        "label": "interestRate",
        "offset": 0,
        "slot": "5",
        "type": "t_uint256"
      },
      {
        "astId": 5506,
        "contract": "contracts/DDL_GMX.sol:DDL_GMX",
        "label": "INTEREST_RATE_DECIMALS",
        "offset": 0,
        "slot": "6",
        "type": "t_uint256"
      },
      {
        "astId": 5508,
        "contract": "contracts/DDL_GMX.sol:DDL_GMX",
        "label": "minBorrowLimit",
        "offset": 0,
        "slot": "7",
        "type": "t_uint256"
      },
      {
        "astId": 5510,
        "contract": "contracts/DDL_GMX.sol:DDL_GMX",
        "label": "COLLATERAL_DECIMALS",
        "offset": 0,
        "slot": "8",
        "type": "t_uint256"
      },
      {
        "astId": 5512,
        "contract": "contracts/DDL_GMX.sol:DDL_GMX",
        "label": "BorderPriceCoef",
        "offset": 0,
        "slot": "9",
        "type": "t_uint256"
      },
      {
        "astId": 5515,
        "contract": "contracts/DDL_GMX.sol:DDL_GMX",
        "label": "pool",
        "offset": 0,
        "slot": "10",
        "type": "t_contract(IPoolDDL)9028"
      },
      {
        "astId": 5525,
        "contract": "contracts/DDL_GMX.sol:DDL_GMX",
        "label": "borrowedByCollateral",
        "offset": 0,
        "slot": "11",
        "type": "t_mapping(t_uint256,t_struct(BorrowedByCollateral)5520_storage)"
      },
      {
        "astId": 5529,
        "contract": "contracts/DDL_GMX.sol:DDL_GMX",
        "label": "collateralOwner",
        "offset": 0,
        "slot": "12",
        "type": "t_mapping(t_uint256,t_address)"
      },
      {
        "astId": 6395,
        "contract": "contracts/DDL_GMX.sol:DDL_GMX",
        "label": "accountManager",
        "offset": 0,
        "slot": "13",
        "type": "t_contract(IAccountManager)8743"
      },
      {
        "astId": 6398,
        "contract": "contracts/DDL_GMX.sol:DDL_GMX",
        "label": "vault",
        "offset": 0,
        "slot": "14",
        "type": "t_contract(IVault)9863"
      },
      {
        "astId": 6401,
        "contract": "contracts/DDL_GMX.sol:DDL_GMX",
        "label": "positionRouter",
        "offset": 0,
        "slot": "15",
        "type": "t_contract(IPositionRouter)9160"
      },
      {
        "astId": 6404,
        "contract": "contracts/DDL_GMX.sol:DDL_GMX",
        "label": "closeSlippage",
        "offset": 0,
        "slot": "16",
        "type": "t_int256"
      },
      {
        "astId": 6421,
        "contract": "contracts/DDL_GMX.sol:DDL_GMX",
        "label": "positionInfo",
        "offset": 0,
        "slot": "17",
        "type": "t_mapping(t_uint256,t_struct(PositionInfo)6416_storage)"
      }
    ],
    "types": {
      "t_address": {
        "encoding": "inplace",
        "label": "address",
        "numberOfBytes": "20"
      },
      "t_bool": {
        "encoding": "inplace",
        "label": "bool",
        "numberOfBytes": "1"
      },
      "t_contract(IAccountManager)8743": {
        "encoding": "inplace",
        "label": "contract IAccountManager",
        "numberOfBytes": "20"
      },
      "t_contract(IERC20)1473": {
        "encoding": "inplace",
        "label": "contract IERC20",
        "numberOfBytes": "20"
      },
      "t_contract(IERC721)3015": {
        "encoding": "inplace",
        "label": "contract IERC721",
        "numberOfBytes": "20"
      },
      "t_contract(IPoolDDL)9028": {
        "encoding": "inplace",
        "label": "contract IPoolDDL",
        "numberOfBytes": "20"
      },
      "t_contract(IPositionRouter)9160": {
        "encoding": "inplace",
        "label": "contract IPositionRouter",
        "numberOfBytes": "20"
      },
      "t_contract(IVault)9863": {
        "encoding": "inplace",
        "label": "contract IVault",
        "numberOfBytes": "20"
      },
      "t_int256": {
        "encoding": "inplace",
        "label": "int256",
        "numberOfBytes": "32"
      },
      "t_mapping(t_uint256,t_address)": {
        "encoding": "mapping",
        "key": "t_uint256",
        "label": "mapping(uint256 => address)",
        "numberOfBytes": "32",
        "value": "t_address"
      },
      "t_mapping(t_uint256,t_struct(BorrowedByCollateral)5520_storage)": {
        "encoding": "mapping",
        "key": "t_uint256",
        "label": "mapping(uint256 => struct DDL.BorrowedByCollateral)",
        "numberOfBytes": "32",
        "value": "t_struct(BorrowedByCollateral)5520_storage"
      },
      "t_mapping(t_uint256,t_struct(PositionInfo)6416_storage)": {
        "encoding": "mapping",
        "key": "t_uint256",
        "label": "mapping(uint256 => struct DDL_GMX.PositionInfo)",
        "numberOfBytes": "32",
        "value": "t_struct(PositionInfo)6416_storage"
      },
      "t_struct(BorrowedByCollateral)5520_storage": {
        "encoding": "inplace",
        "label": "struct DDL.BorrowedByCollateral",
        "members": [
          {
            "astId": 5517,
            "contract": "contracts/DDL_GMX.sol:DDL_GMX",
            "label": "borrowed",
            "offset": 0,
            "slot": "0",
            "type": "t_uint256"
          },
          {
            "astId": 5519,
            "contract": "contracts/DDL_GMX.sol:DDL_GMX",
            "label": "newBorrowTimestamp",
            "offset": 0,
            "slot": "1",
            "type": "t_uint256"
          }
        ],
        "numberOfBytes": "64"
      },
      "t_struct(PositionInfo)6416_storage": {
        "encoding": "inplace",
        "label": "struct DDL_GMX.PositionInfo",
        "members": [
          {
            "astId": 6409,
            "contract": "contracts/DDL_GMX.sol:DDL_GMX",
            "label": "indexToken",
            "offset": 0,
            "slot": "0",
            "type": "t_address"
          },
          {
            "astId": 6411,
            "contract": "contracts/DDL_GMX.sol:DDL_GMX",
            "label": "amount",
            "offset": 0,
            "slot": "1",
            "type": "t_uint256"
          },
          {
            "astId": 6413,
            "contract": "contracts/DDL_GMX.sol:DDL_GMX",
            "label": "openPrice",
            "offset": 0,
            "slot": "2",
            "type": "t_uint256"
          },
          {
            "astId": 6415,
            "contract": "contracts/DDL_GMX.sol:DDL_GMX",
            "label": "isLong",
            "offset": 0,
            "slot": "3",
            "type": "t_bool"
          }
        ],
        "numberOfBytes": "128"
      },
      "t_uint256": {
        "encoding": "inplace",
        "label": "uint256",
        "numberOfBytes": "32"
      }
    }
  }
}