{
  "address": "0x2bfEFd63DB71B33B62d1EDF29329f8EF52FFBddd",
  "abi": [
    {
      "inputs": [
        {
          "internalType": "contract IPositionRouter",
          "name": "_positionRouter",
          "type": "address"
        },
        {
          "internalType": "contract IAccountManager",
          "name": "_accountManager",
          "type": "address"
        },
        {
          "internalType": "contract IVault",
          "name": "_vault",
          "type": "address"
        },
        {
          "internalType": "contract IERC721",
          "name": "_collateralToken",
          "type": "address"
        },
        {
          "internalType": "contract IERC20",
          "name": "_USDC",
          "type": "address"
        },
        {
          "internalType": "uint256",
          "name": "_minBorrowLimit",
          "type": "uint256"
        },
        {
          "internalType": "uint256",
          "name": "_ltv",
          "type": "uint256"
        },
        {
          "internalType": "uint256",
          "name": "_COLLATERAL_DECIMALS",
          "type": "uint256"
        },
        {
          "internalType": "uint256",
          "name": "_BorderPriceCoef",
          "type": "uint256"
        }
      ],
      "stateMutability": "nonpayable",
      "type": "constructor"
    },
    {
      "anonymous": false,
      "inputs": [
        {
          "indexed": true,
          "internalType": "address",
          "name": "user",
          "type": "address"
        },
        {
          "indexed": true,
          "internalType": "uint256",
          "name": "id",
          "type": "uint256"
        },
        {
          "indexed": false,
          "internalType": "uint256",
          "name": "amount",
          "type": "uint256"
        },
        {
          "indexed": false,
          "internalType": "address",
          "name": "strategy",
          "type": "address"
        },
        {
          "indexed": false,
          "internalType": "uint256",
          "name": "timestamp",
          "type": "uint256"
        }
      ],
      "name": "Borrow",
      "type": "event"
    },
    {
      "anonymous": false,
      "inputs": [
        {
          "indexed": true,
          "internalType": "address",
          "name": "user",
          "type": "address"
        },
        {
          "indexed": true,
          "internalType": "uint256",
          "name": "optionID",
          "type": "uint256"
        },
        {
          "indexed": false,
          "internalType": "uint256",
          "name": "amount",
          "type": "uint256"
        },
        {
          "indexed": false,
          "internalType": "uint256",
          "name": "poolProfit",
          "type": "uint256"
        },
        {
          "indexed": false,
          "internalType": "uint256",
          "name": "liqFee",
          "type": "uint256"
        }
      ],
      "name": "ForcedExercise",
      "type": "event"
    },
    {
      "anonymous": false,
      "inputs": [
        {
          "indexed": true,
          "internalType": "address",
          "name": "user",
          "type": "address"
        },
        {
          "indexed": true,
          "internalType": "uint256",
          "name": "optionID",
          "type": "uint256"
        },
        {
          "indexed": false,
          "internalType": "uint256",
          "name": "amount",
          "type": "uint256"
        },
        {
          "indexed": false,
          "internalType": "uint256",
          "name": "poolProfit",
          "type": "uint256"
        },
        {
          "indexed": false,
          "internalType": "uint256",
          "name": "liqFee",
          "type": "uint256"
        }
      ],
      "name": "Liquidate",
      "type": "event"
    },
    {
      "anonymous": false,
      "inputs": [
        {
          "indexed": true,
          "internalType": "address",
          "name": "user",
          "type": "address"
        },
        {
          "indexed": true,
          "internalType": "uint256",
          "name": "optionID",
          "type": "uint256"
        },
        {
          "indexed": false,
          "internalType": "uint256",
          "name": "userReturn",
          "type": "uint256"
        },
        {
          "indexed": false,
          "internalType": "uint256",
          "name": "poolReturn",
          "type": "uint256"
        },
        {
          "indexed": false,
          "internalType": "uint256",
          "name": "liqFee",
          "type": "uint256"
        }
      ],
      "name": "LiquidateByBorderPrice",
      "type": "event"
    },
    {
      "anonymous": false,
      "inputs": [
        {
          "indexed": true,
          "internalType": "address",
          "name": "previousOwner",
          "type": "address"
        },
        {
          "indexed": true,
          "internalType": "address",
          "name": "newOwner",
          "type": "address"
        }
      ],
      "name": "OwnershipTransferred",
      "type": "event"
    },
    {
      "anonymous": false,
      "inputs": [
        {
          "indexed": true,
          "internalType": "address",
          "name": "user",
          "type": "address"
        },
        {
          "indexed": true,
          "internalType": "uint256",
          "name": "optionID",
          "type": "uint256"
        },
        {
          "indexed": false,
          "internalType": "uint256",
          "name": "amount",
          "type": "uint256"
        }
      ],
      "name": "Repay",
      "type": "event"
    },
    {
      "anonymous": false,
      "inputs": [
        {
          "indexed": true,
          "internalType": "address",
          "name": "user",
          "type": "address"
        },
        {
          "indexed": true,
          "internalType": "uint256",
          "name": "optionID",
          "type": "uint256"
        }
      ],
      "name": "Unlock",
      "type": "event"
    },
    {
      "inputs": [],
      "name": "BorderPriceCoef",
      "outputs": [
        {
          "internalType": "uint256",
          "name": "",
          "type": "uint256"
        }
      ],
      "stateMutability": "view",
      "type": "function"
    },
    {
      "inputs": [],
      "name": "COLLATERAL_DECIMALS",
      "outputs": [
        {
          "internalType": "uint256",
          "name": "",
          "type": "uint256"
        }
      ],
      "stateMutability": "view",
      "type": "function"
    },
    {
      "inputs": [],
      "name": "INTEREST_RATE_DECIMALS",
      "outputs": [
        {
          "internalType": "uint256",
          "name": "",
          "type": "uint256"
        }
      ],
      "stateMutability": "view",
      "type": "function"
    },
    {
      "inputs": [],
      "name": "LTV",
      "outputs": [
        {
          "internalType": "uint256",
          "name": "",
          "type": "uint256"
        }
      ],
      "stateMutability": "view",
      "type": "function"
    },
    {
      "inputs": [],
      "name": "LTV_DECIMALS",
      "outputs": [
        {
          "internalType": "uint256",
          "name": "",
          "type": "uint256"
        }
      ],
      "stateMutability": "view",
      "type": "function"
    },
    {
      "inputs": [],
      "name": "USDC",
      "outputs": [
        {
          "internalType": "contract IERC20",
          "name": "",
          "type": "address"
        }
      ],
      "stateMutability": "view",
      "type": "function"
    },
    {
      "inputs": [],
      "name": "accountManager",
      "outputs": [
        {
          "internalType": "contract IAccountManager",
          "name": "",
          "type": "address"
        }
      ],
      "stateMutability": "view",
      "type": "function"
    },
    {
      "inputs": [
        {
          "internalType": "uint256",
          "name": "id",
          "type": "uint256"
        }
      ],
      "name": "borderPrice",
      "outputs": [
        {
          "internalType": "uint256",
          "name": "price",
          "type": "uint256"
        }
      ],
      "stateMutability": "view",
      "type": "function"
    },
    {
      "inputs": [
        {
          "internalType": "uint256",
          "name": "id",
          "type": "uint256"
        },
        {
          "internalType": "uint256",
          "name": "amount",
          "type": "uint256"
        }
      ],
      "name": "borrow",
      "outputs": [],
      "stateMutability": "nonpayable",
      "type": "function"
    },
    {
      "inputs": [
        {
          "internalType": "uint256",
          "name": "",
          "type": "uint256"
        }
      ],
      "name": "borrowedByCollateral",
      "outputs": [
        {
          "internalType": "uint256",
          "name": "borrowed",
          "type": "uint256"
        },
        {
          "internalType": "uint256",
          "name": "newBorrowTimestamp",
          "type": "uint256"
        }
      ],
      "stateMutability": "view",
      "type": "function"
    },
    {
      "inputs": [
        {
          "internalType": "uint256",
          "name": "id",
          "type": "uint256"
        }
      ],
      "name": "calculateUpcomingFee",
      "outputs": [
        {
          "internalType": "uint256",
          "name": "upcomingFee",
          "type": "uint256"
        }
      ],
      "stateMutability": "view",
      "type": "function"
    },
    {
      "inputs": [],
      "name": "closeSlippage",
      "outputs": [
        {
          "internalType": "int256",
          "name": "",
          "type": "int256"
        }
      ],
      "stateMutability": "view",
      "type": "function"
    },
    {
      "inputs": [
        {
          "internalType": "uint256",
          "name": "id",
          "type": "uint256"
        }
      ],
      "name": "collateralInfo",
      "outputs": [
        {
          "internalType": "uint256",
          "name": "amount",
          "type": "uint256"
        },
        {
          "internalType": "uint256",
          "name": "price",
          "type": "uint256"
        }
      ],
      "stateMutability": "view",
      "type": "function"
    },
    {
      "inputs": [
        {
          "internalType": "uint256",
          "name": "",
          "type": "uint256"
        }
      ],
      "name": "collateralOwner",
      "outputs": [
        {
          "internalType": "address",
          "name": "",
          "type": "address"
        }
      ],
      "stateMutability": "view",
      "type": "function"
    },
    {
      "inputs": [
        {
          "internalType": "uint256",
          "name": "id",
          "type": "uint256"
        }
      ],
      "name": "collateralState",
      "outputs": [
        {
          "internalType": "bool",
          "name": "",
          "type": "bool"
        }
      ],
      "stateMutability": "view",
      "type": "function"
    },
    {
      "inputs": [
        {
          "internalType": "uint256",
          "name": "id",
          "type": "uint256"
        }
      ],
      "name": "collateralStateByBorderPrice",
      "outputs": [
        {
          "internalType": "bool",
          "name": "",
          "type": "bool"
        }
      ],
      "stateMutability": "view",
      "type": "function"
    },
    {
      "inputs": [],
      "name": "collateralToken",
      "outputs": [
        {
          "internalType": "contract IERC721",
          "name": "",
          "type": "address"
        }
      ],
      "stateMutability": "view",
      "type": "function"
    },
    {
      "inputs": [
        {
          "internalType": "uint256",
          "name": "id",
          "type": "uint256"
        }
      ],
      "name": "currentBorderPrice",
      "outputs": [
        {
          "internalType": "uint256",
          "name": "price",
          "type": "uint256"
        }
      ],
      "stateMutability": "view",
      "type": "function"
    },
    {
      "inputs": [
        {
          "internalType": "uint256",
          "name": "id",
          "type": "uint256"
        }
      ],
      "name": "currentPrice",
      "outputs": [
        {
          "internalType": "uint256",
          "name": "",
          "type": "uint256"
        }
      ],
      "stateMutability": "view",
      "type": "function"
    },
    {
      "inputs": [
        {
          "internalType": "address",
          "name": "",
          "type": "address"
        },
        {
          "internalType": "address",
          "name": "",
          "type": "address"
        },
        {
          "internalType": "address",
          "name": "",
          "type": "address"
        },
        {
          "internalType": "bool",
          "name": "",
          "type": "bool"
        },
        {
          "internalType": "uint256",
          "name": "_sizeDelta",
          "type": "uint256"
        }
      ],
      "name": "getPositionFee",
      "outputs": [
        {
          "internalType": "uint256",
          "name": "",
          "type": "uint256"
        }
      ],
      "stateMutability": "nonpayable",
      "type": "function"
    },
    {
      "inputs": [
        {
          "internalType": "bytes32",
          "name": "positionKey",
          "type": "bytes32"
        },
        {
          "internalType": "bool",
          "name": "isExecuted",
          "type": "bool"
        },
        {
          "internalType": "bool",
          "name": "isIncrease",
          "type": "bool"
        }
      ],
      "name": "gmxPositionCallback",
      "outputs": [],
      "stateMutability": "nonpayable",
      "type": "function"
    },
    {
      "inputs": [],
      "name": "interestRate",
      "outputs": [
        {
          "internalType": "uint256",
          "name": "",
          "type": "uint256"
        }
      ],
      "stateMutability": "view",
      "type": "function"
    },
    {
      "inputs": [
        {
          "internalType": "uint256",
          "name": "id",
          "type": "uint256"
        }
      ],
      "name": "intrinsicValueOf",
      "outputs": [
        {
          "internalType": "uint256",
          "name": "delta",
          "type": "uint256"
        }
      ],
      "stateMutability": "view",
      "type": "function"
    },
    {
      "inputs": [
        {
          "internalType": "uint256",
          "name": "id",
          "type": "uint256"
        }
      ],
      "name": "isLong",
      "outputs": [
        {
          "internalType": "bool",
          "name": "",
          "type": "bool"
        }
      ],
      "stateMutability": "view",
      "type": "function"
    },
    {
      "inputs": [
        {
          "internalType": "uint256",
          "name": "id",
          "type": "uint256"
        }
      ],
      "name": "liqPrice",
      "outputs": [
        {
          "internalType": "uint256",
          "name": "price",
          "type": "uint256"
        }
      ],
      "stateMutability": "view",
      "type": "function"
    },
    {
      "inputs": [
        {
          "internalType": "uint256",
          "name": "id",
          "type": "uint256"
        }
      ],
      "name": "liquidate",
      "outputs": [],
      "stateMutability": "payable",
      "type": "function"
    },
    {
      "inputs": [
        {
          "internalType": "uint256",
          "name": "id",
          "type": "uint256"
        }
      ],
      "name": "liquidateByBorderPrice",
      "outputs": [],
      "stateMutability": "payable",
      "type": "function"
    },
    {
      "inputs": [
        {
          "internalType": "uint256",
          "name": "id",
          "type": "uint256"
        }
      ],
      "name": "lockCollateral",
      "outputs": [],
      "stateMutability": "nonpayable",
      "type": "function"
    },
    {
      "inputs": [
        {
          "internalType": "uint256",
          "name": "id",
          "type": "uint256"
        }
      ],
      "name": "maxBorrowLimit",
      "outputs": [
        {
          "internalType": "uint256",
          "name": "",
          "type": "uint256"
        }
      ],
      "stateMutability": "view",
      "type": "function"
    },
    {
      "inputs": [],
      "name": "minBorrowLimit",
      "outputs": [
        {
          "internalType": "uint256",
          "name": "",
          "type": "uint256"
        }
      ],
      "stateMutability": "view",
      "type": "function"
    },
    {
      "inputs": [],
      "name": "owner",
      "outputs": [
        {
          "internalType": "address",
          "name": "",
          "type": "address"
        }
      ],
      "stateMutability": "view",
      "type": "function"
    },
    {
      "inputs": [],
      "name": "pool",
      "outputs": [
        {
          "internalType": "contract IPoolDDL",
          "name": "",
          "type": "address"
        }
      ],
      "stateMutability": "view",
      "type": "function"
    },
    {
      "inputs": [
        {
          "internalType": "uint256",
          "name": "",
          "type": "uint256"
        }
      ],
      "name": "positionInfo",
      "outputs": [
        {
          "internalType": "address",
          "name": "indexToken",
          "type": "address"
        },
        {
          "internalType": "uint256",
          "name": "amount",
          "type": "uint256"
        },
        {
          "internalType": "uint256",
          "name": "openPrice",
          "type": "uint256"
        },
        {
          "internalType": "bool",
          "name": "isLong",
          "type": "bool"
        }
      ],
      "stateMutability": "view",
      "type": "function"
    },
    {
      "inputs": [],
      "name": "positionRouter",
      "outputs": [
        {
          "internalType": "contract IPositionRouter",
          "name": "",
          "type": "address"
        }
      ],
      "stateMutability": "view",
      "type": "function"
    },
    {
      "inputs": [],
      "name": "renounceOwnership",
      "outputs": [],
      "stateMutability": "nonpayable",
      "type": "function"
    },
    {
      "inputs": [
        {
          "internalType": "uint256",
          "name": "id",
          "type": "uint256"
        },
        {
          "internalType": "uint256",
          "name": "amount",
          "type": "uint256"
        }
      ],
      "name": "repay",
      "outputs": [],
      "stateMutability": "nonpayable",
      "type": "function"
    },
    {
      "inputs": [
        {
          "internalType": "uint256",
          "name": "value",
          "type": "uint256"
        }
      ],
      "name": "setBorderPriceCoef",
      "outputs": [],
      "stateMutability": "nonpayable",
      "type": "function"
    },
    {
      "inputs": [
        {
          "internalType": "uint256",
          "name": "value",
          "type": "uint256"
        }
      ],
      "name": "setInterestRate",
      "outputs": [],
      "stateMutability": "nonpayable",
      "type": "function"
    },
    {
      "inputs": [
        {
          "internalType": "uint256",
          "name": "value",
          "type": "uint256"
        }
      ],
      "name": "setInterestRateDecimals",
      "outputs": [],
      "stateMutability": "nonpayable",
      "type": "function"
    },
    {
      "inputs": [
        {
          "internalType": "uint256",
          "name": "value",
          "type": "uint256"
        }
      ],
      "name": "setLTV",
      "outputs": [],
      "stateMutability": "nonpayable",
      "type": "function"
    },
    {
      "inputs": [
        {
          "internalType": "uint256",
          "name": "value",
          "type": "uint256"
        }
      ],
      "name": "setMinBorrowLimit",
      "outputs": [],
      "stateMutability": "nonpayable",
      "type": "function"
    },
    {
      "inputs": [
        {
          "internalType": "address",
          "name": "value",
          "type": "address"
        }
      ],
      "name": "setPool",
      "outputs": [],
      "stateMutability": "nonpayable",
      "type": "function"
    },
    {
      "inputs": [
        {
          "internalType": "address",
          "name": "newOwner",
          "type": "address"
        }
      ],
      "name": "transferOwnership",
      "outputs": [],
      "stateMutability": "nonpayable",
      "type": "function"
    },
    {
      "inputs": [
        {
          "internalType": "uint256",
          "name": "id",
          "type": "uint256"
        }
      ],
      "name": "unlock",
      "outputs": [],
      "stateMutability": "nonpayable",
      "type": "function"
    },
    {
      "inputs": [],
      "name": "vault",
      "outputs": [
        {
          "internalType": "contract IVault",
          "name": "",
          "type": "address"
        }
      ],
      "stateMutability": "view",
      "type": "function"
    }
  ],
  "transactionHash": "0xc610e03e09e978d2ebdcdac211f14f62cd2ee87fba0238492cfe027aadee508e",
  "args": [
    "0xb87a436B93fFE9D75c5cFA7bAcFff96430b09868",
    "0x42F2955b3b48850E317F0b358B35b53CE7B53516",
    "0x489ee077994B6658eAfA855C308275EAd8097C4A",
    "0x7EB017B1c54cCFa923330F11e4dC59AF83aC862a",
    "0xFF970A61A04b1cA14834A43f5dE4533eBDDB5CC8",
    0,
    9000,
    6,
    4
  ],
  "numDeployments": 1,
  "solcInputHash": "647a8d408c389b8db667d696d585687d",
  "bytecode": "0x60806040526127106002556a0fbce2c2bf9557000000006005556c0c9f2c9cd04674edea40000000600655600a6010553480156200003c57600080fd5b50604051620044f1380380620044f18339810160408190526200005f9162000160565b858585858585620000703362000110565b600380546001600160a01b038089166001600160a01b031992831617909255600480549288169290911691909117905560078490556001839055620000b782600a62000250565b6008556009555050600f80546001600160a01b03199081166001600160a01b039e8f1617909155600d805482169c8e169c909c17909b555050600e80549099169790991696909617909655506200034a95505050505050565b600080546001600160a01b038381166001600160a01b0319831681178455604051919092169283917f8be0079c531659141344cd1fd0a4f28419497f9722a3daafe3b4186f6b6457e09190a35050565b60008060008060008060008060006101208a8c0312156200018057600080fd5b89516200018d8162000331565b60208b0151909950620001a08162000331565b60408b0151909850620001b38162000331565b60608b0151909750620001c68162000331565b60808b0151909650620001d98162000331565b8095505060a08a0151935060c08a0151925060e08a015191506101008a015190509295985092959850929598565b600181815b80851115620002485781600019048211156200022c576200022c6200031b565b808516156200023a57918102915b93841c93908002906200020c565b509250929050565b60006200025e838362000265565b9392505050565b600082620002765750600162000315565b81620002855750600062000315565b81600181146200029e5760028114620002a957620002c9565b600191505062000315565b60ff841115620002bd57620002bd6200031b565b50506001821b62000315565b5060208310610133831016604e8410600b8410161715620002ee575081810a62000315565b620002fa838362000207565b80600019048211156200031157620003116200031b565b0290505b92915050565b634e487b7160e01b600052601160045260246000fd5b6001600160a01b03811681146200034757600080fd5b50565b614197806200035a6000396000f3fe6080604052600436106102725760003560e01c806389097a6a1161014f578063d88c6910116100c1578063f08923aa1161007a578063f08923aa146107b7578063f2fde38b146107d7578063fbfa77cf146107f7578063fdaf6ac314610817578063fe651d1c14610837578063fecb63571461085757600080fd5b8063d88c691014610701578063d8aed14514610721578063e2233cbd14610741578063e260d74714610761578063e5bad72314610777578063edf3daec1461079757600080fd5b80639e3aa5b1116101135780639e3aa5b11461062d578063a226b4831461064d578063b13de2661461066d578063b2016bd41461068d578063b3b840df146106ad578063c3707709146106e157600080fd5b806389097a6a1461053e57806389a30271146105b95780638da5cb5b146105d957806391c2c469146105f75780639d38d0641461061757600080fd5b80634de33fda116101e857806362965d8e116101ac57806362965d8e1461049757806366234ffa146104ad578063715018a6146104c357806379881698146104d85780637a3c4c17146105085780637c3a00fd1461052857600080fd5b80634de33fda146103f7578063587a03c2146104175780635f84f302146104375780636198e3391461045757806361ef161f1461047757600080fd5b806324a6665e1161023a57806324a6665e14610343578063415f12401461037857806341f6cf4e1461038b5780634437152a146103a1578063484f1371146103c15780634ddde78d146103e157600080fd5b80630ecbcdab1461027757806316f0115b1461029957806317582981146102d65780631a426216146102fa578063200549ca1461030d575b600080fd5b34801561028357600080fd5b50610297610292366004613e6c565b610877565b005b3480156102a557600080fd5b50600a546102b9906001600160a01b031681565b6040516001600160a01b0390911681526020015b60405180910390f35b3480156102e257600080fd5b506102ec60095481565b6040519081526020016102cd565b610297610308366004613e53565b610d54565b34801561031957600080fd5b506102b9610328366004613e53565b600c602052600090815260409020546001600160a01b031681565b34801561034f57600080fd5b5061036361035e366004613e53565b610e77565b604080519283526020830191909152016102cd565b610297610386366004613e53565b610f5d565b34801561039757600080fd5b506102ec60105481565b3480156103ad57600080fd5b506102976103bc366004613c96565b61107d565b3480156103cd57600080fd5b506102ec6103dc366004613e53565b6110a7565b3480156103ed57600080fd5b506102ec60085481565b34801561040357600080fd5b506102ec610412366004613e53565b611110565b34801561042357600080fd5b50610297610432366004613e53565b61116a565b34801561044357600080fd5b50610297610452366004613e53565b611177565b34801561046357600080fd5b50610297610472366004613e53565b611184565b34801561048357600080fd5b50600f546102b9906001600160a01b031681565b3480156104a357600080fd5b506102ec60015481565b3480156104b957600080fd5b506102ec60065481565b3480156104cf57600080fd5b5061029761127a565b3480156104e457600080fd5b506104f86104f3366004613e53565b61128e565b60405190151581526020016102cd565b34801561051457600080fd5b506102ec610523366004613e53565b6112d2565b34801561053457600080fd5b506102ec60055481565b34801561054a57600080fd5b5061058d610559366004613e53565b60116020526000908152604090208054600182015460028301546003909301546001600160a01b0390921692909160ff1684565b604080516001600160a01b039095168552602085019390935291830152151560608201526080016102cd565b3480156105c557600080fd5b506004546102b9906001600160a01b031681565b3480156105e557600080fd5b506000546001600160a01b03166102b9565b34801561060357600080fd5b50600d546102b9906001600160a01b031681565b34801561062357600080fd5b506102ec60025481565b34801561063957600080fd5b506102ec610648366004613e53565b611414565b34801561065957600080fd5b506104f8610668366004613e53565b61143f565b34801561067957600080fd5b50610297610688366004613e53565b6114bc565b34801561069957600080fd5b506003546102b9906001600160a01b031681565b3480156106b957600080fd5b506103636106c8366004613e53565b600b602052600090815260409020805460019091015482565b3480156106ed57600080fd5b506102976106fc366004613e53565b61150b565b34801561070d57600080fd5b506102ec61071c366004613e53565b611518565b34801561072d57600080fd5b5061029761073c366004613e6c565b6115c4565b34801561074d57600080fd5b5061029761075c366004613e53565b6118b7565b34801561076d57600080fd5b506102ec60075481565b34801561078357600080fd5b506102ec610792366004613e53565b611a67565b3480156107a357600080fd5b506102976107b2366004613d98565b611b1e565b3480156107c357600080fd5b506102976107d2366004613e53565b61233b565b3480156107e357600080fd5b506102976107f2366004613c96565b612348565b34801561080357600080fd5b50600e546102b9906001600160a01b031681565b34801561082357600080fd5b506102ec610832366004613cd0565b6123be565b34801561084357600080fd5b506102ec610852366004613e53565b6126e4565b34801561086357600080fd5b506104f8610872366004613e53565b61273f565b600a60009054906101000a90046001600160a01b03166001600160a01b031663ae3050e16040518163ffffffff1660e01b815260040160206040518083038186803b1580156108c557600080fd5b505afa1580156108d9573d6000803e3d6000fd5b505050506040513d601f19601f820116820180604052508101906108fd9190613d34565b61093e5760405162461bcd60e51b815260206004820152600d60248201526c1c185d5cd95119511953195b99609a1b60448201526064015b60405180910390fd5b6000828152600b602052604081209061095684611414565b90506000600a60009054906101000a90046001600160a01b03166001600160a01b03166312b583496040518163ffffffff1660e01b815260040160206040518083038186803b1580156109a857600080fd5b505afa1580156109bc573d6000803e3d6000fd5b505050506040513d601f19601f820116820180604052508101906109e09190613d7f565b9050600754841015610a345760405162461bcd60e51b815260206004820152601a60248201527f616d6f756e74206c657373206d696e426f72726f774c696d69740000000000006044820152606401610935565b82548290610a429086614063565b1115610a845760405162461bcd60e51b8152602060048201526011602482015270626f72726f7720697320746f6f2062696760781b6044820152606401610935565b6000858152600c60205260409020546001600160a01b03163314610ae25760405162461bcd60e51b81526020600482015260156024820152743cb7ba9030b932903737ba103a34329037bbb732b960591b6044820152606401610935565b80841115610b405760405162461bcd60e51b815260206004820152602560248201527f7468657265206973206e6f7420656e6f756768206d6f6e657920696e20746865604482015264081c1bdbdb60da1b6064820152608401610935565b610b4985612761565b610b528561143f565b15610bb257610b6085611110565b610b69866112d2565b11610bad5760405162461bcd60e51b815260206004820152601460248201527374686520707269636520697320746f6f206c6f7760601b6044820152606401610935565b610c09565b610bbb85611110565b610bc4866112d2565b10610c095760405162461bcd60e51b81526020600482015260156024820152740e8d0ca40e0e4d2c6ca40d2e640e8dede40d0d2ced605b1b6044820152606401610935565b6000610c14866110a7565b9050604051806040016040528082866000015488610c329190614063565b610c3c9190614063565b8152426020918201526000888152600b82526040902082518155910151600190910155600a546001600160a01b0316632bc355ca610c7a8388614063565b6040518263ffffffff1660e01b8152600401610c9891815260200190565b600060405180830381600087803b158015610cb257600080fd5b505af1158015610cc6573d6000803e3d6000fd5b5050600a546000898152600c602052604090819020549051633419e74d60e21b81526001600160a01b03928316945063d0679d349350610d0e92909116908990600401613fe1565b600060405180830381600087803b158015610d2857600080fd5b505af1158015610d3c573d6000803e3d6000fd5b50505050610d4c3387874261281d565b505050505050565b610d5d8161273f565b610d995760405162461bcd60e51b815260206004820152600d60248201526c696e76616c696420707269636560981b6044820152606401610935565b600f60009054906101000a90046001600160a01b03166001600160a01b03166363ae21036040518163ffffffff1660e01b815260040160206040518083038186803b158015610de757600080fd5b505afa158015610dfb573d6000803e3d6000fd5b505050506040513d601f19601f82011682018060405250810190610e1f9190613d7f565b341015610e695760405162461bcd60e51b81526020600482015260186024820152771b5a5b915e1958dd5d1a5bdb919959481d1bdbc81cdb585b60421b6044820152606401610935565b610e7481600161287e565b50565b600d5460405163eb02c30160e01b8152600481018390526000918291829182916001600160a01b039091169063eb02c301906024016101006040518083038186803b158015610ec557600080fd5b505afa158015610ed9573d6000803e3d6000fd5b505050506040513d601f19601f82011682018060405250810190610efd9190613e8e565b50505050509250509150620f42406c0c9f2c9cd04674edea40000000610f23919061407b565b610f2d908361407b565b610f486305f5e1006c0c9f2c9cd04674edea4000000061407b565b610f52908361407b565b935093505050915091565b610f668161128e565b610fa25760405162461bcd60e51b815260206004820152600d60248201526c696e76616c696420707269636560981b6044820152606401610935565b600f60009054906101000a90046001600160a01b03166001600160a01b03166363ae21036040518163ffffffff1660e01b815260040160206040518083038186803b158015610ff057600080fd5b505afa158015611004573d6000803e3d6000fd5b505050506040513d601f19601f820116820180604052508101906110289190613d7f565b3410156110725760405162461bcd60e51b81526020600482015260186024820152771b5a5b915e1958dd5d1a5bdb919959481d1bdbc81cdb585b60421b6044820152606401610935565b610e7481600061287e565b611085612b12565b600a80546001600160a01b0319166001600160a01b0392909216919091179055565b6000818152600b6020526040812060018101548290603c906110c990426140fb565b6110d3919061407b565b9050600654600554826110e6919061409d565b83546110f49060649061407b565b6110fe919061409d565b611108919061407b565b949350505050565b60008061111c83610e77565b9150506111288361143f565b15611159576064600954606461113e9190614063565b611148908361409d565b611152919061407b565b9392505050565b6064600954606461113e91906140fb565b611172612b12565b600655565b61117f612b12565b600555565b6000818152600b6020526040902054156111d25760405162461bcd60e51b815260206004820152600f60248201526e1b1bd85b881a5cc8189b1bd8dad959608a1b6044820152606401610935565b6003546000828152600c6020526040908190205490516323b872dd60e01b81526001600160a01b03928316926323b872dd92611218923092909116908690600401613ef8565b600060405180830381600087803b15801561123257600080fd5b505af1158015611246573d6000803e3d6000fd5b50506040518392503391507f6381d9813cabeb57471b5a7e05078e64845ccdb563146a6911d536f24ce960f190600090a350565b611282612b12565b61128c6000612b6c565b565b60006112998261143f565b156112b8576112a782611518565b6112b0836112d2565b111592915050565b6112c182611518565b6112ca836112d2565b101592915050565b6000818152601160209081526040808320815160808101835281546001600160a01b031681526001820154938101939093526002810154918301919091526003015460ff16151560608201526113278361143f565b156113c6576113476305f5e1006c0c9f2c9cd04674edea4000000061407b565b600e548251604051637092736960e11b81526001600160a01b03918216600482015291169063e124e6d2906024015b60206040518083038186803b15801561138e57600080fd5b505afa1580156113a2573d6000803e3d6000fd5b505050506040513d601f19601f820116820180604052508101906111489190613d7f565b6113e16305f5e1006c0c9f2c9cd04674edea4000000061407b565b600e5482516040516340d3096b60e11b81526001600160a01b0391821660048201529116906381a612d690602401611376565b600060015460025461142584611a67565b61142f919061407b565b611439919061409d565b92915050565b600d5460405163a226b48360e01b8152600481018390526000916001600160a01b03169063a226b4839060240160206040518083038186803b15801561148457600080fd5b505afa158015611498573d6000803e3d6000fd5b505050506040513d601f19601f820116820180604052508101906114399190613d34565b6114c4612b12565b611f408111156115065760405162461bcd60e51b815260206004820152600d60248201526c696e76616c69642076616c756560981b6044820152606401610935565b600155565b611513612b12565b600755565b6000818152600b60205260408120818061153185610e77565b9150915061153e8561143f565b15611588578254829061155490620f424061409d565b61155e919061407b565b61156990606461409d565b611575906104b061409d565b61157f9082614063565b95945050505050565b8254829061159990620f424061409d565b6115a3919061407b565b6115ae90606461409d565b6115ba906104b061409d565b61157f90826140fb565b6000828152600b60205260409020546116115760405162461bcd60e51b815260206004820152600f60248201526e1bdc1d1a5bdb881c995919595b5959608a1b6044820152606401610935565b600061161c836110a7565b6000848152600b6020526040902054909150611639908290614063565b82111561167a5760405162461bcd60e51b815260206004820152600f60248201526e1d1bdbc81b5d58da08185b5bdd5b9d608a1b6044820152606401610935565b6000838152600c60205260409020546001600160a01b0316331461169d57600080fd5b6000838152600b602052604081205483906116b9908490614063565b6116c391906140fb565b600a549091506001600160a01b0316631b45a68d6116e184866140fb565b6040518263ffffffff1660e01b81526004016116ff91815260200190565b600060405180830381600087803b15801561171957600080fd5b505af115801561172d573d6000803e3d6000fd5b505060408051808201825284815242602080830191825260008a8152600b825284812093518455915160019093019290925560048054600c909352908390205492516323b872dd60e01b81526001600160a01b0392831695506323b872dd945061179f93909216913091899101613ef8565b602060405180830381600087803b1580156117b957600080fd5b505af11580156117cd573d6000803e3d6000fd5b505050506040513d601f19601f820116820180604052508101906117f19190613d34565b5060048054600a5460405163a9059cbb60e01b81526001600160a01b039283169363a9059cbb93611826931691889101613fe1565b602060405180830381600087803b15801561184057600080fd5b505af1158015611854573d6000803e3d6000fd5b505050506040513d601f19601f820116820180604052508101906118789190613d34565b50604051838152849033907f77c6871227e5d2dec8dadd5354f78453203e22e669cd0ec4c19d9a8c5edb31d0906020015b60405180910390a350505050565b600a60009054906101000a90046001600160a01b03166001600160a01b031663ae3050e16040518163ffffffff1660e01b815260040160206040518083038186803b15801561190557600080fd5b505afa158015611919573d6000803e3d6000fd5b505050506040513d601f19601f8201168201806040525081019061193d9190613d34565b6119795760405162461bcd60e51b815260206004820152600d60248201526c1c185d5cd95119511953195b99609a1b6044820152606401610935565b6003546040516331a9108f60e11b81526004810183905233916001600160a01b031690636352211e9060240160206040518083038186803b1580156119bd57600080fd5b505afa1580156119d1573d6000803e3d6000fd5b505050506040513d601f19601f820116820180604052508101906119f59190613cb3565b6001600160a01b031614611a3b5760405162461bcd60e51b815260206004820152600d60248201526c3cb7ba903737ba1037bbb732b960991b6044820152606401610935565b6000818152600c6020526040902080546001600160a01b03191633908117909155610e74908290612bbc565b600d546040516332d53b1760e01b815260048101839052600091829182916001600160a01b0316906332d53b1790602401604080518083038186803b158015611aaf57600080fd5b505afa158015611ac3573d6000803e3d6000fd5b505050506040513d601f19601f82011682018060405250810190611ae79190613d51565b9092509050611b06620f42406c0c9f2c9cd04674edea4000000061407b565b611b10908261407b565b905081611152576000611108565b600f546001600160a01b03163314611b785760405162461bcd60e51b815260206004820181905260248201527f6d73672e73656e646572206973206e6f7420706f736974696f6e526f757465726044820152606401610935565b6000838152601260205260409020600101546001600160a01b031680156123355760008481526012602081815260408084208054808652600b8452828620548a8752949093526002810154600390910154600a549251631b45a68d60e01b815260048101869052939493919290916001600160a01b0390911690631b45a68d90602401600060405180830381600087803b158015611c1557600080fd5b505af1158015611c29573d6000803e3d6000fd5b50505060008a81526012602052604090206004015460ff16159050611ec95760048054600a5460405163a9059cbb60e01b81526001600160a01b039283169363a9059cbb93611c7c931691889101613fe1565b602060405180830381600087803b158015611c9657600080fd5b505af1158015611caa573d6000803e3d6000fd5b505050506040513d601f19601f82011682018060405250810190611cce9190613d34565b506004546000858152600c60205260409020546001600160a01b039182169163a9059cbb91166064611d0187600a61409d565b611d0b919061407b565b611d159087614063565b611d1f90866140fb565b6040518363ffffffff1660e01b8152600401611d3c929190613fe1565b602060405180830381600087803b158015611d5657600080fd5b505af1158015611d6a573d6000803e3d6000fd5b505050506040513d601f19601f82011682018060405250810190611d8e9190613d34565b506004546001600160a01b031663a9059cbb876064611dae87600a61409d565b611db8919061407b565b6040518363ffffffff1660e01b8152600401611dd5929190613fe1565b602060405180830381600087803b158015611def57600080fd5b505af1158015611e03573d6000803e3d6000fd5b505050506040513d601f19601f82011682018060405250810190611e279190613d34565b506000848152600c602052604090205484906001600160a01b03167fad7bde0b40220dccef6b876cf7594499d11d9f168fbd034338597c691a7e943d6064611e7087600a61409d565b611e7a919061407b565b611e849087614063565b611e8e90866140fb565b866064611e9c82600a61409d565b611ea6919061407b565b6040805193845260208401929092529082015260600160405180910390a36122b7565b8281111561210757611edb83826140fb565b600454600a549196506001600160a01b039081169163a9059cbb91166064611f0489605a61409d565b611f0e919061407b565b611f189087614063565b6040518363ffffffff1660e01b8152600401611f35929190613fe1565b602060405180830381600087803b158015611f4f57600080fd5b505af1158015611f63573d6000803e3d6000fd5b505050506040513d601f19601f82011682018060405250810190611f879190613d34565b506004546001600160a01b031663a9059cbb876064611fa789600a61409d565b611fb1919061407b565b6040518363ffffffff1660e01b8152600401611fce929190613fe1565b602060405180830381600087803b158015611fe857600080fd5b505af1158015611ffc573d6000803e3d6000fd5b505050506040513d601f19601f820116820180604052508101906120209190613d34565b506004546000858152600c60205260409020546001600160a01b039182169163a9059cbb9116606461205389600a61409d565b61205d919061407b565b606461206a8a605a61409d565b612074919061407b565b61207e9088614063565b61208890876140fb565b61209291906140fb565b6040518363ffffffff1660e01b81526004016120af929190613fe1565b602060405180830381600087803b1580156120c957600080fd5b505af11580156120dd573d6000803e3d6000fd5b505050506040513d601f19601f820116820180604052508101906121019190613d34565b5061222e565b60048054600a5460405163a9059cbb60e01b81526001600160a01b039283169363a9059cbb9361213b931691869101613fe1565b602060405180830381600087803b15801561215557600080fd5b505af1158015612169573d6000803e3d6000fd5b505050506040513d601f19601f8201168201806040525081019061218d9190613d34565b506004546000858152600c60205260409020546001600160a01b039182169163a9059cbb91166121bd84866140fb565b6040518363ffffffff1660e01b81526004016121da929190613fe1565b602060405180830381600087803b1580156121f457600080fd5b505af1158015612208573d6000803e3d6000fd5b505050506040513d601f19601f8201168201806040525081019061222c9190613d34565b505b6000848152600c602052604090205484906001600160a01b03167f4e91025e01b2329df1ec1067d27aafec4d1c41f682ccd794dee04321e0b1e8dc8560646122778a605a61409d565b612281919061407b565b606461228e8b600a61409d565b612298919061407b565b6040805193845260208401929092529082015260600160405180910390a35b6003546000858152600c6020526040908190205490516323b872dd60e01b81526001600160a01b03928316926323b872dd926122fd923092909116908990600401613ef8565b600060405180830381600087803b15801561231757600080fd5b505af115801561232b573d6000803e3d6000fd5b5050505050505050505b50505050565b612343612b12565b600955565b612350612b12565b6001600160a01b0381166123b55760405162461bcd60e51b815260206004820152602660248201527f4f776e61626c653a206e6577206f776e657220697320746865207a65726f206160448201526564647265737360d01b6064820152608401610935565b610e7481612b6c565b6000816123cd5750600061157f565b600e5460408051630d577c1960e31b815290516000926001600160a01b031691636abbe0c891600480830192602092919082900301818787803b15801561241357600080fd5b505af1158015612427573d6000803e3d6000fd5b505050506040513d601f19601f8201168201806040525081019061244b9190613cb3565b6001600160a01b031663126082cf6040518163ffffffff1660e01b8152600401602060405180830381600087803b15801561248557600080fd5b505af1158015612499573d6000803e3d6000fd5b505050506040513d601f19601f820116820180604052508101906124bd9190613d7f565b600e60009054906101000a90046001600160a01b03166001600160a01b03166312d43a516040518163ffffffff1660e01b815260040160206040518083038186803b15801561250b57600080fd5b505afa15801561251f573d6000803e3d6000fd5b505050506040513d601f19601f820116820180604052508101906125439190613cb3565b6001600160a01b031663318bc6896040518163ffffffff1660e01b8152600401602060405180830381600087803b15801561257d57600080fd5b505af1158015612591573d6000803e3d6000fd5b505050506040513d601f19601f820116820180604052508101906125b59190613d7f565b600e60009054906101000a90046001600160a01b03166001600160a01b0316636abbe0c86040518163ffffffff1660e01b8152600401602060405180830381600087803b15801561260557600080fd5b505af1158015612619573d6000803e3d6000fd5b505050506040513d601f19601f8201168201806040525081019061263d9190613cb3565b6001600160a01b031663126082cf6040518163ffffffff1660e01b8152600401602060405180830381600087803b15801561267757600080fd5b505af115801561268b573d6000803e3d6000fd5b505050506040513d601f19601f820116820180604052508101906126af9190613d7f565b6126b991906140fb565b6126c3908561409d565b6126cd919061407b565b90506126d981846140fb565b979650505050505050565b60006126ef8261143f565b1561271e576126fd82611518565b61270683611110565b11156127155761143982611110565b61143982611518565b61272782611518565b61273083611110565b10156127155761143982611110565b600061274a8261143f565b15612758576112a782611110565b6112c182611110565b600d546040516332d53b1760e01b8152600481018390526000916001600160a01b0316906332d53b1790602401604080518083038186803b1580156127a557600080fd5b505afa1580156127b9573d6000803e3d6000fd5b505050506040513d601f19601f820116820180604052508101906127dd9190613d51565b509050806128195760405162461bcd60e51b81526020600482015260096024820152681b9bc81c1c9bd99a5d60ba1b6044820152606401610935565b5050565b6000838152601160209081526040918290205482518581526001600160a01b0391821692810192909252429282019290925284918616907f1fdbee5d1bd2901710e8945918b1a052ce67662661a2ccbf68420e4e430f8dab906060016118a9565b600d5460405163e6e6dd2f60e01b81526004810184905260009182916001600160a01b039091169063e6e6dd2f9060240160a060405180830381600087803b1580156128c957600080fd5b505af11580156128dd573d6000803e3d6000fd5b505050506040513d601f19601f820116820180604052508101906129019190613dda565b50506000878152601160209081526040808320815160808101835281546001600160a01b031681526001820154938101939093526002810154918301919091526003015460ff16151560608201529295509093509091508061296287612e3a565b9150915060008061297289612fe4565b91509150866001600160a01b0316636f7e8799343085896000015186898c606001518c6000600f60009054906101000a90046001600160a01b03166001600160a01b03166363ae21036040518163ffffffff1660e01b815260040160206040518083038186803b1580156129e557600080fd5b505afa1580156129f9573d6000803e3d6000fd5b505050506040513d601f19601f82011682018060405250810190612a1d9190613d7f565b6000306040518d63ffffffff1660e01b8152600401612a469b9a99989796959493929190613f1c565b6000604051808303818588803b158015612a5f57600080fd5b505af1158015612a73573d6000803e3d6000fd5b50505050506000612aa68884600081518110612a9157612a91614128565b6020026020010151886000015185888c61322f565b90508015612afa57600183511115612afa57612af783600081518110612ace57612ace614128565b602002602001015184600181518110612ae957612ae9614128565b6020026020010151836132ec565b90505b612b06888b8b846136f6565b50505050505050505050565b6000546001600160a01b0316331461128c5760405162461bcd60e51b815260206004820181905260248201527f4f776e61626c653a2063616c6c6572206973206e6f7420746865206f776e65726044820152606401610935565b600080546001600160a01b038381166001600160a01b0319831681178455604051919092169283917f8be0079c531659141344cd1fd0a4f28419497f9722a3daafe3b4186f6b6457e09190a35050565b600d5460405163e6e6dd2f60e01b81526004810184905260009182916001600160a01b039091169063e6e6dd2f9060240160a060405180830381600087803b158015612c0757600080fd5b505af1158015612c1b573d6000803e3d6000fd5b505050506040513d601f19601f82011682018060405250810190612c3f9190613dda565b5050600d54604051630b7d321160e41b81529395509093506000926001600160a01b03909116915063b7d3211090612c7b908690600401613ffa565b602060405180830381600087803b158015612c9557600080fd5b505af1158015612ca9573d6000803e3d6000fd5b505050506040513d601f19601f82011682018060405250810190612ccd9190613cb3565b600d5460405163eb02c30160e01b81526004810188905291925060009182916001600160a01b03169063eb02c301906024016101006040518083038186803b158015612d1857600080fd5b505afa158015612d2c573d6000803e3d6000fd5b505050506040513d601f19601f82011682018060405250810190612d509190613e8e565b50506003546040516323b872dd60e01b8152969850939650506001600160a01b03909216936323b872dd9350612d90925033915030908c90600401613ef8565b600060405180830381600087803b158015612daa57600080fd5b505af1158015612dbe573d6000803e3d6000fd5b5050604080516080810182526001600160a01b03968716815260208082019687528183019586529715156060820190815260009b8c5260119098529920985189546001600160a01b0319169516949094178855509051600187015551600286015550516003909301805460ff1916931515939093179092555050565b600d5460405163eb02c30160e01b81526004810183905260009182916001600160a01b039091169063eb02c301906024016101006040518083038186803b158015612e8457600080fd5b505afa158015612e98573d6000803e3d6000fd5b505050506040513d601f19601f82011682018060405250810190612ebc9190613e8e565b5095965050508415159350612f0f925050505760405162461bcd60e51b81526020600482015260156024820152741c1bdcda5d1a5bdb881cda5e99481a5cc81b9d5b1b605a1b6044820152606401610935565b60008381526011602052604090206003015460ff16612f3c57601054612f37906103e8614022565b612f4b565b601054612f4b906103e86140bc565b600d54604051637a3c4c1760e01b8152600481018690526103e8916001600160a01b031690637a3c4c179060240160206040518083038186803b158015612f9157600080fd5b505afa158015612fa5573d6000803e3d6000fd5b505050506040513d601f19601f82011682018060405250810190612fc99190613d7f565b612fd3919061407b565b612fdd919061409d565b9150915091565b600d5460405163eb02c30160e01b81526004810183905260609160009182916001600160a01b03169063eb02c301906024016101006040518083038186803b15801561302f57600080fd5b505afa158015613043573d6000803e3d6000fd5b505050506040513d601f19601f820116820180604052508101906130679190613e8e565b5050600d546040516332d53b1760e01b8152600481018c90529597506000965086956001600160a01b0390911694506332d53b17935060240191506130a99050565b604080518083038186803b1580156130c057600080fd5b505afa1580156130d4573d6000803e3d6000fd5b505050506040513d601f19601f820116820180604052508101906130f89190613d51565b91509150816131075780613109565b825b60008781526011602052604090206003015490945060ff16156131c657604080516002808252606082018352909160208301908036833750505060008781526011602052604081205482519297506001600160a01b03169187919061317057613170614128565b6001600160a01b0392831660209182029290920101526004548651911690869060019081106131a1576131a1614128565b60200260200101906001600160a01b031690816001600160a01b031681525050613227565b6040805160018082528183019092529060208083019080368337505060045482519297506001600160a01b03169187915060009061320657613206614128565b60200260200101906001600160a01b031690816001600160a01b0316815250505b505050915091565b6000806000613242898989898989613892565b909250905081156132db57600e54604051634c4ce68160e11b81526000916001600160a01b031690639899cd0290613280908c908690600401613fe1565b60206040518083038186803b15801561329857600080fd5b505afa1580156132ac573d6000803e3d6000fd5b505050506040513d601f19601f820116820180604052508101906132d09190613d7f565b93506132e292505050565b6000925050505b9695505050505050565b600e546040516340d3096b60e11b81526001600160a01b03858116600483015260009283929116906381a612d69060240160206040518083038186803b15801561333557600080fd5b505afa158015613349573d6000803e3d6000fd5b505050506040513d601f19601f8201168201806040525081019061336d9190613d7f565b600e54604051637092736960e11b81526001600160a01b0387811660048301529293506000929091169063e124e6d29060240160206040518083038186803b1580156133b857600080fd5b505afa1580156133cc573d6000803e3d6000fd5b505050506040513d601f19601f820116820180604052508101906133f09190613d7f565b90506000816133ff848761409d565b613409919061407b565b600e54604051634215287360e01b8152600481018390526001600160a01b038a81166024830152898116604483015292935091169063421528739060640160206040518083038186803b15801561345f57600080fd5b505afa158015613473573d6000803e3d6000fd5b505050506040513d601f19601f820116820180604052508101906134979190613d7f565b905060006c0c9f2c9cd04674edea400000006134b3858861409d565b6134bd919061407b565b600e546040805163f5b91b7b60e01b815290519293506001600160a01b039091169163421528739184918c91859163f5b91b7b91600480820192602092909190829003018186803b15801561351157600080fd5b505afa158015613525573d6000803e3d6000fd5b505050506040513d601f19601f820116820180604052508101906135499190613cb3565b6040516001600160e01b031960e086901b16815260048101939093526001600160a01b03918216602484015216604482015260640160206040518083038186803b15801561359657600080fd5b505afa1580156135aa573d6000803e3d6000fd5b505050506040513d601f19601f820116820180604052508101906135ce9190613d7f565b90506000600e60009054906101000a90046001600160a01b03166001600160a01b0316636abbe0c86040518163ffffffff1660e01b8152600401602060405180830381600087803b15801561362257600080fd5b505af1158015613636573d6000803e3d6000fd5b505050506040513d601f19601f8201168201806040525081019061365a9190613cb3565b6001600160a01b031663da1338168a8a856040518463ffffffff1660e01b815260040161368993929190613ef8565b60206040518083038186803b1580156136a157600080fd5b505afa1580156136b5573d6000803e3d6000fd5b505050506040513d601f19601f820116820180604052508101906136d99190613d7f565b905060006136e8898584613aaa565b9a9950505050505050505050565b600f5460405163fa44457760e01b81526001600160a01b038681166004830152600092169063fa44457790602401602060405180830381600087803b15801561373e57600080fd5b505af1158015613752573d6000803e3d6000fd5b505050506040513d601f19601f820116820180604052508101906137769190613d7f565b600f5460405163317c51ff60e11b81529192506000916001600160a01b03909116906362f8a3fe906137ae9089908690600401613fe1565b60206040518083038186803b1580156137c657600080fd5b505afa1580156137da573d6000803e3d6000fd5b505050506040513d601f19601f820116820180604052508101906137fe9190613d7f565b9050600061380b86611a67565b6040805160a081018252978852336020808a0191825289830197885260608a0193845297151560808a019081526000958652601290985293209651875591516001870180546001600160a01b0319166001600160a01b03909216919091179055509151600285015550516003830155516004909101805460ff191691151591909117905550565b600e54604051634a3f088d60e01b81526001600160a01b0388811660048301528781166024830152868116604483015283151560648301526000928392839283928392839283921690634a3f088d906084016101006040518083038186803b1580156138fd57600080fd5b505afa158015613911573d6000803e3d6000fd5b505050506040513d601f19601f820116820180604052508101906139359190613e8e565b9750505050945094509450945060006139538e8e8e8c8e8b89613bd1565b600e54604051635c07eaab60e01b81526001600160a01b038f81166004830152602482018a9052604482018890528c151560648301526084820186905292935060009283921690635c07eaab9060a401604080518083038186803b1580156139ba57600080fd5b505afa1580156139ce573d6000803e3d6000fd5b505050506040513d601f19601f820116820180604052508101906139f29190613d51565b9092509050600088613a04838f61409d565b613a0e919061407b565b90506000838015613a1f5750600082115b15613a275750805b83158015613a355750600082115b15613a4757613a44828a6140fb565b98505b8e15613a6657613a578f82614063565b9050613a638f8a6140fb565b98505b8d8a1415613a7b57613a788982614063565b90505b8085811115613a9157613a8e86836140fb565b90505b909b509950505050505050505050965096945050505050565b600080600e60009054906101000a90046001600160a01b03166001600160a01b031663126082cf6040518163ffffffff1660e01b8152600401602060405180830381600087803b158015613afd57600080fd5b505af1158015613b11573d6000803e3d6000fd5b505050506040513d601f19601f82011682018060405250810190613b359190613d7f565b600e546040805163126082cf60e01b8152905186926001600160a01b03169163126082cf9160048083019260209291908290030181600087803b158015613b7b57600080fd5b505af1158015613b8f573d6000803e3d6000fd5b505050506040513d601f19601f82011682018060405250810190613bb39190613d7f565b613bbd91906140fb565b613bc7908661409d565b61157f919061407b565b600080613be189898989896123be565b600e5460405163369d949360e21b81526001600160a01b038c811660048301528b811660248301528a8116604483015289151560648301526084820188905260a482018790529293506000929091169063da76524c9060c40160206040518083038186803b158015613c5257600080fd5b505afa158015613c66573d6000803e3d6000fd5b505050506040513d601f19601f82011682018060405250810190613c8a9190613d7f565b90506136e88183614063565b600060208284031215613ca857600080fd5b81356111528161413e565b600060208284031215613cc557600080fd5b81516111528161413e565b600080600080600060a08688031215613ce857600080fd5b8535613cf38161413e565b94506020860135613d038161413e565b93506040860135613d138161413e565b92506060860135613d2381614153565b949793965091946080013592915050565b600060208284031215613d4657600080fd5b815161115281614153565b60008060408385031215613d6457600080fd5b8251613d6f81614153565b6020939093015192949293505050565b600060208284031215613d9157600080fd5b5051919050565b600080600060608486031215613dad57600080fd5b833592506020840135613dbf81614153565b91506040840135613dcf81614153565b809150509250925092565b600080600080600060a08688031215613df257600080fd5b855160088110613e0157600080fd5b6020870151909550613e128161413e565b6040870151909450613e2381614153565b6060870151909350613e348161413e565b6080870151909250613e458161413e565b809150509295509295909350565b600060208284031215613e6557600080fd5b5035919050565b60008060408385031215613e7f57600080fd5b50508035926020909101359150565b600080600080600080600080610100898b031215613eab57600080fd5b885197506020890151965060408901519550606089015194506080890151935060a0890151925060c0890151613ee081614153565b8092505060e089015190509295985092959890939650565b6001600160a01b039384168152919092166020820152604081019190915260600190565b6001600160a01b038c8116825261016060208084018290528d51918401829052600092916101808501918f01845b82811015613f6a5781518516845260209384019390910190600101613f4a565b5050506001600160a01b038d1660408501529150613f859050565b896060830152886080830152613f9f60a083018915159052565b8660c08301528560e083015284610100830152613fc161012083018515159052565b6001600160a01b0383166101408301529c9b505050505050505050505050565b6001600160a01b03929092168252602082015260400190565b602081016008831061401c57634e487b7160e01b600052602160045260246000fd5b91905290565b600080821280156001600160ff1b038490038513161561404457614044614112565b600160ff1b839003841281161561405d5761405d614112565b50500190565b6000821982111561407657614076614112565b500190565b60008261409857634e487b7160e01b600052601260045260246000fd5b500490565b60008160001904831182151516156140b7576140b7614112565b500290565b60008083128015600160ff1b8501841216156140da576140da614112565b6001600160ff1b03840183138116156140f5576140f5614112565b50500390565b60008282101561410d5761410d614112565b500390565b634e487b7160e01b600052601160045260246000fd5b634e487b7160e01b600052603260045260246000fd5b6001600160a01b0381168114610e7457600080fd5b8015158114610e7457600080fdfea2646970667358221220278d4dad146cc1c8a652a9ab6688eb6ac9b514ee263928a3e7922ca05f7f109c64736f6c63430008060033",
  "devdoc": {
    "kind": "dev",
    "methods": {
      "borrow(uint256,uint256)": {
        "params": {
          "amount": "borrow size (USDC)*",
          "id": "collateral ID"
        }
      },
      "calculateUpcomingFee(uint256)": {
        "params": {
          "id": "collateral ID*"
        }
      },
      "collateralInfo(uint256)": {
        "params": {
          "id": "collateral id*"
        }
      },
      "intrinsicValueOf(uint256)": {
        "params": {
          "id": "collateral ID*"
        }
      },
      "liquidate(uint256)": {
        "params": {
          "id": "position ID*"
        }
      },
      "liquidateByBorderPrice(uint256)": {
        "params": {
          "id": "collateral ID*"
        }
      },
      "lockCollateral(uint256)": {
        "params": {
          "id": "collateral ID*"
        }
      },
      "maxBorrowLimit(uint256)": {
        "params": {
          "id": "collateral ID*"
        }
      },
      "owner()": {
        "details": "Returns the address of the current owner."
      },
      "renounceOwnership()": {
        "details": "Leaves the contract without owner. It will not be possible to call `onlyOwner` functions anymore. Can only be called by the current owner. NOTE: Renouncing ownership will leave the contract without an owner, thereby removing any functionality that is only available to the owner."
      },
      "repay(uint256,uint256)": {
        "params": {
          "amount": "amount to repay (USDC)*",
          "id": "collateral ID"
        }
      },
      "setInterestRate(uint256)": {
        "params": {
          "value": "interest rate (in minutes)*"
        }
      },
      "setLTV(uint256)": {
        "params": {
          "value": "LTV coefficient.*"
        }
      },
      "setMinBorrowLimit(uint256)": {
        "params": {
          "value": "min. borrow size (USDC)*"
        }
      },
      "setPool(address)": {
        "params": {
          "value": "the address of the liquidity pool*"
        }
      },
      "transferOwnership(address)": {
        "details": "Transfers ownership of the contract to a new account (`newOwner`). Can only be called by the current owner."
      },
      "unlock(uint256)": {
        "params": {
          "id": "collateral ID*"
        }
      }
    },
    "version": 1
  },
  "userdoc": {
    "kind": "user",
    "methods": {
      "borrow(uint256,uint256)": {
        "notice": "send USDC to the user"
      },
      "calculateUpcomingFee(uint256)": {
        "notice": "used to calculate how much USDC user should pay as interest fee"
      },
      "collateralInfo(uint256)": {
        "notice": "returns the position size and the entry price by collateral ID"
      },
      "intrinsicValueOf(uint256)": {
        "notice": "calculates the intrinsic value of the collateral"
      },
      "liquidate(uint256)": {
        "notice": "used to liquidate the loan"
      },
      "liquidateByBorderPrice(uint256)": {
        "notice": "used to liquidate the loan by border price"
      },
      "lockCollateral(uint256)": {
        "notice": "used to lock the collateral (ERC-721) in DeDeLend"
      },
      "maxBorrowLimit(uint256)": {
        "notice": "calcualtes the maximum borrow size for the specific collateral"
      },
      "repay(uint256,uint256)": {
        "notice": "used to repay the user's debt"
      },
      "setInterestRate(uint256)": {
        "notice": "used to set new interest rate"
      },
      "setLTV(uint256)": {
        "notice": "used to set LTV coefficient"
      },
      "setMinBorrowLimit(uint256)": {
        "notice": "used to set the minimum borrow size"
      },
      "setPool(address)": {
        "notice": "used to connect a new liqidity pool"
      },
      "unlock(uint256)": {
        "notice": "sends the collateral token back to the user"
      }
    },
    "version": 1
  },
  "storageLayout": {
    "storage": [
      {
        "astId": 7,
        "contract": "contracts/DDL_GMX.sol:DDL_GMX",
        "label": "_owner",
        "offset": 0,
        "slot": "0",
        "type": "t_address"
      },
      {
        "astId": 3668,
        "contract": "contracts/DDL_GMX.sol:DDL_GMX",
        "label": "LTV",
        "offset": 0,
        "slot": "1",
        "type": "t_uint256"
      },
      {
        "astId": 3673,
        "contract": "contracts/DDL_GMX.sol:DDL_GMX",
        "label": "LTV_DECIMALS",
        "offset": 0,
        "slot": "2",
        "type": "t_uint256"
      },
      {
        "astId": 3676,
        "contract": "contracts/DDL_GMX.sol:DDL_GMX",
        "label": "collateralToken",
        "offset": 0,
        "slot": "3",
        "type": "t_contract(IERC721)2180"
      },
      {
        "astId": 3679,
        "contract": "contracts/DDL_GMX.sol:DDL_GMX",
        "label": "USDC",
        "offset": 0,
        "slot": "4",
        "type": "t_contract(IERC20)777"
      },
      {
        "astId": 3682,
        "contract": "contracts/DDL_GMX.sol:DDL_GMX",
        "label": "interestRate",
        "offset": 0,
        "slot": "5",
        "type": "t_uint256"
      },
      {
        "astId": 3687,
        "contract": "contracts/DDL_GMX.sol:DDL_GMX",
        "label": "INTEREST_RATE_DECIMALS",
        "offset": 0,
        "slot": "6",
        "type": "t_uint256"
      },
      {
        "astId": 3689,
        "contract": "contracts/DDL_GMX.sol:DDL_GMX",
        "label": "minBorrowLimit",
        "offset": 0,
        "slot": "7",
        "type": "t_uint256"
      },
      {
        "astId": 3691,
        "contract": "contracts/DDL_GMX.sol:DDL_GMX",
        "label": "COLLATERAL_DECIMALS",
        "offset": 0,
        "slot": "8",
        "type": "t_uint256"
      },
      {
        "astId": 3693,
        "contract": "contracts/DDL_GMX.sol:DDL_GMX",
        "label": "BorderPriceCoef",
        "offset": 0,
        "slot": "9",
        "type": "t_uint256"
      },
      {
        "astId": 3696,
        "contract": "contracts/DDL_GMX.sol:DDL_GMX",
        "label": "pool",
        "offset": 0,
        "slot": "10",
        "type": "t_contract(IPoolDDL)6715"
      },
      {
        "astId": 3706,
        "contract": "contracts/DDL_GMX.sol:DDL_GMX",
        "label": "borrowedByCollateral",
        "offset": 0,
        "slot": "11",
        "type": "t_mapping(t_uint256,t_struct(BorrowedByCollateral)3701_storage)"
      },
      {
        "astId": 3710,
        "contract": "contracts/DDL_GMX.sol:DDL_GMX",
        "label": "collateralOwner",
        "offset": 0,
        "slot": "12",
        "type": "t_mapping(t_uint256,t_address)"
      },
      {
        "astId": 4566,
        "contract": "contracts/DDL_GMX.sol:DDL_GMX",
        "label": "accountManager",
        "offset": 0,
        "slot": "13",
        "type": "t_contract(IAccountManager)6509"
      },
      {
        "astId": 4569,
        "contract": "contracts/DDL_GMX.sol:DDL_GMX",
        "label": "vault",
        "offset": 0,
        "slot": "14",
        "type": "t_contract(IVault)7666"
      },
      {
        "astId": 4572,
        "contract": "contracts/DDL_GMX.sol:DDL_GMX",
        "label": "positionRouter",
        "offset": 0,
        "slot": "15",
        "type": "t_contract(IPositionRouter)6863"
      },
      {
        "astId": 4575,
        "contract": "contracts/DDL_GMX.sol:DDL_GMX",
        "label": "closeSlippage",
        "offset": 0,
        "slot": "16",
        "type": "t_int256"
      },
      {
        "astId": 4603,
        "contract": "contracts/DDL_GMX.sol:DDL_GMX",
        "label": "positionInfo",
        "offset": 0,
        "slot": "17",
        "type": "t_mapping(t_uint256,t_struct(PositionInfo)4587_storage)"
      },
      {
        "astId": 4608,
        "contract": "contracts/DDL_GMX.sol:DDL_GMX",
        "label": "liquidatePositionInfo",
        "offset": 0,
        "slot": "18",
        "type": "t_mapping(t_bytes32,t_struct(LiquidatePositionInfo)4598_storage)"
      }
    ],
    "types": {
      "t_address": {
        "encoding": "inplace",
        "label": "address",
        "numberOfBytes": "20"
      },
      "t_bool": {
        "encoding": "inplace",
        "label": "bool",
        "numberOfBytes": "1"
      },
      "t_bytes32": {
        "encoding": "inplace",
        "label": "bytes32",
        "numberOfBytes": "32"
      },
      "t_contract(IAccountManager)6509": {
        "encoding": "inplace",
        "label": "contract IAccountManager",
        "numberOfBytes": "20"
      },
      "t_contract(IERC20)777": {
        "encoding": "inplace",
        "label": "contract IERC20",
        "numberOfBytes": "20"
      },
      "t_contract(IERC721)2180": {
        "encoding": "inplace",
        "label": "contract IERC721",
        "numberOfBytes": "20"
      },
      "t_contract(IPoolDDL)6715": {
        "encoding": "inplace",
        "label": "contract IPoolDDL",
        "numberOfBytes": "20"
      },
      "t_contract(IPositionRouter)6863": {
        "encoding": "inplace",
        "label": "contract IPositionRouter",
        "numberOfBytes": "20"
      },
      "t_contract(IVault)7666": {
        "encoding": "inplace",
        "label": "contract IVault",
        "numberOfBytes": "20"
      },
      "t_int256": {
        "encoding": "inplace",
        "label": "int256",
        "numberOfBytes": "32"
      },
      "t_mapping(t_bytes32,t_struct(LiquidatePositionInfo)4598_storage)": {
        "encoding": "mapping",
        "key": "t_bytes32",
        "label": "mapping(bytes32 => struct DDL_GMX.LiquidatePositionInfo)",
        "numberOfBytes": "32",
        "value": "t_struct(LiquidatePositionInfo)4598_storage"
      },
      "t_mapping(t_uint256,t_address)": {
        "encoding": "mapping",
        "key": "t_uint256",
        "label": "mapping(uint256 => address)",
        "numberOfBytes": "32",
        "value": "t_address"
      },
      "t_mapping(t_uint256,t_struct(BorrowedByCollateral)3701_storage)": {
        "encoding": "mapping",
        "key": "t_uint256",
        "label": "mapping(uint256 => struct DDL.BorrowedByCollateral)",
        "numberOfBytes": "32",
        "value": "t_struct(BorrowedByCollateral)3701_storage"
      },
      "t_mapping(t_uint256,t_struct(PositionInfo)4587_storage)": {
        "encoding": "mapping",
        "key": "t_uint256",
        "label": "mapping(uint256 => struct DDL_GMX.PositionInfo)",
        "numberOfBytes": "32",
        "value": "t_struct(PositionInfo)4587_storage"
      },
      "t_struct(BorrowedByCollateral)3701_storage": {
        "encoding": "inplace",
        "label": "struct DDL.BorrowedByCollateral",
        "members": [
          {
            "astId": 3698,
            "contract": "contracts/DDL_GMX.sol:DDL_GMX",
            "label": "borrowed",
            "offset": 0,
            "slot": "0",
            "type": "t_uint256"
          },
          {
            "astId": 3700,
            "contract": "contracts/DDL_GMX.sol:DDL_GMX",
            "label": "newBorrowTimestamp",
            "offset": 0,
            "slot": "1",
            "type": "t_uint256"
          }
        ],
        "numberOfBytes": "64"
      },
      "t_struct(LiquidatePositionInfo)4598_storage": {
        "encoding": "inplace",
        "label": "struct DDL_GMX.LiquidatePositionInfo",
        "members": [
          {
            "astId": 4589,
            "contract": "contracts/DDL_GMX.sol:DDL_GMX",
            "label": "id",
            "offset": 0,
            "slot": "0",
            "type": "t_uint256"
          },
          {
            "astId": 4591,
            "contract": "contracts/DDL_GMX.sol:DDL_GMX",
            "label": "liquidator",
            "offset": 0,
            "slot": "1",
            "type": "t_address"
          },
          {
            "astId": 4593,
            "contract": "contracts/DDL_GMX.sol:DDL_GMX",
            "label": "amountReturn",
            "offset": 0,
            "slot": "2",
            "type": "t_uint256"
          },
          {
            "astId": 4595,
            "contract": "contracts/DDL_GMX.sol:DDL_GMX",
            "label": "profit",
            "offset": 0,
            "slot": "3",
            "type": "t_uint256"
          },
          {
            "astId": 4597,
            "contract": "contracts/DDL_GMX.sol:DDL_GMX",
            "label": "isBorderPrice",
            "offset": 0,
            "slot": "4",
            "type": "t_bool"
          }
        ],
        "numberOfBytes": "160"
      },
      "t_struct(PositionInfo)4587_storage": {
        "encoding": "inplace",
        "label": "struct DDL_GMX.PositionInfo",
        "members": [
          {
            "astId": 4580,
            "contract": "contracts/DDL_GMX.sol:DDL_GMX",
            "label": "indexToken",
            "offset": 0,
            "slot": "0",
            "type": "t_address"
          },
          {
            "astId": 4582,
            "contract": "contracts/DDL_GMX.sol:DDL_GMX",
            "label": "amount",
            "offset": 0,
            "slot": "1",
            "type": "t_uint256"
          },
          {
            "astId": 4584,
            "contract": "contracts/DDL_GMX.sol:DDL_GMX",
            "label": "openPrice",
            "offset": 0,
            "slot": "2",
            "type": "t_uint256"
          },
          {
            "astId": 4586,
            "contract": "contracts/DDL_GMX.sol:DDL_GMX",
            "label": "isLong",
            "offset": 0,
            "slot": "3",
            "type": "t_bool"
          }
        ],
        "numberOfBytes": "128"
      },
      "t_uint256": {
        "encoding": "inplace",
        "label": "uint256",
        "numberOfBytes": "32"
      }
    }
  }
}