{
  "address": "0x4b2af2d7437EDa58f568DCb6E67feA160D376bE7",
  "abi": [
    {
      "inputs": [
        {
          "internalType": "contract IOrderBook",
          "name": "_orderBook",
          "type": "address"
        },
        {
          "internalType": "contract IPositionRouter",
          "name": "_positionRouter",
          "type": "address"
        },
        {
          "internalType": "contract IAccountManager",
          "name": "_accountManager",
          "type": "address"
        },
        {
          "internalType": "contract IVault",
          "name": "_vault",
          "type": "address"
        },
        {
          "internalType": "contract IERC721",
          "name": "_collateralToken",
          "type": "address"
        },
        {
          "internalType": "contract IERC20",
          "name": "_USDC",
          "type": "address"
        },
        {
          "internalType": "uint256",
          "name": "_minBorrowLimit",
          "type": "uint256"
        },
        {
          "internalType": "uint256",
          "name": "_ltv",
          "type": "uint256"
        },
        {
          "internalType": "uint256",
          "name": "_COLLATERAL_DECIMALS",
          "type": "uint256"
        },
        {
          "internalType": "uint256",
          "name": "_PriorLiqPriceCoef",
          "type": "uint256"
        }
      ],
      "stateMutability": "nonpayable",
      "type": "constructor"
    },
    {
      "anonymous": false,
      "inputs": [
        {
          "indexed": true,
          "internalType": "address",
          "name": "user",
          "type": "address"
        },
        {
          "indexed": true,
          "internalType": "uint256",
          "name": "id",
          "type": "uint256"
        },
        {
          "indexed": false,
          "internalType": "uint256",
          "name": "amount",
          "type": "uint256"
        },
        {
          "indexed": false,
          "internalType": "address",
          "name": "strategy",
          "type": "address"
        },
        {
          "indexed": false,
          "internalType": "uint256",
          "name": "timestamp",
          "type": "uint256"
        }
      ],
      "name": "Borrow",
      "type": "event"
    },
    {
      "anonymous": false,
      "inputs": [
        {
          "indexed": true,
          "internalType": "address",
          "name": "user",
          "type": "address"
        },
        {
          "indexed": true,
          "internalType": "uint256",
          "name": "optionID",
          "type": "uint256"
        },
        {
          "indexed": false,
          "internalType": "uint256",
          "name": "amount",
          "type": "uint256"
        },
        {
          "indexed": false,
          "internalType": "uint256",
          "name": "poolProfit",
          "type": "uint256"
        },
        {
          "indexed": false,
          "internalType": "uint256",
          "name": "liqFee",
          "type": "uint256"
        }
      ],
      "name": "ForcedExercise",
      "type": "event"
    },
    {
      "anonymous": false,
      "inputs": [
        {
          "indexed": true,
          "internalType": "address",
          "name": "user",
          "type": "address"
        },
        {
          "indexed": true,
          "internalType": "uint256",
          "name": "optionID",
          "type": "uint256"
        },
        {
          "indexed": false,
          "internalType": "uint256",
          "name": "amount",
          "type": "uint256"
        },
        {
          "indexed": false,
          "internalType": "uint256",
          "name": "poolProfit",
          "type": "uint256"
        },
        {
          "indexed": false,
          "internalType": "uint256",
          "name": "liqFee",
          "type": "uint256"
        }
      ],
      "name": "Liquidate",
      "type": "event"
    },
    {
      "anonymous": false,
      "inputs": [
        {
          "indexed": true,
          "internalType": "address",
          "name": "user",
          "type": "address"
        },
        {
          "indexed": true,
          "internalType": "uint256",
          "name": "optionID",
          "type": "uint256"
        },
        {
          "indexed": false,
          "internalType": "uint256",
          "name": "userReturn",
          "type": "uint256"
        },
        {
          "indexed": false,
          "internalType": "uint256",
          "name": "poolReturn",
          "type": "uint256"
        },
        {
          "indexed": false,
          "internalType": "uint256",
          "name": "liqFee",
          "type": "uint256"
        }
      ],
      "name": "LiquidateByBorderPrice",
      "type": "event"
    },
    {
      "anonymous": false,
      "inputs": [
        {
          "indexed": true,
          "internalType": "address",
          "name": "previousOwner",
          "type": "address"
        },
        {
          "indexed": true,
          "internalType": "address",
          "name": "newOwner",
          "type": "address"
        }
      ],
      "name": "OwnershipTransferred",
      "type": "event"
    },
    {
      "anonymous": false,
      "inputs": [
        {
          "indexed": true,
          "internalType": "address",
          "name": "user",
          "type": "address"
        },
        {
          "indexed": true,
          "internalType": "uint256",
          "name": "optionID",
          "type": "uint256"
        },
        {
          "indexed": false,
          "internalType": "uint256",
          "name": "amount",
          "type": "uint256"
        }
      ],
      "name": "Repay",
      "type": "event"
    },
    {
      "anonymous": false,
      "inputs": [
        {
          "indexed": true,
          "internalType": "address",
          "name": "user",
          "type": "address"
        },
        {
          "indexed": true,
          "internalType": "uint256",
          "name": "optionID",
          "type": "uint256"
        }
      ],
      "name": "Unlock",
      "type": "event"
    },
    {
      "inputs": [],
      "name": "BorderPriceCoef",
      "outputs": [
        {
          "internalType": "uint256",
          "name": "",
          "type": "uint256"
        }
      ],
      "stateMutability": "view",
      "type": "function"
    },
    {
      "inputs": [],
      "name": "COLLATERAL_DECIMALS",
      "outputs": [
        {
          "internalType": "uint256",
          "name": "",
          "type": "uint256"
        }
      ],
      "stateMutability": "view",
      "type": "function"
    },
    {
      "inputs": [],
      "name": "INTEREST_RATE_DECIMALS",
      "outputs": [
        {
          "internalType": "uint256",
          "name": "",
          "type": "uint256"
        }
      ],
      "stateMutability": "view",
      "type": "function"
    },
    {
      "inputs": [],
      "name": "LTV",
      "outputs": [
        {
          "internalType": "uint256",
          "name": "",
          "type": "uint256"
        }
      ],
      "stateMutability": "view",
      "type": "function"
    },
    {
      "inputs": [],
      "name": "LTV_DECIMALS",
      "outputs": [
        {
          "internalType": "uint256",
          "name": "",
          "type": "uint256"
        }
      ],
      "stateMutability": "view",
      "type": "function"
    },
    {
      "inputs": [],
      "name": "USDC",
      "outputs": [
        {
          "internalType": "contract IERC20",
          "name": "",
          "type": "address"
        }
      ],
      "stateMutability": "view",
      "type": "function"
    },
    {
      "inputs": [],
      "name": "accountManager",
      "outputs": [
        {
          "internalType": "contract IAccountManager",
          "name": "",
          "type": "address"
        }
      ],
      "stateMutability": "view",
      "type": "function"
    },
    {
      "inputs": [
        {
          "internalType": "uint256",
          "name": "id",
          "type": "uint256"
        }
      ],
      "name": "borderPrice",
      "outputs": [
        {
          "internalType": "uint256",
          "name": "price",
          "type": "uint256"
        }
      ],
      "stateMutability": "view",
      "type": "function"
    },
    {
      "inputs": [
        {
          "internalType": "uint256",
          "name": "id",
          "type": "uint256"
        },
        {
          "internalType": "uint256",
          "name": "amount",
          "type": "uint256"
        }
      ],
      "name": "borrow",
      "outputs": [],
      "stateMutability": "nonpayable",
      "type": "function"
    },
    {
      "inputs": [
        {
          "internalType": "uint256",
          "name": "",
          "type": "uint256"
        }
      ],
      "name": "borrowedByCollateral",
      "outputs": [
        {
          "internalType": "uint256",
          "name": "borrowed",
          "type": "uint256"
        },
        {
          "internalType": "uint256",
          "name": "newBorrowTimestamp",
          "type": "uint256"
        }
      ],
      "stateMutability": "view",
      "type": "function"
    },
    {
      "inputs": [
        {
          "internalType": "uint256",
          "name": "id",
          "type": "uint256"
        }
      ],
      "name": "calculateUpcomingFee",
      "outputs": [
        {
          "internalType": "uint256",
          "name": "upcomingFee",
          "type": "uint256"
        }
      ],
      "stateMutability": "view",
      "type": "function"
    },
    {
      "inputs": [],
      "name": "closeSlippage",
      "outputs": [
        {
          "internalType": "int256",
          "name": "",
          "type": "int256"
        }
      ],
      "stateMutability": "view",
      "type": "function"
    },
    {
      "inputs": [
        {
          "internalType": "uint256",
          "name": "id",
          "type": "uint256"
        }
      ],
      "name": "collateralInfo",
      "outputs": [
        {
          "internalType": "uint256",
          "name": "amount",
          "type": "uint256"
        },
        {
          "internalType": "uint256",
          "name": "price",
          "type": "uint256"
        }
      ],
      "stateMutability": "view",
      "type": "function"
    },
    {
      "inputs": [
        {
          "internalType": "uint256",
          "name": "",
          "type": "uint256"
        }
      ],
      "name": "collateralOwner",
      "outputs": [
        {
          "internalType": "address",
          "name": "",
          "type": "address"
        }
      ],
      "stateMutability": "view",
      "type": "function"
    },
    {
      "inputs": [
        {
          "internalType": "uint256",
          "name": "id",
          "type": "uint256"
        }
      ],
      "name": "collateralState",
      "outputs": [
        {
          "internalType": "bool",
          "name": "",
          "type": "bool"
        }
      ],
      "stateMutability": "view",
      "type": "function"
    },
    {
      "inputs": [
        {
          "internalType": "uint256",
          "name": "id",
          "type": "uint256"
        }
      ],
      "name": "collateralStateByBorderPrice",
      "outputs": [
        {
          "internalType": "bool",
          "name": "",
          "type": "bool"
        }
      ],
      "stateMutability": "view",
      "type": "function"
    },
    {
      "inputs": [],
      "name": "collateralToken",
      "outputs": [
        {
          "internalType": "contract IERC721",
          "name": "",
          "type": "address"
        }
      ],
      "stateMutability": "view",
      "type": "function"
    },
    {
      "inputs": [
        {
          "internalType": "uint256",
          "name": "id",
          "type": "uint256"
        }
      ],
      "name": "currentBorderPrice",
      "outputs": [
        {
          "internalType": "uint256",
          "name": "price",
          "type": "uint256"
        }
      ],
      "stateMutability": "view",
      "type": "function"
    },
    {
      "inputs": [
        {
          "internalType": "uint256",
          "name": "id",
          "type": "uint256"
        }
      ],
      "name": "currentPrice",
      "outputs": [
        {
          "internalType": "uint256",
          "name": "",
          "type": "uint256"
        }
      ],
      "stateMutability": "view",
      "type": "function"
    },
    {
      "inputs": [
        {
          "internalType": "bytes32",
          "name": "positionKey",
          "type": "bytes32"
        },
        {
          "internalType": "bool",
          "name": "isExecuted",
          "type": "bool"
        },
        {
          "internalType": "bool",
          "name": "isIncrease",
          "type": "bool"
        }
      ],
      "name": "gmxPositionCallback",
      "outputs": [],
      "stateMutability": "nonpayable",
      "type": "function"
    },
    {
      "inputs": [],
      "name": "interestRate",
      "outputs": [
        {
          "internalType": "uint256",
          "name": "",
          "type": "uint256"
        }
      ],
      "stateMutability": "view",
      "type": "function"
    },
    {
      "inputs": [
        {
          "internalType": "uint256",
          "name": "id",
          "type": "uint256"
        }
      ],
      "name": "intrinsicValueOf",
      "outputs": [
        {
          "internalType": "uint256",
          "name": "delta",
          "type": "uint256"
        }
      ],
      "stateMutability": "view",
      "type": "function"
    },
    {
      "inputs": [
        {
          "internalType": "uint256",
          "name": "id",
          "type": "uint256"
        }
      ],
      "name": "isLong",
      "outputs": [
        {
          "internalType": "bool",
          "name": "",
          "type": "bool"
        }
      ],
      "stateMutability": "view",
      "type": "function"
    },
    {
      "inputs": [
        {
          "internalType": "uint256",
          "name": "id",
          "type": "uint256"
        }
      ],
      "name": "liqPrice",
      "outputs": [
        {
          "internalType": "uint256",
          "name": "price",
          "type": "uint256"
        }
      ],
      "stateMutability": "view",
      "type": "function"
    },
    {
      "inputs": [
        {
          "internalType": "uint256",
          "name": "id",
          "type": "uint256"
        }
      ],
      "name": "liquidate",
      "outputs": [],
      "stateMutability": "payable",
      "type": "function"
    },
    {
      "inputs": [
        {
          "internalType": "uint256",
          "name": "id",
          "type": "uint256"
        }
      ],
      "name": "liquidateByBorderPrice",
      "outputs": [],
      "stateMutability": "payable",
      "type": "function"
    },
    {
      "inputs": [
        {
          "internalType": "uint256",
          "name": "id",
          "type": "uint256"
        }
      ],
      "name": "lockCollateral",
      "outputs": [],
      "stateMutability": "nonpayable",
      "type": "function"
    },
    {
      "inputs": [
        {
          "internalType": "uint256",
          "name": "id",
          "type": "uint256"
        }
      ],
      "name": "maxBorrowLimit",
      "outputs": [
        {
          "internalType": "uint256",
          "name": "",
          "type": "uint256"
        }
      ],
      "stateMutability": "view",
      "type": "function"
    },
    {
      "inputs": [],
      "name": "minBorrowLimit",
      "outputs": [
        {
          "internalType": "uint256",
          "name": "",
          "type": "uint256"
        }
      ],
      "stateMutability": "view",
      "type": "function"
    },
    {
      "inputs": [],
      "name": "orderBook",
      "outputs": [
        {
          "internalType": "contract IOrderBook",
          "name": "",
          "type": "address"
        }
      ],
      "stateMutability": "view",
      "type": "function"
    },
    {
      "inputs": [],
      "name": "owner",
      "outputs": [
        {
          "internalType": "address",
          "name": "",
          "type": "address"
        }
      ],
      "stateMutability": "view",
      "type": "function"
    },
    {
      "inputs": [],
      "name": "pool",
      "outputs": [
        {
          "internalType": "contract IPoolDDL",
          "name": "",
          "type": "address"
        }
      ],
      "stateMutability": "view",
      "type": "function"
    },
    {
      "inputs": [
        {
          "internalType": "uint256",
          "name": "",
          "type": "uint256"
        }
      ],
      "name": "positionInfo",
      "outputs": [
        {
          "internalType": "address",
          "name": "indexToken",
          "type": "address"
        },
        {
          "internalType": "uint256",
          "name": "amount",
          "type": "uint256"
        },
        {
          "internalType": "uint256",
          "name": "openPrice",
          "type": "uint256"
        },
        {
          "internalType": "bool",
          "name": "isLong",
          "type": "bool"
        }
      ],
      "stateMutability": "view",
      "type": "function"
    },
    {
      "inputs": [],
      "name": "positionRouter",
      "outputs": [
        {
          "internalType": "contract IPositionRouter",
          "name": "",
          "type": "address"
        }
      ],
      "stateMutability": "view",
      "type": "function"
    },
    {
      "inputs": [],
      "name": "renounceOwnership",
      "outputs": [],
      "stateMutability": "nonpayable",
      "type": "function"
    },
    {
      "inputs": [
        {
          "internalType": "uint256",
          "name": "id",
          "type": "uint256"
        },
        {
          "internalType": "uint256",
          "name": "amount",
          "type": "uint256"
        }
      ],
      "name": "repay",
      "outputs": [],
      "stateMutability": "nonpayable",
      "type": "function"
    },
    {
      "inputs": [
        {
          "internalType": "uint256",
          "name": "value",
          "type": "uint256"
        }
      ],
      "name": "setInterestRate",
      "outputs": [],
      "stateMutability": "nonpayable",
      "type": "function"
    },
    {
      "inputs": [
        {
          "internalType": "uint256",
          "name": "value",
          "type": "uint256"
        }
      ],
      "name": "setInterestRateDecimals",
      "outputs": [],
      "stateMutability": "nonpayable",
      "type": "function"
    },
    {
      "inputs": [
        {
          "internalType": "uint256",
          "name": "value",
          "type": "uint256"
        }
      ],
      "name": "setLTV",
      "outputs": [],
      "stateMutability": "nonpayable",
      "type": "function"
    },
    {
      "inputs": [
        {
          "internalType": "uint256",
          "name": "value",
          "type": "uint256"
        }
      ],
      "name": "setMinBorrowLimit",
      "outputs": [],
      "stateMutability": "nonpayable",
      "type": "function"
    },
    {
      "inputs": [
        {
          "internalType": "address",
          "name": "value",
          "type": "address"
        }
      ],
      "name": "setPool",
      "outputs": [],
      "stateMutability": "nonpayable",
      "type": "function"
    },
    {
      "inputs": [
        {
          "internalType": "address",
          "name": "newOwner",
          "type": "address"
        }
      ],
      "name": "transferOwnership",
      "outputs": [],
      "stateMutability": "nonpayable",
      "type": "function"
    },
    {
      "inputs": [
        {
          "internalType": "uint256",
          "name": "id",
          "type": "uint256"
        }
      ],
      "name": "unlock",
      "outputs": [],
      "stateMutability": "nonpayable",
      "type": "function"
    },
    {
      "inputs": [],
      "name": "vault",
      "outputs": [
        {
          "internalType": "contract IVault",
          "name": "",
          "type": "address"
        }
      ],
      "stateMutability": "view",
      "type": "function"
    }
  ],
  "transactionHash": "0x278fa40ef48ed61dd3eabe29553486e87249c3b24621187501c2798772509537",
  "args": [
    "0x09f77e8a13de9a35a7231028187e9fd5db8a2acb",
    "0xb87a436B93fFE9D75c5cFA7bAcFff96430b09868",
    "0x2CBb4B9E98928B278475f7E9C07EB34DA42a53bC",
    "0x489ee077994B6658eAfA855C308275EAd8097C4A",
    "0x9efA34A3C8978A2FA768FE17AAC9FcC56642d0Ab",
    "0xFF970A61A04b1cA14834A43f5dE4533eBDDB5CC8",
    0,
    9000,
    6,
    4
  ],
  "numDeployments": 1,
  "solcInputHash": "15a3c77194be24949bc17ac3bcf20b73",
  "bytecode": "0x60806040526127106002556a0fbce2c2bf9557000000006005556c0c9f2c9cd04674edea40000000600655600a6011553480156200003c57600080fd5b5060405162003784380380620037848339810160408190526200005f9162000173565b858585858585620000703362000123565b600380546001600160a01b038089166001600160a01b031992831617909255600480549288169290911691909117905560078490556001839055620000b782600a6200027a565b6008556009555050600f80546001600160a01b039e8f166001600160a01b031991821617909155601080549d8f169d82169d909d17909c555050600d8054998c16998b16999099179098555050600e805495909816949096169390931790955550620003749350505050565b600080546001600160a01b038381166001600160a01b0319831681178455604051919092169283917f8be0079c531659141344cd1fd0a4f28419497f9722a3daafe3b4186f6b6457e09190a35050565b6000806000806000806000806000806101408b8d0312156200019457600080fd5b8a51620001a1816200035b565b60208c0151909a50620001b4816200035b565b60408c0151909950620001c7816200035b565b60608c0151909850620001da816200035b565b60808c0151909750620001ed816200035b565b60a08c015190965062000200816200035b565b8095505060c08b0151935060e08b015192506101008b015191506101208b015190509295989b9194979a5092959850565b600181815b808511156200027257816000190482111562000256576200025662000345565b808516156200026457918102915b93841c939080029062000236565b509250929050565b60006200028883836200028f565b9392505050565b600082620002a0575060016200033f565b81620002af575060006200033f565b8160018114620002c85760028114620002d357620002f3565b60019150506200033f565b60ff841115620002e757620002e762000345565b50506001821b6200033f565b5060208310610133831016604e8410600b841016171562000318575081810a6200033f565b62000324838362000231565b80600019048211156200033b576200033b62000345565b0290505b92915050565b634e487b7160e01b600052601160045260246000fd5b6001600160a01b03811681146200037157600080fd5b50565b61340080620003846000396000f3fe6080604052600436106102675760003560e01c80637c3a00fd11610144578063c3707709116100b6578063e5bad7231161007a578063e5bad7231461078c578063edf3daec146107ac578063f2fde38b146107cc578063fbfa77cf146107ec578063fe651d1c1461080c578063fecb63571461082c57600080fd5b8063c3707709146106f6578063d88c691014610716578063d8aed14514610736578063e2233cbd14610756578063e260d7471461077657600080fd5b80639d38d064116101085780639d38d0641461062c5780639e3aa5b114610642578063a226b48314610662578063b13de26614610682578063b2016bd4146106a2578063b3b840df146106c257600080fd5b80637c3a00fd1461053d57806389097a6a1461055357806389a30271146105ce5780638da5cb5b146105ee57806391c2c4691461060c57600080fd5b80634de33fda116101dd57806362965d8e116101a157806362965d8e1461048c57806366234ffa146104a2578063715018a6146104b8578063776af5ba146104cd57806379881698146104ed5780637a3c4c171461051d57600080fd5b80634de33fda146103ec578063587a03c21461040c5780635f84f3021461042c5780636198e3391461044c57806361ef161f1461046c57600080fd5b806324a6665e1161022f57806324a6665e14610338578063415f12401461036d57806341f6cf4e146103805780634437152a14610396578063484f1371146103b65780634ddde78d146103d657600080fd5b80630ecbcdab1461026c57806316f0115b1461028e57806317582981146102cb5780631a426216146102ef578063200549ca14610302575b600080fd5b34801561027857600080fd5b5061028c6102873660046130a9565b61084c565b005b34801561029a57600080fd5b50600a546102ae906001600160a01b031681565b6040516001600160a01b0390911681526020015b60405180910390f35b3480156102d757600080fd5b506102e160095481565b6040519081526020016102c2565b61028c6102fd366004613090565b610d28565b34801561030e57600080fd5b506102ae61031d366004613090565b600c602052600090815260409020546001600160a01b031681565b34801561034457600080fd5b50610358610353366004613090565b610e4b565b604080519283526020830191909152016102c2565b61028c61037b366004613090565b610f2f565b34801561038c57600080fd5b506102e160115481565b3480156103a257600080fd5b5061028c6103b1366004612f37565b61104f565b3480156103c257600080fd5b506102e16103d1366004613090565b611079565b3480156103e257600080fd5b506102e160085481565b3480156103f857600080fd5b506102e1610407366004613090565b6110e2565b34801561041857600080fd5b5061028c610427366004613090565b61113c565b34801561043857600080fd5b5061028c610447366004613090565b611149565b34801561045857600080fd5b5061028c610467366004613090565b611156565b34801561047857600080fd5b506010546102ae906001600160a01b031681565b34801561049857600080fd5b506102e160015481565b3480156104ae57600080fd5b506102e160065481565b3480156104c457600080fd5b5061028c61124f565b3480156104d957600080fd5b50600f546102ae906001600160a01b031681565b3480156104f957600080fd5b5061050d610508366004613090565b611263565b60405190151581526020016102c2565b34801561052957600080fd5b506102e1610538366004613090565b6112a7565b34801561054957600080fd5b506102e160055481565b34801561055f57600080fd5b506105a261056e366004613090565b60126020526000908152604090208054600182015460028301546003909301546001600160a01b0390921692909160ff1684565b604080516001600160a01b039095168552602085019390935291830152151560608201526080016102c2565b3480156105da57600080fd5b506004546102ae906001600160a01b031681565b3480156105fa57600080fd5b506000546001600160a01b03166102ae565b34801561061857600080fd5b50600d546102ae906001600160a01b031681565b34801561063857600080fd5b506102e160025481565b34801561064e57600080fd5b506102e161065d366004613090565b6113e7565b34801561066e57600080fd5b5061050d61067d366004613090565b611412565b34801561068e57600080fd5b5061028c61069d366004613090565b61148f565b3480156106ae57600080fd5b506003546102ae906001600160a01b031681565b3480156106ce57600080fd5b506103586106dd366004613090565b600b602052600090815260409020805460019091015482565b34801561070257600080fd5b5061028c610711366004613090565b6114de565b34801561072257600080fd5b506102e1610731366004613090565b6114eb565b34801561074257600080fd5b5061028c6107513660046130a9565b6115e4565b34801561076257600080fd5b5061028c610771366004613090565b6118e2565b34801561078257600080fd5b506102e160075481565b34801561079857600080fd5b506102e16107a7366004613090565b611a92565b3480156107b857600080fd5b5061028c6107c7366004612fd5565b611b49565b3480156107d857600080fd5b5061028c6107e7366004612f37565b612190565b3480156107f857600080fd5b50600e546102ae906001600160a01b031681565b34801561081857600080fd5b506102e1610827366004613090565b612206565b34801561083857600080fd5b5061050d610847366004613090565b612261565b600a60009054906101000a90046001600160a01b03166001600160a01b031663ae3050e16040518163ffffffff1660e01b815260040160206040518083038186803b15801561089a57600080fd5b505afa1580156108ae573d6000803e3d6000fd5b505050506040513d601f19601f820116820180604052508101906108d29190612f71565b6109135760405162461bcd60e51b815260206004820152600d60248201526c1c185d5cd95119511953195b99609a1b60448201526064015b60405180910390fd5b6000828152600b602052604081209061092b846113e7565b90506000600a60009054906101000a90046001600160a01b03166001600160a01b03166312b583496040518163ffffffff1660e01b815260040160206040518083038186803b15801561097d57600080fd5b505afa158015610991573d6000803e3d6000fd5b505050506040513d601f19601f820116820180604052508101906109b59190612fbc565b9050600754841015610a095760405162461bcd60e51b815260206004820152601a60248201527f616d6f756e74206c657373206d696e426f72726f774c696d6974000000000000604482015260640161090a565b82548290610a1790866132cc565b1115610a595760405162461bcd60e51b8152602060048201526011602482015270626f72726f7720697320746f6f2062696760781b604482015260640161090a565b6000858152600c60205260409020546001600160a01b03163314610ab75760405162461bcd60e51b81526020600482015260156024820152743cb7ba9030b932903737ba103a34329037bbb732b960591b604482015260640161090a565b80841115610b155760405162461bcd60e51b815260206004820152602560248201527f7468657265206973206e6f7420656e6f756768206d6f6e657920696e20746865604482015264081c1bdbdb60da1b606482015260840161090a565b610b1e85612283565b610b2785611412565b15610b8757610b35856110e2565b610b3e866112a7565b11610b825760405162461bcd60e51b815260206004820152601460248201527374686520707269636520697320746f6f206c6f7760601b604482015260640161090a565b610bde565b610b90856110e2565b610b99866112a7565b10610bde5760405162461bcd60e51b81526020600482015260156024820152740e8d0ca40e0e4d2c6ca40d2e640e8dede40d0d2ced605b1b604482015260640161090a565b6000610be986611079565b9050604051806040016040528082866000015488610c0791906132cc565b610c1191906132cc565b8152426020918201526000888152600b82526040902082518155910151600190910155600a546001600160a01b0316632bc355ca610c4f83886132cc565b6040518263ffffffff1660e01b8152600401610c6d91815260200190565b600060405180830381600087803b158015610c8757600080fd5b505af1158015610c9b573d6000803e3d6000fd5b5050600a546000898152600c602052604090819020549051633419e74d60e21b81526001600160a01b039182166004820152602481018a90529116925063d0679d349150604401600060405180830381600087803b158015610cfc57600080fd5b505af1158015610d10573d6000803e3d6000fd5b50505050610d203387874261233f565b505050505050565b610d3181612261565b610d6d5760405162461bcd60e51b815260206004820152600d60248201526c696e76616c696420707269636560981b604482015260640161090a565b601060009054906101000a90046001600160a01b03166001600160a01b03166363ae21036040518163ffffffff1660e01b815260040160206040518083038186803b158015610dbb57600080fd5b505afa158015610dcf573d6000803e3d6000fd5b505050506040513d601f19601f82011682018060405250810190610df39190612fbc565b341015610e3d5760405162461bcd60e51b81526020600482015260186024820152771b5a5b915e1958dd5d1a5bdb919959481d1bdbc81cdb585b60421b604482015260640161090a565b610e488160016123a0565b50565b600d5460405163eb02c30160e01b8152600481018390526000918291829182916001600160a01b039091169063eb02c301906024016101006040518083038186803b158015610e9957600080fd5b505afa158015610ead573d6000803e3d6000fd5b505050506040513d601f19601f82011682018060405250810190610ed191906130cb565b505050505092505091506008546c0c9f2c9cd04674edea40000000610ef691906132e4565b610f0090836132e4565b600854610f1a906c0c9f2c9cd04674edea400000006132e4565b610f2490836132e4565b935093505050915091565b610f3881611263565b610f745760405162461bcd60e51b815260206004820152600d60248201526c696e76616c696420707269636560981b604482015260640161090a565b601060009054906101000a90046001600160a01b03166001600160a01b03166363ae21036040518163ffffffff1660e01b815260040160206040518083038186803b158015610fc257600080fd5b505afa158015610fd6573d6000803e3d6000fd5b505050506040513d601f19601f82011682018060405250810190610ffa9190612fbc565b3410156110445760405162461bcd60e51b81526020600482015260186024820152771b5a5b915e1958dd5d1a5bdb919959481d1bdbc81cdb585b60421b604482015260640161090a565b610e488160006123a0565b6110576125ad565b600a80546001600160a01b0319166001600160a01b0392909216919091179055565b6000818152600b6020526040812060018101548290603c9061109b9042613364565b6110a591906132e4565b9050600654600554826110b89190613306565b83546110c6906064906132e4565b6110d09190613306565b6110da91906132e4565b949350505050565b6000806110ee83610e4b565b9150506110fa83611412565b1561112b576064600954606461111091906132cc565b61111a9083613306565b61112491906132e4565b9392505050565b606460095460646111109190613364565b6111446125ad565b600655565b6111516125ad565b600555565b6000818152600b6020526040902054156111a45760405162461bcd60e51b815260206004820152600f60248201526e1b1bd85b881a5cc8189b1bd8dad959608a1b604482015260640161090a565b6003546000828152600c6020526040908190205490516323b872dd60e01b81523060048201526001600160a01b039182166024820152604481018490529116906323b872dd90606401600060405180830381600087803b15801561120757600080fd5b505af115801561121b573d6000803e3d6000fd5b50506040518392503391507f6381d9813cabeb57471b5a7e05078e64845ccdb563146a6911d536f24ce960f190600090a350565b6112576125ad565b6112616000612607565b565b600061126e82611412565b1561128d5761127c826114eb565b611285836112a7565b111592915050565b611296826114eb565b61129f836112a7565b101592915050565b6000818152601260209081526040808320815160808101835281546001600160a01b031681526001820154938101939093526002810154918301919091526003015460ff16151560608201526112fc83611412565b1561139a5760085461131b906c0c9f2c9cd04674edea400000006132e4565b600e548251604051637092736960e11b81526001600160a01b03918216600482015291169063e124e6d2906024015b60206040518083038186803b15801561136257600080fd5b505afa158015611376573d6000803e3d6000fd5b505050506040513d601f19601f8201168201806040525081019061111a9190612fbc565b6008546113b4906c0c9f2c9cd04674edea400000006132e4565b600e5482516040516340d3096b60e11b81526001600160a01b0391821660048201529116906381a612d69060240161134a565b60006001546002546113f884611a92565b61140291906132e4565b61140c9190613306565b92915050565b600d5460405163a226b48360e01b8152600481018390526000916001600160a01b03169063a226b4839060240160206040518083038186803b15801561145757600080fd5b505afa15801561146b573d6000803e3d6000fd5b505050506040513d601f19601f8201168201806040525081019061140c9190612f71565b6114976125ad565b611f408111156114d95760405162461bcd60e51b815260206004820152600d60248201526c696e76616c69642076616c756560981b604482015260640161090a565b600155565b6114e66125ad565b600755565b6000818152600b60205260408120818061150485610e4b565b91509150611549604051806040016040528060088152602001676c6971507269636560c01b81525084600001548360085487600001546115449190613306565b612657565b61156f828360085486600001546115609190613306565b61156a91906132e4565b6126a6565b61157885611412565b156115b5576008548354839161158d91613306565b61159791906132e4565b6115a2906078613306565b6115ac90826132cc565b95945050505050565b600854835483916115c591613306565b6115cf91906132e4565b6115da906078613306565b6115ac9082613364565b6000828152600b60205260409020546116315760405162461bcd60e51b815260206004820152600f60248201526e1bdc1d1a5bdb881c995919595b5959608a1b604482015260640161090a565b600061163c83611079565b6000848152600b60205260409020549091506116599082906132cc565b82111561169a5760405162461bcd60e51b815260206004820152600f60248201526e1d1bdbc81b5d58da08185b5bdd5b9d608a1b604482015260640161090a565b6000838152600c60205260409020546001600160a01b031633146116bd57600080fd5b6000838152600b602052604081205483906116d99084906132cc565b6116e39190613364565b600a549091506001600160a01b0316631b45a68d6117018486613364565b6040518263ffffffff1660e01b815260040161171f91815260200190565b600060405180830381600087803b15801561173957600080fd5b505af115801561174d573d6000803e3d6000fd5b505060408051808201825284815242602080830191825260008a8152600b825284812093518455915160019093019290925560048054600c909352908390205492516323b872dd60e01b81526001600160a01b039384169181019190915230602482015260448101889052911692506323b872dd9150606401602060405180830381600087803b1580156117e057600080fd5b505af11580156117f4573d6000803e3d6000fd5b505050506040513d601f19601f820116820180604052508101906118189190612f71565b5060048054600a5460405163a9059cbb60e01b81526001600160a01b039182169381019390935260248301869052169063a9059cbb90604401602060405180830381600087803b15801561186b57600080fd5b505af115801561187f573d6000803e3d6000fd5b505050506040513d601f19601f820116820180604052508101906118a39190612f71565b50604051838152849033907f77c6871227e5d2dec8dadd5354f78453203e22e669cd0ec4c19d9a8c5edb31d0906020015b60405180910390a350505050565b600a60009054906101000a90046001600160a01b03166001600160a01b031663ae3050e16040518163ffffffff1660e01b815260040160206040518083038186803b15801561193057600080fd5b505afa158015611944573d6000803e3d6000fd5b505050506040513d601f19601f820116820180604052508101906119689190612f71565b6119a45760405162461bcd60e51b815260206004820152600d60248201526c1c185d5cd95119511953195b99609a1b604482015260640161090a565b6003546040516331a9108f60e11b81526004810183905233916001600160a01b031690636352211e9060240160206040518083038186803b1580156119e857600080fd5b505afa1580156119fc573d6000803e3d6000fd5b505050506040513d601f19601f82011682018060405250810190611a209190612f54565b6001600160a01b031614611a665760405162461bcd60e51b815260206004820152600d60248201526c3cb7ba903737ba1037bbb732b960991b604482015260640161090a565b6000818152600c6020526040902080546001600160a01b03191633908117909155610e489082906126ed565b600d546040516332d53b1760e01b815260048101839052600091829182916001600160a01b0316906332d53b1790602401604080518083038186803b158015611ada57600080fd5b505afa158015611aee573d6000803e3d6000fd5b505050506040513d601f19601f82011682018060405250810190611b129190612f8e565b9092509050611b31620f42406c0c9f2c9cd04674edea400000006132e4565b611b3b90826132e4565b9050816111245760006110da565b6010546001600160a01b03163314611ba35760405162461bcd60e51b815260206004820181905260248201527f6d73672e73656e646572206973206e6f7420706f736974696f6e526f75746572604482015260640161090a565b60008381526013602081815260408084208054808652600b845282862054898752949093526002810154600190910154600a549251631b45a68d60e01b81526004810186905293949391926001600160a01b0391821692911690631b45a68d90602401600060405180830381600087803b158015611c2057600080fd5b505af1158015611c34573d6000803e3d6000fd5b50505060008981526013602052604090206003015460ff16159050611ef65760048054600a5460405163a9059cbb60e01b81526001600160a01b039182169381019390935260248301869052169063a9059cbb90604401602060405180830381600087803b158015611ca557600080fd5b505af1158015611cb9573d6000803e3d6000fd5b505050506040513d601f19601f82011682018060405250810190611cdd9190612f71565b506004546000858152600c60205260409020546001600160a01b039182169163a9059cbb91166064611d1087600a613306565b611d1a91906132e4565b611d2490876132cc565b611d2e9086613364565b6040516001600160e01b031960e085901b1681526001600160a01b0390921660048301526024820152604401602060405180830381600087803b158015611d7457600080fd5b505af1158015611d88573d6000803e3d6000fd5b505050506040513d601f19601f82011682018060405250810190611dac9190612f71565b506004546001600160a01b031663a9059cbb826064611dcc87600a613306565b611dd691906132e4565b6040516001600160e01b031960e085901b1681526001600160a01b0390921660048301526024820152604401602060405180830381600087803b158015611e1c57600080fd5b505af1158015611e30573d6000803e3d6000fd5b505050506040513d601f19601f82011682018060405250810190611e549190612f71565b506000848152600c602052604090205484906001600160a01b03167fad7bde0b40220dccef6b876cf7594499d11d9f168fbd034338597c691a7e943d6064611e9d87600a613306565b611ea791906132e4565b611eb190876132cc565b611ebb9086613364565b866064611ec982600a613306565b611ed391906132e4565b6040805193845260208401929092529082015260600160405180910390a3612186565b8282111561207157611f088383613364565b600454600a549196506001600160a01b039081169163a9059cbb91166064611f3189605a613306565b611f3b91906132e4565b611f4590876132cc565b6040516001600160e01b031960e085901b1681526001600160a01b0390921660048301526024820152604401602060405180830381600087803b158015611f8b57600080fd5b505af1158015611f9f573d6000803e3d6000fd5b505050506040513d601f19601f82011682018060405250810190611fc39190612f71565b506004546001600160a01b031663a9059cbb826064611fe389600a613306565b611fed91906132e4565b6040516001600160e01b031960e085901b1681526001600160a01b0390921660048301526024820152604401602060405180830381600087803b15801561203357600080fd5b505af1158015612047573d6000803e3d6000fd5b505050506040513d601f19601f8201168201806040525081019061206b9190612f71565b506120fd565b60048054600a5460405163a9059cbb60e01b81526001600160a01b039182169381019390935260248301859052169063a9059cbb90604401602060405180830381600087803b1580156120c357600080fd5b505af11580156120d7573d6000803e3d6000fd5b505050506040513d601f19601f820116820180604052508101906120fb9190612f71565b505b6000848152600c602052604090205484906001600160a01b03167f4e91025e01b2329df1ec1067d27aafec4d1c41f682ccd794dee04321e0b1e8dc8560646121468a605a613306565b61215091906132e4565b606461215d8b600a613306565b61216791906132e4565b6040805193845260208401929092529082015260600160405180910390a35b5050505050505050565b6121986125ad565b6001600160a01b0381166121fd5760405162461bcd60e51b815260206004820152602660248201527f4f776e61626c653a206e6577206f776e657220697320746865207a65726f206160448201526564647265737360d01b606482015260840161090a565b610e4881612607565b600061221182611412565b156122405761221f826114eb565b612228836110e2565b11156122375761140c826110e2565b61140c826114eb565b612249826114eb565b612252836110e2565b10156122375761140c826110e2565b600061226c82611412565b1561227a5761127c826110e2565b611296826110e2565b600d546040516332d53b1760e01b8152600481018390526000916001600160a01b0316906332d53b1790602401604080518083038186803b1580156122c757600080fd5b505afa1580156122db573d6000803e3d6000fd5b505050506040513d601f19601f820116820180604052508101906122ff9190612f8e565b5090508061233b5760405162461bcd60e51b81526020600482015260096024820152681b9bc81c1c9bd99a5d60ba1b604482015260640161090a565b5050565b6000838152601260209081526040918290205482518581526001600160a01b0391821692810192909252429282019290925284918616907f1fdbee5d1bd2901710e8945918b1a052ce67662661a2ccbf68420e4e430f8dab906060016118d4565b600d5460405163e6e6dd2f60e01b8152600481018490526000916001600160a01b03169063e6e6dd2f9060240160a060405180830381600087803b1580156123e757600080fd5b505af11580156123fb573d6000803e3d6000fd5b505050506040513d601f19601f8201168201806040525081019061241f9190613017565b5050506000858152601260209081526040808320815160808101835281546001600160a01b031681526001820154938101939093526002810154918301919091526003015460ff16151560608201529193509091508061247e86612976565b91509150600080600061249089612b20565b9250925092506124a1878a8a612d86565b866001600160a01b0316636f7e87993430868a60000151868a8d606001518d8b601060009054906101000a90046001600160a01b03166001600160a01b03166363ae21036040518163ffffffff1660e01b815260040160206040518083038186803b15801561250f57600080fd5b505afa158015612523573d6000803e3d6000fd5b505050506040513d601f19601f820116820180604052508101906125479190612fbc565b6000306040518d63ffffffff1660e01b81526004016125709b9a99989796959493929190613135565b6000604051808303818588803b15801561258957600080fd5b505af115801561259d573d6000803e3d6000fd5b5050505050505050505050505050565b6000546001600160a01b031633146112615760405162461bcd60e51b815260206004820181905260248201527f4f776e61626c653a2063616c6c6572206973206e6f7420746865206f776e6572604482015260640161090a565b600080546001600160a01b038381166001600160a01b0319831681178455604051919092169283917f8be0079c531659141344cd1fd0a4f28419497f9722a3daafe3b4186f6b6457e09190a35050565b6126a0848484846040516024016126719493929190613222565b60408051601f198184030181529190526020810180516001600160e01b031663a7a8785360e01b179052612f16565b50505050565b604051602481018390526044810182905261233b9060640160408051601f198184030181529190526020810180516001600160e01b0316637b3338ad60e11b179052612f16565b600d5460405163e6e6dd2f60e01b81526004810184905260009182916001600160a01b039091169063e6e6dd2f9060240160a060405180830381600087803b15801561273857600080fd5b505af115801561274c573d6000803e3d6000fd5b505050506040513d601f19601f820116820180604052508101906127709190613017565b5050600d54604051630b7d321160e41b81529395509093506000926001600160a01b03909116915063b7d32110906127ac9086906004016131fa565b602060405180830381600087803b1580156127c657600080fd5b505af11580156127da573d6000803e3d6000fd5b505050506040513d601f19601f820116820180604052508101906127fe9190612f54565b600d5460405163eb02c30160e01b81526004810188905291925060009182916001600160a01b03169063eb02c301906024016101006040518083038186803b15801561284957600080fd5b505afa15801561285d573d6000803e3d6000fd5b505050506040513d601f19601f8201168201806040525081019061288191906130cb565b50506003546040516323b872dd60e01b8152336004820152306024820152604481018f9052969850939650506001600160a01b03909216936323b872dd935060640191506128cc9050565b600060405180830381600087803b1580156128e657600080fd5b505af11580156128fa573d6000803e3d6000fd5b5050604080516080810182526001600160a01b03968716815260208082019687528183019586529715156060820190815260009b8c5260129098529920985189546001600160a01b0319169516949094178855509051600187015551600286015550516003909301805460ff1916931515939093179092555050565b600d5460405163eb02c30160e01b815260048101839052600091829182916001600160a01b03169063eb02c301906024016101006040518083038186803b1580156129c057600080fd5b505afa1580156129d4573d6000803e3d6000fd5b505050506040513d601f19601f820116820180604052508101906129f891906130cb565b5050505050505090508060001415612a4a5760405162461bcd60e51b81526020600482015260156024820152741c1bdcda5d1a5bdb881cda5e99481a5cc81b9d5b1b605a1b604482015260640161090a565b60008481526012602052604090206003015460ff16612a7757601154612a72906103e861328b565b612a86565b601154612a86906103e8613325565b600d54604051637a3c4c1760e01b8152600481018790526103e8916001600160a01b031690637a3c4c179060240160206040518083038186803b158015612acc57600080fd5b505afa158015612ae0573d6000803e3d6000fd5b505050506040513d601f19601f82011682018060405250810190612b049190612fbc565b612b0e91906132e4565b612b189190613306565b925050915091565b600d5460405163eb02c30160e01b815260048101839052606091600091829182916001600160a01b039091169063eb02c301906024016101006040518083038186803b158015612b6f57600080fd5b505afa158015612b83573d6000803e3d6000fd5b505050506040513d601f19601f82011682018060405250810190612ba791906130cb565b5050600d546040516332d53b1760e01b8152600481018d90529597506000965086956001600160a01b0390911694506332d53b1793506024019150612be99050565b604080518083038186803b158015612c0057600080fd5b505afa158015612c14573d6000803e3d6000fd5b505050506040513d601f19601f82011682018060405250810190612c389190612f8e565b9150915081612c475780612c49565b825b60008881526012602052604090206003015490945060ff1615612d1757604080516002808252606082018352909160208301908036833750505060008881526012602052604081205482519298506001600160a01b031691889190612cb057612cb0613391565b6001600160a01b039283166020918202929092010152600454875191169087906001908110612ce157612ce1613391565b6001600160a01b03909216602092830291909101909101526064612d06856063613306565b612d1091906132e4565b9450612d7c565b6040805160018082528183019092529060208083019080368337505060045482519298506001600160a01b031691889150600090612d5757612d57613391565b60200260200101906001600160a01b031690816001600160a01b031681525050600094505b5050509193909250565b60105460405163fa44457760e01b81526001600160a01b038581166004830152600092169063fa44457790602401602060405180830381600087803b158015612dce57600080fd5b505af1158015612de2573d6000803e3d6000fd5b505050506040513d601f19601f82011682018060405250810190612e069190612fbc565b60105460405163317c51ff60e11b81526001600160a01b03878116600483015260248201849052929350600092909116906362f8a3fe9060440160206040518083038186803b158015612e5857600080fd5b505afa158015612e6c573d6000803e3d6000fd5b505050506040513d601f19601f82011682018060405250810190612e909190612fbc565b90506000612e9d85611a92565b60408051608081018252968752336020808901918252888301938452961515606089019081526000958652601390975293209551865591516001860180546001600160a01b0319166001600160a01b039092169190911790555051600284015550516003909101805460ff191691151591909117905550565b80516a636f6e736f6c652e6c6f67602083016000808483855afa5050505050565b600060208284031215612f4957600080fd5b8135611124816133a7565b600060208284031215612f6657600080fd5b8151611124816133a7565b600060208284031215612f8357600080fd5b8151611124816133bc565b60008060408385031215612fa157600080fd5b8251612fac816133bc565b6020939093015192949293505050565b600060208284031215612fce57600080fd5b5051919050565b600080600060608486031215612fea57600080fd5b833592506020840135612ffc816133bc565b9150604084013561300c816133bc565b809150509250925092565b600080600080600060a0868803121561302f57600080fd5b85516008811061303e57600080fd5b602087015190955061304f816133a7565b6040870151909450613060816133bc565b6060870151909350613071816133a7565b6080870151909250613082816133a7565b809150509295509295909350565b6000602082840312156130a257600080fd5b5035919050565b600080604083850312156130bc57600080fd5b50508035926020909101359150565b600080600080600080600080610100898b0312156130e857600080fd5b885197506020890151965060408901519550606089015194506080890151935060a0890151925060c089015161311d816133bc565b8092505060e089015190509295985092959890939650565b6001600160a01b038c8116825261016060208084018290528d51918401829052600092916101808501918f01845b828110156131835781518516845260209384019390910190600101613163565b5050506001600160a01b038d166040850152915061319e9050565b8960608301528860808301526131b860a083018915159052565b8660c08301528560e0830152846101008301526131da61012083018515159052565b6001600160a01b0383166101408301529c9b505050505050505050505050565b602081016008831061321c57634e487b7160e01b600052602160045260246000fd5b91905290565b608081526000855180608084015260005b8181101561325057602081890181015160a0868401015201613233565b8181111561326257600060a083860101525b506020830195909552506040810192909252606082015260a0601f909201601f19160101919050565b600080821280156001600160ff1b03849003851316156132ad576132ad61337b565b600160ff1b83900384128116156132c6576132c661337b565b50500190565b600082198211156132df576132df61337b565b500190565b60008261330157634e487b7160e01b600052601260045260246000fd5b500490565b60008160001904831182151516156133205761332061337b565b500290565b60008083128015600160ff1b8501841216156133435761334361337b565b6001600160ff1b038401831381161561335e5761335e61337b565b50500390565b6000828210156133765761337661337b565b500390565b634e487b7160e01b600052601160045260246000fd5b634e487b7160e01b600052603260045260246000fd5b6001600160a01b0381168114610e4857600080fd5b8015158114610e4857600080fdfea264697066735822122033e8bd936a9a6f1b2bd3f8f1149be2660ba1847a6ab143d40e90484de3312f0964736f6c63430008060033",
  "devdoc": {
    "kind": "dev",
    "methods": {
      "borrow(uint256,uint256)": {
        "params": {
          "amount": "borrow size (USDC)*",
          "id": "collateral ID"
        }
      },
      "calculateUpcomingFee(uint256)": {
        "params": {
          "id": "collateral ID*"
        }
      },
      "collateralInfo(uint256)": {
        "params": {
          "id": "collateral id*"
        }
      },
      "intrinsicValueOf(uint256)": {
        "params": {
          "id": "collateral ID*"
        }
      },
      "liquidate(uint256)": {
        "params": {
          "id": "position ID*"
        }
      },
      "liquidateByBorderPrice(uint256)": {
        "params": {
          "id": "collateral ID*"
        }
      },
      "lockCollateral(uint256)": {
        "params": {
          "id": "collateral ID*"
        }
      },
      "maxBorrowLimit(uint256)": {
        "params": {
          "id": "collateral ID*"
        }
      },
      "owner()": {
        "details": "Returns the address of the current owner."
      },
      "renounceOwnership()": {
        "details": "Leaves the contract without owner. It will not be possible to call `onlyOwner` functions anymore. Can only be called by the current owner. NOTE: Renouncing ownership will leave the contract without an owner, thereby removing any functionality that is only available to the owner."
      },
      "repay(uint256,uint256)": {
        "params": {
          "amount": "amount to repay (USDC)*",
          "id": "collateral ID"
        }
      },
      "setInterestRate(uint256)": {
        "params": {
          "value": "interest rate (in minutes)*"
        }
      },
      "setLTV(uint256)": {
        "params": {
          "value": "LTV coefficient.*"
        }
      },
      "setMinBorrowLimit(uint256)": {
        "params": {
          "value": "min. borrow size (USDC)*"
        }
      },
      "setPool(address)": {
        "params": {
          "value": "the address of the liquidity pool*"
        }
      },
      "transferOwnership(address)": {
        "details": "Transfers ownership of the contract to a new account (`newOwner`). Can only be called by the current owner."
      },
      "unlock(uint256)": {
        "params": {
          "id": "collateral ID*"
        }
      }
    },
    "version": 1
  },
  "userdoc": {
    "kind": "user",
    "methods": {
      "borrow(uint256,uint256)": {
        "notice": "send USDC to the user"
      },
      "calculateUpcomingFee(uint256)": {
        "notice": "used to calculate how much USDC user should pay as interest fee"
      },
      "collateralInfo(uint256)": {
        "notice": "returns the position size and the entry price by collateral ID"
      },
      "intrinsicValueOf(uint256)": {
        "notice": "calculates the intrinsic value of the collateral"
      },
      "liquidate(uint256)": {
        "notice": "used to liquidate the loan"
      },
      "liquidateByBorderPrice(uint256)": {
        "notice": "used to liquidate the loan by border price"
      },
      "lockCollateral(uint256)": {
        "notice": "used to lock the collateral (ERC-721) in DeDeLend"
      },
      "maxBorrowLimit(uint256)": {
        "notice": "calcualtes the maximum borrow size for the specific collateral"
      },
      "repay(uint256,uint256)": {
        "notice": "used to repay the user's debt"
      },
      "setInterestRate(uint256)": {
        "notice": "used to set new interest rate"
      },
      "setLTV(uint256)": {
        "notice": "used to set LTV coefficient"
      },
      "setMinBorrowLimit(uint256)": {
        "notice": "used to set the minimum borrow size"
      },
      "setPool(address)": {
        "notice": "used to connect a new liqidity pool"
      },
      "unlock(uint256)": {
        "notice": "sends the collateral token back to the user"
      }
    },
    "version": 1
  },
  "storageLayout": {
    "storage": [
      {
        "astId": 7,
        "contract": "contracts/DDL_GMX.sol:DDL_GMX",
        "label": "_owner",
        "offset": 0,
        "slot": "0",
        "type": "t_address"
      },
      {
        "astId": 3790,
        "contract": "contracts/DDL_GMX.sol:DDL_GMX",
        "label": "LTV",
        "offset": 0,
        "slot": "1",
        "type": "t_uint256"
      },
      {
        "astId": 3795,
        "contract": "contracts/DDL_GMX.sol:DDL_GMX",
        "label": "LTV_DECIMALS",
        "offset": 0,
        "slot": "2",
        "type": "t_uint256"
      },
      {
        "astId": 3798,
        "contract": "contracts/DDL_GMX.sol:DDL_GMX",
        "label": "collateralToken",
        "offset": 0,
        "slot": "3",
        "type": "t_contract(IERC721)2101"
      },
      {
        "astId": 3801,
        "contract": "contracts/DDL_GMX.sol:DDL_GMX",
        "label": "USDC",
        "offset": 0,
        "slot": "4",
        "type": "t_contract(IERC20)776"
      },
      {
        "astId": 3804,
        "contract": "contracts/DDL_GMX.sol:DDL_GMX",
        "label": "interestRate",
        "offset": 0,
        "slot": "5",
        "type": "t_uint256"
      },
      {
        "astId": 3809,
        "contract": "contracts/DDL_GMX.sol:DDL_GMX",
        "label": "INTEREST_RATE_DECIMALS",
        "offset": 0,
        "slot": "6",
        "type": "t_uint256"
      },
      {
        "astId": 3811,
        "contract": "contracts/DDL_GMX.sol:DDL_GMX",
        "label": "minBorrowLimit",
        "offset": 0,
        "slot": "7",
        "type": "t_uint256"
      },
      {
        "astId": 3813,
        "contract": "contracts/DDL_GMX.sol:DDL_GMX",
        "label": "COLLATERAL_DECIMALS",
        "offset": 0,
        "slot": "8",
        "type": "t_uint256"
      },
      {
        "astId": 3815,
        "contract": "contracts/DDL_GMX.sol:DDL_GMX",
        "label": "BorderPriceCoef",
        "offset": 0,
        "slot": "9",
        "type": "t_uint256"
      },
      {
        "astId": 3818,
        "contract": "contracts/DDL_GMX.sol:DDL_GMX",
        "label": "pool",
        "offset": 0,
        "slot": "10",
        "type": "t_contract(IPoolDDL)6753"
      },
      {
        "astId": 3828,
        "contract": "contracts/DDL_GMX.sol:DDL_GMX",
        "label": "borrowedByCollateral",
        "offset": 0,
        "slot": "11",
        "type": "t_mapping(t_uint256,t_struct(BorrowedByCollateral)3823_storage)"
      },
      {
        "astId": 3832,
        "contract": "contracts/DDL_GMX.sol:DDL_GMX",
        "label": "collateralOwner",
        "offset": 0,
        "slot": "12",
        "type": "t_mapping(t_uint256,t_address)"
      },
      {
        "astId": 4699,
        "contract": "contracts/DDL_GMX.sol:DDL_GMX",
        "label": "accountManager",
        "offset": 0,
        "slot": "13",
        "type": "t_contract(IAccountManager)6537"
      },
      {
        "astId": 4702,
        "contract": "contracts/DDL_GMX.sol:DDL_GMX",
        "label": "vault",
        "offset": 0,
        "slot": "14",
        "type": "t_contract(IVault)7604"
      },
      {
        "astId": 4705,
        "contract": "contracts/DDL_GMX.sol:DDL_GMX",
        "label": "orderBook",
        "offset": 0,
        "slot": "15",
        "type": "t_contract(IOrderBook)6723"
      },
      {
        "astId": 4708,
        "contract": "contracts/DDL_GMX.sol:DDL_GMX",
        "label": "positionRouter",
        "offset": 0,
        "slot": "16",
        "type": "t_contract(IPositionRouter)6901"
      },
      {
        "astId": 4711,
        "contract": "contracts/DDL_GMX.sol:DDL_GMX",
        "label": "closeSlippage",
        "offset": 0,
        "slot": "17",
        "type": "t_int256"
      },
      {
        "astId": 4737,
        "contract": "contracts/DDL_GMX.sol:DDL_GMX",
        "label": "positionInfo",
        "offset": 0,
        "slot": "18",
        "type": "t_mapping(t_uint256,t_struct(PositionInfo)4723_storage)"
      },
      {
        "astId": 4742,
        "contract": "contracts/DDL_GMX.sol:DDL_GMX",
        "label": "liquidatePositionInfo",
        "offset": 0,
        "slot": "19",
        "type": "t_mapping(t_bytes32,t_struct(LiquidatePositionInfo)4732_storage)"
      }
    ],
    "types": {
      "t_address": {
        "encoding": "inplace",
        "label": "address",
        "numberOfBytes": "20"
      },
      "t_bool": {
        "encoding": "inplace",
        "label": "bool",
        "numberOfBytes": "1"
      },
      "t_bytes32": {
        "encoding": "inplace",
        "label": "bytes32",
        "numberOfBytes": "32"
      },
      "t_contract(IAccountManager)6537": {
        "encoding": "inplace",
        "label": "contract IAccountManager",
        "numberOfBytes": "20"
      },
      "t_contract(IERC20)776": {
        "encoding": "inplace",
        "label": "contract IERC20",
        "numberOfBytes": "20"
      },
      "t_contract(IERC721)2101": {
        "encoding": "inplace",
        "label": "contract IERC721",
        "numberOfBytes": "20"
      },
      "t_contract(IOrderBook)6723": {
        "encoding": "inplace",
        "label": "contract IOrderBook",
        "numberOfBytes": "20"
      },
      "t_contract(IPoolDDL)6753": {
        "encoding": "inplace",
        "label": "contract IPoolDDL",
        "numberOfBytes": "20"
      },
      "t_contract(IPositionRouter)6901": {
        "encoding": "inplace",
        "label": "contract IPositionRouter",
        "numberOfBytes": "20"
      },
      "t_contract(IVault)7604": {
        "encoding": "inplace",
        "label": "contract IVault",
        "numberOfBytes": "20"
      },
      "t_int256": {
        "encoding": "inplace",
        "label": "int256",
        "numberOfBytes": "32"
      },
      "t_mapping(t_bytes32,t_struct(LiquidatePositionInfo)4732_storage)": {
        "encoding": "mapping",
        "key": "t_bytes32",
        "label": "mapping(bytes32 => struct DDL_GMX.LiquidatePositionInfo)",
        "numberOfBytes": "32",
        "value": "t_struct(LiquidatePositionInfo)4732_storage"
      },
      "t_mapping(t_uint256,t_address)": {
        "encoding": "mapping",
        "key": "t_uint256",
        "label": "mapping(uint256 => address)",
        "numberOfBytes": "32",
        "value": "t_address"
      },
      "t_mapping(t_uint256,t_struct(BorrowedByCollateral)3823_storage)": {
        "encoding": "mapping",
        "key": "t_uint256",
        "label": "mapping(uint256 => struct DDL.BorrowedByCollateral)",
        "numberOfBytes": "32",
        "value": "t_struct(BorrowedByCollateral)3823_storage"
      },
      "t_mapping(t_uint256,t_struct(PositionInfo)4723_storage)": {
        "encoding": "mapping",
        "key": "t_uint256",
        "label": "mapping(uint256 => struct DDL_GMX.PositionInfo)",
        "numberOfBytes": "32",
        "value": "t_struct(PositionInfo)4723_storage"
      },
      "t_struct(BorrowedByCollateral)3823_storage": {
        "encoding": "inplace",
        "label": "struct DDL.BorrowedByCollateral",
        "members": [
          {
            "astId": 3820,
            "contract": "contracts/DDL_GMX.sol:DDL_GMX",
            "label": "borrowed",
            "offset": 0,
            "slot": "0",
            "type": "t_uint256"
          },
          {
            "astId": 3822,
            "contract": "contracts/DDL_GMX.sol:DDL_GMX",
            "label": "newBorrowTimestamp",
            "offset": 0,
            "slot": "1",
            "type": "t_uint256"
          }
        ],
        "numberOfBytes": "64"
      },
      "t_struct(LiquidatePositionInfo)4732_storage": {
        "encoding": "inplace",
        "label": "struct DDL_GMX.LiquidatePositionInfo",
        "members": [
          {
            "astId": 4725,
            "contract": "contracts/DDL_GMX.sol:DDL_GMX",
            "label": "id",
            "offset": 0,
            "slot": "0",
            "type": "t_uint256"
          },
          {
            "astId": 4727,
            "contract": "contracts/DDL_GMX.sol:DDL_GMX",
            "label": "liquidator",
            "offset": 0,
            "slot": "1",
            "type": "t_address"
          },
          {
            "astId": 4729,
            "contract": "contracts/DDL_GMX.sol:DDL_GMX",
            "label": "profit",
            "offset": 0,
            "slot": "2",
            "type": "t_uint256"
          },
          {
            "astId": 4731,
            "contract": "contracts/DDL_GMX.sol:DDL_GMX",
            "label": "isBorderPrice",
            "offset": 0,
            "slot": "3",
            "type": "t_bool"
          }
        ],
        "numberOfBytes": "128"
      },
      "t_struct(PositionInfo)4723_storage": {
        "encoding": "inplace",
        "label": "struct DDL_GMX.PositionInfo",
        "members": [
          {
            "astId": 4716,
            "contract": "contracts/DDL_GMX.sol:DDL_GMX",
            "label": "indexToken",
            "offset": 0,
            "slot": "0",
            "type": "t_address"
          },
          {
            "astId": 4718,
            "contract": "contracts/DDL_GMX.sol:DDL_GMX",
            "label": "amount",
            "offset": 0,
            "slot": "1",
            "type": "t_uint256"
          },
          {
            "astId": 4720,
            "contract": "contracts/DDL_GMX.sol:DDL_GMX",
            "label": "openPrice",
            "offset": 0,
            "slot": "2",
            "type": "t_uint256"
          },
          {
            "astId": 4722,
            "contract": "contracts/DDL_GMX.sol:DDL_GMX",
            "label": "isLong",
            "offset": 0,
            "slot": "3",
            "type": "t_bool"
          }
        ],
        "numberOfBytes": "128"
      },
      "t_uint256": {
        "encoding": "inplace",
        "label": "uint256",
        "numberOfBytes": "32"
      }
    }
  }
}