{
  "_format": "hh-sol-artifact-1",
  "contractName": "Doppelganger",
  "sourceName": "contracts/Doppelganger.sol",
  "abi": [
    {
      "inputs": [
        {
          "internalType": "contract IPositionRouter",
          "name": "_positionRouter",
          "type": "address"
        },
        {
          "internalType": "contract IRouter",
          "name": "_router",
          "type": "address"
        },
        {
          "internalType": "contract IOrderBook",
          "name": "_orderBook",
          "type": "address"
        },
        {
          "internalType": "contract IERC20",
          "name": "_USDC",
          "type": "address"
        },
        {
          "internalType": "uint256[8]",
          "name": "keyArray",
          "type": "uint256[8]"
        },
        {
          "internalType": "address[8]",
          "name": "_indexTokenArray",
          "type": "address[8]"
        },
        {
          "internalType": "address",
          "name": "_accountManager",
          "type": "address"
        },
        {
          "internalType": "address",
          "name": "_ddl_gmx",
          "type": "address"
        }
      ],
      "stateMutability": "nonpayable",
      "type": "constructor"
    },
    {
      "inputs": [],
      "name": "GMXPT",
      "outputs": [
        {
          "internalType": "contract ERC721",
          "name": "",
          "type": "address"
        }
      ],
      "stateMutability": "view",
      "type": "function"
    },
    {
      "inputs": [],
      "name": "USDC",
      "outputs": [
        {
          "internalType": "contract IERC20",
          "name": "",
          "type": "address"
        }
      ],
      "stateMutability": "view",
      "type": "function"
    },
    {
      "inputs": [],
      "name": "accountManager",
      "outputs": [
        {
          "internalType": "address",
          "name": "",
          "type": "address"
        }
      ],
      "stateMutability": "view",
      "type": "function"
    },
    {
      "inputs": [
        {
          "internalType": "uint256",
          "name": "value",
          "type": "uint256"
        }
      ],
      "name": "approveAll",
      "outputs": [],
      "stateMutability": "nonpayable",
      "type": "function"
    },
    {
      "inputs": [
        {
          "internalType": "address",
          "name": "user",
          "type": "address"
        },
        {
          "internalType": "address",
          "name": "_indexToken",
          "type": "address"
        },
        {
          "internalType": "bool",
          "name": "_isLong",
          "type": "bool"
        },
        {
          "internalType": "uint256",
          "name": "_orderIndex",
          "type": "uint256"
        }
      ],
      "name": "cancelIncreaseOrder",
      "outputs": [],
      "stateMutability": "nonpayable",
      "type": "function"
    },
    {
      "inputs": [
        {
          "internalType": "address",
          "name": "user",
          "type": "address"
        },
        {
          "internalType": "address",
          "name": "_indexToken",
          "type": "address"
        },
        {
          "internalType": "uint256",
          "name": "_sizeDelta",
          "type": "uint256"
        },
        {
          "internalType": "address",
          "name": "_collateralToken",
          "type": "address"
        },
        {
          "internalType": "uint256",
          "name": "_collateralDelta",
          "type": "uint256"
        },
        {
          "internalType": "bool",
          "name": "_isLong",
          "type": "bool"
        },
        {
          "internalType": "uint256",
          "name": "_triggerPrice",
          "type": "uint256"
        },
        {
          "internalType": "bool",
          "name": "_triggerAboveThreshold",
          "type": "bool"
        }
      ],
      "name": "createDecreaseOrder",
      "outputs": [],
      "stateMutability": "payable",
      "type": "function"
    },
    {
      "inputs": [
        {
          "internalType": "address",
          "name": "user",
          "type": "address"
        },
        {
          "internalType": "address[]",
          "name": "_path",
          "type": "address[]"
        },
        {
          "internalType": "address",
          "name": "_indexToken",
          "type": "address"
        },
        {
          "internalType": "uint256",
          "name": "_collateralDelta",
          "type": "uint256"
        },
        {
          "internalType": "uint256",
          "name": "_sizeDelta",
          "type": "uint256"
        },
        {
          "internalType": "bool",
          "name": "_isLong",
          "type": "bool"
        },
        {
          "internalType": "uint256",
          "name": "_acceptablePrice",
          "type": "uint256"
        },
        {
          "internalType": "uint256",
          "name": "_minOut",
          "type": "uint256"
        },
        {
          "internalType": "uint256",
          "name": "_executionFee",
          "type": "uint256"
        },
        {
          "internalType": "bool",
          "name": "_withdrawETH",
          "type": "bool"
        },
        {
          "internalType": "address",
          "name": "_callbackTarget",
          "type": "address"
        }
      ],
      "name": "createDecreasePosition",
      "outputs": [],
      "stateMutability": "payable",
      "type": "function"
    },
    {
      "inputs": [
        {
          "internalType": "address",
          "name": "user",
          "type": "address"
        },
        {
          "internalType": "address[]",
          "name": "_path",
          "type": "address[]"
        },
        {
          "internalType": "uint256",
          "name": "_amountIn",
          "type": "uint256"
        },
        {
          "internalType": "address",
          "name": "_indexToken",
          "type": "address"
        },
        {
          "internalType": "uint256",
          "name": "_minOut",
          "type": "uint256"
        },
        {
          "internalType": "uint256",
          "name": "_sizeDelta",
          "type": "uint256"
        },
        {
          "internalType": "address",
          "name": "_collateralToken",
          "type": "address"
        },
        {
          "internalType": "bool",
          "name": "_isLong",
          "type": "bool"
        },
        {
          "internalType": "uint256",
          "name": "_triggerPrice",
          "type": "uint256"
        },
        {
          "internalType": "bool",
          "name": "_triggerAboveThreshold",
          "type": "bool"
        },
        {
          "internalType": "uint256",
          "name": "_executionFee",
          "type": "uint256"
        },
        {
          "internalType": "bool",
          "name": "_shouldWrap",
          "type": "bool"
        }
      ],
      "name": "createIncreaseOrder",
      "outputs": [],
      "stateMutability": "payable",
      "type": "function"
    },
    {
      "inputs": [
        {
          "internalType": "address",
          "name": "user",
          "type": "address"
        },
        {
          "internalType": "address[]",
          "name": "_path",
          "type": "address[]"
        },
        {
          "internalType": "address",
          "name": "_indexToken",
          "type": "address"
        },
        {
          "internalType": "uint256",
          "name": "_amountIn",
          "type": "uint256"
        },
        {
          "internalType": "uint256",
          "name": "_minOut",
          "type": "uint256"
        },
        {
          "internalType": "uint256",
          "name": "_sizeDelta",
          "type": "uint256"
        },
        {
          "internalType": "bool",
          "name": "_isLong",
          "type": "bool"
        },
        {
          "internalType": "uint256",
          "name": "_acceptablePrice",
          "type": "uint256"
        },
        {
          "internalType": "uint256",
          "name": "_executionFee",
          "type": "uint256"
        },
        {
          "internalType": "bytes32",
          "name": "_referralCode",
          "type": "bytes32"
        },
        {
          "internalType": "address",
          "name": "_callbackTarget",
          "type": "address"
        }
      ],
      "name": "createIncreasePosition",
      "outputs": [],
      "stateMutability": "payable",
      "type": "function"
    },
    {
      "inputs": [
        {
          "internalType": "address",
          "name": "user",
          "type": "address"
        },
        {
          "internalType": "address[]",
          "name": "_path",
          "type": "address[]"
        },
        {
          "internalType": "address",
          "name": "_indexToken",
          "type": "address"
        },
        {
          "internalType": "uint256",
          "name": "_amountIn",
          "type": "uint256"
        },
        {
          "internalType": "uint256",
          "name": "_minOut",
          "type": "uint256"
        },
        {
          "internalType": "uint256",
          "name": "_sizeDelta",
          "type": "uint256"
        },
        {
          "internalType": "bool",
          "name": "_isLong",
          "type": "bool"
        },
        {
          "internalType": "uint256",
          "name": "_acceptablePrice",
          "type": "uint256"
        },
        {
          "internalType": "uint256",
          "name": "_executionFee",
          "type": "uint256"
        },
        {
          "internalType": "bytes32",
          "name": "_referralCode",
          "type": "bytes32"
        },
        {
          "internalType": "address",
          "name": "_callbackTarget",
          "type": "address"
        }
      ],
      "name": "createIncreasePositionETH",
      "outputs": [],
      "stateMutability": "payable",
      "type": "function"
    },
    {
      "inputs": [],
      "name": "ddl_gmx",
      "outputs": [
        {
          "internalType": "address",
          "name": "",
          "type": "address"
        }
      ],
      "stateMutability": "view",
      "type": "function"
    },
    {
      "inputs": [
        {
          "internalType": "uint256",
          "name": "",
          "type": "uint256"
        }
      ],
      "name": "indexTokenArray",
      "outputs": [
        {
          "internalType": "address",
          "name": "",
          "type": "address"
        }
      ],
      "stateMutability": "view",
      "type": "function"
    },
    {
      "inputs": [
        {
          "internalType": "address",
          "name": "",
          "type": "address"
        },
        {
          "internalType": "bool",
          "name": "",
          "type": "bool"
        }
      ],
      "name": "keyByIndexToken",
      "outputs": [
        {
          "internalType": "uint256",
          "name": "",
          "type": "uint256"
        }
      ],
      "stateMutability": "view",
      "type": "function"
    },
    {
      "inputs": [],
      "name": "orderBook",
      "outputs": [
        {
          "internalType": "contract IOrderBook",
          "name": "",
          "type": "address"
        }
      ],
      "stateMutability": "view",
      "type": "function"
    },
    {
      "inputs": [],
      "name": "positionRouter",
      "outputs": [
        {
          "internalType": "contract IPositionRouter",
          "name": "",
          "type": "address"
        }
      ],
      "stateMutability": "view",
      "type": "function"
    },
    {
      "inputs": [],
      "name": "router",
      "outputs": [
        {
          "internalType": "contract IRouter",
          "name": "",
          "type": "address"
        }
      ],
      "stateMutability": "view",
      "type": "function"
    },
    {
      "inputs": [],
      "name": "withdraw",
      "outputs": [],
      "stateMutability": "nonpayable",
      "type": "function"
    },
    {
      "stateMutability": "payable",
      "type": "receive"
    }
  ],
  "bytecode": "0x60a06040523480156200001157600080fd5b506040516200190338038062001903833981016040819052620000349162000242565b600480546001600160a01b038088166001600160a01b031992831617909255600080548b84169083161781556001600160601b031960608b901b1660805260018054938a16939092169290921790555b60088110156200017e576004811015620000e857838160088110620000ad57620000ad620003a6565b602002015160058260048110620000c857620000c8620003a6565b0180546001600160a01b0319166001600160a01b03929092169190911790555b848160088110620000fd57620000fd620003a6565b6020020151600260008684600881106200011b576200011b620003a6565b60200201516001600160a01b03166001600160a01b031681526020019081526020016000206000600484106200015357600062000156565b60015b151581526020810191909152604001600020558062000175816200037c565b91505062000084565b50600380546001600160a01b039384166001600160a01b03199182168117909255600980548216909217909155600a805492909316911617905550620003d5945050505050565b8051620001d281620003bc565b919050565b600082601f830112620001e957600080fd5b620001f362000344565b808385610100860111156200020757600080fd5b60005b6008811015620002375781516200022181620003bc565b845260209384019391909101906001016200020a565b509095945050505050565b6000806000806000806000806102c0898b0312156200026057600080fd5b88516200026d81620003bc565b809850506020808a01516200028281620003bc565b60408b01519098506200029581620003bc565b60608b0151909750620002a881620003bc565b9550609f8a018b13620002ba57600080fd5b620002c462000344565b8060808c016101808d018e811115620002dc57600080fd5b60005b6008811015620002fe57825185529385019391850191600101620002df565b508298506200030e8f82620001d7565b97505050505050620003246102808a01620001c5565b9150620003356102a08a01620001c5565b90509295985092959890939650565b60405161010081016001600160401b03811182821017156200037657634e487b7160e01b600052604160045260246000fd5b60405290565b60006000198214156200039f57634e487b7160e01b600052601160045260246000fd5b5060010190565b634e487b7160e01b600052603260045260246000fd5b6001600160a01b0381168114620003d257600080fd5b50565b60805160601c6114f3620004106000396000818161031901528181610747015281816107c5015281816108f80152610a3e01526114f36000f3fe6080604052600436106101025760003560e01c806389a3027111610095578063b7511c5b11610064578063b7511c5b146102a1578063d6ef6013146102c1578063da91dfd5146102e1578063de26fdcd146102f4578063f887ea401461030757600080fd5b806389a302711461022e57806391c2c4691461024e57806397701f191461026e578063b32e8cb61461028157600080fd5b80634fbb66c3116100d15780634fbb66c3146101c857806361ef161f146101db5780636f7e8799146101fb578063776af5ba1461020e57600080fd5b806306b278cb1461010e5780630cd790f71461014b57806313a51b2e1461016b5780633ccfd60b146101b157600080fd5b3661010957005b600080fd5b34801561011a57600080fd5b5060035461012e906001600160a01b031681565b6040516001600160a01b0390911681526020015b60405180910390f35b34801561015757600080fd5b50600a5461012e906001600160a01b031681565b34801561017757600080fd5b506101a3610186366004611160565b600260209081526000928352604080842090915290825290205481565b604051908152602001610142565b3480156101bd57600080fd5b506101c661033b565b005b6101c66101d6366004610fdb565b61036a565b3480156101e757600080fd5b5060005461012e906001600160a01b031681565b6101c6610209366004610f13565b6103f8565b34801561021a57600080fd5b5060015461012e906001600160a01b031681565b34801561023a57600080fd5b5060045461012e906001600160a01b031681565b34801561025a57600080fd5b5060095461012e906001600160a01b031681565b6101c661027c366004610e85565b6105eb565b34801561028d57600080fd5b506101c661029c366004610e34565b61068c565b3480156102ad57600080fd5b506101c66102bc3660046111b6565b610725565b3480156102cd57600080fd5b5061012e6102dc3660046111b6565b610acf565b6101c66102ef366004610fdb565b610aef565b6101c661030236600461108a565b610b42565b34801561031357600080fd5b5061012e7f000000000000000000000000000000000000000000000000000000000000000081565b60405133904780156108fc02916000818181858888f19350505050158015610367573d6000803e3d6000fd5b50565b6103758b8a87610b93565b60005460405163f2ae372f60e01b81526001600160a01b039091169063f2ae372f9085906103b9908e908e908e908e908e908e908e9089908e908e906004016112e8565b6000604051808303818588803b1580156103d257600080fd5b505af11580156103e6573d6000803e3d6000fd5b50505050505050505050505050505050565b6003546001600160a01b038a811660009081526002602090815260408083208b151584529091528082205490516331a9108f60e11b8152600481019190915290929190911690636352211e9060240160206040518083038186803b15801561045f57600080fd5b505afa158015610473573d6000803e3d6000fd5b505050506040513d601f19601f820116820180604052508101906104979190610e10565b90508b6001600160a01b0316816001600160a01b0316146104f65760405162461bcd60e51b8152602060048201526014602482015273796f7520646f6e277420686176652061206b657960601b60448201526064015b60405180910390fd5b600a546001600160a01b03163314610557576009546001600160a01b031633146105575760405162461bcd60e51b815260206004820152601260248201527134b73b30b634b21036b9b39739b2b73232b960711b60448201526064016104ed565b60008054906101000a90046001600160a01b03166001600160a01b0316637be7d141858d8d8d8d8d888e8e8e8e8e6040518d63ffffffff1660e01b81526004016105ab9b9a99989796959493929190611213565b6000604051808303818588803b1580156105c457600080fd5b505af11580156105d8573d6000803e3d6000fd5b5050505050505050505050505050505050565b6105f6888885610b93565b6001546040516360b66f4560e11b81526001600160a01b03898116600483015260248201899052878116604483015260648201879052851515608483015260a4820185905283151560c48301529091169063c16cde8a9060e401600060405180830381600087803b15801561066a57600080fd5b505af115801561067e573d6000803e3d6000fd5b505050505050505050505050565b610697848484610b93565b6106c160405180604001604052806008815260200167616161616161616160c01b81525082610cec565b60015460405163047e0bbd60e41b8152600481018390526001600160a01b03909116906347e0bbd090602401600060405180830381600087803b15801561070757600080fd5b505af115801561071b573d6000803e3d6000fd5b5050505050505050565b6000546040516338c74dd960e01b81526001600160a01b0391821660048201527f0000000000000000000000000000000000000000000000000000000000000000909116906338c74dd990602401600060405180830381600087803b15801561078d57600080fd5b505af11580156107a1573d6000803e3d6000fd5b50506001546040516338c74dd960e01b81526001600160a01b0391821660048201527f000000000000000000000000000000000000000000000000000000000000000090911692506338c74dd99150602401600060405180830381600087803b15801561080d57600080fd5b505af1158015610821573d6000803e3d6000fd5b5050505060005b600481101561099757600581600481106108445761084461146e565b015460005460405163095ea7b360e01b81526001600160a01b0391821660048201526024810185905291169063095ea7b390604401602060405180830381600087803b15801561089357600080fd5b505af11580156108a7573d6000803e3d6000fd5b505050506040513d601f19601f820116820180604052508101906108cb9190611199565b50600581600481106108df576108df61146e565b015460405163095ea7b360e01b81526001600160a01b037f000000000000000000000000000000000000000000000000000000000000000081166004830152602482018590529091169063095ea7b390604401602060405180830381600087803b15801561094c57600080fd5b505af1158015610960573d6000803e3d6000fd5b505050506040513d601f19601f820116820180604052508101906109849190611199565b508061098f8161143d565b915050610828565b506004805460005460405163095ea7b360e01b81526001600160a01b039182169381019390935260248301849052169063095ea7b390604401602060405180830381600087803b1580156109ea57600080fd5b505af11580156109fe573d6000803e3d6000fd5b505050506040513d601f19601f82011682018060405250810190610a229190611199565b506004805460405163095ea7b360e01b81526001600160a01b037f00000000000000000000000000000000000000000000000000000000000000008116938201939093526024810184905291169063095ea7b390604401602060405180830381600087803b158015610a9357600080fd5b505af1158015610aa7573d6000803e3d6000fd5b505050506040513d601f19601f82011682018060405250810190610acb9190611199565b5050565b60058160048110610adf57600080fd5b01546001600160a01b0316905081565b610afa8b8a87610b93565b6000546001600160a01b0316635b88e8c6610b158a86611425565b8c8c8b8b8b8b8b8b8b6040518b63ffffffff1660e01b81526004016103b999989796959493929190611286565b610b4d8c8a87610b93565b600154604051630b142a4b60e41b81526001600160a01b039091169063b142a4b09084906105ab908f908f908f908f908f908f908f908f908f908b908f90600401611353565b6003546001600160a01b0383811660009081526002602090815260408083208615158452909152908190205490516331a9108f60e11b81528287169390921691636352211e91610be99160040190815260200190565b60206040518083038186803b158015610c0157600080fd5b505afa158015610c15573d6000803e3d6000fd5b505050506040513d601f19601f82011682018060405250810190610c399190610e10565b6001600160a01b031614610c865760405162461bcd60e51b8152602060048201526014602482015273796f7520646f6e277420686176652061206b657960601b60448201526064016104ed565b600a546001600160a01b03163314610ce7576009546001600160a01b03163314610ce75760405162461bcd60e51b815260206004820152601260248201527134b73b30b634b21036b9b39739b2b73232b960711b60448201526064016104ed565b505050565b610acb8282604051602401610d029291906113c8565b60408051601f198184030181529190526020810180516001600160e01b0316632d839cb360e21b17905280516a636f6e736f6c652e6c6f67602083016000808483855afa5050505050565b8035610d588161149a565b919050565b600082601f830112610d6e57600080fd5b8135602067ffffffffffffffff80831115610d8b57610d8b611484565b8260051b604051601f19603f83011681018181108482111715610db057610db0611484565b60405284815283810192508684018288018501891015610dcf57600080fd5b600092505b85831015610df957610de581610d4d565b845292840192600192909201918401610dd4565b50979650505050505050565b8035610d58816114af565b600060208284031215610e2257600080fd5b8151610e2d8161149a565b9392505050565b60008060008060808587031215610e4a57600080fd5b8435610e558161149a565b93506020850135610e658161149a565b92506040850135610e75816114af565b9396929550929360600135925050565b600080600080600080600080610100898b031215610ea257600080fd5b8835610ead8161149a565b97506020890135610ebd8161149a565b9650604089013595506060890135610ed48161149a565b94506080890135935060a0890135610eeb816114af565b925060c0890135915060e0890135610f02816114af565b809150509295985092959890939650565b60008060008060008060008060008060006101608c8e031215610f3557600080fd5b8b35610f408161149a565b9a5060208c013567ffffffffffffffff811115610f5c57600080fd5b610f688e828f01610d5d565b9a505060408c0135610f798161149a565b985060608c0135975060808c01359650610f9560a08d01610e05565b955060c08c0135945060e08c013593506101008c01359250610fba6101208d01610e05565b9150610fc96101408d01610d4d565b90509295989b509295989b9093969950565b60008060008060008060008060008060006101608c8e031215610ffd57600080fd5b8b356110088161149a565b9a5060208c013567ffffffffffffffff81111561102457600080fd5b6110308e828f01610d5d565b9a505060408c01356110418161149a565b985060608c0135975060808c0135965060a08c0135955061106460c08d01610e05565b945060e08c013593506101008c013592506101208c01359150610fc96101408d01610d4d565b6000806000806000806000806000806000806101808d8f0312156110ad57600080fd5b6110b68d610d4d565b9b5067ffffffffffffffff60208e013511156110d157600080fd5b6110e18e60208f01358f01610d5d565b9a5060408d013599506110f660608e01610d4d565b985060808d0135975060a08d0135965061111260c08e01610d4d565b955061112060e08e01610e05565b94506101008d013593506111376101208e01610e05565b92506101408d0135915061114e6101608e01610e05565b90509295989b509295989b509295989b565b6000806040838503121561117357600080fd5b823561117e8161149a565b9150602083013561118e816114af565b809150509250929050565b6000602082840312156111ab57600080fd5b8151610e2d816114af565b6000602082840312156111c857600080fd5b5035919050565b600081518084526020808501945080840160005b838110156112085781516001600160a01b0316875295820195908201906001016111e3565b509495945050505050565b60006101608083526112278184018f6111cf565b6001600160a01b039d8e166020850152604084019c909c5250506060810198909852951515608088015293881660a087015260c086019290925260e0850152610100840152151561012083015290921661014090920191909152919050565b600061012080835261129a8184018d6111cf565b6001600160a01b039b8c166020850152604084019a909a5250506060810196909652931515608086015260a085019290925260c084015260e083015290921661010090920191909152919050565b60006101408083526112fc8184018e6111cf565b6001600160a01b039c8d166020850152604084019b909b5250506060810197909752608087019590955292151560a086015260c085019190915260e084015261010083015290921661012090920191909152919050565b60006101608083526113678184018f6111cf565b602084019d909d5250506001600160a01b03998a166040820152606081019890985260808801969096529390961660a086015290151560c085015260e084015292151561010083015261012082019290925290151561014090910152919050565b604081526000835180604084015260005b818110156113f657602081870181015160608684010152016113d9565b81811115611408576000606083860101525b50602083019390935250601f91909101601f191601606001919050565b6000821982111561143857611438611458565b500190565b600060001982141561145157611451611458565b5060010190565b634e487b7160e01b600052601160045260246000fd5b634e487b7160e01b600052603260045260246000fd5b634e487b7160e01b600052604160045260246000fd5b6001600160a01b038116811461036757600080fd5b801515811461036757600080fdfea264697066735822122014b7698d7ebcef9d7e9570f261c7acfd1767654eea1dea6d4b81bdaa8b9f7af964736f6c63430008060033",
  "linkReferences": {},
  "deployedLinkReferences": {}
}