{
  "_format": "hh-sol-artifact-1",
  "contractName": "Doppelganger",
  "sourceName": "contracts/Doppelganger.sol",
  "abi": [
    {
      "inputs": [
        {
          "internalType": "contract IPositionRouter",
          "name": "_positionRouter",
          "type": "address"
        },
        {
          "internalType": "address",
          "name": "_router",
          "type": "address"
        },
        {
          "internalType": "contract IOrderBook",
          "name": "_orderBook",
          "type": "address"
        },
        {
          "internalType": "uint256[8]",
          "name": "keyArray",
          "type": "uint256[8]"
        },
        {
          "internalType": "address[8]",
          "name": "_indexTokenArray",
          "type": "address[8]"
        },
        {
          "internalType": "address[4]",
          "name": "_stablecoinsArray",
          "type": "address[4]"
        },
        {
          "internalType": "address",
          "name": "_accountManager",
          "type": "address"
        },
        {
          "internalType": "address",
          "name": "_accountManagerToken",
          "type": "address"
        },
        {
          "internalType": "address",
          "name": "_ddl_gmx",
          "type": "address"
        }
      ],
      "stateMutability": "nonpayable",
      "type": "constructor"
    },
    {
      "inputs": [],
      "name": "GMXPT",
      "outputs": [
        {
          "internalType": "contract ERC721",
          "name": "",
          "type": "address"
        }
      ],
      "stateMutability": "view",
      "type": "function"
    },
    {
      "inputs": [],
      "name": "accountManager",
      "outputs": [
        {
          "internalType": "address",
          "name": "",
          "type": "address"
        }
      ],
      "stateMutability": "view",
      "type": "function"
    },
    {
      "inputs": [
        {
          "internalType": "uint256",
          "name": "value",
          "type": "uint256"
        }
      ],
      "name": "approveAll",
      "outputs": [],
      "stateMutability": "nonpayable",
      "type": "function"
    },
    {
      "inputs": [
        {
          "internalType": "address",
          "name": "user",
          "type": "address"
        },
        {
          "internalType": "address",
          "name": "_indexToken",
          "type": "address"
        },
        {
          "internalType": "bool",
          "name": "_isLong",
          "type": "bool"
        },
        {
          "internalType": "uint256",
          "name": "_orderIndex",
          "type": "uint256"
        }
      ],
      "name": "cancelDecreaseOrder",
      "outputs": [],
      "stateMutability": "nonpayable",
      "type": "function"
    },
    {
      "inputs": [
        {
          "internalType": "address",
          "name": "user",
          "type": "address"
        },
        {
          "internalType": "address",
          "name": "_indexToken",
          "type": "address"
        },
        {
          "internalType": "bool",
          "name": "_isLong",
          "type": "bool"
        },
        {
          "internalType": "uint256",
          "name": "_orderIndex",
          "type": "uint256"
        }
      ],
      "name": "cancelIncreaseOrder",
      "outputs": [],
      "stateMutability": "nonpayable",
      "type": "function"
    },
    {
      "inputs": [
        {
          "internalType": "address",
          "name": "user",
          "type": "address"
        },
        {
          "internalType": "address",
          "name": "_indexToken",
          "type": "address"
        },
        {
          "internalType": "uint256",
          "name": "_sizeDelta",
          "type": "uint256"
        },
        {
          "internalType": "address",
          "name": "_collateralToken",
          "type": "address"
        },
        {
          "internalType": "uint256",
          "name": "_collateralDelta",
          "type": "uint256"
        },
        {
          "internalType": "bool",
          "name": "_isLong",
          "type": "bool"
        },
        {
          "internalType": "uint256",
          "name": "_triggerPrice",
          "type": "uint256"
        },
        {
          "internalType": "bool",
          "name": "_triggerAboveThreshold",
          "type": "bool"
        },
        {
          "internalType": "uint256",
          "name": "_executionFee",
          "type": "uint256"
        }
      ],
      "name": "createDecreaseOrder",
      "outputs": [],
      "stateMutability": "payable",
      "type": "function"
    },
    {
      "inputs": [
        {
          "internalType": "address",
          "name": "user",
          "type": "address"
        },
        {
          "internalType": "address[]",
          "name": "_path",
          "type": "address[]"
        },
        {
          "internalType": "address",
          "name": "_indexToken",
          "type": "address"
        },
        {
          "internalType": "uint256",
          "name": "_collateralDelta",
          "type": "uint256"
        },
        {
          "internalType": "uint256",
          "name": "_sizeDelta",
          "type": "uint256"
        },
        {
          "internalType": "bool",
          "name": "_isLong",
          "type": "bool"
        },
        {
          "internalType": "uint256",
          "name": "_acceptablePrice",
          "type": "uint256"
        },
        {
          "internalType": "uint256",
          "name": "_minOut",
          "type": "uint256"
        },
        {
          "internalType": "uint256",
          "name": "_executionFee",
          "type": "uint256"
        },
        {
          "internalType": "bool",
          "name": "_withdrawETH",
          "type": "bool"
        },
        {
          "internalType": "address",
          "name": "_callbackTarget",
          "type": "address"
        }
      ],
      "name": "createDecreasePosition",
      "outputs": [],
      "stateMutability": "payable",
      "type": "function"
    },
    {
      "inputs": [
        {
          "internalType": "address",
          "name": "user",
          "type": "address"
        },
        {
          "internalType": "address[]",
          "name": "_path",
          "type": "address[]"
        },
        {
          "internalType": "uint256",
          "name": "_amountIn",
          "type": "uint256"
        },
        {
          "internalType": "address",
          "name": "_indexToken",
          "type": "address"
        },
        {
          "internalType": "uint256",
          "name": "_minOut",
          "type": "uint256"
        },
        {
          "internalType": "uint256",
          "name": "_sizeDelta",
          "type": "uint256"
        },
        {
          "internalType": "address",
          "name": "_collateralToken",
          "type": "address"
        },
        {
          "internalType": "bool",
          "name": "_isLong",
          "type": "bool"
        },
        {
          "internalType": "uint256",
          "name": "_triggerPrice",
          "type": "uint256"
        },
        {
          "internalType": "bool",
          "name": "_triggerAboveThreshold",
          "type": "bool"
        },
        {
          "internalType": "uint256",
          "name": "_executionFee",
          "type": "uint256"
        },
        {
          "internalType": "bool",
          "name": "_shouldWrap",
          "type": "bool"
        }
      ],
      "name": "createIncreaseOrder",
      "outputs": [],
      "stateMutability": "payable",
      "type": "function"
    },
    {
      "inputs": [
        {
          "internalType": "address",
          "name": "user",
          "type": "address"
        },
        {
          "internalType": "address[]",
          "name": "_path",
          "type": "address[]"
        },
        {
          "internalType": "address",
          "name": "_indexToken",
          "type": "address"
        },
        {
          "internalType": "uint256",
          "name": "_amountIn",
          "type": "uint256"
        },
        {
          "internalType": "uint256",
          "name": "_minOut",
          "type": "uint256"
        },
        {
          "internalType": "uint256",
          "name": "_sizeDelta",
          "type": "uint256"
        },
        {
          "internalType": "bool",
          "name": "_isLong",
          "type": "bool"
        },
        {
          "internalType": "uint256",
          "name": "_acceptablePrice",
          "type": "uint256"
        },
        {
          "internalType": "uint256",
          "name": "_executionFee",
          "type": "uint256"
        },
        {
          "internalType": "bytes32",
          "name": "_referralCode",
          "type": "bytes32"
        },
        {
          "internalType": "address",
          "name": "_callbackTarget",
          "type": "address"
        }
      ],
      "name": "createIncreasePosition",
      "outputs": [],
      "stateMutability": "payable",
      "type": "function"
    },
    {
      "inputs": [
        {
          "internalType": "address",
          "name": "user",
          "type": "address"
        },
        {
          "internalType": "address[]",
          "name": "_path",
          "type": "address[]"
        },
        {
          "internalType": "address",
          "name": "_indexToken",
          "type": "address"
        },
        {
          "internalType": "uint256",
          "name": "_amountIn",
          "type": "uint256"
        },
        {
          "internalType": "uint256",
          "name": "_minOut",
          "type": "uint256"
        },
        {
          "internalType": "uint256",
          "name": "_sizeDelta",
          "type": "uint256"
        },
        {
          "internalType": "bool",
          "name": "_isLong",
          "type": "bool"
        },
        {
          "internalType": "uint256",
          "name": "_acceptablePrice",
          "type": "uint256"
        },
        {
          "internalType": "uint256",
          "name": "_executionFee",
          "type": "uint256"
        },
        {
          "internalType": "bytes32",
          "name": "_referralCode",
          "type": "bytes32"
        },
        {
          "internalType": "address",
          "name": "_callbackTarget",
          "type": "address"
        }
      ],
      "name": "createIncreasePositionETH",
      "outputs": [],
      "stateMutability": "payable",
      "type": "function"
    },
    {
      "inputs": [],
      "name": "ddl_gmx",
      "outputs": [
        {
          "internalType": "address",
          "name": "",
          "type": "address"
        }
      ],
      "stateMutability": "view",
      "type": "function"
    },
    {
      "inputs": [
        {
          "internalType": "uint256",
          "name": "",
          "type": "uint256"
        }
      ],
      "name": "indexTokenArray",
      "outputs": [
        {
          "internalType": "address",
          "name": "",
          "type": "address"
        }
      ],
      "stateMutability": "view",
      "type": "function"
    },
    {
      "inputs": [],
      "name": "isApproved",
      "outputs": [
        {
          "internalType": "bool",
          "name": "",
          "type": "bool"
        }
      ],
      "stateMutability": "view",
      "type": "function"
    },
    {
      "inputs": [
        {
          "internalType": "address",
          "name": "",
          "type": "address"
        },
        {
          "internalType": "bool",
          "name": "",
          "type": "bool"
        }
      ],
      "name": "keyByIndexToken",
      "outputs": [
        {
          "internalType": "uint256",
          "name": "",
          "type": "uint256"
        }
      ],
      "stateMutability": "view",
      "type": "function"
    },
    {
      "inputs": [
        {
          "internalType": "uint256",
          "name": "",
          "type": "uint256"
        }
      ],
      "name": "keys",
      "outputs": [
        {
          "internalType": "bool",
          "name": "",
          "type": "bool"
        }
      ],
      "stateMutability": "view",
      "type": "function"
    },
    {
      "inputs": [],
      "name": "orderBook",
      "outputs": [
        {
          "internalType": "contract IOrderBook",
          "name": "",
          "type": "address"
        }
      ],
      "stateMutability": "view",
      "type": "function"
    },
    {
      "inputs": [],
      "name": "positionRouter",
      "outputs": [
        {
          "internalType": "contract IPositionRouter",
          "name": "",
          "type": "address"
        }
      ],
      "stateMutability": "view",
      "type": "function"
    },
    {
      "inputs": [],
      "name": "router",
      "outputs": [
        {
          "internalType": "address",
          "name": "",
          "type": "address"
        }
      ],
      "stateMutability": "view",
      "type": "function"
    },
    {
      "inputs": [
        {
          "internalType": "uint256",
          "name": "",
          "type": "uint256"
        }
      ],
      "name": "stablecoinsArray",
      "outputs": [
        {
          "internalType": "address",
          "name": "",
          "type": "address"
        }
      ],
      "stateMutability": "view",
      "type": "function"
    },
    {
      "inputs": [
        {
          "internalType": "address",
          "name": "user",
          "type": "address"
        },
        {
          "internalType": "address",
          "name": "_indexToken",
          "type": "address"
        },
        {
          "internalType": "bool",
          "name": "_isLong",
          "type": "bool"
        },
        {
          "internalType": "uint256",
          "name": "_orderIndex",
          "type": "uint256"
        },
        {
          "internalType": "uint256",
          "name": "_collateralDelta",
          "type": "uint256"
        },
        {
          "internalType": "uint256",
          "name": "_sizeDelta",
          "type": "uint256"
        },
        {
          "internalType": "uint256",
          "name": "_triggerPrice",
          "type": "uint256"
        },
        {
          "internalType": "bool",
          "name": "_triggerAboveThreshold",
          "type": "bool"
        }
      ],
      "name": "updateDecreaseOrder",
      "outputs": [],
      "stateMutability": "nonpayable",
      "type": "function"
    },
    {
      "inputs": [
        {
          "internalType": "address",
          "name": "user",
          "type": "address"
        },
        {
          "internalType": "address",
          "name": "_indexToken",
          "type": "address"
        },
        {
          "internalType": "bool",
          "name": "_isLong",
          "type": "bool"
        },
        {
          "internalType": "uint256",
          "name": "_orderIndex",
          "type": "uint256"
        },
        {
          "internalType": "uint256",
          "name": "_sizeDelta",
          "type": "uint256"
        },
        {
          "internalType": "uint256",
          "name": "_triggerPrice",
          "type": "uint256"
        },
        {
          "internalType": "bool",
          "name": "_triggerAboveThreshold",
          "type": "bool"
        }
      ],
      "name": "updateIncreaseOrder",
      "outputs": [],
      "stateMutability": "nonpayable",
      "type": "function"
    },
    {
      "inputs": [
        {
          "internalType": "address",
          "name": "user",
          "type": "address"
        },
        {
          "internalType": "address",
          "name": "_indexToken",
          "type": "address"
        },
        {
          "internalType": "bool",
          "name": "_isLong",
          "type": "bool"
        },
        {
          "internalType": "address",
          "name": "tokenAddress",
          "type": "address"
        }
      ],
      "name": "withdrawLiquidity",
      "outputs": [],
      "stateMutability": "nonpayable",
      "type": "function"
    },
    {
      "stateMutability": "payable",
      "type": "receive"
    }
  ],
  "bytecode": "0x60a0604052600e805460ff60a01b191690553480156200001e57600080fd5b506040516200248f3803806200248f83398101604081905262000041916200036c565b600080546001600160a01b03808c166001600160a01b03199283161783556001600160601b031960608c901b1660805260018054918b16919092161790555b6008811015620002125760048110156200013357858160088110620000a957620000a9620004e1565b602002015160058260048110620000c457620000c4620004e1565b0180546001600160a01b0319166001600160a01b0392909216919091179055848160048110620000f857620000f8620004e1565b602002015160098260048110620001135762000113620004e1565b0180546001600160a01b0319166001600160a01b03929092169190911790555b868160088110620001485762000148620004e1565b602002015160026000888460088110620001665762000166620004e1565b60200201516001600160a01b03166001600160a01b031681526020019081526020016000206000600484106200019e576000620001a1565b60015b15151515815260200190815260200160002081905550600160036000898460088110620001d257620001d2620004e1565b6020020151815260200190815260200160002060006101000a81548160ff02191690831515021790555080806200020990620004b7565b91505062000080565b50600480546001600160a01b03199081166001600160a01b0394851617909155600d8054821694841694909417909355600e805490931691161790555062000510945050505050565b80516200026881620004f7565b919050565b600082601f8301126200027f57600080fd5b604051608081016001600160401b0381118282101715620002b057634e487b7160e01b600052604160045260246000fd5b604052808360808101861015620002c657600080fd5b60005b6004811015620002f6578151620002e081620004f7565b83526020928301929190910190600101620002c9565b509195945050505050565b600082601f8301126200031357600080fd5b6200031d6200047f565b808385610100860111156200033157600080fd5b60005b6008811015620003615781516200034b81620004f7565b8452602093840193919091019060010162000334565b509095945050505050565b60008060008060008060008060006103408a8c0312156200038c57600080fd5b89516200039981620004f7565b60208b0151909950620003ac81620004f7565b60408b0151909850620003bf81620004f7565b9650607f8a018b13620003d157600080fd5b620003db6200047f565b8060608c016101608d018e811115620003f357600080fd5b60005b600881101562000417578251855260209485019490920191600101620003f6565b50829950620004278f8262000301565b9850505050506200043d8b6102608c016200026d565b93506200044e6102e08b016200025b565b92506200045f6103008b016200025b565b9150620004706103208b016200025b565b90509295985092959850929598565b60405161010081016001600160401b0381118282101715620004b157634e487b7160e01b600052604160045260246000fd5b60405290565b6000600019821415620004da57634e487b7160e01b600052601160045260246000fd5b5060010190565b634e487b7160e01b600052603260045260246000fd5b6001600160a01b03811681146200050d57600080fd5b50565b60805160601c611f446200054b600039600081816103fb01528181610a4501528181610ac301528181610c040152610d560152611f446000f3fe6080604052600436106101385760003560e01c806391c2c469116100ab578063d6ef60131161006f578063d6ef601314610383578063da91dfd5146103a3578063de26fdcd146103b6578063f572acec146103c9578063f887ea40146103e9578063fc86da891461041d57600080fd5b806391c2c469146102f0578063b32e8cb614610310578063b7511c5b14610330578063c8fddadb14610350578063d0dbc4e41461036357600080fd5b806328f371aa116100fd57806328f371aa1461024757806345b5f94f146102685780634fbb66c31461028a57806361ef161f1461029d5780636f7e8799146102bd578063776af5ba146102d057600080fd5b806230e1b51461014457806306b278cb146101815780630cb6aaf1146101a15780630cd790f7146101e157806313a51b2e1461020157600080fd5b3661013f57005b600080fd5b34801561015057600080fd5b5061016461015f366004611c46565b61043d565b6040516001600160a01b0390911681526020015b60405180910390f35b34801561018d57600080fd5b50600454610164906001600160a01b031681565b3480156101ad57600080fd5b506101d16101bc366004611c46565b60036020526000908152604090205460ff1681565b6040519015158152602001610178565b3480156101ed57600080fd5b50600e54610164906001600160a01b031681565b34801561020d57600080fd5b5061023961021c366004611acc565b600260209081526000928352604080842090915290825290205481565b604051908152602001610178565b34801561025357600080fd5b50600e546101d190600160a01b900460ff1681565b34801561027457600080fd5b50610288610283366004611762565b61045d565b005b610288610298366004611947565b6104ed565b3480156102a957600080fd5b50600054610164906001600160a01b031681565b6102886102cb36600461187f565b61057b565b3480156102dc57600080fd5b50600154610164906001600160a01b031681565b3480156102fc57600080fd5b50600d54610164906001600160a01b031681565b34801561031c57600080fd5b5061028861032b366004611696565b610768565b34801561033c57600080fd5b5061028861034b366004611c46565b610a23565b61028861035e3660046117e7565b610dfc565b34801561036f57600080fd5b5061028861037e36600461163a565b610ea0565b34801561038f57600080fd5b5061016461039e366004611c46565b61103f565b6102886103b1366004611947565b61104f565b6102886103c43660046119f6565b61109c565b3480156103d557600080fd5b506102886103e4366004611696565b6110ed565b3480156103f557600080fd5b506101647f000000000000000000000000000000000000000000000000000000000000000081565b34801561042957600080fd5b506102886104383660046116e7565b61130e565b6009816004811061044d57600080fd5b01546001600160a01b0316905081565b610468888888611396565b6001546040516328e5fa9560e21b81526004810187905260248101869052604481018590526064810184905282151560848201526001600160a01b039091169063a397ea549060a401600060405180830381600087803b1580156104cb57600080fd5b505af11580156104df573d6000803e3d6000fd5b505050505050505050505050565b6104f88b8a87611396565b60005460405163f2ae372f60e01b81526001600160a01b039091169063f2ae372f90349061053c908e908e908e908e908e908e908e908e908e908e90600401611daa565b6000604051808303818588803b15801561055557600080fd5b505af1158015610569573d6000803e3d6000fd5b50505050505050505050505050505050565b600480546001600160a01b038b811660009081526002602090815260408083208c151584529091528082205490516331a9108f60e11b81529485015292911690636352211e9060240160206040518083038186803b1580156105dc57600080fd5b505afa1580156105f0573d6000803e3d6000fd5b505050506040513d601f19601f820116820180604052508101906106149190611616565b90508b6001600160a01b0316816001600160a01b0316146106735760405162461bcd60e51b8152602060048201526014602482015273796f7520646f6e277420686176652061206b657960601b60448201526064015b60405180910390fd5b600e546001600160a01b031633146106d457600d546001600160a01b031633146106d45760405162461bcd60e51b815260206004820152601260248201527134b73b30b634b21036b9b39739b2b73232b960711b604482015260640161066a565b60008054906101000a90046001600160a01b03166001600160a01b0316637be7d141348d8d8d8d8d888e8e8e8e8e6040518d63ffffffff1660e01b81526004016107289b9a99989796959493929190611cd5565b6000604051808303818588803b15801561074157600080fd5b505af1158015610755573d6000803e3d6000fd5b5050505050505050505050505050505050565b610773848484611396565b60015460405163d3bab1d160e01b81526000918291829182916001600160a01b039091169063d3bab1d1906107ae9030908990600401611cbc565b6101206040518083038186803b1580156107c757600080fd5b505afa1580156107db573d6000803e3d6000fd5b505050506040513d601f19601f820116820180604052508101906107ff9190611b05565b60015460405163047e0bbd60e41b8152999d50979b50929950919750506001600160a01b03909416946347e0bbd0945061084593508a9250600401905090815260200190565b600060405180830381600087803b15801561085f57600080fd5b505af1158015610873573d6000803e3d6000fd5b5050600480546001600160a01b038b811660009081526002602090815260408083208e151584529091528082205490516331a9108f60e11b8152948501529450169150636352211e9060240160206040518083038186803b1580156108d757600080fd5b505afa1580156108eb573d6000803e3d6000fd5b505050506040513d601f19601f8201168201806040525081019061090f9190611616565b60405163a9059cbb60e01b81529091506001600160a01b0386169063a9059cbb906109409084908890600401611cbc565b602060405180830381600087803b15801561095a57600080fd5b505af115801561096e573d6000803e3d6000fd5b505050506040513d601f19601f820116820180604052508101906109929190611c29565b5060055460405163a9059cbb60e01b81526001600160a01b039091169063a9059cbb906109c59084908690600401611cbc565b602060405180830381600087803b1580156109df57600080fd5b505af11580156109f3573d6000803e3d6000fd5b505050506040513d601f19601f82011682018060405250810190610a179190611c29565b50505050505050505050565b6000546040516338c74dd960e01b81526001600160a01b0391821660048201527f0000000000000000000000000000000000000000000000000000000000000000909116906338c74dd990602401600060405180830381600087803b158015610a8b57600080fd5b505af1158015610a9f573d6000803e3d6000fd5b50506001546040516338c74dd960e01b81526001600160a01b0391821660048201527f000000000000000000000000000000000000000000000000000000000000000090911692506338c74dd99150602401600060405180830381600087803b158015610b0b57600080fd5b505af1158015610b1f573d6000803e3d6000fd5b5050505060005b6004811015610de55760058160048110610b4257610b42611ebc565b015460005460405163095ea7b360e01b81526001600160a01b039283169263095ea7b392610b77929116908690600401611cbc565b602060405180830381600087803b158015610b9157600080fd5b505af1158015610ba5573d6000803e3d6000fd5b505050506040513d601f19601f82011682018060405250810190610bc99190611c29565b5060058160048110610bdd57610bdd611ebc565b015460405163095ea7b360e01b81526001600160a01b039091169063095ea7b390610c2e907f0000000000000000000000000000000000000000000000000000000000000000908690600401611cbc565b602060405180830381600087803b158015610c4857600080fd5b505af1158015610c5c573d6000803e3d6000fd5b505050506040513d601f19601f82011682018060405250810190610c809190611c29565b5060098160048110610c9457610c94611ebc565b015460005460405163095ea7b360e01b81526001600160a01b039283169263095ea7b392610cc9929116908690600401611cbc565b602060405180830381600087803b158015610ce357600080fd5b505af1158015610cf7573d6000803e3d6000fd5b505050506040513d601f19601f82011682018060405250810190610d1b9190611c29565b5060098160048110610d2f57610d2f611ebc565b015460405163095ea7b360e01b81526001600160a01b039091169063095ea7b390610d80907f0000000000000000000000000000000000000000000000000000000000000000908690600401611cbc565b602060405180830381600087803b158015610d9a57600080fd5b505af1158015610dae573d6000803e3d6000fd5b505050506040513d601f19601f82011682018060405250810190610dd29190611c29565b5080610ddd81611e93565b915050610b26565b5050600e805460ff60a01b1916600160a01b179055565b610e07898986611396565b6001546040516360b66f4560e11b81526001600160a01b038a81166004830152602482018a9052888116604483015260648201889052861515608483015260a4820186905284151560c48301529091169063c16cde8a90349060e4016000604051808303818588803b158015610e7c57600080fd5b505af1158015610e90573d6000803e3d6000fd5b5050505050505050505050505050565b610eab848484611396565b600480546001600160a01b03858116600090815260026020908152604080832088151584529091528082205490516331a9108f60e11b81529485015292911690636352211e9060240160206040518083038186803b158015610f0c57600080fd5b505afa158015610f20573d6000803e3d6000fd5b505050506040513d601f19601f82011682018060405250810190610f449190611616565b6040516370a0823160e01b81523060048201529091506001600160a01b0383169063a9059cbb90839083906370a082319060240160206040518083038186803b158015610f9057600080fd5b505afa158015610fa4573d6000803e3d6000fd5b505050506040513d601f19601f82011682018060405250810190610fc89190611c5f565b6040518363ffffffff1660e01b8152600401610fe5929190611cbc565b602060405180830381600087803b158015610fff57600080fd5b505af1158015611013573d6000803e3d6000fd5b505050506040513d601f19601f820116820180604052508101906110379190611c29565b505050505050565b6005816004811061044d57600080fd5b61105a8b8a87611396565b600054604051632dc4746360e11b81526001600160a01b0390911690635b88e8c690349061053c908e908e908d908d908d908d908d908d908d90600401611d48565b6110a78c8a87611396565b600154604051630b142a4b60e41b81526001600160a01b039091169063b142a4b0903490610728908f908f908f908f908f908f908f908f908f908f908f90600401611e15565b6110f8848484611396565b600154604051630130197760e11b81526000916001600160a01b03169063026032ee9061112b9030908690600401611cbc565b6101006040518083038186803b15801561114457600080fd5b505afa158015611158573d6000803e3d6000fd5b505050506040513d601f19601f8201168201806040525081019061117c9190611ba1565b6001546040516309e71b0f60e41b81529199506001600160a01b03169750639e71b0f096506111b695508994506004019250611e8a915050565b600060405180830381600087803b1580156111d057600080fd5b505af11580156111e4573d6000803e3d6000fd5b5050600480546001600160a01b0388811660009081526002602090815260408083208b151584529091528082205490516331a9108f60e11b8152948501529450169150636352211e9060240160206040518083038186803b15801561124857600080fd5b505afa15801561125c573d6000803e3d6000fd5b505050506040513d601f19601f820116820180604052508101906112809190611616565b60055460405163a9059cbb60e01b81529192506001600160a01b03169063a9059cbb906112b39084908690600401611cbc565b602060405180830381600087803b1580156112cd57600080fd5b505af11580156112e1573d6000803e3d6000fd5b505050506040513d601f19601f820116820180604052508101906113059190611c29565b50505050505050565b611319878787611396565b600154604051639983ee1b60e01b815260048101869052602481018590526044810184905282151560648201526001600160a01b0390911690639983ee1b90608401600060405180830381600087803b15801561137557600080fd5b505af1158015611389573d6000803e3d6000fd5b5050505050505050505050565b600480546001600160a01b0384811660009081526002602090815260408083208715158452909152908190205490516331a9108f60e11b81529384015285811692911690636352211e9060240160206040518083038186803b1580156113fb57600080fd5b505afa15801561140f573d6000803e3d6000fd5b505050506040513d601f19601f820116820180604052508101906114339190611616565b6001600160a01b0316146114805760405162461bcd60e51b8152602060048201526014602482015273796f7520646f6e277420686176652061206b657960601b604482015260640161066a565b6001600160a01b038216600090815260026020908152604080832084151584528252808320548352600390915290205460ff166114ed5760405162461bcd60e51b815260206004820152600b60248201526a696e76616c6964206b657960a81b604482015260640161066a565b600e546001600160a01b0316331461154e57600d546001600160a01b0316331461154e5760405162461bcd60e51b815260206004820152601260248201527134b73b30b634b21036b9b39739b2b73232b960711b604482015260640161066a565b505050565b803561155e81611ee8565b919050565b600082601f83011261157457600080fd5b8135602067ffffffffffffffff8083111561159157611591611ed2565b8260051b604051601f19603f830116810181811084821117156115b6576115b6611ed2565b604052848152838101925086840182880185018910156115d557600080fd5b600092505b858310156115ff576115eb81611553565b8452928401926001929092019184016115da565b50979650505050505050565b803561155e81611f00565b60006020828403121561162857600080fd5b815161163381611ee8565b9392505050565b6000806000806080858703121561165057600080fd5b843561165b81611ee8565b9350602085013561166b81611ee8565b9250604085013561167b81611f00565b9150606085013561168b81611ee8565b939692955090935050565b600080600080608085870312156116ac57600080fd5b84356116b781611ee8565b935060208501356116c781611ee8565b925060408501356116d781611f00565b9396929550929360600135925050565b600080600080600080600060e0888a03121561170257600080fd5b873561170d81611ee8565b9650602088013561171d81611ee8565b9550604088013561172d81611f00565b9450606088013593506080880135925060a0880135915060c088013561175281611f00565b8091505092959891949750929550565b600080600080600080600080610100898b03121561177f57600080fd5b883561178a81611ee8565b9750602089013561179a81611ee8565b965060408901356117aa81611f00565b9550606089013594506080890135935060a0890135925060c0890135915060e08901356117d681611f00565b809150509295985092959890939650565b60008060008060008060008060006101208a8c03121561180657600080fd5b893561181181611ee8565b985060208a013561182181611ee8565b975060408a0135965060608a013561183881611ee8565b955060808a0135945060a08a013561184f81611f00565b935060c08a0135925060e08a013561186681611f00565b809250506101008a013590509295985092959850929598565b60008060008060008060008060008060006101608c8e0312156118a157600080fd5b8b356118ac81611ee8565b9a5060208c013567ffffffffffffffff8111156118c857600080fd5b6118d48e828f01611563565b9a505060408c01356118e581611ee8565b985060608c0135975060808c0135965061190160a08d0161160b565b955060c08c0135945060e08c013593506101008c013592506119266101208d0161160b565b91506119356101408d01611553565b90509295989b509295989b9093969950565b60008060008060008060008060008060006101608c8e03121561196957600080fd5b8b3561197481611ee8565b9a5060208c013567ffffffffffffffff81111561199057600080fd5b61199c8e828f01611563565b9a505060408c01356119ad81611ee8565b985060608c0135975060808c0135965060a08c013595506119d060c08d0161160b565b945060e08c013593506101008c013592506101208c013591506119356101408d01611553565b6000806000806000806000806000806000806101808d8f031215611a1957600080fd5b611a228d611553565b9b5067ffffffffffffffff60208e01351115611a3d57600080fd5b611a4d8e60208f01358f01611563565b9a5060408d01359950611a6260608e01611553565b985060808d0135975060a08d01359650611a7e60c08e01611553565b9550611a8c60e08e0161160b565b94506101008d01359350611aa36101208e0161160b565b92506101408d01359150611aba6101608e0161160b565b90509295989b509295989b509295989b565b60008060408385031215611adf57600080fd5b8235611aea81611ee8565b91506020830135611afa81611f00565b809150509250929050565b60008060008060008060008060006101208a8c031215611b2457600080fd5b8951611b2f81611ee8565b60208b015160408c0151919a509850611b4781611ee8565b60608b0151909750611b5881611ee8565b60808b015160a08c01519197509550611b7081611f00565b60c08b015160e08c01519195509350611b8881611f00565b809250506101008a015190509295985092959850929598565b600080600080600080600080610100898b031215611bbe57600080fd5b8851611bc981611ee8565b60208a015160408b01519199509750611be181611ee8565b60608a015160808b01519197509550611bf981611f00565b60a08a015160c08b01519195509350611c1181611f00565b8092505060e089015190509295985092959890939650565b600060208284031215611c3b57600080fd5b815161163381611f00565b600060208284031215611c5857600080fd5b5035919050565b600060208284031215611c7157600080fd5b5051919050565b600081518084526020808501945080840160005b83811015611cb15781516001600160a01b031687529582019590820190600101611c8c565b509495945050505050565b6001600160a01b03929092168252602082015260400190565b6000610160808352611ce98184018f611c78565b6001600160a01b039d8e166020850152604084019c909c5250506060810198909852951515608088015293881660a087015260c086019290925260e0850152610100840152151561012083015290921661014090920191909152919050565b6000610120808352611d5c8184018d611c78565b6001600160a01b039b8c166020850152604084019a909a5250506060810196909652931515608086015260a085019290925260c084015260e083015290921661010090920191909152919050565b6000610140808352611dbe8184018e611c78565b6001600160a01b039c8d166020850152604084019b909b5250506060810197909752608087019590955292151560a086015260c085019190915260e084015261010083015290921661012090920191909152919050565b6000610160808352611e298184018f611c78565b602084019d909d5250506001600160a01b03998a166040820152606081019890985260808801969096529390961660a086015290151560c085015260e084015292151561010083015261012082019290925290151561014090910152919050565b90815260200190565b6000600019821415611eb557634e487b7160e01b600052601160045260246000fd5b5060010190565b634e487b7160e01b600052603260045260246000fd5b634e487b7160e01b600052604160045260246000fd5b6001600160a01b0381168114611efd57600080fd5b50565b8015158114611efd57600080fdfea26469706673582212208b366894c3bfef91c6351a959c867b50161ba8a8f06a8a4c2ff28e9ca169604f64736f6c63430008060033",
  "linkReferences": {},
  "deployedLinkReferences": {}
}