{
  "_format": "hh-sol-artifact-1",
  "contractName": "Doppelganger",
  "sourceName": "contracts/Doppelganger.sol",
  "abi": [
    {
      "inputs": [
        {
          "internalType": "contract IPositionRouter",
          "name": "_positionRouter",
          "type": "address"
        },
        {
          "internalType": "address",
          "name": "_router",
          "type": "address"
        },
        {
          "internalType": "contract IOrderBook",
          "name": "_orderBook",
          "type": "address"
        },
        {
          "internalType": "uint256[8]",
          "name": "keyArray",
          "type": "uint256[8]"
        },
        {
          "internalType": "address[8]",
          "name": "_indexTokenArray",
          "type": "address[8]"
        },
        {
          "internalType": "address[4]",
          "name": "_stablecoinsArray",
          "type": "address[4]"
        },
        {
          "internalType": "address",
          "name": "_accountManager",
          "type": "address"
        },
        {
          "internalType": "address",
          "name": "_accountManagerToken",
          "type": "address"
        },
        {
          "internalType": "address",
          "name": "_ddl_gmx",
          "type": "address"
        }
      ],
      "stateMutability": "nonpayable",
      "type": "constructor"
    },
    {
      "inputs": [],
      "name": "GMXPT",
      "outputs": [
        {
          "internalType": "contract ERC721",
          "name": "",
          "type": "address"
        }
      ],
      "stateMutability": "view",
      "type": "function"
    },
    {
      "inputs": [],
      "name": "accountManager",
      "outputs": [
        {
          "internalType": "address",
          "name": "",
          "type": "address"
        }
      ],
      "stateMutability": "view",
      "type": "function"
    },
    {
      "inputs": [
        {
          "internalType": "uint256",
          "name": "value",
          "type": "uint256"
        }
      ],
      "name": "approveAll",
      "outputs": [],
      "stateMutability": "nonpayable",
      "type": "function"
    },
    {
      "inputs": [
        {
          "internalType": "address",
          "name": "user",
          "type": "address"
        },
        {
          "internalType": "address",
          "name": "_indexToken",
          "type": "address"
        },
        {
          "internalType": "bool",
          "name": "_isLong",
          "type": "bool"
        },
        {
          "internalType": "uint256",
          "name": "_orderIndex",
          "type": "uint256"
        }
      ],
      "name": "cancelDecreaseOrder",
      "outputs": [],
      "stateMutability": "nonpayable",
      "type": "function"
    },
    {
      "inputs": [
        {
          "internalType": "address",
          "name": "user",
          "type": "address"
        },
        {
          "internalType": "address",
          "name": "_indexToken",
          "type": "address"
        },
        {
          "internalType": "bool",
          "name": "_isLong",
          "type": "bool"
        },
        {
          "internalType": "uint256",
          "name": "_orderIndex",
          "type": "uint256"
        }
      ],
      "name": "cancelIncreaseOrder",
      "outputs": [],
      "stateMutability": "nonpayable",
      "type": "function"
    },
    {
      "inputs": [
        {
          "internalType": "address",
          "name": "user",
          "type": "address"
        },
        {
          "internalType": "address",
          "name": "_indexToken",
          "type": "address"
        },
        {
          "internalType": "uint256",
          "name": "_sizeDelta",
          "type": "uint256"
        },
        {
          "internalType": "address",
          "name": "_collateralToken",
          "type": "address"
        },
        {
          "internalType": "uint256",
          "name": "_collateralDelta",
          "type": "uint256"
        },
        {
          "internalType": "bool",
          "name": "_isLong",
          "type": "bool"
        },
        {
          "internalType": "uint256",
          "name": "_triggerPrice",
          "type": "uint256"
        },
        {
          "internalType": "bool",
          "name": "_triggerAboveThreshold",
          "type": "bool"
        },
        {
          "internalType": "uint256",
          "name": "_executionFee",
          "type": "uint256"
        }
      ],
      "name": "createDecreaseOrder",
      "outputs": [],
      "stateMutability": "payable",
      "type": "function"
    },
    {
      "inputs": [
        {
          "internalType": "address",
          "name": "user",
          "type": "address"
        },
        {
          "internalType": "address[]",
          "name": "_path",
          "type": "address[]"
        },
        {
          "internalType": "address",
          "name": "_indexToken",
          "type": "address"
        },
        {
          "internalType": "uint256",
          "name": "_collateralDelta",
          "type": "uint256"
        },
        {
          "internalType": "uint256",
          "name": "_sizeDelta",
          "type": "uint256"
        },
        {
          "internalType": "bool",
          "name": "_isLong",
          "type": "bool"
        },
        {
          "internalType": "uint256",
          "name": "_acceptablePrice",
          "type": "uint256"
        },
        {
          "internalType": "uint256",
          "name": "_minOut",
          "type": "uint256"
        },
        {
          "internalType": "uint256",
          "name": "_executionFee",
          "type": "uint256"
        },
        {
          "internalType": "bool",
          "name": "_withdrawETH",
          "type": "bool"
        },
        {
          "internalType": "address",
          "name": "_callbackTarget",
          "type": "address"
        }
      ],
      "name": "createDecreasePosition",
      "outputs": [],
      "stateMutability": "payable",
      "type": "function"
    },
    {
      "inputs": [
        {
          "internalType": "address",
          "name": "user",
          "type": "address"
        },
        {
          "internalType": "address[]",
          "name": "_path",
          "type": "address[]"
        },
        {
          "internalType": "uint256",
          "name": "_amountIn",
          "type": "uint256"
        },
        {
          "internalType": "address",
          "name": "_indexToken",
          "type": "address"
        },
        {
          "internalType": "uint256",
          "name": "_minOut",
          "type": "uint256"
        },
        {
          "internalType": "uint256",
          "name": "_sizeDelta",
          "type": "uint256"
        },
        {
          "internalType": "address",
          "name": "_collateralToken",
          "type": "address"
        },
        {
          "internalType": "bool",
          "name": "_isLong",
          "type": "bool"
        },
        {
          "internalType": "uint256",
          "name": "_triggerPrice",
          "type": "uint256"
        },
        {
          "internalType": "bool",
          "name": "_triggerAboveThreshold",
          "type": "bool"
        },
        {
          "internalType": "uint256",
          "name": "_executionFee",
          "type": "uint256"
        },
        {
          "internalType": "bool",
          "name": "_shouldWrap",
          "type": "bool"
        }
      ],
      "name": "createIncreaseOrder",
      "outputs": [],
      "stateMutability": "payable",
      "type": "function"
    },
    {
      "inputs": [
        {
          "internalType": "address",
          "name": "user",
          "type": "address"
        },
        {
          "internalType": "address[]",
          "name": "_path",
          "type": "address[]"
        },
        {
          "internalType": "address",
          "name": "_indexToken",
          "type": "address"
        },
        {
          "internalType": "uint256",
          "name": "_amountIn",
          "type": "uint256"
        },
        {
          "internalType": "uint256",
          "name": "_minOut",
          "type": "uint256"
        },
        {
          "internalType": "uint256",
          "name": "_sizeDelta",
          "type": "uint256"
        },
        {
          "internalType": "bool",
          "name": "_isLong",
          "type": "bool"
        },
        {
          "internalType": "uint256",
          "name": "_acceptablePrice",
          "type": "uint256"
        },
        {
          "internalType": "uint256",
          "name": "_executionFee",
          "type": "uint256"
        },
        {
          "internalType": "bytes32",
          "name": "_referralCode",
          "type": "bytes32"
        },
        {
          "internalType": "address",
          "name": "_callbackTarget",
          "type": "address"
        }
      ],
      "name": "createIncreasePosition",
      "outputs": [],
      "stateMutability": "payable",
      "type": "function"
    },
    {
      "inputs": [
        {
          "internalType": "address",
          "name": "user",
          "type": "address"
        },
        {
          "internalType": "address[]",
          "name": "_path",
          "type": "address[]"
        },
        {
          "internalType": "address",
          "name": "_indexToken",
          "type": "address"
        },
        {
          "internalType": "uint256",
          "name": "_amountIn",
          "type": "uint256"
        },
        {
          "internalType": "uint256",
          "name": "_minOut",
          "type": "uint256"
        },
        {
          "internalType": "uint256",
          "name": "_sizeDelta",
          "type": "uint256"
        },
        {
          "internalType": "bool",
          "name": "_isLong",
          "type": "bool"
        },
        {
          "internalType": "uint256",
          "name": "_acceptablePrice",
          "type": "uint256"
        },
        {
          "internalType": "uint256",
          "name": "_executionFee",
          "type": "uint256"
        },
        {
          "internalType": "bytes32",
          "name": "_referralCode",
          "type": "bytes32"
        },
        {
          "internalType": "address",
          "name": "_callbackTarget",
          "type": "address"
        }
      ],
      "name": "createIncreasePositionETH",
      "outputs": [],
      "stateMutability": "payable",
      "type": "function"
    },
    {
      "inputs": [],
      "name": "ddl_gmx",
      "outputs": [
        {
          "internalType": "address",
          "name": "",
          "type": "address"
        }
      ],
      "stateMutability": "view",
      "type": "function"
    },
    {
      "inputs": [
        {
          "internalType": "uint256",
          "name": "",
          "type": "uint256"
        }
      ],
      "name": "indexTokenArray",
      "outputs": [
        {
          "internalType": "address",
          "name": "",
          "type": "address"
        }
      ],
      "stateMutability": "view",
      "type": "function"
    },
    {
      "inputs": [],
      "name": "isApproved",
      "outputs": [
        {
          "internalType": "bool",
          "name": "",
          "type": "bool"
        }
      ],
      "stateMutability": "view",
      "type": "function"
    },
    {
      "inputs": [
        {
          "internalType": "address",
          "name": "",
          "type": "address"
        },
        {
          "internalType": "bool",
          "name": "",
          "type": "bool"
        }
      ],
      "name": "keyByIndexToken",
      "outputs": [
        {
          "internalType": "uint256",
          "name": "",
          "type": "uint256"
        }
      ],
      "stateMutability": "view",
      "type": "function"
    },
    {
      "inputs": [
        {
          "internalType": "uint256",
          "name": "",
          "type": "uint256"
        }
      ],
      "name": "keys",
      "outputs": [
        {
          "internalType": "bool",
          "name": "",
          "type": "bool"
        }
      ],
      "stateMutability": "view",
      "type": "function"
    },
    {
      "inputs": [],
      "name": "orderBook",
      "outputs": [
        {
          "internalType": "contract IOrderBook",
          "name": "",
          "type": "address"
        }
      ],
      "stateMutability": "view",
      "type": "function"
    },
    {
      "inputs": [],
      "name": "positionRouter",
      "outputs": [
        {
          "internalType": "contract IPositionRouter",
          "name": "",
          "type": "address"
        }
      ],
      "stateMutability": "view",
      "type": "function"
    },
    {
      "inputs": [],
      "name": "router",
      "outputs": [
        {
          "internalType": "address",
          "name": "",
          "type": "address"
        }
      ],
      "stateMutability": "view",
      "type": "function"
    },
    {
      "inputs": [
        {
          "internalType": "uint256",
          "name": "",
          "type": "uint256"
        }
      ],
      "name": "stablecoinsArray",
      "outputs": [
        {
          "internalType": "address",
          "name": "",
          "type": "address"
        }
      ],
      "stateMutability": "view",
      "type": "function"
    },
    {
      "inputs": [
        {
          "internalType": "address",
          "name": "user",
          "type": "address"
        },
        {
          "internalType": "address",
          "name": "_indexToken",
          "type": "address"
        },
        {
          "internalType": "bool",
          "name": "_isLong",
          "type": "bool"
        },
        {
          "internalType": "uint256",
          "name": "_orderIndex",
          "type": "uint256"
        },
        {
          "internalType": "uint256",
          "name": "_collateralDelta",
          "type": "uint256"
        },
        {
          "internalType": "uint256",
          "name": "_sizeDelta",
          "type": "uint256"
        },
        {
          "internalType": "uint256",
          "name": "_triggerPrice",
          "type": "uint256"
        },
        {
          "internalType": "bool",
          "name": "_triggerAboveThreshold",
          "type": "bool"
        }
      ],
      "name": "updateDecreaseOrder",
      "outputs": [],
      "stateMutability": "nonpayable",
      "type": "function"
    },
    {
      "inputs": [
        {
          "internalType": "address",
          "name": "user",
          "type": "address"
        },
        {
          "internalType": "address",
          "name": "_indexToken",
          "type": "address"
        },
        {
          "internalType": "bool",
          "name": "_isLong",
          "type": "bool"
        },
        {
          "internalType": "uint256",
          "name": "_orderIndex",
          "type": "uint256"
        },
        {
          "internalType": "uint256",
          "name": "_sizeDelta",
          "type": "uint256"
        },
        {
          "internalType": "uint256",
          "name": "_triggerPrice",
          "type": "uint256"
        },
        {
          "internalType": "bool",
          "name": "_triggerAboveThreshold",
          "type": "bool"
        }
      ],
      "name": "updateIncreaseOrder",
      "outputs": [],
      "stateMutability": "nonpayable",
      "type": "function"
    },
    {
      "inputs": [
        {
          "internalType": "address",
          "name": "user",
          "type": "address"
        },
        {
          "internalType": "address",
          "name": "_indexToken",
          "type": "address"
        },
        {
          "internalType": "bool",
          "name": "_isLong",
          "type": "bool"
        },
        {
          "internalType": "address",
          "name": "tokenAddress",
          "type": "address"
        }
      ],
      "name": "withdrawLiquidity",
      "outputs": [],
      "stateMutability": "nonpayable",
      "type": "function"
    },
    {
      "inputs": [
        {
          "internalType": "address",
          "name": "user",
          "type": "address"
        },
        {
          "internalType": "address",
          "name": "_indexToken",
          "type": "address"
        },
        {
          "internalType": "bool",
          "name": "_isLong",
          "type": "bool"
        }
      ],
      "name": "withdrawLiquidityETH",
      "outputs": [],
      "stateMutability": "nonpayable",
      "type": "function"
    },
    {
      "stateMutability": "payable",
      "type": "receive"
    }
  ],
  "bytecode": "0x60a0604052600e805460ff60a01b191690553480156200001e57600080fd5b50604051620025e8380380620025e883398101604081905262000041916200036c565b600080546001600160a01b03808c166001600160a01b03199283161783556001600160601b031960608c901b1660805260018054918b16919092161790555b6008811015620002125760048110156200013357858160088110620000a957620000a9620004e1565b602002015160058260048110620000c457620000c4620004e1565b0180546001600160a01b0319166001600160a01b0392909216919091179055848160048110620000f857620000f8620004e1565b602002015160098260048110620001135762000113620004e1565b0180546001600160a01b0319166001600160a01b03929092169190911790555b868160088110620001485762000148620004e1565b602002015160026000888460088110620001665762000166620004e1565b60200201516001600160a01b03166001600160a01b031681526020019081526020016000206000600484106200019e576000620001a1565b60015b15151515815260200190815260200160002081905550600160036000898460088110620001d257620001d2620004e1565b6020020151815260200190815260200160002060006101000a81548160ff02191690831515021790555080806200020990620004b7565b91505062000080565b50600480546001600160a01b03199081166001600160a01b0394851617909155600d8054821694841694909417909355600e805490931691161790555062000510945050505050565b80516200026881620004f7565b919050565b600082601f8301126200027f57600080fd5b604051608081016001600160401b0381118282101715620002b057634e487b7160e01b600052604160045260246000fd5b604052808360808101861015620002c657600080fd5b60005b6004811015620002f6578151620002e081620004f7565b83526020928301929190910190600101620002c9565b509195945050505050565b600082601f8301126200031357600080fd5b6200031d6200047f565b808385610100860111156200033157600080fd5b60005b6008811015620003615781516200034b81620004f7565b8452602093840193919091019060010162000334565b509095945050505050565b60008060008060008060008060006103408a8c0312156200038c57600080fd5b89516200039981620004f7565b60208b0151909950620003ac81620004f7565b60408b0151909850620003bf81620004f7565b9650607f8a018b13620003d157600080fd5b620003db6200047f565b8060608c016101608d018e811115620003f357600080fd5b60005b600881101562000417578251855260209485019490920191600101620003f6565b50829950620004278f8262000301565b9850505050506200043d8b6102608c016200026d565b93506200044e6102e08b016200025b565b92506200045f6103008b016200025b565b9150620004706103208b016200025b565b90509295985092959850929598565b60405161010081016001600160401b0381118282101715620004b157634e487b7160e01b600052604160045260246000fd5b60405290565b6000600019821415620004da57634e487b7160e01b600052601160045260246000fd5b5060010190565b634e487b7160e01b600052603260045260246000fd5b6001600160a01b03811681146200050d57600080fd5b50565b60805160601c61209d6200054b6000396000818161042601528181610b5301528181610bd101528181610d120152610e64015261209d6000f3fe6080604052600436106101435760003560e01c8063776af5ba116100b6578063d6ef60131161006f578063d6ef6013146103ae578063da91dfd5146103ce578063de26fdcd146103e1578063f572acec146103f4578063f887ea4014610414578063fc86da891461044857600080fd5b8063776af5ba146102fb57806391c2c4691461031b578063b32e8cb61461033b578063b7511c5b1461035b578063c8fddadb1461037b578063d0dbc4e41461038e57600080fd5b80632583ee6f116101085780632583ee6f1461025257806328f371aa1461027457806345b5f94f146102955780634fbb66c3146102b557806361ef161f146102c85780636f7e8799146102e857600080fd5b806230e1b51461014f57806306b278cb1461018c5780630cb6aaf1146101ac5780630cd790f7146101ec57806313a51b2e1461020c57600080fd5b3661014a57005b600080fd5b34801561015b57600080fd5b5061016f61016a366004611d9f565b610468565b6040516001600160a01b0390911681526020015b60405180910390f35b34801561019857600080fd5b5060045461016f906001600160a01b031681565b3480156101b857600080fd5b506101dc6101c7366004611d9f565b60036020526000908152604090205460ff1681565b6040519015158152602001610183565b3480156101f857600080fd5b50600e5461016f906001600160a01b031681565b34801561021857600080fd5b50610244610227366004611c25565b600260209081526000928352604080842090915290825290205481565b604051908152602001610183565b34801561025e57600080fd5b5061027261026d366004611748565b610488565b005b34801561028057600080fd5b50600e546101dc90600160a01b900460ff1681565b3480156102a157600080fd5b506102726102b03660046118bb565b61056b565b6102726102c3366004611aa0565b6105fb565b3480156102d457600080fd5b5060005461016f906001600160a01b031681565b6102726102f63660046119d8565b610689565b34801561030757600080fd5b5060015461016f906001600160a01b031681565b34801561032757600080fd5b50600d5461016f906001600160a01b031681565b34801561034757600080fd5b506102726103563660046117ef565b610876565b34801561036757600080fd5b50610272610376366004611d9f565b610b31565b610272610389366004611940565b610f0a565b34801561039a57600080fd5b506102726103a9366004611793565b610fae565b3480156103ba57600080fd5b5061016f6103c9366004611d9f565b61114d565b6102726103dc366004611aa0565b61115d565b6102726103ef366004611b4f565b6111aa565b34801561040057600080fd5b5061027261040f3660046117ef565b6111fb565b34801561042057600080fd5b5061016f7f000000000000000000000000000000000000000000000000000000000000000081565b34801561045457600080fd5b50610272610463366004611840565b61141c565b6009816004811061047857600080fd5b01546001600160a01b0316905081565b6104938383836114a4565b600480546001600160a01b03848116600090815260026020908152604080832087151584529091528082205490516331a9108f60e11b81529485015292911690636352211e9060240160206040518083038186803b1580156104f457600080fd5b505afa158015610508573d6000803e3d6000fd5b505050506040513d601f19601f8201168201806040525081019061052c9190611724565b6040519091506001600160a01b038216904780156108fc02916000818181858888f19350505050158015610564573d6000803e3d6000fd5b5050505050565b6105768888886114a4565b6001546040516328e5fa9560e21b81526004810187905260248101869052604481018590526064810184905282151560848201526001600160a01b039091169063a397ea549060a401600060405180830381600087803b1580156105d957600080fd5b505af11580156105ed573d6000803e3d6000fd5b505050505050505050505050565b6106068b8a876114a4565b60005460405163f2ae372f60e01b81526001600160a01b039091169063f2ae372f90349061064a908e908e908e908e908e908e908e908e908e908e90600401611f03565b6000604051808303818588803b15801561066357600080fd5b505af1158015610677573d6000803e3d6000fd5b50505050505050505050505050505050565b600480546001600160a01b038b811660009081526002602090815260408083208c151584529091528082205490516331a9108f60e11b81529485015292911690636352211e9060240160206040518083038186803b1580156106ea57600080fd5b505afa1580156106fe573d6000803e3d6000fd5b505050506040513d601f19601f820116820180604052508101906107229190611724565b90508b6001600160a01b0316816001600160a01b0316146107815760405162461bcd60e51b8152602060048201526014602482015273796f7520646f6e277420686176652061206b657960601b60448201526064015b60405180910390fd5b600e546001600160a01b031633146107e257600d546001600160a01b031633146107e25760405162461bcd60e51b815260206004820152601260248201527134b73b30b634b21036b9b39739b2b73232b960711b6044820152606401610778565b60008054906101000a90046001600160a01b03166001600160a01b0316637be7d141348d8d8d8d8d888e8e8e8e8e6040518d63ffffffff1660e01b81526004016108369b9a99989796959493929190611e2e565b6000604051808303818588803b15801561084f57600080fd5b505af1158015610863573d6000803e3d6000fd5b5050505050505050505050505050505050565b6108818484846114a4565b60015460405163d3bab1d160e01b81526000918291829182916001600160a01b039091169063d3bab1d1906108bc9030908990600401611e15565b6101206040518083038186803b1580156108d557600080fd5b505afa1580156108e9573d6000803e3d6000fd5b505050506040513d601f19601f8201168201806040525081019061090d9190611c5e565b60015460405163047e0bbd60e41b8152999d50979b50929950919750506001600160a01b03909416946347e0bbd0945061095393508a9250600401905090815260200190565b600060405180830381600087803b15801561096d57600080fd5b505af1158015610981573d6000803e3d6000fd5b5050600480546001600160a01b038b811660009081526002602090815260408083208e151584529091528082205490516331a9108f60e11b8152948501529450169150636352211e9060240160206040518083038186803b1580156109e557600080fd5b505afa1580156109f9573d6000803e3d6000fd5b505050506040513d601f19601f82011682018060405250810190610a1d9190611724565b60405163a9059cbb60e01b81529091506001600160a01b0386169063a9059cbb90610a4e9084908890600401611e15565b602060405180830381600087803b158015610a6857600080fd5b505af1158015610a7c573d6000803e3d6000fd5b505050506040513d601f19601f82011682018060405250810190610aa09190611d82565b5060055460405163a9059cbb60e01b81526001600160a01b039091169063a9059cbb90610ad39084908690600401611e15565b602060405180830381600087803b158015610aed57600080fd5b505af1158015610b01573d6000803e3d6000fd5b505050506040513d601f19601f82011682018060405250810190610b259190611d82565b50505050505050505050565b6000546040516338c74dd960e01b81526001600160a01b0391821660048201527f0000000000000000000000000000000000000000000000000000000000000000909116906338c74dd990602401600060405180830381600087803b158015610b9957600080fd5b505af1158015610bad573d6000803e3d6000fd5b50506001546040516338c74dd960e01b81526001600160a01b0391821660048201527f000000000000000000000000000000000000000000000000000000000000000090911692506338c74dd99150602401600060405180830381600087803b158015610c1957600080fd5b505af1158015610c2d573d6000803e3d6000fd5b5050505060005b6004811015610ef35760058160048110610c5057610c50612015565b015460005460405163095ea7b360e01b81526001600160a01b039283169263095ea7b392610c85929116908690600401611e15565b602060405180830381600087803b158015610c9f57600080fd5b505af1158015610cb3573d6000803e3d6000fd5b505050506040513d601f19601f82011682018060405250810190610cd79190611d82565b5060058160048110610ceb57610ceb612015565b015460405163095ea7b360e01b81526001600160a01b039091169063095ea7b390610d3c907f0000000000000000000000000000000000000000000000000000000000000000908690600401611e15565b602060405180830381600087803b158015610d5657600080fd5b505af1158015610d6a573d6000803e3d6000fd5b505050506040513d601f19601f82011682018060405250810190610d8e9190611d82565b5060098160048110610da257610da2612015565b015460005460405163095ea7b360e01b81526001600160a01b039283169263095ea7b392610dd7929116908690600401611e15565b602060405180830381600087803b158015610df157600080fd5b505af1158015610e05573d6000803e3d6000fd5b505050506040513d601f19601f82011682018060405250810190610e299190611d82565b5060098160048110610e3d57610e3d612015565b015460405163095ea7b360e01b81526001600160a01b039091169063095ea7b390610e8e907f0000000000000000000000000000000000000000000000000000000000000000908690600401611e15565b602060405180830381600087803b158015610ea857600080fd5b505af1158015610ebc573d6000803e3d6000fd5b505050506040513d601f19601f82011682018060405250810190610ee09190611d82565b5080610eeb81611fec565b915050610c34565b5050600e805460ff60a01b1916600160a01b179055565b610f158989866114a4565b6001546040516360b66f4560e11b81526001600160a01b038a81166004830152602482018a9052888116604483015260648201889052861515608483015260a4820186905284151560c48301529091169063c16cde8a90349060e4016000604051808303818588803b158015610f8a57600080fd5b505af1158015610f9e573d6000803e3d6000fd5b5050505050505050505050505050565b610fb98484846114a4565b600480546001600160a01b03858116600090815260026020908152604080832088151584529091528082205490516331a9108f60e11b81529485015292911690636352211e9060240160206040518083038186803b15801561101a57600080fd5b505afa15801561102e573d6000803e3d6000fd5b505050506040513d601f19601f820116820180604052508101906110529190611724565b6040516370a0823160e01b81523060048201529091506001600160a01b0383169063a9059cbb90839083906370a082319060240160206040518083038186803b15801561109e57600080fd5b505afa1580156110b2573d6000803e3d6000fd5b505050506040513d601f19601f820116820180604052508101906110d69190611db8565b6040518363ffffffff1660e01b81526004016110f3929190611e15565b602060405180830381600087803b15801561110d57600080fd5b505af1158015611121573d6000803e3d6000fd5b505050506040513d601f19601f820116820180604052508101906111459190611d82565b505050505050565b6005816004811061047857600080fd5b6111688b8a876114a4565b600054604051632dc4746360e11b81526001600160a01b0390911690635b88e8c690349061064a908e908e908d908d908d908d908d908d908d90600401611ea1565b6111b58c8a876114a4565b600154604051630b142a4b60e41b81526001600160a01b039091169063b142a4b0903490610836908f908f908f908f908f908f908f908f908f908f908f90600401611f6e565b6112068484846114a4565b600154604051630130197760e11b81526000916001600160a01b03169063026032ee906112399030908690600401611e15565b6101006040518083038186803b15801561125257600080fd5b505afa158015611266573d6000803e3d6000fd5b505050506040513d601f19601f8201168201806040525081019061128a9190611cfa565b6001546040516309e71b0f60e41b81529199506001600160a01b03169750639e71b0f096506112c495508994506004019250611fe3915050565b600060405180830381600087803b1580156112de57600080fd5b505af11580156112f2573d6000803e3d6000fd5b5050600480546001600160a01b0388811660009081526002602090815260408083208b151584529091528082205490516331a9108f60e11b8152948501529450169150636352211e9060240160206040518083038186803b15801561135657600080fd5b505afa15801561136a573d6000803e3d6000fd5b505050506040513d601f19601f8201168201806040525081019061138e9190611724565b60055460405163a9059cbb60e01b81529192506001600160a01b03169063a9059cbb906113c19084908690600401611e15565b602060405180830381600087803b1580156113db57600080fd5b505af11580156113ef573d6000803e3d6000fd5b505050506040513d601f19601f820116820180604052508101906114139190611d82565b50505050505050565b6114278787876114a4565b600154604051639983ee1b60e01b815260048101869052602481018590526044810184905282151560648201526001600160a01b0390911690639983ee1b90608401600060405180830381600087803b15801561148357600080fd5b505af1158015611497573d6000803e3d6000fd5b5050505050505050505050565b600480546001600160a01b0384811660009081526002602090815260408083208715158452909152908190205490516331a9108f60e11b81529384015285811692911690636352211e9060240160206040518083038186803b15801561150957600080fd5b505afa15801561151d573d6000803e3d6000fd5b505050506040513d601f19601f820116820180604052508101906115419190611724565b6001600160a01b03161461158e5760405162461bcd60e51b8152602060048201526014602482015273796f7520646f6e277420686176652061206b657960601b6044820152606401610778565b6001600160a01b038216600090815260026020908152604080832084151584528252808320548352600390915290205460ff166115fb5760405162461bcd60e51b815260206004820152600b60248201526a696e76616c6964206b657960a81b6044820152606401610778565b600e546001600160a01b0316331461165c57600d546001600160a01b0316331461165c5760405162461bcd60e51b815260206004820152601260248201527134b73b30b634b21036b9b39739b2b73232b960711b6044820152606401610778565b505050565b803561166c81612041565b919050565b600082601f83011261168257600080fd5b8135602067ffffffffffffffff8083111561169f5761169f61202b565b8260051b604051601f19603f830116810181811084821117156116c4576116c461202b565b604052848152838101925086840182880185018910156116e357600080fd5b600092505b8583101561170d576116f981611661565b8452928401926001929092019184016116e8565b50979650505050505050565b803561166c81612059565b60006020828403121561173657600080fd5b815161174181612041565b9392505050565b60008060006060848603121561175d57600080fd5b833561176881612041565b9250602084013561177881612041565b9150604084013561178881612059565b809150509250925092565b600080600080608085870312156117a957600080fd5b84356117b481612041565b935060208501356117c481612041565b925060408501356117d481612059565b915060608501356117e481612041565b939692955090935050565b6000806000806080858703121561180557600080fd5b843561181081612041565b9350602085013561182081612041565b9250604085013561183081612059565b9396929550929360600135925050565b600080600080600080600060e0888a03121561185b57600080fd5b873561186681612041565b9650602088013561187681612041565b9550604088013561188681612059565b9450606088013593506080880135925060a0880135915060c08801356118ab81612059565b8091505092959891949750929550565b600080600080600080600080610100898b0312156118d857600080fd5b88356118e381612041565b975060208901356118f381612041565b9650604089013561190381612059565b9550606089013594506080890135935060a0890135925060c0890135915060e089013561192f81612059565b809150509295985092959890939650565b60008060008060008060008060006101208a8c03121561195f57600080fd5b893561196a81612041565b985060208a013561197a81612041565b975060408a0135965060608a013561199181612041565b955060808a0135945060a08a01356119a881612059565b935060c08a0135925060e08a01356119bf81612059565b809250506101008a013590509295985092959850929598565b60008060008060008060008060008060006101608c8e0312156119fa57600080fd5b8b35611a0581612041565b9a5060208c013567ffffffffffffffff811115611a2157600080fd5b611a2d8e828f01611671565b9a505060408c0135611a3e81612041565b985060608c0135975060808c01359650611a5a60a08d01611719565b955060c08c0135945060e08c013593506101008c01359250611a7f6101208d01611719565b9150611a8e6101408d01611661565b90509295989b509295989b9093969950565b60008060008060008060008060008060006101608c8e031215611ac257600080fd5b8b35611acd81612041565b9a5060208c013567ffffffffffffffff811115611ae957600080fd5b611af58e828f01611671565b9a505060408c0135611b0681612041565b985060608c0135975060808c0135965060a08c01359550611b2960c08d01611719565b945060e08c013593506101008c013592506101208c01359150611a8e6101408d01611661565b6000806000806000806000806000806000806101808d8f031215611b7257600080fd5b611b7b8d611661565b9b5067ffffffffffffffff60208e01351115611b9657600080fd5b611ba68e60208f01358f01611671565b9a5060408d01359950611bbb60608e01611661565b985060808d0135975060a08d01359650611bd760c08e01611661565b9550611be560e08e01611719565b94506101008d01359350611bfc6101208e01611719565b92506101408d01359150611c136101608e01611719565b90509295989b509295989b509295989b565b60008060408385031215611c3857600080fd5b8235611c4381612041565b91506020830135611c5381612059565b809150509250929050565b60008060008060008060008060006101208a8c031215611c7d57600080fd5b8951611c8881612041565b60208b015160408c0151919a509850611ca081612041565b60608b0151909750611cb181612041565b60808b015160a08c01519197509550611cc981612059565b60c08b015160e08c01519195509350611ce181612059565b809250506101008a015190509295985092959850929598565b600080600080600080600080610100898b031215611d1757600080fd5b8851611d2281612041565b60208a015160408b01519199509750611d3a81612041565b60608a015160808b01519197509550611d5281612059565b60a08a015160c08b01519195509350611d6a81612059565b8092505060e089015190509295985092959890939650565b600060208284031215611d9457600080fd5b815161174181612059565b600060208284031215611db157600080fd5b5035919050565b600060208284031215611dca57600080fd5b5051919050565b600081518084526020808501945080840160005b83811015611e0a5781516001600160a01b031687529582019590820190600101611de5565b509495945050505050565b6001600160a01b03929092168252602082015260400190565b6000610160808352611e428184018f611dd1565b6001600160a01b039d8e166020850152604084019c909c5250506060810198909852951515608088015293881660a087015260c086019290925260e0850152610100840152151561012083015290921661014090920191909152919050565b6000610120808352611eb58184018d611dd1565b6001600160a01b039b8c166020850152604084019a909a5250506060810196909652931515608086015260a085019290925260c084015260e083015290921661010090920191909152919050565b6000610140808352611f178184018e611dd1565b6001600160a01b039c8d166020850152604084019b909b5250506060810197909752608087019590955292151560a086015260c085019190915260e084015261010083015290921661012090920191909152919050565b6000610160808352611f828184018f611dd1565b602084019d909d5250506001600160a01b03998a166040820152606081019890985260808801969096529390961660a086015290151560c085015260e084015292151561010083015261012082019290925290151561014090910152919050565b90815260200190565b600060001982141561200e57634e487b7160e01b600052601160045260246000fd5b5060010190565b634e487b7160e01b600052603260045260246000fd5b634e487b7160e01b600052604160045260246000fd5b6001600160a01b038116811461205657600080fd5b50565b801515811461205657600080fdfea2646970667358221220af49feabe551b5c2dc4201f27a6c69d550dafb6af7bff7dd04be1311c9cbdd4b64736f6c63430008060033",
  "linkReferences": {},
  "deployedLinkReferences": {}
}