{
  "address": "0xD0aAfd54AF6711d301Ed7383aba009169fBF29f3",
  "abi": [
    {
      "inputs": [
        {
          "internalType": "contract IAdminToken",
          "name": "_adminToken",
          "type": "address"
        },
        {
          "internalType": "contract ITradeToken",
          "name": "_tradeToken",
          "type": "address"
        },
        {
          "internalType": "contract IRoleManager",
          "name": "_roleManager",
          "type": "address"
        },
        {
          "internalType": "contract IContractsStorage",
          "name": "_contractsStorage",
          "type": "address"
        }
      ],
      "stateMutability": "nonpayable",
      "type": "constructor"
    },
    {
      "inputs": [],
      "name": "adminToken",
      "outputs": [
        {
          "internalType": "contract IAdminToken",
          "name": "",
          "type": "address"
        }
      ],
      "stateMutability": "view",
      "type": "function"
    },
    {
      "inputs": [],
      "name": "contractsStorage",
      "outputs": [
        {
          "internalType": "contract IContractsStorage",
          "name": "",
          "type": "address"
        }
      ],
      "stateMutability": "view",
      "type": "function"
    },
    {
      "inputs": [],
      "name": "createMarginAccount",
      "outputs": [],
      "stateMutability": "nonpayable",
      "type": "function"
    },
    {
      "inputs": [],
      "name": "roleManager",
      "outputs": [
        {
          "internalType": "contract IRoleManager",
          "name": "",
          "type": "address"
        }
      ],
      "stateMutability": "view",
      "type": "function"
    },
    {
      "inputs": [],
      "name": "tokenID",
      "outputs": [
        {
          "internalType": "uint256",
          "name": "",
          "type": "uint256"
        }
      ],
      "stateMutability": "view",
      "type": "function"
    },
    {
      "inputs": [],
      "name": "tradeToken",
      "outputs": [
        {
          "internalType": "contract ITradeToken",
          "name": "",
          "type": "address"
        }
      ],
      "stateMutability": "view",
      "type": "function"
    }
  ],
  "transactionHash": "0x1178a30dbdea024e05fd0a414ca3b993c741e1d43b2a37cb8af55f1db9968d0a",
  "args": [
    "0x6bFbc79d5EDc7ac3684861A0D5C3d49843dc8FE0",
    "0xD803bAE55bC7bf87065FD376BB972337f3FdD073",
    "0xe6905c9AD6031d89382198f94Fcd49928d6b6CA3",
    "0xac2964f823D283F2F70052f81FC7A2dA6A1E1DB8"
  ],
  "numDeployments": 1,
  "solcInputHash": "f8bb2759f6b24b089fbed684354c9c21",
  "bytecode": "0x6080604052600060045534801561001557600080fd5b50604051611b45380380611b4583398101604081905261003491610087565b600080546001600160a01b039586166001600160a01b03199182161790915560018054948616948216949094179093556002805492851692841692909217909155600380549190931691161790556100fe565b6000806000806080858703121561009d57600080fd5b84516100a8816100e6565b60208601519094506100b9816100e6565b60408601519093506100ca816100e6565b60608601519092506100db816100e6565b939692955090935050565b6001600160a01b03811681146100fb57600080fd5b50565b611a388061010d6000396000f3fe608060405234801561001057600080fd5b50600436106100615760003560e01c8062435da5146100665780631fad60a1146100965780632e81bad7146100a05780638e44c749146100b3578063a5c42ef1146100c6578063d83678ac146100dd575b600080fd5b600254610079906001600160a01b031681565b6040516001600160a01b0390911681526020015b60405180910390f35b61009e6100f0565b005b600054610079906001600160a01b031681565b600354610079906001600160a01b031681565b6100cf60045481565b60405190815260200161008d565b600154610079906001600160a01b031681565b6004805490600190600061010483856102b9565b90915550506002546003546000805460405191936001600160a01b03908116938116929116908590610135906102ac565b6001600160a01b0394851681529284166020840152921660408201526060810191909152608001604051809103906000f080158015610178573d6000803e3d6000fd5b506000546040516340c10f1960e01b8152336004820152602481018590529192506001600160a01b0316906340c10f1990604401600060405180830381600087803b1580156101c657600080fd5b505af11580156101da573d6000803e3d6000fd5b50506001546040516340c10f1960e01b8152336004820152602481018690526001600160a01b0390911692506340c10f199150604401600060405180830381600087803b15801561022a57600080fd5b505af115801561023e573d6000803e3d6000fd5b5050600354604051636c0b5f6f60e11b8152600481018690526001600160a01b038581166024830152909116925063d816bede9150604401600060405180830381600087803b15801561029057600080fd5b505af11580156102a4573d6000803e3d6000fd5b505050505050565b611723806102e083390190565b600082198211156102da57634e487b7160e01b600052601160045260246000fd5b50019056fe60806040523480156200001157600080fd5b50604051620017233803806200172383398101604081905262000034916200007a565b600280546001600160a01b03199081166001600160a01b0396871617909155600380548216948616949094179093556004805490931691909316179055600555620000ed565b600080600080608085870312156200009157600080fd5b84516200009e81620000d4565b6020860151909450620000b181620000d4565b6040860151909350620000c481620000d4565b6060959095015193969295505050565b6001600160a01b0381168114620000ea57600080fd5b50565b61162680620000fd6000396000f3fe608060405234801561001057600080fd5b50600436106100b35760003560e01c8063b0ecfab311610071578063b0ecfab314610149578063b6f6fe2514610169578063b947efc61461017e578063bcd0a9c814610195578063e08af2aa146101a8578063e356e4fc146101dc57600080fd5b8062435da5146100b85780632e81bad7146100e85780634412c42a146100fb5780637e2bbce4146101105780638e44c749146101235780639263902314610136575b600080fd5b6002546100cb906001600160a01b031681565b6040516001600160a01b0390911681526020015b60405180910390f35b6004546100cb906001600160a01b031681565b61010e61010936600461138f565b6101ef565b005b61010e61011e366004611413565b6102d1565b6003546100cb906001600160a01b031681565b61010e610144366004611413565b610505565b61015c6101573660046113e1565b610a0b565b6040516100df9190611504565b610171610ab7565b6040516100df91906114a2565b61018760055481565b6040519081526020016100df565b61010e6101a3366004611413565b610b90565b6100cb6101b6366004611352565b80516020818301810180516000825292820191909301209152546001600160a01b031681565b61010e6101ea366004611413565b610d9a565b600254604051635034503d60e01b81523360048201526001600160a01b0390911690635034503d9060240160006040518083038186803b15801561023257600080fd5b505afa158015610246573d6000803e3d6000fd5b505050508060008360405161025b9190611486565b9081526040516020918190038201902080546001600160a01b0319166001600160a01b03939093169290921790915560018054808201825560009190915283516102cc927fb10e2d527612073b26eecdfd717e6a320cf44b4afac2b0732d9fcbe2b7fa0cf6909201918501906111e6565b505050565b600480546005546040516331a9108f60e11b8152928301526001600160a01b031690636352211e9060240160206040518083038186803b15801561031457600080fd5b505afa158015610328573d6000803e3d6000fd5b505050506040513d601f19601f8201168201806040525081019061034c919061130c565b6001600160a01b0316336001600160a01b0316146103855760405162461bcd60e51b815260040161037c90611517565b60405180910390fd5b600354604051631fc58a5b60e11b81526000916001600160a01b031690633f8b14b6906103b6908590600401611504565b60206040518083038186803b1580156103ce57600080fd5b505afa1580156103e2573d6000803e3d6000fd5b505050506040513d601f19601f82011682018060405250810190610406919061130c565b6001600160a01b031663fc0c546a6040518163ffffffff1660e01b815260040160206040518083038186803b15801561043e57600080fd5b505afa158015610452573d6000803e3d6000fd5b505050506040513d601f19601f82011682018060405250810190610476919061130c565b6040516323b872dd60e01b8152336004820152306024820152604481018590529091506001600160a01b038216906323b872dd90606401602060405180830381600087803b1580156104c757600080fd5b505af11580156104db573d6000803e3d6000fd5b505050506040513d601f19601f820116820180604052508101906104ff9190611330565b50505050565b600480546005546040516331a9108f60e11b8152928301526001600160a01b031690636352211e9060240160206040518083038186803b15801561054857600080fd5b505afa15801561055c573d6000803e3d6000fd5b505050506040513d601f19601f82011682018060405250810190610580919061130c565b6001600160a01b0316336001600160a01b031614806106355750600360009054906101000a90046001600160a01b03166001600160a01b031663478426636040518163ffffffff1660e01b815260040160206040518083038186803b1580156105e857600080fd5b505afa1580156105fc573d6000803e3d6000fd5b505050506040513d601f19601f82011682018060405250810190610620919061130c565b6001600160a01b0316336001600160a01b0316145b6106515760405162461bcd60e51b815260040161037c90611517565b600354604051631fc58a5b60e11b81526000916001600160a01b031690633f8b14b690610682908590600401611504565b60206040518083038186803b15801561069a57600080fd5b505afa1580156106ae573d6000803e3d6000fd5b505050506040513d601f19601f820116820180604052508101906106d2919061130c565b604051633cb550e960e21b8152600481018590529091506000906001600160a01b0383169063f2d543a49060240160206040518083038186803b15801561071857600080fd5b505afa15801561072c573d6000803e3d6000fd5b505050506040513d601f19601f8201168201806040525081019061075091906113fa565b90506000826001600160a01b031663fc0c546a6040518163ffffffff1660e01b815260040160206040518083038186803b15801561078d57600080fd5b505afa1580156107a1573d6000803e3d6000fd5b505050506040513d601f19601f820116820180604052508101906107c5919061130c565b9050600360009054906101000a90046001600160a01b03166001600160a01b031663478426636040518163ffffffff1660e01b815260040160206040518083038186803b15801561081557600080fd5b505afa158015610829573d6000803e3d6000fd5b505050506040513d601f19601f8201168201806040525081019061084d919061130c565b6001600160a01b0316336001600160a01b03161461098357600360009054906101000a90046001600160a01b03166001600160a01b031663dca627136040518163ffffffff1660e01b8152600401602060405180830381600087803b1580156108b557600080fd5b505af11580156108c9573d6000803e3d6000fd5b505050506040513d601f19601f820116820180604052508101906108ed919061130c565b6005546040516376a0f16960e01b8152600481019190915260248101849052600060448201526001600160a01b0391909116906376a0f1699060640160206040518083038186803b15801561094157600080fd5b505afa158015610955573d6000803e3d6000fd5b505050506040513d601f19601f820116820180604052508101906109799190611330565b1561098357600080fd5b60405163a9059cbb60e01b8152336004820152602481018690526001600160a01b0382169063a9059cbb90604401602060405180830381600087803b1580156109cb57600080fd5b505af11580156109df573d6000803e3d6000fd5b505050506040513d601f19601f82011682018060405250810190610a039190611330565b505050505050565b60018181548110610a1b57600080fd5b906000526020600020016000915090508054610a3690611587565b80601f0160208091040260200160405190810160405280929190818152602001828054610a6290611587565b8015610aaf5780601f10610a8457610100808354040283529160200191610aaf565b820191906000526020600020905b815481529060010190602001808311610a9257829003601f168201915b505050505081565b60606001805480602002602001604051908101604052809291908181526020016000905b82821015610b87578382906000526020600020018054610afa90611587565b80601f0160208091040260200160405190810160405280929190818152602001828054610b2690611587565b8015610b735780601f10610b4857610100808354040283529160200191610b73565b820191906000526020600020905b815481529060010190602001808311610b5657829003601f168201915b505050505081526020019060010190610adb565b50505050905090565b600480546005546040516331a9108f60e11b8152928301526001600160a01b031690636352211e9060240160206040518083038186803b158015610bd357600080fd5b505afa158015610be7573d6000803e3d6000fd5b505050506040513d601f19601f82011682018060405250810190610c0b919061130c565b6001600160a01b0316336001600160a01b031614610c3b5760405162461bcd60e51b815260040161037c90611517565b600354604051631fc58a5b60e11b81526000916001600160a01b031690633f8b14b690610c6c908590600401611504565b60206040518083038186803b158015610c8457600080fd5b505afa158015610c98573d6000803e3d6000fd5b505050506040513d601f19601f82011682018060405250810190610cbc919061130c565b6001600160a01b031663fc0c546a6040518163ffffffff1660e01b815260040160206040518083038186803b158015610cf457600080fd5b505afa158015610d08573d6000803e3d6000fd5b505050506040513d601f19601f82011682018060405250810190610d2c919061130c565b6040516323b872dd60e01b8152336004820152306024820152604481018590529091506001600160a01b038216906323b872dd90606401600060405180830381600087803b158015610d7d57600080fd5b505af1158015610d91573d6000803e3d6000fd5b50505050505050565b600480546005546040516331a9108f60e11b8152928301526001600160a01b031690636352211e9060240160206040518083038186803b158015610ddd57600080fd5b505afa158015610df1573d6000803e3d6000fd5b505050506040513d601f19601f82011682018060405250810190610e15919061130c565b6001600160a01b0316336001600160a01b03161480610eca5750600360009054906101000a90046001600160a01b03166001600160a01b031663478426636040518163ffffffff1660e01b815260040160206040518083038186803b158015610e7d57600080fd5b505afa158015610e91573d6000803e3d6000fd5b505050506040513d601f19601f82011682018060405250810190610eb5919061130c565b6001600160a01b0316336001600160a01b0316145b610ee65760405162461bcd60e51b815260040161037c90611517565b600354604051631fc58a5b60e11b81526000916001600160a01b031690633f8b14b690610f17908590600401611504565b60206040518083038186803b158015610f2f57600080fd5b505afa158015610f43573d6000803e3d6000fd5b505050506040513d601f19601f82011682018060405250810190610f67919061130c565b6040516343a7a0d560e11b8152600481018590529091506000906001600160a01b0383169063874f41aa9060240160206040518083038186803b158015610fad57600080fd5b505afa158015610fc1573d6000803e3d6000fd5b505050506040513d601f19601f82011682018060405250810190610fe591906113fa565b90506000826001600160a01b031663fc0c546a6040518163ffffffff1660e01b815260040160206040518083038186803b15801561102257600080fd5b505afa158015611036573d6000803e3d6000fd5b505050506040513d601f19601f8201168201806040525081019061105a919061130c565b9050600360009054906101000a90046001600160a01b03166001600160a01b031663dca627136040518163ffffffff1660e01b8152600401602060405180830381600087803b1580156110ac57600080fd5b505af11580156110c0573d6000803e3d6000fd5b505050506040513d601f19601f820116820180604052508101906110e4919061130c565b6005546040516376a0f16960e01b8152600481019190915260248101849052600060448201526001600160a01b0391909116906376a0f1699060640160206040518083038186803b15801561113857600080fd5b505afa15801561114c573d6000803e3d6000fd5b505050506040513d601f19601f820116820180604052508101906111709190611330565b61117957600080fd5b6040516323b872dd60e01b8152306004820152336024820152604481018690526001600160a01b038216906323b872dd90606401600060405180830381600087803b1580156111c757600080fd5b505af11580156111db573d6000803e3d6000fd5b505050505050505050565b8280546111f290611587565b90600052602060002090601f016020900481019282611214576000855561125a565b82601f1061122d57805160ff191683800117855561125a565b8280016001018555821561125a579182015b8281111561125a57825182559160200191906001019061123f565b5061126692915061126a565b5090565b5b80821115611266576000815560010161126b565b600082601f83011261129057600080fd5b813567ffffffffffffffff808211156112ab576112ab6115c2565b604051601f8301601f19908116603f011681019082821181831017156112d3576112d36115c2565b816040528381528660208588010111156112ec57600080fd5b836020870160208301376000602085830101528094505050505092915050565b60006020828403121561131e57600080fd5b8151611329816115d8565b9392505050565b60006020828403121561134257600080fd5b8151801515811461132957600080fd5b60006020828403121561136457600080fd5b813567ffffffffffffffff81111561137b57600080fd5b6113878482850161127f565b949350505050565b600080604083850312156113a257600080fd5b823567ffffffffffffffff8111156113b957600080fd5b6113c58582860161127f565b92505060208301356113d6816115d8565b809150509250929050565b6000602082840312156113f357600080fd5b5035919050565b60006020828403121561140c57600080fd5b5051919050565b6000806040838503121561142657600080fd5b82359150602083013567ffffffffffffffff81111561144457600080fd5b6114508582860161127f565b9150509250929050565b6000815180845261147281602086016020860161155b565b601f01601f19169290920160200192915050565b6000825161149881846020870161155b565b9190910192915050565b6000602080830181845280855180835260408601915060408160051b870101925083870160005b828110156114f757603f198886030184526114e585835161145a565b945092850192908501906001016114c9565b5092979650505050505050565b602081526000611329602083018461145a565b60208082526024908201527f4d617267696e4163636f756e743a20796f7520617265206e6f7420746865206f6040820152633bb732b960e11b606082015260800190565b60005b8381101561157657818101518382015260200161155e565b838111156104ff5750506000910152565b600181811c9082168061159b57607f821691505b602082108114156115bc57634e487b7160e01b600052602260045260246000fd5b50919050565b634e487b7160e01b600052604160045260246000fd5b6001600160a01b03811681146115ed57600080fd5b5056fea26469706673582212200f81243d7067e0de982980831bc86798679e55eb4b7ccdab8a258943cf24760964736f6c63430008060033a2646970667358221220b3f2b095231b130ba3d3754e3bef188f97685f30d09bbe679e22049099e8f06864736f6c63430008060033",
  "devdoc": {
    "kind": "dev",
    "methods": {},
    "version": 1
  },
  "userdoc": {
    "kind": "user",
    "methods": {},
    "version": 1
  },
  "storageLayout": {
    "storage": [
      {
        "astId": 554,
        "contract": "contracts/MarginAccountManager.sol:MarginAccountManager",
        "label": "adminToken",
        "offset": 0,
        "slot": "0",
        "type": "t_contract(IAdminToken)662"
      },
      {
        "astId": 557,
        "contract": "contracts/MarginAccountManager.sol:MarginAccountManager",
        "label": "tradeToken",
        "offset": 0,
        "slot": "1",
        "type": "t_contract(ITradeToken)827"
      },
      {
        "astId": 560,
        "contract": "contracts/MarginAccountManager.sol:MarginAccountManager",
        "label": "roleManager",
        "offset": 0,
        "slot": "2",
        "type": "t_contract(IRoleManager)817"
      },
      {
        "astId": 563,
        "contract": "contracts/MarginAccountManager.sol:MarginAccountManager",
        "label": "contractsStorage",
        "offset": 0,
        "slot": "3",
        "type": "t_contract(IContractsStorage)738"
      },
      {
        "astId": 566,
        "contract": "contracts/MarginAccountManager.sol:MarginAccountManager",
        "label": "tokenID",
        "offset": 0,
        "slot": "4",
        "type": "t_uint256"
      }
    ],
    "types": {
      "t_contract(IAdminToken)662": {
        "encoding": "inplace",
        "label": "contract IAdminToken",
        "numberOfBytes": "20"
      },
      "t_contract(IContractsStorage)738": {
        "encoding": "inplace",
        "label": "contract IContractsStorage",
        "numberOfBytes": "20"
      },
      "t_contract(IRoleManager)817": {
        "encoding": "inplace",
        "label": "contract IRoleManager",
        "numberOfBytes": "20"
      },
      "t_contract(ITradeToken)827": {
        "encoding": "inplace",
        "label": "contract ITradeToken",
        "numberOfBytes": "20"
      },
      "t_uint256": {
        "encoding": "inplace",
        "label": "uint256",
        "numberOfBytes": "32"
      }
    }
  }
}