{
  "address": "0x83A402e9cAA84c2600a1593AaA32E7D069dD1a9f",
  "abi": [
    {
      "inputs": [
        {
          "internalType": "contract IRoleManager",
          "name": "_roleManager",
          "type": "address"
        },
        {
          "internalType": "contract IERC20",
          "name": "_token",
          "type": "address"
        },
        {
          "internalType": "uint256",
          "name": "_baseBorrowRate",
          "type": "uint256"
        },
        {
          "internalType": "uint256",
          "name": "_rateSlope1",
          "type": "uint256"
        },
        {
          "internalType": "uint256",
          "name": "_rateSlope2",
          "type": "uint256"
        }
      ],
      "stateMutability": "nonpayable",
      "type": "constructor"
    },
    {
      "anonymous": false,
      "inputs": [
        {
          "indexed": true,
          "internalType": "address",
          "name": "owner",
          "type": "address"
        },
        {
          "indexed": true,
          "internalType": "address",
          "name": "spender",
          "type": "address"
        },
        {
          "indexed": false,
          "internalType": "uint256",
          "name": "value",
          "type": "uint256"
        }
      ],
      "name": "Approval",
      "type": "event"
    },
    {
      "anonymous": false,
      "inputs": [
        {
          "indexed": true,
          "internalType": "address",
          "name": "previousOwner",
          "type": "address"
        },
        {
          "indexed": true,
          "internalType": "address",
          "name": "newOwner",
          "type": "address"
        }
      ],
      "name": "OwnershipTransferred",
      "type": "event"
    },
    {
      "anonymous": false,
      "inputs": [
        {
          "indexed": true,
          "internalType": "address",
          "name": "user",
          "type": "address"
        },
        {
          "indexed": false,
          "internalType": "uint256",
          "name": "amount",
          "type": "uint256"
        }
      ],
      "name": "Provide",
      "type": "event"
    },
    {
      "anonymous": false,
      "inputs": [
        {
          "indexed": true,
          "internalType": "address",
          "name": "from",
          "type": "address"
        },
        {
          "indexed": true,
          "internalType": "address",
          "name": "to",
          "type": "address"
        },
        {
          "indexed": false,
          "internalType": "uint256",
          "name": "value",
          "type": "uint256"
        }
      ],
      "name": "Transfer",
      "type": "event"
    },
    {
      "anonymous": false,
      "inputs": [
        {
          "indexed": true,
          "internalType": "address",
          "name": "user",
          "type": "address"
        },
        {
          "indexed": false,
          "internalType": "uint256",
          "name": "amount",
          "type": "uint256"
        }
      ],
      "name": "Withdraw",
      "type": "event"
    },
    {
      "inputs": [],
      "name": "INITIAL_RATE",
      "outputs": [
        {
          "internalType": "uint256",
          "name": "",
          "type": "uint256"
        }
      ],
      "stateMutability": "view",
      "type": "function"
    },
    {
      "inputs": [],
      "name": "MAX_DEPOSIT_AMOUNT",
      "outputs": [
        {
          "internalType": "uint256",
          "name": "",
          "type": "uint256"
        }
      ],
      "stateMutability": "view",
      "type": "function"
    },
    {
      "inputs": [
        {
          "internalType": "uint256",
          "name": "value",
          "type": "uint256"
        }
      ],
      "name": "addTotalActivelyUsed",
      "outputs": [],
      "stateMutability": "nonpayable",
      "type": "function"
    },
    {
      "inputs": [
        {
          "internalType": "uint256",
          "name": "value",
          "type": "uint256"
        }
      ],
      "name": "addTotalLocked",
      "outputs": [],
      "stateMutability": "nonpayable",
      "type": "function"
    },
    {
      "inputs": [
        {
          "internalType": "address",
          "name": "owner",
          "type": "address"
        },
        {
          "internalType": "address",
          "name": "spender",
          "type": "address"
        }
      ],
      "name": "allowance",
      "outputs": [
        {
          "internalType": "uint256",
          "name": "",
          "type": "uint256"
        }
      ],
      "stateMutability": "view",
      "type": "function"
    },
    {
      "inputs": [
        {
          "internalType": "address",
          "name": "spender",
          "type": "address"
        },
        {
          "internalType": "uint256",
          "name": "amount",
          "type": "uint256"
        }
      ],
      "name": "approve",
      "outputs": [
        {
          "internalType": "bool",
          "name": "",
          "type": "bool"
        }
      ],
      "stateMutability": "nonpayable",
      "type": "function"
    },
    {
      "inputs": [
        {
          "internalType": "address",
          "name": "account",
          "type": "address"
        }
      ],
      "name": "balanceOf",
      "outputs": [
        {
          "internalType": "uint256",
          "name": "",
          "type": "uint256"
        }
      ],
      "stateMutability": "view",
      "type": "function"
    },
    {
      "inputs": [],
      "name": "baseBorrowRate",
      "outputs": [
        {
          "internalType": "uint256",
          "name": "",
          "type": "uint256"
        }
      ],
      "stateMutability": "view",
      "type": "function"
    },
    {
      "inputs": [],
      "name": "calculateInterestRate",
      "outputs": [
        {
          "internalType": "uint256",
          "name": "currentBorrowRate",
          "type": "uint256"
        }
      ],
      "stateMutability": "view",
      "type": "function"
    },
    {
      "inputs": [
        {
          "internalType": "bool",
          "name": "value",
          "type": "bool"
        }
      ],
      "name": "changeOpenDeDeLend",
      "outputs": [],
      "stateMutability": "nonpayable",
      "type": "function"
    },
    {
      "inputs": [],
      "name": "decimals",
      "outputs": [
        {
          "internalType": "uint8",
          "name": "",
          "type": "uint8"
        }
      ],
      "stateMutability": "view",
      "type": "function"
    },
    {
      "inputs": [
        {
          "internalType": "address",
          "name": "spender",
          "type": "address"
        },
        {
          "internalType": "uint256",
          "name": "subtractedValue",
          "type": "uint256"
        }
      ],
      "name": "decreaseAllowance",
      "outputs": [
        {
          "internalType": "bool",
          "name": "",
          "type": "bool"
        }
      ],
      "stateMutability": "nonpayable",
      "type": "function"
    },
    {
      "inputs": [],
      "name": "excessUtilizationRate",
      "outputs": [
        {
          "internalType": "uint256",
          "name": "",
          "type": "uint256"
        }
      ],
      "stateMutability": "view",
      "type": "function"
    },
    {
      "inputs": [],
      "name": "getTotalBalance",
      "outputs": [
        {
          "internalType": "uint256",
          "name": "balance",
          "type": "uint256"
        }
      ],
      "stateMutability": "view",
      "type": "function"
    },
    {
      "inputs": [
        {
          "internalType": "address",
          "name": "account",
          "type": "address"
        }
      ],
      "name": "getUserBalance",
      "outputs": [
        {
          "internalType": "uint256",
          "name": "share",
          "type": "uint256"
        }
      ],
      "stateMutability": "view",
      "type": "function"
    },
    {
      "inputs": [
        {
          "internalType": "address",
          "name": "spender",
          "type": "address"
        },
        {
          "internalType": "uint256",
          "name": "addedValue",
          "type": "uint256"
        }
      ],
      "name": "increaseAllowance",
      "outputs": [
        {
          "internalType": "bool",
          "name": "",
          "type": "bool"
        }
      ],
      "stateMutability": "nonpayable",
      "type": "function"
    },
    {
      "inputs": [],
      "name": "isItPossibleToMakeAChange",
      "outputs": [
        {
          "internalType": "bool",
          "name": "",
          "type": "bool"
        }
      ],
      "stateMutability": "view",
      "type": "function"
    },
    {
      "inputs": [],
      "name": "lendAndBorrowManager",
      "outputs": [
        {
          "internalType": "address",
          "name": "",
          "type": "address"
        }
      ],
      "stateMutability": "view",
      "type": "function"
    },
    {
      "inputs": [],
      "name": "name",
      "outputs": [
        {
          "internalType": "string",
          "name": "",
          "type": "string"
        }
      ],
      "stateMutability": "view",
      "type": "function"
    },
    {
      "inputs": [],
      "name": "openDeDeLend",
      "outputs": [
        {
          "internalType": "bool",
          "name": "",
          "type": "bool"
        }
      ],
      "stateMutability": "view",
      "type": "function"
    },
    {
      "inputs": [],
      "name": "optimalUtilizationRate",
      "outputs": [
        {
          "internalType": "uint256",
          "name": "",
          "type": "uint256"
        }
      ],
      "stateMutability": "view",
      "type": "function"
    },
    {
      "inputs": [],
      "name": "owner",
      "outputs": [
        {
          "internalType": "address",
          "name": "",
          "type": "address"
        }
      ],
      "stateMutability": "view",
      "type": "function"
    },
    {
      "inputs": [
        {
          "internalType": "uint256",
          "name": "amount",
          "type": "uint256"
        },
        {
          "internalType": "uint256",
          "name": "minShare",
          "type": "uint256"
        }
      ],
      "name": "provide",
      "outputs": [
        {
          "internalType": "uint256",
          "name": "share",
          "type": "uint256"
        }
      ],
      "stateMutability": "nonpayable",
      "type": "function"
    },
    {
      "inputs": [],
      "name": "rateSlope1",
      "outputs": [
        {
          "internalType": "uint256",
          "name": "",
          "type": "uint256"
        }
      ],
      "stateMutability": "view",
      "type": "function"
    },
    {
      "inputs": [],
      "name": "rateSlope2",
      "outputs": [
        {
          "internalType": "uint256",
          "name": "",
          "type": "uint256"
        }
      ],
      "stateMutability": "view",
      "type": "function"
    },
    {
      "inputs": [],
      "name": "renounceOwnership",
      "outputs": [],
      "stateMutability": "nonpayable",
      "type": "function"
    },
    {
      "inputs": [],
      "name": "roleManager",
      "outputs": [
        {
          "internalType": "contract IRoleManager",
          "name": "",
          "type": "address"
        }
      ],
      "stateMutability": "view",
      "type": "function"
    },
    {
      "inputs": [
        {
          "internalType": "address",
          "name": "to",
          "type": "address"
        },
        {
          "internalType": "uint256",
          "name": "amount",
          "type": "uint256"
        }
      ],
      "name": "send",
      "outputs": [],
      "stateMutability": "nonpayable",
      "type": "function"
    },
    {
      "inputs": [
        {
          "internalType": "uint256",
          "name": "value",
          "type": "uint256"
        }
      ],
      "name": "setBaseBorrowRate",
      "outputs": [],
      "stateMutability": "nonpayable",
      "type": "function"
    },
    {
      "inputs": [
        {
          "internalType": "uint256",
          "name": "value",
          "type": "uint256"
        }
      ],
      "name": "setExcessUtilizationRate",
      "outputs": [],
      "stateMutability": "nonpayable",
      "type": "function"
    },
    {
      "inputs": [
        {
          "internalType": "address",
          "name": "value",
          "type": "address"
        }
      ],
      "name": "setLendAndBorrowManager",
      "outputs": [],
      "stateMutability": "nonpayable",
      "type": "function"
    },
    {
      "inputs": [
        {
          "internalType": "uint256",
          "name": "value",
          "type": "uint256"
        }
      ],
      "name": "setOptimalUtilizationRate",
      "outputs": [],
      "stateMutability": "nonpayable",
      "type": "function"
    },
    {
      "inputs": [
        {
          "internalType": "uint256",
          "name": "value",
          "type": "uint256"
        }
      ],
      "name": "setRateSlope1",
      "outputs": [],
      "stateMutability": "nonpayable",
      "type": "function"
    },
    {
      "inputs": [
        {
          "internalType": "uint256",
          "name": "value",
          "type": "uint256"
        }
      ],
      "name": "setRateSlope2",
      "outputs": [],
      "stateMutability": "nonpayable",
      "type": "function"
    },
    {
      "inputs": [
        {
          "internalType": "uint256",
          "name": "value",
          "type": "uint256"
        }
      ],
      "name": "subTotalActivelyUsed",
      "outputs": [],
      "stateMutability": "nonpayable",
      "type": "function"
    },
    {
      "inputs": [
        {
          "internalType": "uint256",
          "name": "value",
          "type": "uint256"
        }
      ],
      "name": "subTotalLocked",
      "outputs": [],
      "stateMutability": "nonpayable",
      "type": "function"
    },
    {
      "inputs": [],
      "name": "symbol",
      "outputs": [
        {
          "internalType": "string",
          "name": "",
          "type": "string"
        }
      ],
      "stateMutability": "view",
      "type": "function"
    },
    {
      "inputs": [],
      "name": "token",
      "outputs": [
        {
          "internalType": "contract IERC20",
          "name": "",
          "type": "address"
        }
      ],
      "stateMutability": "view",
      "type": "function"
    },
    {
      "inputs": [],
      "name": "totalActivelyUsed",
      "outputs": [
        {
          "internalType": "uint256",
          "name": "",
          "type": "uint256"
        }
      ],
      "stateMutability": "view",
      "type": "function"
    },
    {
      "inputs": [],
      "name": "totalLocked",
      "outputs": [
        {
          "internalType": "uint256",
          "name": "",
          "type": "uint256"
        }
      ],
      "stateMutability": "view",
      "type": "function"
    },
    {
      "inputs": [],
      "name": "totalSupply",
      "outputs": [
        {
          "internalType": "uint256",
          "name": "",
          "type": "uint256"
        }
      ],
      "stateMutability": "view",
      "type": "function"
    },
    {
      "inputs": [
        {
          "internalType": "address",
          "name": "to",
          "type": "address"
        },
        {
          "internalType": "uint256",
          "name": "amount",
          "type": "uint256"
        }
      ],
      "name": "transfer",
      "outputs": [
        {
          "internalType": "bool",
          "name": "",
          "type": "bool"
        }
      ],
      "stateMutability": "nonpayable",
      "type": "function"
    },
    {
      "inputs": [
        {
          "internalType": "address",
          "name": "from",
          "type": "address"
        },
        {
          "internalType": "address",
          "name": "to",
          "type": "address"
        },
        {
          "internalType": "uint256",
          "name": "amount",
          "type": "uint256"
        }
      ],
      "name": "transferFrom",
      "outputs": [
        {
          "internalType": "bool",
          "name": "",
          "type": "bool"
        }
      ],
      "stateMutability": "nonpayable",
      "type": "function"
    },
    {
      "inputs": [
        {
          "internalType": "address",
          "name": "newOwner",
          "type": "address"
        }
      ],
      "name": "transferOwnership",
      "outputs": [],
      "stateMutability": "nonpayable",
      "type": "function"
    },
    {
      "inputs": [
        {
          "internalType": "uint256",
          "name": "amount",
          "type": "uint256"
        }
      ],
      "name": "withdraw",
      "outputs": [],
      "stateMutability": "nonpayable",
      "type": "function"
    }
  ],
  "transactionHash": "0x0264b8dae3987b1896d691e0efeb76748b3ff0f7b7a491f7ae2a967d830e0cfe",
  "args": [
    "0xe6905c9AD6031d89382198f94Fcd49928d6b6CA3",
    "0xFF970A61A04b1cA14834A43f5dE4533eBDDB5CC8",
    "5000000000000000000000000000",
    "1200000000000000000000000000",
    "5000000000000000000000000000"
  ],
  "numDeployments": 1,
  "solcInputHash": "6b78f71f2be68df8039a1a79e57b185d",
  "bytecode": "0x60806040526aa56fa5b99019a5c80000006006556b0295be96e640669720000000600755600b805460ff19166001179055600f805460ff60a01b1916600160a01b1790553480156200005057600080fd5b5060405162001d3238038062001d3283398101604081905262000073916200023c565b6040518060400160405280600681526020016513140811111360d21b8152506040518060400160405280600381526020016211111360ea1b815250620000c8620000c26200014260201b60201c565b62000146565b8151620000dd90600490602085019062000196565b508051620000f390600590602084019062000196565b5050600e80546001600160a01b0319166001600160a01b0397881617905550600b8054610100600160a81b031916610100959096169490940294909417909255600855600955600a55620002ea565b3390565b600080546001600160a01b038381166001600160a01b0319831681178455604051919092169283917f8be0079c531659141344cd1fd0a4f28419497f9722a3daafe3b4186f6b6457e09190a35050565b828054620001a49062000294565b90600052602060002090601f016020900481019282620001c8576000855562000213565b82601f10620001e357805160ff191683800117855562000213565b8280016001018555821562000213579182015b8281111562000213578251825591602001919060010190620001f6565b506200022192915062000225565b5090565b5b8082111562000221576000815560010162000226565b600080600080600060a086880312156200025557600080fd5b85516200026281620002d1565b60208701519095506200027581620002d1565b6040870151606088015160809098015196999198509695945092505050565b600181811c90821680620002a957607f821691505b60208210811415620002cb57634e487b7160e01b600052602260045260246000fd5b50919050565b6001600160a01b0381168114620002e757600080fd5b50565b611a3880620002fa6000396000f3fe608060405234801561001057600080fd5b506004361061027e5760003560e01c80635454a4b61161015c578063ae3050e1116100ce578063dffd2b3811610087578063dffd2b381461053b578063e21f792314610544578063e3b86a5e1461054d578063e8c3c54f14610560578063f2fde38b14610573578063fc0c546a1461058657600080fd5b8063ae3050e1146104d9578063bc53ded1146104e6578063bf386682146104f9578063d0679d3414610502578063dca6271314610515578063dd62ed3e1461052857600080fd5b8063715018a611610120578063715018a61461047e5780638da5cb5b1461048657806395d89b41146104975780639680d1a11461049f578063a457c2d7146104b3578063a9059cbb146104c657600080fd5b80635454a4b6146104275780635689141214610430578063698464ed1461043957806369e2f4751461044c57806370a082311461045557600080fd5b80632bc355ca116101f55780633a082d8e116101b95780633a082d8e146103ce57806347734892146103d657806349235990146103e95780634c34a982146103fc5780634dbac73314610405578063500c35be1461041457600080fd5b80632bc355ca146103735780632e1a7d4d14610386578063313ce5671461039957806332725219146103a857806339509351146103bb57600080fd5b806312b583491161024757806312b583491461031357806318160ddd146103295780631b45a68d146103315780631eedf5c71461034457806323b872dd1461034d578063274cc0a41461036057600080fd5b8062435da51461028357806306fdde03146102b3578063095ea7b3146102c85780630c9c81a1146102eb5780630f5230ef14610300575b600080fd5b600e54610296906001600160a01b031681565b6040516001600160a01b0390911681526020015b60405180910390f35b6102bb61059e565b6040516102aa91906118b7565b6102db6102d63660046117ff565b610630565b60405190151581526020016102aa565b6102fe6102f9366004611863565b610648565b005b6102fe61030e366004611863565b610655565b61031b610662565b6040519081526020016102aa565b60035461031b565b6102fe61033f366004611863565b6106e8565b61031b600a5481565b6102db61035b3660046117c3565b610735565b6102fe61036e366004611863565b610759565b6102fe610381366004611863565b610766565b6102fe610394366004611863565b6107a2565b604051601281526020016102aa565b6102fe6103b6366004611863565b61095a565b6102db6103c93660046117ff565b610967565b61031b610989565b61031b6103e4366004611775565b610a8d565b6102fe6103f7366004611775565b610ae6565b61031b60001981565b61031b670de0b6b3a764000081565b6102fe610422366004611863565b610b7a565b61031b60095481565b61031b600c5481565b6102fe610447366004611863565b610bb6565b61031b600d5481565b61031b610463366004611775565b6001600160a01b031660009081526001602052604090205490565b6102fe610bc3565b6000546001600160a01b0316610296565b6102bb610bd7565b600f546102db90600160a01b900460ff1681565b6102db6104c13660046117ff565b610be6565b6102db6104d43660046117ff565b610c61565b600b546102db9060ff1681565b6102fe6104f4366004611863565b610c6f565b61031b60085481565b6102fe6105103660046117ff565b610cab565b600f54610296906001600160a01b031681565b61031b610536366004611790565b610d7a565b61031b60075481565b61031b60065481565b6102fe61055b366004611829565b610da5565b61031b61056e366004611895565b610dc0565b6102fe610581366004611775565b61106f565b600b546102969061010090046001600160a01b031681565b6060600480546105ad906119a3565b80601f01602080910402602001604051908101604052809291908181526020018280546105d9906119a3565b80156106265780601f106105fb57610100808354040283529160200191610626565b820191906000526020600020905b81548152906001019060200180831161060957829003601f168201915b5050505050905090565b60003361063e8185856110e8565b5060019392505050565b61065061120c565b600855565b61065d61120c565b600955565b600b546040516370a0823160e01b815230600482015260009161010090046001600160a01b0316906370a082319060240160206040518083038186803b1580156106ab57600080fd5b505afa1580156106bf573d6000803e3d6000fd5b505050506040513d601f19601f820116820180604052508101906106e3919061187c565b905090565b600f546001600160a01b0316331461071b5760405162461bcd60e51b81526004016107129061190c565b60405180910390fd5b80600c600082825461072d919061198c565b909155505050565b600033610743858285611266565b61074e8585856112e0565b506001949350505050565b61076161120c565b600655565b600f546001600160a01b031633146107905760405162461bcd60e51b81526004016107129061190c565b80600c600082825461072d9190611933565b600c546107ad610662565b6107b7919061198c565b8111156107fc5760405162461bcd60e51b8152602060048201526013602482015272416d6f756e7420697320746f6f206c6172676560681b6044820152606401610712565b6000600c54610809610662565b610813919061198c565b905060008161082160035490565b61082b908561196d565b610835919061194b565b3360009081526001602052604090205490915081111561088d5760405162461bcd60e51b8152602060048201526013602482015272416d6f756e7420697320746f6f206c6172676560681b6044820152606401610712565b610897338261148b565b600b5460405163a9059cbb60e01b8152336004820152602481018590526101009091046001600160a01b03169063a9059cbb90604401602060405180830381600087803b1580156108e757600080fd5b505af11580156108fb573d6000803e3d6000fd5b505050506040513d601f19601f8201168201806040525081019061091f9190611846565b5060405183815233907f884edad9ce6fa2440d8a54cc123490eb96d2768479d49ff9c7366125a94243649060200160405180910390a2505050565b61096261120c565b600755565b60003361063e81858561097a8383610d7a565b6109849190611933565b6110e8565b600080600c54610997610662565b6109a1919061198c565b90506000600c5460001480156109b5575081155b6109f2576109ed600d54600c54846109cd9190611933565b6109d79190611933565b600d54600c546109e79190611933565b906115bf565b6109f5565b60005b9050600754811115610a49576000610a17600654600754846109e7919061198c565b600a54909150610a279082611602565b600954600854610a379190611933565b610a419190611933565b935050505090565b80610a58576008549250505090565b610a79600954610a73600754846115bf90919063ffffffff16565b90611602565b600854610a869190611933565b9250505090565b600080610a9960035490565b1115610add576003546001600160a01b038316600090815260016020526040902054610ac3610662565b610acd919061196d565b610ad7919061194b565b92915050565b5060005b919050565b600f54600160a01b900460ff16610afc57600080fd5b600e54604051633d89cfc560e21b81523360048201526001600160a01b039091169063f6273f149060240160006040518083038186803b158015610b3f57600080fd5b505afa158015610b53573d6000803e3d6000fd5b5050600f80546001600160a01b0319166001600160a01b0394909416939093179092555050565b600f546001600160a01b03163314610ba45760405162461bcd60e51b81526004016107129061190c565b80600d600082825461072d919061198c565b610bbe61120c565b600a55565b610bcb61120c565b610bd5600061164d565b565b6060600580546105ad906119a3565b60003381610bf48286610d7a565b905083811015610c545760405162461bcd60e51b815260206004820152602560248201527f45524332303a2064656372656173656420616c6c6f77616e63652062656c6f77604482015264207a65726f60d81b6064820152608401610712565b61074e82868684036110e8565b60003361063e8185856112e0565b600f546001600160a01b03163314610c995760405162461bcd60e51b81526004016107129061190c565b80600d600082825461072d9190611933565b600f546001600160a01b03163314610cd55760405162461bcd60e51b81526004016107129061190c565b610cdd610662565b811115610ce957600080fd5b600b5460405163a9059cbb60e01b81526001600160a01b038481166004830152602482018490526101009092049091169063a9059cbb90604401602060405180830381600087803b158015610d3d57600080fd5b505af1158015610d51573d6000803e3d6000fd5b505050506040513d601f19601f82011682018060405250810190610d759190611846565b505050565b6001600160a01b03918216600090815260026020908152604080832093909416825291909152205490565b610dad61120c565b600b805460ff1916911515919091179055565b600b5460009060ff16610e055760405162461bcd60e51b815260206004820152600d60248201526c1c185d5cd95119511953195b99609a1b6044820152606401610712565b6000600c54610e12610662565b610e1c9190611933565b90506000610e2960035490565b118015610e365750600081115b610e5157610e4c670de0b6b3a76400008561196d565b610e6f565b80610e5b60035490565b610e65908661196d565b610e6f919061194b565b91506000610e7f8260001961198c565b905083831015610ee15760405162461bcd60e51b815260206004820152602760248201527f506f6f6c204572726f723a20546865206d696e74206c696d697420697320746f6044820152666f206c6172676560c81b6064820152608401610712565b60008311610f3d5760405162461bcd60e51b815260206004820152602360248201527f506f6f6c204572726f723a2054686520616d6f756e7420697320746f6f20736d604482015262185b1b60ea1b6064820152608401610712565b80851115610f995760405162461bcd60e51b8152602060048201526024808201527f506f6f6c204572726f723a2070726f766964696e6720555344432069732070616044820152631d5cd95960e21b6064820152608401610712565b600b546040516323b872dd60e01b8152336004820152306024820152604481018790526101009091046001600160a01b0316906323b872dd90606401602060405180830381600087803b158015610fef57600080fd5b505af1158015611003573d6000803e3d6000fd5b505050506040513d601f19601f820116820180604052508101906110279190611846565b50611032338461169d565b60405185815233907fa63d9d1536f0a17779061a910d29ff26af4aa035bbd6c128b55bfde21d6a2b409060200160405180910390a2505092915050565b61107761120c565b6001600160a01b0381166110dc5760405162461bcd60e51b815260206004820152602660248201527f4f776e61626c653a206e6577206f776e657220697320746865207a65726f206160448201526564647265737360d01b6064820152608401610712565b6110e58161164d565b50565b6001600160a01b03831661114a5760405162461bcd60e51b8152602060048201526024808201527f45524332303a20617070726f76652066726f6d20746865207a65726f206164646044820152637265737360e01b6064820152608401610712565b6001600160a01b0382166111ab5760405162461bcd60e51b815260206004820152602260248201527f45524332303a20617070726f766520746f20746865207a65726f206164647265604482015261737360f01b6064820152608401610712565b6001600160a01b0383811660008181526002602090815260408083209487168084529482529182902085905590518481527f8c5be1e5ebec7d5bd14f71427d1e84f3dd0314c0f7b2291e5b200ac8c7c3b925910160405180910390a3505050565b6000546001600160a01b03163314610bd55760405162461bcd60e51b815260206004820181905260248201527f4f776e61626c653a2063616c6c6572206973206e6f7420746865206f776e65726044820152606401610712565b60006112728484610d7a565b905060001981146112da57818110156112cd5760405162461bcd60e51b815260206004820152601d60248201527f45524332303a20696e73756666696369656e7420616c6c6f77616e63650000006044820152606401610712565b6112da84848484036110e8565b50505050565b6001600160a01b0383166113445760405162461bcd60e51b815260206004820152602560248201527f45524332303a207472616e736665722066726f6d20746865207a65726f206164604482015264647265737360d81b6064820152608401610712565b6001600160a01b0382166113a65760405162461bcd60e51b815260206004820152602360248201527f45524332303a207472616e7366657220746f20746865207a65726f206164647260448201526265737360e81b6064820152608401610712565b6001600160a01b0383166000908152600160205260409020548181101561141e5760405162461bcd60e51b815260206004820152602660248201527f45524332303a207472616e7366657220616d6f756e7420657863656564732062604482015265616c616e636560d01b6064820152608401610712565b6001600160a01b0380851660008181526001602052604080822086860390559286168082529083902080548601905591517fddf252ad1be2c89b69c2b068fc378daa952ba7f163c4a11628f55a4df523b3ef9061147e9086815260200190565b60405180910390a36112da565b6001600160a01b0382166114eb5760405162461bcd60e51b815260206004820152602160248201527f45524332303a206275726e2066726f6d20746865207a65726f206164647265736044820152607360f81b6064820152608401610712565b6001600160a01b0382166000908152600160205260409020548181101561155f5760405162461bcd60e51b815260206004820152602260248201527f45524332303a206275726e20616d6f756e7420657863656564732062616c616e604482015261636560f01b6064820152608401610712565b6001600160a01b03831660008181526001602090815260408083208686039055600380548790039055518581529192917fddf252ad1be2c89b69c2b068fc378daa952ba7f163c4a11628f55a4df523b3ef910160405180910390a3505050565b6000806115cd60028461194b565b9050826115e66b033b2e3c9fd0803ce80000008661196d565b6115f09083611933565b6115fa919061194b565b949350505050565b60006b033b2e3c9fd0803ce800000061161b838561196d565b61163260026b033b2e3c9fd0803ce800000061194b565b61163c9190611933565b611646919061194b565b9392505050565b600080546001600160a01b038381166001600160a01b0319831681178455604051919092169283917f8be0079c531659141344cd1fd0a4f28419497f9722a3daafe3b4186f6b6457e09190a35050565b6001600160a01b0382166116f35760405162461bcd60e51b815260206004820152601f60248201527f45524332303a206d696e7420746f20746865207a65726f2061646472657373006044820152606401610712565b80600360008282546117059190611933565b90915550506001600160a01b0382166000818152600160209081526040808320805486019055518481527fddf252ad1be2c89b69c2b068fc378daa952ba7f163c4a11628f55a4df523b3ef910160405180910390a35050565b80356001600160a01b0381168114610ae157600080fd5b60006020828403121561178757600080fd5b6116468261175e565b600080604083850312156117a357600080fd5b6117ac8361175e565b91506117ba6020840161175e565b90509250929050565b6000806000606084860312156117d857600080fd5b6117e18461175e565b92506117ef6020850161175e565b9150604084013590509250925092565b6000806040838503121561181257600080fd5b61181b8361175e565b946020939093013593505050565b60006020828403121561183b57600080fd5b8135611646816119f4565b60006020828403121561185857600080fd5b8151611646816119f4565b60006020828403121561187557600080fd5b5035919050565b60006020828403121561188e57600080fd5b5051919050565b600080604083850312156118a857600080fd5b50508035926020909101359150565b600060208083528351808285015260005b818110156118e4578581018301518582016040015282016118c8565b818111156118f6576000604083870101525b50601f01601f1916929092016040019392505050565b6020808252600d908201526c1058d8d95cdcc819195b9a5959609a1b604082015260600190565b60008219821115611946576119466119de565b500190565b60008261196857634e487b7160e01b600052601260045260246000fd5b500490565b6000816000190483118215151615611987576119876119de565b500290565b60008282101561199e5761199e6119de565b500390565b600181811c908216806119b757607f821691505b602082108114156119d857634e487b7160e01b600052602260045260246000fd5b50919050565b634e487b7160e01b600052601160045260246000fd5b80151581146110e557600080fdfea2646970667358221220cae4bd69d00576c99e7e311f1a3c940e2b28cf8617808d0c472b41de3eed00ad64736f6c63430008060033",
  "devdoc": {
    "kind": "dev",
    "methods": {
      "allowance(address,address)": {
        "details": "See {IERC20-allowance}."
      },
      "approve(address,uint256)": {
        "details": "See {IERC20-approve}. NOTE: If `amount` is the maximum `uint256`, the allowance is not updated on `transferFrom`. This is semantically equivalent to an infinite approval. Requirements: - `spender` cannot be the zero address."
      },
      "balanceOf(address)": {
        "details": "See {IERC20-balanceOf}."
      },
      "decimals()": {
        "details": "Returns the number of decimals used to get its user representation. For example, if `decimals` equals `2`, a balance of `505` tokens should be displayed to a user as `5.05` (`505 / 10 ** 2`). Tokens usually opt for a value of 18, imitating the relationship between Ether and Wei. This is the value {ERC20} uses, unless this function is overridden; NOTE: This information is only used for _display_ purposes: it in no way affects any of the arithmetic of the contract, including {IERC20-balanceOf} and {IERC20-transfer}."
      },
      "decreaseAllowance(address,uint256)": {
        "details": "Atomically decreases the allowance granted to `spender` by the caller. This is an alternative to {approve} that can be used as a mitigation for problems described in {IERC20-approve}. Emits an {Approval} event indicating the updated allowance. Requirements: - `spender` cannot be the zero address. - `spender` must have allowance for the caller of at least `subtractedValue`."
      },
      "increaseAllowance(address,uint256)": {
        "details": "Atomically increases the allowance granted to `spender` by the caller. This is an alternative to {approve} that can be used as a mitigation for problems described in {IERC20-approve}. Emits an {Approval} event indicating the updated allowance. Requirements: - `spender` cannot be the zero address."
      },
      "name()": {
        "details": "Returns the name of the token."
      },
      "owner()": {
        "details": "Returns the address of the current owner."
      },
      "renounceOwnership()": {
        "details": "Leaves the contract without owner. It will not be possible to call `onlyOwner` functions anymore. Can only be called by the current owner. NOTE: Renouncing ownership will leave the contract without an owner, thereby removing any functionality that is only available to the owner."
      },
      "symbol()": {
        "details": "Returns the symbol of the token, usually a shorter version of the name."
      },
      "totalSupply()": {
        "details": "See {IERC20-totalSupply}."
      },
      "transfer(address,uint256)": {
        "details": "See {IERC20-transfer}. Requirements: - `to` cannot be the zero address. - the caller must have a balance of at least `amount`."
      },
      "transferFrom(address,address,uint256)": {
        "details": "See {IERC20-transferFrom}. Emits an {Approval} event indicating the updated allowance. This is not required by the EIP. See the note at the beginning of {ERC20}. NOTE: Does not update the allowance if the current allowance is the maximum `uint256`. Requirements: - `from` and `to` cannot be the zero address. - `from` must have a balance of at least `amount`. - the caller must have allowance for ``from``'s tokens of at least `amount`."
      },
      "transferOwnership(address)": {
        "details": "Transfers ownership of the contract to a new account (`newOwner`). Can only be called by the current owner."
      }
    },
    "version": 1
  },
  "userdoc": {
    "kind": "user",
    "methods": {},
    "version": 1
  },
  "storageLayout": {
    "storage": [
      {
        "astId": 7,
        "contract": "contracts/Pool.sol:Pool",
        "label": "_owner",
        "offset": 0,
        "slot": "0",
        "type": "t_address"
      },
      {
        "astId": 128,
        "contract": "contracts/Pool.sol:Pool",
        "label": "_balances",
        "offset": 0,
        "slot": "1",
        "type": "t_mapping(t_address,t_uint256)"
      },
      {
        "astId": 134,
        "contract": "contracts/Pool.sol:Pool",
        "label": "_allowances",
        "offset": 0,
        "slot": "2",
        "type": "t_mapping(t_address,t_mapping(t_address,t_uint256))"
      },
      {
        "astId": 136,
        "contract": "contracts/Pool.sol:Pool",
        "label": "_totalSupply",
        "offset": 0,
        "slot": "3",
        "type": "t_uint256"
      },
      {
        "astId": 138,
        "contract": "contracts/Pool.sol:Pool",
        "label": "_name",
        "offset": 0,
        "slot": "4",
        "type": "t_string_storage"
      },
      {
        "astId": 140,
        "contract": "contracts/Pool.sol:Pool",
        "label": "_symbol",
        "offset": 0,
        "slot": "5",
        "type": "t_string_storage"
      },
      {
        "astId": 855,
        "contract": "contracts/Pool.sol:Pool",
        "label": "excessUtilizationRate",
        "offset": 0,
        "slot": "6",
        "type": "t_uint256"
      },
      {
        "astId": 860,
        "contract": "contracts/Pool.sol:Pool",
        "label": "optimalUtilizationRate",
        "offset": 0,
        "slot": "7",
        "type": "t_uint256"
      },
      {
        "astId": 862,
        "contract": "contracts/Pool.sol:Pool",
        "label": "baseBorrowRate",
        "offset": 0,
        "slot": "8",
        "type": "t_uint256"
      },
      {
        "astId": 864,
        "contract": "contracts/Pool.sol:Pool",
        "label": "rateSlope1",
        "offset": 0,
        "slot": "9",
        "type": "t_uint256"
      },
      {
        "astId": 866,
        "contract": "contracts/Pool.sol:Pool",
        "label": "rateSlope2",
        "offset": 0,
        "slot": "10",
        "type": "t_uint256"
      },
      {
        "astId": 869,
        "contract": "contracts/Pool.sol:Pool",
        "label": "openDeDeLend",
        "offset": 0,
        "slot": "11",
        "type": "t_bool"
      },
      {
        "astId": 872,
        "contract": "contracts/Pool.sol:Pool",
        "label": "token",
        "offset": 1,
        "slot": "11",
        "type": "t_contract(IERC20)777"
      },
      {
        "astId": 874,
        "contract": "contracts/Pool.sol:Pool",
        "label": "totalLocked",
        "offset": 0,
        "slot": "12",
        "type": "t_uint256"
      },
      {
        "astId": 876,
        "contract": "contracts/Pool.sol:Pool",
        "label": "totalActivelyUsed",
        "offset": 0,
        "slot": "13",
        "type": "t_uint256"
      },
      {
        "astId": 879,
        "contract": "contracts/Pool.sol:Pool",
        "label": "roleManager",
        "offset": 0,
        "slot": "14",
        "type": "t_contract(IRoleManager)1439"
      },
      {
        "astId": 881,
        "contract": "contracts/Pool.sol:Pool",
        "label": "lendAndBorrowManager",
        "offset": 0,
        "slot": "15",
        "type": "t_address"
      },
      {
        "astId": 884,
        "contract": "contracts/Pool.sol:Pool",
        "label": "isItPossibleToMakeAChange",
        "offset": 20,
        "slot": "15",
        "type": "t_bool"
      }
    ],
    "types": {
      "t_address": {
        "encoding": "inplace",
        "label": "address",
        "numberOfBytes": "20"
      },
      "t_bool": {
        "encoding": "inplace",
        "label": "bool",
        "numberOfBytes": "1"
      },
      "t_contract(IERC20)777": {
        "encoding": "inplace",
        "label": "contract IERC20",
        "numberOfBytes": "20"
      },
      "t_contract(IRoleManager)1439": {
        "encoding": "inplace",
        "label": "contract IRoleManager",
        "numberOfBytes": "20"
      },
      "t_mapping(t_address,t_mapping(t_address,t_uint256))": {
        "encoding": "mapping",
        "key": "t_address",
        "label": "mapping(address => mapping(address => uint256))",
        "numberOfBytes": "32",
        "value": "t_mapping(t_address,t_uint256)"
      },
      "t_mapping(t_address,t_uint256)": {
        "encoding": "mapping",
        "key": "t_address",
        "label": "mapping(address => uint256)",
        "numberOfBytes": "32",
        "value": "t_uint256"
      },
      "t_string_storage": {
        "encoding": "bytes",
        "label": "string",
        "numberOfBytes": "32"
      },
      "t_uint256": {
        "encoding": "inplace",
        "label": "uint256",
        "numberOfBytes": "32"
      }
    }
  }
}