{
  "address": "0xE55B9B2123dEDf2e15d4b792CDf149d6ED714352",
  "abi": [
    {
      "inputs": [
        {
          "internalType": "contract IERC721",
          "name": "_adminToken",
          "type": "address"
        },
        {
          "internalType": "contract IERC721",
          "name": "_tradeToken",
          "type": "address"
        },
        {
          "internalType": "contract IContractsStorage",
          "name": "_contractsStorage",
          "type": "address"
        },
        {
          "internalType": "address",
          "name": "_lendAndBorrowManager",
          "type": "address"
        },
        {
          "internalType": "contract IERC20",
          "name": "_usdc",
          "type": "address"
        }
      ],
      "stateMutability": "nonpayable",
      "type": "constructor"
    },
    {
      "inputs": [],
      "name": "adminToken",
      "outputs": [
        {
          "internalType": "contract IERC721",
          "name": "",
          "type": "address"
        }
      ],
      "stateMutability": "view",
      "type": "function"
    },
    {
      "inputs": [],
      "name": "contractsStorage",
      "outputs": [
        {
          "internalType": "contract IContractsStorage",
          "name": "",
          "type": "address"
        }
      ],
      "stateMutability": "view",
      "type": "function"
    },
    {
      "inputs": [],
      "name": "lendAndBorrowManager",
      "outputs": [
        {
          "internalType": "address",
          "name": "",
          "type": "address"
        }
      ],
      "stateMutability": "view",
      "type": "function"
    },
    {
      "inputs": [
        {
          "internalType": "uint256",
          "name": "id",
          "type": "uint256"
        }
      ],
      "name": "liquidateAllBrokers",
      "outputs": [
        {
          "components": [
            {
              "internalType": "address",
              "name": "broker",
              "type": "address"
            },
            {
              "internalType": "bool",
              "name": "success",
              "type": "bool"
            }
          ],
          "internalType": "struct RiskManager.SuccessReport[]",
          "name": "",
          "type": "tuple[]"
        }
      ],
      "stateMutability": "payable",
      "type": "function"
    },
    {
      "inputs": [
        {
          "internalType": "address",
          "name": "broker",
          "type": "address"
        }
      ],
      "name": "liquidateBroker",
      "outputs": [],
      "stateMutability": "nonpayable",
      "type": "function"
    },
    {
      "inputs": [
        {
          "internalType": "uint256",
          "name": "id",
          "type": "uint256"
        }
      ],
      "name": "positionsValue",
      "outputs": [
        {
          "internalType": "uint256",
          "name": "totalCost",
          "type": "uint256"
        }
      ],
      "stateMutability": "view",
      "type": "function"
    },
    {
      "inputs": [],
      "name": "tradeToken",
      "outputs": [
        {
          "internalType": "contract IERC721",
          "name": "",
          "type": "address"
        }
      ],
      "stateMutability": "view",
      "type": "function"
    },
    {
      "inputs": [],
      "name": "usdc",
      "outputs": [
        {
          "internalType": "contract IERC20",
          "name": "",
          "type": "address"
        }
      ],
      "stateMutability": "view",
      "type": "function"
    },
    {
      "inputs": [
        {
          "internalType": "uint256",
          "name": "id",
          "type": "uint256"
        }
      ],
      "name": "valueByAddress",
      "outputs": [
        {
          "internalType": "uint256",
          "name": "totalCost",
          "type": "uint256"
        }
      ],
      "stateMutability": "view",
      "type": "function"
    },
    {
      "inputs": [
        {
          "internalType": "uint256",
          "name": "id",
          "type": "uint256"
        }
      ],
      "name": "withdrawAllFromMarginAccount",
      "outputs": [],
      "stateMutability": "nonpayable",
      "type": "function"
    },
    {
      "inputs": [
        {
          "internalType": "uint256",
          "name": "id",
          "type": "uint256"
        },
        {
          "internalType": "string",
          "name": "name",
          "type": "string"
        },
        {
          "internalType": "uint256",
          "name": "amount",
          "type": "uint256"
        }
      ],
      "name": "withdrawERC20FromMarginAccount",
      "outputs": [],
      "stateMutability": "nonpayable",
      "type": "function"
    },
    {
      "inputs": [
        {
          "internalType": "uint256",
          "name": "id",
          "type": "uint256"
        }
      ],
      "name": "withdrawFromAllBrokers",
      "outputs": [
        {
          "components": [
            {
              "internalType": "address",
              "name": "broker",
              "type": "address"
            },
            {
              "internalType": "bool",
              "name": "success",
              "type": "bool"
            }
          ],
          "internalType": "struct RiskManager.SuccessReport[]",
          "name": "",
          "type": "tuple[]"
        }
      ],
      "stateMutability": "nonpayable",
      "type": "function"
    }
  ],
  "transactionHash": "0xbc270c7303c3c87723a8d8877171503db1a9b5bd365e7279debebf998874af93",
  "args": [
    "0x6bFbc79d5EDc7ac3684861A0D5C3d49843dc8FE0",
    "0xD803bAE55bC7bf87065FD376BB972337f3FdD073",
    "0xac2964f823D283F2F70052f81FC7A2dA6A1E1DB8",
    "0xD075948B8f42f59c111FD56Ba964A06D394bE853",
    "0xFF970A61A04b1cA14834A43f5dE4533eBDDB5CC8"
  ],
  "numDeployments": 1,
  "solcInputHash": "a7b4e0252bc2b2e26c5daba521026dd9",
  "bytecode": "0x60806040523480156200001157600080fd5b5060405162001a3438038062001a34833981016040819052620000349162000097565b600180546001600160a01b03199081166001600160a01b0397881617909155600080548216958716959095179094556002805485169386169390931790925560038054841691851691909117905560048054909216921691909117905562000130565b600080600080600060a08688031215620000b057600080fd5b8551620000bd8162000117565b6020870151909550620000d08162000117565b6040870151909450620000e38162000117565b6060870151909350620000f68162000117565b6080870151909250620001098162000117565b809150509295509295909350565b6001600160a01b03811681146200012d57600080fd5b50565b6118f480620001406000396000f3fe6080604052600436106100a65760003560e01c8063aa4e7d4011610064578063aa4e7d40146101a5578063cff6a6be146101c5578063d83678ac146101d8578063dca62713146101f8578063de1da3c414610218578063fba9686e1461023857600080fd5b8062a23327146100ab57806303fc19a3146100cd5780632e81bad7146101005780633e413bee146101385780638519a4f1146101585780638e44c74914610185575b600080fd5b3480156100b757600080fd5b506100cb6100c63660046114c4565b610258565b005b3480156100d957600080fd5b506100ed6100e836600461162e565b6102c5565b6040519081526020015b60405180910390f35b34801561010c57600080fd5b50600154610120906001600160a01b031681565b6040516001600160a01b0390911681526020016100f7565b34801561014457600080fd5b50600454610120906001600160a01b031681565b34801561016457600080fd5b5061017861017336600461162e565b61061f565b6040516100f7919061171a565b34801561019157600080fd5b50600254610120906001600160a01b031681565b3480156101b157600080fd5b506100ed6101c036600461162e565b610b51565b6101786101d336600461162e565b610db1565b3480156101e457600080fd5b50600054610120906001600160a01b031681565b34801561020457600080fd5b50600354610120906001600160a01b031681565b34801561022457600080fd5b506100cb610233366004611660565b6110b7565b34801561024457600080fd5b506100cb61025336600461162e565b6111b4565b6003546001600160a01b0316331461026f57600080fd5b806001600160a01b0316636780a7d46040518163ffffffff1660e01b8152600401600060405180830381600087803b1580156102aa57600080fd5b505af11580156102be573d6000803e3d6000fd5b5050505050565b6002546040516377c529c760e01b81526004810183905260009182916001600160a01b03909116906377c529c79060240160206040518083038186803b15801561030e57600080fd5b505afa158015610322573d6000803e3d6000fd5b505050506040513d601f19601f8201168201806040525081019061034691906114e8565b905060008190506000816001600160a01b031663b6f6fe256040518163ffffffff1660e01b815260040160006040518083038186803b15801561038857600080fd5b505afa15801561039c573d6000803e3d6000fd5b505050506040513d6000823e601f3d908101601f191682016040526103c49190810190611505565b905060005b81518110156106165760008282815181106103e6576103e661187a565b602002602001015190506000846001600160a01b031663e08af2aa836040518263ffffffff1660e01b815260040161041e9190611774565b60206040518083038186803b15801561043657600080fd5b505afa15801561044a573d6000803e3d6000fd5b505050506040513d601f19601f8201168201806040525081019061046e91906114e8565b600254604051631fc58a5b60e11b81529192506001600160a01b031690633f8b14b69061049f908590600401611774565b60206040518083038186803b1580156104b757600080fd5b505afa1580156104cb573d6000803e3d6000fd5b505050506040513d601f19601f820116820180604052508101906104ef91906114e8565b604051636a0a485160e11b81526001600160a01b038381166004830152919091169063d41490a29060240160206040518083038186803b15801561053257600080fd5b505afa158015610546573d6000803e3d6000fd5b505050506040513d601f19601f8201168201806040525081019061056a9190611647565b6105749088611801565b600480546040516370a0823160e01b81526001600160a01b038581169382019390935292995016906370a082319060240160206040518083038186803b1580156105bd57600080fd5b505afa1580156105d1573d6000803e3d6000fd5b505050506040513d601f19601f820116820180604052508101906105f59190611647565b6105ff9088611801565b96505050808061060e90611849565b9150506103c9565b50505050919050565b6003546060906001600160a01b0316331461063957600080fd5b6002546040516377c529c760e01b8152600481018490526000916001600160a01b0316906377c529c79060240160206040518083038186803b15801561067e57600080fd5b505afa158015610692573d6000803e3d6000fd5b505050506040513d601f19601f820116820180604052508101906106b691906114e8565b905060008190506000816001600160a01b031663b6f6fe256040518163ffffffff1660e01b815260040160006040518083038186803b1580156106f857600080fd5b505afa15801561070c573d6000803e3d6000fd5b505050506040513d6000823e601f3d908101601f191682016040526107349190810190611505565b90506000815167ffffffffffffffff81111561075257610752611890565b60405190808252806020026020018201604052801561079757816020015b60408051808201909152600080825260208201528152602001906001900390816107705790505b50905060005b82518110156109c4576000846001600160a01b031663e08af2aa8584815181106107c9576107c961187a565b60200260200101516040518263ffffffff1660e01b81526004016107ed9190611774565b60206040518083038186803b15801561080557600080fd5b505afa158015610819573d6000803e3d6000fd5b505050506040513d601f19601f8201168201806040525081019061083d91906114e8565b600480546040516370a0823160e01b81526001600160a01b0380851693820184905293945091926392639023929116906370a082319060240160206040518083038186803b15801561088e57600080fd5b505afa1580156108a2573d6000803e3d6000fd5b505050506040513d601f19601f820116820180604052508101906108c69190611647565b6040518263ffffffff1660e01b8152600401610900918152604060208201819052600490820152635553444360e01b606082015260800190565b600060405180830381600087803b15801561091a57600080fd5b505af192505050801561092b575060015b610972576040518060400160405280826001600160a01b03168152602001600015158152508383815181106109625761096261187a565b60200260200101819052506109b1565b6040518060400160405280826001600160a01b03168152602001600115158152508383815181106109a5576109a561187a565b60200260200101819052505b50806109bc81611849565b91505061079d565b50600480546003546040805163026b1d5f60e01b815290516001600160a01b039384169463a9059cbb949093169263026b1d5f92808201926020929091829003018186803b158015610a1557600080fd5b505afa158015610a29573d6000803e3d6000fd5b505050506040513d601f19601f82011682018060405250810190610a4d91906114e8565b600480546040516370a0823160e01b815230928101929092526001600160a01b0316906370a082319060240160206040518083038186803b158015610a9157600080fd5b505afa158015610aa5573d6000803e3d6000fd5b505050506040513d601f19601f82011682018060405250810190610ac99190611647565b6040516001600160e01b031960e085901b1681526001600160a01b0390921660048301526024820152604401602060405180830381600087803b158015610b0f57600080fd5b505af1158015610b23573d6000803e3d6000fd5b505050506040513d601f19601f82011682018060405250810190610b47919061160c565b5095945050505050565b6002546040516377c529c760e01b81526004810183905260009182916001600160a01b03909116906377c529c79060240160206040518083038186803b158015610b9a57600080fd5b505afa158015610bae573d6000803e3d6000fd5b505050506040513d601f19601f82011682018060405250810190610bd291906114e8565b90506000600260009054906101000a90046001600160a01b03166001600160a01b031663d597573e6040518163ffffffff1660e01b815260040160006040518083038186803b158015610c2457600080fd5b505afa158015610c38573d6000803e3d6000fd5b505050506040513d6000823e601f3d908101601f19168201604052610c609190810190611505565b905060005b8151811015610da9576000828281518110610c8257610c8261187a565b6020908102919091010151600254604051631fc58a5b60e11b81529192506001600160a01b031690633f8b14b690610cbe908490600401611774565b60206040518083038186803b158015610cd657600080fd5b505afa158015610cea573d6000803e3d6000fd5b505050506040513d601f19601f82011682018060405250810190610d0e91906114e8565b604051636a0a485160e11b81526001600160a01b038681166004830152919091169063d41490a29060240160206040518083038186803b158015610d5157600080fd5b505afa158015610d65573d6000803e3d6000fd5b505050506040513d601f19601f82011682018060405250810190610d899190611647565b610d939086611801565b9450508080610da190611849565b915050610c65565b505050919050565b6003546060906001600160a01b03163314610dcb57600080fd5b6002546040516377c529c760e01b8152600481018490526000916001600160a01b0316906377c529c79060240160206040518083038186803b158015610e1057600080fd5b505afa158015610e24573d6000803e3d6000fd5b505050506040513d601f19601f82011682018060405250810190610e4891906114e8565b905060008190506000816001600160a01b031663b6f6fe256040518163ffffffff1660e01b815260040160006040518083038186803b158015610e8a57600080fd5b505afa158015610e9e573d6000803e3d6000fd5b505050506040513d6000823e601f3d908101601f19168201604052610ec69190810190611505565b90506000815167ffffffffffffffff811115610ee457610ee4611890565b604051908082528060200260200182016040528015610f2957816020015b6040805180820190915260008082526020820152815260200190600190039081610f025790505b50905060005b8251811015610b47576000846001600160a01b031663e08af2aa858481518110610f5b57610f5b61187a565b60200260200101516040518263ffffffff1660e01b8152600401610f7f9190611774565b60206040518083038186803b158015610f9757600080fd5b505afa158015610fab573d6000803e3d6000fd5b505050506040513d601f19601f82011682018060405250810190610fcf91906114e8565b9050806001600160a01b0316636780a7d4346040518263ffffffff1660e01b81526004016000604051808303818588803b15801561100c57600080fd5b505af19350505050801561101e575060015b611065576040518060400160405280826001600160a01b03168152602001600015158152508383815181106110555761105561187a565b60200260200101819052506110a4565b6040518060400160405280826001600160a01b03168152602001600115158152508383815181106110985761109861187a565b60200260200101819052505b50806110af81611849565b915050610f2f565b6003546001600160a01b031633146110ce57600080fd5b6002546040516377c529c760e01b8152600481018590526000916001600160a01b0316906377c529c79060240160206040518083038186803b15801561111357600080fd5b505afa158015611127573d6000803e3d6000fd5b505050506040513d601f19601f8201168201806040525081019061114b91906114e8565b604051639263902360e01b81529091506001600160a01b0382169063926390239061117c9085908790600401611787565b600060405180830381600087803b15801561119657600080fd5b505af11580156111aa573d6000803e3d6000fd5b5050505050505050565b6003546001600160a01b031633146111cb57600080fd5b6002546040516377c529c760e01b8152600481018390526000916001600160a01b0316906377c529c79060240160206040518083038186803b15801561121057600080fd5b505afa158015611224573d6000803e3d6000fd5b505050506040513d601f19601f8201168201806040525081019061124891906114e8565b600480546040516370a0823160e01b81526001600160a01b0380851693820184905293945091926392639023929116906370a082319060240160206040518083038186803b15801561129957600080fd5b505afa1580156112ad573d6000803e3d6000fd5b505050506040513d601f19601f820116820180604052508101906112d19190611647565b6040518263ffffffff1660e01b815260040161130b918152604060208201819052600490820152635553444360e01b606082015260800190565b600060405180830381600087803b15801561132557600080fd5b505af1158015611339573d6000803e3d6000fd5b5050600480546003546040805163026b1d5f60e01b815290516001600160a01b03938416965063a9059cbb9550929091169263026b1d5f928282019260209290829003018186803b15801561138d57600080fd5b505afa1580156113a1573d6000803e3d6000fd5b505050506040513d601f19601f820116820180604052508101906113c591906114e8565b600480546040516370a0823160e01b815230928101929092526001600160a01b0316906370a082319060240160206040518083038186803b15801561140957600080fd5b505afa15801561141d573d6000803e3d6000fd5b505050506040513d601f19601f820116820180604052508101906114419190611647565b6040516001600160e01b031960e085901b1681526001600160a01b0390921660048301526024820152604401602060405180830381600087803b15801561148757600080fd5b505af115801561149b573d6000803e3d6000fd5b505050506040513d601f19601f820116820180604052508101906114bf919061160c565b505050565b6000602082840312156114d657600080fd5b81356114e1816118a6565b9392505050565b6000602082840312156114fa57600080fd5b81516114e1816118a6565b6000602080838503121561151857600080fd5b825167ffffffffffffffff8082111561153057600080fd5b818501915085601f83011261154457600080fd5b81518181111561155657611556611890565b8060051b6115658582016117a8565b8281528581019085870183870188018b101561158057600080fd5b600093505b848410156115fe5780518681111561159c57600080fd5b8701603f81018c136115ad57600080fd5b8881015160406115c46115bf836117d9565b6117a8565b8281528e828486010111156115d857600080fd5b6115e7838d8301848701611819565b865250505060019390930192918701918701611585565b509998505050505050505050565b60006020828403121561161e57600080fd5b815180151581146114e157600080fd5b60006020828403121561164057600080fd5b5035919050565b60006020828403121561165957600080fd5b5051919050565b60008060006060848603121561167557600080fd5b83359250602084013567ffffffffffffffff81111561169357600080fd5b8401601f810186136116a457600080fd5b80356116b26115bf826117d9565b8181528760208385010111156116c757600080fd5b81602084016020830137600060208383010152809450505050604084013590509250925092565b60008151808452611706816020860160208601611819565b601f01601f19169290920160200192915050565b602080825282518282018190526000919060409081850190868401855b8281101561176757815180516001600160a01b031685528601511515868501529284019290850190600101611737565b5091979650505050505050565b6020815260006114e160208301846116ee565b8281526040602082015260006117a060408301846116ee565b949350505050565b604051601f8201601f1916810167ffffffffffffffff811182821017156117d1576117d1611890565b604052919050565b600067ffffffffffffffff8211156117f3576117f3611890565b50601f01601f191660200190565b6000821982111561181457611814611864565b500190565b60005b8381101561183457818101518382015260200161181c565b83811115611843576000848401525b50505050565b600060001982141561185d5761185d611864565b5060010190565b634e487b7160e01b600052601160045260246000fd5b634e487b7160e01b600052603260045260246000fd5b634e487b7160e01b600052604160045260246000fd5b6001600160a01b03811681146118bb57600080fd5b5056fea264697066735822122018601cd68ea938cd40226beeee3ad765f57b5de8b17f55bedca081abe668228e64736f6c63430008060033",
  "devdoc": {
    "kind": "dev",
    "methods": {},
    "version": 1
  },
  "userdoc": {
    "kind": "user",
    "methods": {},
    "version": 1
  },
  "storageLayout": {
    "storage": [
      {
        "astId": 4639,
        "contract": "contracts/RiskManager.sol:RiskManager",
        "label": "tradeToken",
        "offset": 0,
        "slot": "0",
        "type": "t_contract(IERC721)1863"
      },
      {
        "astId": 4642,
        "contract": "contracts/RiskManager.sol:RiskManager",
        "label": "adminToken",
        "offset": 0,
        "slot": "1",
        "type": "t_contract(IERC721)1863"
      },
      {
        "astId": 4645,
        "contract": "contracts/RiskManager.sol:RiskManager",
        "label": "contractsStorage",
        "offset": 0,
        "slot": "2",
        "type": "t_contract(IContractsStorage)5251"
      },
      {
        "astId": 4647,
        "contract": "contracts/RiskManager.sol:RiskManager",
        "label": "lendAndBorrowManager",
        "offset": 0,
        "slot": "3",
        "type": "t_address"
      },
      {
        "astId": 4650,
        "contract": "contracts/RiskManager.sol:RiskManager",
        "label": "usdc",
        "offset": 0,
        "slot": "4",
        "type": "t_contract(IERC20)777"
      }
    ],
    "types": {
      "t_address": {
        "encoding": "inplace",
        "label": "address",
        "numberOfBytes": "20"
      },
      "t_contract(IContractsStorage)5251": {
        "encoding": "inplace",
        "label": "contract IContractsStorage",
        "numberOfBytes": "20"
      },
      "t_contract(IERC20)777": {
        "encoding": "inplace",
        "label": "contract IERC20",
        "numberOfBytes": "20"
      },
      "t_contract(IERC721)1863": {
        "encoding": "inplace",
        "label": "contract IERC721",
        "numberOfBytes": "20"
      }
    }
  }
}