{
  "address": "0xe6905c9AD6031d89382198f94Fcd49928d6b6CA3",
  "abi": [
    {
      "anonymous": false,
      "inputs": [
        {
          "indexed": true,
          "internalType": "address",
          "name": "previousOwner",
          "type": "address"
        },
        {
          "indexed": true,
          "internalType": "address",
          "name": "newOwner",
          "type": "address"
        }
      ],
      "name": "OwnershipTransferred",
      "type": "event"
    },
    {
      "anonymous": false,
      "inputs": [
        {
          "indexed": true,
          "internalType": "bytes32",
          "name": "role",
          "type": "bytes32"
        },
        {
          "indexed": true,
          "internalType": "bytes32",
          "name": "previousAdminRole",
          "type": "bytes32"
        },
        {
          "indexed": true,
          "internalType": "bytes32",
          "name": "newAdminRole",
          "type": "bytes32"
        }
      ],
      "name": "RoleAdminChanged",
      "type": "event"
    },
    {
      "anonymous": false,
      "inputs": [
        {
          "indexed": true,
          "internalType": "bytes32",
          "name": "role",
          "type": "bytes32"
        },
        {
          "indexed": true,
          "internalType": "address",
          "name": "account",
          "type": "address"
        },
        {
          "indexed": true,
          "internalType": "address",
          "name": "sender",
          "type": "address"
        }
      ],
      "name": "RoleGranted",
      "type": "event"
    },
    {
      "anonymous": false,
      "inputs": [
        {
          "indexed": true,
          "internalType": "bytes32",
          "name": "role",
          "type": "bytes32"
        },
        {
          "indexed": true,
          "internalType": "address",
          "name": "account",
          "type": "address"
        },
        {
          "indexed": true,
          "internalType": "address",
          "name": "sender",
          "type": "address"
        }
      ],
      "name": "RoleRevoked",
      "type": "event"
    },
    {
      "inputs": [],
      "name": "BROKER_CREATOR_ROLE",
      "outputs": [
        {
          "internalType": "bytes32",
          "name": "",
          "type": "bytes32"
        }
      ],
      "stateMutability": "view",
      "type": "function"
    },
    {
      "inputs": [],
      "name": "CONTRACT_MANAGER",
      "outputs": [
        {
          "internalType": "bytes32",
          "name": "",
          "type": "bytes32"
        }
      ],
      "stateMutability": "view",
      "type": "function"
    },
    {
      "inputs": [],
      "name": "DEFAULT_ADMIN_ROLE",
      "outputs": [
        {
          "internalType": "bytes32",
          "name": "",
          "type": "bytes32"
        }
      ],
      "stateMutability": "view",
      "type": "function"
    },
    {
      "inputs": [],
      "name": "MARGIN_ACCOUNT_MANAGER_ROLE",
      "outputs": [
        {
          "internalType": "bytes32",
          "name": "",
          "type": "bytes32"
        }
      ],
      "stateMutability": "view",
      "type": "function"
    },
    {
      "inputs": [],
      "name": "add_cotracts_role_state",
      "outputs": [
        {
          "internalType": "bool",
          "name": "",
          "type": "bool"
        }
      ],
      "stateMutability": "view",
      "type": "function"
    },
    {
      "inputs": [
        {
          "internalType": "address",
          "name": "account",
          "type": "address"
        }
      ],
      "name": "checkBROKER_CREATOR_ROLE",
      "outputs": [],
      "stateMutability": "view",
      "type": "function"
    },
    {
      "inputs": [
        {
          "internalType": "address",
          "name": "account",
          "type": "address"
        }
      ],
      "name": "checkCONTRACT_MANAGER",
      "outputs": [],
      "stateMutability": "view",
      "type": "function"
    },
    {
      "inputs": [
        {
          "internalType": "address",
          "name": "account",
          "type": "address"
        }
      ],
      "name": "checkMARGIN_ACCOUNT_MANAGER_ROLE",
      "outputs": [],
      "stateMutability": "view",
      "type": "function"
    },
    {
      "inputs": [],
      "name": "freezeFunction",
      "outputs": [],
      "stateMutability": "nonpayable",
      "type": "function"
    },
    {
      "inputs": [
        {
          "internalType": "bytes32",
          "name": "role",
          "type": "bytes32"
        }
      ],
      "name": "getRoleAdmin",
      "outputs": [
        {
          "internalType": "bytes32",
          "name": "",
          "type": "bytes32"
        }
      ],
      "stateMutability": "view",
      "type": "function"
    },
    {
      "inputs": [
        {
          "internalType": "bytes32",
          "name": "role",
          "type": "bytes32"
        },
        {
          "internalType": "address",
          "name": "account",
          "type": "address"
        }
      ],
      "name": "grantRole",
      "outputs": [],
      "stateMutability": "nonpayable",
      "type": "function"
    },
    {
      "inputs": [
        {
          "internalType": "bytes32",
          "name": "role",
          "type": "bytes32"
        },
        {
          "internalType": "address",
          "name": "account",
          "type": "address"
        }
      ],
      "name": "hasRole",
      "outputs": [
        {
          "internalType": "bool",
          "name": "",
          "type": "bool"
        }
      ],
      "stateMutability": "view",
      "type": "function"
    },
    {
      "inputs": [],
      "name": "owner",
      "outputs": [
        {
          "internalType": "address",
          "name": "",
          "type": "address"
        }
      ],
      "stateMutability": "view",
      "type": "function"
    },
    {
      "inputs": [],
      "name": "renounceOwnership",
      "outputs": [],
      "stateMutability": "nonpayable",
      "type": "function"
    },
    {
      "inputs": [
        {
          "internalType": "bytes32",
          "name": "role",
          "type": "bytes32"
        },
        {
          "internalType": "address",
          "name": "account",
          "type": "address"
        }
      ],
      "name": "renounceRole",
      "outputs": [],
      "stateMutability": "nonpayable",
      "type": "function"
    },
    {
      "inputs": [
        {
          "internalType": "bytes32",
          "name": "role",
          "type": "bytes32"
        },
        {
          "internalType": "address",
          "name": "account",
          "type": "address"
        }
      ],
      "name": "revokeRole",
      "outputs": [],
      "stateMutability": "nonpayable",
      "type": "function"
    },
    {
      "inputs": [
        {
          "internalType": "address",
          "name": "value",
          "type": "address"
        },
        {
          "internalType": "bool",
          "name": "state",
          "type": "bool"
        }
      ],
      "name": "setAdminRole",
      "outputs": [],
      "stateMutability": "nonpayable",
      "type": "function"
    },
    {
      "inputs": [
        {
          "internalType": "address",
          "name": "value",
          "type": "address"
        },
        {
          "internalType": "bool",
          "name": "state",
          "type": "bool"
        }
      ],
      "name": "setBrokerCreatorRole",
      "outputs": [],
      "stateMutability": "nonpayable",
      "type": "function"
    },
    {
      "inputs": [
        {
          "internalType": "address",
          "name": "value",
          "type": "address"
        },
        {
          "internalType": "bool",
          "name": "state",
          "type": "bool"
        }
      ],
      "name": "setMarginAccountManagerRole",
      "outputs": [],
      "stateMutability": "nonpayable",
      "type": "function"
    },
    {
      "inputs": [
        {
          "internalType": "bytes4",
          "name": "interfaceId",
          "type": "bytes4"
        }
      ],
      "name": "supportsInterface",
      "outputs": [
        {
          "internalType": "bool",
          "name": "",
          "type": "bool"
        }
      ],
      "stateMutability": "view",
      "type": "function"
    },
    {
      "inputs": [
        {
          "internalType": "address",
          "name": "newOwner",
          "type": "address"
        }
      ],
      "name": "transferOwnership",
      "outputs": [],
      "stateMutability": "nonpayable",
      "type": "function"
    }
  ],
  "transactionHash": "0x0a69e5c40d36e6829308a2b21625c19f622a7750cc69a4fc169a98e7b9b17e36",
  "args": [],
  "numDeployments": 1,
  "solcInputHash": "b3e102078aa0e78bf97ec35eabd25955",
  "bytecode": "0x60806040526002805460ff1916600117905534801561001d57600080fd5b506100273361002c565b61007c565b600080546001600160a01b038381166001600160a01b0319831681178455604051919092169283917f8be0079c531659141344cd1fd0a4f28419497f9722a3daafe3b4186f6b6457e09190a35050565b610c578061008b6000396000f3fe608060405234801561001057600080fd5b50600436106101375760003560e01c8063902714f5116100b8578063d3618ff51161007c578063d3618ff514610274578063d547741f14610287578063dd56b7f81461029a578063e720df15146102af578063f2fde38b146102c2578063f6273f14146102d557600080fd5b8063902714f51461022957806391d148541461023c578063a217fddf1461024f578063a3d47c4014610257578063a62f1f401461025f57600080fd5b806336568abe116100ff57806336568abe146101cd5780635034503d146101e0578063715018a6146101f35780637c256e44146101fb5780638da5cb5b1461020e57600080fd5b806301ffc9a71461013c578063170231b614610164578063248a9ca31461017157806326e437e4146101a35780632f2ff15d146101b8575b600080fd5b61014f61014a366004610a2f565b6102e8565b60405190151581526020015b60405180910390f35b60025461014f9060ff1681565b61019561017f3660046109ea565b6000908152600160208190526040909120015490565b60405190815260200161015b565b610195600080516020610bc283398151915281565b6101cb6101c6366004610a03565b61031f565b005b6101cb6101db366004610a03565b61034a565b6101cb6101ee366004610993565b6103cd565b6101cb6103f1565b6101cb610209366004610993565b610405565b6000546040516001600160a01b03909116815260200161015b565b6101cb6102373660046109ae565b61041d565b61014f61024a366004610a03565b61045b565b610195600081565b6101cb610486565b610195600080516020610c0283398151915281565b6101cb6102823660046109ae565b61049a565b6101cb610295366004610a03565b6104d8565b610195600080516020610be283398151915281565b6101cb6102bd3660046109ae565b6104fe565b6101cb6102d0366004610993565b61054b565b6101cb6102e3366004610993565b6105c1565b60006001600160e01b03198216637965db0b60e01b148061031957506301ffc9a760e01b6001600160e01b03198316145b92915050565b6000828152600160208190526040909120015461033b816105d9565b61034583836105e3565b505050565b6001600160a01b03811633146103bf5760405162461bcd60e51b815260206004820152602f60248201527f416363657373436f6e74726f6c3a2063616e206f6e6c792072656e6f756e636560448201526e103937b632b9903337b91039b2b63360891b60648201526084015b60405180910390fd5b6103c9828261064e565b5050565b6103e5600080516020610bc28339815191528261045b565b6103ee57600080fd5b50565b6103f96106b5565b610403600061070f565b565b6103e5600080516020610be28339815191528261045b565b6104256106b5565b8015610443576103c9600080516020610be28339815191528361075f565b6103c9600080516020610be28339815191528361064e565b60009182526001602090815260408084206001600160a01b0393909316845291905290205460ff1690565b61048e6106b5565b6002805460ff19169055565b6104a26106b5565b80156104c0576103c9600080516020610bc28339815191528361075f565b6103c9600080516020610bc28339815191528361064e565b600082815260016020819052604090912001546104f4816105d9565b610345838361064e565b6105066106b5565b60025460ff1661051557600080fd5b8015610533576103c9600080516020610c028339815191528361075f565b6103c9600080516020610c028339815191528361064e565b6105536106b5565b6001600160a01b0381166105b85760405162461bcd60e51b815260206004820152602660248201527f4f776e61626c653a206e6577206f776e657220697320746865207a65726f206160448201526564647265737360d01b60648201526084016103b6565b6103ee8161070f565b6103e5600080516020610c028339815191528261045b565b6103ee8133610769565b6105ed828261045b565b6103c95760008281526001602081815260408084206001600160a01b0386168086529252808420805460ff19169093179092559051339285917f2f8788117e7eff1d82e926ec794901d17c78024a50270940304540a733656f0d9190a45050565b610658828261045b565b156103c95760008281526001602090815260408083206001600160a01b0385168085529252808320805460ff1916905551339285917ff6391f5c32d9c69d2a47ea670b442974b53935d1edc7fd64eb21e047a839171b9190a45050565b6000546001600160a01b031633146104035760405162461bcd60e51b815260206004820181905260248201527f4f776e61626c653a2063616c6c6572206973206e6f7420746865206f776e657260448201526064016103b6565b600080546001600160a01b038381166001600160a01b0319831681178455604051919092169283917f8be0079c531659141344cd1fd0a4f28419497f9722a3daafe3b4186f6b6457e09190a35050565b6103c982826105e3565b610773828261045b565b6103c957610780816107c2565b61078b8360206107d4565b60405160200161079c929190610a59565b60408051601f198184030181529082905262461bcd60e51b82526103b691600401610ace565b60606103196001600160a01b03831660145b606060006107e3836002610b19565b6107ee906002610b01565b67ffffffffffffffff81111561080657610806610bab565b6040519080825280601f01601f191660200182016040528015610830576020820181803683370190505b509050600360fc1b8160008151811061084b5761084b610b95565b60200101906001600160f81b031916908160001a905350600f60fb1b8160018151811061087a5761087a610b95565b60200101906001600160f81b031916908160001a905350600061089e846002610b19565b6108a9906001610b01565b90505b6001811115610921576f181899199a1a9b1b9c1cb0b131b232b360811b85600f16601081106108dd576108dd610b95565b1a60f81b8282815181106108f3576108f3610b95565b60200101906001600160f81b031916908160001a90535060049490941c9361091a81610b68565b90506108ac565b5083156109705760405162461bcd60e51b815260206004820181905260248201527f537472696e67733a20686578206c656e67746820696e73756666696369656e7460448201526064016103b6565b9392505050565b80356001600160a01b038116811461098e57600080fd5b919050565b6000602082840312156109a557600080fd5b61097082610977565b600080604083850312156109c157600080fd5b6109ca83610977565b9150602083013580151581146109df57600080fd5b809150509250929050565b6000602082840312156109fc57600080fd5b5035919050565b60008060408385031215610a1657600080fd5b82359150610a2660208401610977565b90509250929050565b600060208284031215610a4157600080fd5b81356001600160e01b03198116811461097057600080fd5b7f416363657373436f6e74726f6c3a206163636f756e7420000000000000000000815260008351610a91816017850160208801610b38565b7001034b99036b4b9b9b4b733903937b6329607d1b6017918401918201528351610ac2816028840160208801610b38565b01602801949350505050565b6020815260008251806020840152610aed816040850160208701610b38565b601f01601f19169190910160400192915050565b60008219821115610b1457610b14610b7f565b500190565b6000816000190483118215151615610b3357610b33610b7f565b500290565b60005b83811015610b53578181015183820152602001610b3b565b83811115610b62576000848401525b50505050565b600081610b7757610b77610b7f565b506000190190565b634e487b7160e01b600052601160045260246000fd5b634e487b7160e01b600052603260045260246000fd5b634e487b7160e01b600052604160045260246000fdfe866590f210553a6446691ced31dcd705c7e5515d209e9a36312619c018b3682d92449d07622d0e9ba0b9ee451808335e3e9e95f0229cee80d294a4608239a46d9aa032fddc5828092899c540d004a5a5ff64ae9e644e14e3e1589b650db53b9ea26469706673582212205c54b2cd9ec9edc4ba41c99bb597682cfd94c95822ccfb0af8bc44d610495fdc64736f6c63430008060033",
  "devdoc": {
    "kind": "dev",
    "methods": {
      "getRoleAdmin(bytes32)": {
        "details": "Returns the admin role that controls `role`. See {grantRole} and {revokeRole}. To change a role's admin, use {_setRoleAdmin}."
      },
      "grantRole(bytes32,address)": {
        "details": "Grants `role` to `account`. If `account` had not been already granted `role`, emits a {RoleGranted} event. Requirements: - the caller must have ``role``'s admin role. May emit a {RoleGranted} event."
      },
      "hasRole(bytes32,address)": {
        "details": "Returns `true` if `account` has been granted `role`."
      },
      "owner()": {
        "details": "Returns the address of the current owner."
      },
      "renounceOwnership()": {
        "details": "Leaves the contract without owner. It will not be possible to call `onlyOwner` functions anymore. Can only be called by the current owner. NOTE: Renouncing ownership will leave the contract without an owner, thereby removing any functionality that is only available to the owner."
      },
      "renounceRole(bytes32,address)": {
        "details": "Revokes `role` from the calling account. Roles are often managed via {grantRole} and {revokeRole}: this function's purpose is to provide a mechanism for accounts to lose their privileges if they are compromised (such as when a trusted device is misplaced). If the calling account had been revoked `role`, emits a {RoleRevoked} event. Requirements: - the caller must be `account`. May emit a {RoleRevoked} event."
      },
      "revokeRole(bytes32,address)": {
        "details": "Revokes `role` from `account`. If `account` had been granted `role`, emits a {RoleRevoked} event. Requirements: - the caller must have ``role``'s admin role. May emit a {RoleRevoked} event."
      },
      "supportsInterface(bytes4)": {
        "details": "See {IERC165-supportsInterface}."
      },
      "transferOwnership(address)": {
        "details": "Transfers ownership of the contract to a new account (`newOwner`). Can only be called by the current owner."
      }
    },
    "version": 1
  },
  "userdoc": {
    "kind": "user",
    "methods": {},
    "version": 1
  },
  "storageLayout": {
    "storage": [
      {
        "astId": 592,
        "contract": "contracts/RoleManager.sol:RoleManager",
        "label": "_owner",
        "offset": 0,
        "slot": "0",
        "type": "t_address"
      },
      {
        "astId": 70,
        "contract": "contracts/RoleManager.sol:RoleManager",
        "label": "_roles",
        "offset": 0,
        "slot": "1",
        "type": "t_mapping(t_bytes32,t_struct(RoleData)65_storage)"
      },
      {
        "astId": 7866,
        "contract": "contracts/RoleManager.sol:RoleManager",
        "label": "add_cotracts_role_state",
        "offset": 0,
        "slot": "2",
        "type": "t_bool"
      }
    ],
    "types": {
      "t_address": {
        "encoding": "inplace",
        "label": "address",
        "numberOfBytes": "20"
      },
      "t_bool": {
        "encoding": "inplace",
        "label": "bool",
        "numberOfBytes": "1"
      },
      "t_bytes32": {
        "encoding": "inplace",
        "label": "bytes32",
        "numberOfBytes": "32"
      },
      "t_mapping(t_address,t_bool)": {
        "encoding": "mapping",
        "key": "t_address",
        "label": "mapping(address => bool)",
        "numberOfBytes": "32",
        "value": "t_bool"
      },
      "t_mapping(t_bytes32,t_struct(RoleData)65_storage)": {
        "encoding": "mapping",
        "key": "t_bytes32",
        "label": "mapping(bytes32 => struct AccessControl.RoleData)",
        "numberOfBytes": "32",
        "value": "t_struct(RoleData)65_storage"
      },
      "t_struct(RoleData)65_storage": {
        "encoding": "inplace",
        "label": "struct AccessControl.RoleData",
        "members": [
          {
            "astId": 62,
            "contract": "contracts/RoleManager.sol:RoleManager",
            "label": "members",
            "offset": 0,
            "slot": "0",
            "type": "t_mapping(t_address,t_bool)"
          },
          {
            "astId": 64,
            "contract": "contracts/RoleManager.sol:RoleManager",
            "label": "adminRole",
            "offset": 0,
            "slot": "1",
            "type": "t_bytes32"
          }
        ],
        "numberOfBytes": "64"
      }
    }
  }
}