{
  "address": "0x3716524fF0900085464058f8853a78F1ACabc130",
  "abi": [
    {
      "inputs": [
        {
          "internalType": "address",
          "name": "_token",
          "type": "address"
        },
        {
          "internalType": "contract AggregatorV3Interface",
          "name": "_priceFeed",
          "type": "address"
        }
      ],
      "stateMutability": "nonpayable",
      "type": "constructor"
    },
    {
      "inputs": [],
      "name": "getDecimals",
      "outputs": [
        {
          "internalType": "uint256",
          "name": "",
          "type": "uint256"
        }
      ],
      "stateMutability": "view",
      "type": "function"
    },
    {
      "inputs": [],
      "name": "getLatestPrice",
      "outputs": [
        {
          "internalType": "uint256",
          "name": "",
          "type": "uint256"
        }
      ],
      "stateMutability": "view",
      "type": "function"
    },
    {
      "inputs": [],
      "name": "token",
      "outputs": [
        {
          "internalType": "address",
          "name": "",
          "type": "address"
        }
      ],
      "stateMutability": "view",
      "type": "function"
    },
    {
      "inputs": [
        {
          "internalType": "address",
          "name": "path",
          "type": "address"
        }
      ],
      "name": "valueByAddress",
      "outputs": [
        {
          "internalType": "uint256",
          "name": "",
          "type": "uint256"
        }
      ],
      "stateMutability": "view",
      "type": "function"
    },
    {
      "inputs": [
        {
          "internalType": "uint256",
          "name": "amount",
          "type": "uint256"
        }
      ],
      "name": "valueByAmount",
      "outputs": [
        {
          "internalType": "uint256",
          "name": "",
          "type": "uint256"
        }
      ],
      "stateMutability": "view",
      "type": "function"
    },
    {
      "inputs": [
        {
          "internalType": "uint256",
          "name": "id",
          "type": "uint256"
        }
      ],
      "name": "valueByID",
      "outputs": [
        {
          "internalType": "uint256",
          "name": "",
          "type": "uint256"
        }
      ],
      "stateMutability": "view",
      "type": "function"
    }
  ],
  "transactionHash": "0x669bac09ed8e75c884b160fb9d7bc7dba1cdfdc3c19559455e4f325fcaa65425",
  "args": [
    "0xFF970A61A04b1cA14834A43f5dE4533eBDDB5CC8",
    "0x50834f3163758fcc1df9973b6e91f0f0f0434ad3"
  ],
  "numDeployments": 1,
  "solcInputHash": "b3e102078aa0e78bf97ec35eabd25955",
  "bytecode": "0x608060405234801561001057600080fd5b506040516105ec3803806105ec83398101604081905261002f91610060565b600080546001600160a01b039384166001600160a01b031991821617909155600180549290931691161790556100b2565b6000806040838503121561007357600080fd5b825161007e8161009a565b602084015190925061008f8161009a565b809150509250929050565b6001600160a01b03811681146100af57600080fd5b50565b61052b806100c16000396000f3fe608060405234801561001057600080fd5b50600436106100625760003560e01c8063874f41aa146100675780638e15f4731461008e578063d41490a214610096578063f0141d84146100a9578063f2d543a4146100b1578063fc0c546a146100c4575b600080fd5b61007b61007536600461030b565b50600090565b6040519081526020015b60405180910390f35b61007b6100ef565b61007b6100a43660046102db565b610183565b61007b610209565b61007b6100bf36600461030b565b610296565b6000546100d7906001600160a01b031681565b6040516001600160a01b039091168152602001610085565b600080600160009054906101000a90046001600160a01b03166001600160a01b031663feaf968c6040518163ffffffff1660e01b815260040160a06040518083038186803b15801561014057600080fd5b505afa158015610154573d6000803e3d6000fd5b505050506040513d601f19601f82011682018060405250810190610178919061033d565b509195945050505050565b600080546040516370a0823160e01b81526001600160a01b0384811660048301526102039216906370a082319060240160206040518083038186803b1580156101cb57600080fd5b505afa1580156101df573d6000803e3d6000fd5b505050506040513d601f19601f820116820180604052508101906100bf9190610324565b92915050565b6001546040805163313ce56760e01b815290516000926001600160a01b03169163313ce567916004808301926020929190829003018186803b15801561024e57600080fd5b505afa158015610262573d6000803e3d6000fd5b505050506040513d601f19601f82011682018060405250810190610286919061038d565b61029190600a610415565b905090565b60006102a0610209565b6102a86100ef565b6102b290846104c0565b61020391906103b0565b805169ffffffffffffffffffff811681146102d657600080fd5b919050565b6000602082840312156102ed57600080fd5b81356001600160a01b038116811461030457600080fd5b9392505050565b60006020828403121561031d57600080fd5b5035919050565b60006020828403121561033657600080fd5b5051919050565b600080600080600060a0868803121561035557600080fd5b61035e866102bc565b9450602086015193506040860151925060608601519150610381608087016102bc565b90509295509295909350565b60006020828403121561039f57600080fd5b815160ff8116811461030457600080fd5b6000826103cd57634e487b7160e01b600052601260045260246000fd5b500490565b600181815b8085111561040d5781600019048211156103f3576103f36104df565b8085161561040057918102915b93841c93908002906103d7565b509250929050565b600061030460ff84168360008261042e57506001610203565b8161043b57506000610203565b8160018114610451576002811461045b57610477565b6001915050610203565b60ff84111561046c5761046c6104df565b50506001821b610203565b5060208310610133831016604e8410600b841016171561049a575081810a610203565b6104a483836103d2565b80600019048211156104b8576104b86104df565b029392505050565b60008160001904831182151516156104da576104da6104df565b500290565b634e487b7160e01b600052601160045260246000fdfea26469706673582212206851856f9c9c556ed0e285369dd778e4ab4d78b6da9e1672d2c784e26b587fc064736f6c63430008060033",
  "devdoc": {
    "kind": "dev",
    "methods": {},
    "version": 1
  },
  "userdoc": {
    "kind": "user",
    "methods": {},
    "version": 1
  },
  "storageLayout": {
    "storage": [
      {
        "astId": 11125,
        "contract": "contracts/vaultion_managers/VaultionManager_USDC.sol:VaultionManager_USDC",
        "label": "token",
        "offset": 0,
        "slot": "0",
        "type": "t_address"
      },
      {
        "astId": 11128,
        "contract": "contracts/vaultion_managers/VaultionManager_USDC.sol:VaultionManager_USDC",
        "label": "priceFeed",
        "offset": 0,
        "slot": "1",
        "type": "t_contract(AggregatorV3Interface)45"
      }
    ],
    "types": {
      "t_address": {
        "encoding": "inplace",
        "label": "address",
        "numberOfBytes": "20"
      },
      "t_contract(AggregatorV3Interface)45": {
        "encoding": "inplace",
        "label": "contract AggregatorV3Interface",
        "numberOfBytes": "20"
      }
    }
  }
}