{
  "address": "0x505412CdA503DD9F8430674590C344cF0af84976",
  "abi": [
    {
      "inputs": [
        {
          "internalType": "address",
          "name": "_token",
          "type": "address"
        },
        {
          "internalType": "contract IVault",
          "name": "_vault",
          "type": "address"
        },
        {
          "internalType": "address[]",
          "name": "_arrTradingPair",
          "type": "address[]"
        }
      ],
      "stateMutability": "nonpayable",
      "type": "constructor"
    },
    {
      "inputs": [
        {
          "internalType": "uint256",
          "name": "",
          "type": "uint256"
        }
      ],
      "name": "arrTradingPair",
      "outputs": [
        {
          "internalType": "address",
          "name": "",
          "type": "address"
        }
      ],
      "stateMutability": "view",
      "type": "function"
    },
    {
      "inputs": [
        {
          "internalType": "address",
          "name": "_account",
          "type": "address"
        },
        {
          "internalType": "address",
          "name": "_indexToken",
          "type": "address"
        }
      ],
      "name": "getPosition",
      "outputs": [
        {
          "internalType": "uint256",
          "name": "size",
          "type": "uint256"
        },
        {
          "internalType": "uint256",
          "name": "collateral",
          "type": "uint256"
        },
        {
          "internalType": "uint256",
          "name": "averagePrice",
          "type": "uint256"
        },
        {
          "internalType": "uint256",
          "name": "entryFundingRate",
          "type": "uint256"
        },
        {
          "internalType": "uint256",
          "name": "reserveAmount",
          "type": "uint256"
        },
        {
          "internalType": "uint256",
          "name": "realisedPnl",
          "type": "uint256"
        },
        {
          "internalType": "bool",
          "name": "isProfit",
          "type": "bool"
        },
        {
          "internalType": "uint256",
          "name": "lastIncreasedTime",
          "type": "uint256"
        }
      ],
      "stateMutability": "view",
      "type": "function"
    },
    {
      "inputs": [
        {
          "internalType": "address",
          "name": "_account",
          "type": "address"
        },
        {
          "internalType": "address",
          "name": "_indexToken",
          "type": "address"
        }
      ],
      "name": "getPositionDelta",
      "outputs": [
        {
          "internalType": "bool",
          "name": "isProfit",
          "type": "bool"
        },
        {
          "internalType": "uint256",
          "name": "profit",
          "type": "uint256"
        }
      ],
      "stateMutability": "view",
      "type": "function"
    },
    {
      "inputs": [],
      "name": "token",
      "outputs": [
        {
          "internalType": "address",
          "name": "",
          "type": "address"
        }
      ],
      "stateMutability": "view",
      "type": "function"
    },
    {
      "inputs": [
        {
          "internalType": "address",
          "name": "path",
          "type": "address"
        }
      ],
      "name": "valueByAddress",
      "outputs": [
        {
          "internalType": "uint256",
          "name": "",
          "type": "uint256"
        }
      ],
      "stateMutability": "view",
      "type": "function"
    },
    {
      "inputs": [],
      "name": "vault",
      "outputs": [
        {
          "internalType": "contract IVault",
          "name": "",
          "type": "address"
        }
      ],
      "stateMutability": "view",
      "type": "function"
    }
  ],
  "transactionHash": "0x3a98ff3af37e1b44dc588a3083e8f9218affd963f5427400d7f8f2968a32c57d",
  "args": [
    "0xFF970A61A04b1cA14834A43f5dE4533eBDDB5CC8",
    "0x489ee077994B6658eAfA855C308275EAd8097C4A",
    [
      "0x82aF49447D8a07e3bd95BD0d56f35241523fBab1",
      "0x2f2a2543B76A4166549F7aaB2e75Bef0aefC5B0f",
      "0xFa7F8980b0f1E64A2062791cc3b0871572f1F7f0",
      "0xf97f4df75117a78c1A5a0DBb814Af92458539FB4"
    ]
  ],
  "numDeployments": 1,
  "solcInputHash": "b3e102078aa0e78bf97ec35eabd25955",
  "bytecode": "0x60806040523480156200001157600080fd5b5060405162000ee438038062000ee4833981016040819052620000349162000116565b600280546001600160a01b038086166001600160a01b031992831617909255600080549285169290911691909117905580516200007990600190602084019062000083565b505050506200024c565b828054828255906000526020600020908101928215620000db579160200282015b82811115620000db57825182546001600160a01b0319166001600160a01b03909116178255602090920191600190910190620000a4565b50620000e9929150620000ed565b5090565b5b80821115620000e95760008155600101620000ee565b8051620001118162000233565b919050565b6000806000606084860312156200012c57600080fd5b8351620001398162000233565b809350506020808501516200014e8162000233565b60408601519093506001600160401b03808211156200016c57600080fd5b818701915087601f8301126200018157600080fd5b8151818111156200019657620001966200021d565b8060051b604051601f19603f83011681018181108582111715620001be57620001be6200021d565b604052828152858101935084860182860187018c1015620001de57600080fd5b600095505b838610156200020c57620001f78162000104565b855260019590950194938601938601620001e3565b508096505050505050509250925092565b634e487b7160e01b600052604160045260246000fd5b6001600160a01b03811681146200024957600080fd5b50565b610c88806200025c6000396000f3fe608060405234801561001057600080fd5b50600436106100625760003560e01c80634486895914610067578063b33dc19014610097578063c7e4ba80146100e7578063d41490a214610111578063fbfa77cf14610132578063fc0c546a14610145575b600080fd5b61007a610075366004610ac1565b610158565b6040516001600160a01b0390911681526020015b60405180910390f35b6100aa6100a5366004610a5c565b610182565b604080519889526020890197909752958701949094526060860192909252608085015260a0840152151560c083015260e08201526101000161008e565b6100fa6100f5366004610a5c565b610248565b60408051921515835260208301919091520161008e565b61012461011f366004610a22565b6102de565b60405190815260200161008e565b60005461007a906001600160a01b031681565b60025461007a906001600160a01b031681565b6001818154811061016857600080fd5b6000918252602090912001546001600160a01b0316905081565b60008054600254604051634a3f088d60e01b815283928392839283928392839283926001600160a01b0390811692634a3f088d926101ca928f9216908e908790600401610b59565b6101006040518083038186803b1580156101e357600080fd5b505afa1580156101f7573d6000803e3d6000fd5b505050506040513d601f19601f8201168201806040525081019061021b9190610af3565b809850819950829a50839b50849c50859d50869e50879f5050505050505050509295985092959890939650565b6000805460025460405163045a6f3760e41b815283926001600160a01b03908116926345a6f37092610284928992169088908790600401610b59565b604080518083038186803b15801561029b57600080fd5b505afa1580156102af573d6000803e3d6000fd5b505050506040513d601f19601f820116820180604052508101906102d39190610a95565b915091509250929050565b60008060005b60015481101561033d5761031f846001838154811061030557610305610c24565b6000918252602090912001546001600160a01b0316610344565b6103299083610b83565b91508061033581610bf3565b9150506102e4565b5092915050565b60408051600180825281830190925260009182919060208083019080368337505060025482519293506001600160a01b03169183915060009061038957610389610c24565b60200260200101906001600160a01b031690816001600160a01b0316815250506000806103b68686610182565b5050505050509150915081600014610419576000806103d58888610248565b915091506000826103e657816103e8565b835b9050610413898760008151811061040157610401610c24565b60200260200101518a84896000610422565b96505050505b50505092915050565b60008060006104358989898989896104e1565b909250905081156104d05760008054604051634c4ce68160e11b81526001600160a01b038b811660048301526024820185905290911690639899cd029060440160206040518083038186803b15801561048d57600080fd5b505afa1580156104a1573d6000803e3d6000fd5b505050506040513d601f19601f820116820180604052508101906104c59190610ada565b93506104d792505050565b6000925050505b9695505050505050565b60008060008060008060008060009054906101000a90046001600160a01b03166001600160a01b0316634a3f088d8e8e8e8c6040518563ffffffff1660e01b81526004016105329493929190610b59565b6101006040518083038186803b15801561054b57600080fd5b505afa15801561055f573d6000803e3d6000fd5b505050506040513d601f19601f820116820180604052508101906105839190610af3565b97505050509450945094509450600061059e8d8b888661071c565b905060008060008054906101000a90046001600160a01b03166001600160a01b0316635c07eaab8f8a898f896040518663ffffffff1660e01b81526004016106159594939291906001600160a01b039590951685526020850193909352604084019190915215156060830152608082015260a00190565b604080518083038186803b15801561062c57600080fd5b505afa158015610640573d6000803e3d6000fd5b505050506040513d601f19601f820116820180604052508101906106649190610a95565b9092509050600088610676838f610bbd565b6106809190610b9b565b905060008380156106915750600082115b156106995750805b831580156106a75750600082115b156106b9576106b6828a610bdc565b98505b8e156106d8576106c98f82610b83565b90506106d58f8a610bdc565b98505b8d8a14156106ed576106ea8982610b83565b90505b8085811115610703576107008683610bdc565b90505b909b509950505050505050505050965096945050505050565b600080610728856107ce565b60008054604051633316e05160e21b81526001600160a01b038a8116600483015260248201899052604482018890529394509192169063cc5b81449060640160206040518083038186803b15801561077f57600080fd5b505afa158015610793573d6000803e3d6000fd5b505050506040513d601f19601f820116820180604052508101906107b79190610ada565b90506107c38183610b83565b979650505050505050565b6000816107dd57506000919050565b60008060009054906101000a90046001600160a01b03166001600160a01b031663126082cf6040518163ffffffff1660e01b815260040160206040518083038186803b15801561082c57600080fd5b505afa158015610840573d6000803e3d6000fd5b505050506040513d601f19601f820116820180604052508101906108649190610ada565b60008054906101000a90046001600160a01b03166001600160a01b03166312d43a516040518163ffffffff1660e01b815260040160206040518083038186803b1580156108b057600080fd5b505afa1580156108c4573d6000803e3d6000fd5b505050506040513d601f19601f820116820180604052508101906108e89190610a3f565b6001600160a01b031663318bc6896040518163ffffffff1660e01b815260040160206040518083038186803b15801561092057600080fd5b505afa158015610934573d6000803e3d6000fd5b505050506040513d601f19601f820116820180604052508101906109589190610ada565b60008054906101000a90046001600160a01b03166001600160a01b031663126082cf6040518163ffffffff1660e01b815260040160206040518083038186803b1580156109a457600080fd5b505afa1580156109b8573d6000803e3d6000fd5b505050506040513d601f19601f820116820180604052508101906109dc9190610ada565b6109e69190610bdc565b6109f09085610bbd565b6109fa9190610b9b565b9050610a068184610bdc565b9392505050565b80518015158114610a1d57600080fd5b919050565b600060208284031215610a3457600080fd5b8135610a0681610c3a565b600060208284031215610a5157600080fd5b8151610a0681610c3a565b60008060408385031215610a6f57600080fd5b8235610a7a81610c3a565b91506020830135610a8a81610c3a565b809150509250929050565b60008060408385031215610aa857600080fd5b610ab183610a0d565b9150602083015190509250929050565b600060208284031215610ad357600080fd5b5035919050565b600060208284031215610aec57600080fd5b5051919050565b600080600080600080600080610100898b031215610b1057600080fd5b885197506020890151965060408901519550606089015194506080890151935060a08901519250610b4360c08a01610a0d565b915060e089015190509295985092959890939650565b6001600160a01b039485168152928416602084015292166040820152901515606082015260800190565b60008219821115610b9657610b96610c0e565b500190565b600082610bb857634e487b7160e01b600052601260045260246000fd5b500490565b6000816000190483118215151615610bd757610bd7610c0e565b500290565b600082821015610bee57610bee610c0e565b500390565b6000600019821415610c0757610c07610c0e565b5060010190565b634e487b7160e01b600052601160045260246000fd5b634e487b7160e01b600052603260045260246000fd5b6001600160a01b0381168114610c4f57600080fd5b5056fea2646970667358221220e71a969d6ab79970ab2c08e5f218e8fd49acfd0176ec473eca66bc4466708d9a64736f6c63430008060033",
  "devdoc": {
    "kind": "dev",
    "methods": {},
    "version": 1
  },
  "userdoc": {
    "kind": "user",
    "methods": {},
    "version": 1
  },
  "storageLayout": {
    "storage": [
      {
        "astId": 10631,
        "contract": "contracts/vaultion_managers/VaultionManager_GMX_SHORT.sol:VaultionManager_GMX_SHORT",
        "label": "vault",
        "offset": 0,
        "slot": "0",
        "type": "t_contract(IVault)10221"
      },
      {
        "astId": 10634,
        "contract": "contracts/vaultion_managers/VaultionManager_GMX_SHORT.sol:VaultionManager_GMX_SHORT",
        "label": "arrTradingPair",
        "offset": 0,
        "slot": "1",
        "type": "t_array(t_address)dyn_storage"
      },
      {
        "astId": 10636,
        "contract": "contracts/vaultion_managers/VaultionManager_GMX_SHORT.sol:VaultionManager_GMX_SHORT",
        "label": "token",
        "offset": 0,
        "slot": "2",
        "type": "t_address"
      }
    ],
    "types": {
      "t_address": {
        "encoding": "inplace",
        "label": "address",
        "numberOfBytes": "20"
      },
      "t_array(t_address)dyn_storage": {
        "base": "t_address",
        "encoding": "dynamic_array",
        "label": "address[]",
        "numberOfBytes": "32"
      },
      "t_contract(IVault)10221": {
        "encoding": "inplace",
        "label": "contract IVault",
        "numberOfBytes": "20"
      }
    }
  }
}